:100000000EC028C027C026C025C024C023C022C0DF
:1000100021C020C08ACB1EC01EC01CC01BC0112422
:100020001FBECFE5D2E0DEBFCDBF10E0A0E6B0E05E
:10003000E4EAF8E102C005900D92A437B107D9F7C0
:1000400011E0A4E7B0E001C01D92AC3CB107E1F7BC
:1000500003D026CCD5CF1895A0E0B0E0E1E3F0E0E6
:10006000E8CB71B614BE8EE081BD89E288BB8EE319
:1000700087BB789481EA91E0AAD8892B09F0F8C16E
:10008000A8951092900080E690E022D7892B39F451
:1000900080E990E061E070E04EE850E06DD780913B
:1000A0009000870D81BF80E991E067E670E0C9D6D6
:1000B0009C018430910529F0A7E6AA2EA0E0BA2E73
:1000C000D2C180E991E06BE670E0BBD69C01FBE613
:1000D000AF2EF0E0BF2EC7C1812CE2E09E2E76E06D
:1000E000472E60E6362E51E6252E80E991E060E04D
:1000F00070E0E3D49C0142E0C42E90E1592EB0C1DF
:10010000A89580E991E068E770E0D7D49C0100975A
:1001100009F0ABC180918100882339F38091800080
:10012000827171F781E890E06CE670E02DDB00975A
:1001300039F380E990E0B50120DB80E990E061E7E8
:1001400070E010DB80E990E061E870E00BDBA895DF
:1001500080E990E0BDD69C01009709F07BC180E961
:1001600090E06CE070E04EE850E006D7892B09F093
:100170007FC180918E0090918F000C9709F078C11B
:100180008091980090919900A0919A00B0919B0065
:1001900087559144A645B54409F06AC1DD24A89568
:1001A00080E990E068E070E04EE850E0E5D68091AC
:1001B0008E0090918F00089709F05AC1E09094004A
:1001C000F09095000091960010919700809190001A
:1001D00090919100A0919200B09193008C3469E4C9
:1001E000960763E5A60764E5B60709F4B6C08D3443
:1001F00029E4920723E5A20724E5B20778F48636BE
:100200006DE6960764E7A60760E2B607B9F0845486
:100210009944A345B04509F02BC19FC0843661E6DF
:10022000960764E7A60761E6B60709F463C0865639
:100230009146A346B44709F01BC18FC0C701817026
:100240009070892B29F00894E11CF11C011D111DEF
:10025000D801C7014097A109B10985359105A105CC
:10026000B10508F005C180E990E0B7014EE850E023
:1002700083D680918E0090918F00A0E0B0E08E1523
:100280009F05A007B10709F0F3C08091900081306D
:1002900009F0EEC0D09092008D2D8150823008F090
:1002A000E7C0D1BA90919E00983019F0903109F0D2
:1002B000DFC081B3892B81BB94FDDD0C20919400BC
:1002C000309195004091960050919700DA01C90154
:1002D00080549F41A040B04081549C49A040B04010
:1002E00008F0C6C060E874E88EE190E080DA215042
:1002F00029BD55CFDD2009F4BBC080E0E81684E0BD
:10030000F80680E0080780E0180708F4B1C08D2DDA
:1003100090E001979C01442737FD4095542FDA0166
:10032000C9018E219F21A023B1230097A105B1050A
:1003300009F09EC08091B7019091B801A091B901D8
:10034000B091BA01282339234A235B2321153105B3
:100350004105510509F08CC01AC0C7018170907029
:10036000892B29F00894E11CF11C011D111D8091BD
:10037000B7019091B801A091B901B091BA01E80E0E
:10038000F91E0A1F1B1FC801B70182D208CF80B710
:10039000882381F447BC3CBC20BECABCC3BE59BE46
:1003A000DD24D394DEBCDBBC84E690E023D990E866
:1003B000D916B9F71092A00110927700109276002A
:1003C0008091B7019091B8019170B401681B790BCD
:1003D00080E090E04EE850E0CFD580918E00909183
:1003E0008F00A0E0B0E0E81AF90A0A0B1B0BDD242D
:1003F000D394A895A1E0EA16A4E0FA06A0E00A07C3
:10040000A0E01A0718F0C0E0D4E001C0E70180E0E6
:1004100090E0BE014EE850E0AFD59C010097D1F4CA
:1004200080918E0090918F00C817D90799F4DD0C48
:10043000B09904C0D394B1E0DB1661F0C050D44051
:1004400049F480E09CEFAFEFBFEFE80EF91E0A1F02
:100450001B1FCFCF8091A0018823E1F76EBC6BBC3E
:10046000232B31F44DCE80E8682E232B09F434CEB3
:10047000A89513BE1ABC80B7882359F010E8115014
:100480001EBD1BBD84E690E0B5D81123C1F710BE98
:100490001CBC8DE481BD85B7877E806185BF85B733
:1004A000806285BF889585B78F7D85BFA8958EE0D2
:1004B00081BDE0CDA0E0B0E0EFE5F2E0C4C96C01A1
:1004C000C0917400D0917500FC01118210822481CA
:1004D000358146815781213031054105510509F4A7
:1004E0005BC08E819F81A885B985281739074A0787
:1004F0005B0708F051C0211531054105510539F45C
:100500008881833021F42E853F8548895989F601F9
:1005100020873187428753872115310541055105D1
:1005200079F18EEFE82E8FEFF82E8FEF082F8FEFF7
:10053000182FE20EF31E041F151F8E819F81A885C0
:10054000B9850297A109B109E816F9060A071B0740
:1005500028F020E030E040E050E016C02A8130E092
:1005600040E050E0C801B70129D99B01AC018A895C
:100570009B89AC89BD89280F391F4A1F5B1F04C0A6
:100580002E853F8548895989F60124873587468716
:10059000578720E030E002C021E030E0C901CDB74C
:1005A000DEB7E8E06CC9A4E0B0E0E8EDF2E045C9F0
:1005B0004B015C01609074007090750082E08816B9
:1005C0009104A104B10408F4B0C0F30186819781BD
:1005D000A085B18588169906AA06BB0608F0A5C0B5
:1005E0008081823009F45DC0833009F478C08130A5
:1005F00009F09BC0C40196958795880D991D9C01B3
:100600003170892F992786956C01EE24FF24F30120
:100610004285538564857585CE010196F1E02F3FB3
:100620003F0749F0C40ED51EE61EF71EB701A6010E
:1006300002E010E01DC04C0D5D1D6E1D7F1D2FEFF3
:1006400031E001E010E004D7892B09F06EC0F3011E
:1006500042855385648575854F5F5F4F6F4F7F4F30
:100660004C0D5D1D6E1D7F1DCE01029620E030E019
:10067000EFD6892B09F059C069817A81C401817054
:100680009070892B39F0A4E076956795AA95E1F7EB
:100690009B0122C09B0140E050E03F7040705070D1
:1006A00048C077276B2D5A2D492DF30182859385FC
:1006B000A485B585480F591F6A1F7B1F94013070B0
:1006C000220F331FCE01019602E010E0C1D6892B24
:1006D00061F589819A819C0140E050E02AC0B50112
:1006E000A40127E076956795579547952A95D1F708
:1006F000F30182859385A485B585480F591F6A1F2C
:100700007B1F94012F773070220F331F220F331F6E
:10071000CE01019604E010E09BD6892B31F42981AB
:100720003A814B815C815F7004C021E030E040E0A1
:1007300050E0B901CA012496EEE09BC8A0E0B0E009
:10074000E3EAF3E07EC85C01C0917400D0917500CB
:10075000FC01C080D1800894C11CD11CC114D104FB
:1007600009F48FC0248535854685578521153105C7
:100770004105510509F485C0C6018F709070892B21
:1007800009F079C02F5F3F4F4F4F5F4F2487358768
:100790004687578740855185628573854115510588
:1007A0006105710539F48C819D81C816D90608F45C
:1007B00062C067C08A8190E001979601E4E03695B7
:1007C0002795EA95E1F782239323892B09F053C0FB
:1007D000CB01BA01E8DE9B01AC01623071058105F5
:1007E000910518F421E030E04EC08E819F81A885EC
:1007F000B985281739074A075B0708F042C0F50199
:100800002087318742875387C0917400D09175004B
:100810000EEFE02E0FEFF02E0FEF002F0FEF102F47
:10082000E20EF31E041F151F8E819F81A885B985D6
:100830000297A109B109E816F9060A071B0728F073
:1008400020E030E040E050E011C02A8130E040E09C
:1008500050E0C801B701B2D79B01AC018A899B89DE
:10086000AC89BD89280F391F4A1F5B1FF5012487FA
:10087000358746875787F501D182C08220E030E076
:1008800002C023E030E0C901CDB7DEB7EAE0F5C72A
:10089000A0E0B0E0EDE4F4E0CCC7E82FC091740034
:1008A000D0917500209719F426E030E001C18981CC
:1008B00080FD03C025E030E0FBC0EA8CFB8C0C8D92
:1008C0001D8D4E2F592FCB01DA013C014D01E6144D
:1008D000F7040805190510F437014801EE88FF8870
:1008E000088D198D1E8A1F8A188E198E6114710445
:1008F0008104910409F4D6C08A81A82EBB24CC249B
:10090000DD24B9E0AA0CBB1CCC1CDD1CBA95D1F7C8
:10091000E114F10401051105A1F117012801089462
:100920002108310841085108C401B30161507040E9
:1009300080409040A60195015AD779018A01C201F1
:10094000B101A601950153D7E216F3060407150776
:10095000C0F088279927DC018A199B09AC09BD09D9
:1009600082219321A421B5218E8B9F8BA88FB98FD3
:10097000681A790A8A0A9B0A2AA13BA14CA15DA1A7
:1009800032C02E8D3F8D48A159A12AA33BA34CA371
:100990005DA329C0CA01B90106DE9B01AC0162302A
:1009A00071058105910508F480C08E819F81A8851D
:1009B000B985281739074A075B0708F076C02AA3CC
:1009C0003BA34CA35DA38E899F89A88DB98D8A0D09
:1009D0009B1DAC1DBD1D8E8B9F8BA88FB98F6A1878
:1009E0007B088C089D08A614B704C804D90490F2AB
:1009F000EE88FF88088D198DE60CF71C081D191D5F
:100A0000EE8AFF8A088F198F80907400909075008D
:100A1000AEEFAA2EAFEFBA2EAFEFCA2EAFEFDA2E9F
:100A2000A20EB31EC41ED51EF40186819781A08537
:100A3000B1850297A109B109A816B906CA06DB0655
:100A4000A0F5228130E040E050E0C601B501B6D605
:100A50009B01AC01F40182899389A489B589280F8F
:100A6000391F4A1F5B1F2115310541055105E9F06A
:100A7000F9E016950795F794E794FA95D1F78A81EE
:100A800090E00197AA2797FDA095BA2FE822F922B6
:100A90000A231B232E0D3F1D401F511F2EA33FA3D2
:100AA00048A759A720E030E003C0198221E030E0D8
:100AB000C901CDB7DEB7E2E1D8C6ACE2B0E0E2E60C
:100AC000F5E0BFC67C016B018091740090917500C8
:100AD000892B19F426E030E0B6C0CE010196D7018B
:100AE00013969C938E9312976115710541F023E044
:100AF00030E08DE0A82EB12CAC0EBD1E28C0C70181
:100B0000D9DC9C01A0C0F701208131812F703070A9
:100B100015E0220F331F1A95E1F7C50100E210E03E
:100B200097D4892B19F021E030E020C09D859923CE
:100B300009F48DC0888D953E29F09E3219F08F738F
:100B400083FF20C0C701FADD9C01009779F4D7012B
:100B50001C964D915D916D917C911F9741155105AA
:100B60006105710581F62115310561F0F7011486E3
:100B70001586168617862330310521F0211531059B
:100B800009F061C09601275F3F4FF7018485958585
:100B9000A685B7850097A105B10509F443C0FE01FC
:100BA0003D96AE014B5E5F4F8081803251F08530C3
:100BB00009F485EED9018D939D013196E417F5076F
:100BC00099F78D89803299F08EE2F90181939F0126
:100BD000FE017596AE01485E5F4F8081803239F02C
:100BE000D9018D939D013196E417F507B1F7888DF2
:100BF000F6018087FE013D96448D558D668D778D7B
:100C0000D6014D935D936D937C931397808D918D59
:100C100015969C938E9314978689978917969C9323
:100C20008E931697F9011082C70188DD9C018330ED
:100C3000910549F4D7011C961D921D921D921C929C
:100C40001F9720E030E0C901AC96EAE016C623E029
:100C500030E08CCFA0E0B0E0EFE2F6E0EDC57C0143
:100C60005B016A0103C00894C11CD11CD6018C91A0
:100C70008032C9F38F3219F40894C11CD11CF701DA
:100C80001482158216821782D6018C91813230F43B
:100C9000C70110DCEC01F5011082C2C0A0E25A2E9F
:100CA00088248394FBE06F2E712C6A0C7B1CD70187
:100CB0001296CD91DC911397FE01CE010B9601C0E7
:100CC0005192E817F907E1F730E0992448E002C0B3
:100CD00038E04BE0F601E90DF11D208193942132BB
:100CE000A8F12F3299F12E3211F0341728F0483044
:100CF00069F52E3269F32AC0822F81588F3118F09E
:100D00008F558D31C0F4A32FB0E0842F90E0019770
:100D1000A817B90784F4F601E90DF11D90819394A9
:100D2000AC0FBD1F2C93832F8F5FFE01E80FF11DC9
:100D300090833E5FCFCF822F81568A3108F42052B4
:100D4000FE01E30FF11D20833F5FC4CF1B862132DC
:100D500008F48B86C701AEDBEC010097A1F5F70123
:100D60004485558566857785208131812F70307067
:100D7000E5E0220F331FEA95E1F7C50100E210E03C
:100D800067D3892B19F081E090E01CC0D5018C91CC
:100D9000882309F44AC0F301808183FD0FC0F70165
:100DA000A281B381F501E615F70509F441C09081F0
:100DB0008C91981719F431961196F5CFC701BEDCC6
:100DC000009769F2EC01C330D10551F5D7011296B5
:100DD000ED91FC9113978385882301F121C0F301E4
:100DE000808184FF1BC0C90CD11CD50154968D9104
:100DF0009C915597A0E0B0E0DC0199278827F50188
:100E0000228D338D40E050E0822B932BA42BB52B09
:100E1000F70184839583A683B78349CFC4E0D0E0EC
:100E2000CE01CDB7DEB7EFE023C5C3E0D0E0CBCF36
:100E3000D7011296ED91FC9113978385882379F25F
:100E4000EFCFACE2B0E0E6E2F7E0FFC48C01AB012B
:100E50008091740090917500892B19F426E030E0A0
:100E600033C0CE010196F801938382833DE0E32EE7
:100E7000F12CEC0EFD1EC801B701ECDE9C010097C1
:100E8000F1F48D858823C1F0888D84FF1BC0F701A4
:100E900084899589A0E0B0E0DC0199278827228D1C
:100EA000338D40E050E0822B932BA42BB52BF8011F
:100EB00084839583A683B783C801FCDA9C01233021
:100EC000310511F424E030E0C901AC96E6E0D9C464
:100ED000ACE3B0E0EDE6F7E0B8C4AC01009174001B
:100EE000109175000115110519F466E070E040C01D
:100EF000F8011182CE010196988B8F876DE1E62E65
:100F0000F12CEC0EFD1ECE010D96B701A3DEBC0147
:100F1000009771F58D8D882349F188A584FD26C041
:100F2000F70184899589A0E0B0E0DC019927882742
:100F3000228D338D40E050E0822B932BA42BB52BD8
:100F4000F801868F978FA0A3B1A3F701848D958DAB
:100F5000A68DB78DF801828F938FA48FB58F168AD7
:100F6000178A108E118E81E0818302C063E070E0E9
:100F7000CB01EC96E6E085C4A0E0B0E0E1ECF7E060
:100F80005AC43C016B014A01C0917400D0917500B4
:100F9000FA0111821082209719F426E030E0CAC0CD
:100FA000898180FD03C025E030E0C4C02A8D3B8DDF
:100FB0004C8D5D8D8E899F89A88DB98D281B390B2D
:100FC0004A0B5B0BCB01A0E0B0E0281739074A07BA
:100FD0005B0708F469015301412CE2E05E2EA0C0DA
:100FE0002E893F89488D598DDA01C9019170A07011
:100FF000B0700097A105B10509F05EC0DA01C90122
:1010000079E0B695A795979587957A95D1F7FA8067
:10101000FA94F822C9F4211531054105510529F446
:101020006E8D7F8D88A199A105C06AA17BA18CA13D
:101030009DA1B9DA623071058105910508F477C088
:101040006AA37BA38CA39DA30091740010917500EB
:101050002AA13BA14CA15DA122503040404050400C
:10106000F80186819781A085B1850297A109B10910
:10107000281739074A075B0708F059C0628170E0FA
:1010800080E090E09BD39B01AC01F80182899389B9
:10109000A489B589280F391F4A1F5B1F2115310507
:1010A0004105510509F443C02F0D311D411D511D4E
:1010B0002EA33FA348A759A72E893F893170C201AB
:1010C000821B930B76018C159D0508F47C0161143D
:1010D000710419F480E090E001C0C5014EA15FA148
:1010E00068A579A58701B4D1892B09F5C701A0E0CE
:1010F000B0E02E893F89488D598D280F391F4A1F2E
:101100005B1F2E8B3F8B488F598FAE0CBF1CCE18A8
:10111000DF08F401808191818E0D9F1D9183808372
:10112000C114D10409F05CCF20E030E003C0198283
:1011300021E030E0C901CDB7DEB7E0E198C3A0E01F
:10114000B0E0E4EAF8E07DC3B82EA92E6A017B0185
:101150002EEF31E002E010E07BD1892B11F023E08B
:1011600031C0CB2DDA2D8881998185559A4A11F0AD
:1011700022E028C08B2D9A2DB701A60126E330E08E
:1011800002E010E065D1892B39F488819981865479
:10119000914411F420E016C08B2D9A2DB701A601C1
:1011A00022E530E002E010E053D1892B11F021E07C
:1011B00009C020E0888199818654914409F421E096
:1011C00081E02827822FCDB7DEB7EAE056C3A4E23C
:1011D000B0E0ECEEF8E031C35C01109275001092C3
:1011E0007400009709F4E6C063D180FF03C022E0D9
:1011F00030E0E8C04E010894811C911CC40140E01D
:1012000050E060E070E09BDF813021F0CC24DD24F1
:10121000760119C0C40140E050E060E070E02EEBC0
:1012200031E000E110E014D1892B09F0C6C08D81B6
:10123000882309F4C5C0C984DA84EB84FC84C40122
:10124000B701A6017CDF833009F4B7C0882309F019
:10125000B7C0CE010196B701A6012DE030E004E24F
:1012600010E0F6D0892B09F0A8C08A859B85BC01C7
:1012700080E090E0611571058105910521F4688D8C
:10128000798D8A8D9B8D2C8130E040E050E096D2A4
:101290003B014C018A819B81A0E0B0E0C80ED91EC1
:1012A000EA1EFB1EF501C286D386E486F586898197
:1012B00082832D813E81358324838F8198857C01B3
:1012C00000E010E0E114F1040105110521F4EC88BF
:1012D000FD880E891F898A819B81A0E0B0E0E81A11
:1012E000F90A0A0B1B0BE618F70808091909B4E0FC
:1012F00036952795BA95E1F7C901A0E0B0E0E81A64
:10130000F90A0A0B1B0BF501228130E040E050E0A6
:10131000C801B7016CD22E5F3F4F4F4F5F4FF501B1
:101320002683378340875187273FFFE03F07F0E060
:101330004F07F0E05F0710F481E001C082E0275F13
:101340003F4F4040504008F083E0F50180838330F8
:1013500029F488A199A1AAA1BBA109C0F5018285A0
:101360009385A485B585860D971DA81DB91D868713
:101370009787A08BB18BF50184819581A4E0969528
:101380008795AA95E1F7A0E0B0E0228533854485F2
:101390005585820F931FA41FB51F860D971DA81D8D
:1013A000B91D828B938BA48BB58B1182B092750083
:1013B000A092740020E030E005C021E030E002C0DF
:1013C00027E030E0C901A496EEE053C2DF92EF922D
:1013D000FF920F931F93D82E7A018B0187FF0AC0CB
:1013E00087E740E050E060E070E0F0DF823050F5E9
:1013F0008FE7D822C39A09D1C39807D18D2D19D16F
:10140000812F9927AA27BB2714D1C801AA27BB2758
:1014100010D1BB27A12F902F8F2D0BD18E2D09D14D
:1014200080E4D81611F485E906C088E4D81611F4D2
:1014300087E801C081E0FDD01AE0E7D087FF02C055
:101440001150D9F71F910F91FF90EF90DF90089501
:10145000A0E0B0E0EDE2FAE0F6C16C017901809124
:10146000CB0183FD07C039E0440F551F661F771F6E
:101470003A95D1F781E5AADF882389F4C0E3D5E75F
:10148000C4D08F3F19F42197D9F709C08E3F39F4A2
:10149000C601B701A801DAD000E010E002C001E007
:1014A00010E0C39AB2D0C801CDB7DEB7E8E0E7C11B
:1014B000A4E0B0E0EDE5FAE0C6C1A3D00AE010E098
:1014C000A4D001501040E1F7C39808E512E09DD088
:1014D00001501040E1F780E440E050E060E070E04F
:1014E00075DF813009F05EC088E44AEA51E060E0CF
:1014F00070E06CDF8130B1F56E010894C11CD11C25
:1015000076018E010B5F1F4F80D0F70181937F0121
:10151000E017F107C9F78B81813009F043C08C8156
:101520008A3A09F03FC008EA11E603C001501040B2
:10153000C9F189EE40E050E060E070E447DF8823C5
:10154000A9F73CC062D0F60181936F01EE15FF054B
:10155000C9F7898186FD03C0E4E0FE2E24C07CE04B
:10156000F72E21C089EE40E050E060E070E02EDF11
:10157000823028F061E4E62EFF24F39404C059EE93
:10158000E52E42E0F42E08EA11E603C001501040B7
:1015900049F08E2D40E050E060E070E017DF8823D6
:1015A000A9F716C0FF24F092CB01C39A2ED080E099
:1015B000FF2009F481E02496E8E061C18AE740E079
:1015C00050E060E070E002DF882309F4BBCFEACF8F
:1015D00080E540E052E060E070E0F8DE882311F73B
:1015E000E2CFA895019728F0E0EAFFE03197F1F704
:1015F000F8CF089572E07A95F1F70197D9F7A89599
:10160000089588E08DB9C59A089584E086BB86BBAD
:1016100086BB86BB86BB86BB86BB86BB86BB86BBC2
:1016200086BB86BB86BB86BB86BB86BB00008FB1F4
:10163000089594E068B378E087FB65F968BB880F8C
:1016400096BB96BB7A95C1F7C59A0895DC01FB015C
:1016500022E032E02E1B3F0B241B350B84E0319738
:1016600088F086BB86BB86BB86BB86BB86BB86BB3B
:1016700086BB86BB86BB86BB86BB86BB86BB86BB62
:1016800086BBEDCF109731F0C0DF8D9341505040B5
:10169000D9F736C08C9956958C9947958999569566
:1016A0008999479560917600A0E9B0E0A60FB11D39
:1016B0008091A0018C3FE0F7A8DFEE278C9B03C050
:1016C000E82FA3DF8058F82F899B0BC09EDF992756
:1016D0008C9B03C0982F99DF8058E90FF81FF7956E
:1016E000E795ED93FD93F8948091A0018E5F809330
:1016F000A00178946E5F41505040B1F6609376003F
:1017000084E086BB86BB86BB86BB86BB86BB86BBAE
:1017100086BB86BB86BB86BB86BB86BB86BB86BBC1
:1017200086BB2150304069F708958F938FB78F9310
:10173000EF93FF93E0917700FF27E057FF4F8091F1
:10174000A001825048F08093A00181918EBD8191CB
:101750008BBDE059E0937700FF91EF918F918FBFA0
:101760008F911895FB01DC010D900020E9F711978E
:1017700001900D920020E1F70895FB01DC0101903A
:101780000D920020E1F70895FB0151915523A9F036
:10179000BF01DC014D9145174111E1F759F4CD012D
:1017A0000190002049F04D9140154111C9F3FB0112
:1017B0004111EFCF81E090E001970895FF27EE27D8
:1017C000BB27AA2760FF04C0A20FB31FE41FF51FA9
:1017D000220F331F441F551F969587957795679560
:1017E00089F70097760771F7CF01BD010895A1E24F
:1017F0001A2EAA1BBB1BFD010DC0AA1FBB1FEE1F8B
:10180000FF1FA217B307E407F50720F0A21BB30BD5
:10181000E40BF50B661F771F881F991F1A9469F751
:1018200060957095809590959B01AC01BD01CF01AD
:1018300008952F923F924F925F926F927F928F9274
:101840009F92AF92BF92CF92DF92EF92FF920F934F
:101850001F93CF93DF93CDB7DEB7CA1BDB0B0FB659
:10186000F894DEBF0FBECDBF09942A883988488816
:101870005F846E847D848C849B84AA84B984C884AC
:10188000DF80EE80FD800C811B81AA81B981CE0FA3
:10189000D11D0FB6F894DEBF0FBECDBFED01089588
:0418A000F894FFCFEA
:1018A4006F736363616C0077617600002E57415655
:0418B400002F000001
:02000004008278
:03000000E17DFFA0
:00000001FF
