:080000000C9414020C940000A2
:100008000C9400000C9400000C9400000C94000068
:100018000C9400000C9400000C9400000C94000058
:100028000C9400000C9400000C9400000C94000048
:100038000C9447020C9400000C9400000C940000EF
:100048000C9400000C9400000C9400000C94000028
:100058000C9400000C9400000C9400000C94000018
:100068000C9400000C9400000C9400000C94000008
:100078000C9400000C9400000C9400000C940000F8
:100088000C9400001E011F012B01360143014E0193
:100098005901690173017C018E01A101B201C101FD
:1000A800D201E20120222A2B2C5B3D5D7C7F0000DF
:1000B8000004000200018000400020001000080039
:1000C800040002000000008000400020001000082A
:1000D800004000200010000800040002303A2F669B
:1000E800696C652E7478740049206C696B652043CF
:1000F8006F6465566973696F6E4156522120486571
:100108007265277320736F6D65206D6F726520743B
:100118006578742E2E2E0046525F4449534B5F4536
:1001280052520046525F494E545F45525200465261
:100138005F4E4F545F52454144590046525F4E4FFF
:100148005F46494C450046525F4E4F5F5041544808
:100158000046525F494E56414C49445F4E414D4519
:100168000046525F44454E4945440046525F455853
:100178004953540046525F494E56414C49445F4FDB
:10018800424A4543540046525F57524954455F50CE
:10019800524F5445435445440046525F494E5641D8
:1001A8004C49445F44524956450046525F4E4F54AD
:1001B8005F454E41424C45440046525F4E4F5F46B4
:1001C800494C4553595354454D0046525F4D4B4693
:1001D800535F41424F525445440046525F54494D83
:1001E800454F5554004552524F523A2025700D0A3A
:1001F8000046696C653A2025732C20417474726935
:1002080062757465733A2025632563256325632524
:10021800630D0A446174653A20253032752F253004
:1002280032752F25752C2054696D653A202530329A
:10023800753A253032753A253032750D0A53697A88
:10024800653A20256C752062797465730D0A00463D
:10025800696C65202573206F70656E6564204F4B4F
:100268000D0A0025752062797465732072656164D2
:100278000D0A005265616420746578743A2022255D
:1002880073220D0A0046696C6520257320636C6F24
:10029800736564204F4B0D0A004C6F676963616C8E
:1002A80020647269766520303A206D6F756E7465CA
:1002B80064204F4B0D0A0046696C65202573206346
:1002C800726561746564204F4B0D0A00577269743A
:1002D8006520746578743120746F207468652066B1
:1002E800696C650D0A00257520627974657320773D
:1002F80072697474656E206F662025750D0A005347
:1003080065656B20746F2074686520656E64206F66
:1003180066207468652066696C65204F4B0D0A007D
:10032800417070656E6420746578743220746F2033
:100338007468652066696C650D0A00257520627908
:1003480074657320617070656E646564206F6620E3
:1003580025750D0A00526561642D4F6E6C79206118
:10036800747472696275746520736574204F4B0DDF
:100378000A004E65772074696D65207374616D702D
:1003880020253032752F253032752F2575202530E0
:1003980032753A253032753A2530327520736574D6
:1003A800204F4B0D0A00526561642D4F6E6C792009
:1003B80061747472696275746520636C65617265D5
:1003C80064204F4B0D0A000001000400EBFE904D25
:1003D80053444F53352E30004E4F204E414D45204B
:1003E8002020204641543332202020004E4F204EFA
:1003F800414D452020202046415420202020200027
:100408000B006C09E40016007809F00018008F0949
:1004180006010100A80AD0030100AC0AD2030000BB
:10042800F894EE27ECBBF1E0F5BFE5BFE0936C0074
:10043800F8E1F1BDE1BD8DE0A2E0BB27ED938A951F
:10044800E9F780E090E1A0E0B1E0ED930197E9F7EA
:10045800E8E0F4E085919591009761F0A591B59158
:1004680005901590BF01F00105900D920197E1F7F5
:10047800FB01F0CF8BBFEFEFEDBFE0E1EEBFC0E0D7
:10048800D5E00C944F030A921A92FA926A937A93DF
:100498008A939A93AA93BA93EA93FA93EFB7EA9353
:1004A800EFEFEDBDE0E7ECBD0E940909E991EFBF70
:1004B800F991E991B991A991999189917991699164
:1004C800F990199009901895AA93A881A13010F075
:1004D800A03108F012C0EDEEF1E0FA93EA93EA8158
:1004E800ACE8B0E0F0E0EE0FFF1FEA0FFB1F0E9440
:1004F8000B240E94D91D0E94DE1DFFCFBA93AA9338
:10050800E881F981FA93EA93A6E5B9E00E944A1ACC
:100518005E2EE03009F07AC0E9EFF1E0FA93EA9351
:10052800EFE5F9E00E94D91DE0915E09E07111F054
:10053800E4E401C0EDE20E94E31DE17011F0E2E5A0
:1005480001C0EDE20E94E31DE27011F0E8E401C091
:10055800EDE20E94E31DE47011F0E3E501C0EDE275
:100568000E94E31DE07211F0E1E401C0EDE2FF2713
:10057800662777270E942324E0915A09F0915B09A6
:10058800EF71F0700E94D91DA0915A09B0915B09D2
:10059800E5E00E944423EF70F0700E94D91DA091FD
:1005A8005A09B0915B09E9E00E944423E454F84FEA
:1005B8000E94D91DA0915C09B0915D09EBE00E94F1
:1005C80044230E94D91DA0915C09B0915D09E5E022
:1005D8000E944423EF73F0700E94D91DE0915C09DA
:1005E800F0915D09EF70F070EE0F0E94D91DE09157
:1005F8005609F091570960915809709159090E945C
:10060800232484E30E94061DE69602C0A52D5CDF24
:10061800229608950E94EB1D0E94F01DA1E00E9401
:10062800F51D29F40E94FA1D0E94DE1D02C0A52DA9
:100638004BDF0E94EB1DE8EAF9E0FA93EA93EFEF4B
:10064800F0E00E94011E0E9410155E2EE030B1F409
:10065800EBE6F2E00E94061E0E94DE1DF301E7555C
:10066800F64FA0E0A083EBE7F2E0FA93EA93E8EA1A
:10067800F9E00E94D91D0E94DE1D02C0A52D24DFCD
:100688000E940A1E29F40E94111E0E94DE1D02C04B
:10069800A52D1ADF0895E0E0EFBDE5E0EEBDEFEF30
:1006A800EDBDE0E7ECBDE4E0E7BFE0E0EBB9E8E092
:1006B800EAB9E6E0E0939500E0E0E0939000EFE22D
:1006C800E9B9E0E0EA93EA93A0E00E94491DE3E675
:1006D800FDE1E0930005F0930105E8E8FDE1E09312
:1006E8000205F09303057894E0E0EA93A4E0B5E00E
:1006F8000E94BE135E2EE03029F4E1EAF2E00E9487
:10070800181E02C0A52DE0DEACE6B9E00E947B1AF7
:100718000E94EB1D0E94F01DAAE00E94F51D39F40D
:10072800EFEBF2E00E941F1E0E94DE1D02C0A52D05
:10073800CBDEE4EDF2E00E94181E0E94EB1DE8E714
:10074800F9E0FA93EA93E6E1F0E00E94011E0E94C4
:1007580072165E2EE03059F4EEEEF2E00E94061EAC
:10076800E6E1F0E060E070E00E94241E02C0A52DE2
:10077800ABDE0E940A1E29F40E94111E0E94DE1D93
:1007880002C0A52DA1DE46DF0E94EB1D0E94F01DD0
:10079800A2E00E94F51D29F40E94FA1D0E94DE1DA8
:1007A80002C0A52D91DE0E94EB1DA0914007B091DB
:1007B800410780914207909143070E94A9185E2E35
:1007C800E03039F4E7E0F3E00E941F1E0E94DE1DCE
:1007D80002C0A52D79DEE8E2F3E00E94181E0E940F
:1007E800EB1DEFE8F9E0FA93EA93E8E1F0E00E9404
:1007F800011E0E9472165E2EE03059F4E3E4F3E025
:100808000E94061EE8E1F0E060E070E00E94241E0D
:1008180002C0A52D59DE0E940A1E29F40E94111E4D
:100828000E94DE1D02C0A52D4FDEF4DE0E942B1EA5
:10083800E1E00E94301E39F4EDE5F3E00E941F1E4E
:100848000E94DE1D02C0A52D3FDEE6E6F8E2E09339
:100858005A09F0935B09E0E0F5E7E0935C09F0934F
:100868005D090E94F01DA6E5B9E00E94411B5E2EBD
:10087800E03059F5EAE7F3E0FA93EA93E6E0F0E0CE
:1008880060E070E00E942324E3E0F0E060E070E0C4
:100898000E942324E0EDF7E060E070E00E9423244A
:1008A800EEE0F0E060E070E00E942324E8E2F0E08F
:1008B80060E070E00E9423240E94371E0E942324D7
:1008C80088E10E94061D6A9602C0A52DFDDD0E94E2
:1008D8002B1EE0E00E94301E39F4EEEAF3E00E949D
:1008E8001F1E0E94DE1D02C0A52DEEDDACE6B9E09C
:1008F80005DEFFCFFFCFAA930E94502420E00C8191
:10090800AD81BE813D91AD83BE8318E0220FE22FF9
:10091800E327E07811F0E9E02E27330F1150B1F703
:10092800015071F7E22FEE0FE1600E9457242AC5AB
:100938001A93E2E3E093AA0AEFEFEFB9779BFECFB1
:10094800EFEFEFB9779BFECF1FB11F3F21F0E0918A
:10095800AA0AE03009F401C0F3CFE12F92C4969AB5
:10096800EFEFEFB9779BFECF0895BA93AA930E9451
:100978005024EAE0E093A90AEFEFEFB9779BFECFA6
:100988001FB11F3F21F4E091A90AE03009F401C02A
:10099800F3CF1E3F21F0E0E00E94572429C52E81A5
:1009A8003F81EFEFEFB9779BFECF3F932F932F5FF8
:1009B8003F4FEFB1AF91BF91EC93EFEFEFB9779B5A
:1009C800FECF3F932F932F5F3F4FEFB1AF91BF9172
:1009D800EC93EFEFEFB9779BFECF3F932F932F5F09
:1009E8003F4FEFB1AF91BF91EC93EFEFEFB9779B2A
:1009F800FECF3F932F932F5F3F4FEFB1AF91BF9142
:100A0800EC93EC81FD813497EC83FD8351F6EFEF95
:100A1800EFB9779BFECFEFEFEFB9779BFECFE1E021
:100A28000E945724E5C4AA930E94502481DFEF3F17
:100A380021F0E0E00E945724A5C4EC81EFB9779B30
:100A4800FECFAC81AD3F41F100E02D813E81D9015F
:100A58002F5F3F4FEC91EFB9779BFECFD9012F5F06
:100A68003F4FEC91EFB9779BFECF015081F7EFEF45
:100A7800EFB9779BFECFEFEFEFB9779BFECFEFEFA4
:100A8800EFB9779BFECF1FB1E12FEF71E53021F071
:100A9800E0E00E94572476C4E1E00E94572472C423
:100AA8000E9428241A930A93EE81E07889F0EE8157
:100AB800EF77EE83E7E7EA93A0E0B0E080E090E02C
:100AC800EFDF0E2F023020F0E02F198108815AC481
:100AD800969A96982DDFEF3F21F0EFEF1981088164
:100AE80051C4EE81EFB9779BFECFED81EFB9779BCB
:100AF800FECFEC81EFB9779BFECFEB81EFB9779B07
:100B0800FECFEA81EFB9779BFECF11E0AE81A0342A
:100B180011F415E904C0AE81A83409F417E81FB927
:100B2800779BFECFAE81AC3421F4EFEFEFB9779B22
:100B3800FECF1FEFEFEFEFB9779BFECF0FB107FFA7
:100B480002C0115009F401C0F5CFE02F19810881C6
:100B580019C4BA93AA931A9314E0EFEFEFB9779BED
:100B6800FECFA981BA811196A983BA831197EFB1F3
:100B7800EC93115091F74DC5AA9324970E945024E5
:100B8800E885E03011F0E1E0C9C0E0916400EF7E53
:100B9800E0936400E0916400E77FE0936400EAE09A
:100BA800E093A90AE091A90AE030E1F7E091A80AE8
:100BB800E27009F0B1C08E9A969AE8B3E97FE8BB73
:100BC800C39ABB98E7B3E760E7BBE3E5EDB9E0E0BC
:100BD800EEB93FEF1AE0EFEFEFB9779BFECF115078
:100BE800D1F7E0E4EA93A0E0B0E080E090E058DFDD
:100BF8000E2F3150013011F0303009F401C0EACF26
:100C080030E0013009F068C0E4E6E093A90AE8E4BE
:100C1800EA93AAEAB1E080E090E042DFE13091F5A2
:100C2800DE01149696DFAE81A13019F4AF81AA3A9D
:100C380009F027C0E091A90AE03049F0E9EEEA930B
:100C4800A0E0B0E080E090E42BDFE03009F401C0E0
:100C5800F1CFE091A90AE03049F0EAE7EA93A0E091
:100C6800B0E080E090E01CDFE03009F00AC0DE016F
:100C780014966FDFEC81E07411F0ECE001C0E4E061
:100C88003E2F2AC0E9EEEA93A0E0B0E080E090E0D1
:100C980007DFE23018F432E009EE02C031E001E487
:100CA800E091A90AE03041F00A93A0E0B0E080E0CA
:100CB80090E0F6DEE03009F401C0F2CFE091A90A35
:100CC800E03049F0E0E5EA93A0E0B2E080E090E0AF
:100CD800E7DEE03009F030E03093AB0A40DE303038
:100CE80051F0E091A80AEE7FE093A80AE0E5EDB99B
:100CF800E1E0EEB911C096981BDE31DEE0E0EDB917
:100D0800E7B3E07FE7BBE8B3E07FE8BB8E98E0910C
:100D1800A80AE160E093A80AE091A80A0E94572473
:100D280029960895AA93E881E03011F0E1E002C025
:100D3800E091A80A21960895AA93EF81E03019F46A
:100D4800E881E03011F4E4E053C3E091A80AE170CF
:100D580011F0E3E04DC3E091AB0AE87071F4E9816A
:100D6800FA816B817C81A0E0B2E080E090E00E9493
:100D78009023E983FA836B837C83A881A130A9F44B
:100D8800E1E5EA93AA81BB818C819D8189DEE0300F
:100D980059F4ED81FE81FA93EA93A0E0B2E0E5DD33
:100DA800E03011F0E0E0E88323C0E2E5EA93AA81AD
:100DB800BB818C819D8174DEE030D1F4ED81FE81B0
:100DC800FA93EA93A0E0B2E0D0DDE03051F0ED8193
:100DD800FE81E050FE4FED83FE83E881E150E88319
:100DE80069F7ECE4EA93A0E0B0E080E090E058DE38
:100DF800B6DDE881E03011F0E1E001C0E0E0F8C2E2
:100E0800AA93EF81E03019F4E881E03011F4E4E0CE
:100E1800EFC2E091A80AE17011F0E3E0E9C2E091C5
:100E2800A80AE47011F0E2E0E3C2E091AB0AE870CE
:100E380071F4E981FA816B817C81A0E0B2E080E005
:100E480090E00E949023E983FA836B837C83A881D6
:100E5800A130A1F4E8E5EA93AA81BB818C819D8148
:100E68001FDEE03051F4ED81FE81FA93EA93AEEF94
:100E7800DADDE03011F0E0E0E88330C0E091AB0A61
:100E8800E67039F0E7EDEA93A981BB27882799270F
:100E980007DEE9E5EA93AA81BB818C819D8100DEAA
:100EA800E030E1F4ED81FE81FA93EA93ACEFBBDD2B
:100EB800E03051F0ED81FE81E050FE4FED83FE837E
:100EC800E881E150E88371F7E0E0F0E0FA93EA9313
:100ED800ADEFA9DDE03011F4E1E0E88340DDE88121
:100EE800E03011F0E1E001C0E0E082C2BA93AA93D9
:100EF80060970E945024EF89E03011F0E4E081C14E
:100F0800E091A80AE17011F0E3E07BC111E0EE89FD
:100F1800E03031F496980CDDEF3F09F410E06FC132
:100F2800E13009F05BC0E9E4EA93A0E0B0E080E0DA
:100F380090E0B6DDE03049F4FE013496FA93EA9386
:100F4800A0E1B0E012DDE03009F447C0EC81E295A1
:100F5800EF70E695E695E13069F4E0E0FC85AD8553
:100F6800B0E0EA0FFB1F31969F01D9018827992726
:100F7800EAE02CC0E985EF70AE2FEE85E078EE1F31
:100F8800E0E0EE1FAE0FED85E370EE0FEA0FEE5FC7
:100F98000E2FEC85E295EF70E695E695AE2FEB8582
:100FA800F0E00E946923B0E0AE0FBF1FEA85E3704E
:100FB800F0E00E946923FE2FE0E0EA0FFB1F319664
:100FC8009F01D90188279927E02FE9500E944D23D6
:100FD800AC89BD890E94012410E011C1E23041F4BE
:100FE800AC89BD89E0E0F2E0ED93FC9310E007C125
:100FF800E33009F0A9C0E091AB0AE47071F1EDECBF
:10100800EA93A0E0B0E080E090E04ADDE03021F52E
:10101800EFEFEFB9779BFECFFE013496FA93EA9390
:10102800A0E1B0E0A2DCE030B9F000E3003031F03C
:10103800EFEFEFB9779BFECF0150F8CFEE85E29541
:10104800EF70A0E1B0E080E090E00E944D23AC8911
:10105800BD890E94012410E076C0E9E4EA93A0E08B
:10106800B0E080E090E01CDDE03009F06CC0FE01EB
:101078003496FA93EA93A0E1B0E077DCE03009F423
:1010880062C0E091AB0AE27051F1EE85EF73FF2781
:10109800662777270E9477237F936F93FF93EF93B9
:1010A800EF85E078FF2766277727DF01CB01E7E0A8
:1010B8000E945923AF91BF918F919F910E941E2347
:1010C800EF5FFF4F6F4F7F4FDF01CB01E989E2955B
:1010D800EF70E695E695E1500E944D232FC0EE850E
:1010E800EC77E695E695FF2766277727EF5FFF4FB2
:1010F8006F4F7F4F7F936F93FF93EF93EF85E3706D
:10110800FF2766277727DF01CB01E3E00E944D2305
:10111800DF01CB01EF85E07EE295EF70E695FF27D2
:10112800662777270E941E23EF5FFF4F6F4F7F4F81
:10113800AF91BF918F919F910E949023AC89BD89F7
:101148000E94012410E05BC0EA3039F4E091AB0A58
:10115800AC89BD89EC9310E052C0EB3011F409E47E
:1011680003C0EC3009F50AE40A93A0E0B0E080E09F
:1011780090E096DCE030B9F4EC89FD89FA93EA93C3
:10118800A0E1B0E0F2DBE03071F0EC89FD89FA9380
:10119800EA93AFE0B0DBAE2FEC89FD89E785EF7706
:1011A800EA1709F410E02BC0ED3071F4EAE7EA938E
:1011B800A0E0B0E080E090E073DCE03021F4AC899E
:1011C800BD89C7DC10E01BC0EE30C1F4EDECEA933A
:1011D800A0E0B0E080E090E063DCE03071F4EFEF95
:1011E800EFB9779BFECFEC89FD89FA93EA93A0E4E7
:1011F800B0E0BBDBE03009F010E001C014E0AFDB89
:10120800E12F0E945724689608951A93E091A90A3D
:10121800E03029F0E091A90AE150E093A90AE091B1
:10122800AA0AE03029F0E091AA0AE150E093AA0A5C
:101238001091AC0AE0E0E093AC0AE0916300E07141
:1012480019F4E1E0E093AC0AE0916300E87029F05A
:10125800E091AC0AE260E093AC0AE091AC0AE117D5
:1012680081F41091A80AE17011F01D7F01C013608C
:10127800E091AC0AE27011F0146001C01B7F10937A
:10128800A80A199108952797A0910005B091010522
:10129800109731F0A0910205B0910305109729F439
:1012A800E0E0F0E061E27AE36DC0FE013696FA9381
:1012B800EA93FE013796FA93EA93DE011896E091D5
:1012C8000005F09101050995FE013396FA93EA931A
:1012D800FE013496FA93EA93DE011496E091020532
:1012E800F09103050995E881F981EC5BF7406627E1
:1012F8007727DF01CB01E9E10E944D237F936F93AC
:10130800FF93EF93EA810E943C1EE5E10E944D2382
:10131800AF91BF918F919F910E943723DF01CB013D
:10132800EB81F0E00E9486230E9481230E943723EC
:101338007F936F93FF93EF93EE810E943C1EEBE047
:101348000E944D23AF91BF918F919F910E943723A7
:101358007F936F93FF93EF93ED810E943C1EE5E02E
:101368000E944D23AF91BF918F919F910E94372387
:10137800DF01CB01EC81F0E0F595E7950E9486232B
:101388000E943723279608950E94421E08851985D2
:101398002E813F81EC81FD813197EC83FD8331966D
:1013A80061F01F930F930F5F1F4FD9012F5F3F4FBE
:1013B800EC91AF91BF91EC93EDCF0E9457242CC4D0
:1013C800BA93AA931A930A930E811F81EA81FB812B
:1013D8003197EA83FB83319649F01F930F930F5F90
:1013E8001F4FEC81AF91BF91EC93F0CF1981088129
:1013F80028960895BA93AA930E944E240A851B85BD
:101408002885398540E050E0EE81FF813197EE83F1
:10141800FF83319681F0D8010F5F1F4F0C90112484
:10142800D9012F5F3F4FAC91BB27F001EA1BFB0BA3
:10143800AF01309709F001C0E7CFFA010E945524A7
:101448002C960895BA93AA93EA81FB81E491E0303F
:1014580049F0EA81FB81A491E881F981B0E0EA17BB
:10146800FB0709F406C0EA81FB813196EA83FB8316
:10147800EBCFEA81FB81E491F0E0249608950E9485
:10148800282424971A93A985BA859E960E94471EF8
:101498000E944E1E0E94531E0E94442409F450C00C
:1014A800E985FA85E481E03099F10E94581EE03020
:1014B80011F0E1E046C0A985BA851496E0E0EC9306
:1014C800E985FA850E946A1E0D01A985BA855A9692
:1014D8000E94F623D0010E941E230E94531E0E94E0
:1014E8004924B0F4E985FA851381123088F0A9857A
:1014F800BA855A960E94F6230E94531E0E941E2304
:10150800E983FA836B837C830E94581E1150EDCFC8
:101518000E944E1E0E943A2499F0E985FA85A1811D
:10152800AA93EA85FB85F2960E946F1E11F0E1E00E
:1015380008C00E944E1EA985BA859E960E94012465
:10154800E0E018812B9608950E947C1E0E94841E5C
:101558000E94891E09F05CC0A981BA81AC91A330B0
:1015680029F4E981FA81E581E03009F445C0A981CF
:10157800BA819E960E948E1EE981FA810E94921E6F
:10158800E981FA81F296E250FE4FA5E5BAEAA08316
:10159800B183E981FA81F296A2E5B2E581E691E4A8
:1015A8000E949D1EEC51FE4FA2E7B2E781E491E64E
:1015B8000E949D1EE851FE4F0F01A981BA811E9617
:1015C8000E94A31EF296E451FE4F0F01A981BA8131
:1015D8001A960E94A31EA181AA93EA81FB81F29622
:1015E800FA93EA93EC81FD810E94AB1E09DCA98184
:1015F800BA811596E0E0EC93E981FA81A181AA937A
:10160800E0E0EA93A0E0B0E071DCE03009F011E03E
:10161800E12F1881239608950E94282424970E9478
:1016280050240E94B31E0E94B81E50F0AC85BD85A0
:101638005E960E94F6230E94B31E0E94492418F069
:101648000E94C01E60C0AC85BD8592960E94C51ED2
:10165800AC85BD85EC91F0E0E130A0E0FA0739F502
:1016680028853985F901F695E7952E0F3F1F0E94C9
:10167800CC1E09F046C00E94E11E0C9111272F5F75
:101688003F4F0E94CC1EE9F50E94E11EEC91FE2F0F
:10169800E0E00E2B1F2BE885E17021F0F8010E9495
:1016A8006E2302C0F801FF70662777272CC0E2304E
:1016B800A0E0FA0779F40E94E91E0E94F21E0E9437
:1016C800F91EF9F4A885B985E2E00E94031F0E947B
:1016D8000C1F19C0E330A0E0FA0799F40E94E91E34
:1016E8000E94111F0E94F91E61F4A885B985E4E0E3
:1016F8000E94031F0E94F623EF7FFF7F6F7F7F709A
:1017080002C00E94181F0E9457242E9608950E9416
:10171800282424970E944E240E941D1F0E94B81E50
:1017280050F0AA89BB895E960E94F6230E941D1F6D
:101738000E94492410F052E085C0AA89BB8992967C
:101748000E94F623EE83FF8368877987AA89BB897D
:10175800EC91F0E0E130A0E0FA0709F043C00E8513
:101768001F85F801F695E7950E0F1F1F0E94221F8F
:1017780009F063C00E94351F51F0D901EC91EF7058
:10178800AE2FEA85F0E00E946523EA2B01C0EA85C6
:10179800D901EC930F5F1F4FAA89BB891496E1E02A
:1017A800EC930E94221F09F048C00E94351F49F09F
:1017B8000E94401FE4E00E945923FF2766277727ED
:1017C8000EC0D901EC91E07F1E2E0E94401FE8E078
:1017D8000E945923FF2766277727EF70E129D9014F
:1017E800EC932BC0E230A0E0FA0789F40E94451F71
:1017F8000E94F21E0E944E1F01F5AE85BF85E2E0F1
:101808000E94561FAA85BB85A083B18316C0E3300A
:10181800A0E0FA0789F40E94451F0E94111F0E9448
:101828004E1F59F4AE85BF85E4E00E94561F0E9402
:10183800401F0E941E2401C052E0AA89BB89149649
:10184800E1E0EC93E52F0E945524649608950E94E8
:10185800282424971A930E945F1F0E94B81E18F02C
:101868000E94641F10F012E044C010E00E94641F40
:1018780008F03FC0E985FA85FA93EA93AF81B88505
:1018880089859A85C9DEE983FA836B837C830E9404
:101898006D1F0E943A2469F10E94531E0E94721F14
:1018A80011F412E026C00E94531E0E947A1F11F400
:1018B80011E01FC0E985FA85FA93EA93EF81F8856C
:1018C80069857A850E9423240E94841E20DF1E2FAA
:1018D800103079F4E985FA850E94821F29F00E9468
:1018E800871F1596E1E0EC930E946D1F0E94951FDB
:1018F800BDCFE12F188181C20E9428246097AC894E
:10190800BD895E960E94F6230E949A1F0E949D1F21
:101918000E943A24B1F4AC89BD891A960E94C51E6A
:101928000E94A21F0E943E2439F00E94A71F0E9415
:10193800A21F0E94492420F00E94C01E0E94AA1FD4
:101948001CC00E94AF1F0E94B41F0E94B91F0E94B2
:10195800C01F0E94B81E18F40E94C01E8CC00E94AE
:10196800A71F0E94C01F0E94492418F40E94C51F87
:1019780082C00E949D1F0E94AA1F0E94CA1F0E9427
:10198800CF1F0E94D41FEF5FFF4F6F4F7F4F0E9402
:10199800CF1F0E94A71F0E94B31E0E94492460F017
:1019A800E2E0F0E060E070E00E94CF1F0E94D91FE3
:1019B80018F40E94371E5FC00E94AF1F0E94401F8C
:1019C8000E94B91F0E94DE1FA1F00E94C01F0E9442
:1019D8007A1F29F00E94C01F0E94721F19F40E94EA
:1019E800C51F49C00E94D91F19F40E94371E43C061
:1019F800C8CF0E94AF1FEA85FB856C857D850E9454
:101A08002324AFEFBFEF8FEF9FE081DEE03019F0C6
:101A18000E94181F30C00E949D1F0E943A2471F036
:101A28000E94AF1F0E94E21F0E9423240E941D1FD4
:101A38006EDEE03019F00E94181F1DC00E94D41FEE
:101A4800AC89BD891A960E940124EC89FD890E94FF
:101A5800821F79F0AC89BD891E960E94FC233197BC
:101A6800604070400E940624AC89BD891596E1E06B
:101A7800EC930E94D41F669608950E9428240E9421
:101A8800A71FE250F040604070400E949A1FEC810E
:101A9800FD81A68DB78D80A191A1E2E0F0E060E024
:101AA80070E00E94E71F0E9414240E94492418F045
:101AB8000E94371E46C4EC81FD81E281F0E00E945D
:101AC80014240E9486230E9490237F936F93FF9390
:101AD800EF93AC81BD819A960E94F623AF91BF9196
:101AE8008F919F910E941E232CC4BA93AA93249786
:101AF8001A930A93EE81FF81A885B9851496ED9310
:101B0800FC93A885B98516960E94EC1F0E94F31FC6
:101B18000E94721F29F00E94F81F0E94FD1F10F0FA
:101B2800E2E078C00E94052029F40E94F81FA081F5
:101B3800A33009F006C00E94F81FB696DF010E9484
:101B4800EC1F0E940520A1F40E940C203896DF01AA
:101B58000E94F223AE81BF81AE17BF0710F0E2E00A
:101B680059C00E94F81FB696DF010E94F62337C0BD
:101B78000E94F81FE281A0E1EA9F8001AE81BF8147
:101B8800A017B10728F10E94F81FFA93EA930E9460
:101B9800A21F42DDEA83FB836C837D830E94F31FCF
:101BA8000E947A1F11F4E1E035C00E94F31F0E94E1
:101BB800B81E28F00E94F81F0E94FD1F10F0E2E0F6
:101BC80029C0EE81FF81E01BF10BEE83FF83D6CFA6
:101BD8000E940C20FA93EA930E94A21F4EDFDF01B5
:101BE800CB01EE81FF810E946E230E941620A885FA
:101BF800B9851E960E9401240E94F81FF296DF0103
:101C0800EE81FF810E941B20A885B9855296ED932D
:101C1800FC93E0E0198108812A960895AA932497F5
:101C28000E945024A985BA8514960E94F223319601
:101C38008F01002E012A29F0A985BA850E94232048
:101C480011F4E4E0D8C0F801EF7009F0C1C00E94B7
:101C5800871F1A960E94F6230E943A2461F40E9474
:101C680029203896DF010E94F2230E171F0710F073
:101C7800E4E0C1C0ADC0F8010E946E230F010E94CC
:101C88002920E281F0E03197E021F121309709F035
:101C98009FC00E9429200E942E20BEDC0E94AA1FFD
:101CA8000E94A21F0E94B81E10F4E2E0A4C00E9485
:101CB800A21F0E947A1F11F4E1E09DC00E94292012
:101CC8007E96DF010E94F6230E94A21F0E944924EB
:101CD80008F46EC0E885E03011F4E4E08CC00E949E
:101CE80029200E942E2008DE0E9437200E943A24D4
:101CF80011F4E7E080C00E94A21F0E94721F11F435
:101D0800E2E079C00E94A21F0E947A1F11F4E1E06C
:101D180072C00E9429200E94392011F0E1E06BC0B6
:101D28000E9429200E94921E0E942920DF01BE964F
:101D3800FF93EF93FD010E944020AF91BF910E9455
:101D4800012430E00E942920E2813E17E8F40E9435
:101D580029203496A1E0A0830E9429200E943920DE
:101D680011F0E1E048C00E942920BE96DF010E94E0
:101D7800FC23EF5FFF4F6F4F7F4F0E940624319780
:101D8800604070403F5FDECF0E942920BE96FF93DF
:101D9800EF93DF010E94F623DF01CB01E32FF0E090
:101DA8000E9486230E94E71FAF91BF910E940124E1
:101DB8000E94CA1FA985BA851A960E9401240E940A
:101DC80029200E944020A985BA851E960E940124D8
:101DD800F801A985BA851496ED93FC930E942920F1
:101DE800F296DF01F8010E941B20A985BA85529658
:101DF800ED93FC93E0E00E9457242B9608950E94EF
:101E0800421E0E9448200E944E2021F0E12F0E948D
:101E1800572497C20E945420B1F40E94612011F403
:101E280014E011C0F901E385E87029F40E946A20E2
:101E3800E1DA309709F001C006C00E944820EEDEC2
:101E48001E2F103039F3E12F0E9457247AC20E94C6
:101E5800421E14E0AC81BD810E942320D9F00E946B
:101E68005420C1F40E94612011F414E013C0053E0F
:101E780049F0E1E0E03011F40E3221F0F901E38598
:101E8800E87009F001C006C00E944820C7DE1E2F76
:101E9800103001F3103029F0AC81BD811E960E94EC
:101EA8008E1EE12F0E9457244CC20E94421E0E949F
:101EB80048200E944E20B1F40E94542099F4EC81ED
:101EC800FD81A289B3890C91053E11F0003009F417
:101ED80009C0EC81FD81FA93EA93A1E09FDE1E2FF1
:101EE800103051F3103029F50E94542011F5AC81BF
:101EF800BD8152962D913C913A932A93E0E0F0E00F
:101F0800FA93EA93A0E2B0E05BDA0E946A203CDA36
:101F1800AC81BD8154960E94F223E385E871D90112
:101F28001C96EC93AC81BD810E94F2233496A1E00B
:101F3800A083E12F0E94572404C20E947C1EEB81DB
:101F4800FC81A481B581D1DD1E2F1030D1F4A98187
:101F5800BA810E947520EB81FC81A685B7858089AE
:101F680091890E94891E69F4E981FA81A289B3895D
:101F7800E5EEEC93A981BA810E94F2233496A1E0A0
:101F8800A083E12F188123960895BA93AA932597E1
:101F98000E944E24AD85BE8554964D915C915A930E
:101FA8004A93E0E2F0E0FA93EA93ABE0B0E008DAB3
:101FB800E0E0E887E9871E2F2E2FE8E0EA87AB8567
:101FC800BC850E947A200E947F20AE0FBF1FAC9173
:101FD800AE3209F50E9484200E3221F4A885B98515
:101FE80013970CF003C00E949020F4CF0F3221F019
:101FF8000C3511F0013208F402C0E6E06EC00E9410
:102008007F200E94972010F4E4E201C0E0E2DA01A8
:102018001B96EC9361C00E948420013220F00F329D
:1020280011F00C3509F433C00E3219F0EA852E1779
:1020380068F0AA85A83011F40E3211F0E6E04DC020
:1020480028E0EBE0EA87110F110F20C0003818F0E4
:102058001360E6E042C0ECEAF0E0FA93EA93A02FBE
:10206800BB27F0D9309711F0E6E037C0013410F003
:102078000B3508F002C0126007C0013610F00B37AC
:1020880008F002C0116000520E949020C4CF0E9444
:102098007F200E94972010F4E4E001C0E0E00E2FBA
:1020A800203011F4E6E019C0DA01AC91A53E19F42C
:1020B800DA01E5E0EC93AA85A83011F4110F110FAD
:1020C800E12FE370E13009F40061E12FEC70E430B6
:1020D80009F40860FA010387E0E00E9455242F966E
:1020E8000895BA93AA9322970E944E24E885F98509
:1020F8003996EE83FF83AA85BB850E94232009F4C5
:1021080064C0AA85BB8552964D915C91FA013485CD
:1021180010E01830B8F40E949F20A1F0053009F4AF
:1021280005EEE0E0E03041F033FF06C0013410F086
:102138000B3508F001C001C001C0005E0E94A62056
:102148001F5FE7CFFA01A085A032F9F0AE81BF8109
:102158001196AE83BF831197EEE2EC9318E01B3023
:10216800A0F40E949F2089F0E0E0E03041F034FFC5
:1021780006C0013410F00B3508F001C001C001C0E1
:10218800005E0E94A6201F5FEACFFA01E385A885BA
:10219800B9851896EC93DA015C960E94F623A88517
:1021A800B9850E940124DA0158960E94F223A88575
:1021B800B9851496ED93FC93DA0156960E94F223A2
:1021C800A885B9851696ED93FC93AE81BF81E0E0B2
:1021D800EC930E9455242C9608950E94421EE1E03B
:1021E800E03029F0AC81BD81AC91A03209F006C085
:1021F800EC81FD813196EC83FD83F1CFAC81BD810B
:10220800AC91AF3229F0AC81BD81AC91AC3559F4B9
:10221800EC81FD813196EC83FD83AE81BF811696FA
:102228000E948E1E0AC0AE81BF810E94F22376965C
:10223800DF010E94F6230E94AE20AC81BD81AC91E3
:10224800BB27909760F40E94B420A0E0B0E04DDC7A
:102258001E2FAE81BF8152960E94B9203DC00E94B8
:10226800B420DE01169691DE1E2F1030A9F5AE813E
:10227800BF81C5DD1E2FAE81BF8154960E94F22317
:10228800E385E4700E2F103039F0143011F400306B
:1022980009F001C015E020C00030F1F4AE81BF8123
:1022A80052962D913C91F901E385E07111F415E006
:1022B80013C00E94BE200E9481237F936F93FF93D7
:1022C800EF930E94C120AF91BF918F919F910E947F
:1022D800C6200E94AE20C3CFE12F0E945724289623
:1022E80008950E942824EC81FD81A181AA93ED81A3
:1022F800FE81F296FA93EA93EB81FC816D817E81EF
:102308000E94CB2011F0E3E01CC0EC81FD810E940B
:10231800D22011F0E2E015C0AC81BD81A859BF4FB1
:102328000E94DC2011F4E0E00CC0EC81FD81F29603
:10233800EE5AFF4FDF010E94DC2011F4E0E001C0FB
:10234800E1E026960895AA9364970E944E24AD8DE5
:10235800BE8D0E94F223E887F987A885B985EC919C
:10236800E0530E2F0A3020F41196AC91AA3309F0ED
:102378000AC0E885F9853296E887F987AD8DBE8D64
:10238800ED93FC9302C00091B10A013010F0EBE02C
:10239800CBC1E02F0E94EA200E947A20AB8DBC8D31
:1023A800ED93FC93EE81FF81309711F4ECE0BCC112
:1023B800AE81BF81EC91E03089F0EE81FF81A1818F
:1023C8000E9496065E2F50FD09C0EA8DE03011F09C
:1023D80052FD01C002C0EAE0A7C1A5C1AE81BF811C
:1023E800E0E0EC93E02FAE81BF811196EC93EE8193
:1023F800FF81A1810E94C0055E2F50FF02C0E3E06B
:1024080093C1EA8DE03011F052FD01C002C0EAE04C
:102418008BC10E94B4200E94371EE88FF98F6A8F03
:102428007B8FDF01CB015DDF1E2F1130D1F4EE81F0
:10243800FF81F296E254FE4F9F01F901E481E030FA
:1024480081F0D90118960E94F623EE8BFF8B688FD6
:10245800798F0E94B420A88DB98D8A8D9B8D41DF1C
:102468001E2F133011F4E1E05FC1103049F4AE8142
:10247800BF81DD960E94F223E030A2E0FA0711F056
:10248800EDE052C1AE81BF81A85BBF4F0E940C1F17
:102498000E94F2200E94E21F0E943A2441F4AE8179
:1024A800BF81AA5ABF4F0E94F6230E94F2200E94C1
:1024B800E21FAE81BF815A960E940124EE81FF81FE
:1024C800EE5BFF4FE081AE81BF811396EC93EE8106
:1024D800FF81E381F0E00E94B41F0E9486230E94DE
:1024E80090230E94F2200E94F7200E94FE20AE81D5
:1024F800BF8192960E940124EE81FF81E7ADAE81F3
:10250800BF811296EC93AE81BF81AD5BBF4F0E9435
:10251800F223AE81BF811896ED93FC93AE81BF8103
:10252800AB5BBF4F0E940C1FEE87FF87688B798BD0
:102538000E943A2451F4AE81BF81AE5ABF4F0E9427
:10254800F623EE87FF87688B798B0E94F7200E941D
:102558001D1F662777270E94E71F0E94B41F0E944D
:1025680028237F936F93FF93EF930E940321AF91EA
:10257800BF918F919F91662777270E942D23EE8127
:10258800FF81E281F0E00E9486230E94C923EE5F6A
:10259800FF4F6F4F7F4FEA87FB876C877D87AE8140
:1025A800BF815E960E94012411E00E94401FA73F50
:1025B800EFE0BE07E0E08E07E0E09E0708F012E0DB
:1025C8000E94401FA73FEFEFBE07E0E08E07E0E064
:1025D8009E0708F013E0133039F4AE81BF81A25A88
:1025E800BF4F0E94F62302C00E940B21AE81BF811B
:1025F80096960E9401240E940B217F936F93FF936C
:10260800EF930E940321AF91BF918F919F910E94F8
:102618001620AE81BF819A960E940124AE81BF81A7
:102628001E960E94181F0E940124AE81BF81149635
:10263800E0E0EC93133009F05FC0AE81BF811596DE
:10264800EC93AE81BF81AE59BF4F0E94F2230E9426
:10265800FE20AE81BF8152960E940124EE81FF8147
:10266800A181AA93EF81F885F296FA93EA93E98516
:10267800FA850E94AB1E0E94A006E03011F5EE819B
:10268800FF810E94D220E9F4AE81BF81D2960E94D8
:10269800F623E235A2E5FA07A1E66A07A1E47A077C
:1026A80081F4EE81FF81F296EC51FE4FDF010E942A
:1026B800F623E237A2E7FA07A1E46A07A1E67A0758
:1026C80009F01AC0EE81FF81F296E451FE4FDF0156
:1026D8000E94F623AE81BF811A960E940124EE81E2
:1026E800FF81F296E851FE4FDF010E94F623AE818A
:1026F800BF811E960E940124AE81BF811C939E96C5
:102708000E948E1EAE81BF8156960E948E1EAFEA31
:10271800BAE0ED91FD913196FE93EE93AE81BF81C3
:102728001696ED93FC93E0E00E9455246F96089569
:10273800BA93AA93EA81FB81309771F0AA81BB8191
:10274800EC91E03049F0EA81FB81A681B781E8810C
:10275800F981EA17FB0711F0E9E00AC0EA81FB8179
:10276800A1810E949606E17011F0E3E001C0E0E06B
:1027780024960895BA93AA931A930A93AC81A13028
:1027880010F0EBE020C0EC810E94EA200D911C9132
:10279800002E012A19F0D801E0E0EC93EA81FB81D0
:1027A800309721F0AA81BB81E0E0EC93EC81ADEA9F
:1027B800BAE0F0E0EE0FFF1FEA0FFB1FAA81BB8112
:1027C800A083B183E0E01981088125960895AA9332
:1027D800A2970E945024A9A5BAA50E94B920EEA1EB
:1027E800EF71EEA3FE01B7960E941221EAA5EE71E1
:1027F800AE2F0E94192111F0E12F0AC10E941E215B
:10280800A9A5BAA5EADC1E2FEEA1EC7109F495C0C2
:102818002897103089F0143021F4DE01589645DBF2
:102828001E2F103019F0E12F2896F2C0EEA5E860AF
:10283800EEA72AA53BA568C0EEA5E47019F0E8E06C
:102848002896E6C02AA53BA5022E032A21F0F90105
:10285800E385E17119F0E7E02896DAC0EEA5E870A3
:1028680009F452C00E94BE200E9481237F936F9377
:10287800FF93EF930E94C120AF91BF918F919F91D9
:102888000E94C6200E949A1FF9017496A0E0B0E049
:10289800A083B183F9017A96A083B183F9017C966C
:1028A8000E94841E0E941E24A88DB98D1496E1E012
:1028B800EC93A88DB98D9E960E94C51E0E94A71FF5
:1028C8000E943A24B9F0E88DF98DFA93EA930E94B0
:1028D800F31F0E942B0C1E2F103019F0E12F2896A1
:1028E80097C00E94A71F0E942721A88DB98D1A960C
:1028F8000E940124E88DF98D0E942C210E94891ED6
:1029080019F0E12F289684C0EEA5E870A1F0F9012E
:102918003B96A0E0A0830E9447090E943720D90176
:102928001E960E940124A88DB98D1496E1E0EC93BF
:10293800EEA5E062EEA7289617C0103011F0E12F3F
:1029480067C00E94332121F0F901E385E07111F09D
:10295800E4E05EC0EEA1E27021F0F901E385E170E8
:1029680009F402C0E7E054C0A889B9899E960E947C
:10297800F623A9A5BAA55A960E940124EAA1FBA1AB
:10298800A9A5BAA55E96ED93FC93EEA1A9A5BAA553
:102998001496EC930E94BE200E9481237F936F932C
:1029A800FF93EF930E94C120AF91BF918F919F91A8
:1029B8000E94C620A9A5BAA51E960E940124D90185
:1029C8005C960E94F623A9A5BAA51A960E9401242E
:1029D800A9A5BAA516960E948E1EA9A5BAA51596F0
:1029E800EFEFEC93A9A5BAA556960E948E1EE8892A
:1029F800F989A9A5BAA5ED93FC93A889B989169672
:102A08000E94F223A9A5BAA51296ED93FC93E0E0E3
:102A18000E945724AB960895BA93AA932E970E94C2
:102A28004E24E88DF98DEE83FF83AC89BD890E9421
:102A3800B9200E943821EC8DFD8D0E943B2111F0B8
:102A4800E12F48C1EA8DFB8DA481A07811F0E2E066
:102A580041C1EA8DFB8DA481A17011F4E7E03AC170
:102A6800EA8DFB8DA285B385848595859F938F9389
:102A7800BF93AF930E944221EF91FF916F917F9195
:102A88000E9428230E94CF1F0E94D41FAE89BF89AD
:102A9800882799270E94442420F4E885F985EE8B3D
:102AA800FF8BEE89FF89309709F413C10E944221F8
:102AB8000E94492109F0D9C0EA8DFB8D05800E944A
:102AC8004E210E16B8F10E9442210E943E2431F494
:102AD800AA8DBB8D1E960E94F62306C00E9438213F
:102AE8000E9454210E94100BE88BF98B6A8B7B8B18
:102AF800A889B9898A899B890E94B81E20F40E94F6
:102B08005B21E2E0E7C0A889B9898A899B890E948C
:102B18007A1F21F40E945B21E1E0DCC00E949D1F26
:102B2800AA8DBB8D52960E940124AA8DBB8D159645
:102B3800E0E0EC930E9438210E9454210E94410D4C
:102B48000E9462210E94DE1F21F40E945B21E2E0C4
:102B5800C1C00E9467210E94C01F0E946C210E9470
:102B68006221AE89BF890E94712109F447C00E9481
:102B78006721E40FF51F0F010E944E21D001F0E0FC
:102B8800EA17FB0748F40E944E21F0E0DF010E949B
:102B98006721AE1BBF0BAD010E947921EF81F8853B
:102BA8000E9480210E942324A42F0E94A006E030C6
:102BB80021F00E945B21E1E08DC0EA8DFB8DA481AC
:102BC800A07429F00E9487210E948E2108F011C06C
:102BD8000E9487210E949621AE81BF810E949F2179
:102BE800EC8DFD8DB096FA93EA93A0E0B2E00E94D6
:102BF800C809AA8DBB8D0E94A62157C0EA8DFB8DFE
:102C0800A481A074A1F00E947921EB8DFC8DB0966F
:102C1800FA93EA93ED8DFE8D0E94B12121F00E9476
:102C28005B21E1E057C0AA8DBB8D0E94BC210E94A8
:102C380087210E94442471F00E947921EB8DFC8D3C
:102C4800B0960E9480210E94CB2021F00E945B2137
:102C5800E1E040C00E94C51FAA8DBB8D56960E9418
:102C68000124AA8DBB8D0E94C121AA8DBB8D0E9413
:102C7800C621A0E0B2E0AE1BBF0B9D01EE89FF8923
:102C8800E217F30710F42E893F890E94B420AC8D17
:102C9800BD8D0E94C621AC8DBD8D9096EA0FFB1F9D
:102CA800FA93EA93D9010E94C8090E94CB21EA8DC0
:102CB800FB8D0E94D321D0010E940124AC89BD89DB
:102CC8000E94DC21EE89FF89E21BF30BEE8BFF8B60
:102CD800E8CEE0E00E9455246C960895BA93AA9332
:102CE8002A970E944E24EC89FD89EE83FF83A889E8
:102CF800B9890E94B9200E94E321E88DF98D0E94CC
:102D08003B2111F0E12F8AC1EE89FF89A481A078C7
:102D180011F0E2E083C1EE89FF89A481A27011F469
:102D2800E7E07CC1EE89FF89A285B3858485958516
:102D3800EA89FB890E9416207F936F93FF93EF9394
:102D48000E94E621AF91BF918F919F910E944924E3
:102D580018F4E0E0EA8BEB8BEA89FB89309709F4F9
:102D680043C10E94EC210E94492109F001C1EE896A
:102D7800FF8905800E94F321E2810E1608F44AC0FB
:102D8800AE89BF8916960E94F6230E943A24C1F4A0
:102D9800AE89BF891E960E94F6230E9462210E9476
:102DA800DE1F69F40E94E3210E94841E0E94800CA9
:102DB8000E946221AE89BF891E960E94012408C024
:102DC8000E94E3210E94F8210E94800C0E94622147
:102DD8000E94DE1F09F408C10E94C01F0E94721FD2
:102DE80021F40E94FF21E2E019C10E94C01F0E9445
:102DF8007A1F21F40E94FF21E1E010C10E94C51F43
:102E0800AE89BF8952960E940124AE89BF89159662
:102E1800E0E0EC93EE89FF89A481A07489F00E9418
:102E2800F3210E940622E98DFA8D0E94B12121F03A
:102E38000E94FF21E1E0F2C0AE89BF890E94BC2157
:102E48000E94E3210E94F8210E94410D0E94CF1F99
:102E58000E94D41F0E943A2421F40E94FF21E2E03C
:102E6800DDC00E940E220E94B31E0E946C210E94A7
:102E7800CF1FAA89BB890E94712109F450C00E9402
:102E88000E22E40FF51F0F010E94F321E281D00109
:102E9800F0E0EA17FB0750F40E94F321E281F0E02A
:102EA800DF010E940E22AE1BBF0BAD010E94F32171
:102EB800E181EA93EF81F885FA93EA93EB85FC8543
:102EC8006D857E850E942324A42F0E940407E0308C
:102ED80021F00E94FF21E1E0A1C00E9413220E947C
:102EE8008E21C0F40E941A22A689B789808D918DFF
:102EF800EA85FB856C857D850E949621A885B98524
:102F08000E949F21A0E0B2E00E94C809AE89BF8953
:102F18000E94BC21AE89BF890E94A62151C00E948F
:102F280013220E944424C9F00E94EC210D010E9442
:102F3800E621D0010E94492458F40E94F3210E94FE
:102F48000622EB85FC856D857E850E94CB2009F4E1
:102F580004C00E94FF21E1E061C00E94D41FAE8935
:102F6800BF8956960E940124AE89BF890E94C1215B
:102F7800AE89BF890E94C621A0E0B2E0AE1BBF0B9C
:102F88009D01EA89FB89E217F30710F42A893B8936
:102F9800AE89BF890E94C621AE89BF899096EA0F83
:102FA800FB1FFA93EA93E885F985FA93EA93D90126
:102FB8000E94C809AE89BF891496EC91E064EC932D
:102FC8000E94CB21EE89FF890E94D321D0010E9463
:102FD8000124A889B9890E94DC21EA89FB89E21BBE
:102FE800F30BEA8BFB8BB8CE0E94EC210D010E94FB
:102FF800E621D0010E94442450F4AE89BF89169678
:103008000E94F623AE89BF891A960E940124AE89D0
:10301800BF891496EC91E062EC93E0E00E9455249D
:1030280068960895BA93AA9324970E9450240E9400
:10303800F81FFA93EA93EA85FB850E943B2109F081
:103048006EC0E885F985A481A07209F468C0A481DE
:10305800A074A1F00E94F81FE181EA93E985FA853E
:10306800B096FA93EA93EB85FC850E94B12111F0A2
:10307800E1E056C0A885B9850E94BC210E94F81FCE
:10308800FA93EA93EA85FB85A28DB38D848D958D9D
:103098000E94891E09F043C0A885B9855E962D91C6
:1030A8003C91D9011B96EC91E062EC93A885B98517
:1030B8001A960E94F623D9015C960E940124A885DD
:1030C800B9851E960E94F223D9015A96ED93FC9376
:1030D800E885F985A685B78580899189FD01BC01B8
:1030E8000E947C23D9015496ED93FC930E944709D2
:1030F8000E943720D90156960E940124A885B985D7
:103108001496EC91EF7DEC930E94F81F3496A1E0A1
:10311800A0830E94F81FDF010E94A80A1E2FE12F3A
:103128000E9457242A960895BA93AA931A93A981BC
:10313800BA8178DF1E2F103021F4A981BA810E944C
:10314800B920E12F18810C94571D0E9428246097FC
:103158001A930E942222EF89F88D0E943B2109F0E0
:1031680091C1ED89FE89A481A07811F0E2E08BC1BC
:103178000E9425220E942B220E94442428F4ED89D3
:10318800FE89A481A27009F004C00E9425220E9431
:103198003022AD89BE8916960E94471E0E94371EAE
:1031A8000E94951F0E9435221596EFEFEC930E941E
:1031B8002B220E943E2408F011C10E943D22E28188
:1031C800F0E00E948623A0E0B2E080E090E00E9458
:1031D8009023E987FA876B877C870E94531E0E9499
:1031E8003E2498F40E9442220E9447227F936F93C4
:1031F800FF93EF930E946D1F0E944722AF91BF91EA
:103208008F919F910E94492408F421C00E946D1F4C
:103218000E942721DF01CB010E9451220E94272111
:103228000E948B230E9432230E94352216960E9408
:10323800F6230E942B220E942D23A98BBA8B8B8BFD
:103248009C8BAD89BE8952960E9456222BC0AD89AF
:10325800BE891E960E9456220E945D220E943A2430
:10326800F9F40E9422220E94841E0E9462220E9477
:1032780069220E94721F21F40E946E22E2E003C1BB
:103288000E9469220E947A1F21F40E946E22E1E0C6
:10329800FAC00E945D22AD89BE891E960E94012453
:1032A8000E9475220E945D220E943A2409F496C069
:1032B8000E9451220E942B220E94442408F055C0EB
:1032C800ED89FE89A481A27089F00E9422220E94C1
:1032D8007C220E9462220E945D220E943A2429F4E4
:1032E8000E9451220E94302240C00AC00E9422221D
:1032F8000E947C220E94100BED87FE876F87788BD7
:103308000E9469220E947A1F21F40E946E22E1E045
:10331800BAC00E9469220E94B81E58F00E943D223D
:103328007E96DF010E94F6230E9469220E944924AA
:1033380020F00E946E22E2E0A6C00E9475220E9440
:103348008122A985BA858B859C850E941E23D00180
:103358000E940124A985BA858B859C850E944222FA
:103368000E9428230E943022A3CF0E9481220E941B
:103378002B220E941E23D0010E9401240E942B228E
:10338800E0E0F2E060E070E00E94C923AD89BE8908
:103398001596EC930E944222F1703097F9F00E9442
:1033A80022220E947C220E94410D0E94951F0E94A9
:1033B8004E1E0E943A2421F40E946E22E2E063C06D
:1033C800ED89FE89E581F0E00E945F1F0E946C2173
:1033D8000E94951FAD89BE890E94C1210E94892241
:1033E8000E94492151F0AD89BE8956960E94F62364
:1033F8000E945F1F0E94442409F42BC0ED89FE89B6
:10340800A481A07489F00E943D22E181EA930E9480
:103418001A220E94B12121F00E946E22E1E033C0FD
:10342800AD89BE890E94BC210E943D22E181EA93B8
:10343800EE89FF89B0960E946F1E21F00E946E22CD
:10344800E1E021C00E944E1EAD89BE8956960E94B9
:1034580001240E9489220D010E942522D0010E9488
:10346800442480F4AD89BE8916960E94F623AD895E
:10347800BE891A960E940124AD89BE891496EC91E2
:10348800E062EC93E12F188167960895BA93AA93A6
:10349800A2971A93FE01B596FA93EA93FE013F9616
:1034A800FA93EA93A0E00E941921E9F4FE0131960B
:1034B800E9A3FAA3FE013D96FA93EA93AFA1B8A552
:1034C8000E94F1101E2F103071F4EF8DF8A1309783
:1034D80049F0FE013D96FA93EA93ADA1BEA10E9480
:1034E800751001C016E0E12F1881A7960895BA93C8
:1034F800AA93EC970E945024FE01E05CFF4F0E94C3
:103508009022A1E00E94192109F081C0FE0138969D
:10351800EEAFFFAFFE01BA96FA93EA93DE01AE5B17
:10352800BF4F0D90BC91A02D0E94972239F010300A
:1035380029F4EEADFFADE385E07209F401C016E0B1
:10354800103009F064C02CAD3DAD022E032A11F4F1
:10355800E6E05EC0F901E385E17011F0E7E058C0EC
:103568000E94BE200E9481237F936F93FF93EF9365
:103578000E94C120AF91BF918F919F910E94C62058
:103588000E94AA1FF901E385E07139F10E94A21F88
:103598000E94B81E10F4E2E03BC0FE0174960E943F
:1035A8009022A6E1B0E00E94C8090E94CA1FEA8FD3
:1035B800FB8F6C8F7D8FFE017496FA93EA93A2E0DD
:1035C8000E944E2021F5DE0154960E942B0F1E2FDB
:1035D800103009F417E01430D1F4DE019A960E94F5
:1035E800A10F1E2F103099F40E94CA1F0E943A247E
:1035F80039F0EAA5FBA50E942C210E942B0C1E2F56
:10360800103029F4AAA5BBA50E94A80A1E2FE12FF5
:103618000E945724EF9623960895AA930E949D220C
:10362800A1E00E94192141F50E941E21AAA5BBA56F
:103638000E94972239F0103029F4ECA1FDA1E3850E
:10364800E07209F401C016E01030B1F40E94332191
:1036580011F416E011C0EEA1E772EEA3AFA1EA23C0
:103668000E2EF901A385EEA1E095EA23E029D90100
:103678001B96EC930E94A32233C0BA93AA930E948C
:103688009D22A1E00E94192159F50E941E21AAA598
:10369800BBA50E94972239F0103029F4ECA1FDA1B6
:1036A800E385E07209F401C016E01030C9F40E9405
:1036B800332111F416E014C0AEA1BFA116960E94E2
:1036C800F223D9015696ED93FC93AEA1BFA11496AF
:1036D8000E94F223D9015896ED93FC930E94A322ED
:1036E800E12F0E945724AA960895AA935D9BFECFC6
:1036F800E881ECB921960895BA93AA93AA81F5DFD7
:10370800A881B981ED91FD913196FE93EE93CBC1DD
:10371800BA93AA932B970E944E2410E0A989BA89DC
:103728000E94B920EF89F88D3196EF8BF88F319789
:10373800E4912E2FE03009F45DC1E12FE03039F437
:10374800253211F411E002C00E94AE2252C1E130CC
:10375800A9F4253219F40E94AE224AC112E040E0D1
:1037680000E02D3211F401E044C12B3211F44BE298
:1037780040C1203211F440E23CC102C0E23039F4C9
:1037880050E013E0203311F4006833C102C0E33085
:1037980091F4203310F02A3308F007C0AAE05A9FAA
:1037A800502DE22FE0535E0F24C12C3619F402602D
:1037B80015E01FC103C0E53009F01BC1E22FE33655
:1037C80049F40E94B522ED89FE89A481AA930E943A
:1037D800BB220EC1E33769F40E94B522AD89BE89C8
:1037E80014960E947A20AE81BF810E94B31D1E2FBD
:1037F8000FC0E03791F40E94B522AD89BE891496B6
:103808000E947A20AE81BF810E94BF1D1E2F0860D2
:103818000F77E0E0E88B30E068C0E43611F0E93675
:1038280011F4046002C0E537A1F4EAE0E88B01FF77
:1038380008C0E0E0FAEC6AE97BE30E94CF1F1AE0D7
:1038480022C0E0E1F7E260E070E00E94CF1F15E0DF
:103858001AC0E83511F4086003C0E83709F0C8C099
:10386800E0E1E88B01FF08C0E0E0F0E060E070E133
:103878000E94CF1F18E007C0E0E0F0E160E070E0D0
:103888000E94CF1F14E001FF08C00E94B522AD8935
:10389800BE8914960E94F62313C002FF0AC00E9434
:1038A800B522AD89BE8914960E94F2230E94862310
:1038B80007C00E94B522AD89BE8914960E940C1FCC
:1038C800EC87FD876E877F8702FF0FC0AF85AA232D
:1038D8003AF40E94C51F0E943C230E9462214DE2D7
:1038E800403011F01F5F01C00B7F00FD11C015179C
:1038F80078F407FF08C002FF04C00B7F242F115083
:1039080001C020E301C020E20E94AE225150EFCF57
:10391800312FE889E030B9F43030A1F003FF06C058
:10392800EE81FF812591EE83FF8305C0AE81BF81C3
:103938002D91AE83BF830E94AE22503009F05150C2
:103948003150EACF4BC00E94D41F0E94C01F0E9472
:10395800C9232E2F2A3030F003FF02C0295C01C092
:10396800295A01C0205D04FD1BC0213328F40E94A0
:10397800B31E0E94721F09F409C0531710F000FF0C
:1039880001C013C020E207FF0BC020E3006102FF63
:1039980007C00B7F4A930E94BB22503009F0515058
:1039A8000E94AE22503009F0515031500E94D41F6D
:1039B8000E94C01F0E94EE230E946221E8890E9493
:1039C800B31EFF27662777270E94C9230E94CF1FAF
:1039D8000E94D41F0E943A2409F0B5CF00FF08C006
:1039E800503031F05150E0E2EA930E94BB22F8CF08
:1039F80010E098CEA989BA890E94F2230E94552422
:103A080069960895FF92F82E26971A930A93DE0175
:103A180014960E941A238D01E0E0EC83ED83EE8377
:103A2800EF83DE0118960E941A230E9475201A93CC
:103A38000A93E0E8FBE1FA93EA93DE01189668DE60
:103A4800198108812896FF900895AA931A930E94D5
:103A5800C1220E94CE22A3EA0E940223A0E00E9473
:103A6800E7221E2F0E94DD22E12F188126C0AA938B
:103A78000E94C122A8810E9402230E94DD221DC04B
:103A8800E0E0EA93A0E0F3DF0895AA93E1E0EA9387
:103A9800AB81EDDFEDE0EA93AA81E9DFEEE0EA939E
:103AA800A981E5DFEDDF23960895AA93A981CDDFEB
:103AB800A881EA23AE2F0E94CC1D22960895BA93BE
:103AC800AA931A93A2E0C1DF1E2FE12FEF77AE2F42
:103AD8000E94CC1DA981BA81EC9317FF02C010E0A7
:103AE80001C011E0E3E0EA93AFE7DFDFAB81BC811F
:103AF800EC93E4E0EA93AFE3D8DFAD81BE81EC93C9
:103B0800E12F1881279608950E94421E2CE637E07F
:103B1800E5E0EA93AFE3C9DFA885B985EC93A7E0B0
:103B280094DF1E2FE12FEF71AE2F0E94CC1DAE81C6
:103B3800BF81EC9317FF02C020ED37E0E8E0EA937D
:103B4800AFEFB3DFAE2FF901B0E0EA0FFB1FAC8196
:103B5800BD81ED93FC930E9457242A960895BA9349
:103B6800AA93A991B991EE27FF276D91662311F0C9
:103B78003196FBCF0895BA93AA93AA27BB27E99158
:103B8800F9910590002011F01196FBCFFD010895E1
:103B9800AA93E881E295EF70AE2FAA0FAA0FEA0F59
:103BA800EE0FA991AF70EA0F0895662777270E9454
:103BB8002324089584E00E94061D26960895FF2771
:103BC800662777270E942324E0915E090895E6E39B
:103BD800F7E0FA93EA930895ECE6F9E0FA93EA93AA
:103BE80008950E94EB135E2EE0300895E7E5F2E0B9
:103BF800FA93EA93ECE6F9E0D8CFFA93EA93A6E0D1
:103C0800B0E00895FA93EA93F301CFCFA6E3B7E0C3
:103C18000E9498185E2EE0300895EDE8F2E0FA93DD
:103C2800EA93ECE6F9E0C1CFFA93EA9380E00E94C8
:103C3800061D22960895FA93EA93ECE6F9E0B5CFCB
:103C48000E94232488E00E94061D2A960895ACE667
:103C5800B9E00E948202C0CFEA93A1E00E94111B42
:103C68005E2EE0300895E0E0F0E060E070E0089556
:103C7800F0E00E948623DF01CB010895BA93AA934E
:103C88000E94502408950E94F623E983FA836B83E7
:103C98007C830895ED81FE816F8178850895A981DF
:103CA800BA818B819C810895E985FA85A181AA93BF
:103CB800EA85FB85F296FA93EA93EC81FD816E81A1
:103CC8007F810E942324A1E00C940407A2A1B3A140
:103CD80084A195A10895FA93EA93E885F9856A8500
:103CE8007B850E942324A1E00E94A006E03008956D
:103CF800BA93AA931A93E981FA81FA93EA930895F9
:103D0800A0E0B0E080E090E008950E94430A1E2FF2
:103D180010300895A8DF0E9401240895F296FA93BE
:103D2800EA93E0E0F0E0FA93EA93A0E0B2E00C94C2
:103D3800E4090E941E24E981FA81F29608950E94FE
:103D4800F623D0010E940124E981FA810895A2890D
:103D5800B389848995890E942824A1E00895A885BB
:103D6800B9858A859B850895A230E0E0BE07E0E02A
:103D78008E07E0E09E070895E1E0F0E060E070E083
:103D880008950E94F623EC83FD836E837F83089554
:103D9800EC85FD85FA93EA93D901E0E0F2E00E9410
:103DA800B623AE81BF8188859985662777270E94CB
:103DB80023230E94430AE0300895AC85BD85D2963E
:103DC800F901F170AE0FBF1F0895EC85FD85FA93D8
:103DD800EA93AA85BB858C859D850895E0E0F1E08E
:103DE80060E070E00E94C9230895AE81BF81888594
:103DF80099850E9423230E94430AE03008950E9477
:103E0800B023F170AC85BD85D296AE0FBF1F089563
:103E18000E94F223662777270895E0E8F0E060E043
:103E280070E00E94C9230895EFEFFFEF6FEF7FEF77
:103E38000895AE85BF85888999890895EA89FB899F
:103E4800FA93EA93D801E0E0F2E00E94B62387DF14
:103E5800662777270E9423230E94430A5E2F50304B
:103E68000895AA89BB89D296F801F170EA0FFB1F61
:103E78009F01EE85E1700895AA85BB858C859D8597
:103E88000895EA89FB89FA93EA93A889B9898A8906
:103E98009B89089564DF0E9423230E94430A5E2FB2
:103EA800503008950E94B023F170AA89BB89D29638
:103EB800EA0FFB1F0895AD81BE818F819885089513
:103EC800A985BA855E960E94F623F5DF0E944924EB
:103ED8000895E981FA816B817C810895A130E0E041
:103EE800BE07E0E08E07E0E09E070895AF3FEFEFE2
:103EF800BE07EFEF8E07EFEF9E070895A685B785FB
:103F080080899189F3CFA985BA851E960E94FC23E2
:103F1800EF5FFF4F6F4F7F4F0E940624A985BA8538
:103F28000895ED83FE836F83788708950E9419248E
:103F38000895E889F9896A897B890895AC81BD81EA
:103F48008E819F8108950E940F240895EC83FD833C
:103F58006E837F830895EC89FD89FA93EA93089527
:103F6800AA89BB898C899D8908950E94100BEC87CA
:103F7800FD876E877F870895AC85BD858E859F8573
:103F88000895EC85FD856E857F850895EC81FD811A
:103F98006E817F810895E887F9876A877B8708950E
:103FA800E885F9856A857B850895F0DFD8DE0E946B
:103FB80044240895E6DF0E943A240895EA89FB899B
:103FC8006C897D8908950E942D240E9428230895D4
:103FD8000E94F623EA83FB836C837D830895AA817C
:103FE800BB818C819D810895A885B9850E94F223A3
:103FF80008957E96DF010E94F623F1DF0E9449248E
:104008000895EA81FB816C817D810E943A2408959C
:10401800EA81FB816C817D81A885B9851A960E9409
:104028000124E2CF662777270E941E230895EF70A8
:10403800F070EE0F0E946523EA0FFB1F08951E968D
:104048000E94F6230E943A240895A985BA850E9401
:10405800F2230895FA93EA93EB85FC85A285B3854C
:1040680084859585089572DF91CFFA93EA9348DEA7
:104078000E94430AE0300895FA93EA93AE81BF8123
:10408800888599850C94410DEC81FD81FA93EA931A
:10409800A0E00895B0E00E94790D1E2F1030089519
:1040A800AC81BD810E94F223FA93EA93EE81FF81ED
:1040B800A685B7858089918928CEAC81BD81529625
:1040C8002D913C91D9010C91003008953A932A938F
:1040D800EE81FF81A489B589BA93AA93ABE0B0E0D9
:1040E80008950E94F223FA93EA9308950E94F22316
:1040F800EE83FF830895E885F985AE81BF81089531
:10410800E885F9853196E887F9873197AE81BF81CF
:10411800AE0FBF1F0C910895E22F2F5FF0E0E40F60
:10412800F51F00830895EA0FFB1FAB85BC85ED934F
:10413800FC9301320895DA01EE27A10FBE1F0C91FE
:1041480000320895EE81FF813196EE83FF83319727
:1041580000830895AE81BF8116960E9401240895B8
:10416800EE81FF81FA93EA930895E0E0F0E0ED93A1
:10417800FC930895D90154964BCED9015A960E94C2
:10418800F2230895662777270E94372308950E940F
:104198002324A1E00E94A006E0300895F296E250A0
:1041A800FE4FDF010E94F223E535AAEAFA070895D7
:1041B8000E94F623EF7FFF7F6F7F7070E634A1E4E3
:1041C800FA07A4E56A07A0E07A070895ADEABAE01D
:1041D800F0E0EE0FFF1FAE0FBF1F0895EA8BFB8BB9
:1041E8006C8B7D8B0895AE81BF81A05CBF4F0E9410
:1041F800F2230895AE89BF89888D998D13CFEE81FA
:10420800FF81A085B185FD010E946E230895EE818E
:10421800FF815CDDD3DE0E941E230895FA93EA93A2
:10422800FE017296FA93EA9308950E94A7111E2F31
:1042380010300895FE013496ECA3FDA3FE0170969C
:10424800FA93EA930895E150F04060407040089571
:10425800FA93EA93AE81BF818885998508952AA14A
:104268003BA1022E032A0895AA8DBB8D3ACFA281C5
:10427800B3810E949C131E2F10300895EA8DFB8D88
:10428800A681B781808591850895FD01BC01F170F3
:1042980030970895AA8DBB8D0E94F223E28108957C
:1042A800EC8DFD8DA289B389848995890895AA8D9D
:1042B800BB8D1496EC91E068EC930895EC87FD872C
:1042C8006E877F870895EA8DFB8DE581F0E008957C
:1042D8000E9486230E941E230895E0E0F2E00E94D7
:1042E800B623AF01042E052A0895AA8DBB8D0E941E
:1042F800F223E181EA930895FA93EA93EF85F88926
:1043080069897A890895EA8DFB8DA689B789808D98
:10431800918D37CE0E942D23FA01662777270E94B8
:10432800492408950E942D23E0E0F2E060E070E067
:104338000E949023089588279927EA0FFB1FFA9374
:10434800EA9308951596EC91E40FEC93FA01EE0FB9
:10435800FF1FFE2FE0E09F010895A689B789808D91
:10436800918D0E942824A1E00E940407E03008955E
:104378001496EC91EF7BEC9308951596EC91EF5F12
:10438800EC93089516960E94F223F1700895F901AE
:10439800AE81BF81EA0FFB1FEE83FF830895369637
:1043A8000F01DF010E94F623DF01CB01F9013ACEAC
:1043B800ED91FD91E20FF31FFE93EE930895AE8900
:1043C800BF898FCEAE89BF891A960E94F6230895B9
:1043D800EE89FF89A681B781808591850895AE8988
:1043E800BF890E94F2230895E88DF98DA289B389C7
:1043F800848995890895AE89BF891496EC91E068FF
:10440800EC930895E181EA93EF89F88DB096FA93D9
:10441800EA930895EE89FF89E581F0E00895EE8931
:10442800FF89A689B789808D918DBACDEE89FF89DC
:10443800B096FA93EA93E88DF98D0895AD89BE890F
:1044480050CEAD89BE891A960E94F6230895A9898F
:10445800BA898B899C890895E98BFA8B6B8B7C8B45
:104468000895AD89BE8916960E940124AD89BE893A
:104478000895AD89BE890E94F2230895E989FA89D1
:104488006B897C890895DFDEDF01CB01E985FA8538
:104498006B857C850E94C9230895E985FA856B851B
:1044A8007C8508950E94F623ED87FE876F87788BB9
:1044B8000895ED85FE856F85788908950E94800CA2
:1044C800ED87FE876F87788B0895AD85BE858F85CC
:1044D80098890895AD89BE891496EC91E068EC93AB
:1044E8000895E7DFAD89BE8952960E940124089598
:1044F800AF85B88989899A890895ED89FE893696A4
:104508000F01DF010E94F6230895ED89FE89A68137
:10451800B781808591850895FA93EA93FE01BC9648
:10452800FA93EA9308950E94F1101E2FE1E0E0301B
:104538000895A2970E945024FE01B8966FCEA889CC
:10454800B9891496E1E0EC93A889B9890E94A80A70
:104558001E2F08952A93AA89BB89EC89FD8909959C
:104568000895ED89FE893497ED8BFE8B0895AA890D
:10457800BB89EC89FD89099508950E94CE22A2EA9B
:104588000E940223A9810C94022390989198889AFA
:10459800899815C089988898EE270000819B08950E
:1045A800809B089504D0899A02D0889AE1E069E155
:1045B80007C0899A889A03D08898F9DF899861E3B7
:1045C8006A95F1F7089578E08898F1DF809BFECF2F
:1045D800EEDF889481990894889AF1DFEE1F7A9526
:1045E80099F77A2F772311F4899801C0899ADFDF28
:1045F8008898E5DF889ADBDF8998D9CF78E0AA0F19
:1046080010F4899801C0899ADADF8898D0DF809BF6
:10461800FECFCDDF889A7A9591F78998C8DF889878
:10462800CEDFE1E08199EE27889AC1CF0024AF0D53
:10463800B01D0895EA0FFB1F681F791F0895AE0F7C
:10464800BF1F861F971F0895EA1BFB0B680B790B8A
:104658000895AE1BBF0B860B970B0895EA23FB2327
:10466800682379230895EA2BFB2B682B792B08956F
:10467800F09560957095E195FF4F6F4F7F4F0895C6
:10468800EE230E2EFD0121F0F695E7950A94E1F749
:104698000895EE230E2EFD01BC0131F0EE0FFF1F31
:1046A800661F771F0A94D1F70895EE230E2EFD0199
:1046B800BC0131F076956795F795E7950A94D1F79F
:1046C8000895EE0FFF1FEE0FFF1FEE0FFF1FEE0FF7
:1046D800FF1F0895F695E795F695E795F695E79502
:1046E800F695E7950895EE0FFF1F661F771F08954B
:1046F800E62FF72F60E070E008956E2F7F2FE0E03F
:10470800F0E008956F2F660F660B762F0895E095F9
:10471800F0956095709508957A9F702D6B9F700D38
:10472800F89F700DE99F700D6A9F602D710DFB9FBA
:10473800600D711DE89F600D711D8827FA9FF02D8F
:10474800610D781FEB9FF00D611D781FEA9FE02D2A
:10475800F10D681F781F08956E2F6A9FF0016B9FF7
:10476800F00D08950024112490E1AA0FBB1F001C2E
:10477800111C0E1A1F0A18F40E0E1F1E01C0A1608C
:104788009A9599F7FD01D00108953F934F935F9350
:10479800002411244427552730E2AA0FBB1F881F85
:1047A800991F001C111C441F551F0E1A1F0A460B87
:1047B800570B28F40E0E1F1E461F571F01C0A1607D
:1047C8003A9559F7FD01BC01D001CA015F914F919B
:1047D8003F910895DADFFD01BC010895ED91FC9148
:1047E80011970895ED91FD916D917C91139708951E
:1047F800ED91FD916D917D910895ED93FD936D93EC
:104808007C9308957E936E93FE93EE93089505909E
:10481800F491E02D0895E881F9816A817B810895FA
:10482800A881B9818A819B810895E883F9836A8385
:104838007B830895A083B1838283938308957A93B9
:104848006A93FA93EA9308959A938A93BA93AA93E8
:104858000895182E862F612D192E972F712D1B2E36
:10486800BF2FF12D1A2EAE2FE12D089530976040FD
:104878007040089500240A160B06080609060895D4
:10488800EA17FB07680779070895AE17BF07860779
:10489800970708955A934A933A932A931A930A9337
:1048A80008955D814C813B812A8119810881089591
:00000001FF
