:0600000044C0FECFFDCF5D
:10000600FCCFFBCFFACFF9CFF8CFF7CFF6CFF5CFAE
:10001600F4CFF3CFF2CFF1CF2003000000000000B1
:1000260000000000000000000000000000000000CA
:10003600000000000000000018037E000000000021
:1000460000000000000000000000000000000000AA
:100056000403090412010101FF00000881179F0C27
:1000660007010102000109021200010100803209A4
:1000760004000000FF00000055534274696E7920A9
:1000860053504900F894EE27ECBBE5BF8DE0A2E0A3
:10009600BB27ED938A95E9F780E092E0A0E6ED9321
:1000A6000197E9F7E0E0E1BBE2BBE3BBEFE5EDBFBB
:1000B600E2E0EEBFC0EED0E047C1AA9365D1E1E031
:1000C60047D110E030E0EDE2E71509F07AC043D100
:1000D60016963C9143D1E781E03009F03FEF3BD1E2
:1000E600EC91E0760E2F003009F05BC037D1E1814C
:1000F600E03041F412E02FD1E0E0EC9332D1E0E0C1
:10010600EC934EC02ED1AC91A53021F424D1129699
:100116008C9046C026D1AC91A63099F5E2E018D174
:1001260023D1A13031F4EAE5F0E0ED83FE8312E15C
:1001360027C01AD1A23029F4ECE6F0E019D112E179
:100146001FC012D1A330E1F409D1E281E03029F4D5
:10015600E6E5F0E00DD114E013C0FDD01296AC91A7
:10016600A13029F4EEE1F0E003D110E209C0F3D0AA
:100176001296AC91A23021F4EEE3F0E0F9D018E14A
:100186000FC0EFD0AC91A83019F4E5D0E1E006C07D
:10019600E8D0AC91AA3021F4DED0E0E0EC9311E097
:1001A60007C0D9D0B3D01E2F1F3F11F4E3E0D0D043
:1001B600131708F4312FD2D0E0930301F093040112
:1001C60008C0AC81A13028F0C9D0FA93EA93AE8179
:1001D6009ED030930201E3ECE093F600DCD060C0E1
:1001E6002197D0D0A091F600E8E8EA27E093F60040
:1001F600A0910201A93010F018E002C0109102018E
:1002060047EF50E01130F0F1A0910101A33031F435
:100216005A934A93A12F7BD01E2F2FC02091030102
:1002260030910401A0910101A13089F400E0011789
:1002360068F45F934F934F5F5F4FD9012F5F3F4F36
:10024600EC91AF91BF91EC930F5FF1CF12C000E03C
:10025600011778F4F90104900E822F5F3F4F5F93E8
:100266004F934F5F5F4FEE81AF91BF91EC930F5F5E
:10027600EFCF2093030130930401E0910201E11BCB
:10028600E0930201E7EFF0E0FA93EA93A12F41D061
:10029600E12FED5F6E2E183010F4E0E059D079D0E2
:1002A60027960895E5B7E360E5BFEBB7E064EBBFDB
:1002B600E2ED3E2EEAE52E2E789408951A93442018
:1002C60079F0ABEEB0E0E52DF0E055D0EA1BFB0B84
:1002D6003196FA93EA93A42DA350EFDE66244424C4
:1002E600662021F4A0910101A03009F401C078DF55
:1002F6001AE0113010F0B49B01C002C01150F9CFC2
:10030600103011F48824992419910895089522969D
:100316000895AA93DC019FEF8FEF662371F040EA00
:1003260031E02D91822728E09695879510F4942741
:1003360083272A95C9F76A95A1F7809590958D939D
:100346009D93089523960895ADDFB8DFFECFFFCFC6
:10035600E09301010895AD81BE810895ED81FE818E
:100366000895F9DF11960895F6DF1396AC91089576
:10037600ED83FE8308951B2EBF2FF12D1A2EAE2F6F
:10038600E12D08955A934A933A932A931A930A931E
:1003960008955D814C813B812A81198108810895E8
:00000001FF
