:0C0000000C9406030C94852D0C94000059
:10000C000C9400000C9400000C9400000C94000064
:10001C000C9400000C9400000C9400000C94000054
:10002C000C9400000C9400000C9400000C94000044
:10003C000C9400000C946E2D0C9400000C94000099
:10004C000C9400000C9400000C9400000C94000024
:10005C000C9400000C94F70C0C9400000808080099
:10006C000000000000000000000000003078783034
:10007C00300030006C6C6C00000000006C6CFE6C8E
:10008C00FE6C6C00183E603C067C18000063660C2D
:10009C00183363001C361C3B6E663B00303060002E
:1000AC00000000000C18303030180C0030180C0C0C
:1000BC000C18300000663CFF3C660000003030FC41
:1000CC003030000000000000001818300000007EE6
:1000DC0000000000000000000018180003060C18B7
:1000EC00306040003E63636B63633E001838581801
:1000FC0018187E003C66061C30667E003C66061CAA
:10010C0006663C000E1E36667F060F007E607C067F
:10011C0006663C001C30607C66663C007E66060C05
:10012C00181818003C66663C66663C003C66663EE9
:10013C00060C3800001818000018180000181800D9
:10014C00001818300C18306030180C0000007E00BD
:10015C00007E000030180C060C1830003C66060CB3
:10016C00180018003E636F696F603E00183C6666AD
:10017C007E6666007E33333E33337E001E33606012
:10018C0060331E007C36333333367C007F31343C95
:10019C0034317F007F31343C343078001E33606062
:1001AC0067331F006666667E666666003C18181824
:1001BC0018183C000F06060666663C007333363C86
:1001CC00363373007830303031337F0063777F7F84
:1001DC006B63630063737B6F676363003E6363638E
:1001EC0063633E007E33333E303078003C66666697
:1001FC006E3C0E007E33333E363373003C66301853
:10020C000C663C007E5A181818183C006666666628
:10021C0066667E0066666666663C18006363636BA2
:10022C007F7763006363361C1C3663006666663C2E
:10023C0018183C007F63460C19337F003C3030307B
:10024C0030303C006030180C060301003C0C0C0CE8
:10025C000C0C3C00081C3663000000000000000081
:10026C00000000FF18180C000000000000003C0605
:10027C003E663B0070303E3333336E0000003C660C
:10028C0060663C000E063E6666663B0000003C66FF
:10029C007E603C001C3630783030780000003B66C5
:1002AC00663E067C7030363B3333730018003818CA
:1002BC0018183C00060006060666663C703033369D
:1002CC003C3673003818181818183C000000667F6C
:1002DC007F6B630000007C666666660000003C660F
:1002EC0066663C0000006E33333E307800003B669F
:1002FC00663E060F00006E3B3330780000003E6017
:10030C003C067C0008183E18181A0C0000006666A3
:10031C0066663B0000006666663C18000000636B76
:10032C007F7F3600000063361C3663000000666673
:10033C00663E067C00007E4C18327E000E1818704B
:10034C0018180E000C0C0C000C0C0C007018180E6D
:10035C00181870003B6E0000000000001C36361CA4
:10036C0000000000808182838485868788898A8B3F
:10037C008C8D8E8F90919293949596979899AD9B26
:10038C008C9DAE9FA021A2A3A4A5A6A7A8A9AAABA9
:10039C00ACADAEAFB0B1B2B3B4B5B6B7B8B9BABB19
:1003AC00BCBDBEBFC0C1C2C3C4C5C6C7C8C9CACB09
:1003BC00CCCDCECFD0D1D2D3D4D5D6D7D8D9DADBF9
:1003CC00DCDDDEDFC0C1C2C3C4C5C6C7C8C9CACB69
:1003DC00CCCDCECFD0D1D2D3D4D5D6F7D8D9DADBB9
:1003EC00DCDDDE9F000000000000000000000000CB
:1003FC00000000000100F80002082080000000004E
:10040C000000BF05C405CB056572726F723A2025DA
:10041C007800222A2B2C3A3B3C3D3E3F5B5D7C7F97
:10042C00004F70656E0044656C65746500496E66BE
:10043C006F00303A4C4F472F535049534F4B462E79
:10044C0074787400DDF2EE20F1EFE8F1EEEA20F2C0
:10045C00E5EAF3F9E8F520F4E0E9EBEEE22C20EF25
:10046C00F0EEF1F2EE20EBEEE32C20ECE5EDFFF2FA
:10047C00FC20E820F3E4E0EBFFF2FC20F1ECFBF1D4
:10048C00EBE020EDE5F20A0A00257300526F6F7461
:10049C0000526F6F742F2573002A2A2A46696C65E7
:1004AC0020496E666F2A2A2A0046696C65205369BA
:1004BC007A650025692042004368616E67696E6742
:1004CC0020446174650025690030002E5458540096
:1004DC002E574156002E776176004C4F47004E6FD9
:1004EC007420537570706F72746564003C536C6F3C
:1004FC007420456D7074793E004E6F2043617264B8
:10050C000042726F77736572002A2A2A4D757369DF
:10051C006320506C617965722A2A2A00423A256957
:10052C00002500256925693A256925693A2569253B
:10053C0069002D4E414E000001002D4E414E0049E8
:10054C004E4600000C000300F00304009C08FC0362
:10055C000100D30600040100DF0602040400E106DA
:10056C0004040F00B0051E040500BF052D04070090
:10057C00C40532040500CB0539041200D0053E0435
:10058C004500E205500402002706930405002906E5
:10059C00980410002E06A5040A003E06B5040E00B1
:1005AC004806C40402005606D504010058061D0472
:1005BC0005005906D70405005E064B0405006306CA
:1005CC00DC0405006806E10404006D06E6040E0078
:1005DC007106EA0402007F06D5040D008106F804BA
:1005EC0008008E060505080096060D0513009E06EC
:1005FC0015050200B1062D05010042084405000056
:10060C00F894EE27EFBBF1E0F5BFE5BF8DE0A2E07B
:10061C00BB27ED938A95E9F780E098E0A0E0B1E084
:10062C00ED930197E9F7E0E5F5E085919591009759
:10063C0061F0A591B59105901590BF01F001059061
:10064C000D920197E1F7FB01F0CFE0E0EEBBEBE997
:10065C00EDBFE8E0EEBFC0EBD5E00C9483332A98F5
:10066C002B982D9A299A2998A1E0B0E00E94193C68
:10067C00299A2B9AA1E0B0E00E94193CA1E052D03B
:10068C00A1E0B0E00E94193CA1E14CD0A1E0B0E0A7
:10069C000E94193CA3E046D0A1E0B0E00E94193CB6
:1006AC00A9E240D0A1E0B0E00E94193CA3E13AD00D
:1006BC00A1E0B0E00E94193CA5E234D0A1E0B0E08A
:1006CC000E94193CAFE343D0A1E0B0E00E94193C7A
:1006DC00AAE228D0A0E03BD0A3E839D0ABE222D0EC
:1006EC00A0E035D0A3E833D0AAE31CD0A3E02FD0F0
:1006FC00A1E0B0E00E94193CACE214D0A1E0B0E063
:10070C000E94193CA8E20ED0AFEFBFE00E94010599
:10071C000E947204A9E206D00895E4B1EF62E4B934
:10072C00399A0895AA932A982D982B982D9AE0E53A
:10073C00ECBDE1E0EDBDE881EEBDEDB5E078E9F3AF
:10074C00E0E0ECBDEDBD2A9A2D980C94F509AA9326
:10075C002A982D982B9A2D9AE0E5ECBDE1E0EDBDA1
:10076C00E881EEBDEDB5E078E9F3E0E0ECBDEDBD80
:10077C002A9A0C94F509BA93AA9323970E948B3F5B
:10078C00E985FA850E942D3E1E2FE985E295E07FD2
:10079C00AE2FEF81F8850E94443EEA2B0E2F3F814D
:1007AC001C83FE0135960083FE0136963083AC85A2
:1007BC00B0E0E2E0F0E00E94C13EEC87AB85E3E004
:1007CC00EA9FF001A2E4B0E00E94963EBF01EC85E6
:1007DC00A3E0EA9FF001E60FF71FFA93EA93FE01FC
:1007EC003696FA93EA93B0E040D00E94923F2D9651
:1007FC000895BA93AA931A930A9300E010E000E0CC
:10080C0010E00338E0E01E076CF40A93ED81EA93E4
:10081C00EC81FD81FA93EA93AE81BF81ACDF0F5F6F
:10082C001F4FEFCF1981088125960895BA93AA938B
:10083C001A93E981E295E07FEE0FEE0F1E2F2898B8
:10084C00E0E5ECBDE1E0EDBDEEBDEDB5E078E9F342
:10085C00E12FE07CEEBDEDB5E078E9F3E0E0ECBD36
:10086C00EDBD289A188123960895BA93AA931A93EA
:10087C000A932898E0E5ECBDE1E0EDBDE2E0EEBDC9
:10088C00EDB5E078E9F3EE81FF810E94443EEEBDC8
:10089C00EDB5E078E9F3EE81EEBDEDB5E078E9F386
:1008AC0000E010E0EA81FB810E171F076CF4F801E1
:1008BC00AC81BD81AE0FBF1FEC91EEBDEDB5E07804
:1008CC00E9F30F5F1F4FEECFE0E0ECBDEDBD289AD2
:1008DC00198108810C94DC0723970E948B3F00E060
:1008EC0010E020E030E0289A2A98ABE20E949803AE
:1008FC00A0E02DDFA3E82BDFAAE20E949803A0E082
:10090C0026DFA3E824DFACE20E94980300E010E0AD
:10091C000830E2E21E070CF06AC02A9A2898E0E53B
:10092C00ECBDE1E0EDBDE3E0EEBDEDB5E078E9F363
:10093C00F801A3E0B0E00E94963E0E94443EEEBD5A
:10094C00EDB5E078E9F3A3E00A02F001EEBDEDB5F8
:10095C00E078E9F320E030E02330E0E03E0774F487
:10096C00EFEFEEBDEDB5E078E9F3DE011496A20FE2
:10097C00B31FEEB5EC932F5F3F4FEECFE0E0ECBD35
:10098C00EDBD289A2A984BE445B92D9A2D98E0E5AF
:10099C00ECBDE1E0EDBDEC81EEBDEDB5E078E9F349
:1009AC00E0E0ECBDEDBD4BE445B92D9A2D98E0E5AA
:1009BC00ECBDE1E0EDBDED81EEBDEDB5E078E9F328
:1009CC00E0E0ECBDEDBD4BE445B92D9A2D98E0E58A
:1009DC00ECBDE1E0EDBDEE81EEBDEDB5E078E9F307
:1009EC00E0E0ECBDEDBD0F5F1F4F0C948E042A9A16
:1009FC000E94923F2CC4BA93AA9323970E948B3FD8
:100A0C0020E030E0EF81F8850E942D3EEC83EF81F1
:100A1C00E295E07FAE2FEF81F8850E94443EEA2BF1
:100A2C00ED83EF81EE8300E010E00930E2E21E0777
:100A3C00ACF52898E0E5ECBDE1E0EDBDE2E0EEBD03
:100A4C00EDB5E078E9F3F801A3E0B0E00E94963E42
:100A5C000E94443EEEBDEDB5E078E9F3A3E00A0256
:100A6C00F001EEBDEDB5E078E9F320E030E02330A5
:100A7C00E0E03E0764F4DE011496A20FB31FEC9184
:100A8C00EEBDEDB5E078E9F32F5F3F4FF0CFE0E03E
:100A9C00ECBDEDBD289A0F5F1F4FC7CF0E94923F50
:100AAC0083C5BA93AA932E97E0E0EC87ED870E945A
:100ABC00893F40E050E0EE89FF890E942D3EE98B92
:100ACC00EE89E295E07FAE2FEE89FF890E94443ECD
:100ADC00EA2BE88BEE89EF87EC89FD890E942D3E8D
:100AEC00EE87EC89E295E07FAE2FEC89FD890E94C0
:100AFC00443EEA2BED87EC89EC87E989E987E889A4
:100B0C00EA87EF85EB87EE85EE83ED85EF83EC8549
:100B1C00E887A88DA13009F067C0EA8DAC8DEA1783
:100B2C0010F0EC8D01C0EA8D1E2FEA8DAC8DEA170A
:100B3C0010F4EC8D01C0EA8D0E2FE98DAB8DEA1708
:100B4C0010F0EB8D01C0E98D3E2FE98DAB8DEA17CE
:100B5C0010F4EB8D01C0E98D2E2FE2E4E39FF00140
:100B6C00DF01EE27A10FBE1FE3E0F0E00E94963EEE
:100B7C00AF01E2E4E29FF001DF01E02FF0E0EA0FC9
:100B8C00FB1F3196A3E0B0E00E94963E4E175F0724
:100B9C005CF54A8B5B8BA02FBB27E12FF0E00E940A
:100BAC006A3FEA1BFB0B3196A3E0B0E00E94963E35
:100BBC00E40FF51FAA89BB89AE17BF0794F4EA8925
:100BCC00FB89FA93EA93FE013B96FA93EA93A3E02E
:100BDC00B0E00E943B04EA89FB893396EA8BFB8BDD
:100BEC00DACF4A535F4FC5CFA88DA23009F024C18C
:100BFC00EA8DAC8DEA1710F0EC8D01C0EA8D1E2F3A
:100C0C00EA8DAC8DEA1710F4EC8D01C0EA8D0E2F35
:100C1C00E98DAB8DEA1710F0EB8D01C0E98D3E2FFD
:100C2C00E98DAB8DEA1710F4EB8D01C0E98D2E2FF9
:100C3C00E2E4E39FF001DF01EE27A10FBE1FE3E02A
:100C4C00F0E00E94963EAF01E2E4E39FF001DF0189
:100C5C00EE27A10FBE1FE3E0F0E00E94963EBF011D
:100C6C00A02FBB27E12FF0E00E946A3FEA1BFB0B91
:100C7C003196A3E0B0E00E94963EE60FF71F4E17A8
:100C8C005F076CF45A934A93FE013896FA93EA93F1
:100C9C00A3E0B0E00E943B044D5F5F4FD5CFE2E490
:100CAC00E39FF001DF01EE27A10FBE1FE3E0F0E0B0
:100CBC000E94963EEA53FF4FAF01E2E4E29FF0013F
:100CCC00DF01E02FF0E0EA0FFB1F3196A3E0B0E06C
:100CDC000E94963EE65CF0404E175F070CF04AC04F
:100CEC004A8B5B8BA02FBB27E12FF0E00E946A3F61
:100CFC00EA1BFB0B3196A3E0B0E00E94963EE40F9A
:100D0C00F51FAA89BB89AE17BF078CF54A175B077D
:100D1C00A9F0A02FBB27E12FF0E00E946A3FEA1B4D
:100D2C00FB0B3196A3E0B0E00E94963EE40FF51F5A
:100D3C003397AA89BB89EA17FB0739F4EA89FB893F
:100D4C00FA93EA93FE01389606C0EA89FB89FA9376
:100D5C00EA93FE013B96FA93EA93A3E0B0E00E947B
:100D6C003B04EA89FB893396EA8BFB8BBBCF4A5356
:100D7C005F4FA3CFE2E4E39FF001DF01EE27A10F69
:100D8C00BE1FE3E0F0E00E94963EBF01A22FBB27FE
:100D9C00E32FF0E0AE1BBF0BE3E0F0E00E94963EC9
:100DAC00A4E8B0E00E94963EDF01E2E0F0E00E9491
:100DBC00C13EE60FF71FAF01E2E4E39FF001DF0154
:100DCC00EE27A10FBE1FE3E0F0E00E94963EBF01AC
:100DDC00A22FBB27E32FF0E0AE1BBF0BE3E0F0E04C
:100DEC000E94963EA4E8B0E00E94963EDF01E2E04D
:100DFC00F0E00E94C13E6E0F7F1FA02FBB27E12F9A
:100E0C00F0E00E946A3FEA1BFB0B3196A3E0B0E0D6
:100E1C000E94963EE60FF71F4E175F076CF45A932D
:100E2C004A93FE013896FA93EA93A3E0B0E00E944D
:100E3C003B044D5F5F4FC0CF0E94903F6D9608956D
:100E4C00BA93AA9361970E94893FE8E6F0E0EE8797
:100E5C00FF87549131964491EE85FF85329604902C
:100E6C000E8AAE89BB27ED8DF0E07F970E94963EEF
:100E7C00AE85BF85EA0FFB1FEC87FD8700E010E015
:100E8C00E42FD801F0E0AE17BF070CF06FC0EC8573
:100E9C00FD850590EC87FD870D8AE0E8EC8B20E062
:100EAC0030E0A52FB0E0E2E0F0E00E94C13E2E174A
:100EBC003F070CF058C0EC89AD89EA2319F4EF898F
:100ECC00F88D02C0E98DFA8DEA8BFB8BEC89E695E7
:100EDC00EC8BAD89EA2319F4EF89F88D02C0E98D0A
:100EEC00FA8DE88BF98BEA89FB890E94363EEB87F9
:100EFC00EA89E295E07FAE2FE989F070EA2BEA8768
:100F0C00E889E987EB85EE83EA85EF83E985E88755
:100F1C00EC8DF0E0E00FF11FA3E0B0E00E94963EF4
:100F2C00A2E4B0E00E94963EBF01AB8DB0E0E2E0DF
:100F3C00F0E00E94C13EE20FF31FA3E0B0E00E947C
:100F4C00963EE60FF71FFA93EA93FE013896FA9352
:100F5C00EA93A3E0B0E00E943B04EC89E695EC8BAD
:100F6C002F5F3F4F9ECF0F5F1F4F8ACF0E94903F46
:100F7C006E960895BA93AA93AE81BF81EC91E0303E
:100F8C00A9F0ED91AE83BF83EA93EE81EA93EE81F3
:100F9C00EA93ED81FE81FA93EA93AD81BE8150DF35
:100FAC00EC81E85FEC83AD81A43830F3289608958A
:100FBC00AA933B9A439AE881E03021F4E1E5ECBD39
:100FCC00E0E003C0E0E5ECBDE1E0EDBD08C2E0E02F
:100FDC00ECBDEDBD0895AA93E881EEBDEDB5E078CA
:100FEC00E9F3EEB5FCC1BA93AA93AA81BB81ED914A
:100FFC00AA83BB83EEBDEDB5E078E9F3AA81BB8192
:10100C00ED91AA83BB83EEBDEDB5E078E9F3E88101
:10101C00F9813297E883F98341F7E0C5BA93AA9333
:10102C00EFEFEEBDEDB5E078E9F3AA81BB81119647
:10103C00AA83BB831197EEB5EC93EFEFEEBDEDB544
:10104C00E078E9F3AA81BB811196AA83BB8311973F
:10105C00EEB5EC93E881F9813297E883F98301F7D7
:10106C00BDC5BA93AA930E948B3F2C813D81AFEFF3
:10107C00B2DF1E2F1F3F31F0EC81FD813197EC83E5
:10108C00FD8309F401C0F3CFA12FB0E0AF3FE0E046
:10109C00BE0719F4E1E0F0E002C0E0E0F0E00E94ED
:1010AC00923F26960895439AAFEF95DF08954398A3
:1010BC00AFEF91DFAAE0B0E00E94193CA4EFB1E0E1
:1010CC00D0DFE1E0F0E00895EEDFE0E0F0E008953D
:1010DC00BA93AA930E948B3F24E130E0EFEFEEBD70
:1010EC00EDB5E078E9F3EEB51E2FE3EBF6E0FA93FD
:1010FC00EA93E4E1F4E0FA93EA93E12FFF27662701
:10110C0077270E945A3F84E00E94973928961F3F08
:10111C0019F42150304009F401C0E0CF1E3F29F0F2
:10112C00E0E0F0E00E94923FD6C5EE81FF81FA9399
:10113C00EA93AE81BF8172DFAFEF4DDFAFEF4BDFD4
:10114C00E1E0F0E00E94923FC6C5AA931A93A4EF87
:10115C00B1E087DF309721F4E0E0F0E018813EC584
:10116C00A98139DFA981AD3FA9F0EA81FB81FA930E
:10117C00EA93A0E0B2E037DFAFEF2DDFAFEF2BDF6C
:10118C00AFEF29DF1E2FEF71E53021F0E0E0F0E04A
:10119C00188124C5E1E0F0E0188120C50E945F3F72
:1011AC001A930A93EE81E07871F0EE81EF77EE837B
:1011BC00E7E7EA93A0E0B0E080E090E0EFDF0E2FED
:1011CC00023008F041C0AE81AC3431F06CDF6FDF1F
:1011DC00309711F4EFEF39C0AE81FDDEAA81BB81EF
:1011EC008C819D81E8E10E94183EAE2FF4DEEA81ED
:1011FC00FB816C817D810E94493EAE2FECDEAA8181
:10120C00BB818C819D81E8E00E94183EAE2FE3DE0D
:10121C00AA81E1DE11E0AE81A03409F415E9AE81BA
:10122C00A83409F417E8A12FD6DEAE81AC3411F442
:10123C00AFEFD1DE1AE0AFEFCEDE0E2F07FF02C00C
:10124C00115009F401C0F7CFE02F198108812796BE
:10125C000895AA9324970E94893FEA85E03011F003
:10126C00E1E0B1C0A0E0A4DE1AE0103021F0AFEF55
:10127C00B2DE1150FACF30E0E0E4EA93A0E0B0E047
:10128C0080E090E08BDFE13009F090C0E8E4EA9375
:10129C00AAEAB1E080E090E081DFE13009F056C0CD
:1012AC0010E0143078F4E12FF0E0DE011696AE0F6A
:1012BC00BF1FEFEFEEBDEDB5E078E9F3EEB5EC93C3
:1012CC001F5FEFCFA885A13019F4A985AA3A09F0C0
:1012DC003CC040E157E2042E052A49F0E9EEEA93BE
:1012EC00A0E0B0E080E090E459DFE03009F407C002
:1012FC0088EC90E00197F1F741505040ECCF042E70
:10130C00052A49F0EAE7EA93A0E0B0E080E090E03B
:10131C0045DFE03009F019C010E0143078F4E12F0B
:10132C00F0E0DE011696AE0FBF1FEFEFEEBDEDB590
:10133C00E078E9F3EEB5EC931F5FEFCFEE81E0744C
:10134C0011F0ECE001C0E4E03E2F30C0E9EEEA938E
:10135C00A0E0B0E080E090E021DFE23018F432E071
:10136C0009EE02C031E001E440E157E2042E052A07
:10137C0041F00A93A0E0B0E080E090E00FDFE030B5
:10138C0009F407C088EC90E00197F1F74150504008
:10139C00EDCF042E052A49F0E0E5EA93A0E0B2E097
:1013AC0080E090E0FBDEE03009F030E03093D606D0
:1013BC007ADE303031F0E091D306EE7FE093D30645
:1013CC0006DEE091D3060E94903F2B960895AA93D7
:1013DC00E881E03011F0E1E002C0E091D306219603
:1013EC000895BA93AA931A93A1E0E2DDE985E0305F
:1013FC0021F4E981FA81309719F4E4E0188197C35C
:10140C00E091D306E17019F0E3E0188190C3E0910C
:10141C00D606E87071F4EB81FC816D817E81A0E0D1
:10142C00B2E080E090E00E94703EEB83FC836D8321
:10143C007E83A981BA81129710F0E2E501C0E1E543
:10144C001E2F1A93AC81BD818E819F81A7DEE03067
:10145C00F1F4EF81F885FA93EA93A0E0B2E038DE7C
:10146C00309761F0EF81F885E050FE4FEF83F887FD
:10147C00E981FA813197E983FA8359F7123539F406
:10148C00ECE4EA93A0E0B0E080E090E087DE0BDED5
:10149C009EDDE981FA81309711F0E1E001C0E0E0D6
:1014AC00188145C3BA93AA93A1E082DDE885E030A8
:1014BC0021F4E881F981309711F4E4E075C0E091F2
:1014CC00D306E17011F0E3E06FC0E091D306E47055
:1014DC0011F0E2E069C0E091D606E87071F4EA819F
:1014EC00FB816C817D81A0E0B2E080E090E00E9405
:1014FC00703EEA83FB836C837D83A881B98111974D
:10150C00B1F4E8E5EA93AB81BC818D819E8146DE26
:10151C00E03041F4EE81FF81FA93EA93AEEF15DEF1
:10152C00309709F403C0E0E0E883E98334C0E0912C
:10153C00D606E67039F0E7EDEA93A981BA818827DF
:10154C0099272CDEE9E5EA93AB81BC818D819E81E4
:10155C0025DEE03001F5EE81FF81FA93EA93ACEFE2
:10156C00F4DD309761F0EE81FF81E050FE4FEE83A9
:10157C00FF83E881F9813197E883F98361F7E0E033
:10158C00F0E0FA93EA93ADEFE0DD309721F4E1E07F
:10159C00F0E0E883F98387DD1ADDE881F981309783
:1015AC0011F0E1E001C0E0E029960895BA93AA9306
:1015BC0064970E948B3F288D398DA1E0F9DCEB8D6F
:1015CC00E03011F0E4E088C111E0E091D306E17065
:1015DC0011F0E3E081C1EA8DF0E0309729F467DD8A
:1015EC00309709F010E075C1E130A0E0FA0709F07E
:1015FC0078C0E9E4EA93A0E0B0E080E090E0CEDDD2
:10160C00E03049F4FE013896FA93EA93A0E1B0E099
:10161C005FDD309709F464C0A885B0E0E6E00E9475
:10162C00033EE130A0E0FA0701F5A989B0E0E0E063
:10163C00F889AE0FBF1FEF85F0E0EF73F0700E94DA
:10164C00593E0E944E3E882799270E94D03DEF5F5D
:10165C00FF4F6F4F7F4FEC83FD836E837F83AC8195
:10166C00BD818E819F81EAE034C0ED85EF70AE2F95
:10167C00EA89E078F0E00E942F3E0E942D3EAE0FEA
:10168C00E989E370EE0FEA0FEE5F0E2FA889B0E048
:10169C00E6E00E94033EDF01EF85F0E00E94283E69
:1016AC00AE0FBF1FEE85F0E0E370F070EE0FEE0FA3
:1016BC00FE2FE0E0EA0FFB1F319666277727EC83BD
:1016CC00FD836E837F83E02FE950AC81BD818E81D9
:1016DC009F810E940C3EA88DB98D0E943C3F10E06A
:1016EC00F8C0E330A0E0FA0709F085C0E091D60617
:1016FC00E47051F1EDECEA93A0E0B0E080E090E012
:10170C004DDDE03001F5AFEF66DCFE013896FA9363
:10171C00EA93A0E1B0E0DCDC3097A9F000E3003004
:10172C0021F0AFEF58DC0150FACFEA89E295EF7067
:10173C00A0E1B0E080E090E00E940C3EA88DB98D55
:10174C000E943C3F10E056C0E9E4EA93A0E0B0E010
:10175C0080E090E023DDE03049F4FE013896FA9306
:10176C00EA93A0E1B0E0B4DC309709F443C0E09117
:10177C00D606E270D1F0EA89F0E0EF73F070EE0F6C
:10178C00DF01EB89F0E0E078F0700E94383E0E94B7
:10179C00363EAE0FBF1F1196ED89E295EF70E695C0
:1017AC00E695E1500E94FA3D1EC0EA89F0E0EC7724
:1017BC00F0700E94313E31960F01EB89F0E0E3703E
:1017CC00F070EE0FEE0FEE0FDF01EB89F0E0E07E34
:1017DC00F070F595E7950E942D3EEA0FFB1F3196B0
:1017EC00D0010E94683EA88DB98D662777270E948C
:1017FC003C3F10E06EC0EA30A0E0FA0731F4E09113
:10180C00D606D901EC9310E064C0EB30A0E0FA07E7
:10181C0099F4E9E4EA93A0E0B0E080E090E0BEDC6B
:10182C00E03039F43A932A93A0E1B0E051DC3097E0
:10183C0009F401C010E04DC0EC30A0E0FA0799F4B7
:10184C00EAE4EA93A0E0B0E080E090E0A7DCE030CE
:10185C0039F43A932A93A0E1B0E03ADC309709F4DA
:10186C0001C010E036C0ED30A0E0FA07C9F4EAE799
:10187C00EA93A0E0B0E080E090E090DCE03079F416
:10188C0004E0003059F03F932F932F5F3F4FAFEFA1
:10189C00A2DBAF91BF91EC930150F3CF10E019C0D4
:1018AC00EE30A0E0FA07A1F4EDECEA93A0E0B0E092
:1018BC0080E090E073DCE03051F4AFEF8CDB3A93D6
:1018CC002A93A0E4B0E004DC309709F010E001C0EA
:1018DC0014E0E9DB7CDBE12F0E94923F6C960895CB
:1018EC00BA93AA930E948B3F10E0143050F5EC8110
:1018FC00FD81A0E4BFE10E94AE3E7097DF01E12FB5
:10190C00F0E0EF51F94FE081F0E00E94AE3E9F0114
:10191C0000240216030620F42030E1E03E0708F014
:10192C000EC02093B8001093B900EFEFE093BB000A
:10193C00E4E0E093BC00EFEF0E94923F4BC31F5FCB
:10194C00D4CFE0E00E94923F45C3E091BC00E1702F
:10195C000895AA931A93F9DFE030E9F7E981E0934F
:10196C00E006AA81BB81EC91E093D706E17099F473
:10197C0011E0E9811E1778F4E12FF0E0E952F94FFC
:10198C000F01AA81BB81EE27A10FBE1FEC91D001E4
:10199C00EC931F5FEECFE8EFE093DF06E5EAE09310
:1019AC00BC0018811BC1AA931A93CFDFE030E9F772
:1019BC00A091DF06AF3F89F410E0E9811E1768F4AF
:1019CC00AA81BB81EE27A10FBE1FE12FF0E0E952E7
:1019DC00F94FE081EC931F5FF0CFE091DF061881A7
:1019EC00FDC0AA93BA93EA93FA93EFB7EA931A93CA
:1019FC00E091B900EC7F1E2FF0E0E830A0E0FA0790
:101A0C0021F0E031A0E0FA0721F4E0E0E093E506F4
:101A1C0004C0E831A0E0FA0709F404C0E832A0E001
:101A2C00FA07F1F4E091E006A091E506AE1788F410
:101A3C00E091E506F0E0E952F94FE081E093BB005C
:101A4C00E5E8E093BC00E091E506EF5FE093E50686
:101A5C0006C0EFEFE093DF06E4E9E093BC0042C080
:101A6C00E035A0E0FA0771F4A091E506B0E0A952C8
:101A7C00B94FE091BB00EC93E091E506EF5FE0938A
:101A8C00E50604C0E034A0E0FA0781F4E091E0063A
:101A9C00F0E03197A091E506B0E0AE17BF0714F463
:101AAC00E5EC01C0E5E8E093BC001CC0E835A0E023
:101ABC00FA0769F4A091E506B0E0A952B94FE0919C
:101ACC00BB00EC93EFEFE093DF06E4E909C0E833E9
:101ADC00A0E0FA0711F4E5EA03C01093DF06E4E096
:101AEC00E093BC001991E991EFBFF991E991B9919B
:101AFC00A9911895BA93AA930E948B3F08851985D2
:101B0C002E813F81EC81FD813197EC83FD833196F1
:101B1C0061F01F930F930F5F1F4FD9012F5F3F4F42
:101B2C00EC91AF91BF91EC93EDCF0E94923F2A962E
:101B3C000895BA93AA931A930A930E811F81EA818E
:101B4C00FB813197EA83FB83319649F01F930F9306
:101B5C000F5F1F4FEC81AF91BF91EC93F0CFB9C0E9
:101B6C00BA93AA930E94893F0A851B8528853985DB
:101B7C0040E050E0EE81FF813197EE83FF83319698
:101B8C0081F0D8010F5F1F4F0C901124D9012F5FEA
:101B9C003F4FAC91BB27F001EA1BFB0BAF01309719
:101BAC0009F001C0E7CFFA014DC3BA93AA93AA81F9
:101BBC00BB81EC91E03039F0AC91E881F981B0E077
:101BCC00EA17FB0709F406C0EA81FB813196EA8328
:101BDC00FB83EDCFAA81BB81EC91F0E024960895B4
:101BEC00BA93AA9324971A930A93EE81FF81E48106
:101BFC00E03009F46DC0AE81BF819A960E94313FEE
:101C0C00EA83FB836C837D83EE81FF81A181AA93A0
:101C1C00EF81F885BE96FA93EA93ED81FE816F8190
:101C2C0078850E945A3FA1E0B0E03CDCE03011F036
:101C3C00E1E04FC0AE81BF811496E0E0EC93AE8141
:101C4C00BF815E960E94313FAA81BB818C819D81B0
:101C5C000E94643F0E94DA3D7F936F93FF93EF9352
:101C6C00AE81BF8156960E94313FAF91BF918F914B
:101C7C009F910E94843F60F5EE81FF8103811127C3
:101C8C000230E0E01E0720F1AE81BF8156960E9423
:101C9C00313FAA81BB818C819D810E94D03DEA831A
:101CAC00FB836C837D83EE81FF81A181AA93EF81FD
:101CBC00F885BE96FA93EA93ED81FE816F81788563
:101CCC000E945A3FA1E0B0E0EDDB01501040D8CFAC
:101CDC00E0E019810881289608950E945F3FAC814D
:101CEC00BD819A960E94313F0E944B3F0E947F3FDC
:101CFC0021F1AC81BD8174DFE03011F0E1E06AC10B
:101D0C00EC81FD81A181AA93ED81FE81BE96FA93AF
:101D1C00EA93EB81FC816D817E810E945A3FA1E0A8
:101D2C00B0E05FDBE03011F0E1E054C10E94463FCF
:101D3C00AC81BD819A960E943C3FE0E04BC1BA93C6
:101D4C00AA931A93A981BA814BDF1E2F103009F088
:101D5C0002C1A981BA81AC91A33029F4E981FA813D
:101D6C00A581A13009F0EBC0E981FA81BE96FA9306
:101D7C00EA93E0E0F0E0FA93EA93A0E0B2E0D9DE77
:101D8C00E981FA81BE96E250FE4FA5E5A083E98178
:101D9C00FA81BE96E150FE4FAAEAA083E981FA814E
:101DAC00BE96A2E5A083E981FA81BF96A083E98162
:101DBC00FA81F096A1E6A083E981FA81F196A1E47B
:101DCC00A083E981FA81BE96EC51FE4FA2E7A08375
:101DDC00E981FA81BE96EB51FE4FA083E981FA812D
:101DEC00BE96EA51FE4FA1E4A083E981FA81BE962A
:101DFC00E951FE4FA1E6A083E981FA81BE96E85134
:101E0C00FE4FDF01E981FA81E685EC93E981FA81E5
:101E1C00BE96E751FE4F0F01E981FA81A685B78581
:101E2C00FD01EF2FF0E0D001EC93E981FA81BE9631
:101E3C00E651FE4F0F01E981FA81A685B7858089AD
:101E4C009189FD01BC010E94493ED001EC93E981CE
:101E5C00FA81BE96E551FE4FFF93EF93E981FA812B
:101E6C00A685B78580899189E8E10E94183EAF91DB
:101E7C00BF91EC93E981FA81BE96E451FE4FDF01EC
:101E8C00E981FA81E285EC93E981FA81BE96E3510E
:101E9C00FE4F0F01E981FA81A285B385FD01EF2F79
:101EAC00F0E0D001EC93E981FA81BE96E251FE4F4D
:101EBC000F01E981FA81A285B38584859585FD01A1
:101ECC00BC010E94493ED001EC93E981FA81BE9697
:101EDC00E151FE4FFF93EF93E981FA81A285B3851F
:101EEC0084859585E8E10E94183EAF91BF91EC93F3
:101EFC00A981BA815A960E94313FEF5FFF4F6F4F15
:101F0C007F4FA981BA819A960E943C3FE981FA8160
:101F1C00A181AA93EA81FB81BE96FA93EA93EC81A4
:101F2C00FD81A2A5B3A584A595A50E945F3FA1E064
:101F3C00B0E0B8DAA981BA811596E0E0EC93E981BA
:101F4C00FA81A181AA93E0E0EA93A0E0B0E02EDB55
:101F5C00E03009F011E0E12F1881239608950E94DA
:101F6C005F3F0E94463FE250F040604070400E944C
:101F7C00503FEC81FD81A289B38984899589E2E087
:101F8C00F0E060E070E00E94643F0E94DA3D0E9445
:101F9C004B3F0E94843F28F0E0E0F0E060E070E00E
:101FAC0019C0EC81FD81E281F0E00E944B3F0E9460
:101FBC00593E0E94703E7F936F93FF93EF93AC81D9
:101FCC00BD8196960E94313FAF91BF918F919F91A9
:101FDC000E94D03D269608950E945F3F0E94893F43
:101FEC00AE81BF8188859985A230E0E0BE07E0E034
:101FFC008E07E0E09E0760F0AA85BB8552960E9492
:10200C00313FAE81BF81888599850E94843F28F03D
:10201C00E1E0F0E060E070E015C1AA85BB85EC91D1
:10202C00F0E0E130A0E0FA0709F068C02E813F81B2
:10203C00F901F695E7952E0F3F1FEA85FB85FA937C
:10204C00EA93EC85FD85A68DB78D80A191A19F9318
:10205C008F93BF93AF93D901E0E0F2E00E94AE3EC4
:10206C00AF91BF918F919F91662777270E94D53DA5
:10207C0034DEE03009F0E2C0AA85BB859E96F901FA
:10208C00F170AE0FBF1F0C9111272F5F3F4FEA85E8
:10209C00FB85FA93EA93EC85FD85A68DB78D80A11F
:1020AC0091A19F938F93BF93AF93D901E0E0F2E09E
:1020BC000E94AE3EAF91BF918F919F91662777277B
:1020CC000E94D53D0ADEE03009F0B8C0AA85BB8578
:1020DC009E96F901F170AE0FBF1FEC91FE2FE0E060
:1020EC000E2B1F2BEE81E17021F0F8010E94363E81
:1020FC0002C0F801FF7066277727A4C0E230A0E089
:10210C00FA07C9F5EA85FB85FA93EA93EC85FD8518
:10211C00A68DB78D80A191A19F938F93BF93AF9301
:10212C00A885B9858A859B85E0E0F1E060E070E0E8
:10213C000E94C63EAF91BF918F919F910E94D53D59
:10214C00CCDDE03009F07AC0AE81BF81E2E00E94C4
:10215C00903EF170AA85BB859E96EA0FFB1FAF01DE
:10216C00F181E0E00F01DA01EC91F0E0E029F129D6
:10217C006627772767C0E330A0E0FA0709F05EC056
:10218C00EA85FB85FA93EA93EC85FD85A68DB78DE0
:10219C0080A191A19F938F93BF93AF93A885B9858D
:1021AC008A859B85E0E8F0E060E070E00E94C63E26
:1021BC00AF91BF918F919F910E94D53D8EDDE03004
:1021CC00E9F5AE81BF81E4E00E94903EF170AA85F2
:1021DC00BB859E96EA0FFB1FAF01E381F0E00E94E6
:1021EC00593EDF01CB01E8E10E940C3EDF01CB013F
:1021FC00FA01E281F0E00E94593E0E944E3E0E949C
:10220C00E93DDF01CB01FA01F181E0E06627772798
:10221C000E94E93D7F936F93FF93EF93DA01EC916A
:10222C00AF91BF918F919F91FF27662777270E94CF
:10223C00E93DEF7FFF7F6F7F7F7004C0EFEFFFEF13
:10224C006FEF7FEF0E94903F2C9608950E945F3FA6
:10225C000E94893FAA85BB858C859D85A230E0E0D4
:10226C00BE07E0E08E07E0E09E0760F0AE85BF851C
:10227C0052960E94313FAA85BB858C859D850E9414
:10228C00843F10F052E062C1AE85BF85EC91F0E066
:10229C00E130A0E0FA0709F08FC00A851B85F80130
:1022AC00F695E7950E0F1F1FEE85FF85FA93EA93BF
:1022BC00E889F989A68DB78D80A191A19F938F9301
:1022CC00BF93AF93D801E0E0F2E00E94AE3EAF9135
:1022DC00BF918F919F91662777270E94D53DFDDC9A
:1022EC005E2F503009F02DC1AE85BF859E96F8014A
:1022FC00F170EA0FFB1F9F01EA85E17051F0D901E3
:10230C00EC91EF70AE2FEE81F0E00E94243EEA2BB0
:10231C0001C0EE81D901EC930F5F1F4FAE85BF85D5
:10232C001496E1E0EC93EE85FF85FA93EA93E88945
:10233C00F989A68DB78D80A191A19F938F93BF939F
:10234C00AF93D801E0E0F2E00E94AE3EAF91BF91B6
:10235C008F919F91662777270E94D53DBEDC5E2F1B
:10236C00503009F0EEC0AE85BF859E96F801F17035
:10237C00EA0FFB1F9F01EA85E17059F0AE81BF8126
:10238C0088859985E4E00E94183EFF276627772709
:10239C0010C0D901EC91E07F1E2EAE81BF818885E3
:1023AC009985E8E00E94183EFF2766277727EF7093
:1023BC00E129D901EC93C5C0E230A0E0FA07B9F5E8
:1023CC00EE85FF85FA93EA93E889F989A68DB78D96
:1023DC0080A191A19F938F93BF93AF93AC85BD8543
:1023EC008E859F85E0E0F1E060E070E00E94C63EE3
:1023FC00AF91BF918F919F910E94D53D6EDC5E2F66
:10240C00503009F09EC0AA85BB85E2E00E94903E48
:10241C00F170AE85BF859E96EA0FFB1F9F01EE8182
:10242C00D901EC93EF81D9011196EC938AC0E3307A
:10243C00A0E0FA0709F084C0EE85FF85FA93EA93D1
:10244C00E889F989A68DB78D80A191A19F938F936F
:10245C00BF93AF93AC85BD858E859F85E0E8F0E09A
:10246C0060E070E00E94C63EAF91BF918F919F914A
:10247C000E94D53D32DC5E2F503009F062C0AA8537
:10248C00BB85E4E00E94903EF170AE85BF859E96C0
:10249C00EA0FFB1F9F01E381F0E00E94593EDF0130
:1024AC00CB01E8E10E940C3EDF01CB01F901E28196
:1024BC00F0E00E94593E0E944E3E0E94E93DDF0131
:1024CC00CB01F901F181E0E0662777270E94E93D15
:1024DC007F936F93FF93EF93D901EC91AF91BF91E1
:1024EC008F919F91FF27662777270E94E93DE07027
:1024FC00F0706070707FAE81BF81888599850E9475
:10250C00E93DEE83FF8368877987EE81D901EC93EF
:10251C00EF81D9011196EC93EE81FF816885798565
:10252C000E94493ED9011296EC93AE81BF818885F9
:10253C009985E8E10E94183ED9011396EC9301C0ED
:10254C0052E0AE85BF851496E1E0EC93E52F0E9436
:10255C00903F609608950E945F3F24971A93AD8137
:10256C00BE818F819885A230E0E0BE07E0E08E0747
:10257C00E0E09E0760F0A985BA8552960E94313F33
:10258C00AD81BE818F8198850E94843F10F012E04E
:10259C0075C010E0A985BA8552960E94313FAD8175
:1025AC00BE818F8198850E94843F08F067C0E985C1
:1025BC00FA85FA93EA93AF81B88589859A850CDD03
:1025CC00E983FA836B837C830E94713F09F456C0C4
:1025DC00A981BA818B819C81A130E0E0BE07E0E04B
:1025EC008E07E0E09E0711F412E048C0A981BA8181
:1025FC008B819C81AF3FEFEFBE07EFEF8E07EFEFC4
:10260C009E0711F411E03AC0E985FA85FA93EA9332
:10261C00EF81F88569857A850E945A3FA0E0B0E089
:10262C0080E090E013DE1E2F103041F5E985FA852D
:10263C00A685B78580899189AF3FEFEFBE07EFEF95
:10264C008E07EFEF9E0789F0A985BA851E960E942A
:10265C00373FEF5FFF4F6F4F7F4F0E94413FA98580
:10266C00BA851596EC91E160EC93E981FA816B8166
:10267C007C81ED83FE836F8378878CCFE12F18816B
:10268C002B9608950E945F3F2C971A93ED85FE853B
:10269C006F8578890E94713F09F5A989BA891A96C4
:1026AC000E94313FE983FA836B837C830E94713FE4
:1026BC0061F0A989BA8952960E94313FA981BA81E9
:1026CC008B819C810E94843F40F0E1E0F0E060E06F
:1026DC0070E0E983FA836B837C8337C0E989FA89DC
:1026EC00FA93EA93AF85B88989899A8975DCE98769
:1026FC00FA876B877C87A985BA858B859C85A230E8
:10270C00E0E0BE07E0E08E07E0E09E0728F4E1E0A1
:10271C00F0E060E070E0F4C0A989BA8952960E949A
:10272C00313FA985BA858B859C850E94843F28F40E
:10273C00E985FA856B857C85E3C0ED85FE856F8523
:10274C007889E983FA836B837C83E981FA816B81D5
:10275C007C81ED83FE836F837887ED81FE816F81B1
:10276C007885EF5FFF4F6F4F7F4FED83FE836F8355
:10277C007887A989BA8952960E94313FAD81BE8172
:10278C008F8198850E94843FC0F0E2E0F0E060E029
:10279C0070E0ED83FE836F837887E981FA816B812A
:1027AC007C81AD81BE818F8198850E947F3F28F40A
:1027BC00E0E0F0E060E070E0A3C0E989FA89FA9308
:1027CC00EA93AF81B88589859A8506DCE987FA8713
:1027DC006B877C870E94713F51F1A985BA858B85E7
:1027EC009C85AF3FEFEFBE07EFEF8E07EFEF9E0735
:1027FC0041F0A130E0E0BE07E0E08E07E0E09E078C
:10280C0029F4E985FA856B857C857AC0E981FA81A2
:10281C006B817C81AD81BE818F8198850E947F3FC9
:10282C0029F4E0E0F0E060E070E06AC096CFE9895E
:10283C00FA89FA93EA93EF81F88569857A850E9483
:10284C005A3FAFEFBFEF8FEF9FE000DD1E2F103030
:10285C0039F4AD85BE858F8598890E94793F09F43E
:10286C0010C0E989FA89FA93EA93EF85F8896989A6
:10287C007A890E945A3FAB85BC858D859E85E6DCA6
:10288C001E2F103041F5ED81FE816F817885A9896D
:10289C00BA891A960E943C3FE989FA89A685B785C0
:1028AC0080899189AF3FEFEFBE07EFEF8E07EFEF17
:1028BC009E0781F0A989BA891E960E94373F3197ED
:1028CC00604070400E94413FA989BA891596EC91ED
:1028DC00E160EC9311C0A12FB0E0119729F4EFEF58
:1028EC00FFEF6FEF7FEF04C0E1E0F0E060E070E03D
:1028FC00ED83FE836F837887ED81FE816F81788510
:10290C00188163960895BA93AA9324971A930A93FD
:10291C00EE81FF81A885B9851496ED93FC93A8856B
:10292C00B98516960E94313FEA83FB836C837D83C5
:10293C00AA81BB818C819D81A130E0E0BE07E0E0E3
:10294C008E07E0E09E0779F0A885B9850E942D3F9F
:10295C007296DF010E94313FAA81BB818C819D81DF
:10296C000E94843F20F0E2E01981088161C5EA8170
:10297C00FB816C817D810E94713F39F4A885B985FA
:10298C000E942D3FA081A33009F00CC0A885B98509
:10299C000E942D3FB296DF010E94313FEA83FB83F8
:1029AC006C837D83EA81FB816C817D810E94713F08
:1029BC00F9F4A885B9851A960E943C3FA885B9857B
:1029CC000E942D3F3896DF010E942D3FAE81BF81C2
:1029DC00AE17BF0720F0E2E01981088129C5A88550
:1029EC00B9850E942D3FB296DF010E94313F67C02E
:1029FC00A885B9850E942D3FE281A0E1EA9F800164
:102A0C00AE81BF81A017B10708F445C0A885B98570
:102A1C000E942D3FFA93EA93AC81BD818E819F81F8
:102A2C00DBDAEA83FB836C837D83AA81BB818C8197
:102A3C009D81AF3FEFEFBE07EFEF8E07EFEF9E07E5
:102A4C0021F4E1E019810881F3C4AA81BB818C8156
:102A5C009D81A230E0E0BE07E0E08E07E0E09E073B
:102A6C0078F0A885B9850E942D3F7296DF010E94EF
:102A7C00313FAA81BB818C819D810E94843F20F0D3
:102A8C00E2E019810881D4C4EE81FF81E01BF10BD7
:102A9C00EE83FF83B5CFEA81FB816C817D81A885B4
:102AAC00B9851A960E943C3FA885B9850E942D3F96
:102ABC00FA93EA93AC81BD818E819F8150DADF015C
:102ACC00CB01EE81FF810E94363E662777270E945C
:102ADC00D03DA885B9851E960E943C3FA885B98536
:102AEC000E942D3FBE96DF01EE81FF81EF70F070EA
:102AFC00EE0F0E94243EEA0FFB1FA885B985529663
:102B0C00ED93FC93E0E01981088192C4BA93AA93E7
:102B1C0024971A930A93A885B98514960E942D3F81
:102B2C0031968F01002E012A41F0A885B9851E9699
:102B3C000E94313F0E94713F21F4E4E01981088129
:102B4C0077C4F801EF7009F04BC1A885B9851E96C2
:102B5C000E94373FEF5FFF4F6F4F7F4F0E94413F07
:102B6C00A885B9851A960E94313F0E94713F81F465
:102B7C00A885B9850E942D3F3896DF010E942D3F14
:102B8C000E171F0720F0E4E01981088151C428C1F9
:102B9C00F8010E94363E0F01A885B9850E942D3F91
:102BAC00E281F0E03197E021F121309709F018C172
:102BBC000E942D3FFA93EA93EA85FB85A285B385A3
:102BCC008485958509DAEA83FB836C837D83AA81EE
:102BDC00BB818C819D81A230E0E0BE07E0E08E07D6
:102BEC00E0E09E0720F4E2E01981088121C4AA816B
:102BFC00BB818C819D81AF3FEFEFBE07EFEF8E075E
:102C0C00EFEF9E0721F4E1E01981088111C4A8853A
:102C1C00B9850E942D3F7296DF010E94313FAA8137
:102C2C00BB818C819D810E94843F08F4C0C0219798
:102C3C00EF81F885309729F4E4E021961981088119
:102C4C00F7C3A985BA850E942D3FFA93EA93EB85C9
:102C5C00FC85A285B3858485958514DDEB83FC8387
:102C6C006D837E830E94713F29F4E7E021961981E0
:102C7C000881DEC3AB81BC818D819E81A130E0E0F7
:102C8C00BE07E0E08E07E0E09E0729F4E2E0219623
:102C9C0019810881CDC3AB81BC818D819E81AF3FF1
:102CAC00EFEFBE07EFEF8E07EFEF9E0729F4E1E0A1
:102CBC00219619810881BCC3A985BA850E942D3F34
:102CCC00DF010E94F60DE03029F0E1E02196198138
:102CDC000881AEC3A985BA850E942D3FBE96FA9392
:102CEC00EA93E0E0F0E0FA93EA93A0E0B2E00E940D
:102CFC009F0DA985BA850E942D3FDF01BA96FF93DF
:102D0C00EF93FD01FA93EA93AD81BE818F81988593
:102D1C0026D9AF91BF910E943C3FE0E0E883A985A2
:102D2C00BA850E942D3FE281A881AE1738F5A9859E
:102D3C00BA850E942D3F3496A1E0A083A985BA855F
:102D4C000E942D3FDF010E94F60DE03029F0E1E0FA
:102D5C002196198108816CC3A985BA850E942D3FE3
:102D6C00BA96DF010E94373FEF5FFF4F6F4F7F4FE7
:102D7C000E94413FE881EF5FE883D1CFA985BA85F6
:102D8C000E942D3FBA96FF93EF93DF010E94313FD3
:102D9C00DF01CB01E881F0E00E94593E0E94643FC4
:102DAC000E94DA3DAF91BF910E943C3F2196EA818F
:102DBC00FB816C817D81A885B9851A960E943C3F68
:102DCC00A885B9850E942D3FFA93EA93AC81BD8109
:102DDC008E819F81C4D8A885B9851E960E943C3FE0
:102DEC00F801A885B9851496ED93FC93A885B9854F
:102DFC000E942D3FBE96DF01F801EF70F070EE0FD0
:102E0C000E94243EEA0FFB1FA885B9855296ED93CC
:102E1C00FC93E0E0198108810BC3BA93AA930E943A
:102E2C008B3FEE81FF81FA93EA93A0E0B0E06BDD7B
:102E3C001E2F1030A9F520E030E0AE81BF810E943A
:102E4C002D3FFA93EA93E885F985A685B7858089A5
:102E5C0091890E94730E1E2F103011F5EE81FF81A7
:102E6C00A289B389AC91A53E29F0A289B389AC9112
:102E7C00A03051F4F90131969F01DF01EC81FD8105
:102E8C00EA17FB0769F002C020E030E0EE81FF8119
:102E9C00FA93EA93A1E0B0E039DE1E2F103069F20C
:102EAC00143009F417E075C3BA93AA932497EC81F4
:102EBC00FD81B38DA0E0E28DF0E0EA2BFB2B6627C1
:102ECC0077270E94503FAE81BF81AC91A33091F423
:102EDC00EC81FD81B589A0E0E489F0E0EA2BFB2BC5
:102EEC00662777270E944E3E0E944B3F0E94E93D89
:102EFC000E94503F0E94463F4FC30E945F3FE881B3
:102F0C00AC81BD815A96EC93E981AC81BD815B9615
:102F1C00EC930E94463F0E94493EAC81BD81549681
:102F2C00EC930E94463F0E94493E66277727EF2F7D
:102F3C00F0E0AC81BD815596EC93E7C3BA93AA93AC
:102F4C000E948B3FEC81FD81FA93EA93A0E0B0E004
:102F5C00DADC1E2F103019F00E94923FD6C3AC81E0
:102F6C00BD810E942D3FFA93EA93EE81FF81A685E5
:102F7C00B785808991890E94730E1E2F103049F5F8
:102F8C00AC81BD8152962D913C91D9010C910030B0
:102F9C0011F414E01EC0F901E385E87071F43A9362
:102FAC002A93EE81FF81A489B589BA93AA93ABE0E9
:102FBC00B0E00E94B60D309709F001C00AC0EC8158
:102FCC00FD81FA93EA93A0E0B0E0A0DD1E2F103053
:102FDC0031F2E12F0E94923F98C3BA93AA930E94B8
:102FEC00893F14E0A885B9851E960E94313F0E9446
:102FFC00713F09F441C0A885B9850E942D3FFA9311
:10300C00EA93EA85FB85A685B785808991890E941C
:10301C00730E1E2F103081F5A885B98552964D91EF
:10302C005C91DA013C91303011F414E025C0FA01C6
:10303C00E385EF730E2F353E91F0E0E0E03011F4B4
:10304C003E3269F00F3059F0A02FE8E00E94633E49
:10305C00F0E0DF01EE81FF81EA17FB0709F001C008
:10306C000BC0E885F985FA93EA93A0E0B0E04EDD59
:10307C001E2F103009F4B6CF103049F0A885B98551
:10308C001E96E0E0F0E060E070E00E943C3FE12F33
:10309C00CDC1BA93AA931A93E981FA81FA93EA9370
:1030AC00A1E0B0E0BADE1E2F1030B1F5A981BA81D3
:1030BC000E942D3FFA93EA93EB81FC81A685B7859C
:1030CC00808991890E94730E1E2F103029F5E98199
:1030DC00FA81A289B389BA93AA93E0E0F0E0FA935B
:1030EC00EA93A0E2B0E00E949F0DE981FA81A289E7
:1030FC00B389BA93AA93EB81FC81A489B589BA935D
:10310C00AA93ABE0B0E00E94800DA981BA810E9425
:10311C002D3F3496A1E0A0832DC0BA93AA931A93A5
:10312C00E981FA81FA93EA93EB81FC81A481B58160
:10313C00EADB1E2F1030F1F4A981BA810E942D3FD9
:10314C00FA93EA93EB81FC81A685B78580899189F6
:10315C000E94730E1E2F103069F4E981FA81A28946
:10316C00B389E5EEEC93A981BA810E942D3F349688
:10317C00A1E0A083E12F188123960895BA93AA9316
:10318C0028970E94893FAE85BF850E942D3FEE8314
:10319C00FF83AE81BF81AC91AF3229F0AE81BF818C
:1031AC00AC91AC3531F4EE81FF813196EE83FF8327
:1031BC00F0CFA889B98954964D915C915A934A9352
:1031CC00E0E2F0E0FA93EA93ABE0B0E00E949F0DEE
:1031DC00E0E01E2FF0E0E887F987EA87FB87E8E05C
:1031EC00F0E0EC87FD87EA85FB853196EA87FB8763
:1031FC003197AE81BF81AE0FBF1F0C91013220F011
:10320C000F3211F00C3509F44AC00E3239F0EC854E
:10321C00FD85A885B985AE17BF0798F0AC85BD852F
:10322C00189711F40E3211F0E6E069C0E8E0F0E016
:10323C00E887F987EBE0F0E0EC87FD87110F110FC1
:10324C002DC0003840F01360E02FF0E0E058F04063
:10325C00E059FC4F0491E0EBF5E0FA93EA93A02FD0
:10326C00BB270E94DB0D309711F0E6E048C001341B
:10327C0010F00B3508F002C0126007C0013610F0D8
:10328C000B3708F002C011600052E885F9853196C1
:10329C00E887F9873197E40FF51F0083A4CFEA85FF
:1032AC00FB85AE81BF81EA0FFB1FAE85BF85ED9319
:1032BC00FC93013210F4E4E001C0E0E00E2FE8854D
:1032CC00F985309711F4E6E01AC0DA01AC91A53E0D
:1032DC0019F4DA01E5E0EC93AC85BD85189711F48F
:1032EC00110F110FE12FE370E13009F40061E12FB0
:1032FC00EC70E43009F40860FA010387E0E00E9406
:10330C00903F62960895BA93AA930E94893FEE81EA
:10331C00FF8139969F01A885B9851E960E94313F81
:10332C000E94713F09F47FC02297AA85BB855296F3
:10333C000E942D3FE883F98300E010E00B30E0E0C1
:10334C001E0700F5F8010F5F1F4FA881B981AE0F62
:10335C00BF1F5C91503291F3553009F455EEE9E002
:10336C00F0E0E017F10729F4D9012F5F3F4FEEE2AF
:10337C00EC933F932F932F5F3F4FE52FAF91BF916E
:10338C00EC93DCCFE881F981E385A885B9851896A3
:10339C00EC93E881F981E78DF0E00E94593EDF0162
:1033AC00CB01E8E10E940C3EDF01CB01E881F98101
:1033BC00E68DF0E00E94593E0E944E3E0E94E93D8F
:1033CC00DF01CB01E881F981F58DE0E066277727F5
:1033DC000E94E93DDF01CB01E881F981E48DFF27F3
:1033EC00662777270E94E93DA885B9850E943C3F56
:1033FC00E881F981B18DA0E0E08DF0E0EA2BFB2BA8
:10340C00A885B9851496ED93FC93E881F981B78969
:10341C00A0E0E689F0E0EA2BFB2BA885B98516968F
:10342C00ED93FC932296D901E0E0EC930E94903F3F
:10343C002A960895BA93AA931A930A930FEF1FEF43
:10344C00AA81BB810E942D3F309701F10E942D3F34
:10345C00E081F0E0F0978F010930E0E01E0728F4DE
:10346C000E942D3FA181AA3309F00EC0AA81BB8115
:10347C00ED91FD913296FE93EE930130E0E01E0744
:10348C0014F00FEF1FEF02C000E010E0F8013EC691
:10349C00BA93AA930E948B3FAC81BD81AC91AF32A1
:1034AC0029F0AC81BD81AC91AC3529F4EC81FD8166
:1034BC003196EC83FD83AE81BF811696E0E0F0E09F
:1034CC0060E070E00E943C3FAC81BD81AC91BB27B9
:1034DC00909780F4EE81FF81FA93EA93A0E0B0E03C
:1034EC0012DA1E2FAE81BF815296E0E0F0E0ED9330
:1034FC00FC934FC0EE81FF81FA93EA93DE0116969E
:10350C003DDE1E2F103009F044C0AE81BF8116DDA8
:10351C001E2FAE81BF8154960E942D3F0385103023
:10352C00E9F01430D1F4E0E0E03011F005FD01C019
:10353C0012C0AE81BF811696E0E0F0E060E070E072
:10354C000E943C3FAE81BF815296ED93FC9302FFEB
:10355C001FC010E002C002FF15E01BC002FD19C025
:10356C00AE81BF8152962D913C91F901E385E071BA
:10357C0011F415E00EC0AE81BF810E942D3FFA936D
:10358C00EA93D90191DCAE81BF8116960E943C3F33
:10359C00B1CFE12F0E94923F289608950E945F3F81
:1035AC00AC81BD811496E0E0EC93AC81BD819A9620
:1035BC00EFEFFFEF6FEF7FEF0E943C3FEC81FD815F
:1035CC00FA93EA93AA81BB818C819D810E94730E30
:1035DC00E03011F0E3E099C0EC81FD81BE960F0163
:1035EC00E150FE4FF081E0E0DF01F001E250FE4FD0
:1035FC00E081F0E0EA2BFB2BE535AAEAFA0711F0A3
:10360C00E2E083C0EC81FD81E959FF4FA081BB272B
:10361C0088279927E8E10E940C3EDF01CB01EC8161
:10362C00FD81EA59FF4FE081FF27662777270E942B
:10363C004E3E0E94E93DDF01CB01EC81FD81EB594F
:10364C00FF4FF081E0E0662777270E94E93DDF011C
:10365C00CB01EC81FD81EC59FF4FE081FF27662700
:10366C0077270E94E93DEF7FFF7F6F7F7070E63414
:10367C00A1E4FA07A4E56A07A0E07A0711F4E0E0F8
:10368C0044C0EC81FD81BE96EB5AFF4FA081BB2755
:10369C0088279927E8E10E940C3EDF01CB01EC81E1
:1036AC00FD81BE96EC5AFF4FE081FF2766277727F6
:1036BC000E944E3E0E94E93DDF01CB01EC81FD8171
:1036CC00BE96ED5AFF4FF081E0E0662777270E9407
:1036DC00E93DDF01CB01EC81FD81BE96EE5AFF4F37
:1036EC00E081FF27662777270E94E93DEF7FFF7F68
:1036FC006F7F7070E634A1E4FA07A4E56A07A0E0D6
:10370C007A0711F4E0E001C0E1E026960895AA934F
:10371C006A970E94893FABA1BCA1E0E0F0E0ED9379
:10372C00FC93A9A1BAA186DE9F01332312F4EBE02E
:10373C00BFC4F901A6EEB6E0EE0FFF1FAE0FBF1F20
:10374C000E942D3FEE83FF83309711F4ECE0B0C460
:10375C00EE81FF81ABA1BCA1ED93FC93AE81BF8147
:10376C00EC91E030A1F0EE81FF81A1810E94ED0986
:10377C000E2F00FD0CC0E1E0E03029F0E8A1E030B4
:10378C0011F002FD01C002C0EAE092C490C4AE8107
:10379C00BF81E0E0EC93E22FAE81BF811196EC93F8
:1037AC00EE81FF81A1810E942F090E2F00FF02C024
:1037BC00E3E07EC4E1E0E03029F0E8A1E03011F074
:1037CC0002FD01C002C0EAE073C4E0E0EC8FED8FB3
:1037DC00EE8FEF8FEE81FF81FA93EA93AE8DBF8D62
:1037EC0088A199A1DBDE1E2F113031F0103019F4B5
:1037FC00E0E0E03009F49AC06297E0E0E88BE98BF6
:10380C00A889B989149708F05CC02297EA8DFB8DC2
:10381C00BE96E254FE4F7E2F8F2FAA89BB89E0E122
:10382C000E94903EE70FF81FE883F983EA89FB8931
:10383C00DE0112960E94283EEA0FFB1FFF93EF93C6
:10384C00E881F981E481F0E0309761F1E881F98158
:10385C00E385F0E00E94593EDF01CB01E8E10E94D4
:10386C000C3EDF01CB01E881F981E285F0E00E949A
:10387C00593E0E944E3E0E94E93DDF01CB01E8819A
:10388C00F981F185E0E0662777270E94E93DDF01A9
:10389C00CB01E881F981E085FF27662777270E9415
:1038AC00E93D04C0E0E0F0E060E070E0AF91BF9172
:1038BC000E943C3F2296E889F9893196E88BF98B76
:1038CC009FCFE0E0E88BE98BE889F989309719F014
:1038DC003197E88BF98BE889F989DE010E94283E43
:1038EC00AE0FBF1F0E94313FEEA7FFA768AB79ABAD
:1038FC000E94713F51F0E88DF98DFA93EA93A8A9D3
:10390C00B9A98AA99BA94ADE01C0E2E01E2FE1E019
:10391C00E03049F0103039F0A889B9891196A88B9C
:10392C00B98B149708F001C0D6CF6296133011F4FE
:10393C00E1E0BEC3103011F0EDE0BAC3EE81FF81BF
:10394C00B2ADA0E0E1ADF0E0EA2BFB2BE030A2E061
:10395C00FA0711F0EDE0ACC3EE81FF81EB5BFF4F9A
:10396C00F081E0E0DF01EE81FF81EC5BFF4FE08155
:10397C00F0E0EA2BFB2B66277727E88FF98F6A8F0D
:10398C007B8F0E94713FB9F5EE81FF81EB5AFF4F9F
:10399C00E081F0E00E94593EDF01CB01E8E10E949A
:1039AC000C3EDF01CB01EE81FF81EC5AFF4FE08131
:1039BC00F0E00E94593E0E944E3E0E94E93DDF011C
:1039CC00CB01EE81FF81ED5AFF4FF081E0E06627DD
:1039DC0077270E94E93DDF01CB01EE81FF81EE5A92
:1039EC00FF4FE081FF27662777270E94E93DE88F8C
:1039FC00F98F6A8F7B8FE88DF98D6A8D7B8DAE8107
:103A0C00BF8156960E943C3FEE81FF81E6ADAE81B0
:103A1C00BF811396EC93EE81FF81A381A13019F045
:103A2C00A381A23009F402C0EDE042C3EE81FF8114
:103A3C00E381F0E0A88DB98D8A8D9B8D0E94593E53
:103A4C000E94703EE88FF98F6A8F7B8FEE81FF8129
:103A5C00E3ADAE81BF811296EC93EE81FF81E281E2
:103A6C00E03059F0EE81FF81A281E281F0E03197E4
:103A7C00B0E0EA23FB23309711F0EDE019C3EE819F
:103A8C00FF81E05CFF4FF081E0E0DF01EE81FF8120
:103A9C00E7ADF0E0EA2BFB2BAE81BF811896ED93DE
:103AAC00FC93EE81FF81A085B185FD01EF7011F0D3
:103ABC00EDE0FEC2EE81FF81EE5BFF4FF081E0E0B6
:103ACC00DF01EE81FF81EF5BFF4FE081F0E0EA2B3D
:103ADC00FB2B66277727EC8BFD8B6E8B7F8B0E94E5
:103AEC00713FB9F5EE81FF81EF5AFF4FE081F0E0B5
:103AFC000E94593EDF01CB01E8E10E940C3EDF0140
:103B0C00CB01EE81FF81E05BFF4FE081F0E00E9492
:103B1C00593E0E944E3E0E94E93DDF01CB01EE81F1
:103B2C00FF81E15BFF4FF081E0E0662777270E9481
:103B3C00E93DDF01CB01EE81FF81E25BFF4FE081CC
:103B4C00FF27662777270E94E93DEC8BFD8B6E8B58
:103B5C007F8BEE81FF81B5ADA0E0E4ADF0E0EA2B08
:103B6C00FB2BAF01042E052A11F4EDE0A1C2E88D68
:103B7C00F98D6A8D7B8DDA01882799270E94D03DBB
:103B8C007F936F93FF93EF93EE81FF81A085B185B7
:103B9C00FD010E94363EAF91BF918F919F91662798
:103BAC0077270E94D03DE88BF98B6A8B7B8BAC8995
:103BBC00BD898E899F890E94843F10F4EDE078C204
:103BCC00A889B9898A899B89EC89FD896E897F8945
:103BDC000E94DA3DDF01CB01EE81FF81E281F0E052
:103BEC000E94593E0E94C63EEC87FD876E877F87F8
:103BFC000E94713F11F4EDE05BC211E0AC85BD8514
:103C0C008E859F85A63FEFE0BE07E0E08E07E0E0E3
:103C1C009E0708F012E0AC85BD858E859F85A63F7A
:103C2C00EFEFBE07E0E08E07E0E09E0708F013E040
:103C3C00EC85FD856E857F85EE5FFF4F6F4F7F4F67
:103C4C00AE81BF8152960E943C3FEC8DFD8D6E8DF6
:103C5C007F8DAE81BF815A960E943C3FFA01AC8D9C
:103C6C00BD8D8E8D9F8D662777270E94D03DAE81AE
:103C7C00BF815E960E943C3FE889F9896A897B89FD
:103C8C00AC8DBD8D8E8D9F8D0E94D03DAE81BF8140
:103C9C0096960E943C3F133009F04EC0AE81BF8116
:103CAC0018960E942D3F309711F0EDE001C2EE8185
:103CBC00FF81E35AFF4FE081F0E00E94593EDF01A3
:103CCC00CB01E8E10E940C3EDF01CB01EE81FF81CC
:103CDC00E45AFF4FE081F0E00E94593E0E944E3EB4
:103CEC000E94E93DDF01CB01EE81FF81E55AFF4FD8
:103CFC00F081E0E0662777270E94E93DDF01CB01E8
:103D0C00EE81FF81E65AFF4FE081FF276627772778
:103D1C000E94E93DAE81BF8192960E943C3FEE81AC
:103D2C00FF81A289B38984899589E4E0F0E060E0A1
:103D3C0070E00E94703E4FC0AE81BF8118960E9409
:103D4C002D3F309711F4EDE0B3C1EE81FF81A68DCC
:103D5C00B78D80A191A1E88DF98D6A8D7B8D0E9424
:103D6C00D03DAE81BF8192960E943C3FA12FB0E026
:103D7C00129769F4EE81FF81A289B38984899589B0
:103D8C00E2E0F0E060E070E00E94703E24C0EE8162
:103D9C00FF81A289B38984899589E3E0F0E060E032
:103DAC0070E00E94703E0E943F3E7F936F93FF93A2
:103DBC00EF93EE81FF81A289B38984899589E1E033
:103DCC00F0E060E070E00E94E43DAF91BF918F9114
:103DDC009F910E94D03DE887F9876A877B87EE81A7
:103DEC00FF81A689B789808D918D9F938F93BF9307
:103DFC00AF93A885B9858A859B85A150BE4F8F4FFF
:103E0C009F4FE0E0F2E060E070E00E94C63EAF91B0
:103E1C00BF918F919F910E94843F10F4EDE048C1B7
:103E2C00AE81BF811E96EFEFFFEF6FEF7FEF0E9429
:103E3C003C3FAE81BF811A960E943C3FAE81BF8150
:103E4C001596E0E8EC93133009F5EE81FF81E15A09
:103E5C00FF4FF081E0E0DF01EE81FF81E25AFF4F7E
:103E6C00E081F0E0EA2BFB2B319781F4EE81FF81AE
:103E7C00FA93EA93AE8DBF8D88A199A1AF5FBF4F26
:103E8C008F4F9F4F0E94730EE03009F001C1AE813D
:103E9C00BF811596E0E0EC93EE81FF81BE960F0199
:103EAC00E150FE4FF081E0E0DF01F001E250FE4F07
:103EBC00E081F0E0EA2BFB2BE535AAEAFA0709F0E2
:103ECC006EC0EE81FF81A1A9BB2788279927E8E165
:103EDC000E940C3EDF01CB01EE81FF81E0A9F0E0F6
:103EEC000E94593E0E944E3E0E94E93DDF01CB01EB
:103EFC00EE81FF81F7A5E0E0662777270E94E93D78
:103F0C00DF01CB01EE81FF81E6A5FF27662777272E
:103F1C000E94E93DE235A2E5FA07A1E66A07A1E4B1
:103F2C007A07E9F5EE81FF81BE96E951FE4FA0813B
:103F3C00BB2788279927E8E10E940C3EDF01CB01C3
:103F4C00EE81FF81BE96EA51FE4FE081F0E00E94C7
:103F5C00593E0E944E3E0E94E93DDF01CB01EE81AD
:103F6C00FF81BE96EB51FE4FF081E0E0662777278C
:103F7C000E94E93DDF01CB01EE81FF81BE96EC5141
:103F8C00FE4FE081FF27662777270E94E93DE23745
:103F9C00A2E7FA07A1E46A07A1E67A0709F078C05C
:103FAC00EE81FF81BE96E551FE4FE081F0E00E946C
:103FBC00593EDF01CB01E8E10E940C3EDF01CB0151
:103FCC00EE81FF81BE96E651FE4FE081F0E00E944B
:103FDC00593E0E944E3E0E94E93DDF01CB01EE812D
:103FEC00FF81BE96E751FE4FF081E0E06627772710
:103FFC000E94E93DDF01CB01EE81FF81BE96E851C5
:10400C00FE4FE081FF27662777270E94E93DAE81AE
:10401C00BF811E960E943C3FEE81FF81BE96E1510E
:10402C00FE4FE081F0E00E94593EDF01CB01E8E158
:10403C000E940C3EDF01CB01EE81FF81BE96E25166
:10404C00FE4FE081F0E00E94593E0E944E3E0E94DD
:10405C00E93DDF01CB01EE81FF81BE96E351FE4FBE
:10406C00F081E0E0662777270E94E93DDF01CB0174
:10407C00EE81FF81BE96E451FE4FE081FF2766275B
:10408C0077270E94E93DAE81BF811A960E943C3F82
:10409C00AE81BF811C93A8EEB6E0ED91FD913196F7
:1040AC00FE93EE93AE81BF811696ED93FC93E0E008
:1040BC000E94903FA5960895BA93AA931A930A93D7
:1040CC000A811B81002E012AA1F0D8010E942D3FEC
:1040DC00309779F00E942D3FE081E03051F00E9442
:1040EC002D3F0680178012960E942D3FE015F1059A
:1040FC0011F0E9E00BC0D8010E942D3FA1810E9474
:10410C00ED09E17011F0E3E001C0E0E019810881F4
:10411C0024960895AA930E94893FDE0117968AD9A6
:10412C009F01332312F4EBE036C0F901A6EEB6E0A2
:10413C00EE0FFF1FAE0FBF1F0D911C91002E012A19
:10414C0019F0D801E0E0EC93E985FA85309721F07D
:10415C00A985BA85E0E0EC93F901A6EEB6E0EE0F86
:10416C00FF1FEA0FFB1FA985BA85A083B183E985E0
:10417C00FA85309719F0AE81A13011F0E0E00BC058
:10418C00FE013996FA93EA93FE013996FA93EA9373
:10419C00A0E0BDDA5E2F0E94903F2B960895AA9363
:1041AC00A2970E948B3FE9A5FAA5309711F4E9E09C
:1041BC005BC1A9A5BAA5E0E0F0E0ED93FC93EEA1FC
:1041CC00EF71EEA3FE017096FA93EA93FE01B99695
:1041DC00FA93EA93EAA5EE7FAE2F99DA1E2F1030F0
:1041EC0009F041C1FE013496ECA3FDA3FE017096CB
:1041FC00FA93EA93A9A5BAA54BD91E2F2AA13BA1E4
:10420C00103021F4022E032A09F416E0EEA1EC7111
:10421C0009F49AC02897103069F0143029F4DE01A3
:10422C0058960E944F181E2FEEA5E860EEA72AA5FF
:10423C003BA50AC0F901E385E17111F017E004C058
:10424C00EEA5E47009F018E0103019F4EEA5E87052
:10425C0009F478C00E94492DEC83FD836E837F8323
:10426C00EC81D9011E96EC93ED81D9011F96EC934C
:10427C00EC81FD816E817F810E94493ED90150966F
:10428C00EC93AC81BD818E819F81E8E10E94183E48
:10429C00D9015196EC93F9013B96A0E0A083F9016A
:1042AC007C96A083F9017D96A083F9017E96A0836C
:1042BC00F9017F96A083E88DF98DFA93EA93D901E1
:1042CC000E945A170E94503F3A932A93A0E0B0E004
:1042DC0080E090E00E948317A88DB98D1496E1E0E0
:1042EC00EC930E94463F0E94713F61F1A88DB98DFD
:1042FC009A960E94313FEC83FD836E837F83E88D19
:10430C00F98DFA93EA93AA81BB818C819D810E94DD
:10431C00B1121E2F1030B1F40E94463FE150F04014
:10432C0060407040A88DB98D1A960E943C3FE88D74
:10433C00F98DFA93EA93AE81BF81888599850E94A5
:10434C00730E1E2F289611C0103079F4F901E385F5
:10435C00E07111F014E009C0EEA1E27021F0F90156
:10436C00E385E17009F401C017E01030B1F4EEA15F
:10437C00E87019F0EEA1E062EEA3A889B9899A96CB
:10438C000E94313FA9A5BAA55A960E943C3FF9015B
:10439C00A9A5BAA55E96ED93FC93103009F063C005
:1043AC00EEA1A9A5BAA51496EC93A9A5BAA5159644
:1043BC00E0E0EC93E889F989FA93EA93D9010E9439
:1043CC005A17A9A5BAA51E960E943C3FF901E78D84
:1043DC00F0E00E94593EDF01CB01E8E10E940C3E67
:1043EC00DF01CB01F901E68DF0E00E94593E0E94FD
:1043FC004E3E0E94E93DDF01CB01F901F58DE0E075
:10440C00662777270E94E93DDF01CB01F901E48D96
:10441C00FF27662777270E94E93DA9A5BAA51A961A
:10442C000E943C3FA9A5BAA51696E0E0F0E060E03A
:10443C0070E00E943C3FA9A5BAA556960E943C3F4D
:10444C00E889F989A9A5BAA5ED93FC93A9A5BAA504
:10445C000E942D3F3696DF010E942D3FA9A5BAA5DB
:10446C001296ED93FC93E12F0E94923FAB96089528
:10447C00BA93AA932E970E94893FE88DF98DEE830B
:10448C00FF83AC89BD89E0E0F0E0ED93FC93AA8D4D
:10449C00BB8D12DE1E2F103009F0CCC1EA8DFB8DC6
:1044AC00E581E03021F0EA8DFB8DE581C3C1EA8D19
:1044BC00FB8DA481A17011F4E7E0BCC1EA8DFB8DEA
:1044CC00A285B385848595859F938F93BF93AF9376
:1044DC00A681B78180859185EF91FF916F917F9136
:1044EC000E94DA3DE887F9876A877B87AE89BF89A6
:1044FC00882799270E947F3F20F4E885F985EE8B69
:10450C00FF8BEE89FF89309709F493C1EA8DFB8DFF
:10451C00A681B78180859185FD01BC01F170309732
:10452C0009F023C1EA8DFB8DA681B7818085918529
:10453C00E0E0F2E060E070E00E94C63E0E2EAA8D34
:10454C00BB8D0E942D3FE281F0E03197E0210E2FD0
:10455C00003009F04BC016960E94313F0E94713F0B
:10456C0031F4AA8DBB8D1E960E94313F0EC0AA8DD0
:10457C00BB8D0E942D3FFA93EA93EC8DFD8DA289A1
:10458C00B389848995890E94F20FE88BF98B6A8B29
:10459C007B8BA889B9898A899B89A230E0E0BE0708
:1045AC00E0E08E07E0E09E0730F4AA8DBB8D1596F7
:1045BC00E2E0EC933FC1A889B9898A899B89AF3F16
:1045CC00EFEFBE07EFEF8E07EFEF9E0731F4AA8DEA
:1045DC00BB8D1596E1E0EC932DC1E889F9896A89C8
:1045EC007B89AA8DBB8D52960E943C3FAA8DBB8DB8
:1045FC000E942D3FFA93EA93EC8DFD8DA289B3892D
:10460C00848995890E94B50FEC87FD876E877F871B
:10461C000E94713F31F4AA8DBB8D1596E2E0EC93AC
:10462C0009C1E02FF0E0AC85BD858E859F850E9489
:10463C00593E0E94D03DEC87FD876E877F87AE89FF
:10464C00BF89E0E0F2E00E94AE3EAF01042E052AE5
:10465C0009F482C0E02FF0E0E40FF51F0F01AA8DE2
:10466C00BB8D0E942D3FE281D001F0E0EA17FB07E1
:10467C0060F4AA8DBB8D0E942D3FE281F0E0DF013A
:10468C00E02FF0E0AE1BBF0BAD01AA8DBB8D0E94DD
:10469C002D3FE181EA93EF81F885FA93EA93EF8558
:1046AC00F88969897A890E945A3FDA010E94F709D0
:1046BC00E03031F0AA8DBB8D1596E1E0EC93BAC0D9
:1046CC00AA8DBB8D0E942D3FDF01E481E03099F073
:1046DC00FD01BA96DF010E94313FAC85BD858E8508
:1046EC009F850E94DA3DDF01CB01FA01662777270F
:1046FC000E94843F08F029C0AA8DBB8D0E942D3FDB
:10470C00BA96DF010E94313FDF01CB01EC85FD85BC
:10471C006E857F850E94DF3DE0E0F2E060E070E0B6
:10472C000E94703EAE81BF8188279927EA0FFB1F3C
:10473C00FA93EA93AC8DBD8D0E942D3FBE96FA93F1
:10474C00EA93A0E0B2E00E94800DFA01EE0FFF1F89
:10475C00FE2FE0E09F0146C0EC85FD856E857F85D0
:10476C00AA8DBB8D56960E943C3FEA8DFB8DA6818F
:10477C00B781FD01F170A0E0B2E0AE1BBF0B9D0153
:10478C00EE89FF89E217F30710F42E893F89AA8D71
:10479C00BB8D0E942D3FFA93EA93EC8DFD8DA6897B
:1047AC00B789808D918D0E94730EE03031F0AA8D07
:1047BC00BB8D1596E1E0EC933DC0EE81FF81FA9341
:1047CC00EA93AC8DBD8D0E942D3FBE960F011696BF
:1047DC000E942D3FF170E00DF11DFA93EA93D9017F
:1047EC000E94800DF901AE81BF81EA0FFB1FEE83A1
:1047FC00FF83EA8DFB8D36960F01DF010E94313F5E
:10480C00DF01CB01F901662777270E94D03DD0014B
:10481C000E943C3FAC89BD89ED91FD91E20FF31FE5
:10482C00FE93EE93EE89FF89E21BF30BEE8BFF8B6D
:10483C0068CEE0E00E94903F6C960895BA93AA93DC
:10484C002A970E94893FEC89FD89EE83FF83A88912
:10485C00B989E0E0F0E0ED93FC93AE89BF892CDCE4
:10486C001E2F103009F066C2EE89FF89E581E03019
:10487C0021F0EE89FF89E5815DC2EE89FF89A48173
:10488C00A27011F4E7E056C2EE89FF89A681B781C8
:10489C0080859185EA89FB89662777270E94D03D20
:1048AC007F936F93FF93EF93AE89BF8916960E9407
:1048BC00313FAF91BF918F919F910E94843F18F42B
:1048CC00E0E0EA8BEB8BEA89FB89309709F411C2A3
:1048DC00EE89FF89A681B78180859185FD01BC0198
:1048EC00F170309709F09AC1EE89FF89A681B781E2
:1048FC0080859185E0E0F2E060E070E00E94C63EC9
:10490C000E2EAE89BF890E942D3FE281F0E03197D7
:10491C00E0210E2F003009F06FC016960E94313F37
:10492C000E94713F11F5AE89BF891E960E94313FDE
:10493C00EC87FD876E877F870E94713FA9F4AE8953
:10494C00BF890E942D3FFA93EA93A0E0B0E080E08B
:10495C0090E00E944813EC87FD876E877F87AE89B5
:10496C00BF891E960E943C3F12C0AE89BF890E942F
:10497C002D3FFA93EA93E88DF98DA289B389848946
:10498C0095890E944813EC87FD876E877F87EC859D
:10499C00FD856E857F850E94713F09F4AAC1AC85A7
:1049AC00BD858E859F85A130E0E0BE07E0E08E07D7
:1049BC00E0E09E0731F4AE89BF891596E2E0EC93F6
:1049CC00B9C1AC85BD858E859F85AF3FEFEFBE0726
:1049DC00EFEF8E07EFEF9E0731F4AE89BF89159686
:1049EC00E1E0EC93A7C1EC85FD856E857F85AE89F2
:1049FC00BF8952960E943C3FAE89BF890E942D3FD1
:104A0C00BA96DF010E94313F7F936F93FF93EF9330
:104A1C00AE89BF8956960E94313FAF91BF918F915D
:104A2C009F910E947F3F49F4AE89BF890E942D3F20
:104A3C00DF010E94F60DE03009F406C0AE89BF8993
:104A4C001596E1E0EC9376C1AE89BF890E942D3FAB
:104A5C00FA93EA93E88DF98DA289B38984899589B3
:104A6C000E94B50FE887F9876A877B870E94713FA0
:104A7C0031F4AE89BF891596E2E0EC935BC1E02F6F
:104A8C00F0E0A885B9858A859B850E94593E0E94D5
:104A9C00D03DE887F9876A877B87AA89BB89E0E0E4
:104AAC00F2E00E94AE3EAF01042E052A09F483C049
:104ABC00E02FF0E0E40FF51F0F01AE89BF890E94D3
:104ACC002D3FE281D001F0E0EA17FB0760F4AE89DC
:104ADC00BF890E942D3FE281F0E0DF01E02FF0E082
:104AEC00AE1BBF0BAD01AE89BF890E942D3FE1818A
:104AFC00EA93EF81F885FA93EA93EB85FC856D8553
:104B0C007E850E945A3FDA010E94580AE03031F04B
:104B1C00AE89BF891596E1E0EC930CC1AE89BF89D3
:104B2C000E942D3FBA96DF010E94313FA885B985BE
:104B3C008A859B850E94DA3DDF01CB01FA0166274D
:104B4C0077270E94843F80F5AE89BF890E942D3F54
:104B5C00BE96FA93EA93A88DB98D0E942D3FBA9612
:104B6C00DF010E94313FDF01CB01EA85FB856C85BB
:104B7C007D850E94DF3DE0E0F2E060E070E00E94A5
:104B8C00703EA885B98588279927EA0FFB1FFA93F1
:104B9C00EA93A0E0B2E00E94800DAE89BF890E942A
:104BAC002D3F3496A0E0A083FA01EE0FFF1FFE2FDD
:104BBC00E0E09F0177C0EE89FF89A681B7818085EF
:104BCC0091850D01AE89BF891A960E94313FD001A3
:104BDC000E94843FD0F0AE89BF890E942D3FDF0137
:104BEC000E94F60DE03031F0AE89BF891596E1E0F8
:104BFC00EC93A0C0AE89BF890E942D3FBA96A885C0
:104C0C00B9858A859B850E94553FE885F9856A851B
:104C1C007B85AE89BF8956960E943C3FEE89FF8901
:104C2C00A681B781FD01F170A0E0B2E0AE1BBF0B15
:104C3C009D01EA89FB89E217F30710F42A893B8965
:104C4C00AE89BF890E942D3FFA93EA93E88DF98DC6
:104C5C00A689B789808D918D0E94730EE03031F05A
:104C6C00AE89BF891596E1E0EC9364C0AE89BF892B
:104C7C000E942D3FBE960F0116960E942D3FF1709B
:104C8C00E00DF11DFA93EA93E885F985FA93EA931E
:104C9C00D9010E94800DAE89BF890E942D3F3496A8
:104CAC00A1E0A083F901AE81BF81EA0FFB1FEE8367
:104CBC00FF83EE89FF8936960F01DF010E94313F99
:104CCC00DF01CB01F901662777270E94D03DD00187
:104CDC000E943C3FA889B989ED91FD91E20FF31F29
:104CEC00FE93EE93EA89FB89E21BF30BEA8BFB8BB9
:104CFC00EACDEE89FF89A681B781808591850D016A
:104D0C00AE89BF891A960E94313FD0010E947F3F25
:104D1C0050F4AE89BF8916960E94313FAE89BF8987
:104D2C001A960E943C3FAE89BF891496EC91E062C2
:104D3C00EC93E0E00E94903F68960895BA93AA9392
:104D4C0024970E948B3FA885B985B6D91E2F1030A9
:104D5C0009F091C0E885F985A481A07209F48BC093
:104D6C00A885B9850E942D3FFA93EA93EA85FB85C5
:104D7C00A28DB38D848D958D0E94730E1E2F1030D5
:104D8C0009F079C0A885B9855E962D913C91D90121
:104D9C001B96EC91E062EC93E885F985E285D901EC
:104DAC005C96EC93E885F985A285B385FD01EF2F20
:104DBC00F0E0D9015D96EC93E885F985A285B38581
:104DCC0084859585FD01BC010E94493ED9015E9602
:104DDC00EC93E885F985A285B38584859585E8E112
:104DEC000E94183ED9015F96EC933A932A93EA8578
:104DFC00FB85A685B785808991890E94831743D648
:104E0C00EC83FD836E837F83EC81D9015696EC9302
:104E1C00ED81D9015796EC93EC81FD816E817F81F8
:104E2C000E94493ED9015896EC93AC81BD818E818C
:104E3C009F81E8E10E94183ED9015996EC93F90143
:104E4C007296A0E0A083F9017396A083A885B9851A
:104E5C001496EC91EF7DEC93A885B9850E942D3FBB
:104E6C003496A1E0A083A885B9850E942D3FDF016F
:104E7C000E94A50E1E2FE12F0E94923F2A960895A4
:104E8C00BA93AA931A93A981BA8158DF1E2F1030B6
:104E9C0031F4A981BA81E0E0F0E0ED93FC93E12FCD
:104EAC001881239608950E945F3F1A93AD81BE81AD
:104EBC0003D91E2F103011F018818CC5ED81FE81A5
:104ECC00E581E03029F0ED81FE81E581188182C514
:104EDC006097AD89BE891A960E94313FA989BA891B
:104EEC008B899C890E947F3F28F4ED89FE89A481DF
:104EFC00A27009F009C0AD89BE891A960E94313F93
:104F0C00E98BFA8B6B8B7C8BAD89BE8916960E94D4
:104F1C00313F0E94503FE0E0F0E060E070E0EC8355
:104F2C00FD836E837F83AD89BE8916960E943C3FBC
:104F3C00E989FA896B897C890E94713F09F4B5C1B2
:104F4C00AD89BE890E942D3FE281F0E00E94593E5E
:104F5C00A0E0B2E080E090E00E94703EE887F98724
:104F6C006A877B870E944B3F0E94793F48F5E9890D
:104F7C00FA896B897C89E150F04060407040DF0118
:104F8C00CB01E885F9856A857B850E94C63E7F93B7
:104F9C006F93FF93EF930E94463FE150F0406040C7
:104FAC007040DF01CB01E885F9856A857B850E941D
:104FBC00C63EAF91BF918F919F910E94843F08F4A0
:104FCC0032C00E94463FE150F04060407040DF012B
:104FDC00CB01E885F9856A857B85E150F04060401E
:104FEC0070400E945E3E0E94E43DAD89BE891696DB
:104FFC000E943C3FAD89BE8916960E94313FA9891B
:10500C00BA898B899C890E94DF3DA98BBA8B8B8BCB
:10501C009C8BAD89BE8952960E94313FEC87FD87EF
:10502C006E877F8757C0AD89BE891E960E94313F1F
:10503C00EC87FD876E877F870E94713F09F041C026
:10504C00AD89BE890E942D3FFA93EA93A0E0B0E0AF
:10505C0080E090E00E944813EC87FD876E877F8785
:10506C00AC85BD858E859F85A130E0E0BE07E0E074
:10507C008E07E0E09E0741F4AD89BE891596E2E00B
:10508C00EC9360961881A6C4AC85BD858E859F85F2
:10509C00AF3FEFEFBE07EFEF8E07EFEF9E0741F448
:1050AC00AD89BE891596E1E0EC936096188192C4A7
:1050BC00EC85FD856E857F85AD89BE891E960E9427
:1050CC003C3FEC85FD856E857F85AD89BE8952960A
:1050DC000E943C3FEC85FD856E857F850E94713F6B
:1050EC0009F4E3C0E885F9856A857B85A989BA89C5
:1050FC008B899C890E947F3F08F091C0ED89FE89C5
:10510C00A481A270E9F0AD89BE890E942D3FFA936B
:10511C00EA93AE85BF85888999890E944813EC87EC
:10512C00FD876E877F870E94713F49F4E885F9857A
:10513C006A857B85E98BFA8B6B8B7C8B70C010C07E
:10514C00AD89BE890E942D3FFA93EA93AE85BF8547
:10515C00888999890E94F20FEC87FD876E877F877B
:10516C00AC85BD858E859F85AF3FEFEFBE07EFEF1A
:10517C008E07EFEF9E0741F4AD89BE891596E1E0ED
:10518C00EC936096188126C4AC85BD858E859F8571
:10519C00A230E0E0BE07E0E08E07E0E09E0778F08A
:1051AC00AD89BE890E942D3F7296DF010E94313F6E
:1051BC00AC85BD858E859F850E94843F40F0AD896E
:1051CC00BE891596E2E0EC936096188103C4EC85D9
:1051DC00FD856E857F85AD89BE8952960E943C3FC8
:1051EC00ED89FE8936960F01DF010E94313FA885BB
:1051FC00B9858A859B850E94D03DD0010E943C3F99
:10520C00A885B9858A859B85E989FA896B897C890A
:10521C000E94DA3DE98BFA8B6B8B7C8B63CFED892B
:10522C00FE8936960F01DF010E94313FA989BA89A8
:10523C008B899C890E94D03DD0010E943C3FE9891A
:10524C00FA896B897C89F170309779F1AD89BE89C7
:10525C000E942D3FFA93EA93AE85BF858889998980
:10526C000E94B50FEC83FD836E837F830E94713F98
:10527C0041F4AD89BE891596E2E0EC9360961881F5
:10528C00A9C3A989BA898B899C89E0E0F2E060E026
:10529C0070E00E94C63EAC81BD818E819F810E94D0
:1052AC00D03DEC83FD836E837F83ED89FE89A681DF
:1052BC00B78180859185FD01BC01F170309761F05B
:1052CC00AD89BE8956960E94313FAC81BD818E81DD
:1052DC009F810E947F3F09F409C0EC81FD816E81A2
:1052EC007F81AD89BE8956960E943C3FED89FE892F
:1052FC00A681B781808591850D01AD89BE891A96ED
:10530C000E94313FD0010E947F3F80F4AD89BE895D
:10531C0016960E94313FAD89BE891A960E943C3F79
:10532C00AD89BE891496EC91E062EC936096E12F06
:10533C00188150C3BA93AA932C970E948B3FEA8989
:10534C00FB89309711F4E9E068C0EDB7FEB73197EF
:10535C00FA93EA933F932F93FE017296FA93EA9392
:10536C00A0E00E948D1B2F913F911E2F103009F051
:10537C004BC0AA89BB892D933C93FE013496AA8914
:10538C00BB895496ED93FC93EA89FB89FA93EA93D3
:10539C00AA89BB890E944E1A1E2F103091F5AA893A
:1053AC00BB8952960E942D3F3097B9F0AA89BB89D0
:1053BC0052960E942D3FE385E07171F03A932A9347
:1053CC00EC89FD89A289B3890E945A17AA89BB89E5
:1053DC0016960E943C3F01C015E0103091F4D901A3
:1053EC0016960E942D3FAA89BB891296ED93FC93C9
:1053FC00EA89FB89FA93EA93A0E0B0E00E94891451
:10540C001E2F143009F415E0103031F0AA89BB8935
:10541C00E0E0F0E0ED93FC93E12F0E94923F649664
:10542C000895BA93AA932C971A93AF85B8890E94C2
:10543C0062201E2F103009F049C0ED85FE85309793
:10544C0051F4EF85F889FA93EA93A0E0B0E00E945A
:10545C0089141E2F3BC0FE013196AF85B889549636
:10546C00ED93FC93EF85F889FA93EA93A0E0B0E012
:10547C000E94F3171E2F143051F4AF85B8891E9675
:10548C00E0E0F0E060E070E00E943C3F10E01030A3
:10549C00E9F4EF85F889FA93EA93AF85B8890E940D
:1054AC008919EF85F889FA93EA93A0E0B0E00E949D
:1054BC008C151E2F143051F4AF85B8891E96E0E080
:1054CC00F0E060E070E00E943C3F10E0E12F1881BA
:1054DC0061960895BA93AA93EC970E948B3FFE01B4
:1054EC00BA96FA93EA93FE01EE5BFF4FFA93EA93B6
:1054FC00A1E00E948D1B1E2F103009F09CC0FE01F4
:10550C003496EEAFFFAFFE01BA96FA93EA93DE0142
:10551C00AE5BBF4F0D90BC91A02D0E944E1A1E2F5A
:10552C00E0E0E03039F0103029F4EEADFFADE3856A
:10553C00E07209F401C016E0103009F07CC02CAD0B
:10554C003DAD022E032A11F416E005C0F901E385E6
:10555C00E17009F017E0EAA5FBA5FA93EA93D901EB
:10556C000E945A17E88BF98B6A8B7B8B103021F4D5
:10557C00F901E385E07109F43CC0A889B9898A89ED
:10558C009B89A230E0E0BE07E0E08E07E0E09E07DA
:10559C0010F412E02EC0FE017496FA93EA93FE0109
:1055AC00BC96FA93EA93A6E1B0E00E94800DE889DC
:1055BC00F9896A897B89EA8FFB8F6C8F7D8FFE015D
:1055CC007496FA93EA93A2E0B0E00E9489141E2F1D
:1055DC00103079F4FE017496FA93EA93A0E0B0E0EF
:1055EC000E94F3171E2F103009F417E0143009F441
:1055FC0010E0103001F5DE019A960E9493181E2FD0
:10560C001030C9F4E889F9896A897B890E94713F55
:10561C0059F0EAA5FBA5FA93EA93AA89BB898C8970
:10562C009D890E94B1121E2F103029F4AAA5BBA58A
:10563C000E94A50E1E2FE12F0E94923FEF962396FB
:10564C000895BA93AA93E2970E948B3F1CD2E88BE1
:10565C00F98B6A8B7B8BFE01B096FA93EA93FE0171
:10566C00F896FA93EA93A1E00E948D1B1E2F10303E
:10567C0009F057C1FE013496ECABFDABFE01B096C0
:10568C00FA93EA93A8ADB9AD0E944E1A1E2F1030B2
:10569C0009F418E0E0E0E03039F0143029F4ECA91A
:1056AC00FDA9E385E07209F401C016E0143009F09D
:1056BC0038C1E8A1F9A1FA93EA93A0E0B0E080E048
:1056CC0090E00E944813E88FF98F6A8F7B8F10E06F
:1056DC000E94713F09F417E0A88DB98D8A8D9B8DBE
:1056EC00A130E0E0BE07E0E08E07E0E09E0709F4A1
:1056FC0012E0A88DB98D8A8D9B8DAF3FEFEFBE0761
:10570C00EFEF8E07EFEF9E0709F411E0103029F44C
:10571C00A8A1B9A10E94F60D1E2F103009F0BAC035
:10572C00E8A1F9A1FA93EA93AA8DBB8D8C8D9D8D7E
:10573C000E94B50FEC8FFD8F6E8F7F8FE8A1F9A1C2
:10574C00BE969F013A932A93E0E0F0E0FA93EA9335
:10575C00A0E0B2E00E949F0DF9013096FA93EA9313
:10576C00E0E2F0E0FA93EA93ABE0B0E00E949F0D28
:10577C00D901EEE2EC93F9013B96A0E1A083E88914
:10578C00D9015696EC93E989D9015796EC93E8899F
:10579C00F9896A897B890E94493ED9015896EC9314
:1057AC00A889B9898A899B89E8E10E94183ED901A8
:1057BC005996EC933A932A93AA8DBB8D8C8D9D8D23
:1057CC000E948317F901B096FA93EA933A932A93BD
:1057DC00A0E2B0E00E94800DF901B196AEE2A08388
:1057EC00EEA1FFA168A579A5EC8BFD8B6E8B7F8B51
:1057FC00A8A1B9A1AC91A33061F4A8A1B9A19296CA
:10580C000E94313FAC89BD898E899F890E947F3F60
:10581C0009F005C0E0E0EC8BED8BEE8BEF8BF90122
:10582C00B096FA93EA93AE89BF89888D998D0E94C0
:10583C008317E8A1F9A10281003061F1EC8DFD8D97
:10584C006E8D7F8DEF5FFF4F6F4F7F4FEC8FFD8F16
:10585C006E8F7F8F319760407040A8A1B9A19A9646
:10586C000E943C3FA8A1B9A11496E1E0EC93A8A139
:10587C00B9A10E94F60D1E2F103061F43A932A93B1
:10588C00E0E0F0E0FA93EA93A0E0B2E00E949F0D12
:10589C000150D2CF103029F4DE0190960E944F189F
:1058AC001E2F103059F0E8A1F9A1FA93EA93AA8DB2
:1058BC00BB8D8C8D9D8D0E94B11233C02AA93BA942
:1058CC00F9013B96A0E1A083E889D9015696EC93A7
:1058DC00E989D9015796EC93E889F9896A897B891A
:1058EC000E94493ED9015896EC93A889B9898A89B6
:1058FC009B89E8E10E94183ED9015996EC933A93A2
:10590C002A93AA8DBB8D8C8D9D8D0E948317A8A187
:10591C00B9A11496E1E0EC93A8A1B9A10E94A50E3F
:10592C001E2FE12F0E94923FE8960895AA930E94A1
:10593C008B3FE1E0E03019F0AC81AA3009F006C0F1
:10594C00ED81FE81FA93EA93ADE0F0DFAD81BE818B
:10595C0012962D913C913323DAF1AD81BE811696CE
:10596C00F9012F5F3F4FEA0FFB1FAC81A0832D3352
:10597C00E0E03E07FCF0AD81BE810E942D3FFA9322
:10598C00EA93EF81F8853696FA93EA933A932A9341
:10599C00ADB7BEB711971F930F930E9424240F919C
:1059AC001F912017310719F4E0E0F0E002C0EFEF8F
:1059BC00FFEF9F01F901AD81BE811296ED93FC932F
:1059CC00AD81BE811496ED91FD913196FE93EE93CF
:1059DC000E94923F27960895BA93AA93EF97279720
:1059EC001A930A93FE01E85BFF4F0190F081E02DC2
:1059FC00EA83FB83E0E0F0E0EC83FD83EE83FF833E
:105A0C00DE01A65BBF4F0D90BC91A02DEC91E03058
:105A1C0081F0FE013296FA93EA93DE01A45BBF4F4C
:105A2C00ED91FD913196FE93EE933197A0817EDF3F
:105A3C00E7CFAD81AA23E2F0EA81FB81FA93EA93E6
:105A4C00FE013A96FA93EA93E885F985FA93EA937C
:105A5C00ADB7BEB711971F930F930E9424240F91DB
:105A6C001F91E03029F4AC81BD810A171B0709F0A6
:105A7C0003C0EE81FF8102C0EFEFFFEF19810881B7
:105A8C00EF962D960895E3E4FBE067E47DE308953B
:105A9C000E948B3F00E010E04098409A429A00E050
:105AAC0010E00730E0E01E0750F4E0E04F99E1E031
:105ABC003E2B330F4298429A0F5F1F4FF2CFE0E01C
:105ACC004F99E1E03E2BE32F0E94923F24960895DC
