:040000000C94C80292
:100004000C9400000C9400000C9400000C9400006C
:100014000C9400000C9400000C9400000C9400005C
:100024000C9400000C9400000C9400000C9400004C
:100034000C9400000C9473030C9400000C940000C6
:100044000C9400000C9400000C9400000C9400002C
:100054000C9400000C9400000C9400000C9400001C
:100064000C9400000C9400000C9400000C9400000C
:100074000C9400000C9400000C9400000C940000FC
:100084000C9400000C9400000C9400000C940000EC
:100094000C9400000C9400000C9400000C940000DC
:1000A4000C9400000C9400000C9400000C940000CC
:1000B4000C9400000C9400000C9400000C940000BC
:1000C4000C9400000C9400000C9400000C940000AC
:1000D4000C9400000C9400000C9400000C9400009C
:1000E4000C9400000C9400000C9400000C9400008C
:1000F4000C9400000C9400000C9400000C9400007C
:100104000C9400000C9400000C9400000C9400006B
:100114000C9400000C9400000C9400000C9400005B
:100124000C9400000C9400000C9400000C9400004B
:100134000C9400000C9400000C9400000C9400003B
:100144000C9400000C9400000C9400000C9400002B
:100154000C9400000C9400000C9400000C9400001B
:100164000C9400000C9400000C9400000C9400000B
:100174000C9400000C9400000C9400000C940000FB
:100184000C9400000C9400000C9400000C940000EB
:100194000C9400000C9400000C9400000C940000DB
:1001A4000C9400000C9400000C9400000C940000CB
:1001B4000C9400000C9400000C9400000C940000BB
:1001C4000C9400000C9400000C9400000C940000AB
:1001D4000C9400000C9400000C9400000C9400009B
:1001E4000C9400000C9400000C9400000C9400008B
:1001F4000C9400000C9400008E028F029B02A60255
:10020400B302BE02C902D902E302EC02FE021103E8
:10021400220331034203520320222A2B2C5B3D5D2F
:100224007C7F0000000400020001800040002000E8
:1002340010000800040002000000008000400020BC
:100244000010000800400020001000080004000214
:10025400303A2F66696C652E7478740049206C6995
:100264006B6520436F6465566973696F6E415652BE
:10027400212048657265277320736F6D65206D6F4B
:10028400726520746578742E2E2E0046525F4449A0
:10029400534B5F4552520046525F494E545F45529C
:1002A400520046525F4E4F545F52454144590046F6
:1002B400525F4E4F5F46494C450046525F4E4F5F7A
:1002C400504154480046525F494E56414C49445FA0
:1002D4004E414D450046525F44454E494544004613
:1002E400525F45584953540046525F494E56414C5B
:1002F40049445F4F424A4543540046525F5752496E
:1003040054455F50524F5445435445440046525F50
:10031400494E56414C49445F445249564500465261
:100324005F4E4F545F454E41424C45440046525F38
:100334004E4F5F46494C4553595354454D00465220
:100344005F4D4B46535F41424F5254454400465221
:100354005F54494D454F5554004552524F523A202F
:1003640025700D0A0046696C653A2025732C2041DE
:100374007474726962757465733A20256325632504
:1003840063256325630D0A446174653A2025303280
:10039400752F253032752F25752C2054696D653ADB
:1003A40020253032753A253032753A253032750DB4
:1003B4000A53697A653A20256C75206279746573ED
:1003C4000D0A0046696C65202573206F70656E65A3
:1003D40064204F4B0D0A00257520627974657320E3
:1003E400726561640D0A00526561642074657874F5
:1003F4003A20222573220D0A0046696C6520257374
:1004040020636C6F736564204F4B0D0A004C6F675B
:100414006963616C20647269766520303A206D6F7F
:10042400756E746564204F4B0D0A0046696C652037
:1004340025732063726561746564204F4B0D0A0057
:10044400577269746520746578743120746F2074F0
:1004540068652066696C650D0A00257520627974EB
:100464006573207772697474656E206F66202575D4
:100474000D0A005365656B20746F207468652065F0
:100484006E64206F66207468652066696C65204F11
:100494004B0D0A00417070656E6420746578743287
:1004A40020746F207468652066696C650D0A0025E8
:1004B4007520627974657320617070656E6465641B
:1004C400206F662025750D0A00526561642D4F6EFC
:1004D4006C792061747472696275746520736574D3
:1004E400204F4B0D0A004E65772074696D652073AB
:1004F40074616D7020253032752F253032752F25AB
:100504007520253032753A253032753A25303275EA
:1005140020736574204F4B0D0A00526561642D4FA2
:100524006E6C792061747472696275746520636C91
:100534006561726564204F4B0D0A00000100EBFEFB
:10054400904D53444F53352E30004E4F204E414D65
:1005540045202020204641543332202020004E4F95
:10056400204E414D4520202020464154202020206B
:1005740020000B006C285402160078286002180032
:100584008F2876020100A82940050000F894EE2780
:10059400E8BFE9BFEABFF091CC01F860F093CC0169
:1005A400F8EDF4BFE093A200A0918000AD7FA160BC
:1005B400F4BFA093800080E090E4A0E0B0E2ED936B
:1005C4000197E9F7E6E7F5E085919591009761F0E9
:1005D400A591B59105901590BF01F00105900D927C
:1005E4000197E1F7FB01F0CF8BBF8CBFE0E0E0B9EE
:1005F400E1B9E2B9E3B93E2E4E2E5E2EEFEFEDBF28
:10060400EFE5EEBFC0E0D4E20C94A0041A93E091AD
:100614005000E460E0935000E0915100E470E1F395
:10062400E0915000E260E0935000E0914100E078F6
:10063400E2601E2FE8EDE4BF10934100E091560004
:10064400E87FE0935600E0916000E160E093600091
:10065400E0915100E270E1F3E0914000E87FE16055
:100664001E2FE8EDE4BF10934000E0915000E67EB9
:10067400E0935000E091B400EC7FE093B400CEC26C
:10068400E0910008E07FE260E0930008E091010857
:10069400E870E0930108E0910308E071E093030837
:1006A400E0910608E07FE160E0930608E091070826
:1006B400E070E0930708E0919008EE7FE0939008E3
:1006C400E0910C08E0930C08E0E0F0E0E0932008EF
:1006D400F0932108EFE3FCE9E0932608F093270860
:1006E40008950A921A92FA926A937A938A939A9341
:1006F400AA93BA93EA93FA93EFB7EA9344D7E991AA
:10070400EFBFF991E991B991A99199918991799161
:100714006991F990199009901895E8E0E0936006C2
:10072400E0936506E3E0E093A509E091A309E07C8A
:10073400E093A309E5ECE093A609ECEAE093A709AA
:10074400E091A409E07EE860E093A4090895AA93E7
:10075400E091A109E072E1F3E881E093A0099EC46D
:10076400AA93A881A13010F0A03108F012C0EDE5E1
:10077400F3E0FA93EA93EA81ACEFB1E0F0E0EE0F34
:10078400FF1FEA0FFB1F0E94C9240E94F51E0E944E
:10079400FA1EFFCFBA93AA93E881F981FA93EA93F8
:1007A400A6E5B8E20E94021C3E2EE03009F07AC0B1
:1007B400E9E6F3E0FA93EA93EFE5F8E20E94F51E26
:1007C400E0915E28E07111F0E4E401C0EDE20E94E2
:1007D400FF1EE17011F0E2E501C0EDE20E94FF1E90
:1007E400E27011F0E8E401C0EDE20E94FF1EE47043
:1007F40011F0E3E501C0EDE20E94FF1EE07211F08A
:10080400E1E401C0EDE2FF27662777270E94E12497
:10081400E0915A28F0915B28EF71F0700E94F51E68
:10082400A0915A28B0915B28E5E00E940224EF7061
:10083400F0700E94F51EA0915A28B0915B28E9E05F
:100844000E940224E454F84F0E94F51EA0915C28F3
:10085400B0915D28EBE00E9402240E94F51EA09155
:100864005C28B0915D28E5E00E940224EF73F070EB
:100874000E94F51EE0915C28F0915D28EF70F07005
:10088400EE0F0E94F51EE0915628F09157286091D2
:100894005828709159280E94E12484E30E94B91ECB
:1008A400E69602C0A32D5CDF229608950E94071FDE
:1008B4000E940C1FA1E00E94111F29F40E94161F20
:1008C4000E94FA1E02C0A32D4BDF0E94071FE8EA14
:1008D400F8E2FA93EA93EFEFF0E0FA93EA93ADB714
:1008E400BEB711975F924F920E94C9164F905F90C6
:1008F4003E2EE030B1F4EBEDF3E00E941D1F0E94A8
:10090400FA1EF201E755F74DA0E0A083EBEEF3E009
:10091400FA93EA93E8EAF8E20E94F51E0E94FA1EAE
:1009240002C0A32D1DDF0E94211F29F40E94281F4D
:100934000E94FA1E02C0A32D13DF0895E091A200C5
:10094400E873E1601E2FE8EDE4BF1093A200E0E03D
:10095400E093A100E8E1E093710658DE91DEDDDE6C
:10096400E0E0E0930024E0930124E0930224E09388
:100974000324789420D6E03011F4A3E0F1DEE0E023
:10098400EA93A4E0B4E20E9477153E2EE03029F405
:10099400E1E1F4E00E942F1F02C0A32DE1DEACE6EA
:1009A400B8E20E94331C0E94071F0E940C1FAAE099
:1009B4000E94111F39F4EFE2F4E00E94361F0E94F6
:1009C400FA1E02C0A32DCCDEE4E4F4E00E942F1F43
:1009D4000E94071FE8E7F8E2FA93EA93E6E1F0E001
:1009E400FA93EA93ADB7BEB711975F924F920E9404
:1009F4002B184F905F903E2EE03059F4EEE5F4E072
:100A04000E941D1FE6E1F0E060E070E00E943B1FE1
:100A140002C0A32DA5DE0E94211F29F40E94281FD5
:100A24000E94FA1E02C0A32D9BDE40DF0E94071F16
:100A34000E940C1FA2E00E94111F29F40E94161F9D
:100A44000E94FA1E02C0A32D8BDE0E94071FA091F4
:100A54004026B091412680914226909143260E94DF
:100A6400611A3E2EE03039F4E7E7F4E00E94361FC5
:100A74000E94FA1E02C0A32D73DEE8E9F4E00E948E
:100A84002F1F0E94071FEFE8F8E2FA93EA93E8E1C8
:100A9400F0E0FA93EA93ADB7BEB711975F924F9225
:100AA4000E942B184F905F903E2EE03059F4E3EBF8
:100AB400F4E00E941D1FE8E1F0E060E070E00E94B5
:100AC4003B1F02C0A32D4CDE0E94211F29F40E946B
:100AD400281F0E94FA1E02C0A32D42DEE7DE0E94F8
:100AE400421FE1E00E94471F39F4EDECF4E00E945C
:100AF400361F0E94FA1E02C0A32D32DEE6E6F8E29B
:100B0400E0935A28F0935B28E0E0F5E7E0935C2853
:100B1400F0935D280E940C1FA6E5B8E20E94F91C20
:100B24003E2EE03059F5EAEEF4E0FA93EA93E6E07B
:100B3400F0E060E070E00E94E124E3E0F0E060E0D7
:100B440070E00E94E124E0EDF7E060E070E00E94D4
:100B5400E124EEE0F0E060E070E00E94E124E8E2ED
:100B6400F0E060E070E00E94E1240E944E1F0E94C9
:100B7400E12488E10E94B91E6A9602C0A32DF0DD2B
:100B84000E94421FE0E00E94471F39F4EEE1F5E0C5
:100B94000E94361F0E94FA1E02C0A32DE1DDACE6BE
:100BA400B8E2F8DDFFCFFFCFAA930E940E2520E024
:100BB4000C81AD81BE813D91AD83BE8318E0220FCF
:100BC400E22FE327E07811F0E9E02E27330F1150EC
:100BD400B1F7015071F7E22FEE0FE1600E94152585
:100BE4008AC51A93E2E3E093AA29EFEFE093C308DE
:100BF400E091C208E078E1F3EFEFE093C308E091FD
:100C0400C208E078E1F31091C3081F3F21F0E0919E
:100C1400AA29E03009F401C0EFCFE12F199108951A
:100C2400E0E1E0934506EFEFE093C308E091C208EA
:100C3400E078E1F30895BA93AA930E940E25EAE0BE
:100C4400E093A929EFEFE093C308E091C208E078AC
:100C5400E1F31091C3081F3F21F4E091A929E0308A
:100C640009F401C0EFCF1E3F21F0E0E00E941525FA
:100C740078C52E813F81EFEFE093C308E091C2086D
:100C8400E078E1F33F932F932F5F3F4FE091C30848
:100C9400AF91BF91EC93EFEFE093C308E091C208EA
:100CA400E078E1F33F932F932F5F3F4FE091C30828
:100CB400AF91BF91EC93EFEFE093C308E091C208CA
:100CC400E078E1F33F932F932F5F3F4FE091C30808
:100CD400AF91BF91EC93EFEFE093C308E091C208AA
:100CE400E078E1F33F932F932F5F3F4FE091C308E8
:100CF400AF91BF91EC93EC81FD813497EC83FD833C
:100D040009F0B9CFEFEFE093C308E091C208E078AF
:100D1400E1F3EFEFE093C308E091C208E078E1F378
:100D2400E1E00E9415251DC5AA930E940E2559DFF6
:100D3400EF3F21F0E0E00E941525DDC4EC81E09353
:100D4400C308E091C208E078E1F3AC81AD3FC1F1A2
:100D540000E02D813E81D9012F5F3F4FEC91E0935C
:100D6400C308E091C208E078E1F3D9012F5F3F4F57
:100D7400EC91E093C308E091C208E078E1F30150FC
:100D840051F7EFEFE093C308E091C208E078E1F394
:100D9400EFEFE093C308E091C208E078E1F3EFEFEE
:100DA400E093C308E091C208E078E1F31091C3082E
:100DB400E12FEF71E53021F0E0E00E9415259BC49E
:100DC400E1E00E94152597C40E94E6241A930A9331
:100DD400EE81E07889F0EE81EF77EE83E7E7EA933E
:100DE400A0E0B0E080E090E0EFDF0E2F023020F0D2
:100DF400E02F198108817FC4E0E1E0934506E09388
:100E04004606EFDEEF3F21F0EFEF1981088173C44E
:100E1400EE81E093C308E091C208E078E1F3ED814C
:100E2400E093C308E091C208E078E1F3EC81E09339
:100E3400C308E091C208E078E1F3EB81E093C308D2
:100E4400E091C208E078E1F3EA81E093C308E0911D
:100E5400C208E078E1F311E0AE81A03411F415E9A1
:100E640004C0AE81A83409F417E81093C308E091D4
:100E7400C208E078E1F3AE81AC3439F4EFEFE093EB
:100E8400C308E091C208E078E1F31FEFEFEFE093CD
:100E9400C308E091C208E078E1F30091C30807FFBA
:100EA40002C0115009F401C0F1CFE02F198108816B
:100EB40022C4BA93AA931A9314E0EFEFE093C30801
:100EC400E091C208E078E1F3A981BA811196A9837F
:100ED400BA831197E091C308EC93115071F752C58E
:100EE400AA9324970E940E25E885E03011F0E1E0F2
:100EF400C9C0EAE0E093A929E091A929E030E1F72B
:100F0400E091A829E27009F0BBC0E0E1E09341065A
:100F1400E0934506E0EAE0934606E0E4E093420607
:100F2400E8E1E0935606E0EBE0934106E3E5E09365
:100F3400C0083FEF1AE0EFEFE093C308E091C20866
:100F4400E078E1F31150B9F7E0E4EA93A0E0B0E00F
:100F540080E090E039DF0E2F3150013011F0303055
:100F640009F401C0E7CF30E0013009F068C0E4E6DD
:100F7400E093A929E8E4EA93AAEAB1E080E090E0EA
:100F840023DFE13091F5DE01149693DFAE81A130C9
:100F940019F4AF81AA3A09F027C0E091A929E030F9
:100FA40049F0E9EEEA93A0E0B0E080E090E40CDFE1
:100FB400E03009F401C0F1CFE091A929E03049F013
:100FC400EAE7EA93A0E0B0E080E090E0FDDEE03004
:100FD40009F00AC0DE0114966CDFEC81E07411F0B4
:100FE400ECE001C0E4E03E2F2AC0E9EEEA93A0E081
:100FF400B0E080E090E0E8DEE23018F432E009EEA0
:1010040002C031E001E4E091A929E03041F00A9303
:10101400A0E0B0E080E090E0D7DEE03009F401C069
:10102400F2CFE091A929E03049F0E0E5EA93A0E0AD
:10103400B2E080E090E0C8DEE03009F030E03093C8
:10104400AB29EEDD303049F0E091A829EE7FE09342
:10105400A829E0EDE093C00813C0E0E1E093460660
:10106400C0DDDEDDE0E0E093C008E0EFE09342069F
:10107400E0E1E0934206E091A829E160E093A82929
:10108400E091A8290E94152529960895AA93E8813C
:10109400E03011F0E1E002C0E091A8292196089522
:1010A400AA93EF81E03019F4E881E03011F4E4E030
:1010B40058C3E091A829E17011F0E3E052C3E09134
:1010C400AB29E87071F4E981FA816B817C81A0E03D
:1010D400B2E080E090E00E944E24E983FA836B83BF
:1010E4007C83A881A130A9F4E1E5EA93AA81BB81BC
:1010F4008C819D8169DEE03059F4ED81FE81FA93A3
:10110400EA93A0E0B2E097DDE03011F0E0E0E8839C
:1011140023C0E2E5EA93AA81BB818C819D8154DEE0
:10112400E030D1F4ED81FE81FA93EA93A0E0B2E0DD
:1011340082DDE03051F0ED81FE81E050FE4FED8321
:10114400FE83E881E150E88369F7ECE4EA93A0E0E8
:10115400B0E080E090E038DE63DDE881E03011F05B
:10116400E1E001C0E0E0FDC2AA93EF81E03019F4B0
:10117400E881E03011F4E4E0F4C2E091A829E170E0
:1011840011F0E3E0EEC2E091A829E47011F0E2E08E
:10119400E8C2E091AB29E87071F4E981FA816B81CE
:1011A4007C81A0E0B2E080E090E00E944E24E983DC
:1011B400FA836B837C83A881A130A1F4E8E5EA93E8
:1011C400AA81BB818C819D81FFDDE03051F4ED81EA
:1011D400FE81FA93EA93AEEFA7DDE03011F0E0E090
:1011E400E88330C0E091AB29E67039F0E7EDEA938B
:1011F400A981BB2788279927E7DDE9E5EA93AA8136
:10120400BB818C819D81E0DDE030E1F4ED81FE81E4
:10121400FA93EA93ACEF88DDE03051F0ED81FE8182
:10122400E050FE4FED83FE83E881E150E88371F7DF
:10123400E0E0F0E0FA93EA93ADEF76DDE03011F40C
:10124400E1E0E883EDDCE881E03011F0E1E001C0A9
:10125400E0E087C2BA93AA9360970E940E25EF89B3
:10126400E03011F0E4E08BC1E091A829E17011F0C5
:10127400E3E085C111E0EE89E03041F4E0E1E09380
:101284004606AFDCEF3F09F410E077C1E13009F026
:101294005BC0E9E4EA93A0E0B0E080E090E094DD94
:1012A400E03049F4FE013496FA93EA93A0E1B0E009
:1012B400C2DCE03009F447C0EC81E295EF70E695BA
:1012C400E695E13069F4E0E0FC85AD85B0E0EA0F35
:1012D400FB1F31969F01D90188279927EAE02CC08A
:1012E400E985EF70AE2FEE85E078EE1FE0E0EE1FAB
:1012F400AE0FED85E370EE0FEA0FEE5F0E2FEC8577
:10130400E295EF70E695E695AE2FEB85F0E00E944E
:101314002724B0E0AE0FBF1FEA85E370F0E00E941F
:101324002724FE2FE0E0EA0FFB1F31969F01D9012D
:1013340088279927E02FE9500E940B24AC89BD89A6
:101344000E94BF2410E019C1E23041F4AC89BD8988
:10135400E0E0F2E0ED93FC9310E00FC1E33009F01C
:10136400AFC0E091AB29E470A1F1EDECEA93A0E009
:10137400B0E080E090E028DDE03051F5EFEFE0935D
:10138400C308E091C208E078E1F3FE013496FA93D1
:10139400EA93A0E1B0E04FDCE030D1F000E30030AC
:1013A40049F0EFEFE093C308E091C208E078E1F37D
:1013B4000150F5CFEE85E295EF70A0E1B0E080E05A
:1013C40090E00E940B24AC89BD890E94BF2410E0E8
:1013D40076C0E9E4EA93A0E0B0E080E090E0F4DCD9
:1013E400E03009F06CC0FE013496FA93EA93A0E170
:1013F400B0E021DCE03009F462C0E091AB29E27096
:1014040051F1EE85EF73FF27662777270E94352475
:101414007F936F93FF93EF93EF85E078FF27662721
:101424007727DF01CB01E7E00E941724AF91BF913A
:101434008F919F910E94DC23EF5FFF4F6F4F7F4F8F
:10144400DF01CB01E989E295EF70E695E695E1507D
:101454000E940B242FC0EE85EC77E695E695FF27D6
:1014640066277727EF5FFF4F6F4F7F4F7F936F9311
:10147400FF93EF93EF85E370FF2766277727DF015C
:10148400CB01E3E00E940B24DF01CB01EF85E07E7A
:10149400E295EF70E695FF27662777270E94DC2305
:1014A400EF5FFF4F6F4F7F4FAF91BF918F919F9130
:1014B4000E944E24AC89BD890E94BF2410E05DC007
:1014C400EA3039F4E091AB29AC89BD89EC9310E0A2
:1014D40054C0EB3011F409E403C0EC3001F50AE424
:1014E4000A93A0E0B0E080E090E06EDCE030B1F47C
:1014F400EC89FD89FA93EA93A0E1B0E09CDBE0304B
:1015040069F0EC89FD89FA93EA93AFE04DDBAE2FE5
:10151400EC89FD89E785EA1709F410E02EC0ED3067
:1015240071F4EAE7EA93A0E0B0E080E090E04CDCFC
:10153400E03021F4AC89BD89BCDC10E01EC0EE3083
:10154400D9F4EDECEA93A0E0B0E080E090E03CDC7C
:10155400E03089F4EFEFE093C308E091C208E0784B
:10156400E1F3EC89FD89FA93EA93A0E4B0E063DB4C
:10157400E03009F010E001C014E052DBE12F0E94DA
:10158400152568960895E091A929E03029F0E091A5
:10159400A929E150E093A929E091AA29E03029F092
:1015A400E091AA29E150E093AA29E091A829EB7FD0
:1015B400E093A82908956097E091A829E17021F0AB
:1015C400A0E08EDCE37081F4E0E0EA93ECE0EA93DF
:1015D400DE0112963FDEE03039F4E091A829EC7F79
:1015E400E093A829E1E006C0E091A829E360E09334
:1015F400A829E0E0609608952797A0910024B0916F
:101604000124109731F0A0910224B0910324109783
:1016140029F4E0E0F0E061E27AE36DC0FE01369681
:10162400FA93EA93FE013796FA93EA93DE01189649
:10163400E0910024F09101240995FE013396FA9378
:10164400EA93FE013496FA93EA93DE011496E0914C
:101654000224F09103240995E881F981EC5BF740B9
:1016640066277727DF01CB01E9E10E940B247F93F2
:101674006F93FF93EF93EA810E94531FE5E10E9469
:101684000B24AF91BF918F919F910E94F523DF01AD
:10169400CB01EB81F0E00E9444240E943F240E948D
:1016A400F5237F936F93FF93EF93EE810E94531F73
:1016B400EBE00E940B24AF91BF918F919F910E9408
:1016C400F5237F936F93FF93EF93ED810E94531F54
:1016D400E5E00E940B24AF91BF918F919F910E94EE
:1016E400F523DF01CB01EC81F0E0F595E7950E944D
:1016F40044240E94F523279608950E94591F0885C3
:1017040019852E813F81EC81FD813197EC83FD8326
:10171400319661F01F930F930F5F1F4FD9012F5F15
:101724003F4FEC91AF91BF91EC93EDCF0E94152503
:101734002CC4BA93AA931A930A930E811F81EA8147
:10174400FB813197EA83FB83319649F01F930F9312
:101754000F5F1F4FEC81AF91BF91EC93F0CF1981D4
:10176400088128960895BA93AA930E940C250A85A5
:101774001B852885398540E050E0EE81FF81319753
:10178400EE83FF83319681F0D8010F5F1F4F0C90D9
:101794001124D9012F5F3F4FAC91BB27F001EA1B05
:1017A400FB0BAF01309709F001C0E7CFFA010E94AB
:1017B40013252C960895BA93AA93EA81FB81E491A8
:1017C400E03049F0EA81FB81A491E881F981B0E03D
:1017D400EA17FB0709F406C0EA81FB813196EA8324
:1017E400FB83EBCFEA81FB81E491F0E0249608953A
:1017F4000E94E62424971A93A985BA859E960E948E
:101804005E1F0E94651F0E946A1F0E94022509F440
:1018140050C0E985FA85E481E03099F10E946F1F98
:10182400E03011F0E1E046C0A985BA851496E0E005
:10183400EC93E985FA850E94811F0D01A985BA857B
:101844005A960E94B424D0010E94DC230E946A1F8D
:101854000E940725B0F4E985FA851381123088F0D7
:10186400A985BA855A960E94B4240E946A1F0E94D0
:10187400DC23E983FA836B837C830E946F1F1150FE
:10188400EDCF0E94651F0E94F82499F0E985FA853E
:10189400A181AA93EA85FB85F2960E94861F11F026
:1018A400E1E008C00E94651FA985BA859E960E9442
:1018B400BF24E0E018812B9608950E94931F0E9494
:1018C4009B1F0E94A01F09F05CC0A981BA81AC9142
:1018D400A33029F4E981FA81E581E03009F445C0B7
:1018E400A981BA819E960E94A51FE981FA810E946E
:1018F400A91FE981FA81F296E250FE4FA5E5BAEA02
:10190400A083B183E981FA81F296A2E5B2E581E68A
:1019140091E40E94B41FEC51FE4FA2E7B2E781E4C8
:1019240091E60E94B41FE851FE4F0F01A981BA81CC
:101934001E960E94BA1FF296E451FE4F0F01A98130
:10194400BA811A960E94BA1FA181AA93EA81FB81E7
:10195400F296FA93EA93EC81FD810E94C21F04DCA3
:10196400A981BA811596E0E0EC93E981FA81A1811D
:10197400AA93E0E0EA93A0E0B0E06CDCE03009F088
:1019840011E0E12F1881239608950E94E6242497FC
:101994000E940E250E94CA1F0E94CF1F50F0AC85E2
:1019A400BD855E960E94B4240E94CA1F0E9407252A
:1019B40018F00E94D71F60C0AC85BD8592960E9426
:1019C400DC1FAC85BD85EC91F0E0E130A0E0FA07C6
:1019D40039F528853985F901F695E7952E0F3F1FCE
:1019E4000E94E31F09F046C00E94F81F0C911127C2
:1019F4002F5F3F4F0E94E31FE9F50E94F81FEC910F
:101A0400FE2FE0E00E2B1F2BE885E17021F0F8019A
:101A14000E942C2402C0F801FF70662777272CC08F
:101A2400E230A0E0FA0779F40E9400200E94092025
:101A34000E941020F9F4A885B985E2E00E941A20DA
:101A44000E94232019C0E330A0E0FA0799F40E9411
:101A540000200E9428200E94102061F4A885B985E6
:101A6400E4E00E941A200E94B424EF7FFF7F6F7F7E
:101A74007F7002C00E942F200E9415252E96089583
:101A84000E94E62424970E940C250E9434200E9480
:101A9400CF1F50F0AA89BB895E960E94B4240E948D
:101AA40034200E94072510F052E085C0AA89BB8922
:101AB40092960E94B424EE83FF8368877987AA896B
:101AC400BB89EC91F0E0E130A0E0FA0709F043C0F3
:101AD4000E851F85F801F695E7950E0F1F1F0E94CE
:101AE400392009F063C00E944C2051F0D901EC91D7
:101AF400EF70AE2FEA85F0E00E942324EA2B01C0A8
:101B0400EA85D901EC930F5F1F4FAA89BB8914960C
:101B1400E1E0EC930E94392009F048C00E944C2077
:101B240049F00E945720E4E00E941724FF2766270B
:101B340077270EC0D901EC91E07F1E2E0E9457201A
:101B4400E8E00E941724FF2766277727EF70E12932
:101B5400D901EC932BC0E230A0E0FA0789F40E948B
:101B64005C200E9409200E94652001F5AE85BF8596
:101B7400E2E00E946D20AA85BB85A083B18316C0D4
:101B8400E330A0E0FA0789F40E945C200E94282038
:101B94000E94652059F4AE85BF85E4E00E946D2063
:101BA4000E9457200E94DC2401C052E0AA89BB890C
:101BB4001496E1E0EC93E52F0E94132564960895B2
:101BC4000E94E62424971A930E9476200E94CF1F35
:101BD40018F00E947B2010F012E044C010E00E9434
:101BE4007B2008F03FC0E985FA85FA93EA93AF8138
:101BF400B88589859A85C9DEE983FA836B837C83FA
:101C04000E9484200E94F82469F10E946A1F0E94A5
:101C1400892011F412E026C00E946A1F0E949120BC
:101C240011F411E01FC0E985FA85FA93EA93EF8174
:101C3400F88569857A850E94E1240E949B1F20DF34
:101C44001E2F103079F4E985FA850E94992029F035
:101C54000E949E201596E1E0EC930E9484200E944D
:101C6400AC20BDCFE12F188181C20E94E624609789
:101C7400AC89BD895E960E94B4240E94B1200E9462
:101C8400B4200E94F824B1F4AC89BD891A960E944C
:101C9400DC1F0E94B9200E94FC2439F00E94BE205F
:101CA4000E94B9200E94072520F00E94D71F0E949D
:101CB400C1201CC00E94C6200E94CB200E94D020BC
:101CC4000E94D7200E94CF1F18F40E94D71F8CC0F7
:101CD4000E94BE200E94D7200E94072518F40E946B
:101CE400DC2082C00E94B4200E94C1200E94E12016
:101CF4000E94E6200E94EB20EF5FFF4F6F4F7F4F63
:101D04000E94E6200E94BE200E94CA1F0E9407254E
:101D140060F0E2E0F0E060E070E00E94E6200E9403
:101D2400F02018F40E944E1F5FC00E94C6200E943B
:101D340057200E94D0200E94F520A1F00E94D720B5
:101D44000E94912029F00E94D7200E94892019F432
:101D54000E94DC2049C00E94F02019F40E944E1F0A
:101D640043C0C8CF0E94C620EA85FB856C857D856B
:101D74000E94E124AFEFBFEF8FEF9FE081DEE03000
:101D840019F00E942F2030C00E94B4200E94F82431
:101D940071F00E94C6200E94F9200E94E1240E9452
:101DA40034206EDEE03019F00E942F201DC00E9406
:101DB400EB20AC89BD891A960E94BF24EC89FD8969
:101DC4000E94992079F0AC89BD891E960E94BA249C
:101DD4003197604070400E94C424AC89BD89159637
:101DE400E1E0EC930E94EB20669608950E94E624BD
:101DF4000E94BE20E250F040604070400E94B1203A
:101E0400EC81FD81A68DB78D80A191A1E2E0F0E087
:101E140060E070E00E94FE200E94D2240E94072508
:101E240018F00E944E1F46C4EC81FD81E281F0E06F
:101E34000E94D2240E9444240E944E247F936F93D4
:101E4400FF93EF93AC81BD819A960E94B424AF9125
:101E5400BF918F919F910E94DC232CC4BA93AA93C3
:101E640024971A930A93EE81FF81A885B985149665
:101E7400ED93FC93A885B98516960E9403210E94D0
:101E84000A210E94892029F00E940F210E94142116
:101E940010F0E2E078C00E941C2129F40E940F2176
:101EA400A081A33009F006C00E940F21B696DF017D
:101EB4000E9403210E941C21A1F40E942321389630
:101EC400DF010E94B024AE81BF81AE17BF0710F0BE
:101ED400E2E059C00E940F21B696DF010E94B424AB
:101EE40037C00E940F21E281A0E1EA9F8001AE8108
:101EF400BF81A017B10728F10E940F21FA93EA933A
:101F04000E94B92042DDEA83FB836C837D830E94B7
:101F14000A210E94912011F4E1E035C00E940A21B7
:101F24000E94CF1F28F00E940F210E94142110F05C
:101F3400E2E029C0EE81FF81E01BF10BEE83FF8319
:101F4400D6CF0E942321FA93EA930E94B9204EDF50
:101F5400DF01CB01EE81FF810E942C240E942D2100
:101F6400A885B9851E960E94BF240E940F21F2966F
:101F7400DF01EE81FF810E943221A885B985529646
:101F8400ED93FC93E0E0198108812A960895AA93C1
:101F940024970E940E25A985BA8514960E94B02420
:101FA40031968F01002E012A29F0A985BA850E9455
:101FB4003A2111F4E4E0D8C0F801EF7009F0C1C08F
:101FC4000E949E201A960E94B4240E94F82461F470
:101FD4000E9440213896DF010E94B0240E171F078B
:101FE40010F0E4E0C1C0ADC0F8010E942C240F0140
:101FF4000E944021E281F0E03197E021F121309705
:1020040009F09FC00E9440210E944521BEDC0E942D
:10201400C1200E94B9200E94CF1F10F4E2E0A4C0A6
:102024000E94B9200E94912011F4E1E09DC00E9419
:1020340040217E96DF010E94B4240E94B9200E94B0
:10204400072508F46EC0E885E03011F4E4E08CC0A4
:102054000E9440210E94452108DE0E944E210E94D8
:10206400F82411F4E7E080C00E94B9200E9489207E
:1020740011F4E2E079C00E94B9200E94912011F489
:10208400E1E072C00E9440210E94502111F0E1E081
:102094006BC00E9440210E94A91F0E944021DF01C1
:1020A400BE96FF93EF93FD010E945721AF91BF911C
:1020B4000E94BF2430E00E944021E2813E17E8F4F0
:1020C4000E9440213496A1E0A0830E9440210E94F6
:1020D400502111F0E1E048C00E944021BE96DF018A
:1020E4000E94BA24EF5FFF4F6F4F7F4F0E94C424BA
:1020F4003197604070403F5FDECF0E944021BE9622
:10210400FF93EF93DF010E94B424DF01CB01E32F9F
:10211400F0E00E9444240E94FE20AF91BF910E94EF
:10212400BF240E94E120A985BA851A960E94BF2483
:102134000E9440210E945721A985BA851E960E94BB
:10214400BF24F801A985BA851496ED93FC930E94E7
:102154004021F296DF01F8010E943221A985BA8557
:102164005296ED93FC93E0E00E9415252B9608957A
:102174000E94591F0E945F210E94652121F0E12FD6
:102184000E94152597C20E946B21B1F40E94782108
:1021940011F414E011C0F901E385E87029F40E94F8
:1021A4008121E1DA309709F001C006C00E945F2165
:1021B400EEDE1E2F103039F3E12F0E9415257AC26E
:1021C4000E94591F14E0AC81BD810E943A21D9F0CC
:1021D4000E946B21C1F40E94782111F414E013C011
:1021E400053E49F0E1E0E03011F40E3221F0F9014E
:1021F400E385E87009F001C006C00E945F21C7DED4
:102204001E2F103001F3103029F0AC81BD811E96D1
:102214000E94A51FE12F0E9415254CC20E94591F40
:102224000E945F210E946521B1F40E946B2199F400
:10223400EC81FD81A289B3890C91053E11F0003037
:1022440009F409C0EC81FD81FA93EA93A1E09FDED1
:102254001E2F103051F3103029F50E946B2111F517
:10226400AC81BD8152962D913C913A932A93E0E042
:10227400F0E0FA93EA93A0E2B0E05BDA0E948121F5
:102284003CDAAC81BD8154960E94B024E385E871A8
:10229400D9011C96EC93AC81BD810E94B024349684
:1022A400A1E0A083E12F0E94152504C20E94931F80
:1022B400EB81FC81A481B581D1DD1E2F1030D1F4D6
:1022C400A981BA810E948C21EB81FC81A685B78506
:1022D400808991890E94A01F69F4E981FA81A28909
:1022E400B389E5EEEC93A981BA810E94B0243496B7
:1022F400A1E0A083E12F188123960895BA93AA93AD
:1023040025970E940C25AD85BE8554964D915C9110
:102314005A934A93E0E2F0E0FA93EA93ABE0B0E038
:1023240008DAE0E0E887E9871E2F2E2FE8E0EA8745
:10233400AB85BC850E9491210E949621AE0FBF1FE0
:10234400AC91AE3209F50E949B210E3221F4A8858E
:10235400B98513970CF003C00E94A721F4CF0F3264
:1023640021F00C3511F0013208F402C0E6E06EC031
:102374000E9496210E94AE2110F4E4E201C0E0E242
:10238400DA011B96EC9361C00E949B21013220F07C
:102394000F3211F00C3509F433C00E3219F0EA850E
:1023A4002E1768F0AA85A83011F40E3211F0E6E079
:1023B4004DC028E0EBE0EA87110F110F20C0003870
:1023C40018F01360E6E042C0ECE1F2E0FA93EA931D
:1023D400A02FBB27F0D9309711F0E6E037C00134C5
:1023E40010F00B3508F002C0126007C0013610F07F
:1023F4000B3708F002C0116000520E94A721C4CF1D
:102404000E9496210E94AE2110F4E4E001C0E0E0B5
:102414000E2F203011F4E6E019C0DA01AC91A53E8C
:1024240019F4DA01E5E0EC93AA85A83011F4110F50
:10243400110FE12FE370E13009F40061E12FEC703A
:10244400E43009F40860FA010387E0E00E941325F0
:102454002F960895BA93AA9322970E940C25E88593
:10246400F9853996EE83FF83AA85BB850E943A21BC
:1024740009F464C0AA85BB8552964D915C91FA011A
:10248400348510E01830B8F40E94B621A1F005306C
:1024940009F405EEE0E0E03041F033FF06C001341A
:1024A40010F00B3508F001C001C001C0005E0E94AD
:1024B400BD211F5FE7CFFA01A085A032F9F0AE81FC
:1024C400BF811196AE83BF831197EEE2EC9318E0BF
:1024D4001B30A0F40E94B62189F0E0E0E03041F026
:1024E40034FF06C0013410F00B3508F001C001C000
:1024F40001C0005E0E94BD211F5FEACFFA01E3859F
:10250400A885B9851896EC93DA015C960E94B424E8
:10251400A885B9850E94BF24DA0158960E94B02488
:10252400A885B9851496ED93FC93DA0156960E941A
:10253400B024A885B9851696ED93FC93AE81BF812E
:10254400E0E0EC930E9413252C9608950E94591FF5
:10255400E1E0E03029F0AC81BD81AC91A03209F01A
:1025640006C0EC81FD813196EC83FD83F1CFAC8113
:10257400BD81AC91AF3229F0AC81BD81AC91AC3559
:1025840059F4EC81FD813196EC83FD83AE81BF81EA
:1025940016960E94A51F0AC0AE81BF810E94B02476
:1025A4007696DF010E94B4240E94C521AC81BD81CE
:1025B400AC91BB27909760F40E94CB21A0E0B0E0DF
:1025C4004DDC1E2FAE81BF8152960E94D0213DC0AA
:1025D4000E94CB21DE01169691DE1E2F1030A9F544
:1025E400AE81BF81C5DD1E2FAE81BF8154960E948E
:1025F400B024E385E4700E2F103039F0143011F458
:10260400003009F001C015E020C00030F1F4AE81C3
:10261400BF8152962D913C91F901E385E07111F44B
:1026240015E013C00E94D5210E943F247F936F932D
:10263400FF93EF930E94D821AF91BF918F919F9107
:102644000E94DD210E94C521C3CFE12F0E941525E0
:10265400289608950E94E624EC81FD81A181AA9325
:10266400ED81FE81F296FA93EA93EB81FC816D8110
:102674007E810E94E22111F0E3E01CC0EC81FD8127
:102684000E94E92111F0E2E015C0AC81BD81A85996
:10269400BF4F0E94F32111F4E0E00CC0EC81FD81F6
:1026A400F296EE5AFF4FDF010E94F32111F4E0E0AD
:1026B40001C0E1E026960895AA9364970E940C2530
:1026C400AD8DBE8D0E94B024E887F987A885B985B1
:1026D400EC91E0530E2F0A3020F41196AC91AA33FA
:1026E40009F00AC0E885F9853296E887F987AD8D47
:1026F400BE8DED93FC9302C00091B029013010F01F
:10270400EBE0CDC1E02F0E9401220E949121AB8D0C
:10271400BC8DED93FC93EE81FF81309711F4ECE0D6
:10272400BEC1AE81BF81EC91E03089F0EE81FF81C2
:10273400A1810E9448085E2F50FD09C0EA8DE03057
:1027440011F052FD01C002C0EAE0A9C1A7C1AE81E7
:10275400BF81E0E0EC93E02FAE81BF811196EC9352
:10276400EE81FF81A1810E9472075E2F50FF02C09B
:10277400E3E095C1EA8DE03011F052FD01C002C0E2
:10278400EAE08DC10E94CB210E944E1FE88FF98F91
:102794006A8F7B8FDF01CB015DDF1E2F1130D1F4F7
:1027A400EE81FF81F296E254FE4F9F01F901E4812C
:1027B400E03081F0D90118960E94B424EE8BFF8B8F
:1027C400688F798F0E94CB21A88DB98D8A8D9B8DBE
:1027D40041DF1E2F133011F4E1E061C1103049F4E0
:1027E400AE81BF81DD960E94B024E030A2E0FA07FA
:1027F40011F0EDE054C1AE81BF81A85BBF4F0E94D0
:1028040023200E9409220E94F9200E94F82441F406
:10281400AE81BF81AA5ABF4F0E94B4240E940922EC
:102824000E94F920AE81BF815A960E94BF24EE8196
:10283400FF81EE5BFF4FE081AE81BF811396EC9385
:10284400EE81FF81E381F0E00E94CB200E944424CA
:102854000E944E240E9409220E940E220E941522E8
:10286400AE81BF8192960E94BF24EE81FF81E7ADC5
:10287400AE81BF811296EC93AE81BF81AD5BBF4F39
:102884000E94B024AE81BF811896ED93FC93AE8173
:10289400BF81AB5BBF4F0E942320EE87FF87688B0D
:1028A400798B0E94F82451F4AE81BF81AE5ABF4F98
:1028B4000E94B424EE87FF87688B798B0E940E22D6
:1028C4000E943420662777270E94FE200E94CB2096
:1028D4000E94E6237F936F93FF93EF930E941A2243
:1028E400AF91BF918F919F91662777270E94EB2329
:1028F400EE81FF81E281F0E00E9444240E9487245B
:10290400EE5FFF4F6F4F7F4FEA87FB876C877D87B2
:10291400AE81BF815E960E94BF2411E00E945720C1
:10292400A73FEFE0BE07E0E08E07E0E09E0708F077
:1029340012E00E945720A73FEFEFBE07E0E08E07AA
:10294400E0E09E0708F013E0133039F4AE81BF8154
:10295400A25ABF4F0E94B42402C00E942222AE8118
:10296400BF8196960E94BF240E9422227F936F9378
:10297400FF93EF930E941A22AF91BF918F919F9181
:102984000E942D21AE81BF819A960E94BF24AE8100
:10299400BF811E960E942F200E94BF24AE81BF815A
:1029A4001496E0E0EC93133009F05FC0AE81BF8170
:1029B4001596EC93AE81BF81AE59BF4F0E94B024EF
:1029C4000E941522AE81BF8152960E94BF24EE81DF
:1029D400FF81A181AA93EF81F885F296FA93EA9395
:1029E400E985FA850E94C21F0E945208E03011F561
:1029F400EE81FF810E94E921E9F4AE81BF81D29684
:102A04000E94B424E235A2E5FA07A1E66A07A1E42C
:102A14007A0781F4EE81FF81F296EC51FE4FDF01DB
:102A24000E94B424E237A2E7FA07A1E46A07A1E608
:102A34007A0709F01AC0EE81FF81F296E451FE4F45
:102A4400DF010E94B424AE81BF811A960E94BF2484
:102A5400EE81FF81F296E851FE4FDF010E94B4241B
:102A6400AE81BF811E960E94BF24AE81BF811C939C
:102A74009E960E94A51FAE81BF8156960E94A51FF7
:102A8400E091AE29F091AF293196E093AE29F0930D
:102A9400AF29AE81BF811696ED93FC93E0E00E94CE
:102AA40013256F960895BA93AA93EA81FB81309710
:102AB40071F0AA81BB81EC91E03049F0EA81FB819D
:102AC400A681B781E881F981EA17FB0711F0E9E0F3
:102AD4000AC0EA81FB81A1810E944808E17011F0DB
:102AE400E3E001C0E0E024960895BA93AA931A9310
:102AF4000A93AC81A13010F0EBE020C0EC810E947D
:102B040001220D911C91002E012A19F0D801E0E058
:102B1400EC93EA81FB81309721F0AA81BB81E0E04C
:102B2400EC93EC81ACEAB9E2F0E0EE0FFF1FEA0FA0
:102B3400FB1FAA81BB81A083B183E0E019810881D6
:102B440025960895AA93A2970E940E25A9A5BAA531
:102B54000E94D021EEA1EF71EEA3FE01B7960E9470
:102B64002922EAA5EE71AE2F0E94302211F0E12F46
:102B74000AC10E943522A9A5BAA5E8DC1E2FEEA140
:102B8400EC7109F495C02897103089F0143021F4C1
:102B9400DE01589643DB1E2F103019F0E12F2896E2
:102BA400F2C0EEA5E860EEA72AA53BA568C0EEA595
:102BB400E47019F0E8E02896E6C02AA53BA5022EA9
:102BC400032A21F0F901E385E17119F0E7E0289681
:102BD400DAC0EEA5E87009F452C00E94D5210E9423
:102BE4003F247F936F93FF93EF930E94D821AF917B
:102BF400BF918F919F910E94DD210E94B120F90124
:102C04007496A0E0B0E0A083B183F9017A96A08322
:102C1400B183F9017C960E949B1F0E94DC24A88D3D
:102C2400B98D1496E1E0EC93A88DB98D9E960E941F
:102C3400DC1F0E94BE200E94F824B9F0E88DF98DB3
:102C4400FA93EA930E940A210E94E20D1E2F10308B
:102C540019F0E12F289697C00E94BE200E943E22C0
:102C6400A88DB98D1A960E94BF24E88DF98D0E9413
:102C740043220E94A01F19F0E12F289684C0EEA5DC
:102C8400E870A1F0F9013B96A0E0A0830E94FE0A3F
:102C94000E944E21D9011E960E94BF24A88DB98D91
:102CA4001496E1E0EC93EEA5E062EEA7289617C037
:102CB400103011F0E12F67C00E944A2221F0F9017F
:102CC400E385E07111F0E4E05EC0EEA1E27021F072
:102CD400F901E385E17009F402C0E7E054C0A88972
:102CE400B9899E960E94B424A9A5BAA55A960E94B1
:102CF400BF24EAA1FBA1A9A5BAA55E96ED93FC9316
:102D0400EEA1A9A5BAA51496EC930E94D5210E9420
:102D14003F247F936F93FF93EF930E94D821AF9149
:102D2400BF918F919F910E94DD21A9A5BAA51E96FE
:102D34000E94BF24D9015C960E94B424A9A5BAA517
:102D44001A960E94BF24A9A5BAA516960E94A51F8B
:102D5400A9A5BAA51596EFEFEC93A9A5BAA5569621
:102D64000E94A51FE889F989A9A5BAA5ED93FC934A
:102D7400A889B98916960E94B024A9A5BAA5129665
:102D8400ED93FC93E0E00E941525AB960895BA9369
:102D9400AA932E970E940C25E88DF98DEE83FF836C
:102DA400AC89BD890E94D0210E944F22EC8DFD8DFB
:102DB4000E94522211F0E12F48C1EA8DFB8DA481BB
:102DC400A07811F0E2E041C1EA8DFB8DA481A170ED
:102DD40011F4E7E03AC1EA8DFB8DA285B3858485C1
:102DE40095859F938F93BF93AF930E945922EF9140
:102DF400FF916F917F910E94E6230E94E6200E943A
:102E0400EB20AE89BF89882799270E94022520F4E8
:102E1400E885F985EE8BFF8BEE89FF89309709F4FD
:102E240013C10E9459220E94602209F0D9C0EA8D80
:102E3400FB8D05800E9465220E16B8F10E9459226E
:102E44000E94FC2431F4AA8DBB8D1E960E94B424EA
:102E540006C00E944F220E946B220E94C70CE88B7E
:102E6400F98B6A8B7B8BA889B9898A899B890E9493
:102E7400CF1F20F40E947222E2E0E7C0A889B9893A
:102E84008A899B890E94912021F40E947222E1E0A8
:102E9400DCC00E94B420AA8DBB8D52960E94BF2430
:102EA400AA8DBB8D1596E0E0EC930E944F220E9400
:102EB4006B220E94F80E0E9479220E94F52021F4D0
:102EC4000E947222E2E0C1C00E947E220E94D720AA
:102ED4000E9483220E947922AE89BF890E9488229F
:102EE40009F447C00E947E22E40FF51F0F010E94DF
:102EF4006522D001F0E0EA17FB0748F40E9465223E
:102F0400F0E0DF010E947E22AE1BBF0BAD010E94E8
:102F14009022EF81F8850E9497220E94E124A42F39
:102F24000E945208E03021F00E947222E1E08DC03C
:102F3400EA8DFB8DA481A07429F00E949E220E9438
:102F4400A52208F011C00E949E220E94AD22AE81EB
:102F5400BF810E94B622EC8DFD8DB096FA93EA9360
:102F6400A0E0B2E00E947F0BAA8DBB8D0E94BD221F
:102F740057C0EA8DFB8DA481A074A1F00E94902219
:102F8400EB8DFC8DB096FA93EA93ED8DFE8D0E9445
:102F9400C82221F00E947222E1E057C0AA8DBB8DA5
:102FA4000E94D3220E949E220E94022571F00E9458
:102FB4009022EB8DFC8DB0960E9497220E94E22114
:102FC40021F00E947222E1E040C00E94DC20AA8D20
:102FD400BB8D56960E94BF24AA8DBB8D0E94D82219
:102FE400AA8DBB8D0E94DD22A0E0B2E0AE1BBF0B18
:102FF4009D01EE89FF89E217F30710F42E893F89BA
:103004000E94CB21AC8DBD8D0E94DD22AC8DBD8D87
:103014009096EA0FFB1FFA93EA93D9010E947F0B63
:103024000E94E222EA8DFB8D0E94EA22D0010E94D6
:10303400BF24AC89BD890E94F322EE89FF89E21B7B
:10304400F30BEE8BFF8BE8CEE0E00E9413256C9629
:103054000895BA93AA932A970E940C25EC89FD89B6
:10306400EE83FF83A889B9890E94D0210E94FA22A5
:10307400E88DF98D0E94522211F0E12F8AC1EE8968
:10308400FF89A481A07811F0E2E083C1EE89FF8971
:10309400A481A27011F4E7E07CC1EE89FF89A285C6
:1030A400B38584859585EA89FB890E942D217F93C8
:1030B4006F93FF93EF930E94FD22AF91BF918F9185
:1030C4009F910E94072518F4E0E0EA8BEB8BEA89D4
:1030D400FB89309709F443C10E9403230E946022B4
:1030E40009F001C1EE89FF8905800E940A23E2816B
:1030F4000E1608F44AC0AE89BF8916960E94B424FD
:103104000E94F824C1F4AE89BF891E960E94B4249B
:103114000E9479220E94F52069F40E94FA220E94FA
:103124009B1F0E94370E0E947922AE89BF891E968A
:103134000E94BF2408C00E94FA220E940F230E940A
:10314400370E0E9479220E94F52009F408C10E94DA
:10315400D7200E94892021F40E941623E2E019C19D
:103164000E94D7200E94912021F40E941623E1E0BE
:1031740010C10E94DC20AE89BF8952960E94BF24F0
:10318400AE89BF891596E0E0EC93EE89FF89A481AE
:10319400A07489F00E940A230E941D23E98DFA8DF0
:1031A4000E94C82221F00E941623E1E0F2C0AE89F9
:1031B400BF890E94D3220E94FA220E940F230E94F8
:1031C400F80E0E94E6200E94EB200E94F82421F4CD
:1031D4000E941623E2E0DDC00E9425230E94CA1F3C
:1031E4000E9483220E94E620AA89BB890E94882229
:1031F40009F450C00E942523E40FF51F0F010E941B
:103204000A23E281D001F0E0EA17FB0750F40E94A0
:103214000A23E281F0E0DF010E942523AE1BBF0BED
:10322400AD010E940A23E181EA93EF81F885FA93C4
:10323400EA93EB85FC856D857E850E94E124A42FAD
:103244000E94B608E03021F00E941623E1E0A1C0FC
:103254000E942A230E94A522C0F40E943123A68939
:10326400B789808D918DEA85FB856C857D850E946B
:10327400AD22A885B9850E94B622A0E0B2E00E94E2
:103284007F0BAE89BF890E94D322AE89BF890E9479
:10329400BD2251C00E942A230E940225C9F00E9427
:1032A40003230D010E94FD22D0010E94072558F43A
:1032B4000E940A230E941D23EB85FC856D857E8573
:1032C4000E94E22109F404C00E941623E1E061C0D7
:1032D4000E94EB20AE89BF8956960E94BF24AE8916
:1032E400BF890E94D822AE89BF890E94DD22A0E056
:1032F400B2E0AE1BBF0B9D01EA89FB89E217F3071D
:1033040010F42A893B89AE89BF890E94DD22AE89E7
:10331400BF899096EA0FFB1FFA93EA93E885F98533
:10332400FA93EA93D9010E947F0BAE89BF89149660
:10333400EC91E064EC930E94E222EE89FF890E9402
:10334400EA22D0010E94BF24A889B9890E94F322ED
:10335400EA89FB89E21BF30BEA8BFB8BB8CE0E9454
:1033640003230D010E94FD22D0010E94022550F486
:10337400AE89BF8916960E94B424AE89BF891A9675
:103384000E94BF24AE89BF891496EC91E062EC934D
:10339400E0E00E94132568960895BA93AA932497AF
:1033A4000E940E250E940F21FA93EA93EA85FB8579
:1033B4000E94522209F06EC0E885F985A481A072AA
:1033C40009F468C0A481A074A1F00E940F21E181D6
:1033D400EA93E985FA85B096FA93EA93EB85FC853E
:1033E4000E94C82211F0E1E056C0A885B9850E9468
:1033F400D3220E940F21FA93EA93EA85FB85A28DDA
:10340400B38D848D958D0E94A01F09F043C0A885BB
:10341400B9855E962D913C91D9011B96EC91E062A1
:10342400EC93A885B9851A960E94B424D9015C96B8
:103434000E94BF24A885B9851E960E94B024D90194
:103444005A96ED93FC93E885F985A685B78580891E
:103454009189FD01BC010E943A24D9015496ED934F
:10346400FC930E94FE0A0E944E21D90156960E94A6
:10347400BF24A885B9851496EC91EF7DEC930E9446
:103484000F213496A1E0A0830E940F21DF010E9446
:103494005F0C1E2FE12F0E9415252A960895BA93DA
:1034A400AA931A93A981BA8178DF1E2F103021F4D0
:1034B400A981BA810E94D021E12F1881DCC20E9427
:1034C400E62460971A930E943923EF89F88D0E94AD
:1034D400522209F091C1ED89FE89A481A07811F0EE
:1034E400E2E08BC10E943C230E9442230E940225F9
:1034F40028F4ED89FE89A481A27009F004C00E9419
:103504003C230E944723AD89BE8916960E945E1F04
:103514000E944E1F0E94AC200E944C231596EFEF90
:10352400EC930E9442230E94FC2408F011C10E94E3
:103534005423E281F0E00E944424A0E0B2E080E061
:1035440090E00E944E24E987FA876B877C870E946B
:103554006A1F0E94FC2498F40E9459230E945E234F
:103564007F936F93FF93EF930E9484200E945E23C6
:10357400AF91BF918F919F910E94072508F421C0BC
:103584000E9484200E943E22DF01CB010E94682316
:103594000E943E220E9449240E94F0230E944C2350
:1035A40016960E94B4240E9442230E94EB23A98B06
:1035B400BA8B8B8B9C8BAD89BE8952960E946D23EE
:1035C4002BC0AD89BE891E960E946D230E94742370
:1035D4000E94F824F9F40E9439230E949B1F0E9440
:1035E40079230E9480230E94892021F40E9485234C
:1035F400E2E003C10E9480230E94912021F40E94F2
:103604008523E1E0FAC00E947423AD89BE891E9629
:103614000E94BF240E948C230E9474230E94F824D9
:1036240009F496C00E9468230E9442230E94022546
:1036340008F055C0ED89FE89A481A27089F00E942A
:1036440039230E9493230E9479230E9474230E94A9
:10365400F82429F40E9468230E94472340C00AC02A
:103664000E9439230E9493230E94C70CED87FE8792
:103674006F87788B0E9480230E94912021F40E94FE
:103684008523E1E0BAC00E9480230E94CF1F58F036
:103694000E9454237E96DF010E94B4240E9480235A
:1036A4000E94072520F00E948523E2E0A6C00E9424
:1036B4008C230E949823A985BA858B859C850E94BA
:1036C400DC23D0010E94BF24A985BA858B859C8503
:1036D4000E9459230E94E6230E944723A3CF0E94FD
:1036E40098230E9442230E94DC23D0010E94BF241D
:1036F4000E944223E0E0F2E060E070E00E94872450
:10370400AD89BE891596EC930E945923F1703097C8
:10371400F9F00E9439230E9493230E94F80E0E941C
:10372400AC200E94651F0E94F82421F40E94852386
:10373400E2E063C0ED89FE89E581F0E00E94762035
:103744000E9483220E94AC20AD89BE890E94D822A7
:103754000E94A0230E94602251F0AD89BE89569632
:103764000E94B4240E9476200E94022509F42BC0F2
:10377400ED89FE89A481A07489F00E945423E1811B
:10378400EA930E9431230E94C82221F00E948523DB
:10379400E1E033C0AD89BE890E94D3220E94542344
:1037A400E181EA93EE89FF89B0960E94861F21F099
:1037B4000E948523E1E021C00E94651FAD89BE8976
:1037C40056960E94BF240E94A0230D010E943C2310
:1037D400D0010E94022580F4AD89BE8916960E940C
:1037E400B424AD89BE891A960E94BF24AD89BE89CE
:1037F4001496EC91E062EC93E12F1881679608959A
:10380400BA93AA93A2971A93FE01B596FA93EA93F0
:10381400FE013F96FA93EA93A0E00E943022E9F475
:10382400FE013196E9A3FAA3FE013D96FA93EA93C9
:10383400AFA1B8A50E94A8121E2F103071F4EF8D0D
:10384400F8A1309749F0FE013D96FA93EA93ADA1B1
:10385400BEA10E942C1201C016E0E12F1881A79688
:103864000895BA93AA93EC970E940E25FE01E05C9A
:10387400FF4F0E94A723A1E00E94302209F081C0DB
:10388400FE013896EEAFFFAFFE01BA96FA93EA93C3
:10389400DE01AE5BBF4F0D90BC91A02D0E94AE2304
:1038A40039F0103029F4EEADFFADE385E07209F490
:1038B40001C016E0103009F064C02CAD3DAD022EFD
:1038C400032A11F4E6E05EC0F901E385E17011F02A
:1038D400E7E058C00E94D5210E943F247F936F9354
:1038E400FF93EF930E94D821AF91BF918F919F9145
:1038F4000E94DD210E94C120F901E385E07139F1C4
:103904000E94B9200E94CF1F10F4E2E03BC0FE01E8
:1039140074960E94A723A6E1B0E00E947F0B0E9448
:10392400E120EA8FFB8F6C8F7D8FFE017496FA93F2
:10393400EA93A2E00E94652121F5DE0154960E94DB
:10394400E2101E2F103009F417E01430D1F4DE0118
:103954009A960E9458111E2F103099F40E94E1206B
:103964000E94F82439F0EAA5FBA50E9443220E9494
:10397400E20D1E2F103029F4AAA5BBA50E945F0CEE
:103984001E2FE12F0E941525EF9623960895AA93E2
:103994000E94B423A1E00E94302241F50E94352206
:1039A400AAA5BBA50E94AE2339F0103029F4ECA1DE
:1039B400FDA1E385E07209F401C016E01030B1F412
:1039C4000E944A2211F416E011C0EEA1E772EEA3A0
:1039D400AFA1EA230E2EF901A385EEA1E095EA2317
:1039E400E029D9011B96EC930E94BA2333C0BA9301
:1039F400AA930E94B423A1E00E94302259F50E94A8
:103A04003522AAA5BBA50E94AE2339F0103029F4B3
:103A1400ECA1FDA1E385E07209F401C016E01030C9
:103A2400C9F40E944A2211F416E014C0AEA1BFA149
:103A340016960E94B024D9015696ED93FC93AEA13C
:103A4400BFA114960E94B024D9015896ED93FC931B
:103A54000E94BA23E12F0E941525AA960895BA93CD
:103A6400AA93AA810E94A903A881B9810E94B024C3
:103A74003196ED93FC9323960895BA93AA932B97CA
:103A84000E940C2510E0A989BA890E94D021EF89EF
:103A9400F88D3196EF8BF88F3197E4912E2FE0302B
:103AA40009F45DC1E12FE03039F4253211F411E05D
:103AB40002C00E94C52352C1E130A9F4253219F491
:103AC4000E94C5234AC112E040E000E02D3211F407
:103AD40001E044C12B3211F44BE240C1203211F415
:103AE40040E23CC102C0E23039F450E013E020333C
:103AF40011F4006833C102C0E33091F4203310F0B4
:103B04002A3308F007C0AAE05A9F502DE22FE05351
:103B14005E0F24C12C3619F4026015E01FC103C0E6
:103B2400E53009F01BC1E22FE33649F40E94CC23AF
:103B3400ED89FE89A481AA930E94D2230EC1E337A2
:103B440069F40E94CC23AD89BE8914960E94912108
:103B5400AE81BF810E94DC1E1E2F0FC0E03791F49E
:103B64000E94CC23AD89BE8914960E949121AE8116
:103B7400BF810E94E81E1E2F08600F77E0E0E88BEB
:103B840030E068C0E43611F0E93611F4046002C094
:103B9400E537A1F4EAE0E88B01FF08C0E0E0FAECC5
:103BA4006AE97BE30E94E6201AE022C0E0E1F7E242
:103BB40060E070E00E94E62015E01AC0E83511F4D8
:103BC400086003C0E83709F0C8C0E0E1E88B01FFF2
:103BD40008C0E0E0F0E060E070E10E94E62018E058
:103BE40007C0E0E0F0E160E070E00E94E62014E04D
:103BF40001FF08C00E94CC23AD89BE8914960E949F
:103C0400B42413C002FF0AC00E94CC23AD89BE892C
:103C140014960E94B0240E94442407C00E94CC231E
:103C2400AD89BE8914960E942320EC87FD876E8798
:103C34007F8702FF0FC0AF85AA233AF40E94DC20DD
:103C44000E94FA230E9479224DE2403011F01F5F56
:103C540001C00B7F00FD11C0151778F407FF08C0E1
:103C640002FF04C00B7F242F115001C020E301C0C8
:103C740020E20E94C5235150EFCF312FE889E03074
:103C8400B9F43030A1F003FF06C0EE81FF81259125
:103C9400EE83FF8305C0AE81BF812D91AE83BF83C8
:103CA4000E94C523503009F051503150EACF4BC027
:103CB4000E94EB200E94D7200E9487242E2F2A30B6
:103CC40030F003FF02C0295C01C0295A01C0205D05
:103CD40004FD1BC0213328F40E94CA1F0E948920BE
:103CE40009F409C0531710F000FF01C013C020E20B
:103CF40007FF0BC020E3006102FF07C00B7F4A935C
:103D04000E94D223503009F051500E94C5235030F4
:103D140009F0515031500E94EB200E94D7200E949C
:103D2400AC240E947922E8890E94CA1FFF276627D3
:103D340077270E9487240E94E6200E94EB200E949D
:103D4400F82409F0B5CF00FF08C0503031F05150CD
:103D5400E0E2EA930E94D223F8CF10E098CEA9893A
:103D6400BA890E94B0240E94132569960895FF928F
:103D7400F82E26971A930A93DE0114960E94D823EC
:103D84008D01E0E0EC83ED83EE83EF83DE01189692
:103D94000E94D8230E948C211A930A93E1E3FDE147
:103DA400FA93EA93DE01189668DE19810881289651
:103DB400FF900895BA93AA93A991B991EE27FF278A
:103DC4006D91662311F03196FBCF0895BA93AA93AF
:103DD400AA27BB27E991F9910590002011F01196CB
:103DE400FBCFFD010895662777270E94E1240895FB
:103DF40084E00E94B91E26960895FF276627772738
:103E04000E94E124E0915E280895E6E3F6E2FA9345
:103E1400EA930895ECE6F8E2FA93EA9308950E948F
:103E2400A4153E2EE0300895E7ECF3E0FA93EA930C
:103E3400ECE6F8E2D8CFFA93EA93F201D4CFA6E302
:103E4400B6E20E94511A3E2EE0300895EDEFF3E001
:103E5400FA93EA93ECE6F8E2C6CFFA93EA9380E0A9
:103E64000E94B91E22960895FA93EA93ECE6F8E2CA
:103E7400BACF0E94E12488E00E94B91E2A960895D0
:103E8400ACE6B8E20E94CC03C5CFEA93A1E00E945D
:103E9400C91C3E2EE0300895E0E0F0E060E070E000
:103EA4000895F0E00E944424DF01CB010895BA9301
:103EB400AA930E940E2508950E94B424E983FA83EC
:103EC4006B837C830895ED81FE816F8178850895ED
:103ED400A981BA818B819C810895E985FA85A181A4
:103EE400AA93EA85FB85F296FA93EA93EC81FD8125
:103EF4006E817F810E94E124A1E00C94B608A2A106
:103F0400B3A184A195A10895FA93EA93E885F9856C
:103F14006A857B850E94E124A1E00E945208E0307A
:103F24000895BA93AA931A93E981FA81FA93EA93CA
:103F34000895A0E0B0E080E090E008950E94FA0BBC
:103F44001E2F10300895A8DF0E94BF240895F29612
:103F5400FA93EA93E0E0F0E0FA93EA93A0E0B2E0A7
:103F64000C949B0B0E94DC24E981FA81F29608955B
:103F74000E94B424D0010E94BF24E981FA810895EB
:103F8400A289B389848995890E94E624A1E00895D1
:103F9400A885B9858A859B850895A230E0E0BE078F
:103FA400E0E08E07E0E09E070895E1E0F0E060E0E5
:103FB40070E008950E94B424EC83FD836E837F83B4
:103FC4000895EC85FD85FA93EA93D901E0E0F2E0E7
:103FD4000E947424AE81BF818885998566277727DE
:103FE4000E94E1230E94FA0BE0300895AC85BD8560
:103FF400D296F901F170AE0FBF1F0895EC85FD85CF
:10400400FA93EA93AA85BB858C859D850895E0E0A3
:10401400F1E060E070E00E9487240895AE81BF81E2
:10402400888599850E94E1230E94FA0BE030089567
:104034000E946E24F170AC85BD85D296AE0FBF1F71
:1040440008950E94B024662777270895E0E8F0E0F9
:1040540060E070E00E9487240895EFEFFFEF6FEFB8
:104064007FEF0895AE85BF85888999890895EA8987
:10407400FB89FA93EA93D801E0E0F2E00E94742409
:1040840087DF662777270E94E1230E94FA0B5E2FC1
:1040940050300895AA89BB89D296F801F170EA0FCD
:1040A400FB1F9F01EE85E1700895AA85BB858C8571
:1040B4009D850895EA89FB89FA93EA93A889B989C9
:1040C4008A899B89089564DF0E94E1230E94FA0B88
:1040D4005E2F503008950E946E24F170AA89BB8926
:1040E400D296EA0FFB1F0895AD81BE818F8198851A
:1040F4000895A985BA855E960E94B424F5DF0E94CE
:1041040007250895E981FA816B817C810895A130A6
:10411400E0E0BE07E0E08E07E0E09E070895AF3FD1
:10412400EFEFBE07EFEF8E07EFEF9E070895A6852A
:10413400B78580899189F3CFA985BA851E960E9497
:10414400BA24EF5FFF4F6F4F7F4F0E94C424A985AD
:10415400BA850895ED83FE836F83788708950E945E
:10416400D7240895E889F9896A897B890895AC81FF
:10417400BD818E819F8108950E94CD240895EC8392
:10418400FD836E837F830895EC89FD89FA93EA9316
:104194000895AA89BB898C899D8908950E94C70CBA
:1041A400EC87FD876E877F870895AC85BD858E85F6
:1041B4009F850895EC85FD856E857F850895EC8146
:1041C400FD816E817F810895E887F9876A877B87FF
:1041D4000895E885F9856A857B850895F0DFD8DE42
:1041E4000E9402250895E6DF0E94F8240895EA89D2
:1041F400FB896C897D8908950E94EB240E94E62343
:1042040008950E94B424EA83FB836C837D8308951C
:10421400AA81BB818C819D810895A885B9850E945E
:10422400B02408957E96DF010E94B424F1DF0E9439
:1042340007250895EA81FB816C817D810E94F82421
:104244000895EA81FB816C817D81A885B9851A96E0
:104254000E94BF24E2CF662777270E94DC230895BB
:10426400EF70F070EE0F0E942324EA0FFB1F0895F5
:104274001E960E94B4240E94F8240895A985BA8544
:104284000E94B0240895FA93EA93EB85FC85A285F5
:10429400B38584859585089572DF91CFFA93EA9367
:1042A40048DE0E94FA0BE0300895FA93EA93AE8157
:1042B400BF81888599850C94F80EEC81FD81FA9371
:1042C400EA93A0E00895B0E00E94300F1E2F103052
:1042D4000895AC81BD810E94B024FA93EA93EE81E3
:1042E400FF81A685B7858089918928CEAC81BD815F
:1042F40052962D913C91D9010C91003008953A9336
:104304002A93EE81FF81A489B589BA93AA93ABE07D
:10431400B0E008950E94B024FA93EA9308950E94AD
:10432400B024EE83FF830895E885F985AE81BF81CB
:104334000895E885F9853196E887F9873197AE8144
:10434400BF81AE0FBF1F0C910895E22F2F5FF0E0E5
:10435400E40FF51F00830895EA0FFB1FAB85BC85AE
:10436400ED93FC9301320895DA01EE27A10FBE1FED
:104374000C9100320895EE81FF813196EE83FF8324
:10438400319700830895AE81BF8116960E94BF24A1
:104394000895EE81FF81FA93EA930895E0E0F0E056
:1043A400ED93FC930895D90154964BCED9015A96B6
:1043B4000E94B0240895662777270E94F523089564
:1043C4000E94E124A1E00E945208E0300895F29690
:1043D400E250FE4FDF010E94B024E535AAEAFA0755
:1043E40008950E94B424EF7FFF7F6F7F7070E634DE
:1043F400A1E4FA07A4E56A07A0E07A070895ACEA05
:10440400B9E2F0E0EE0FFF1FAE0FBF1F0895EA8B75
:10441400FB8B6C8B7D8B0895AE81BF81A05CBF4FFD
:104424000E94B0240895AE89BF89888D998D13CFD9
:10443400EE81FF81A085B185FD010E942C240895A1
:10444400EE81FF815CDDD3DE0E94DC230895FA93C4
:10445400EA93FE017296FA93EA9308950E945E131A
:104464001E2F10300895FE013496ECA3FDA3FE0127
:104474007096FA93EA930895E150F04060407040DA
:104484000895FA93EA93AE81BF818885998508954A
:104494002AA13BA1022E032A0895AA8DBB8D3ACFEF
:1044A400A281B3810E9455151E2F10300895EA8D04
:1044B400FB8DA681B781808591850895FD01BC019E
:1044C400F17030970895AA8DBB8D0E94B024E281CB
:1044D4000895EC8DFD8DA289B38984899589089509
:1044E400AA8DBB8D1496EC91E068EC930895EC874B
:1044F400FD876E877F870895EA8DFB8DE581F0E067
:1045040008950E9444240E94DC230895E0E0F2E030
:104514000E947424AF01042E052A0895AA8DBB8D30
:104524000E94B024E181EA930895FA93EA93EF8517
:10453400F88969897A890895EA8DFB8DA689B789F6
:10454400808D918D37CE0E94EB23FA016627772761
:104554000E94072508950E94EB23E0E0F2E060E06A
:1045640070E00E944E24089588279927EA0FFB1FC4
:10457400FA93EA9308951596EC91E40FEC93FA01FB
:10458400EE0FFF1FFE2FE0E09F010895A689B78973
:10459400808D918D0E94E624A1E00E94B608E0304F
:1045A40008951496EC91EF7BEC9308951596EC9195
:1045B400EF5FEC93089516960E94B024F17008956D
:1045C400F901AE81BF81EA0FFB1FEE83FF830895DB
:1045D40036960F01DF010E94B424DF01CB01F901FB
:1045E4003ACE0E94B024E20FF31FED93FC9308959A
:1045F400AE89BF898FCEAE89BF891A960E94B42432
:104604000895EE89FF89A681B781808591850895F3
:10461400AE89BF890E94B0240895E88DF98DA289DE
:10462400B389848995890895AE89BF891496EC91DC
:10463400E068EC930895E181EA93EF89F88DB096F0
:10464400FA93EA930895EE89FF89E581F0E00895ED
:10465400EE89FF89A689B789808D918DBACDEE89BF
:10466400FF89B096FA93EA93E88DF98D0895AD89A0
:10467400BE8950CEAD89BE891A960E94B42408958D
:10468400A989BA898B899C890895E98BFA8B6B8BEC
:104694007C8B0895AD89BE8916960E94BF24AD898E
:1046A400BE890895AD89BE890E94B0240895E98920
:1046B400FA896B897C890895DFDEDF01CB01E98506
:1046C400FA856B857C850E9487240895E985FA859F
:1046D4006B857C8508950E94B424ED87FE876F87DF
:1046E400788B0895ED85FE856F85788908950E94FD
:1046F400370EED87FE876F87788B0895AD85BE856D
:104704008F8598890895AD89BE891496EC91E068E7
:10471400EC930895E7DFAD89BE8952960E94BF24C9
:104724000895AF85B88989899A890895ED89FE89A4
:1047340036960F01DF010E94B4240895ED89FE89A5
:10474400A681B781808591850895FA93EA93FE0145
:10475400BC96FA93EA9308950E94A8121E2FE1E0F2
:10476400E0300895A2970E940E25FE01B8966FCE00
:10477400A889B9891496E1E0EC93A889B9890E94C3
:104784005F0C1E2F08952A93AA89BB89EC89FD89A1
:1047940009950895ED89FE893497ED8BFE8B089574
:1047A400AA89BB89EC89FD89099508950024AF0D78
:1047B400B01D0895EA0FFB1F681F791F0895AE0FFF
:1047C400BF1F861F971F0895EA1BFB0B680B790B0D
:1047D4000895AE1BBF0B860B970B0895EA23FB23AA
:1047E400682379230895EA2BFB2B682B792B0895F2
:1047F400F09560957095E195FF4F6F4F7F4F089549
:10480400EE230E2EFD0121F0F695E7950A94E1F7CB
:104814000895EE230E2EFD01BC0131F0EE0FFF1FB3
:10482400661F771F0A94D1F70895EE230E2EFD011B
:10483400BC0131F076956795F795E7950A94D1F721
:104844000895EE0FFF1FEE0FFF1FEE0FFF1FEE0F79
:10485400FF1F0895F695E795F695E795F695E79584
:10486400F695E7950895EE0FFF1F661F771F0895CD
:10487400E62FF72F60E070E008956E2F7F2FE0E0C1
:10488400F0E008956F2F660F660B762F0895E0957C
:10489400F0956095709508957A9F702D6B9F700DBB
:1048A400F89F700DE99F700D6A9F602D710DFB9F3D
:1048B400600D711DE89F600D711D8827FA9FF02D12
:1048C400610D781FEB9FF00D611D781FEA9FE02DAD
:1048D400F10D681F781F08956E2F6A9FF0016B9F7A
:1048E400F00D08950024112490E1AA0FBB1F001CB1
:1048F400111C0E1A1F0A18F40E0E1F1E01C0A1600F
:104904009A9599F7FD01D00108953F934F935F93D2
:10491400002411244427552730E2AA0FBB1F881F07
:10492400991F001C111C441F551F0E1A1F0A460B09
:10493400570B28F40E0E1F1E461F571F01C0A160FF
:104944003A9559F7FD01BC01D001CA015F914F911D
:104954003F910895DADFFD01BC010895ED91FC91CA
:1049640011970895ED91FD916D917C9113970895A0
:10497400ED91FD916D917D910895ED93FD936D936E
:104984007C9308957E936E93FE93EE930895059021
:10499400F491E02D0895E881F9816A817B8108957D
:1049A400A881B9818A819B810895E883F9836A8308
:1049B4007B830895A083B1838283938308957A933C
:1049C4006A93FA93EA9308959A938A93BA93AA936B
:1049D4000895182E862F612D192E972F712D1B2EB9
:1049E400BF2FF12D1A2EAE2FE12D08953097604080
:1049F4007040089500240A160B0608060906089557
:104A0400EA17FB07680779070895AE17BF078607FB
:104A1400970708955A934A933A932A931A930A93B9
:104A240008955D814C813B812A8119810881089513
:00000001FF
