:0A0000000C94A8010C9400000C946D
:10000A0000000C9400000C9400000C9400000C9466
:10001A0000000C9400000C9400000C9400000C9456
:10002A0000000C9400000C9400000C9400000C9446
:10003A0000000C9400000C9400000C9400000C9436
:10004A0000000C9400000C9400000C9400000C9426
:10005A0000000C9400000C9400000C9400000C9416
:10006A0000000C9400000C9400000C9400000C9406
:10007A0000000C9400000C9400000C9400000C94F6
:10008A0000000C9400000C9400000C9400000C94E6
:10009A0000000C9400000C9400000C9400000C94D6
:1000AA0000000C9400000C9400000C9400000C94C6
:1000BA0000000C9400000C9400000C9400000C94B6
:1000CA0000000C9400000C9400000C9400000C94A6
:1000DA0000000C9400000C9400000C9400000C9496
:1000EA0000000C9400000C9400000C9400000C9486
:1000FA0000000C9400000C9400000C9400000C9476
:10010A0000000C9400000C9400000C9400000C9465
:10011A0000000C9400000C9400000C9400000C9455
:10012A0000000C9400000C9400000C9400000C9445
:10013A0000000C9400000C9400000C9400000C9435
:10014A0000000C9400000C9400000C9400000C9425
:10015A0000000C9400000C9400000C9400000C9415
:10016A0000000C9400000C9400000C9400000C9405
:10017A0000000C9400000C9400000C9400000C94F5
:10018A0000000C9400000C9400000C9400000C94E5
:10019A0000000C9400000C9400000C9400000C94D5
:1001AA0000000C9400000C9400000C9400000C94C5
:1001BA0000000C9400000C9400000C9400000C94B5
:1001CA0000000C9400000C9400000C9400000C94A5
:1001DA0000000C9400000C9400000C9400000C9495
:1001EA0000000C9400000C9400000C94F5130C947D
:1001FA005914BCE5ACC59C85960392C19121909691
:10020A001D03ED01DCFDCCF5BCE5ACC5A86E2C00E8
:10021A00000E060C040087028E02980298029A02C7
:10022A00AF020030224154343544425820446174AC
:10023A006120466C6173682200001201000200000E
:10024A000040EB030324000101020301090220001C
:10025A00010100C032090400000208065000070527
:10026A0081024000000705020240353066328632BC
:10027A0054328832ED0704080A0856085553425387
:10028A000100008003021F00000041544D454C202C
:10029A002020000000000000000000000000000014
:1002AA000000312E30300403090441544D454C20DE
:1002BA00415346004D5343003132333132333132E8
:1002CA0033313233000301002D4E414E00494E4670
:1002DA00000001004030180205001B301A02150008
:1002EA0000302E020E00463220021200543244021E
:1002FA001E006632560202008632740204008832F8
:10030A007602040021307A02080035307E020400A9
:10031A00AB3286020100D4328A022400D6328C0221
:10032A0004000A33B00209000E33B4020300183382
:10033A00BE020C001C33C20202002A33CE020100A4
:10034A007034D0020000F894EE27E8BFE9BFEABF94
:10035A00F091CC01F860F093CC01F8EDF4BFE09392
:10036A00A200A0918000AD7FA160F4BFA09380009D
:10037A0080E090E4A0E0B0E2ED930197E9F7ECEDBC
:10038A00F2E085919591009761F0A591B59105905C
:10039A001590BF01F00105900D920197E1F7FB015D
:1003AA00F0CF8BBF8CBFE0E0E0B9E1B9E2B9E3B9C5
:1003BA00E4B9E5B9E6B9E7B9E8B9E9B9EAB9EBB92F
:1003CA00ECB9EDB9EEB9EFB9EFEFEDBFEFE5EEBF7E
:1003DA00C0E0D0E30C944302AA93E0E0E881F0E0A5
:1003EA003197E55EFF4CA081E0914800E17FEA2B5E
:1003FA00E0934800E0914800E160E0934800789477
:10040A008895E0914800EE7FE093480068C41A930B
:10041A0010E0153040F4E12FF0E0EB5EFF4CA0E075
:10042A00A0831F5FF6CFE1E0E0931A30DAC20E94A0
:10043A00191D10E025E130E3D901EC91E03021F4F7
:10044A002F5F3F4F1F5FF8CFE0E0E12F0E94201D92
:10045A00249608951A93F894EADF1E2F103011F4A7
:10046A007894BFC2A12FB8DFBCC20E94541208956B
:10047A000E94551208950E947C120895E7E0E093C5
:10048A00A2007894C4DF5CD30E9447100E94150C26
:10049A000E941B0C35D00E942C0DE7DFE03011F4CE
:1004AA00A1E00DD0E0913F30E03031F00E945A0BCC
:1004BA00E03009F4CFDF01C0CDDFF4CFFFCFAA933C
:1004CA00E881E03011F0D4DF01C0D5DF08C40E9412
:1004DA001B0C08950E94210C0895E0913F30E030F2
:1004EA0009F408950E948A12DF010E94340C0895CB
:1004FA00E1E0E0933F30E4C0E0E0E0933F3008956C
:10050A00DBD00895E9D0E13011F4E0E001C0E2E087
:10051A0008950E948618EFEFFFE360E070E00E9402
:10052A00DE1CE0E027C4E0E008950E948B1810F07A
:10053A00E1E008C00E949F18FDD0A881B981DDD1F1
:10054A0047D1E0E026960895BA93AA93E1E00E9483
:10055A00A41810C40E948B1810F0E1E09CC40E94F9
:10056A009F183CD1A881B981D6D19ED193C4BA93A0
:10057A00AA93E0E00E94A418FDC3AA931A9310E07C
:10058A00E981EF7029F41C5FE981E295EF70E98354
:10059A00E981E37029F41E5FE981E695E695E9832E
:1005AA00E981E17009F41F5FE12F1881E3C3BA936F
:1005BA00AA931A9310E0E981FA81F070309729F42E
:1005CA00185FEA81F070E983FA83A981D6DFE10F27
:1005DA001881E9C30E94FC1C1A9310E00E94B1180A
:1005EA00309749F4105F0E94B1180E94581CE983A1
:1005FA00FA836B837C83A981BA81D9DFE10F1881E1
:10060A00259608950E94B618A130E0E0BE07E0E8FA
:10061A008E07E0E09E0710F0E0E078C4E1E076C4DF
:10062A00A0EAB9E0C2D30895AA93E881F0E030972E
:10063A00B9F40E94BB18E0E4F0E30E94C018E0E0BD
:10064A00FBE167EB70E00E94F71CA0E0B0E080E0FD
:10065A0090E0D0D30E94BB18A0E4B0E31ED401C03E
:10066A003EC33DC3AA93E881F0E0309731F40E947B
:10067A00BB18A0E4B0E316D401C031C330C3AA93B7
:10068A000E94BB18FE0132960E94C518CAD327C31E
:10069A000E94CA18EA81FB810E94C518E1D36AC385
:1006AA000E94CA180E94CD18DBD330C40E94CA180F
:1006BA000E94CD18B6D32AC4B3DFE0E0E0934130FC
:1006CA00E1E00895AA93E881E03019F0A981ACDF4E
:1006DA0002C0A981C7DF4EC31A930A9300E010E053
:1006EA00113098F41A930E94D418ADB7BEB70F937D
:1006FA00CFDF0F911A93A0E0E5DFE02FEC73EC3324
:10070A0010F4E0E003C01F5FEBCFE1E0099119911B
:10071A0008951A930E94DA180E94D418ADB7BEB78A
:10072A001F93B6DF1F9117FFF9CF0E94DA18A0E0D6
:10073A00C9DF57C10E94B6180E94E71863DFE0308C
:10074A0011F4E0E0E3C30E94ED1801D0DFC30E9478
:10075A00F01811F4E0E03AC40E94FB1809F0D9DF5E
:10076A00E0E0E09341300E94DA18A1E0ABDFA2EDAD
:10077A000E940B197F936F93FF93EF930E941A19AC
:10078A00AF91BF918F919F910E9420197F936F9390
:10079A00FF93EF930E9428197F936F93FF93EF9330
:1007AA000E943519AF91BF918F919F910E94321C7F
:1007BA00AF91BF918F919F910E943919A5E55FDF93
:1007CA00A5E55DDFA5E55BDFA5E559DFE1E0FEC351
:1007DA000E94DA18A0E076DFE0E08CC00E94B6182A
:1007EA000E94E7180FDFE03011F4E0E08FC30E94A7
:1007FA00ED1801D08BC30E94F01811F4E0E0E6C3B3
:10080A000E94FB1809F085DFE0E0E09341300E9486
:10081A00DA18A1E057DFA3E50E940B197F936F93C3
:10082A00FF93EF930E941A19AF91BF918F919F91F5
:10083A000E9420190E944619AA8121DFA9811FDF7F
:10084A00A8811DDF0E94DA18A0E03CDF62DF0E9467
:10085A00DA18A1E037DFA2E80E940B197F936F93A1
:10086A00FF93EF930E941A19AF91BF918F919F91B5
:10087A000E9420197F936F93FF93EF930E94281988
:10088A007F936F93FF93EF930E943519AF91BF91B6
:10089A008F919F910E94321CAF91BF918F919F912E
:1008AA000E943919E1E092C30E944919EF7FF17061
:1008BA00607070707F936F93FF93EF93AFEFB1E027
:1008CA0076DEAF91BF918F919F910E94521969F084
:1008DA00A0E0D5DEA2E4B0E30E94D91CEF5FFF4F8F
:1008EA006F4F7F4F0E94E31CDFCF0E94DA18A0E00F
:1008FA00E9DEE1E0E09341300895BA93AA930E94B9
:10090A00571939F0A6E4B0E314D0A6E4B0E31CDE2C
:10091A00F6CFE1E02FC2BA93AA930E94571939F091
:10092A00A6E4B0E324DEA6E4B0E32AD0F6CFE1E001
:10093A0021C20E945E1931F0E0E0E09341300E944A
:10094A006B1905DF0E947419C8F40E947A19A8DE8F
:10095A000E9481190E9428197F936F93FF93EF9346
:10096A000E943519AF91BF918F919F910E945219A0
:10097A0021F42EDF0E946B19EADEE4CFE1E08BC29C
:10098A000E945E1919F00E946B1935DF0E947419D2
:10099A0010F50E947A198ADE0E948119EC81FD8184
:1009AA00E050FE4FEC83FD830E9428197F936F93DA
:1009BA00FF93EF930E943519AF91BF918F919F9149
:1009CA000E94521939F40E94DA18A0E07BDEE1E0B5
:1009DA00E0934130DBCFE1E05EC21A931FB7F8948F
:1009EA00E12F199108950E948F190E949919C2C185
:1009FA00AA931A93E0E0E2E0E0935200EEDF1E2FA2
:100A0A00A0E5B0E00A2E0E949919B4C10E948F197C
:100A1A00AC91E981E095EA23A02DEC931FBF1881E0
:100A2A00A9C1AA93A881A83011F0DDDF02C0A8816C
:100A3A00DFDF55C1AA93E0E0E0915100A881EA23E3
:100A4A004EC10E94A119E130A0E0FA07A9F4E0E042
:100A5A00A981A83031F4A4E0E4DFE0915600E16016
:100A6A0003C0E0915600EE7FE0935600E0916800E3
:100A7A00E160E093680030C0E230A0E0FA0759F57F
:100A8A00E0E0E0915600E97FE0935600A981A830A2
:100A9A0031F4A4E0C6DFE0915600E26014C0A981F7
:100AAA00A43029F4A6E5B0E0EC91EC930EC0A9813C
:100ABA00AF3F59F4E0E8E0936500EBEBE0936600A2
:100ACA00E0915600E460E0935600E0916000E16036
:100ADA00E093600001C0E0E01FBF188164C1BA93CF
:100AEA00AA93EA81F0E0E130A0E0FA0739F4E8815C
:100AFA00E0936A00E981E0936B000CC0E230A0E069
:100B0A00FA0739F4E881E0936200E981E09363002F
:100B1A0001C0E0E048C1AA93A8818CDFE030E1F38C
:100B2A00DEC0AA93E1E4F0E0FA93EA93EA81AB81AA
:100B3A00EA2BAE2F0E9459181DC10E94A919CFC0D5
:100B4A000E94171D00E710E020E030E0373038F44B
:100B5A00D8010F5F1F4FEFEFEC933F5FF7CFE1E054
:100B6A00E03019F4E0E0E03021F0E4E0EA93A0E0BC
:100B7A00D8DFECE1F0E0AE2FE0DF5E2FEDE1F0E050
:100B8A00AE2FDBDF4E2FEFEFFFEFE417F50711F47F
:100B9A0040E453E2E2E0EA93DA01A1DFE1E0E13086
:100BAA0049F4A2E03EDFA2E0B6DFE2E0EA93AFEF6B
:100BBA0048DF11C0E23029F4A4E033DFA4E0ABDF60
:100BCA000AC0E33029F4A8E02CDFA8E0A4DF03C0C0
:100BDA000E941E1D60C1E0E4F0E0FA93EA93A1E0EE
:100BEA000E945918E0E0203011F4A1E00FDF0E94C2
:100BFA001E1D51C10E94A119E059FF4F0F01A0818A
:100C0A00E981E095EA23D001EC931FBF1881CBC09C
:100C1A00AA931A93E0E0A981A63011F418E101C061
:100C2A0010E0E0E0E030B1F4A2E004DFE03041F4AB
:100C3A00A2E0F7DEA2E06FDFE2E0EA93AFEF01DFC6
:100C4A00E4E4F0E0FA93EA93E12FE360AE2F0E9426
:100C5A00591801C0E0E0E0E0EA93A0E4CBDF188194
:100C6A0089C0BA93AA931A9310E01830A8F4E12F16
:100C7A00A1E0B0E00E941D1CAB81B0E0EA23FB2397
:100C8A00309741F0AC81BD815096EE27A10FBE1F6F
:100C9A00EA81EC931F5FE9CFE981E170A1F0E98174
:100CAA00E27031F0EB81AC81BD811596EC9305C001
:100CBA00EB81AC81BD811696EC93EB81AC81BD8151
:100CCA001196EC9305C0EB81AC81BD811296EC9331
:100CDA001881E1C00E94B01902C00E94B61921967B
:100CEA000895AA93A881F6DFAE2FF7DF7CC578C5F1
:100CFA00AA931A930A93AB81F4DF8F01EA81E03059
:100D0A0031F0AB81F4DFD8011596EC9305C0AB81C5
:100D1A00EEDFD8011696EC9319810881F7C0AA93E1
:100D2A00E881EA93A0E0E4DF5EC5AA93E881EA934A
:100D3A00A1E0DEDF58C5BA93AA93E881F981A181BF
:100D4A00E0E2EA2317C0BA93AA93E881F981A18164
:100D5A00E0E4EA230FC00E9486181196E0E4EC93BF
:100D6A0009C0AA93E881A981BA81EC931CC00E94A8
:100D7A008618EC9122960895AA93A981BA81DBDF9D
:100D8A00E030D9F3E981FA81FA93EA93AA81E9DF9B
:100D9A00A981BA81D8DFE030D9F3A981BA81DBDF32
:100DAA00A981BA81E4DF239608950E94BE1911F43D
:100DBA00E3E01CC00E94C71921F4E3E0EA93A0E231
:100DCA0017C00E94CE1911F4E4E010C00E94D51990
:100DDA0021F4E4E0EA93A0E20BC00E94DC1911F4CA
:100DEA00E5E004C00E94E31921F4E6E0EA93A0E1F9
:100DFA0001DF4FC50E94FC1C2697EA85FB856C859E
:100E0A007D850E944619EE85EC83E0E0ED83E98951
:100E1A00FA89FA93EA93DE0112960E9416116396F2
:100E2A000895BA93AA931A930A9300E010E0EA810C
:100E3A00FB81309789F00E94EA19F801AE81BF81DF
:100E4A00AE0FBF1FAC9198DFEA81FB813197EA832D
:100E5A00FB830F5F1F4FEBCFE0E019810881B6C01B
:100E6A00BA93AA93E881F9813097A1F0EC81FD81C8
:100E7A00FA93EA93AFEF80DFAA81BB81EC93E88112
:100E8A00F9813197E883F983EA81FB813196EA8314
:100E9A00FB83E8CFE0E0269608950E948618AC917D
:100EAA003EDF34C00E948618AC913FDF2FC0E4C2F7
:100EBA00AA931A93A981A13048F4E981AEE0EA9F86
:100ECA00F001EA5BFD4C0E94EF1901C0E1E01E2F20
:100EDA00E12F1881DEC4BA93AA931A93AB81A13089
:100EEA0088F4EB81AEE0EA9FF001E85BFD4CDF019C
:100EFA000E94CF1CFF93EF93A981BA81EF91FF91D2
:100F0A00099501C0E1E01E2FE12F1881249608956A
:100F1A00AA931A93A981A13048F4E981AEE0EA9F25
:100F2A00F001E65BFD4C0E94EF1901C0E1E01E2FC3
:100F3A00E12F1881AEC4AA93A881BB27119754F454
:100F4A00E881AEE0EA9FF001EE5AFD4CDF010E9413
:100F5A00CF1C02C0E0E0F0E046C4BA93AA931A9309
:100F6A006FD4AF81A13088F4EF81AEE0EA9FF0013F
:100F7A00E25BFD4CDF010E94CF1CFF93EF930E94BE
:100F8A00F419EF91FF91099501C0E1E01E2F5CD49D
:100F9A001BC0BA93AA931A9359D4AF81A13088F48B
:100FAA00EF81AEE0EA9FF001E05BFD4CDF010E94B9
:100FBA00CF1CFF93EF930E94F419EF91FF910995CB
:100FCA0001C0E1E01E2F46D4E12F1881289608952A
:100FDA00E0E0E093CC32E093CB3269DFE093B832C1
:100FEA00E03009F454C2E091B832E150E093B832EB
:100FFA000E947D02E03009F44AC270D03DC2E0E0AE
:10100A00E093CC320E94810208950E94FD1911F5E5
:10101A00E0912530E076E032E9F4E0912630F0E024
:10102A00EE3FA0E0FA07B1F40E94021AE130A0E014
:10103A00FA0709F02CC20E94071A09F028C2E8EB45
:10104A00F2E3E0932D30F0932E30E1E0F0E00E94DD
:10105A000D1A12C2E0912530E07811F5E0912530A1
:10106A00E076E032E9F4E0912630F0E0EF3FA0E0EC
:10107A00FA07B1F40E94021A309709F008C20E94D6
:10108A00071A09F004C2E0E0E093CB32E093CC32D5
:10109A00A2E00E949113A1E80E9491131FD0ECC113
:1010AA00F6C1F5C1E091CB32E03009F40895A2E02F
:1010BA000E94DD12E2E0EA93A7E5B8E00CC0E091F5
:1010CA00CB32E03009F40895A1E80E94DD12E1E88C
:1010DA00EA93A4E6B8E00E94C6130895E2E0EA9310
:1010EA00E1E0EA93ECE8F2E3FA93EA93EFE1F0E065
:1010FA00FA93EA93ACE8B8E00E941213E03031F4B4
:10110A00E2E0EA93A3E7B8E00E94C6130895AA931F
:10111A00E881EB81E03009F08AC4E981FA817F979E
:10112A0081F4A0918C32B0918D3280918E3290915F
:10113A008F32A535E3E5BE07E2E48E07E3E49E07B6
:10114A0031F0E1E0E093CB32ADDFB9DF70C4E0917A
:10115A009932EF70E0939932A0919932E091B832C6
:10116A00EA1718F40E94121A62C4E0919432F091BC
:10117A00953260919632709197320E94161AE091D8
:10118A009B32F0E0E330A0E0FA0711F418D13DC039
:10119A00E231A0E0FA0711F424D137C0EA31A0E025
:1011AA00FA0719F4A0E07AD130C0EA35A0E0FA07CC
:1011BA0019F4A1E073D129C0309711F46AD125C07E
:1011CA00E532A0E0FA0711F4CBD11FC0EB31A0E061
:1011DA00FA0721F0EE31A0E0FA0709F404C0EF3271
:1011EA00A0E0FA0711F4C1D00FC0E832A0E0FA0774
:1011FA0019F4A1E013D209C0EA32A0E0FA0719F4FF
:10120A00A0E00CD202C0CFD038D011C4AA93E0918A
:10121A009832A881AE27A07839F40E941F1A0E943A
:10122A00B1180E94121D20F40E94121AE0E060C355
:10123A00E1E05EC3AA93E1E8EA93E1E0EA930E945F
:10124A00281AEC81F0E0FA93EA93A3E3B9E00E944A
:10125A001213E03011F498D010D0C4C3AA93E881D5
:10126A00EB81E03009F0E3C380D00E941F1AE981C4
:10127A00FA810E942D1A01D0DAC30E94341A0E9400
:10128A000E1D49F0E0919832E07811F0A1E801C012
:10129A00A2E00E94DD12E0919032F09191326091C9
:1012AA00923270919332E093AF32F093B0326093FE
:1012BA00B1327093B2320E94341A0E94161A01D0C7
:1012CA000895E1E8EA93E0E0EA93EBEAF2E3FA93BD
:1012DA00EA93EDE0F0E0FA93EA93AFE7B9E00E940F
:1012EA001213E03031F4E1E8EA93A6E6B9E00E948D
:1012FA00C6130895AA93E881EB81E981FA81EEDEAB
:10130A0096C3E9EBF2E30E94C018A2E1B0E00E94A2
:10131A007618E0EFE093B932EAE0E093C03208953C
:10132A000E94FC1CEEDFE1E0E093B732EE81E0932D
:10133A00BB320E94ED1CE8E10E94321CE093BC32F1
:10134A000E94E81C0E94581CE093BD32E8E00E940B
:10135A00321CE093BE32E881E093BF32ED81E09324
:10136A00C532EC81E093C6322DC2CBDFE0E0E093D8
:10137A00B7320895E2E0EA93E0E0FAE318C0E6E063
:10138A00EA93E0E0F8E213C0E4E0EA93E0E0F0E098
:10139A000EC0E7E0EA93E0E0F7E209C0E5E0EA938D
:1013AA00E0E0F4E204C0E5E0EA93E0E0F0E2FA9378
:1013BA00EA93A0E0B0E080E090E0B2DF08951A93EB
:1013CA00E0919F321E2F133108F012E10E943D1A5C
:1013DA0009F49BC1E9EBF2E3FA93EA93A12F2ADF1E
:1013EA0094C11A930A9310919F32153208F014E2AD
:1013FA000E943D1A09F452C5E0919C32E37021F42F
:10140A00E0919D32E03019F00E94121A47C5E6EECB
:10141A00F2E3FA93EA93A09199328DDD3196FA9329
:10142A00EA93A0E1B0E00E94641800E0003169F09C
:10143A00A6EEB2E3EE27A00FBE1FEC91E03011F04A
:10144A00E23209F402C00F5FF1CF003149F0A6EE93
:10145A00B2E3EE27A00FBE1FE0E2EC930F5FF5CFD9
:10146A00E6EDF2E3FA93EA93A12FE4DE17C5A09121
:10147A0099321EDDE03011F4E1E00895E33011F411
:10148A007EDF05C0E23011F475DF01C07DDFE0E0E8
:10149A000895EDDFE03009F068DF7BC0AA93649716
:1014AA000E94171DFE0136960E94C018A4E1B0E002
:1014BA000E947618EA8DE03039F03091A332FE01AD
:1014CA003E96AF0118E006C030919F32FE013A966F
:1014DA00AF0114E0E0919D32EF730E2F0C3111F041
:1014EA000F3359F4DA01ECE1EC931196EAE0EC934C
:1014FA00DA011396E5E0EC93145F131708F4312F21
:10150A00E32FF0E00E94621C0E94481A29F1A09180
:10151A009932FEDCE03011F0E0E801C0E0E02E2F65
:10152A00EA8DE03079F0E12FF0E032970F01EF2FEA
:10153A00F0E0DF01F02DE0E0EA2BFB2BEE83FF83E6
:10154A00298704C0E12FE150EE832887FE013696F1
:10155A00FA93EA93A32F6EDE0E941E1D6B960895DE
:10156A00E8E0F0E060E070E00E94481A09F40895AB
:10157A00E0919932EA93AAEFB2E3ADDCE03059F098
:10158A00E33011F4FCDE05C0E23011F4F3DE01C0F1
:10159A00FBDE73DE0895E0E0F0E062E070E0E093E5
:1015AA00FE32F093FF3260930033709301330E944E
:1015BA004F1A0E94581C662777270F01BB01EF2F8D
:1015CA00F0E0DF01F001BB010E94581A7F936F938C
:1015DA00FF93EF930E944F1A66277727EF2FF0E0C9
:1015EA00DF010E944F1A662777270E94581A0E9425
:1015FA005D1CAF91BF918F919F910E94101CE09347
:10160A00FA32F093FB326093FC327093FD32EAEFC8
:10161A00F2E3FA93EA93A8E00DDE0895AA932497D9
:10162A00EC81E03041F4A091993272DCE03019F09B
:10163A00B0DE23DE5DC1E0919D32E093D132E091CC
:10164A009E32E093D032E0919F32E093CF32E09124
:10165A00A032E093CE32E091A232E093D332E0910D
:10166A00A332E093D2320E945F1A88279927E0E0DA
:10167A00F2E060E070E00E94741C0E9446190E9429
:10168A00E81C0E94F71CE885E03011F0E0E801C090
:10169A00E0E0AE2FBBDDE03009F42AC1EC81E09333
:1016AA00CD32E1E0E093CC3223C11A93E091CC32FF
:1016BA00E03011F4E0E029C0E0E0E093CC32E091C0
:1016CA00CD32E03021F00E94641A47DC03C00E9448
:1016DA00641A5FDC1E2FE12FF0E0309711F445DE2B
:1016EA0012C0E330A0E0FA0711F449DE0CC0E23080
:1016FA00A0E0FA0719F43EDE06C004C0E130A0E01B
:10170A00FA07D9F741DEB9DDE1E019910895AA9304
:10171A00E881E981FA81EB81E03011F0E1E001C072
:10172A00E0E0E093D532E1E0E093D43280C1BA93AD
:10173A00AA93E091D432E03011F4E0E043C0E0E053
:10174A00E093D432EE81E03011F0E1E801C0E2E04A
:10175A00EA93E0E0EA930E94EA190E94EA19EE810C
:10176A00FF81309719F4ECE8FBE002C0EE81FF81BB
:10177A00DF010E941213E03029F4E1E0E093D43251
:10178A00E0E020C0E881F9813097A9F4E091D432F1
:10179A00E030E1F3E091D532E03011F0E0E012C040
:1017AA000E941F1AEA81FB810E942D1AE091D5320C
:1017BA000E94671C07C00E941F1AEA81FB810E94CF
:1017CA002D1AE1E0279608950E94B0190CC00E94D4
:1017DA00B61909C0AA93A881F7DFAE2FF8DF03C0B4
:1017EA00AA930E94721A21960895AA931A930A93A9
:1017FA00AB81F0DF8F01EA81E03031F0AB81F0DFBD
:10180A00D8011596EC9305C0AB81EADFD80116968C
:10181A00EC930BC1AA93E981EA93A981E6DF39C067
:10182A00E8E7EA93A0E00E94781A15C0E8E7EA938D
:10183A00A1E00E94781A0FC0E8E7EA93A0E00DC081
:10184A00EDE1EA93A0E009C0EDE105C0ECE1EA931D
:10185A00A0E003C0ECE1EA93A1E0DCDF08950E9476
:10186A008618E8EEF3E00E94CC1C309721F4E9E7F1
:10187A00EA93A0E0CFDFA881B981E8EEF3E00E9405
:10188A00CC1CE43FA1E0FA0721F4E9E7EA93A1E0DE
:10189A00C1DF22960895ECE1F3E308950E94861AC7
:1018AA000D901C900E948B1A3296DF010E948F1AAB
:1018BA000895AA931A930A93F1DF8F010E94941A4A
:1018CA00EB81FC81E017F10778F4E181E43061F003
:1018DA00EB81FC81E181AA81EA1719F4EB81FC8191
:1018EA0005C00E94941AECCFE0E0F0E0198108816B
:1018FA0025960895AA931A930A93E0910433E03047
:10190A0009F492C00E948B1AE481AB81AE1708F0E9
:10191A008BC00E948B1AE0930733F0930833BEDF23
:10192A008F010E949D1AE017F10708F50E949D1A7F
:10193A00E181E43079F40E949D1AE281AB81EA17D1
:10194A0031F40E949D1AE381AA81EA1709F002C0C4
:10195A00E1E06BC0A0910733B0910833EC91F0E05D
:10196A00EA0FFB1FE0930733F0930833DACF5CC02A
:10197A00AA931A930A93EA81EA930E94A21A11F48B
:10198A00E0E02EC00E94A71AEA810E94AE1A0D91C9
:10199A001C91EA81EA93F8010E94B41AAE2FAADFD9
:1019AA00E03011F4E0E01CC022970E949D1AE883FF
:1019BA00F983E881F981FA93EA93A5E07ADF0E9434
:1019CA00B91A309731F0E881F981A2810E94C812D0
:1019DA00F0CF2296F80102801380F0010995E1E028
:1019EA001981088123960895AA931A930A93EB8181
:1019FA00EA93AB817FDFE030B9F0009107331091B1
:101A0A0008331A930A93A5E054DF8F01002E012AA6
:101A1A0089F0F801A281AA93A381AA93A481B5812E
:101A2A000E949D12E03029F4E0E019810881249691
:101A3A000895E7CF0E94A71AEB810E94AE1A0E946E
:101A4A00CF1C0E94EF19198108810C949B120E94E5
:101A5A00FA1108951A93E0910433E03051F010E03E
:101A6A000E948B1AE4811E1720F4A12F81DF1F5FC9
:101A7A00F7CFE0E0E0930433E1E0F0E0E0930233F3
:101A8A00F09303330C947A121A93E0910433E03002
:101A9A00F9F010E00E948B1AE4811E17C8F40E9424
:101AAA00A71AE12F0E94AE1A0E94CF1C3896DF01B6
:101ABA000E94CF1C309751F00E94A71AE12F0E9472
:101ACA00AE1A0E94CF1C38960E94EF191F5FE2CF10
:101ADA000C947A12A0912B30B0912C30129709F005
:101AEA00B1C2E2E0F3E30E94BC1AAAC20E94C21A7F
:101AFA00129709F0A7C2E0912930AE2F0E94D112A5
:101B0A00E03019F0E1E0F0E002C0E0E0F0E0E0935C
:101B1A004433F0934533E4E4F3E30E94BC1A90C2E1
:101B2A000E94021A309709F08DC2A0912730B09115
:101B3A002830119751F4E0910233F0910333ED7F8D
:101B4A00E0930233F09303337BC27CC20E94021AF1
:101B5A00309709F077C20E94071A31F4E0912930D0
:101B6A00AE2F0E94EE1208956DC20E94021A30979B
:101B7A0009F068C20E94C71AE130A0E0FA0709F426
:101B8A0061C260C20E94021A309709F05BC20E94C9
:101B9A00071A59F4E0912930AE2F0E949113E0916F
:101BAA002930AE2F0E94DD1208954CC2E0912730F1
:101BBA00EF77AE2F0E94821208950E94021A309780
:101BCA0009F040C2EBEDFDE00E94CC1A39C20E9436
:101BDA00191D00E00E94C71AF070309749F4EAE034
:101BEA00F3E3FA93EA93A4E0B0E00E948F121DC0D7
:101BFA00E130A0E0FA0721F409E02EE033E315C052
:101C0A00E230A0E0FA0721F403E028E133E30DC053
:101C1A00E330A0E0FA0721F40CE03DDE9F0105C0A5
:101C2A00E0E00E94201D0C949B12003029F110E084
:101C3A001017A0F4ACE2B3E3E12FF0E0EE0FFF1FC0
:101C4A00EA0FFB1F0F01D901EE27A10FBE1FEC916E
:101C5A00F0E0D001ED93FC931F5FEACFE02FEE0F87
:101C6A00EE5FE0932A33EAE2F3E3FA93EA93A09170
:101C7A002A33BB270E948F12E1E00E94201D0C9498
:101C8A009B121A93E09127301E2FE0912830F0E042
:101C9A00E13069F40E94D11AFA93EA93A0912130B3
:101CAA00B0912230AC91BB270E948F1233C0E23030
:101CBA0029F50E94D11AE1891E1718F0E0E00C9468
:101CCA007A12A0912330B0912430E12FF0E00E94E3
:101CDA00421CAE0FBF1F0E94CF1CFA93EA933296A2
:101CEA00DF010E94CF1CDF010E948F12A0912D30CC
:101CFA00B0912E301196E2E0EC930CC0E33039F447
:101D0A0066DFE03019F4E0E00C947A1203C0E0E0F8
:101D1A000C947A120E94C21AE0912F30F09130305E
:101D2A00AE17BF0720F40E94021A0E940D1AE1E0C2
:101D3A000C947A120E94C21A119709F083C1E4E046
:101D4A00F3E30E94C5180E948F127AC11A930E9467
:101D5A00021A309719F0E0E00C947A120E94871266
:101D6A00E03019F4E0E00C947A120E94C71AF0707D
:101D7A00DF010E94D11AE189F0E0EA17FB0718F4A3
:101D8A00E0E00C947A1266DEE0912730E0930433A7
:101D9A00E03019F4E1E00C947A12A0912330B0916A
:101DAA002430E0910433F0E031970E94421CEA0F9C
:101DBA00FB1FE0930533F093063310E00E948B1A61
:101DCA00E4811E1750F41A93A0E00EDEE03019F4F5
:101DDA00E0E00C947A121F5FF1CFE1E00C947A12E2
:101DEA000E94191D0E94C21A119729F0E0E00E9470
:101DFA00201D0C949B12E0910433E03029F4E0E0BA
:101E0A000E94201D0C949B12E09129301E2F0E94E3
:101E1A008B1AE4811E1728F0E0E00E94201D0C9422
:101E2A009B121A930E94A21A29F4E0E00E94201D34
:101E3A000C949B120E94A71AE12F0E94AE1A2D91B0
:101E4A003C91F9010E94B41AE0934633E6E4F3E3C5
:101E5A000E94C5180E948F12E1E00E94201D0C9476
:101E6A009B121A930A930E94021A309711F0E0E02B
:101E7A0015C0E0910433E03011F4E0E00FC0E091C6
:101E8A0029301E2FE09127300E2FA12F71DDE0306F
:101E9A0011F4E0E003C01A93A02FA6DD099119916D
:101EAA0008950E94FD19A9F50E94021A309709F4B3
:101EBA00C9C0E0912530EF7199F4E0912630F0E045
:101ECA00309711F407DE0895E630A0E0FA0711F41E
:101EDA00D8DE0895E830A0E0FA0711F42BDF089560
:101EEA000E94D61A49F4E0912630F0E0EA30A0E0E8
:101EFA00FA0711F475DF0895E0912530EF71E230A9
:101F0A0039F4E0912630F0E0309711F4EFDD0895CE
:101F1A003FC0E0912530EF71D9F4E0912630F0E02E
:101F2A00E530A0E0FA0711F448DE0895E130A0E0B8
:101F3A00FA0711F4F5DD0895E330A0E0FA0711F489
:101F4A0014DE0895E930A0E0FA0711F4FFDE0895DF
:101F5A000E94D61A49F4E0912630F0E0EB30A0E076
:101F6A00FA0711F47EDF0895E0912530EF71E2302F
:101F7A0079F4E0912630F0E0E130A0E0FA0711F4BC
:101F8A00E5DD0895E330A0E0FA0711F4FBDD0895DA
:101F9A0059C00E94191DE0910433E03021F4E0E0B9
:101FAA000E94201DC3C2E09129301E2F0E948B1A65
:101FBA00E4811E1720F0E0E00E94201DB7C21A93A8
:101FCA000E94A21A21F4E0E00E94201DAFC20E94E2
:101FDA00A71AE12F0E94AE1A2D913C911A93F9018A
:101FEA000E94B41AAE2F86DCE03021F4E0E00E94B1
:101FFA00201D9CC2F90104801580F00109950E94F8
:10200A00201D94C2E0E0F0E00E940D1AE0E0F0E04A
:10201A000E94CC1A0E94DB1A0E94FD1921F40E9428
:10202A00021A309779F0E0912530E07619F439DF19
:10203A00E03031F40E94D61A29F4ABDFE03011F017
:10204A00E1E00895E0E008950E94B0198BC10E9472
:10205A00B61988C1AA93A881F7DFAE2FF8DF82C12B
:10206A00AA930E94721A7EC1BA93AA93AA81F2DF36
:10207A00FA93EA93AC81F4DFEA93AB81BC810E94C4
:10208A003606A5C2E8E70E94E21AE9E70E94E21AC8
:10209A00ECE10E94E21AEDE1EA93A1E0B0E4E4DFA8
:1020AA00E5E20E94E71AE9E20E94E71AEAE20E94E0
:1020BA00E71AE9E10E94E21AEBE10E94E21AEAE178
:1020CA00EA93A0E0B0E0D0DFECE20E94E21A0895C1
:1020DA00BA93AA936091CA01E881F9817A817093CF
:1020EA00CA01C8956093CA01E02D71C20E94861880
:1020FA001496EC91E061EC9341C10E948618149603
:10210A00EC91E860EC933AC1AA93E981FA81A5813E
:10211A00EFE3EA23A881EA2BA981BA811596EC9309
:10212A0056C2E1E0E03029F4E0E8F4E86EE170E05C
:10213A000895E13029F4E0E0FCE66CED72E00895E0
:10214A00E23011F0E33029F4E0E0F0E860E070E01A
:10215A0008951DC01A9310E011E0E3DFDF01CB01FF
:10216A00E12F0E94321CC1C1E0E0E03011F0E13001
:10217A0011F4F0DF0895E23021F4ECDF0E944E1CE6
:10218A0003C0E33021F4E6DF0E944E1C0895E0E02C
:10219A00F0E060E070E008950895E6DF089508959C
:1021AA000E94B019DFC00E94B619DCC0AA93A881A8
:1021BA00F7DFAE2FF8DFD6C0AA930E94721AD2C0F8
:1021CA00AA93A881F3DFCEC0AA93A881F5DFCAC07B
:1021DA000E94BE1919F4E3E00E94EC1A0E94C71982
:1021EA0029F4E3E0EA93A0E20E94FF050E94CE19D7
:1021FA0019F4E4E00E94EC1A0E94D51929F4E4E0EB
:10220A00EA93A0E20E94FF050E94DC1919F4E5E0B6
:10221A000E94EC1A0E94E31919F4E6E00E94EC1AF3
:10222A00ADC0BA93AA931A93AB81BC81D1DF0E9445
:10223A00281AA0EC69DFE981FA81A481A13019F09A
:10224A00A481A33031F4AB81BC811596EC91E26094
:10225A0005C0AB81BC811596EC91ED7FEC93E981C9
:10226A00FA81A481A23019F0A481A33081F5E0EAB1
:10227A00F8E00E94F01A19F411E10E94F51AE0EB55
:10228A00F8E00E94F01A19F415E10E94F51AE0EA42
:10229A00F9E00E94F01A19F419E10E94F51AE0EB2C
:1022AA00F9E00E94F01A19F41DE10E94F51AE0EA19
:1022BA00FAE00E94F01A19F411E20E94F51AE0EA13
:1022CA00FBE00E94F01A19F419E20E94F51A0E9422
:1022DA00281AAB81BC810E94D31C0E94F71C5DDFC7
:1022EA00DF01CB0108D0AB81BC8107DFAB81BC81A8
:1022FA00FDDE188190C10E94FC1C1A930A93EA81A0
:10230A00FB816C817D810E944E1CAE81BF818885D4
:10231A0099850E94121D68F4EE81FF81688579858E
:10232A000E94531C0E949F180E94A71C31978F017C
:10233A0002C000E010E0E12FF070EF70AA85BB85C3
:10234A001796EC93E02FAA85BB851696EC93198114
:10235A0008812C9608951A931FB7F894E12FC5C0E7
:10236A000E94A919219608950E94021BEF5F03C0DB
:10237A000E94021BE150EC931FBF18812296089518
:10238A001A93EAE1F0E0AE2FEBDF1E2F1F3F19F0A0
:10239A001093FA0403C0EFE1E093FA04EBE1F0E0F2
:1023AA00AE2FDEDF1E2F1F3F19F01093FB0403C070
:1023BA00EFE1E093FB0499C0AA93E881E03021F4AD
:1023CA00E0914733E03009F402C0A1E0D1DFE881AF
:1023DA00E03021F0E0914733E03009F002C0A1E09B
:1023EA00C3DFE881E093473376C51A930A93E0E0A6
:1023FA00E0936000A0E30E940D06E091C004E0644F
:10240A00E093C004E1E0E0936000A5DF0E2F10E046
:10241A00163068F4A4E5B3E3E12FF0E00E94401C13
:10242A00AE0FBF1F1196E0E0EC931F5FF1CF10E0F3
:10243A00143058F4A9E01A9FF001E553FC4CDF016F
:10244A00EC91EE7FEC931F5FF3CF9ADFE091C0042B
:10245A00E260E093C004E091C004E068E093C00445
:10246A00E091C004E061E093C004E4E5F3E3E093A3
:10247A00C604F093C704E091C004E062E093C0048C
:10248A00EFEFE093C504E091C804E160E093C8046B
:10249A00E0E0E0934733A5E067DF0FBF1DC4A9C49E
:1024AA001A9359DF1E2FA1E087DFE0E4E093CA0404
:1024BA00E0E2E093CA04E091C104E160E093C10460
:1024CA00E091C904E260E093C904E091C804E064C1
:1024DA00E093C804E091C904E160E093C904E09183
:1024EA00C804E068E093C8041FBF19910895E091F9
:1024FA00C104EE7FE093C1040895AA93E881E093B2
:10250A00C304E9C4E091C3040895E0918433F091CF
:10251A0085330895BA93AA93EA81FB81E0932D301B
:10252A00F0932E30E881F9810E940D1A24960895BD
:10253A00BA93AA932297E0E0AD818FD20E94B91A8A
:10254A00A181A07C11F0E0E01CC0ED81EA93ED814D
:10255A00EA93AC81BD8118D2E881F9810E940E1BF1
:10256A0039F4E881F981A181E7E0EA23E73009F04B
:10257A0001C006C0A881B9811196EC91E062EC9382
:10258A00E1E0269608950E94131BC6D0AA810E94F4
:10259A00181BE0E0EC931BC00E94131B5ED20E9442
:1025AA00B91AA181A47011F0E1E001C0E0E00FC006
:1025BA000E94131B0E94181BEC91E460EC93A88103
:1025CA00B981EC91EE7FEC93AA81A6D0E1E0239643
:1025DA0008950E94201BEA81FB81A181A47011F059
:1025EA00E1E001C0E0E0E03099F0AA81BB811196F8
:1025FA00EC91EB7FEC93AC8158D48F010E942B1B9A
:10260A0039F40E94301BF80107801084F001099503
:10261A00E1E01981088125960895BA93AA93229731
:10262A000E94191DE0E0AD8540D48F01AD8515D219
:10263A00EC83FD83A181A07C11F4E0E069C0EC8108
:10264A00FD810E940E1B51F0EC81FD81A181A470D5
:10265A0011F0E1E001C0E0E0E03009F402C0E0E09E
:10266A0057C079DE3E2F0E942B1B19F43FBFE0E0D2
:10267A004FC0D801EC91E160EC933FBFEA85FB853E
:10268A00D8011196ED93FC93E885F985D801139644
:10269A00ED93FC93D80115960E94351BEE81FF81BC
:1026AA00D8011796ED93FC93EC85E03031F4A885B8
:1026BA00B985109711F0E0E001C0E1E00E943A1BF1
:1026CA00D801EC91EB7FEC93ED85E078E038C1F02E
:1026DA00EC81FD810E940E1B49F4AC81BD81A4D31B
:1026EA00A885B9850E94CC1C309709F404C00E94C1
:1026FA00301BE0E00DC0AC81BD8112960E94351BF3
:10270A00AC81BD8116960E94351BAD85E6D3E1E00A
:10271A000E94201D2E9608950E94201BAC81C5D3CD
:10272A008F01AA81BB81EC91E260EC93D801EC9114
:10273A00E17021F4198108810C9484180E94301BDD
:10274A00D80117960E94CF1C3097B9F0F80107807C
:10275A001084E1E0EA93ED81F0E0E07821F0AB81CA
:10276A00BC81169603C0AB81BC8112960E94CF1C15
:10277A00FA93EA93AF81F0010995198108810C94C3
:10278A008418BA93AA9322971A930A93E0E0AE8127
:10279A0064D1EA83FB83AE8188D38F01EA81FB810E
:1027AA00A181A47011F0E1E001C0E0E0E03081F025
:1027BA000E942B1B11F4E0E00FC0D801EC91E160FC
:1027CA00EC93EC81FD81D8011796ED93FC9303C03D
:1027DA00EC81FD810995E1E0198108812796089528
:1027EA000E94431B1A93E091CB04E07811F0E1E0D8
:1027FA0001C0E0E0E03041F0E0E8E093CA040E9462
:10280A00490D0E9472024EC0BCD2E03009F04AC0A3
:10281A00E091CB04E07111F0E1E001C0E0E0E030CA
:10282A0001F1E0E1E093CA0411E0123040F4A12F73
:10283A0073DFE12FE068AE2F6FDF1F5FF6CF0E94D4
:10284A002F0DE0E0E093C3040E94511BE0E80E94D0
:10285A00511BEBE8F3E3E0935833F09359330ED16D
:10286A0021C0E091CB04E07411F0E1E001C0E0E0A6
:10287A00E03041F0E0E4E093CA04A0E09DDD0E946C
:10288A006C0210C0E091CB04E07211F0E1E001C0EB
:10289A00E0E0E03039F0E0E2E093CA04A1E08CDD48
:1028AA000E946F02199162C00E94431B24970E94E2
:1028BA00171DE091CC04E27011F0E1E001C0E0E004
:1028CA00E03029F48DD2E03009F04DC0E0E0E2E0DA
:1028DA00E093CC04E091C504E987E195EE0F0E2F51
:1028EA00A4E5B3E3E02FF0E0AE1BBF0B9D01A90105
:1028FA00DA010E94CF1CDF01E4E5F3E3AE1BBF0B54
:10290A00FD010E94471C1E2FE12FE695AE2FE12FF5
:10291A00F0E0E17019F0E0E8F0E002C0E0E0F0E099
:10292A00EA0FEE83E0E0AE8198D0EF83F887AF81BB
:10293A00B885EC91E07211F0E1E001C0E0E0E0302E
:10294A0091F0AF81B885EC91EF7DEC93EE81E030A8
:10295A0011F45FD108C0AE81A03811F400D103C0D0
:10296A00E0E0AE81BAD20E941E1D2A96E991EFBF1D
:10297A00F991E991B991A99199918991799169917D
:10298A00F990199009901895BA93AA9322971A93D5
:10299A000A93EE81F0E0E370F070309711F410E4DE
:1029AA0011C0E130A0E0FA0711F410EC0BC0E230DC
:1029BA00A0E0FA0721F0E330A0E0FA0711F410E8EA
:1029CA0001C0E0E0EC81FD8102C0E0E004C0E83033
:1029DA00A0E0FA0711F400E029C0E031A0E0FA070C
:1029EA0011F401E023C0E032A0E0FA0711F402E09A
:1029FA001DC0E034A0E0FA0711F403E017C0E03884
:102A0A00A0E0FA0711F404E011C0E030A1E0FA07EF
:102A1A0011F405E00BC0E030A2E0FA0711F406E079
:102A2A0005C0EF3FA3E0FA0781F607E0AF8115D0B2
:102A3A00EA83FB83AA81BB811196E0E0EC93AA8129
:102A4A00BB81E6E0EC93E02FE12BAA81BB811196D2
:102A5A00EC9319810881289608950E94581B19F051
:102A6A00E1E0F0E002C0E0E0F0E0EA0FFB1FA4E5DD
:102A7A00B3E30E94401CEA0FFB1F2DC2E091C80479
:102A8A00EF7DE093C804E091C804EF7DE093C804A9
:102A9A00ACE5B3E3EC91E260EC930E94631BEF7D3B
:102AAA00EC93ACE5B3E3EC91EF7BEC93E091543318
:102ABA00EF7DE0935433E0915433EF7BE09354334A
:102ACA00E0E0F0E00E94CC1A0E94DB1AE0E0F0E0BD
:102ADA000E940D1AE0E0E09386330895E091863370
:102AEA00E03031F0E33011F0E43009F43ED1C6DFD2
:102AFA00E0915633F0915733E830A0E0FA0709F035
:102B0A000895E5E2F0E30E946D1BA8E0B0E00E94A0
:102B1A006418E091C804E062E093C804E091C80434
:102B2A00E062E093C8040E940710E03011F40BD170
:102B3A0008950E94FD1939F40E94741BE2E0E093A3
:102B4A0086330DD00BC00E94021A309711F401D1BE
:102B5A0008950E94741BE1E00E947E1B08951A9357
:102B6A000A93E0918633E33019F4FFD087DFB4C0CB
:102B7A00E0E00E94861B0E948B1BAE1BBF0B8D01DF
:102B8A00002E012A29F50E94901BE0938733F093C7
:102B9A0088330E94C21AE0918733F0918833EA178A
:102BAA00FB0721F0E0916F34E03011F0DAD094C0E5
:102BBA000E94981B19F00E949E1B09F409C0E0E0CC
:102BCA00E0938933E0938A3300912F3010913030AB
:102BDA000034E0E01E0720F000E410E0E0E001C06D
:102BEA00E1E0E0936F34EEE5F3E3008311830E94A2
:102BFA00A51BE0936033F09361330E94B01BE0930E
:102C0A008933F0938A33ACE5B3E3EC91ED7FEC932F
:102C1A0063C01A930A93E0918633E43019F4A5D07D
:102C2A002DDF5AC0E0E000915633109157330E94CD
:102C3A00B01B0E94861BAE17BF0738F40E94861B82
:102C4A000E948B1BAE1BBF0B8D010E94A51B0E940D
:102C5A006D1BD8010E9464180E94B01BE09389334F
:102C6A00F0938A330034E0E01E0739F40E94901B87
:102C7A000E94C21AEA17FB0770F00E948B1B0E947F
:102C8A000D1A0E94981B29F00E949E1B11F45BD01A
:102C9A0023C05FD021C00E94861B0E948B1BEA17AB
:102CAA00FB07A9F40E94981B11F44DD015C00E948D
:102CBA009E1B11F448D010C00E94901BE0938733EA
:102CCA00F0938833E0E0E0938933E0938A33E0912C
:102CDA005433ED7FE0935433099119910895E091AB
:102CEA00CC04E27011F0E1E001C0E0E0E03019F458
:102CFA0077D0E03009F00895E0918633E13011F49D
:102D0A0028D006C0E0918633E43011F40E94B81B43
:102D1A000895E091CC04E27011F0E1E001C0E0E036
:102D2A00E03019F45DD0E03009F00895E09186337F
:102D3A00E23011F416D006C0E0918633E33011F484
:102D4A000E94B81B0895E5E0E09386330E94B81B01
:102D5A000895E3E0E09386330E94631BED7FEC93D2
:102D6A000895E4E00E947E1B0895E0913130F091CD
:102D7A003230309729F0E0913130F09132300995B4
:102D8A000895E091CB04E47011F0E1E001C0E0E0C5
:102D9A00E03071F0E4E0E093CA04E0915C33E0745F
:102DAA0011F0E1E001C0E0E0E03009F098DF3AC05C
:102DBA00E091CB04E27011F0E1E001C0E0E0E03024
:102DCA0071F0E2E0E093CA04E0915433E07411F048
:102DDA00E1E001C0E0E0E03009F09BDF23C009C078
:102DEA00E091CC04E17011F0E1E001C0E0E0E030F4
:102DFA0011F4E0E00895E1E0E093CC04E09154336B
:102E0A00EF77E0935433ACE5B3E3EC91EF77EC93CF
:102E1A00E1E0E093CA04E0E0E0915433EF7EE0930E
:102E2A0054335CDEE1E00895BA93AA93E881F9810C
:102E3A00E181F0E0E770F07001C002C0309719F448
:102E4A00E8E0F0E030C0E130A0E0FA0719F4E0E190
:102E5A00F0E029C0E230A0E0FA0719F4E0E2F0E07D
:102E6A0022C0E330A0E0FA0719F4E0E4F0E01BC066
:102E7A00E430A0E0FA0719F4E0E8F0E014C0E53025
:102E8A00A0E0FA0719F4E0E0F1E00DC0E630A0E0B6
:102E9A00FA0719F4E0E0F2E006C0E730A0E0FA072A
:102EAA0061F6EFEFF3E0229608950E94581B19F09D
:102EBA00E1E0F0E002C0E0E0F0E0AE0FBF1FE2E0C8
:102ECA00F0E00E94071DEA1BFB0BA9E0B0E00E949C
:102EDA006C1CE553FC4C21960895AA9324970E94F2
:102EEA00171DAA85E2DF8F01AA85B7DDE887F98772
:102EFA00A885B98599DF9F01EA85E078E03809F06D
:102F0A0049C0A885B98516964D915C910E94C31B4C
:102F1A0061F10E94D51B30F00E94E31BAE1BBF0B70
:102F2A00AE83BF83D801EC91E27049F0F901AE811A
:102F3A00BF810E94CC1C309711F4E1E001C0E0E0AF
:102F4A000E943A1BA885B98516960E94351BEE8108
:102F5A00FF81A885B9851296ED93FC930E94EB1B1D
:102F6A000E94F11B0E94F71B9BC0D801EC91E270F2
:102F7A0081F0EC91ED7FEC93A885B98516960E94B5
:102F8A00351BA885B98512960E94351B0E94F71B2E
:102F9A0087C06DC0A885B98512964D915C91D801FC
:102FAA00EC91E47091F00E94EB1BFA93EA93EC85A2
:102FBA000E94FD1BFA93EA93F801A381B481F901F7
:102FCA000E94CC1CDF010E9464180E94C31B40F4BB
:102FDA00D80113960E94CF1CD8011596ED93FC9345
:102FEA00A885B98516960E94CF1CE417F50751F4F7
:102FFA00F80105801680D80113960E94CF1CE015AF
:10300A00F10509F434C00E94D51B18F00E94E31B95
:10301A0007C0F901AE81BF810E94CC1CAE81BF817D
:10302A00AE1BBF0BAE83BF83A885B98512960E94DB
:10303A00351BAE81BF81A217B30758F4D801EC91B2
:10304A00E460EC93EA850E94FD1B0E94F11BF901E2
:10305A0006C00E94EB1B0E94F11BEE81FF81A8852E
:10306A00B9851696ED93FC930E94F71B19C0D801F7
:10307A00EC91E170A9F00E94301BD80117960E94CA
:10308A00CF1C309769F0F80107801084E0E0EA93DA
:10309A00F801A581B681BA93AA93AD85F001099585
:1030AA000E941E1D2B960895AA9360E06BBF68814B
:1030BA00E981FA8178ED74BF608323960895BA9303
:1030CA00AA9399818881009641F0BD81AC81FB81E8
:1030DA00EA8161916D930197E1F7FD81EC81269672
:1030EA000895BA93AA93B981A881109631F0FC8108
:1030FA00EB816A8161931197E9F7EB81FC8125964F
:10310A000895BA93AA93A881B9810895BA93AA9304
:10311A00E881F981AA81BB818C819D816627772705
:10312A000E94061CA130E0E4BE07E0E08E07E0E062
:10313A009E070895AA81BB818C819D810895EA9397
:10314A00E981FA81FA93EA93E0E0F2E0FA93EA93EA
:10315A00A0E0B0E00C949C0BE981FA816B817C8140
:10316A0008950E94FC1C0E94ED1C0895E0EAF9E013
:10317A00FA93EA930895FA93EA93E0E0EA930895BA
:10318A00FA93EA93A1E0B0E00895BA93AA93EECF36
:10319A00EC81FD81FA93EA93AC81BD810895A1E0A7
:1031AA000E946703A7ED0C944403A0914230B091AA
:1031BA0043308091443090914530E7E10E94321CBF
:1031CA00EA930895E9E00E94261CDF01CB010895E5
:1031DA000E94ED1CF7CF0E94FC1C2497AC81BD8194
:1031EA008E819F810E940703E0300895EC81FD8162
:1031FA006E817F81E0934230F09343306093443094
:10320A0070934530E0914130E03008950E944403C4
:10321A00E0914230F09143306091443070914530F2
:10322A00E070FC7F6F7770700895A0E0BCEF8FE7C5
:10323A0090E00C94EF020E94321CDF01CB01EBE01C
:10324A000E94261C0895E0914230F091433060912B
:10325A00443070914530EF7FF3706070707008955C
:10326A00AFEFB3E00C94DC020E94101C0E94F21C27
:10327A00AA810E944403A9810E944403A8810C9454
:10328A0044030E94F21C0895E0914230F0914330C9
:10329A00609144307091453008950E94321C0E941A
:1032AA000E1D0895E881F9813197E883F9833196F3
:1032BA000895BA93AA932497E7DFE050FE4F6F4F21
:1032CA007F4FDFDFE0914130E0300895A091423036
:1032DA00B0914330809144309091453008950E94D6
:1032EA00E81CF4DF0E94121D0895EC81FD81FA9317
:1032FA00EA93A0E0B2E00895C7DFE050FE4F6F4FB7
:10330A007F4FE0934230F0934330609344307093A0
:10331A0045300895AA931A93E0E00E94F2041E2F02
:10332A00A0E5B0E00A2E0895EC91A981EA2BA02D20
:10333A00EC931FBF18810895AA931A930E94F2046E
:10334A001E2FEA81F0E00895AA93E2E0EA93A981A8
:10335A00BB270C946D10AA93E881E695E695E6954D
:10336A000895AA93A881E0E2EA9FF001E050FA4F9B
:10337A000895BA93AA93E0EAF8E0A881B981EA1716
:10338A00FB070895E0EBF8E0A881B981EA17FB078B
:10339A000895E0EAF9E0A881B981EA17FB070895E0
:1033AA00E0EBF9E0A881B981EA17FB070895E0EAA2
:1033BA00FAE0A881B981EA17FB070895E0EAFBE081
:1033CA00A881B981EA17FB070895EE81FF81FA9374
:1033DA00EA930895DF01ED91FD9109950895EB8136
:1033EA00FC816D817E810E94F71CAD81BE810895AA
:1033FA00E0912530E078E0380895E0912B30F091A3
:10340A002C300895E0912730F091283030970895B4
:10341A00E0932F30F093303008950E94D3090C9432
:10342A004209E093B332F093B4326093B5327093A9
:10343A00B6320895A091B332B091B4328091B532C8
:10344A009091B6320895EB81FC81FA93EA9308953C
:10345A00662777270E94011D0E940B1CE2CFE0918C
:10346A00B332F091B4326091B5327091B6320895A8
:10347A00E12FF0E00E94621C0E94F71CA0E80E9463
:10348A000B09E03008950E94F71CA0E80E940B097E
:10349A00E0300895E091FA32F091FB326091FC320B
:1034AA007091FD320895FE2FE0E0EA2BFB2B662790
:1034BA0077270895A091D232B091D3320895E0913E
:1034CA009932EA93E091CE32F091CF326091D032C4
:1034DA007091D1320E94F71CEDCFE881E770A1E02C
:1034EA000E94151C08950E940F0CE9E7EA93A1E0D7
:1034FA000E940F0CECE1EA93A1E00E940F0CEDE1AF
:10350A000895A0910533B09106330895FADF0E9419
:10351A00CF1C08950E94CF1CE00DF11D0895AB81C8
:10352A00BC81EC91F0E0EA0FFB1FEB83FC8308956A
:10353A00E0910733F09108330895A0E00E947F0CD0
:10354A00E0300895E0910533F0910633A281B3810A
:10355A000895F0E0EE0FFF1FAE0FBF1F089506801B
:10356A001780F00109950895E883F9830895FA937D
:10357A00EA93A2E0B0E00C948F12A0912B30B091A4
:10358A002C300895E0912730F09128300895E09387
:10359A003130F09332300895E0912130F0912230A9
:1035AA000895E0912530EF71E1300895E0E0F0E010
:1035BA00E0933330F09334300895EA93A3E0B0E017
:1035CA000C943910EA93A0E0BBE10C943910EA9309
:1035DA00A0E10C94FF05AB81BC81EA17FB070895B3
:1035EA00A12F0E94E510FA93EA93A12F0E94E910F5
:1035FA00EA93A3E0B0E40C943606AA931A93E0E0A7
:10360A000E94B0111E2FA981B0E0AB5EBF4CEC91B5
:10361A000895A181E0ECEA23E03C0895AA93229759
:10362A00E0E0AA8108950E943215E883F983A8810F
:10363A00B98111960895AA9322971A930A93E0E002
:10364A00AC810E943215EA83FB830895D801EC917C
:10365A00E170E1300895D801EC91EE7FEC93089582
:10366A00E0E0F0E0ED93FC930895E170EE0F0E2E8A
:10367A00D801EC91ED7FE029EC9308950A921A9211
:10368A00FA926A937A938A939A93AA93BA93EA9349
:10369A00FA93EFB7EA930895EA93E0E0EA93A0E495
:1036AA00B0E00C94C914AA93E881F0E0EF70F070CE
:1036BA00EE0FDF01E881F0E0E0780895EEE5F3E34C
:1036CA00A0E0B0E0A083B183ACE5B3E3EC91089548
:1036DA00FA93EA93EBE8F3E3FA93EA930895E0E0C6
:1036EA00E0938733E0938833E0938933E0938A3316
:1036FA000895E0938633E0915433ED7FE093543399
:10370A000895A0912F30B09130300895E091893317
:10371A00F0918A330895FADFA0918733B091883304
:10372A00EA0FFB1F0895E0913330F091343030975F
:10373A000895E0913330F09134300995E0300895DE
:10374A00E0912D30F0912E30A0918933B0918A33D7
:10375A00EA0FFB1F0895F801A0918933B0918A33CB
:10376A00EA0FFB1F0895ADE5B3E3EC91E460EC9337
:10377A00E0915533E460E09355330895D8011596E6
:10378A000E94CF1CE40FF51FED93FC93F80105800E
:10379A001680D80113960E94CF1CE015F1050895F2
:1037AA00F80103801480A581B681F001EA1BFB0BA6
:1037BA00EE83FF83E030A4E0FA070895F901AFEF42
:1037CA00B3E00E94CC1CAFEFB3E00895F80101808A
:1037DA001280D80115969ECEA885B9851496ED93C8
:1037EA00FC930895A885B985EC91ED7FEC93089533
:1037FA00F0E031970E94421C0E943E1CE151FC4CB1
:10380A000895AE0FBF1F861F971F0895EA1BFB0B73
:10381A00680B790B0895EA2BFB2B682B792B0895FB
:10382A00EE230E2EEA2F19F0EE0F0A94E9F7089507
:10383A00EE230E2EFD0121F0EE0FFF1F0A94E1F791
:10384A000895EE230E2EFD01BC0131F0EE0FFF1F8D
:10385A00661F771F0A94D1F70895EE230E2EFD01F5
:10386A00BC0131F076956795F795E7950A94D1F7FB
:10387A000895EE0FFF1FEE0FFF1FEE0FFF1FEE0F53
:10388A00FF1F0895F695E795F695E795F695E7955E
:10389A00089576956795F795E7950895EE0FFF1FBA
:1038AA00661F771F0895E62FF72F60E070E00895EE
:1038BA006E2F7F2FE0E0F0E008956F2F660F660B02
:1038CA00762F0895EE23E1E009F0EE270895FA9F96
:1038DA00F02DEB9FF00DEA9FE02DF10D08957A9FF0
:1038EA00702D6B9F700DF89F700DE99F700D6A9F88
:1038FA00602D710DFB9F600D711DE89F600D711D9C
:10390A008827FA9FF02D610D781FEB9FF00D611D3E
:10391A00781FEA9FE02DF10D681F781F0895002493
:10392A00112490E1AA0FBB1F001C111C0E1A1F0ABA
:10393A0018F40E0E1F1E01C0A1609A9599F7FD0199
:10394A00D00108953F934F935F9300241124442795
:10395A00552730E2AA0FBB1F881F991F001C111C94
:10396A00441F551F0E1A1F0A460B570B28F40E0E3A
:10397A001F1E461F571F01C0A1603A9559F7FD0146
:10398A00BC01D001CA015F914F913F910895C7DFF1
:10399A00FD010895ED91FC9111970895ED91FD9126
:1039AA006D917C9113970895ED91FD916D917D91A3
:1039BA000895ED93FD936D937C9308957E936E9392
:1039CA00FE93EE930895E881F9816A817B810895D7
:1039DA00A881B9818A819B810895E883F9836A83E2
:1039EA007B8308957A936A93FA93EA9308959A9354
:1039FA008A93BA93AA930895182E862F612D192EA9
:103A0A00972F712D1B2EBF2FF12D1A2EAE2FE12DC0
:103A1A0008953097604070400895AE17BF07860733
:103A2A00970708955A934A933A932A931A930A93B3
:103A3A0008955D814C813B812A811981088108950D
:00000001FF
