:020000000C945E
:1000020067140C9400000C9400000C9400000C94F3
:1000120000000C9400000C9400000C9400000C945E
:1000220000000C9400000C9400000C9400000C944E
:1000320000000C9400000C9400000C9400000C943E
:1000420000000C9400000C9400000C9400000C942E
:1000520000000C9400000C9400000C9400000C941E
:1000620000000C9400000C9400000C9400000C940E
:1000720000000C9400000C9400000C9400000C94FE
:1000820000000C9400000C9400000C9400000C94EE
:1000920000000C9400000C9400000C9400000C94DE
:1000A20000000C9400000C9400000C9400000C94CE
:1000B20000000C9400000C9400000C9400000C94BE
:1000C20000000C9400000C9400000C9400000C94AE
:1000D20000000C9400000C9400000C9400000C949E
:1000E20000000C9400000C9400000C9400000C948E
:1000F20000000C9400000C9400000C9400000C947E
:1001020000000C9400000C9400000C9400000C946D
:1001120000000C9400000C9400000C9400000C945D
:1001220000000C9400000C9400000C9400000C944D
:1001320000000C9400000C9400000C9400000C943D
:1001420000000C9400000C9400000C9400000C942D
:1001520000000C9400000C9400000C9400000C941D
:1001620000000C9400000C9400000C9400000C940D
:1001720000000C9400000C9400000C9400000C94FD
:1001820000000C9400000C9400000C9400000C94ED
:1001920000000C9400000C9400000C9400000C94DD
:1001A20000000C9400000C9400000C9400000C94CD
:1001B20000000C9400000C9400000C9400000C94BD
:1001C20000000C9400000C9400000C9400000C94AD
:1001D20000000C9400000C9400000C9400000C949D
:1001E20000000C9400000C9400000C9400000C948D
:1001F2000000050720600000000000000004040465
:10020200040400040A0A0A000000000A0A1F0A1F66
:100212000A0A041E050E140F040313080402191817
:10022200060905021509160604020000000008046A
:10023200020202040802040808080402000A041F59
:10024200040A000004041F04040000000000060465
:10025200020000001F00000000000000060600006F
:100262001008040201000E11191513110E040604E0
:100272000404040E0E11100804021F1F08040810C3
:10028200110E080C0A091F08081F010F1010110E89
:100292000C02010F11110E1F1008040202020E11AE
:1002A200110E11110E0E11111E1008060006060085
:1002B20006060000060600060402100804020408EE
:1002C2001000001F001F0000010204080402010EBA
:1002D2001110080400040E11101615150E0E11113E
:1002E200111F11110F11110F11110F0E1101010127
:1002F200110E070911111109071F01010F01011F39
:100302001F0101070101010E11010119110E111145
:10031200111F1111110E04040404040E1C08080814
:10032200080906110905030509110101010101016D
:100332001F111B1511111111111113151911110E84
:1003420011111111110E0F11110F0101010E1111D5
:10035200111509160F11110F0509111E01010E10B9
:10036200100F1F0404040404041111111111110EC1
:1003720011111111110A0411111115151B1111116D
:100382000A040A111111110A040404041F100804BA
:1003920002011F1C04040404041C000102040810CE
:1003A2000007040404040407040A1100000000000A
:1003B20000000000001F0204080000000000000E00
:1003C200101E111E01010D1311110F00000E01016B
:1003D200110E1010161911111E00000E111F010E20
:1003E2000C12020702020200001E111E100C010173
:1003F2000D131111110400060404040E08000C0868
:100402000809060202120A060A1206040404040477
:100412000E00000B1515111100000D131111110022
:10042200000E1111110E00000F110F010100001634
:10043200191E101000000D1301010100000E010E23
:10044200100F0202070202120C00001111111916FC
:1004520000001111110A040000111115150A000003
:10046200110A040A11000011111E100E00001F08CB
:1004720004021F080404020404080404040404041B
:100482000402040408040402021508000000001F0C
:1004920011111111111F000E206005020406060A37
:1004A20007020404040603040303060606060606FE
:1004B200060606060303060606060B0807070706D6
:1004C20006080702050706080708060807070607C1
:1004D200080B0708070303030506040606060606BB
:1004E20004060602020502080606060604060306BC
:1004F200060A0606060402040608000000000000C0
:1005020000000000000000000000000101010101E4
:1005120001000100000000000005050500000000C8
:100522000000000000000014141F0A0A1F05050045
:1005320000000000000E15050E1414150E04000034
:100542000000000000004600290029001600D0002B
:1005520028012801C4000000000000000000000C77
:1005620012120C0A31112E000000000000010101DC
:100572000000000000000000000000040201010170
:100582000101010204000000000102040404040449
:100592000402010000000002070205000000000042
:1005A2000000000000000004041F0404000000001A
:1005B2000000000000000000000002020200000033
:1005C2000000000000000700000000000000000022
:1005D200000000000000020000000000000404020D
:1005E20002020201010000000000000E11111111AF
:1005F20011110E00000000000004060504040404AA
:10060200040000000000000E1110100804021F0078
:1006120000000000000E11100C1010110E0000005E
:10062200000000080C0A0A091F0808000000000068
:10063200001E02010F1010110E0000000000000E3B
:1006420011010F1111110E0000000000001F080817
:1006520004040202020000000000000E11110E113B
:1006620011110E0000000000000E1111111E1011D8
:100672000E00000000000000000100000000010068
:100682000000000000000001000000000101010064
:100692000000000000100E010E100000000000001B
:1006A200000000001F001F0000000000000000000A
:1006B20000010E100E01000000000000000E1110DB
:1006C2000804040004000000000000000000F8001C
:1006D2000601B202C902450245026501D9000202C1
:1006E200FC01000000000008141414223E414100E5
:1006F20000000000001F21213F2121211F000000D6
:100702000000001C2201010101221C000000000067
:10071200000F1121212121110F0000000000001FF4
:1007220001011F0101011F0000000000001F010163
:100732000F010101010000000000001C22410171B3
:1007420041221C0000000000002121213F21212123
:10075200210000000000000101010101010101006E
:100762000000000000080808080809090600000047
:100772000000002111090D0B1111210000000000E1
:1007820000010101010101011F0000000000004100
:100792006363555555494900000000000021232597
:1007A20025292931210000000000001C224141417D
:1007B20041221C0000000000000F1111110F010165
:1007C200010000000000001C2241414159225C004E
:1007D20000000000001F21211F091111210000004B
:1007E2000000001E2101061820211E00000000004A
:1007F200001F04040404040404000000000000219B
:100802002121212121211E0000000000004141225E
:100812002214140808000000000000000000210457
:100822005104520252028A028A02040104010000A7
:10083200000000000000002112120C0C1212210014
:1008420000000000004122221408080808000000ED
:100852000000003E1008080404023F0000000000EF
:100862000003010101010101010103000000000177
:10087200010202020204040000000000000302025E
:100882000202020202020300000000040A0A11002E
:100892000000000000000000000000000000000056
:1008A20000003F0000000001020000000000000004
:1008B200000000000000000E111E111916000000B9
:1008C20000000001010D131111130D0000000000C2
:1008D2000000000E110101110E00000000000010C6
:1008E2001016191111191600000000000000000E68
:1008F200111F01110E000000000000040207020295
:100902000202020000000000000000161911111975
:1009120016100F0000000001010D1311111111003A
:1009220000000000000100010101010101000000BE
:1009320000000002000202020202020201000000A4
:10094200000101090503050509000000000000017E
:100952000101010101010100000000000000003D51
:100962004B4949494900000000000000000F1111E5
:1009720011111100000000000000000E11111111F0
:100982000E00000000000000000D131111130D01F4
:1009920001000000000000161911111916101000B4
:1009A2000000000000050301010101000000000039
:1009B2000000000E110608110E00000000000002E7
:1009C20002070202020206000000000000000011FD
:1009D2001111111916000000000000000011110A87
:1009E2000A040400000000000000000000000000F3
:1009F20011012901AA00AA004400440000000000DD
:100A020000000000000000110A04040A11000000A6
:100A1200000000000011110A0A0404040200000090
:100A22000000001F080404021F0000000000000470
:100A3200020202010202020204000000000101019E
:100A42000101010101010100000000020404040887
:100A5200040404040200000000000000170D00005E
:100A620000000000000000007E42424242427E003E
:100A72000000000E206005030506060908030404B1
:100A82000406030403030606060606060606060611
:100A92000303060606070B080708070606080703EE
:100AA2000607070A0708070807070707080B0808C9
:100AB20007040304060604060706070705070703DB
:100AC2000307030B0707070705070507070A0707B9
:100AD20006040304060800000000000000000000F5
:100AE20000000000000000030303030300030300EF
:100AF20000000000001B1B1B0000000000000000A3
:100B020000000024243F12123F09090000000000E7
:100B1200040E15050F1E14150E040000000000003F
:100B220000002700250015001700E800A800A40017
:100B3200E4000000000000000000001C36360C5EDD
:100B420073337E0000000000000303030000000076
:100B52000000000000000004060303030303020672
:100B6200040000000001020206060606020301005C
:100B72000000000207020500000000000000000063
:100B820000000004041F0404000000000000000034
:100B9200000000000003030201000000000000004A
:100BA200000007000000000000000000000000003C
:100BB200000303000000000000040402020202011C
:100BC200010000000000000E1B1B1B1B1B1B0E0064
:100BD20000000000000C0E0F0D0C0C0C0C000000AD
:100BE2000000000E1B18180C06031F000000000076
:100BF200000E1B180C18181B0E0000000000001835
:100C02001C1A1A193F18180000000000001E0603E3
:100C12000F19181B0E0000000000000E1B030F1B13
:100C22001B1B0E0000000000001F180C0C0606061D
:100C3200060000000000000E1B1B0E1B1B1B0E00FB
:100C420000000000000E1B1B1B1E181B0E000000E4
:100C52000000000000030300000303000000000086
:100C62000000000303000003030201000000000073
:100C7200100C03030C100000000000000000000034
:100C82001F001F00000000000000000001061818ED
:100C92000601000000000000001C3630180C000C99
:100CA2000C000000000000000000F8000601FA023B
:100CB200C902450245026501FA000603F800000078
:100CC20000000038386C6C6CFEC6C60000000000E4
:100CD200001F33331F3333331F0000000000003C7A
:100CE2006603030303663C0000000000001F333369
:100CF200333333331F0000000000001F03031F03C0
:100D020003031F0000000000001F03031F0303036F
:100D1200030000000000003C6603037363663C00AE
:100D220000000000003333333F333333330000001D
:100D32000000000303030303030303000000000099
:100D4200001818181818181B0E00000000000033B5
:100D52001B1B0F1F1B3333000000000000030303A3
:100D6200030303033F000000000000000000C7016E
:100D7200C701EF01EF01AB01BB01BB019301000011
:100D820000000000000000333337373B3B333300B1
:100D920000000000001C3663636363361C00000021
:100DA2000000001F3333331F030303000000000061
:100DB200001C366363636B363C4000000000001F7A
:100DC2003333331F1B33630000000000001E330364
:100DD2000F3C30331E0000000000003F0C0C0C0CD6
:100DE2000C0C0C0000000000003333333333333378
:100DF2001E0000000000006363363636361C1C00FD
:100E0200000000000000000023067306760356036C
:100E12005603DE038C018C0100000000000000007C
:100E22000066663C18183C6666000000000000661A
:100E320066243C181818180000000000003F301803
:100E42000C0C06033F00000000000007030303032D
:100E5200030303030700000000010102020202046F
:100E62000400000000000007060606060606060645
:100E72000700000000040E0A1B0000000000000032
:100E82000000000000000000000000003F00000021
:100E92000003060000000000000000000000000047
:100EA200000E191E1B1B1E00000000000003031F82
:100EB200333333331F00000000000000000E1B0319
:100EC200031B0E00000000000030303E333333338A
:100ED2003E00000000000000001E333F03331E00EE
:100EE20000000000001C060F0606060606000000B1
:100EF20000000000003E333333333E311E00000059
:100F02000003031F333333333300000000000003B8
:100F120000030303030303000000000000060006B1
:100F220006060606060603000000000303331B0F35
:100F32001F1B33000000000000030303030303032D
:100F42000300000000000000000000000000FF019C
:100F52003303330333033303330300000000000081
:100F620000000000001F3333333333000000000061
:100F72000000001E333333331E0000000000000067
:100F8200001F333333331F03030000000000003E11
:100F9200333333333E30300000000000000F0303D0
:100FA20003030300000000000000001E330F3C3367
:100FB2001E00000000000004060F060606060C00D4
:100FC2000000000000000033333333333E000000E2
:100FD2000000000000363636361C1C0000000000FF
:100FE20000000000000000009301BB01BB01EE0005
:100FF200EE00C60000000000000000000000003605
:10100200361C1C3636000000000000000063363635
:10101200361C1C0C070000000000001F180C060301
:101022001F0000000000000C060606060306060666
:101032000C0000000002020202020202020202008E
:1010420000000003060606060C0606060300000062
:101052000000000016090000000000000000007EF1
:101062004242424242427E000000070E20600000DF
:10107200000000000000000000000000000000006E
:101082000808080808000800000000000000141406
:1010920014000000000000000000000028143E14AC
:1010A200143E140A000000000000081C020C100E7E
:1010B2000404000000000000040A041E08140800D2
:1010C200000000000000001804041A123C00000096
:1010D20000000000080808000000000000000000F6
:1010E200000010100808080810100000000000009E
:1010F2000404080808080404000000000000083E78
:101102000814000000000000000000000808083E6B
:1011120008080800000000000000000000000000B5
:10112200180C0400000000000000003E0000000057
:101132000000000000000000000000000C000000A1
:101142000000000020101008080404020000000043
:1011520000001C22222222221C00000000000000AB
:101162000C08080808083E000000000000001C22CD
:10117200100804023E000000000000001C2220189B
:1011820020221C00000000000000101814123E1063
:1011920038000000000000003C04041C20221C0057
:1011A2000000000000003804021E22221C00000081
:1011B200000000003E22201010080800000000007D
:1011C20000001C22221C22221C0000000000000041
:1011D2001C22223C20100E00000000000000000033
:1011E2000C0000000C0000000000000000001800CD
:1011F20000180C040000000000000020180618204F
:10120200000000000000000000003E003E00000060
:1012120000000000000000020C300C020000000080
:10122200000000000C12100808000C000000000072
:1012320000001C22322A2A32023C00000000000078
:101242000C0814141C2277000000000000001F226A
:10125200221E22221F000000000000003C22020287
:1012620002221C000000000000000F1222222212A3
:101272000F000000000000003E24141C14243E0055
:101282000000000000003E24141C14040E000000A4
:10129200000000003C22020272221C00000000003A
:1012A20000007722223E2222770000000000000088
:1012B2003E08080808083E000000000000003C103C
:1012C200101012120C000000000000007722120E13
:1012D200122267000000000000000E04040424240F
:1012E2003E000000000000007736362A22227700F6
:1012F2000000000000007726262A2A32370000006C
:10130200000000001C22222222221C0000000000F9
:1013120000001E2424241C040E0000000000000013
:101322001C22222222221C380000000000001E245F
:1013320024241C244E000000000000002C32021C59
:1013420020221E000000000000003E2A08080808B3
:101352001C000000000000007722222222221C0032
:101362000000000000007722221214140C0000007A
:101372000000000077222A2A2A2A14000000000016
:101382000000632214081422630000000000000021
:101392007722140808081C000000000000003E220A
:1013A200100804223E00000000000000180808088F
:1013B20008080818000000000000020404080808D9
:1013C20010100000000000000C0808080808080CB3
:1013D20000000000000008142200000000000000CD
:1013E200000000000000000000000000007F00007C
:1013F20000000408000000000000000000000000DF
:1014020000001C223C227E000000000000000302BB
:101412001A2622221F0000000000000000003C22C9
:1014220002023C0000000000000030202C32222288
:101432007C0000000000000000001C223E023C0074
:1014420000000000000030083C0808083C000000D2
:101452000000000000006C3222223C201C00000030
:10146200000003021A26222277000000000000007A
:1014720008000E0808083E000000000000000800F6
:101482001E10101010100E000000000003023A128D
:101492000E123B000000000000000C0808080808BB
:1014A2003E000000000000000000172A2A2A7F00E8
:1014B20000000000000000001B262222770000002E
:1014C2000000000000001C2222221C00000000007C
:1014D200000000001B2622221E020700000000005E
:1014E20000006C3222223C2070000000000000004C
:1014F200360C04041E0000000000000000003C0244
:101502001C201E0000000000000000021F02022238
:101512001C000000000000000000332222326C0098
:101522000000000000000000772212140C000000EE
:1015320000000000000077222A2A140000000000A8
:1015420000000000361408143600000000000000FD
:1015520000007722141408080E00000000000000AA
:101562003E1208243E000000000000001008080897
:101572000C08080810000000000008080808080805
:1015820008080000000000000408080818080808FD
:101592000400000000000000002C1A0000000000FF
:1015A200000000003F21212121213F000000000E08
:1015B2002060070707070707070707070707070747
:1015C20007070707070707070707070707070707A9
:1015D2000707070707070707070707070707070799
:1015E2000707070707070707070907080707070786
:1015F2000708070707070707070707070707070976
:101602000707070707070707070907080707070765
:1016120007070000000000000000000000000000BA
:10162200000000000C0C0C0C0C000C000000000070
:101632000000141414000000000000000000003636
:1016420036367F367F3636360000000000083C26EC
:10165200061C30321E080800000000000609293E60
:101662004A4830000000000000001C0606371D1921
:101672003E00000000000000080808000000000012
:1016820000000000000010180C0C0C0C18100000D8
:1016920000000000040C181818180C0400000000C8
:1016A2000000187E18240000000000000000000066
:1016B2000008083E080800000000000000000000CA
:1016C2000000000008040400000000000000003ECA
:1016D2000000000000000000000000000000000008
:1016E2000C000000000000303018181C0C0C06061C
:1016F2000000000000001C36363636361C000000A2
:1017020000000000181E181818187E0000000000C3
:1017120000001C3630180C063E00000000000000DD
:101722001C32301C30321C00000000000000181C6B
:101732001A193F183C000000000000003E061E324D
:1017420030321C00000000000000380C061E363645
:101752001C000000000000003E3230301818180053
:101762000000000000001C36361C36361C0000004B
:10177200000000001C36363C30180E00000000004D
:10178200000000000C0000000C000000000000003F
:1017920000000C00000804040000000000002018F3
:1017A20004030418200000000000000000007F0075
:1017B2007F000000000000000000020C1060100C0E
:1017C20002000000000000001C36301C0C000C005F
:1017D2000000000000001E2139253901211E0000F1
:1017E200000000001F1C36363E3677000000000065
:1017F20000001F36361E36361F00000000000000B3
:101802003E23030303231E000000000000001F36D6
:10181200363636361F000000000000003F26161E36
:1018220016263F000000000000003F26161E160686
:101832001F000000000000003E2303037B333E0034
:101842000000000000007736363E36367700000092
:10185200000000003F0C0C0C0C0C3F0000000000CC
:1018620000007C30303033331F00000000000000E5
:101872007726160E1E366F000000000000000F06CD
:10188200060626263F0000000000000063363636BA
:101892002A2A770000000000000073262E2A3A321E
:1018A20027000000000000001E33333333331E00D4
:1018B2000000000000001F3636361E060F00000032
:1018C200000000001E33333333331E3C000000009F
:1018D20000001F36361E16366F00000000000000A2
:1018E2003C26061C30321E000000000000003F2D86
:1018F2002D0C0C0C1E00000000000000773636365E
:1019020036361C0000000000000077363636141C04
:101912001C0000000000000000000000EF01C600F3
:10192200D600D6005C006C006C00000000000000D5
:101932000000000077361C1C1C36770000000000F7
:101942000000F7663C1818183C0000000000000078
:101952003E321A182C263E000000000000003C0C0B
:101962000C0C0C0C0C3C00000000000307060E0CD3
:101972001C1838300000000000001E181818181833
:10198200181E0000000000000814220000000000E1
:10199200000000000000000000000000000000FF46
:1019A2000000000408000000000000000000000029
:1019B200000000001E303E337E00000000000000E8
:1019C20007063E6666663F00000000000000000059
:1019D2003E2303231E0000000000000038303E3387
:1019E20033337E0000000000000000001E333F037E
:1019F2003E00000000000000380C3E0C0C0C3E00C3
:101A020000000000000000007E3333333E301E0031
:101A12000000000007061E36363677000000000080
:101A220000000C000F0C0C0C3F0000000000000036
:101A32000C001F18181818180F00000000000706E5
:101A4200361E1E3667000000000000000F0C0C0C52
:101A52000C0C3F000000000000000000000000002D
:101A620000007F00D600D600D600D701000000009B
:101A720000000000000000001F363636770000002C
:101A82000000000000001E3333331E00000000007F
:101A9200000000003F6666663E061F000000000070
:101AA20000007E3333333E307C0000000000000033
:101AB200372E06061F0000000000000000003E2333
:101AC2001E311F0000000000000006061F06062649
:101AD2001C000000000000000000373636367C0093
:101AE20000000000000000007736141C1C000000FB
:101AF200000000000000000000000000EF01D6001E
:101B0200D6006C006C000000000000000000000025
:101B1200000077361C36770000000000000000004D
:101B2200EE6C2818180C1F000000000000003E1A7E
:101B32000C263E000000000000001C0C0C0C060CE1
:101B42000C1C0000000000000C0C0C0C0C0C0C0C0B
:101B52000000000000000E0C0C0C180C0C0E000013
:101B62000000000000000026190000000000000034
:101B720000003F21212121213F00000000112060AF
:101B82000706050D0C090A090506060D0D050605D1
:101B920008090708080808080808080409090A09C2
:101BA2000B0B0B0A0A0A0A090B0B070B0A0D0D0B8A
:101BB20009090A0A090A0B0F0F0B0B0806060D0D7D
:101BC200090708080708070708080508080B0C0991
:101BD200080808060608080A0A08080C0D0C0C0C6E
:101BE20000000000000000000000000000000000F3
:101BF20000000000060E0E0C0C0C06000C0E00007D
:101C020000000000001E1F0F0F0000000000000077
:101C12000000008001E001FC019E01FF07FE06FFBB
:101C220007DF03FE01DE037C037E07DE0EFC1B7072
:101C320000000000000000180030007C007E007EE2
:101C4200001E001C00780078007B007E003E000C25
:101C5200000C0000000000000000000000CE00DECA
:101C6200007B007E003C00D800F801BC01EC01E6DC
:101C720000060000000000000000000000000078E4
:101C8200006E006600CE0038001C00F601C700CED0
:101C920000780000000000000000000000000000CA
:101CA200000600070003000300000000000000001F
:101CB200000000000000000000000000000000180A
:101CC200180C0C0C0E0E0C0C0C1818000000000066
:101CD2000306060C0C1C0C0C0C060603000000008C
:101CE20000001E1C1F000000000000000000000099
:101CF2008001EC01FE01FF03F601F601FE03FC0385
:101D0200F807B807F806780E781FEC01600060004B
:101D120000000000000000000000000000000000C1
:101D22000000000000000000060006000600060099
:101D3200000000000000000000000000001F000082
:101D42000000000000000000000000000000000091
:101D5200060600000000000018181C0C0C0C0606F9
:101D6200060303030000000000003C6E66E6E6E79F
:101D7200E6E66C38000000000000000000003800B9
:101D82003E003B0038003800180018001800180008
:101D92007E0000000000000000000000001E3B73F7
:101DA20060703038786C7F000000000000003E76E2
:101DB20063301C3863E3731E0000000000006060A3
:101DC2007070787C36FF3030F800000000000000B0
:101DD2007E0606063E706066361E000000000000A9
:101DE20060380C0C3E6EE6E7E66E3C000000000038
:101DF2000000FE6363633030181C1C0E00000000FC
:101E02000000003C66666E3C76E6E7663C00000039
:101E1200000000003C6666E7E67E7C7030180E002B
:101E22000000000000000000060606000006060092
:101E32000000000000000000000606060000060682
:101E420006060000000000001C007E000E000E00CE
:101E5200FE00FF00CE00CC00C600C600FF0100005D
:101E6200000000000000C000F000FC00FC01FC00CB
:101E7200FC00FC00FE00FF007E0070007800FC0009
:101E8200FC0130000000000000000000DC00FE0049
:101E9200EE00E600E600FF00C600C600C6006600CF
:101EA200FF01000000000000000000000000000030
:101EB2001C0036003300300038000C000C0000001B
:101EC2000C001C0000000000000000008001FC016A
:101ED200FC017E03DE03EF03EE00FE00FF006C0058
:101EE2007C007807F0017000600000000000000034
:101EF200000000007800700070007000D800D80068
:101F0200FC01CC01C601FF07000000000000000038
:101F12000000000000007F00EC00CC01EC003C005F
:101F2200FC00CC018C01FC017F00000000000000DD
:101F320000000000000000007000DC00CE0006007F
:101F42000700060006000E00DC0070000000000022
:101F5200000000000000000000003F00EC00CC0187
:101F62008C018C038C038C03CC01FC003F0000002D
:101F7200000000000000000000000000FF00DC0084
:101F82008C01CC00FC00CC00CC008C018C01FE0149
:101F92000000000000000000000000000000FF0040
:101FA200CC00CC00CC007C006C006C000C000C005F
:101FB2003E000000000000000000000000000000E1
:101FC200F000DC00CE00060007000600F601CE009D
:101FD2007C00700000000000000000000000000013
:101FE2000000FE078C018C018C01EC01BC018C010C
:101FF2008C019C01FF0300000000000000000000B3
:10200200000000003F001C000C000C000C000C0043
:102012000C000C000C003E0000000000000000005C
:102022000000007E383838181818181F1C000000ED
:1020320000000000000000FF03DC007C003C003CCC
:10204200003C006C00EC00CC01FE07000000000028
:102052000000000000000000003F001C000C000C0B
:10206200000C000C000C00CC00CC00FE00000000B4
:1020720000000000000000000000007E1F3C063C43
:10208200063C073C07BC0FEC0FEC0CCE0CCE0E7BD3
:102092001B000000000000000000000000FE07BC62
:1020A20001BC01BC01FC01EC01EC01CC018C018EF4
:1020B200019B010000000000000000000000007809
:1020C20000EC00C600C601C601C701C600CE006C06
:1020D20000380000000000000000000000000000C6
:1020E200007E00EC018C01CC006C003C000C000C6A
:1020F200000C003F00000000000000000000000093
:102102000000007C00EC00C600C601C601C701DE6B
:1021120000DE007C0038006000E0013000000000BA
:1021220000000000007E00EC00CC01CC01EC007C41
:10213200006C00FC00DC00FF030000000000000057
:10214200000000000000007C00660066000E001C1B
:10215200007800E000E30066003E0000000000009E
:10216200000000000000000000FF01BB01BB0138BD
:1021720000380038003000300018007C00000000F9
:102182000000000000000000000000FF038C018C32
:10219200018C018C018C018C018C01DC00F80000A7
:1021A20000000000000000000000000000FF079C8B
:1021B200019C01DC00D800D800780070007000306B
:1021C200000000000000000000000000000000FF0E
:1021D2007F9C339C1BDC1BD81B780F780F780F3049
:1021E200063006300600000000000000000000007B
:1021F20000FF079C01F800780070007000D800987A
:10220200018C01DF07000000000000000000000058
:10221200000000DF078C01DC00D80078007000703D
:102222000070007000FC00000000000000000000D0
:102232000000000000FE0063006300700030003800
:10224200001C00DC00CE00FF0000000000000000C7
:102252000000003E0E0E0E0E0E0E0E0E0E0E3E0074
:10226200000000000607060E0C0C0C0C18181818BB
:1022720000000000000F0C0C0C0C0C0C0C0C0C0CD5
:102282000F0000000000E001FE01CF1FFE07DB038C
:10229200FE03FC01F601FC01F801FC01B001F803A8
:1022A2007800600000000000000000000000000054
:1022B200000000000000000000000000000000001C
:1022C20000000000FF010000000000000000060006
:1022D2000C001800000000000000000000000000D8
:1022E20000000000000000000000000000000000EC
:1022F200181C363C363E7F0000000000000E0F0E18
:102302000E3E7E6EEC6C6C3E000000000000000091
:102312000000183E060707363C000000000000706F
:102322007C7070783E363737367C00000000000043
:1023320000000000183E363F67361C000000000017
:10234200001C7E0E0E0E3F060606063F0000000031
:102352000000000000703C363637361C0C3E6367C6
:102362003C00000E0F0E0E1E3E6E767676FF0000CB
:1023720000000000000E06000C0F0E0E0C061F00DF
:102382000000000000000E06000C0F0E0E0E0606E6
:102392000707030000000E0F0E0E6E7E6E3C3636EF
:1023A200FF0000000000000E0F0E0E0E0E0E0606BD
:1023B200061F0000000000000000000000000000F6
:1023C2000000BC01FF036E036E036C036603FF078C
:1023D20000000000000000000000000000000000FB
:1023E200000000003C003F006E006E006C006C00BC
:1023F200FF000000000000000000000000000000DC
:1024020000000000000018003E0076007700770010
:1024120036001C0000000000000000000000000068
:1024220000001C7F6E6EEE6C3C0C06061E00000067
:102432000000003CFE763737363C30303078000002
:10244200000000003C3F3E3E0C061F000000000062
:1024520000000000001C1E071E383B1E000000008A
:10246200000000000C0C0E3F060606061C000000D1
:10247200000000000000006C7F7E3E3E36FC000043
:102482000000000000000000FF363E3C1C1C0C0057
:10249200000000000000000000000000000000FF3B
:1024A20003F601FE01FC01FC00FC00CC0000000070
:1024B200000000000000000000000000000000001A
:1024C200007F003E003C0018003C003E00FF000080
:1024D20000000000000000000000000000FF6E3E4F
:1024E2003C3C1C180C0C0F060000000000003E33A0
:1024F2001B180C3E3F000000000000F001FE019E90
:1025020001FF03FC07FE0EFF0CDC0CD80E78067CE4
:1025120003DC0178007000000000000000C007FC2E
:10252200033F0EBE0FBC0DBC077E07FE07FC06F87C
:1025320000FC00FC01780370000000000000008035
:1025420003F003FE07BC07DE07FF01EE01FF00FCFC
:102552000FDC06FC06F8036000600000000000C00B
:1025620000F000FE008F07FF037E03FF01FC01FB6A
:1025720000FE007E037C03EC033800300000000004
:10258200000000000000007F00630063006300633E
:102592000063006300630063007F0000000000002E
:1025A20000000000AA55AA55AA55AA55FFFFFFFF31
:1025B200FFFFFFFF280000390A00391E002828000B
:1025C200171E00170A00280000002826002E26FFEA
:1025D20034265B3926F64426384A26B84F26075455
:1025E20026C058266F5D26F86426C76C263F7126E2
:1025F2001B7B26E08226CF8726908D268E9426ACE2
:102602009B26AAA02603A52640AC2643B326580043
:10261200000103070F1F3F7FFF00000000000000C2
:1026220000263E35BE36426C61636B0057686974A2
:10263200650047726179004C69676874204772616E
:102642007900477265656E004C696D6500426C7574
:10265200650052656400417175610059656C6C6F6B
:1026620077004D6167656E7461004379616E004465
:1026720061726B204379616E004F72616E67650013
:1026820050696E6B0042726F776E0056696F6C65AF
:10269200740053696C76657200476F6C64004E611A
:1026A2007679004D61726F6F6E00507572706C6555
:1026B200004F6C69766500496C6974656B20494C02
:1026C200493933343020477261706869637320443A
:1026D200656D6F0A486572652061726520736F6D62
:1026E2006520666F6E742073616D706C65733A005D
:1026F2005374616E646172642C203578372070697E
:1027020078656C7300417269616C2C2031342070E1
:102712006978656C73206865696768740A0041723C
:1027220069616C20426F6C642C20313420706978AE
:10273200656C73206865696768740A00436F757217
:102742006965722C203778313420706978656C7332
:102752000A00436F757269657220426F6C642C3196
:102762003420706978656C73206865696768740ADB
:10277200004C612042616D62612C313720706978B2
:10278200656C73206865696768740A000A5661722D
:102792006961626C65207465787420737061636925
:1027A2006E673A0A00494C49393334302054465452
:1027B20020436F6E74726F6C6C65720A00494C49EB
:1027C200393334302054465420436F6E74726F6C28
:1027D2006C6572004C696E65207374796C65733A2E
:1027E20000436F6C6F75726564206C696E65733A35
:1027F2000046696C6C00496D6167652077617320E2
:10280200736176656420746F2052414D0043697292
:10281200636C657320262061726373005265637472
:10282200616E676C657320262066696C6C65642036
:1028320062617200526F756E6465640072656374E2
:10284200616E676C650050696500736C6963653A17
:10285200005075740A696D6167650A66726F6D0A68
:1028620052414D3A004E6F6E2D7472616E737061FB
:1028720072656E74206D6F6465005472616E737060
:102882006172656E74206D6F6465004D657465726A
:102892002026204261722D6772617068206761751F
:1028A2006765733A00507265646566696E65642097
:1028B200636F6C6F72733A0001002D4E414E0049F6
:1028C2004E46000001004030BA280000F894EE277E
:1028D200E8BFE9BFEABFF091CC01F860F093CC0108
:1028E200F8EDF4BFE093A200E0934004A0918000D1
:1028F200AD7FA160F4BFA093800080E090E2A0E0F1
:10290200B0E2ED930197E9F7E6ECF8E28591959153
:10291200009761F0A591B59105901590BF01F00166
:1029220005900D920197E1F7FB01F0CF8BBFE0E03C
:10293200E0B9E1B9E2B9E3B9E4B9E5B9E6B9E7B9B1
:10294200E8B9E9B9EAB9EBB9ECB9EDB9EEB9EFB961
:10295200EFEFEDBFEFE3EEBFC0E0D4E20C94F01472
:102962001A930A930FB7F894E0915000E460E09351
:102972005000E0915100E470E1F3E0915000E26018
:10298200E0935000E0914100E0781E2FE8EDE4BFB3
:1029920010934100E0915600EC7FE0935600E091E5
:1029A2006000E160E0936000E0915100E270E1F3C9
:1029B200E0914000E87FE1601E2FE8EDE4BF109354
:1029C2004000E0915000E67EE0935000E091B400B8
:1029D200EC7FE093B4000FBF099119910895E0973D
:1029E200BFDFE4EFF1E0ECA3FDA3E0E0EEA3EFA391
:1029F200E8A7E9A7EAA5E160EAA7ED7FEAA7E46014
:102A0200EAA7EBA5E07CE662EBA7ECA5E078EE6333
:102A1200ECA7EDA5E078E563EDA7EEA5E078EE631F
:102A2200EEA7E068EEA7EFA5EE7FEFA7E17CE663F5
:102A3200EFA7DE0194960E94AA1EE0910A24E160AB
:102A4200E0930A24A9EBB6E20E941223E8EF0E9467
:102A5200972CE4E1F0E0FA93EA93A2EFB6E20E9447
:102A62000823E8E9F4E00E949C2CE0EC0E94972CF9
:102A7200EEE1F0E0FA93EA93A7E0B7E20E940823BE
:102A82000E94A12CE7ECE0930024A0E2B7E20E94AE
:102A92001223ECE6F0E10E949C2CE8E3E093002490
:102AA200AEE3B7E20E94A42CE8EBE0930024A4E595
:102AB200B7E20E941223EEE7FBE10E949C2CEFE6B4
:102AC200E0930024A3E7B7E20E9412230E94A12C04
:102AD200EFE3E0930024AEE8B7E20E94A42CE8EF13
:102AE200E0930024A7EAB7E20E941223E2E00E94E8
:102AF200A92CA7EAB7E20E941223E3E00E94A92CC4
:102B0200AFEBB7E20E941223E1E00E94A92C0E94DF
:102B1200A12CEFE30E94972CEEEBF0E0FA93EA93FC
:102B2200A6EDB7E20E940823E0EE0E94972CE2EDA8
:102B3200F0E00E94AD2CA2ED0E94B22C0E94B92CB2
:102B4200E7EDF0E00E94AD2CA7ED0E94B22C0E94AE
:102B5200BF2CECEDF0E00E94AD2CACED0E94C52C38
:102B6200EFEFE0930C24E0E0EA93E1EEF0E00E9464
:102B7200AD2CA1EE0E94C52C0E94B92CE6EEF0E02D
:102B82000E94AD2CA6EE0E94C52C0E94BF2CEBEE3B
:102B9200F0E00E94AD2CABEE0E94CC2CEFEFE09364
:102BA2000C24E0E0EA93E0EFF0E00E94AD2CA0EF0D
:102BB2000E94CC2C0E94B92CE5EFF0E00E94AD2CD3
:102BC200A5EF0E94CC2C0E94BF2CEAEFF0E00E94FD
:102BD200AD2CAAEFB0E00E949523EFE30E94972C60
:102BE200E4E0F1E0FA93EA93A3EEB7E20E94D32C79
:102BF20011E020E030E0203FE0E03E0794F40E9444
:102C0200DC2C08F011E0E0E0EA93E3E1F1E0FA9372
:102C1200EA932A93AFE3B1E00E9495232C5F3F4FE2
:102C2200EACF11E02FEE30E0332392F00E94DC2C49
:102C320008F011E0EFEEEA93EFE3F1E0FA93EA93A2
:102C42002A93A3E1B1E00E94952324503040ECCFB7
:102C52000E94E92CE8EF0E94EF2CE7E0EA93A6EB52
:102C6200B5E20E9485250E94F82CEEE1EA93E1E1AB
:102C7200F0E0FA93EA93A3EFB7E20E940823E0ECB4
:102C8200E0931624E0E3EA93E8E1F0E0FA93EA93B2
:102C9200A8EF0E94BA29E6E10E94FB2CE5E2EA9342
:102CA200E9E2F0E0FA93EA93A3E2B4E20E94472356
:102CB2000E94F82CE0E0EA93EFE2F0E0FA93EA9364
:102CC200A8EFB7E20E9408230E94012DA4E1B0E020
:102CD2000E94FB27E0ECE09300240E94012D0E9459
:102CE200082DE8E7F0E00E940D2DE3E0E0930B24CD
:102CF200EFEFE0930C24E8EB0E94132DA4E1B0E087
:102D02000E94FB27E7EC0E94132D0E94082DE2EDA2
:102D1200F0E00E940D2DE8EF0E94972CEBE6F0E028
:102D2200FA93EA93AFE0B8E20E940823E0EC0E9433
:102D3200EF2CE4E60E941C2DEFE6E0930024E3E092
:102D4200E0930B24E3E3E0930C24EEE80E941C2DB5
:102D5200E6EAF5E2FA93EA93A8E30E944329E2E75E
:102D6200EA93E9E5F0E0FA93EA93EAEAEA93A8E65D
:102D7200B0E00E94A429E8EFE0930024E4E6EA939D
:102D8200EBE6F0E0FA93EA93AEE1B8E20E940823A0
:102D9200E0ECE0930024E5E0EA93EDE7F0E0FA935B
:102DA200EA93EAE4EA93E6E2F0E0FA93EA93A8E02F
:102DB200B0E00E940A25E8EFE0930024E0E1EA9304
:102DC200E8E8F0E0FA93EA93A6E3B8E20E94082367
:102DD200E0E1EA93E0E9F0E0FA93EA93AEE3B8E2E5
:102DE2000E94D32CE8EFE0930024E4E6EA93E8E7BC
:102DF200F0E0FA93EA93A8E4B8E20E940823E4E63A
:102E0200EA93EFE7F0E0FA93EA93ACE4B8E20E94C7
:102E12000823E7E0E0931624EAEAEA93EFE8F0E019
:102E2200FA93EA93EEE1F0E0FA93EA93ECE2F1E04E
:102E3200FA93EA93A4E1B0E00E94B928E0E00E948C
:102E4200272DA3E5B8E20E940823EEE20E94272D77
:102E5200E3E2F4E2FA93EA93A0E00E941D23E0E0A9
:102E6200EA93E7EDF0E0FA93EA93A7E6B8E20E946C
:102E72000823E0ECE0930224E6E90E94272DE3E236
:102E8200F4E2FA93EA93A5E00E941D23E2E8EA93B2
:102E9200E7EDF0E0FA93EA93ACE7B8E20E94082388
:102EA2000E942D2D0E94A12CEFE3E0930024EEE17D
:102EB200EA93E1EEF0E0FA93EA93ADE8B8E20E9419
:102EC2000823ECE3EF8BE1E3F1E0E88FF98FE2E333
:102ED200F0E0EA8FFB8FE0E0EC8FED8FE4E6F0E0CC
:102EE200EE8FFF8FEBE0EAA3DE01579605D2E5E80D
:102EF200E883E88DF98DF297E983FA83EAE5EB83BB
:102F0200E8E2F0E0EC83FD83EC8DFD8DEE83FF8340
:102F1200EE8DFF8DE887F987EAA1EC87DE01A6D363
:102F220010E01430D0F42C8D3D8DEE8DFF8DE21724
:102F3200F3072CF00E94342D2B5F3F4FF6CF2E8DDE
:102F42003F8DEC8DFD8D2E173F072CF00E94342D06
:102F520025503040F6CF1F5FE4CF0E94E92C0E943B
:102F6200A12CEFE3E0930024A7EAB8E20E94122327
:102F72000E942D2D0E94F82CEFEFE093002410E028
:102F82001731C8F5A3E01A9FF001E453FA4D3296C7
:102F9200049000921624A12FBB27E2E0F0E00E94E9
:102FA2008D32A8E7B0E00E946D329F01A12FB0E000
:102FB2000E94452DA4E1B0E00E946D327496AF01EB
:102FC2002A93FA013696FA93EA93A3E01A9FF00144
:102FD200E453FA4D0E94B8320E940823E22FEF5BBD
:102FE200EA935A934A93EDE2EA93A3E1B0E00E9496
:102FF20053291F5FC5CFFFCFFFCFBA93AA9327975D
:103002001A930A93EF85F889A381B481BF93AF9392
:103012000E944F22F0E00E944A2DA6E6B6E686EA1A
:103022009FE30E946631AF91BF910E944F2D0E9493
:10303200542D8F01E985FA85FA93EA93DE011496FD
:103042000E94092CAF85B889EC91F0E0FF93EF93D1
:10305200AB85BC858D859E850E94412BD8010E943F
:10306200592DAF91BF910E945D2DEA93E889F989AC
:10307200A181B281BF93AF93AC85BD858E859F85BB
:103082000E94B72AD8010E94592DAF91BF910E9488
:10309200622DFA93EA93DE0115960E94F9221981B4
:1030A200088161960895AA9364970E943D330E9415
:1030B2006A2D17960E94A9320E161F0624F0A98DBA
:1030C200BA8D17960BC00E946A2D15960E94A932DE
:1030D200E015F10554F0A98DBA8D15960E94A9321A
:1030E200A98DBA8D1996ED93FC93E98DFA8D018421
:1030F20012840E94712D0E944A2DA0E0B0E08CED56
:1031020092E40E9466317F936F93FF93EF93E98D70
:10311200FA8D078010840E94712DAF91BF918F911B
:103122009F910E944A2D0E94B431A0E0B0E081E15B
:1031320093E40E94792DABEDBFE089E490E40E9414
:103142007E2DE0E0F0E064E373E40E94B4310E947B
:10315200832D0E94882D0E94412BE88BF98B6A8B6C
:103162007B8B0E94882D0E94B72AEC87FD876E8791
:103172007F870E948D2DECE0F0E00E9472320E9467
:10318200922DE887F9876A877B870E948D2DE98DCA
:10319200FA8DE485F0E0AE1BBF0BE2E0F0E00E94A6
:1031A200972D0E94922DEC83FD836E837F830E9474
:1031B2009C2DFF93EF93E889F9896A897B890E94A4
:1031C200A12DAF91BF910E945D2D0E2FE98DFA8D39
:1031D200A181B281BF93AF93EC85FD856E857F851A
:1031E2000E94A12DAF91BF910E94622D9F0110916B
:1031F2000024E88DE09300240E949C2DFF93EF931E
:10320200E889F9896A897B890E94A82DAF91BF91CB
:103212000E945D2DEA93EA8DFB8DA181B281BF935D
:10322200AF93ED85FE856F857889A985BA858B85F3
:103232009C850E946631AF91BF910E94622DFA93E4
:10324200EA930A93D9010E949523E98DFA8DE485C8
:10325200F0E00E944A2DA0E0B0E080E090E40E94FD
:103262006631E887F9876A877B870E94882DEBEDB4
:10327200FFE069E47FE30E94F93109F008F40CC031
:103282000E94882DE4EEFBEC66E170E40E94F931C5
:1032920011F008F001C001C007C00E94882DEFEDB7
:1032A200FDEE6FE270EC06C00E94882DE6EDF1E3C0
:1032B20062E670E40E940F310E94832D0E94AF2DBE
:1032C2000E94B32DEC89FD896E897F89ABEDBFE049
:1032D20089E49FE30E940F310E94832D0A93D90152
:1032E2000E9489230E94AF2D0E94B32D10930024C7
:1032F2000E9444336B960895BA93AA9360970E94F2
:103302003B33EE89FF89E385F0E031970E944A2D35
:10331200ABE0BEEB85EF9FE30E94B431EE83FF8307
:1033220068877987E8EFE0930024E2E0E0930B24DA
:103332000E94C82DE3E2F0E0FA93EA93E1E9F0E0BB
:10334200FA93EA93ED8DFE8DA381B4810E94382811
:10335200E0E7F7EF61E270E4EA8BFB8B6C8B7D8B2D
:10336200EE89FF89A381B481EAE0F0E00E94723223
:10337200AE89BF891C96EC93EE89FF89A381B48143
:103382001197AD01E485F0E0DF01FA01EA1BFB0BC6
:103392009F01E1E0E0930B2410E0EE89FF89E385D1
:1033A2001E1708F06DC0AA89BB898C899D890E946D
:1033B200412BEE87FF87688B798BAA89BB898C8921
:1033C2009D890E94B72AEA87FB876C877D87AE8931
:1033D200BF89EC91F0E0FF93EF93EE85FF8568895A
:1033E2007989D9010E94592DAF91BF910E945D2D1B
:1033F200EA93EF89F88DA181B281BF93AF93EB85F8
:10340200FC856D857E85D9010E94592DAF91BF91B2
:103412000E94622DFA93EA930E949C2DFF93EF93F0
:10342200E989FA896B897C89DA010E94592DAF9169
:10343200BF910E945D2DEA93EA8DFB8DA181B2813D
:10344200BF93AF93EE85FF8568897989DA010E947F
:10345200592DAF91BF910E94622DDF010E949523E9
:10346200AE81BF8188859985EA89FB896C897D89CE
:103472000E940F31EA8BFB8B6C8B7D8B1F5F8DCF94
:103482000E94F82CE8E3E09300240E94D32DE0E7A9
:10349200F7EF61E270E40E94D82DA581B681ADDD1F
:1034A2000E94D32D0E94DD2D0E94D82D078010840A
:1034B200AC8DBD8D15960E94E22DDF019EDD0E942E
:1034C200D32DEAEAF1E66CE17FE30E94D82DA781D1
:1034D200B08593DDE8EFE09316240E94C82D0E9488
:1034E2008D2DECE0F0E00E947232DF010E94542A3E
:1034F200AE89BF8915960E94A932AE89BF891996F5
:10350200ED93FC930E94D32DA0ECCDDD0E944233BB
:1035120068960895BA93AA93EA81FB81A185B28540
:10352200E881F981EA17FB0781F00E94E82DA0915A
:103532000124B9DDE881F981AA81BB811996ED9355
:10354200FC930E94E82DA0ECAEDD24960895BA9378
:10355200AA9327970E94ED2DDE0112960E94092C54
:10356200AA85BB85EC91A985EA0FEF93DE010E9443
:103572005D22F0E0DF010E94452DAF91AE1BAA93C0
:10358200EB85FC85A181B281BA93AA93DE011396E1
:103592000E94F9222C960895BA93AA932797E0E203
:1035A200E883E983EA83EB83EC83ED83E0E0EE8357
:1035B2000E943D3330910024EFEFE0930024EB852D
:1035C200FC8506841784AB85BC8550960E94A9327F
:1035D200E00DF11D32968F01E0910A24EE7FE09317
:1035E2000A24AB85BC85EC91EF93EB85FC85E381E6
:1035F200F0E0FF93EF93DE0114960E945D22F0E06B
:10360200AF91BF91AE1BBF0B0E94452DAF910E949F
:10361200F22DE0910A24E160E0930A24EB85FC8517
:10362200A285B385BA93AA93DE0116960E94092C4D
:10363200AB85BC85EC91EF93EB85FC85E381F0E0F3
:10364200FF93EF93DE0114960E945D22F0E0AF91AA
:10365200BF91AE1BBF0B0E94452DAF910E94F22D70
:10366200309300240E9444332D9608950E94FA2D2F
:103672000E94F82CE8EFE0930024EE81FF81A48100
:10368200B581EAE0F0E00E947232AE81BF811D9600
:10369200EC93EE81FF81A181B281E585F0E0EA0F32
:1036A200FB1FFF93EF930E944F22F0E0AF91BF9177
:1036B200EA0FFB1FAF01AE81BF81EC91EA935A93EF
:1036C2004A93A985BA85AC91E985FA85E381EA0F27
:1036D200EA93DA010E949523AE81BF813C91EE818B
:1036E200FF81E381F0E0DF01EE81FF81E485F0E01C
:1036F20031970E9485322E2F00E010E0EE81FF818B
:10370200E485D801F0E0AE17BF079CF43A93DA01E2
:103712000E9489230E94082DE885F985E585F0E05D
:103722000E941932DF010E947B24320F0F5F1F4F6C
:10373200E5CFE8E3E09300240E94FF2DE0E0EA9366
:10374200E985FA85A681B78102DF0E94FF2DE8850F
:10375200F985E381F0E0DF010E94452DEA93E985D6
:10376200FA8500841184A985BA8516960E94E22DF5
:10377200DF01EDDE0E94FF2DE885F985A381AA9382
:10378200E985FA85A085B185E2DEEE81FF81A4811B
:10379200B581E585F0E00E94972DFF93EF930E949B
:1037A2004F22A2E0EA9FF001AF91BF91AE1BBF0B87
:1037B200E5E0F0E00E94972DAE81BF815096ED9337
:1037C200FC93FA013396AE81BF811E96ED93FC9372
:1037D200EE81FF81E381FF27662777270E94DC3095
:1037E2007F936F93FF93EF93EE81FF8100841184A7
:1037F200A681B781F001EA1BFB0BAF91BF918F91BC
:103802009F910E944A2D0E94B431AE81BF8153968E
:103812000E94B332AE81BF8116960E94A932AE8158
:10382200BF811A96ED93FC93AE81BF815296E0E080
:10383200EC930E94423372C00E94CF321A930E94CC
:10384200042E0E94A52A0E94A3301E2FE12FF0E031
:103852000E94042E0E944A2D0E94792D0E94092E58
:1038620008F01F5FE12F1881259608950E94122EFD
:103872000E94172E09F450C0EE81FF810289AE81A9
:10388200BF8116960E94A932AC81BD81AE1BBF0BCF
:103892000D01AE81BF8153960E94AD32D0010E94CC
:1038A2003A320E94D6320E947E2DC6DF3E2F109100
:1038B20016240E94172E64F4E0ECE0931624AE81E5
:1038C200BF81EC91E00F0E94212EE32FE01B0CC080
:1038D200E0910124E0931624AE81BF81EC91E30FC5
:1038E2000E94212EE02FE31BEA93EA85FB85A08943
:1038F200B1890E94532910931624EC81FD81AE8177
:10390200BF811A96ED93FC93E32FAE81BF8152964D
:10391200EC93AE81BF8140DE0E9444332896089525
:103922000E94401EE4E0E09366060E94401EE4E02E
:10393200E09365060895AA93E881E770EE0FEE0F13
:10394200F881F873F695F695F6956881607CF62B0A
:103952000C94CE1FFF92AA9323970E943B33E985D2
:10396200E03011F0E53061F4AC85A33031F4A09180
:103972001F24B0912024109709F001C07BC11AC006
:10398200E13011F0E23009F402C0E33009F402C080
:10399200E43009F46FC1E63069F4EC85E13009F4F2
:1039A20069C1E33039F4E0912124F0912224309767
:1039B20009F460C1AA89A03F68F4A889B989A03432
:1039C200E1E0BE0738F4AF85A03021F0AD85BE85B9
:1039D200109709F44FC1AA89BB27EF85F0E0AE0F1B
:1039E200BF1FA13FE0E0BE0720F0AA89E0EFEA1B7B
:1039F200EF870E94292EA134E1E0BE0740F0A8899A
:103A0200B989E0E4F1E0EA1BFB0BED87FE87EF8565
:103A1200AA89AE0FA150A887EA89EA93E989FA89AF
:103A2200FA93EA93EB85EA93E989FA89AC89BD892D
:103A3200AE0FBF1F11970E94951EA985A63081F572
:103A42000E94302EEC85E330B9F40E943E2E99F0AC
:103A52003F85E32F3150E03069F0EA85FB853196EE
:103A6200EA87FB870E94452EE0912124F0912224CF
:103A72000995EFCFEACF10C00E943E2E69F03F8534
:103A8200E32F3150E03039F00E944C2E0E94452E37
:103A92000E94782CF5CFF0CFE1E0E0936506EAC012
:103AA200A985A73031F400910024E0910A24E0FBBB
:103AB20007C0A985A83009F061C000911624E894D6
:103AC200F0F8EF850E94542EEF85E770EF87E03023
:103AD20009F04F5FA02F2FDF8F01F0FC27C00E945B
:103AE200592EEE83FF830E945D2E0E943E2ED1F05E
:103AF20020E02417B0F40E944C2E0E94672E21F47D
:103B0200EF85E03009F05F8530FF02C0F80102C0A6
:103B1200EE81FF81DF010E945F1E36955150A1F7B1
:103B2200E8CFE3CFE1E0E093650627C00E943E2E96
:103B320021F10E94732EEA89E88720E02417D0F44D
:103B42000E944C2E0E94672E21F4EF85E03009F08E
:103B52005F8530FF08C00E94822EA8850E94882EB1
:103B6200D8010E94912E3695E885EF5FE887515083
:103B720081F7E4CF0E94972ED9CF7CC0AF85BB27B7
:103B820088279927ED85FE850E949D2E9F01462F4D
:103B92000E94A22EE985E030E9F4E1E0E0936606B6
:103BA200AC85A33049F40E94A92E0E94B52E215063
:103BB20030404040C1F70AC00E944C2E0E94BB2EEA
:103BC2000E94B52E215030404040B1F7E1E0E09331
:103BD200650650C0E53009F041C0AC85A330F1F470
:103BE2000E943E2ED1F00E94732E3A89E885E31797
:103BF20088F00E94A92E0E2FAE2FE0910224EA1720
:103C020039F00E94822EA32F0E94882E0E94C22E7B
:103C12003F5FECCF0E94972EE3CF1FC00E943E2E43
:103C2200E1F00E94732E3A89E885E31798F00E942A
:103C32004C2E0E94BB2E0E2FAE2FE0910224EA17CB
:103C420039F00E94822EA32F0E94882E0E94C22E3B
:103C52003F5FEACF0E94972EE1CF0CC0E93019F402
:103C62004091012404C0EA3029F440910024A42F99
:103C72000E94C72E0E9442336396FF90089500006F
:103C82000000000000000000000000000000000032
:103C9200000000000895AA93E1E0E0936606E8813F
:103CA200E0930406ECDFE8E0E0936606E8DFE8E094
:103CB200E0936506E1E0E09365066FC1BA93AA93CB
:103CC200E981E0930406DBDFE8E0E0936606D7DFF4
:103CD200E8E0E0936506E881E0930406D0DFE8E0DF
:103CE200E0936606CCDFE8E0E09365060C944D2293
:103CF2001A93E4E0E0936606C2DF10910806E4E05E
:103D02000EC01A93E2E0E0936506E0E0E09300065D
:103D1200E1E0E0936606B3DFEBDF1E2FE1E0E09324
:103D22006506E12F19910895BA93AA930E94822EF3
:103D3200AD810E94CC2EAA81AEDFABE220D1AC8154
:103D420023D1AB81A8DFA981A6DFA881A4DF2696B3
:103D52000895BA93AA932C971A930A93E1E0E093F9
:103D62006106E0936506E4E0E0936106E093650690
:103D7200E8E0E0936106E0936506E2E0E093610625
:103D8200E0E1E0936106E0936606AAE0B0E00E94FB
:103D92006630E0E1E0936506A8E7B0E00E94663095
:103DA200A3EDEDD0AEDFADDFACDF1E2FAADF0E2F0D
:103DB200133911F4003411F0E0E0C2C0EE85FF8542
:103DC200309731F0DE0112968CE00E94193307C061
:103DD200ECE1F6E2DE0112968CE00E942333A8E2C7
:103DE200CED0A6EFCCD0A1E0CFD0A1E10E94CC2EC4
:103DF200A0ECC5D0E985EF73AE2FC6D0003411F424
:103E0200A4E0C2D0A1ECBBD0A1E1BED0A5ECB7D05A
:103E1200EB85EF77AE2FB8D0EA85EF77AE2F3BDF99
:103E2200A7ECADD0EC85E068AE2FAED0A6E3A7D06C
:103E320010E0E885E47009F018E0E885E17009F027
:103E42001064E885E27009F01068A12F9DD01093EC
:103E52003F30A6EB94D0AAE097D012E0ED85E17056
:103E620009F012E1EC85E07809F01068A12F13DF68
:103E7200A1EB85D0A0E088D0ED85E695EF711E2FED
:103E8200103108F410E1A12F06DFA6E278D0A1E0FC
:103E92007BD0AAE374D0A5E577D0ADE270D010E074
:103EA200103420F4A12F70D01E5FFACF10E010342E
:103EB20020F4A12FF0DE1F5FFACF10E0103420F4BF
:103EC200A12FE9DE1E5FFACFA1E159D0A8E7B0E049
:103ED2000E946630EFEFE0930024E0E0E0930124DB
:103EE200E0930224EA81FB810E949C2CEC81FD81FB
:103EF200E0931F24F0932024EE81FF81E09321249C
:103F0200F0932224E1E0E0930824E0930924E09175
:103F12000A24EE7FE0930A24E1E0E0930B24EFEF22
:103F2200E0930C24E09316240E94D12EEFEFEA9343
:103F3200A8E0B0E00E94492C43D0A9E220D0E1E001
:103F420019810881609608950E943D33D1DE1E2FAB
:103F5200CFDE0E2FCDDEE07EE295EF70E695AE2F3E
:103F6200E12FE07CEA2BAE2FE02FE07EE695E6958E
:103F7200EA2B3E2FE32F0E9444330C948924AA9308
:103F8200E2E0E093660604C0AA93E2E0E0936506ED
:103F9200EFEFE0930006A8817EDE21960895BA93A2
:103FA200AA93E1E0E0936606A881B98187DE2150F9
:103FB20030404040C9F7E1E0E09365060C944D22A1
:103FC2000E94D62E0E94DB2E0E94A22E2F933F9398
:103FD2004F9320E03CE241E00E94592EDF01DFDFF7
:103FE2004F913F912F91E0E0EA93A0E0B0E090D3AF
:103FF2000895AA930E94DF2E0E94DB2E0E945D2E5E
:10400200A8810E949C1CDF010E94912E81C4BA9358
:10401200AA931A93AB81A03F30F4A981BA81A0344C
:10402200E1E0BE0718F0E0E0188172C40E94DF2EC2
:104032000E94DB2E0E94302E87DF1E2FE1E0E093EC
:104042006506E12F188164C4FF92AA930E943B3354
:10405200FF24A985BB2742D1E987AE81BB273ED188
:10406200EE83AF81B8854CD1EF83F887E0910B24C2
:10407200AF81B885F0E0AE0FBF1F119741D1AF01FC
:10408200EE81EA93A885B98543D3EE81A985EA1723
:1040920098F42985E9872E830E94E42EE0E4AE2776
:1040A20073DF6894F0F8AE81EFEEEA1B2E2FA9853C
:1040B200EFEEEA1B3E2F02C029853E812A930E9421
:1040C200EA2E3A93DA010E94951E0E94A22EA98539
:1040D200EE81EA1BEF5F2E2FAF81B885FA01EA1B52
:1040E200FB0B3196AF01A0910C24AF3F71F4A22FCC
:1040F200BB2788279927FA010E949D2E9F01462FF0
:10410200A09100240E94C72E22C024970E94592EFB
:104112000E94EF2E00E0322FA02F0F5FA77011F444
:1041220010910C2410FF03C0E881F98102C0EA81DA
:10413200FB81DF010E945F1E1695315069F7FA017B
:104142003197AF0139F7E1E0E09365062496F0FE7E
:1041520004C00E94E42E0E94C51F0E94D62E0E9417
:10416200DB2E0E9442332A96FF900895BA93AA93B7
:1041720022970E943B33AC85BB27B0D0EC87AC853D
:10418200BB27E0910B24F0E0AE0FBF1F1197A6D022
:104192003E2FAA85BB85B4D0EA87FB87A885B9855F
:1041A200AFD0E887F987EC85EA93A985BA85B0D2C2
:1041B200E0913F30E0620E2FE885F985AA85BB8544
:1041C200EA17FB07C0F44A855B85EA87FB874887C5
:1041D2005987E0E80E27A885B985EFE3F1E0EA1BED
:1041E200FB0BEE83FF83AA85BB85EFE3F1E0EA1BBD
:1041F200FB0BAF0106C0EA85FB85EE83FF83488592
:104202005985A6E30E94C01FA02F0E94C51FAAE2E3
:104212000E94C01FAF810E94C51FAE810E944C1E2A
:10422200A52F0E944C1EA42F0E944C1EABE20E949E
:10423200C01FA0E00E94C51FAC850E94CC2EA32FF8
:104242000E944C1E0E94A22EAC85E32FEA1BEF5F58
:104252003E2F0E94FB2E3196EE83FF83A0910C2409
:10426200AF3F69F4A32FBB27882799270E949D2E71
:104272009F01462FA09100240E94C72E23C024979D
:104282000E94592E0E94EF2E00E04A855B85A02FE6
:104292000F5FA77011F410910C2410FF03C0E88186
:1042A200F98102C0EA81FB81DF010E945F1E16953F
:1042B200FA013197AF0159F7315031F7E1E0E0935C
:1042C200650624960E94E42E0E94C51F0E94D62EE7
:1042D2000E94DB2E0E9442332D9608950E94022FE7
:1042E2001CF0E0E0F0E0D8C0A881B981A03FE0E096
:1042F200BE071CF0EFEEF0E0CFC0E881F981CCC040
:104302000E94022F1CF0E0E0F0E0C6C0A881B98153
:10431200A034E1E0BE071CF0EFE3F1E0BDC0E881AC
:10432200F981BAC0BA93AA93EA81EA93E981FA8140
:10433200FA93EA93A09100245CDE05C4AA93E98172
:10434200E0930824E881E0930924A6C0BA93AA93D3
:10435200AA81A03F30F4A881B981A034E1E0BE0770
:1043620028F0E0E0F0E060E070E0EDC3AA81BB2756
:1043720088279927E881F9810E949D2EEC5FFF4FE3
:104382006F4F7F4FE0C3BA93AA9323970E94092FDE
:104392008F01002E012A19F4E0E0F0E064C00E94CF
:1043A200102F0F820E94102F0E820E94102F08865B
:1043B200EB85A885EA1718F4E0E0F0E054C0F801B4
:1043C2000F5F1F4F5491A885BB27EE27A50FBE1F75
:1043D200EB85F0E0EA17FB0718F0E0E0F0E043C0FD
:1043E200EF81E030D1F0A985BA85EC930E94542E7A
:1043F200EF81E77009F04F5FA885EB85EA1BF0E0DB
:10440200DF01EE81F0E00E944532DF01E42FF0E0AF
:104412000E944532E00FF11F26C09801E52FF0E01F
:104422000E0F1F1FA885AF5FA887A150EB85AE179F
:10443200A0F4F901E4910E94542EF9012F5F3F4F3D
:10444200E491E77009F04F5FAE81BB27E42FF0E003
:104452000E9445320E0F1F1FE5CFF901E491A98595
:10446200BA85EC93F8010E9442332C960895AA93E0
:104472002197E0910624F0910724309761F0E981B9
:10448200EA93DE0111967FDF309729F0E09108244C
:10449200A881EA0F01C0E0E0229608950E94152F3C
:1044A200309711F4E0E008950E94152F3196A491FF
:1044B200E0910924EA0F0895BA93AA931A930A93F2
:1044C20000E0AA81BB81ED91AA83BB831E2FE0305D
:1044D20021F0A12FCCDF0E0FF4CFE02F198108813C
:1044E20017C2E0E0E09303240E941A2F3196E49170
:1044F200F0E0AE0FBF1FE0910924F0E0AE0FBF1F46
:104502000E941F2F0895AA9321970E94092F309786
:1045120009F469C0AF81AA3009F461C0EF81EA935E
:10452200DE01179630DFAF01309719F40E94423353
:10453200D3C0E0910824AE81EA0F3E2FA09103245C
:10454200BB27E32FF0E0EA0FFB1F8F01013FE0E002
:104552001E0718F0032F1127C4DF0E94262FE985BA
:10456200EA930E94152F3196E491F0E0FA93EA93D0
:10457200E1E0EA935A934A93A7E00E94AB1CE091D0
:104582000A24E17039F5E0910324AE810E94302FB4
:10459200FA93EA93E0910824EA930E94152F319648
:1045A200E4910E94372FA9E00E94AB1CE091032402
:1045B200EA930E941A2F3196E491F0E0EA0FFB1F72
:1045C200FA93EA933A93E09109240E94372FA9E0E3
:1045D2000E94AB1CE0EFF0E0E017F10721F481DF6D
:1045E2000E94423379C0009303240E94423374C074
:1045F2000E943C2FA981BA81ED91A983BA831E2F13
:10460200E03019F0A12F7FDFF5CF1881BCC20E94E4
:104612003C2F0E94452F19F0A12F75DFFACF188188
:10462200B2C2BA93AA931A930E94452F19F0A12FEE
:104632006ADFFACF188187C2AA932497AC81A0308F
:1046420011F0A530F1F40E944F2FEA830E944F2F00
:10465200EB830E944F2FE8830E944F2FE983E98565
:10466200EA930E94EA2E0E94552FE0E00E945C2FFE
:10467200AD850E94AB1CEA81EA93A981BA8166DE0C
:10468200C6C1E0E0F0E060E070E0C1C1BA93AA9375
:10469200EC81A881B981F0E0ED93FC93EA81FB8182
:1046A200A881B9811296ED93FC93EF81EA930E945F
:1046B200FF2DEF81EA930E94FF2DE0E0EA93EF8164
:1046C200F8853496FA93EA93A6E00E94AB1CEC813B
:1046D200EA93AB81BC813ADE28960895AA93EB81D6
:1046E200EA930E94E82DE0910C24AB81EA2319F0B1
:1046F200E091002402C0E0910124AE2F7ADCE8812F
:10470200EE0FE883E03011F4E1E0E883E88100C1D4
:10471200BA93AA93AA81BB27E1DDE0930324A8817F
:10472200B9810E941F2F0FC2BA93AA932C970E949D
:104732003B33AF89BB27D2DDEF8BAC89BB27CEDD04
:10474200EC8BAD89BE89DCDDED8BFE8BAA89BB8942
:10475200D7DDEA8BFB8BEC89E0930324EA89FB89A2
:10476200E0930424F0930524E1E0EF83EA89FB89D6
:10477200AD89BE89EA17FB0781F41F89AC891A1734
:1047820031F41A930E94D32DA1E0A8DFA5C01A9399
:104792000E94D32DAF8958DC9FC0EC89AF89EA17FC
:1047A20051F42D893E89EF89EA933A932A93AD8990
:1047B200BE89DCDC91C0E0E0EE83AE81AF5FAE8308
:1047C200A150E0910B24AE1708F086C01F892D89F5
:1047D2003E89E1E0F0E0AF010E2FAC89BB27EF8903
:1047E200F0E0AE1BBF0BA88BB98BA989AA233AF4C0
:1047F2000FEFE889F9890E941932E88BF98BE88971
:10480200F989EE0FFF1FEE87FF87AD89BE89EA891E
:10481200FB89EA1BFB0BEC87FD87AD85AA2332F4EB
:104822004FEF5FEF0E941932EC87FD87EC85FD8523
:10483200EE0FFF1FEA87FB871A933A932A93A1E0B0
:104842004DDFEF83E0E0E887E987E889F989AC8505
:10485200BD85EA17FB07E4F0100FEA85FB850E948D
:10486200622FE889F989A885B985EA17FB0754F40C
:10487200240F351FAE85BF85E885F985EA1BFB0B42
:10488200E887F9870E94692FEC89E11729F719C097
:10489200240F351FEE85FF850E94622FEC85FD8572
:1048A200A885B985EA17FB072CF4100F0E94FB2E8E
:1048B200E887F9870E94692FEA89FB89E217F307E3
:1048C20039F7ED89FE893196ED8BFE8BEA89FB89FA
:1048D2003196EA8BFB8B71CF0E9442336896089522
:1048E200BA93AA930E94262FED81EA93AC81BD81EF
:1048F2001BDF29C1BA93AA930E94262FE0910324B9
:10490200AD810E94302FAC81BD81AE0FBF1F0CDF85
:1049120024960895BA93AA9322970E943B33E8857E
:10492200F98515810281A885B98513962D913C914F
:10493200A885B9854D915C91011730F4E02FF0E024
:10494200EE83FF83012F1E814217530728F44E8303
:104952005F83A9012E813F81E12FA885B985159634
:10496200EC93F901A885B9851396ED93FC93E02F9A
:10497200A885B9851296EC93A885B9854D935C9369
:104982000E94423344C0BA93AA930E94552FED81EC
:10499200A885EA0FEA93EC81FD81AF81B885AE0F5D
:1049A200BF1F01D0F0C00E94122EE0910B24E150F3
:1049B2000E2FDE011496AEDFEE81E01B1E2FE02FDC
:1049C200AC81BD81F0E0AE1BBF0B9D01E985EA938E
:1049D2000E94EA2EA12F38DB1A930E94EA2ED901F7
:1049E200C5DBEE81EA933A932A93E02FAC85AE0FB2
:1049F2002BDBE985EA93ED81FE81FA93EA93AA859E
:104A0200BB85EE27A00FBE1FB1DB0E9444332A965E
:104A12000895BA93AA9325970E943B33EF85E0301D
:104A220021F0ED85FE85309709F465C0EB85AA89F2
:104A3200EA0F1E2FEB85FC85A889B989EA0FFB1FB7
:104A4200AF01E0910B24E1502E2FEF85AA89AE0F22
:104A5200A1503A2FAB85E32FEA1B0E2F321B0E9487
:104A6200292E1197AF83B887AB85BC85EF81F88576
:104A7200EA1BFB0BE987FA87E22FAF81B885F0E0EA
:104A8200AE1BBF0BAF83B887E0910C24EE83EFEF30
:104A9200E0930C241A93E989FA89FA93EA93A02FF6
:104AA200A150D2DA0A930E94712FA1E841D23A931F
:104AB2005A934A93AC85BD85119758DB0A930E949D
:104AC200782FA8E835D20A930E94EA2EA12FBCDAE9
:104AD2001A930E94782FA4E82BD2EA890E94812F90
:104AE200DA0144DB1A930E94712FA2E821D2EE81EF
:104AF200E0930C2405C0EA89EA93A989BA8912DCF9
:104B02000E94423363960895BA93AA93EA81E030F1
:104B1200D1F0E881F9813097B1F00E94872F319668
:104B22000E94B832F5DDEA81E150EA83EF5F59F085
:104B32000E94872F3396E983FA83339731960E9436
:104B4200B832CEDEF0CF239608950E94CF321A9368
:104B52000A93AA81BB818C819D810E94A52A0E9411
:104B6200A5308F01F801AA81BB818C819D810E94B1
:104B72004A2D0E94792D0E94092E10F00F5F1F4FBF
:104B8200F8011981088126960895BA93AA93249769
:104B9200EA85FB850E94922DA5E3BAEF8EE89CE39D
:104BA2000E9466310E948E2FEE85F0E0FF93EF9314
:104BB2000E94912F0E94412BA885B9850E94592DF0
:104BC200DF01CB01C2DFAF91BF91AE0FBF1F86DB0A
:104BD200AE81BF81EC930E94912F0E94B72AA885D3
:104BE200B9850E94592DDF01CB01AFDFAC85BD85B0
:104BF200AE1BBF0B85DBAC81BD81ED93FC93B6C2CE
:104C0200BA93AA9323970E943B33ED85E887E091FC
:104C12000B24EF83E0910024EE83EC89F0E0AF8572
:104C2200B889EA0FFB1F8F01E989AA89BB89F0E0E5
:104C3200AE1BBF0B9D01E989AA89BB89F0E00E94E6
:104C4200942F71F0E885E078F1F4AD85BE85EAE550
:104C5200F0E00E949B2F1CF00E94A42F0CF413C0C2
:104C6200332312F00E94A92FAF81A23020F022300C
:104C7200E0E03E070CF407C00E94AD2F21F40A9336
:104C8200D90111974FDBE885E878E83891F0E8859B
:104C9200E078C9F4AD85BE85A25FBE4F0E94B62FF3
:104CA2003CF0AD85BE85A25FBE4F0E94BB2F0CF4C7
:104CB2000AC00E94C02F38F00E94C72F21F40A9325
:104CC200DA0111962FDBAC89BB27EF85F889AE1B81
:104CD200BF0B8D0111230AF445C0E885E278E23862
:104CE20091F0E885E07811F5AD85BE85A65ABF4FF3
:104CF2000E94B62F3CF0AD85BE85A65ABF4F0E94DA
:104D0200BB2F0CF413C0332312F00E94A92FAF81E2
:104D1200A23020F02230E0E03E070CF407C00E94EF
:104D2200AD2F21F40A93D9011197FCDAE885E478D2
:104D3200E43871F0E885E078A9F4AD85BE85EEE04F
:104D4200F1E00E949B2F1CF00E94A42F0CF40AC0D9
:104D52000E94C02F38F00E94C72F21F40A93DA0173
:104D62001196E0DAAC89BB27E989F0E0EA0FFB1F74
:104D72008F01AF85B889EA89FB89EA1BFB0B9F018A
:104D8200EF85F889AA89BB890E94942F81F0E88572
:104D9200E078F1F4EB85FC85AD85BE85AE17BF07E3
:104DA2002CF0E985FA85EA17FB070CF411C03323CE
:104DB2007AF00E94A92FAF81A23050F0E02FEE5F6F
:104DC2000E94D02F29F4E02FEF5FEA93D901AADAEB
:104DD200E885E878E83871F0E885E078C1F4AD85D7
:104DE200BE85E8E6F1E00E949B2F1CF00E94A42FF2
:104DF2000CF40DC00E94C02F50F0E02FEE5F0E9415
:104E0200D82F29F4E02FEF5FEA93DA018BDAAC892D
:104E1200BB27E989F0E0AE1BBF0B8D0111230AF419
:104E220050C0E885E278E23871F0E885E07809F56B
:104E3200AD85BE85E4EBF0E00E949B2F1CF00E9442
:104E4200A42F0CF416C03323A2F00E94A92FAF8125
:104E5200A23020F00230E0E01E070CF40AC0E02F7E
:104E6200E2500E94D02F29F4E02FE150EA93D901B9
:104E720059DAE885E478E43891F0E885E07809F5D4
:104E8200AD85BE85AC54BF4F0E94B62F3CF0AD85B8
:104E9200BE85AC54BF4F0E94BB2F0CF412C00E94BF
:104EA200C02F20F00230E0E01E070CF40AC0E02F11
:104EB200E2500E94D82F29F4E02FE150EA93DA0160
:104EC20031DA0E944233659608950E94FA2DAC852C
:104ED200BB27E885F985AE1BBF0B00DA1E2FEC85D8
:104EE200F0E0A885B985AE0FBF1FF8D90E2FAE81AD
:104EF200BF81EA85FB85EA1BFB0BDF0101DA9F011B
:104F0200EE81FF81AA85BB85AE0FBF1FF9D9AF0124
:104F12001A933A932A930A93D90106DC1A935A9365
:104F22004A930A93DA0100DC0E9442332D960895D7
:104F3200AA930E943B33AB85A03F30F4A985BA8582
:104F4200A034E1E0BE0720F00E9442330C94072C0B
:104F520000910B24E02F0150E03009F447C0EF81AB
:104F6200F885309721F40E9442330C94072CEF818C
:104F7200F8853197EF83F8870E94E02FAE81A03445
:104F820091F4EB850E94812FE12FF0E0FA93EA93EE
:104F9200D9019BDFEB850E94812F3A932A93A12F9F
:104FA200BB2793DF0FC0EB850E94812F1A933A93A0
:104FB2002A93EC85F0E0FA93EA930E94082DA0E090
:104FC200B0E01EDE1F5F55231AF4E12FF0E002C0AD
:104FD2000E94ED2FEE0FFF1F31964E0F5F1FF9015A
:104FE200A12FB0E0EA17FB0748F6B4CF0E94423384
:104FF2000C94072CBA93AA930E94F42FEB81FC81A4
:10500200FA93EA93AFE894DF0C94572C0E94122E85
:10501200AA85A03F30F4A885B985A034E1E0BE0797
:1050220010F0E0E020C0AE81BF810D911C91AC81F7
:10503200BD812D913C91D801E8E6F1E00E948A32CF
:105042008F01D901E9E6F1E00E948A329F01AE8127
:10505200BF810D931C93AC81BD812D933C93F901CB
:10506200D8010E943F320E9444332B9608950E9439
:10507200FA2D0E94FB2FFE013D96FA93EA93DE0180
:105082001D96C4DFE03009F46FC0EE85E0930D2475
:10509200EC85FD85E0930E24F0930F240E94FB2FF4
:1050A200ED85FE850E940230E0E1F4E2FA93EA9394
:1050B200A1E1B4E26ADD0E94FB2FEB85FC850E9430
:1050C2000230E3E1F4E2FA93EA93A4E1B4E25DDDB3
:1050D20000910B24E02F0150E03009F445C0EE812D
:1050E200FF81309709F440C0EE81FF813197EE8352
:1050F200FF830E94E02F0E94FB2F1A933A932A9378
:10510200F9010E94922D0E94CA32E12FFF276627E1
:1051120077270E94DC30DF01CB010E94B32BA1EE86
:10512200BEE285E692E40E9466310E94A530FA93BF
:10513200EA93EA89FB89FA93EA93AA89BB8960DD3B
:105142001F5F55231AF4E12FF0E002C00E94ED2FF9
:10515200EE0FFF1F31964E0F5F1FF901A12FB0E036
:10516200EA17FB0740F6B6CF0E9442332F96089506
:10517200BA93AA9323971A930A93E0910B24E150CE
:105182000E2FED850E945C2FFE013C96FA93EA9366
:10519200DE011C963BDFE03009F470C010910C2454
:1051A200EFEFE0930C24ED850E945C2FEC85FD85EA
:1051B200FA93EA93EC85FD85FA93EA93AC85BD8573
:1051C20056DFE0E0EA83EB83A985BA85A53BE0E000
:1051D200BE0720F0E02FF0E0EA83FB83ED850E941A
:1051E2005C2FE0911024EA93A0911124B091122433
:1051F200EE81FF81AE1BBF0B97DAE0E0EA83EB831F
:10520200AF81B885A53BE0E0BE0720F0E02FF0E0DB
:10521200EA83FB83E0911324EA93A0911424B091D2
:105222001524EB81FC81AE1BBF0BBA93AA93E889CC
:10523200EA93AF85B88978DAED850E945C2FEA851A
:10524200FB85AC85BD85AE0FBF1FFD01F695E795C9
:10525200FA93EA93EA85FB85F695E795FA93EA9342
:10526200FE013B96FA93EA93DE011B968EDC0E94C6
:10527200F42FA09100247DD010930C241981088171
:105282002E960895AA930E94D12EEB81FC81FA9367
:10529200EA93A8E0B0E00E94372CE881E09316245C
:1052A2000C94762C0E94FA2DAB85A03F30F4A98590
:1052B200BA85A034E1E0BE0720F00E9442330C948C
:1052C200072CE885E03021F0EE81FF81309709F468
:1052D20036C029853A85F901AE81BF81EA0FFB1FED
:1052E200EE83FF83EB85A885EA0FE887EE81FF81D5
:1052F2002E173F0720F5E21BF30BAF014930E0E028
:105302005E0710F048E050E01B85E8851E17A0F408
:10531200E11B0E2F093008F008E01A933A932A9302
:105322000A935A934A93E0E0EA930E94D12EA8E0AE
:105332000E94AB1C100FE9CF240F351FD7CF0E945C
:1053420042330C94072CBA93AA93DE01E3DA0E944B
:10535200552FA885ED81EA1BEF5FEA93AF81B885EF
:10536200EC81FD81EA1BFB0B3196DF019BDF0C9484
:10537200472CFF92AA93E1970E943B33AAADA03F2C
:1053820030F4A8ADB9ADA034E1E0BE0708F086C0A4
:10539200E0911624EE83FE0137968F01EAAD0E945A
:1053A2000930E8ADF9AD0E940E30FE013796E017E4
:1053B200F10708F073C002501040D8010E94A932D0
:1053C200E8AFF9AF01501040D801EC91EAAF3AAD25
:1053D200313048F00E94143019F0EE81E21709F4DE
:1053E20002C03150F5CFE894F0F8F1F83F5F303F5A
:1053F20008F053C00E94143019F0EE81E21709F44C
:105402004CC03A93E9ADFAADFA93EA93A9850E94AA
:10541200FA1FA8ADB9AD0E943133E0F4E8ADF9ADA1
:1054220031970E941D3019F0EE81E21709F410C085
:10543200F0FC0DC0FE01F7960E171F0778F5E32F5B
:105442000E940930FA010E940E306894F0F802C0FE
:10545200E894F0F8A8ADB9ADAF33E1E0BE07E0F4EF
:10546200E8ADF9AD31960E941D3019F0EE81E217D8
:1054720009F410C0F1FC0DC0FE01F7960E171F07CC
:1054820068F4E32F0E940930FA010E940E306894FA
:10549200F1F802C0E894F1F8A9CF87CF0E94423315
:1054A200EB96FF9008950E94122E10910024E09135
:1054B2000B240E2FE0910C243E2FE09116240E9423
:1054C200EF2CE885EA930E94ED2D0E94ED2DA0E4D9
:1054D2002FDD1093002400930B2430930C240E94A0
:1054E20044330C943F2B0E94CF327B816A81F98135
:1054F200E88177FB770F67FD7160972F9E5781F0E8
:1055020078F0983190F4AA27BB27882708948795CA
:10551200B795A7959A95D1F7EA23FB23682305C08F
:10552200E8947727EE27FF2766276F77769508F4AA
:10553200606877F9A991B99189919991EA17FB0766
:105542006807790797FB08950E9426300E94742A03
:105552000E948E2F21F40E9429300C94952CDEF7A4
:105562000E942C300E940F310C94952C0E94CF3255
:1055720024971A9310E00E943230E3E8F9EF62E2D6
:105582007EE30E9466310E943730DEDF0E943230B5
:105592000E94792D0E943730E0E0F0E060E07FE386
:1055A2000E94F93109F008F409C00E943C30A0E0E1
:1055B200B0E080E09FE30E94413011E00E9432306F
:1055C200E0E0F0E060E87EE30E94F93109F008F4DF
:1055D20008C00E943230E0E0F0E060E07FE30E9429
:1055E2004130103041F00E943C300E947030ED8317
:1055F200FE836F8378870E943C300E9432300E9483
:105602006631E983FA836B837C83A1EBB4EC86E297
:1056120092E40E947E2DEDE1F5EE6DE272E40E94CD
:10562200792D0E94042E0E946631ACE4B3E584E039
:1056320091E40E9416310E9432300E9466317F93BB
:105642006F93FF93EF93E981FA816B817C81A1E1F2
:10565200BDEE8EED9FE30E9416310E94042E0E9441
:105662006631AEE5BBE788EA9FE30E941631AF914F
:10567200BF918F919F910E94B4311881299608950C
:105682000E9426300E94DD2D0E940F31DF01CB01E6
:105692006DDF0C94952C0E9448300E94A12D0E942F
:1056A2008E2F0E942930A5E6B0ED8BEC90E40E948B
:1056B20050300E94A12D7F936F93FF93EF930E942E
:1056C2002930A0E0BDE689E291E40E9416310E94F1
:1056D200912F0E945030AF91BF918F919F910E9464
:1056E200B431289608950E942630EDECF3E164ED82
:1056F2007EE30E94F93128F40E94912FCCDF0C94B2
:10570200952C0E94912FEAE7F2E86AE170E40E9488
:10571200F93109F008F40CC00E942C300E94593073
:10572200ABEDBFE089EC9FE30E94792D0C94952CA0
:105732000E942C300E940F317F936F93FF93EF935F
:105742000E942C300E941631AF91BF918F919F9190
:105752000E945930ABEDBFE089E49FE30E9416310D
:105762000C94952C0E9448300E942D33D9F4E88580
:10577200F9856A857B850E942D3329F4EFEFFFEFCF
:105782006FE77FE743C0A885B9858A859B850E941C
:1057920035331CF40E94DD2D39C0EBEDFFE069ECDE
:1057A2007FEB34C0EC81FD816E817F81A885B98554
:1057B2008A859B850E94B4310E948E2FAC81BD8167
:1057C2008E819F810E94353364F4AB85AA2322F037
:1057D2000E94912F88DF1AC00E945F300E947030B1
:1057E20015C0AB85AA234AF00E945F30ABEDBFE043
:1057F20089E490E40E94792D09C00E94912F73DF01
:10580200ABEDBFE089E490EC0E9416312C9608952E
:10581200BA93AA93A991B991E991F99130962AF490
:10582200E095F09531966DE26D93E89480E197E210
:105832000DD088EE93E00AD084E6992707D08AE05B
:1058420005D06E2F10D066276C9308956627E8174F
:10585200F90720F06395E81BF90BC9F7662311F4E9
:1058620016F008956894605D6D930895BA93AA93B3
:1058720099818881009641F0BD81AC81FB81EA81EA
:1058820005900D920197E1F7FD81EC81269608952E
:10589200BA93AA93B981A881109631F0FC81EB8169
:1058A2006A8161931197E9F7EB81FC81259608954E
:1058B200BA93AA93EA81E13021F4E881F981E49173
:1058C20014C0E23029F4A881B9810E94E6320DC0E9
:1058D200E33041F4A881B981E0911F24F0912024A2
:1058E200099503C0A881B981EC9123960895AA93E2
:1058F200EB81E03029F4E881A981BA81EC9314C0EC
:10590200E23031F4E881A981BA810E94EF320CC001
:10591200E33051F4E981FA81FA93EA93AA81E091A2
:105922002124F0912224099524960895E0930024DD
:10593200E0E0EA930895E0930624F09307240895A3
:10594200E4E7FAE0F8CF0E941223E0EBF5E1F3CFAF
:10595200EA93A1E00C949F21FA93EA93EFEEEA9383
:105962000895B0E00E949523E1E0E0930B240895AE
:10597200E5E5E0930C24E0E0EA930895E3E3E093A5
:105982000C24E0E0EA930895B0E00E949523E2E05F
:10599200E0930B240895B0E00E949523E4E0E093A5
:1059A2000B2408950E940823E1E0E0930B24EFEF1B
:1059B200E0930C240895E12F1F5FA3E0EA9FF0011A
:1059C200E453FA4D32960490009200241731089560
:1059D200A8E8B3E10E9466300C94E11FE093002432
:1059E200E1E0E0930B24EFEFE0930C240895E4EF61
:1059F200F1E0A1CFEA93E0E0F0E0FA93EA930895B0
:105A0200E5E1EA93E3E5F0E0FA93EA930895E0E052
:105A1200F0E0FA93EA930895FA93EA93AFE0B0E0E4
:105A22000C943828E0930024EFE3EA93E3E5F0E0F6
:105A3200FA93EA930895EA93ECE3F0E0FA93EA9397
:105A4200E8E2EA93A9E1B0E00C94C424EA93EAEA1A
:105A5200F0E0FA93EA930895EEEAF5E2FA93EA9314
:105A6200AFEF0C944329FE017796FA93EA93D9019A
:105A72000E948B1AFE01FA93EA93D9010E94371C05
:105A8200A4E6B0E00C946630E2E0F0E00E948532D9
:105A920008950E9435320E94DC30089588279927A4
:105AA2000E94D63208950E9416310E94A3300895B2
:105AB200F5DF0E94663108950E943A320E94D63282
:105AC200F2CFECDF0E94D9320E940F310E94A33044
:105AD2000895E98DFA8D01841284A98DBA8D0895F5
