:0C0000000C940C030C9400000C94000005
:10000C000C9400000C9400000C9400000C94000064
:10001C000C9400000C9400000C9400000C94000054
:10002C000C9400000C9400000C9400000C945603EB
:10003C000C9400000C9400000C9400000C94000034
:10004C000C9400000C9400000C9400000C94000024
:10005C000C9400000C9400000C9400000C94000014
:10006C000C9400000C9400000C9400000C94000004
:10007C000C9400000C9400000C9400000C940000F4
:10008C000C9400000C9400000C9400000C940000E4
:10009C000C9400000C9400000C9400000C940000D4
:1000AC000C9400000C9400000C9400000C940000C4
:1000BC000C9400000C9400000C9400000C940000B4
:1000CC000C9400000C9400000C9400000C940000A4
:1000DC000C9400000C9400000C9400000C94000094
:1000EC000C9400000C9400000C9400000C94000084
:1000FC000C9400000C9400000C9400000C94000074
:10010C000C9400000C9400000C9400000C94000063
:10011C000C9400000C9400000C9400000C94000053
:10012C000C9400000C9400000C9400000C94000043
:10013C000C9400000C9400000C9400000C94000033
:10014C000C9400000C9400000C9400000C94000023
:10015C000C9400000C9400000C9400000C94000013
:10016C000C9400000C9400000C9400000C94000003
:10017C000C9400000C9400000C9400000C940000F3
:10018C000C9400000C9400000C9400000C940000E3
:10019C000C9400000C9400000C9400000C940000D3
:1001AC000C9400000C9400000C9400000C940000C3
:1001BC000C9400000C9400000C9400000C940000B3
:1001CC000C9400000C9400000C9400000C940000A3
:1001DC000C9400000C9400000C9400000C94000093
:1001EC000C9400000C940000050720600000000037
:1001FC00000000040404040400040A0A0A000000BD
:10020C00000A0A1F0A1F0A0A041E050E140F040313
:10021C00130804021918060905021509160604022A
:10022C000000000008040202020408020408080886
:10023C000402000A041F040A000004041F04040042
:10024C00000000000604020000001F000000000077
:10025C000000060600001008040201000E1119151A
:10026C0013110E0406040404040E0E1110080402EB
:10027C001F1F08040810110E080C0A091F08081F7C
:10028C00010F1010110E0C02010F11110E1F10088E
:10029C00040202020E11110E11110E0E11111E107C
:1002AC000806000606000606000006060006040204
:1002BC001008040204081000001F001F00000102B7
:1002CC0004080402010E1110080400040E1110168B
:1002DC0015150E0E1111111F11110F11110F1111F6
:1002EC000F0E11010101110E070911111109071F40
:1002FC0001010F01011F1F0101070101010E110175
:10030C000119110E1111111F1111110E0404040405
:10031C00040E1C0808080809061109050305091133
:10032C000101010101011F111B15111111111111F5
:10033C0013151911110E11111111110E0F11110F9D
:10034C000101010E1111111509160F11110F0509DB
:10035C00111E01010E10100F1F04040404040411DB
:10036C0011111111110E11111111110A0411111188
:10037C0015151B1111110A040A111111110A04048B
:10038C0004041F10080402011F1C04040404041CB0
:10039C000001020408100007040404040407040A02
:1003AC0011000000000000000000001F0204080003
:1003BC0000000000000E101E111E01010D13111182
:1003CC000F00000E0101110E1010161911111E0054
:1003DC00000E111F010E0C12020702020200001E79
:1003EC00111E100C01010D1311111104000604044F
:1003FC00040E08000C080809060202120A060A126A
:10040C000604040404040E00000B15151111000061
:10041C000D1311111100000E1111110E00000F110E
:10042C000F0101000016191E101000000D13010120
:10043C000100000E010E100F0202070202120C0046
:10044C0000111111191600001111110A04000011EC
:10045C001115150A0000110A040A11000011111ED1
:10046C00100E00001F0804021F08040402040408F4
:10047C000404040404040402040408040402021521
:10048C0008000000001F11111111111F14001E0093
:10049C0064006400C800C8000A001E00D601880071
:1004AC00F000FA00000103070F1F3F7FFF00000060
:1004BC0000000000102728232902020A0202000073
:1004CC001027E80364000A0001000010000110006E
:1004DC0001004144533738343620526573697374C4
:1004EC0069766520546F75636820436F6E74726F04
:1004FC006C6C65722044656D6F00546F7563682079
:10050C00636F6E74726F6C6C65722063616C696280
:10051C00726174696F6E206661696C656400546FFA
:10052C0075636820636F6E74726F6C6C6572206398
:10053C00616C69627261746564204F4B00546F7515
:10054C0063682063726F73732063656E74657220C9
:10055C00746F207265616420636F6F7264696E6181
:10056C0074657300436F6F7264696E617465732098
:10057C00726561642062792074686520746F75639C
:10058C006873637265656E3A0A583D25642C205970
:10059C003D2564004572726F722072656164696EEC
:1005AC006720636F6F7264696E6174657300546F5A
:1005BC00756368207468652073637265656E20745A
:1005CC006F20647261772E2E2E002825642C2564F2
:1005DC002900546F7563682063726F7373206365B1
:1005EC006E74657220746F2063616C6962726174E1
:1005FC00650001002D4E414E00494E4600001A0088
:10060C000024A0050100BC24FE050000F894EE2790
:10061C00E8BFE9BFEABFF091CC01F860F093CC01E0
:10062C00F8EDF4BFE093A200E0934004A0918000A9
:10063C00AD7FA160F4BFA093800080E090E2A0E0C9
:10064C00B0E2ED930197E9F7EAE0F6E08591959138
:10065C00009761F0A591B59105901590BF01F0013F
:10066C0005900D920197E1F7FB01F0CF8BBFE0E015
:10067C00E0B9E1B9E2B9E3B9E4B9E5B9E6B9E7B98A
:10068C00E8B9E9B9EAB9EBB9ECB9EDB9EEB9EFB93A
:10069C00EFEFEDBFEFE3EEBFC0E0D4E20C947C03D0
:1006AC000A921A92FA926A937A938A939A93AA93D9
:1006BC00BA93EA93FA93EFB7EA930E94C50FE991C4
:1006CC00EFBFF991E991B991A9919991899179919A
:1006DC006991F9901990099018950E941B130E942A
:1006EC001B13AEEDB4E00E947A0C08956197DAD03A
:1006FC0017D1E0E2E0938106E09385067894E4EF6D
:10070C00F1E0E883F983E0E0EA83EB83EC83ED83AB
:10071C00E0E1F7E2EE83FF83E8E2F3E2E887F987B2
:10072C00E9E2EA87E2E0EB87EC87EAE0ED87E2E0DA
:10073C00EE87EF87E889EE7FE88BED7FE88BEB7F28
:10074C00E88BE77FE88BEF7EE88BDE010E94F107F8
:10075C00C4DFE091A200E873E1601E2FE8EDE4BF76
:10076C001093A200E0E0E093A100A0E00E94B7107B
:10077C00E03001F57894D5D1E03059F40E941B1388
:10078C00E4E1F0E0FA93EA93A6E0B5E00E947A0C7B
:10079C00FFCF0E941B13E4E1F0E0FA93EA93AAE284
:1007AC00B5E00E947A0CA8EBBBE00E941B160E94DD
:1007BC00A30993DF78940E941B130E942013A9E4D1
:1007CC00B5E00E947A0C10E0133008F042C00E9491
:1007DC00251383D1EDB7FEB73197FA93EA933F9384
:1007EC002F93ADB7BEB711975F934F930E94131021
:1007FC004F915F912F913F910E949B17F0F80E94AF
:10080C00251374D1F0FE19C0E5E4F4E2FA93EA93EF
:10081C00E0E7F5E0FA93EA93F9010E943113FA014B
:10082C000E94311388E00E94D40E2C960E941B1358
:10083C000E942013A5E4B4E206C00E941B130E9480
:10084C002013A0E0B4E20E946C0C0E9436131F5FD0
:10085C00BBCFA0EDB7E00E941B160E94A309AAEB28
:10086C00B5E00E94850CEDB7FEB73197FA93EA9389
:10087C003F932F93ADB7BEB711975F934F930E94E1
:10088C0013104F915F912F913F91E03049F03A93C3
:10089C002A93DA010E94100BAAE0B0E00E941B160A
:1008AC00E2CFFFCF1A930A930FB7F894E091500060
:1008BC00E460E0935000E0915100E470E1F3E091CA
:1008CC005000E260E0935000E0914100E0781E2F70
:1008DC00E8EDE4BF10934100E0915600EC7FE0930B
:1008EC005600E0916000E160E0936000E0915100FF
:1008FC00E270E1F3E0914000E87FE1601E2FE8ED4B
:10090C00E4BF10934000E0915000E67EE09350006D
:10091C00E091B400EC7FE093B4000FBF0C94DA07C5
:10092C00E0910008E07FE160E0930008E0910108AD
:10093C00E870E0930108E0910308E071E09303088C
:10094C00E0910608E07FE160E0930608E09107087B
:10095C00E070E0930708E0910C08E0930C08E0E0ED
:10096C00F0E0E0932008F0932108EFE3FCE9E0933A
:10097C002608F0932708E0E0F0E0E0932808F093D5
:10098C002908E0932A08F0932B08E0932C08F093A5
:10099C002D08E0932E08F0932F08089524970E94B9
:1009AC00A017EA85FB850E943A13EE85FF853596E4
:1009BC00FA93EA93AA89BB890E94BF0C0E94421346
:1009CC00EE85FF850E943A13AA89BB8915960E9471
:1009DC00BF0CE5E4F4E2FA93EA93E6EDF5E0FA9362
:1009EC00EA93EE85FF850E943113EC89FD890E9404
:1009FC00311388E00E94D40E2C96A5E4B4E20E9438
:100A0C00BB0B8F010E94AD0B4E2F5527EC85FD853E
:100A1C003596E40FF51FEE83FF83E031A1E0FA0772
:100A2C004CF0EC85FD853597E41BF50BEE83FF83CD
:100A3C00FF23F2F00E944713D801E2E0F0E00E949D
:100A4C009716AA85BB85AE1BBF0B9D0133231AF4E9
:100A5C0020E030E00CC0D801A20FB31FA03EE1E0B3
:100A6C00BE072CF0EFEDF1E0E01BF10B9F0129C06C
:100A7C00DA01E2E0F0E00E949716AC85BD85AE1B72
:100A8C00BF0BA887B987EA85FB853596E00FF11F68
:100A9C00EE83FF83E03EA1E0FA071CF42E813F8138
:100AAC0010C0EA85FB853597E01BF10BEE83FF83C5
:100ABC00FF231AF02E813F8104C0EA85FB85359710
:100ACC009F013A932A930E944213A5E4B4E20E9438
:100ADC006C0C0E94A7172E9608950E944C130E942E
:100AEC0053130E94FF165ADF249608951A930A9303
:100AFC0000911A2410911B240E945613E0931A247F
:100B0C00F0931B24EA81FB816C817D810E94FF168E
:100B1C0045DF00931A2410931B2419810881269613
:100B2C0008952C970E941B130E942013AEEDB5E084
:100B3C000E947A0C0E945B13D0DFFE01FA93EA93B9
:100B4C00DE0114960E94F60F0E945B13CFDF0E9409
:100B5C003613E8EAF4E0A4E00E940417BEDFFE01BD
:100B6C003496FA93EA93DE0118960E94F60FE8EA9F
:100B7C00F4E0A4E00E940417B9DF0E943613ECEAFB
:100B8C00F4E0A4E00E940417A8DFFE013896FA9363
:100B9C00EA93DE011C960E94F60FECEAF4E0A4E066
:100BAC000E940417A3DFFE01FA93EA93A4EAB4E0CF
:100BBC000E9427112C960895FF92AA9323970E94C6
:100BCC00A017E985E03011F0E53061F4AC85A33075
:100BDC0031F4A0914124B0914224109709F001C046
:100BEC008FC11AC0E13011F0E23009F402C0E330D9
:100BFC0009F402C0E43009F483C1E63069F4EC85F1
:100C0C00E13009F47DC1E33039F4E0914324F091F3
:100C1C004424309709F474C1AB89BC89A03EE1E04F
:100C2C00BE0770F4A989BA89A031E1E0BE0740F48F
:100C3C00AF85B889109721F0AD85BE85109709F462
:100C4C005FC10E946213A13EE1E0BE0740F0AB8998
:100C5C00BC89E0EEF1E0EA1BFB0BEF87F88BED852E
:100C6C00FE85A989BA89AE0FBF1FA131E1E0BE078D
:100C7C0040F0A989BA89E0E1F1E0EA1BFB0BED87B2
:100C8C00FE870E9462131197AE83BF83EB89FC89A8
:100C9C00FA93EA93EB89FC89FA93EA930E94421344
:100CAC00EB89FC89AF89B88DAE0FBF1F11970E94DD
:100CBC00DD07A985A630D9F5AEE20E946913E0E004
:100CCC00E0934006EC85E330C9F40E946F13A9F061
:100CDC002F853889F90121503040309769F043D184
:100CEC008F010E947613A02F0E947F130E9476130F
:100CFC00A12F0E947F13EECFE8CF18C00E946F1374
:100D0C00A9F02F853889F90121503040309769F0CE
:100D1C002AD18F010E948513A02F0E94FF120E94DE
:100D2C008513A12F0E94FF12EECFE8CFE9C0A98551
:100D3C00A73041F400911A2410911B24E09128242F
:100D4C00E0FB09C0A985A83009F05DC000913724EB
:100D5C0010913824E894F0F8EF85F8890E94501629
:100D6C00E887EF85E770EF87E03019F0E885EF5FF3
:100D7C00E887F0FC1FC0ACE20E9469130E946F135D
:100D8C00C1F050E0E8855E1798F40E94901321F4AE
:100D9C00EF85E03009F04F8520FF02C0F80102C05A
:100DAC000E945613DF01B8D026954150A9F7EACF1F
:100DBC00E5CF28C00E946F1329F10E94A413EB8980
:100DCC00FC89EE83FF8350E0E8855E17C0F40E9437
:100DDC00901321F4EF85E03009F04F8520FF06C019
:100DEC000E94B3130E94BC13D80196D02695EE81B5
:100DFC00FF813196EE83FF83415081F7E5CF0E944E
:100E0C00C413D8CF7DC0AF85B88988279927ED85C5
:100E1C00FE850E94CA139F01462FACE20E94691303
:100E2C00E985E030E9F4AC85A33069F40E94CF1376
:100E3C000E2F0E94CF131E2FD8016ED021503040A0
:100E4C004040A1F70CC00E94DB130E2F0E94DB1355
:100E5C001E2FD80161D0215030404040A1F750C026
:100E6C00E53009F041C0AC85A330F9F40E946F1352
:100E7C00D9F00E94A4132B893C89EE81FF81E217E3
:100E8C00F30778F00E94CF130E2F0E94CF130E940D
:100E9C00E91321F00E94F113D8013ED02F5F3F4F90
:100EAC00ECCF0E94C413E2CF1EC00E946F13D9F086
:100EBC000E94A4132B893C89EE81FF81E217F30772
:100ECC0078F00E94DB130E2F0E94DB130E94E913B3
:100EDC0021F00E94F113D8011FD02F5F3F4FECCFB0
:100EEC000E94C413E2CF0CC0E93029F4A0911C2459
:100EFC00B0911D2404C0EA3019F40E94FB1312D2E5
:100F0C000E94A7176596FF90089500000895AA9374
:100F1C00E8810E94001404C2BA93AA931A930A930C
:100F2C000A811B81E12FE87F0E940014F8010E94C6
:100F3C005016EC7F0E940014E02FEE0FEE0FEE0F18
:100F4C000E940014198108810C94BD0C1A93E4E0E2
:100F5C00E09386060E941114109148060E94161404
:100F6C00E12F199108951A930A93E4E0E093860611
:100F7C0000E00E941114E0914806E87F1E2F0E94A9
:100F8C001D14E0914806EC7FF0E00E9449160E2BF0
:100F9C001F2B0E941D14E0914806E695E695E695F8
:100FAC000E2B0E941614F801099119910895BA9309
:100FBC00AA930E94B313AB81AADFAA81A8DFABE28C
:100FCC00A1D1AD81A4D1AC81A2DFA981A0DFA88180
:100FDC009EDF28960895BA93AA9369970E94A0174A
:100FEC00E1E0E0938106E0938506E4E0E09381067E
:100FFC00E0938506E8E0E0938106E0938506E2E065
:10100C00E0938106E0E1E0938106E09386060E947E
:10101C002314E0E1E09385060E942314EF8DF8A1E0
:10102C00309731F0DE011E9681E10E945A1707C0FD
:10103C00EAEBF4E0DE011E9681E10E946417A1E068
:10104C0061D10E942314A1EA5DD154D1E13011F099
:10105C00E0E04CC17BDFE73511F0E0E047C176DF23
:10106C00E13611F0E0E042C171DFE13010F4E0E074
:10107C003DC16CDFEF3F11F0E0E038C13FEFEFEF27
:10108C00FFEFEC87FD8710E01F5F1F3FD0F5AC89A9
:10109C00BD8988279927E12FFF27662777270E948C
:1010AC005F16DF01CB01E8EEF3E060E070E00E9438
:1010BC009C16AF014B3FE0E05E0720F04032E3E0CE
:1010CC005E0708F01DC000E10130D0F0E02F0150A8
:1010DC00DA01F0E00E948416E456F040DF010E9431
:1010EC00C612EA87FB87DF01EC85FD85AE17BF07CB
:1010FC0030F4EA85FB85EC87FD87212F302FE4CF78
:10110C00C3CF3F3F11F4E0E0F1C0A2EEFBD0A22F21
:10111C00A150FDD0A32FFBDEA4E0F9DEA0EEF2D0AF
:10112C00A1E0F5D0A1E0B0E00E941B16A0EEEAD041
:10113C00A3E0EDD0E0E0EE83EF83AE89BF89E5E07C
:10114C00F0E00E948416EE0FFF1FE887F987AE814E
:10115C00BF8188859985E4ECF9E060E070E00E943D
:10116C009C16E150F04060407040EE83FF8368872E
:10117C007987A6EEC7D0A885CAD0AF81C8DEAE816C
:10118C00C6DEA0EBBFD0EE8DE17011F0E0E201C045
:10119C00E0E0AE2FEE8DE27011F0E4E001C0E0E093
:1011AC00EA2BAE2FB4D0A0E0B2DEA1E0B0DEAFED02
:1011BC00AEDEA1E0ACDEAFE00E942714A88DBB2709
:1011CC00EA8DF0E0AE0FBF1FE98DF0E0EA0FFB1FD8
:1011DC00E152FE4FAF01A88DBB27EA8D0E942C1463
:1011EC00A4EB0E943314A88DA1500E942714A0E0F8
:1011FC000E942714AB8DBB27ED8DF0E0AE0FBF1F07
:10120C00EC8DF0E0EA0FFB1FE15FFE4FAF01AB8D01
:10121C00BB27ED8D0E942C14A6EB0E943314AB8DD2
:10122C00A1500E942714A0E072DEEE8DE295E170D1
:10123C00EE0FEE0FEE0FAE2FEE8DE695E695E1700C
:10124C00EE0FAE0FEE8DE695E695E695E170EA0FA2
:10125C00E09395240E944114A0EF54D0A0E057D005
:10126C00AAE350D0A0E653D00E944C13E0E0F0E08B
:10127C00E0931C24F0931D24E0931E24F0931F2470
:10128C00EE85FF85E0932424F0932524E889F989E1
:10129C00E0934124F0934224EA89FB89E0934324B0
:1012AC00F0934424E1E0E0932624E0932724E0919A
:1012BC002824EE7FE0932824E1E0E0932924EFEF4B
:1012CC00E0932A24EFEFFFEFE0933724F0933824D8
:1012DC00E9E3F4E2FA93EA93EFEFEA93A8E0B0E0E3
:1012EC000E94D0122AD0A9E20DD0E1E00E94A717EB
:1012FC00A1960895E2E0E0938506E0E0E0934006D5
:10130C0025DE0895AA93E2E0E093860604C0AA9332
:10131C00E2E0E0938506EFEFE0934006A881F7DD6D
:10132C0021960895BA93AA93A881B981F5DD21502D
:10133C0030404040C9F70C94AB0B0E941B130E9429
:10134C001B130E9448142F933F934F9320E03EEFC2
:10135C0041E0A0911C24B0911D24E4DF4F913F91FA
:10136C002F910E941B13A0E0B0E0F6D20895BA931F
:10137C00AA93EC81FD81FA93EA93EC81FD81FA93B7
:10138C00EA930E944814A881B9810E94920704C272
:10139C00FF92BA93AA9322970E94A017FF240E944F
:1013AC005214A885B98512D1E887F9870E9459147F
:1013BC00E0912924AA85BB85F0E0AE0FBF1F1197E1
:1013CC0017D1AF01E885F985FA93EA93AC85BD8511
:1013DC00C3D2E885F985AC85BD85EA17FB0788F48F
:1013EC00EC85FD85EE83FF83E885F985EC87FD8729
:1013FC000E9447130E946014E064AE2F88DF68944B
:10140C00F0F80E9467140E9467140E946714DA01B6
:10141C000E94DD07ACE20E946913AC85BD850E9479
:10142C006C14AA85BB85FA01EA1BFB0B3196AF0144
:10143C00A0912A24AF3F71F4AE81BF8188279927F0
:10144C00FA010E94CA139F01462F0E94FB130E94AF
:10145C00980922C024970E9456130E94741400E02D
:10146C002A853B85A02F0F5FA77011F410912A24B9
:10147C0010FF03C0E881F98102C0EA81FB81DF0122
:10148C000E9492071695F90131979F0159F7FA01BD
:10149C003197AF0121F72496F0FE02C00E9441144F
:1014AC000E941B130E941B130E947D14FF90089531
:1014BC00BA93AA9322970E94A0170E945214E0910B
:1014CC002924AC85BD85F0E0AE0FBF1F11977ED0EF
:1014DC009F010E945914A885B9858AD0E887F9879D
:1014EC000E946714AA85BB8537D2E885F985AA8541
:1014FC00BB85EA17FB0760F4EA85FB85EE83FF8367
:10150C00E885F985EA87FB870E944713E0EE01C066
:10151C00E0E2EE830E946014AE81EA2BAE2F0E94B3
:10152C008D090E9467140E9467143A932A93AE8522
:10153C00BF850E94DD07ACE20E946913AC85BD85B6
:10154C00F901EA1BFB0B31969F01AA85BB850E9412
:10155C006C14A0912A24AF3F71F4D90188279927E4
:10156C00EE81FF810E94CA139F01462F0E94FB133C
:10157C000E94980922C024970E9456130E9474144A
:10158C0000E04A855B85A02F0F5FA77011F41091C6
:10159C002A2410FF03C0E881F98102C0EA81FB8193
:1015AC00DF010E9492071695FA013197AF0159F7A6
:1015BC00F90131979F0121F724960E9441140E9452
:1015CC001B130E941B130E947D1408950E94891402
:1015DC001CF0E0E0F0E0B9C0A881B981A03EE1E0E8
:1015EC00BE071CF0EFEDF1E0B0C0E881F981ADC0B1
:1015FC000E9489141CF0E0E0F0E0A7C0A881B9813A
:10160C00A031E1E0BE071CF0EFE0F1E09EC0E88104
:10161C00F9819BC0BA93AA93EA81FB81FA93EA936E
:10162C00EA81FB81FA93EA930E94FB13A0DE9FC12F
:10163C00BA93AA9323970E9490148F01002E012A2B
:10164C0019F4E0E0F0E068C00E9497140F820E9449
:10165C0097140E820E9497140886EB85A885EA17CA
:10166C0018F4E0E0F0E058C0F8010F5F1F4F549100
:10167C00A885BB27EE27A50FBE1FEB85F0E0EA1768
:10168C00FB0718F0E0E0F0E047C0EF81E030E1F05C
:10169C00A985BA85EC93E695E695E6954E2FEF81F4
:1016AC00E77009F04F5FA885EB85EA1BF0E0DF01DE
:1016BC00EE81F0E00E945716DF01E42FF0E00E946B
:1016CC005716E00FF11F28C09801E52FF0E00E0F20
:1016DC001F1FA885AF5FA887A150EB85AE17B0F48C
:1016EC00F901E491E695E695E6954E2FF9012F5F09
:1016FC003F4FE491E77009F04F5FAE81BB27E42FB9
:10170C00F0E00E9457160E0F1F1FE3CFF901E49172
:10171C00A985BA85EC93F8010E94A7172C96089519
:10172C00AA932197E0912424F0912524309761F01D
:10173C00E981EA93DE0111967BDF309729F0E09185
:10174C002624A881EA0F01C0E0E0229608950E94A9
:10175C009C14309711F4E0E008950E949C1431968B
:10176C00A491E0912724EA0F0895BA93AA930E94BA
:10177C00A21720E030E0AC81BD81ED91AC83BD833C
:10178C001E2FE03031F0A12FCBDFF0E02E0F3F1FEA
:10179C00F2CFF9010E94A91726960895E0E0F0E037
:1017AC000E94A1140E94A6143196E491F0E0AE0FB1
:1017BC00BF1FE0912724F0E0AE0FBF1F0E94AB14B7
:1017CC000895AA9321970E949014309709F477C03A
:1017DC00AF81AA3009F46FC0EF81EA93DE0117964E
:1017EC0027DFAF01309719F40E94A71789C4E09145
:1017FC002624AE81EA0F3E2FA0912024B091212403
:10180C00E32FF0E0EA0FFB1F8F01013EE1E01E0722
:10181C0018F0032F1127C2DF0E94B2140E94B914D2
:10182C00EA85F0E0FA93EA930E949C143196E491D5
:10183C00F0E0FA93EA93E1E0EA935A934A93A7E033
:10184C000E94E205E0912824E17081F5A09120240A
:10185C00B0912124EE81F0E0EA0FFB1FFA93EA939A
:10186C000E94B914E0912624F0E0FA93EA930E94C6
:10187C009C143196E4910E94C014A9E00E94E205E8
:10188C000E94B2140E94A6143196E491F0E0EA0F83
:10189C00FB1FFA93EA93E32FF0E0FA93EA93E091BB
:1018AC0027240E94C014A9E00E94E205E0EEF1E0BA
:1018BC00E017F10721F472DF0E94A71721C40093EF
:1018CC002024109321240E94A7171AC40E94C61426
:1018DC00A981BA81ED91A983BA831E2FE03019F04A
:1018EC00A12F6FDFF5CF08C00E94C6140E94D1143F
:1018FC0019F0A12F66DFFACF188127960895BA93B5
:10190C00AA931A930E94D11419F0A12F5ADFFACF7F
:10191C00188123960895AA93EB81FC81FA93EA939C
:10192C00EB81FC81FA93EA93E0912A24AC81EA23BF
:10193C0029F0E0911A24F0911B2402C00E94561346
:10194C00DF0115DDE881EE0FE883E03011F4E1E012
:10195C00E883E88125960895BA93AA93AA81BB815E
:10196C0035DE0E94A114A881B9810E94AB14249683
:10197C000895BA93AA932E970E94A017AA8DBB8D97
:10198C0025DEEA8FFB8FAE89BF8920DEEE8BFF8BC5
:10199C00A88DB98D2DDEE88FF98FAC89BD8928DE35
:1019AC00EC8BFD8BEE89FF890E94A114EC89FD89DB
:1019BC00E0932224F0932324E1E0EF83EC89FD896A
:1019CC00A88DB98DEA17FB0791F40A8D1B8DAE8992
:1019DC00BF890A171B0729F40E94DB14A1E09BDFC7
:1019EC00B8C00E94DB14AA8DBB8DD2DCB2C0EE89CC
:1019FC00FF89AA8DBB8DEA17FB0761F4488D598DC1
:101A0C00EA8DFB8DFA93EA935A934A93A88DB98D7C
:101A1C004FDD9FC0E0E0EE83AE81AF5FAE83A1509F
:101A2C00E0912924AE1708F094C00A8D1B8D488DC7
:101A3C00598DE1E0F0E0EA8BFB8B9F01AA8DBB8D09
:101A4C00EE89FF89EA1BFB0BE88BF98BA989AA238A
:101A5C0032F42FEF3FEF0E943D16E88BF98BE889AB
:101A6C00F989EE0FFF1FEE87FF87A88DB98DEC89E2
:101A7C00FD89EA1BFB0BEC87FD87AD85AA2352F48D
:101A8C00EFEFFFEFEA8BFB8BEC85FD850E943D169B
:101A9C00EC87FD87EC85FD85EE0FFF1FEA87FB8742
:101AAC000E94E214A1E037DFEF83E0E0E887E987EA
:101ABC00E889F989AC85BD85EA17FB0704F1020FAB
:101ACC00131FEA85FB850E94E714E889F989A8852C
:101ADC00B985EA17FB0744F4EA89FB894E0F5F1FAF
:101AEC00AE85BF850E94EE140E94E214AB8513DF15
:101AFC00EF83EE89FF89E017F10709F71FC0EA8928
:101B0C00FB894E0F5F1FEE85FF850E94E714EC8565
:101B1C00FD85A885B985EA17FB0734F4020F131F5E
:101B2C00AA85BB850E94EE140E94E214AB85F3DEFD
:101B3C00EF83EC89FD89E417F50709F7E88DF98D3A
:101B4C003196E88FF98FEC89FD893196EC8BFD8B02
:101B5C0063CF0E94A7176C960895BA93AA931A9311
:101B6C000A93AA81BB8112960E94E716309759F10D
:101B7C00AA81BB8114960E94E7168F01309761F001
:101B8C000230E0E01E0798F0F80131978F01AA812E
:101B9C00BB811496ED93FC93AA81BB8112960E9493
:101BAC00E7163196ED93FC933197AC81A083AA8113
:101BBC00BB810E94E716FF232AF00E94E71631969C
:101BCC00ED93FC9306C0AA81BB81EFEFFFEFED9381
:101BDC00FC93198108810C94DE12BA93AA93249772
:101BEC000E94A01710E0AA85BB85E0E0F0E0ED9321
:101BFC00FC93E889F9893196E88BF98B3197E4915C
:101C0C003E2FE03009F4C2C0E12FE03039F4353218
:101C1C0011F411E002C00E94F514B7C0E13089F450
:101C2C00353219F40E94F514AFC012E020E000E048
:101C3C003B3211F42BE2A9C0303211F420E2A5C0E2
:101C4C0002C0E23031F4303319F4006115E09DC06C
:101C5C0003C0E53009F099C0E32FE33661F40E942C
:101C6C00FC14EE85FF85A481AA93AB85BC85ED851C
:101C7C00FE85099589C0E33781F40E94FC140E940B
:101C8C000215AE81BF81ED91AE83BF833E2FE03054
:101C9C0019F00E94F514F5CF77C0E03791F40E944B
:101CAC00FC140E940215EE81FF813196EE83FF83B6
:101CBC003197E4913E2FE03019F00E94F514F3CFE8
:101CCC0063C0E43611F0E93611F4016002C0E53767
:101CDC0019F4ECECF4E009C0E83511F4026003C02F
:101CEC00E83709F051C0E6EDF4E0EE83FF8300FF26
:101CFC0017C00E94FC14AE85BF8514964D915C9163
:101D0C0055232AF4FA010E943D16AF012DE2203032
:101D1C0031F02A93AB85BC85ED85FE85099507C00E
:101D2C000E94FC14AE85BF8514964D915C9130E3F6
:101D3C00EE81FF810E94EB16E887F987EE81FF8127
:101D4C003296EE83FF83E885F9854E175F0730F0F6
:101D5C003F5FA885B9854A1B5B0BF5CF04FD06C018
:101D6C00313320F4A885B985119751F400613A33C9
:101D7C0028F001FF02C0395F01C0395D0E94F514E3
:101D8C00A885B985129798F610E033CFAA85BB8544
:101D9C000E94E7160E94A71762960895FF92F82EEC
:101DAC0026970E94A2170E940A15309719F4EFEF9C
:101DBC00FFEF23C0DE0116960E9425168D010E94AE
:101DCC000A15EE83FF83E0E0E887E987DE011A96C7
:101DDC000E9425160E94E716FA93EA931A930A9327
:101DEC00E3EBFDE0FA93EA93DE011A96F6DE9F012F
:101DFC00AE81BF81E0E0EC93F9010E94A9172A960D
:101E0C00FF90089500000895AA930E94A2170C81D8
:101E1C0035E0E1E0E093A60607FF04C0E4E0E093C0
:101E2C00A50603C0E4E0E093A606ECDF0E941115C2
:101E3C00000F315089F733E007FF04C0E4E0E09372
:101E4C00A50603C0E4E0E093A606DCDFE2E0E09345
:101E5C00A50685ED8A95F1F7E093A60685ED8A95A2
:101E6C00F1F7000F315041F7E4E0E093A60600E0F3
:101E7C0010E03CE00E941115E2E0E093A506000F93
:101E8C00111FE091A806E87009F00160E2E0E09310
:101E9C00A606B8DF315081F7E1E0E093A506F80122
:101EAC000E94A9170C94DE12AA9362970E94A017A5
:101EBC00388DA32FA9DF10E0193078F4E12F0E94A0
:101ECC001B15EA0FFB1FFF93EF93A32F9DDFAF9121
:101EDC00BF91ED93FC931F5FEFCF18E000E001176B
:101EEC0090F5302F0395E32F0E941B15AE0FBF1FEB
:101EFC000D901C90E02F0E941B15AE0FBF1F0E946F
:101F0C00E716E015F105F0F4E32F0E941B15AE0F58
:101F1C00BF1F4D915C91E32F0E941B15EA0FFB1F15
:101F2C000F01E02F0E941B15AE0FBF1F0E94E7167A
:101F3C00D001ED93FC93E02F0E941B15EA0FFB1FC1
:101F4C0040835183CCCF115049F6EC85FD85AA8591
:101F5C00BB85EA0FFB1FAE85BF85EA0FFB1FA88967
:101F6C00B989EA0FFB1FAA89BB89AE0FBF1FE5E039
:101F7C00F0E00E9484160E94A71769960895E091DC
:101F8C00A806E07119F00E94211529C0E091B72430
:101F9C00E03029F1E150E093B724E03019F4E0E1AE
:101FAC00E093A106E0E1E093A606E091B624E06997
:101FBC00AE2F7ADFF695E795E093B824F093B92429
:101FCC00E091B624E06DAE2F6FDFF695E795E093C8
:101FDC00BA24F093BB24009AE0E1E093A2060895A2
:101FEC00BA93AA931A93009BFECF1FB7F894E09173
:101FFC00B824F091B924AB81BC81ED93FC93E091B2
:10200C00BA24F091BB24A981BA81ED93FC930E9470
:10201C0021151FBF18810C94DE12BA93AA93249732
:10202C00FE013296FA93EA93DE011296D9DF0E94F2
:10203C00261519F40E94361511F4E0E061C0A09148
:10204C009A24B0919B2480919C2490919D240E9471
:10205C0041157F936F93FF93EF93A0919E24B091C2
:10206C009F248091A0249091A1240E944815AF91A7
:10207C00BF918F919F910E942E16E091A224F09116
:10208C00A3246091A4247091A5240E944F15AE81C5
:10209C00BF81ED93FC93F07811F0E0E031C0A0919A
:1020AC00A624B091A7248091A8249091A9240E94E1
:1020BC0041157F936F93FF93EF93A091AA24B09156
:1020CC00AB248091AC249091AD240E944815AF9123
:1020DC00BF918F919F910E942E16E091AE24F091AA
:1020EC00AF246091B0247091B1240E944F15AC8143
:1020FC00BD81ED93FC93F07811F0E0E001C0E1E0DC
:10210C0028960895BA93AA931A93AB81BC810E9426
:10211C005C1529F4A981BA810E945C1521F0E0E0DC
:10212C0018810C94DE1210E2AB81BC811196AB834A
:10213C00BC8311970E9427170E2EA981BA81119684
:10214C00A983BA8311970E942717E01521F0E0E0CC
:10215C0018810C94DE12115039F7E1E018810C94BF
:10216C00DE12AA930E94A217E1E0E093A106E0938D
:10217C00A506E2E0E093A106E093A606E4E0E09376
:10218C00A106E093A606E8E0E093A206E0E1E09366
:10219C00A206EC81E03011F0E4E001C0E0E0E09355
:1021AC00B6240E942115E091B624E069AE2F2CDEF6
:1021BC00E1E0F0E0FA93EA93A1E2B0E0A3DF1E2F96
:1021CC00E1E2F0E00E9466150E2FE1E0F0E00E94E3
:1021DC0066153E2FE1E0F0E0A6E9B4E280E20E9451
:1021EC006E17103021F0003011F0303009F401C0BE
:1021FC001BC0103019F00E946C1516C0003051F045
:10220C00E1E2F0E0A6E9B4E280E20E946E170E94DF
:10221C0074150AC0303019F00E947C1505C0E0E03E
:10222C000E94A9170C94DE120E94261529F40E9414
:10223C00361511F0E1E001C0E0E00E94A9170C9402
:10224C00DE12BA93AA93E897E8ADF9ADDE01909649
:10225C008CE00E946417EAADFBADDE019C968CE02D
:10226C000E945A17AAA9BBA90E948415AC8FBD8FD6
:10227C008E8F9F8FAEA5BFA50E948415A88FB98F96
:10228C008A8F9B8F0E948D150E949215AC8BBD8BF3
:10229C008E8B9F8B0E9499150E949215A88BB98BDF
:1022AC008A8B9B8BA8A1B9A10E949E15AC87BD8778
:1022BC008E879F87ACA1BDA10E949E15A887B98768
:1022CC008A879B87AAA1BBA10E94A715AC83BD835B
:1022DC008E839F83AEA1BFA10E94A7150E94FA1600
:1022EC00EC89FD896E897F890E94B0157F936F936D
:1022FC00FF93EF93E889F9896A897B890E94B71566
:10230C00AF91BF918F919F910E94BE15E093B22423
:10231C00F093B3246093B4247093B5240E948D176A
:10232C0011F4E0E02BC1EC85FD856E857F850E9464
:10233C00B0157F936F93FF93EF93E885F9856A85CA
:10234C007B850E94B715AF91BF918F919F910E9491
:10235C00BE15E0939A24F0939B2460939C24709375
:10236C009D24E885F9856A857B850E94C3157F933A
:10237C006F93FF93EF93EC85FD856E857F850E94AF
:10238C00CA15AF91BF918F919F910E94BE15E0939A
:10239C009E24F0939F246093A0247093A124EC813D
:1023AC00FD816E817F810E94B0157F936F93FF93A7
:1023BC00EF930E9453130E94B715AF91BF918F9169
:1023CC009F910E94BE15E093A624F093A7246093DE
:1023DC00A8247093A9240E9453130E94C3157F93C1
:1023EC006F93FF93EF93EC81FD816E817F810E944F
:1023FC00CA15AF91BF918F919F910E94BE15E0932A
:10240C00AA24F093AB246093AC247093AD240E9467
:10241C00D1150E94D6157F936F93FF93EF930E9473
:10242C0099150E94DD15AF91BF918F919F910E94DC
:10243C00E4157F936F93FF93EF930E948D150E9489
:10244C00DD157F936F93FF93EF930E94D1150E943C
:10245C00ED15AF91BF918F919F910E94F415AF91A3
:10246C00BF918F919F910E9429167F936F93FF9339
:10247C00EF930E9499150E94ED157F936F93FF9334
:10248C00EF930E948D150E94D615AF91BF918F913D
:10249C009F910E94FD15AF91BF918F919F910E94CA
:1024AC002916E093A224F093A3246093A4247093A0
:1024BC00A5240E94D1150E9406167F936F93FF935B
:1024CC00EF930E9499150E940D16AF91BF918F91B9
:1024DC009F910E94E4157F936F93FF93EF930E945B
:1024EC008D150E940D167F936F93FF93EF930E94AF
:1024FC00D1150E941416AF91BF918F919F910E949C
:10250C00F415AF91BF918F919F910E9429167F93E3
:10251C006F93FF93EF930E9499150E9414167F936B
:10252C006F93FF93EF930E948D150E940616AF9147
:10253C00BF918F919F910E94FD15AF91BF918F918B
:10254C009F910E942916E093AE24F093AF246093E0
:10255C00B0247093B124E5E0F3E062E679E1E09316
:10256C009624F093972460939824709399240E9456
:10257C0074150E947C150E946C15E1E0EC96089590
:10258C00BA93AA93E991F99130971AF4E095F095E2
:10259C0031960895BA93AA93B981A881109631F017
:1025AC00FC81EB816A8161931197E9F7EB81FC81E6
:1025BC0025960895BA93AA93EA81E13021F4E88133
:1025CC00F981E49114C0E23029F4A881B9810E9408
:1025DC0027170DC0E33041F4A881B981E091412463
:1025EC00F0914224099503C0A881B981EC912396FE
:1025FC000895AA93EB81E03029F4E881A981BA818E
:10260C00EC9311C0E23031F4E881A981BA810E94C7
:10261C00301709C0E33039F4E981FA81FA93EA936F
:10262C00AA810E947F1324960895E0E0F0E0FA93CB
:10263C00EA930895EAE0F0E0FA93EA930895E12F23
:10264C00A8E9B4E0F0E00E944B16EA0FFB1FA4E0EF
:10265C000E9404170895662777270E94FF16089595
:10266C00A8EEB3E00C941B163597FA93EA93EE851B
:10267C00FF85FA93EA930895EA85FB85FA93EA932A
:10268C000895EE81FF81E887F9870895EFEFFFEF5A
:10269C00E0931A24F0931B2408950E94F5160895D4
:1026AC00E0911C24F0911D240895E4EAF4E00E94CA
:1026BC00EF160E94FF160895EF85F889AB89BC8947
:1026CC00AE0FBF1F08950E948809E2E0E0938506D3
:1026DC000895ED85FE853197ED87FE873196089537
:1026EC00EA85FB853196EA87FB873197FA93EA9363
:1026FC000895E0914324F091442409950895EC85C4
:10270C00EA93EB85FC853196EB87FC873197FA933E
:10271C00EA930895EC85EA93EB85FC853196EB877B
:10272C00FC87319766277727DF01CB010E94E012E7
:10273C002E2F48E05F5FE885E5170895ABE20E9415
:10274C008809AA890E948D09A9890E948D07A1E098
:10275C000E948D07AFE00C948D07AAE20E948809B5
:10276C00AF810E948D09AE810C948D07A1E00E946F
:10277C008D07AFED0E948D07ACE2A5CFE989FA89F0
:10278C003196E98BFA8B0895662777270E945F169E
:10279C000895AA85BB851196AA87BB871197E091EE
:1027AC004124F091422409950895EC85EA93EB8538
:1027BC00FC853196EB87FC87319766277727DF01FD
:1027CC00CB010C94E0121E2FE0911E24F0911F24DB
:1027DC00E017F1070895AAE20E948809A32F0E942E
:1027EC008D09A22F0E948D07C1CFA0911A24B09100
:1027FC001B240895E0934406E1E0E0938606E8E0AC
:10280C00E09386060E948B07E8E0E0938506E1E002
:10281C00E09385060895E1E0E09386060C948B071F
:10282C00E1E0E0938506E4E0E09385060895E1E0BD
:10283C00E09385060E948B07EECFA5E0B0E00C94E8
:10284C001B160E948D07A0E00C948D07F0E0AE0FD4
:10285C00BF1F1197AC87BD8708950E948809A52FCB
:10286C000E948D09A42F0E948D07AD850E948D07B3
:10287C00AC850C948D07A6E30E948809A091952441
:10288C000C948D09EFEDF1E0FA93EA93AFE0B1E02F
:10289C000E94DD07ACE217CFAC85BD850E94EC0A27
:1028AC00EC87FD870895AA85BB850E94FE0AEA87FE
:1028BC00FB870895A6E30E948809E0919524EF71A7
:1028CC000895EC85FD85FA93EA930895E885F985DA
:1028DC00EA1BFB0B3196EE83FF830895EA83FB839F
:1028EC00E0911A24F0911B24E883F9830895EFED0D
:1028FC00F1E0FA93EA93AFE0B1E00E94DD070E94A9
:10290C00A7172E960895BA93AA93A881B9810E940D
:10291C00911708950E94A017E0912424F09125248A
:10292C000895F8010F5F1F4F04900895E09124243F
:10293C00F09125240895E0932024F0932124089508
:10294C00A0912224B0912324F1CF0E94FE0AE0939F
:10295C002224F09323240895E0912024F091212443
:10296C00FA93EA930895E0912224F0912324FA93A8
:10297C00EA930895F0E0FA93EA93E0E0EA9355CEF7
:10298C00BA93AA931A93ED81FE81FA93EA93AD81DF
:10299C00BE810C94B20CE981FA813196E983FA83F9
:1029AC003197E4911E2FE03008951A930A93EA8D23
:1029BC00FB8DFA93EA9308951A930A935A934A93C8
:1029CC000895A885B985EA0FFB1FE887F987089554
:1029DC00E885F985EA1BFB0BE887F98708953A939C
:1029EC00AB85BC85ED85FE8509950895EE85FF8543
:1029FC003497EE87FF870895AE85BF8514960E94A5
:102A0C00E716EE83FF830895DE011C960E942516BF
:102A1C000E94E7160895E2E0E093A5060E94080FD5
:102A2C00E2E0E093A6060C94080FF0E0DE011696A7
:102A3C00EE0FFF1F0895E5E0E093B724009808958A
:102A4C00A0919624B09197248091982490919924E8
:102A5C00A530E3E0BE07E2E68E07E9E19E070895A4
:102A6C00A091B224B091B3248091B4249091B52458
:102A7C000E9495170895EA81FB81662777270E94AB
:102A8C007F160895E881F981662777270E947F16C3
:102A9C0008950E942E16E091B224F091B324609117
:102AAC00B4247091B5240E94C11608950E941A177F
:102ABC00E530A3E0FA07A2E66A07A9E17A070895D0
:102ACC00FA93EA93A1E4B0E00C948810A1E4B0E08E
:102ADC00E6E9F4E260E20E947E170895E6E9F4E28A
:102AEC00A1E0B0E060E20E947E170895A1E2B0E0A0
:102AFC00E6E9F4E260E20E947E17089588279927A0
:102B0C00EEA9FFA9662777270E9438160895ACA571
:102B1C00BDA5882799270895ECA9FDA966277727D5
:102B2C000E9438160895A8A9B9A98827992708954D
:102B3C0088279927E8A5F9A5662777270E943816D4
:102B4C00089588279927EAA5FBA5662777270E9471
:102B5C0038160895AC8DBD8D8E8D9F8D0E947F167D
:102B6C000895A88DB98D8A8D9B8D0E947F1608952E
:102B7C000E940D170E9433160895AC89BD898E8969
:102B8C009F890E947F160895A889B9898A899B8993
:102B9C000E947F160895ACA9BDA98827992708958E
:102BAC00ECA1FDA1662777270E947F160895E8A562
:102BBC00F9A5662777270E947F1608950E9438167C
:102BCC00EEA5FFA5662777270E947F160895E8A13A
:102BDC00F9A1662777270E947F1608950E94381660
:102BEC00EAA9FBA9662777270E947F1608950E9401
:102BFC003816EEA9FFA9662777270E947F1608953D
:102C0C00EEA1FFA1662777270E947F160895EAA5FB
:102C1C00FBA5662777270E947F160895EAA1FBA1E2
:102C2C00662777270E947F160895109639F080E466
:102C3C009FE10197F1F7A8951197C9F70895002422
:102C4C00AF0DB01D0895EA0FFB1F681F791F089583
:102C5C00AE0FBF1F861F971F0895EA1BFB0B680B57
:102C6C00790B0895AE1BBF0B860B970B0895F1954E
:102C7C00E195F0400895F09560957095E195FF4FC2
:102C8C006F4F7F4F0895EE0FFF1FEE0FFF1FEE0FDC
:102C9C00FF1F0895F695E795F695E795F695E79558
:102CAC000895FA9FF02DEB9FF00DEA9FE02DF10DAA
:102CBC0008957A9F702D6B9F700DF89F700DE99F92
:102CCC00700D6A9F602D710DFB9F600D711DE89F4B
:102CDC00600D711D8827FA9FF02D610D781FEB9FF9
:102CEC00F00D611D781FEA9FE02DF10D681F781F14
:102CFC00089554D0DEDF0EF4BEDF089500241124B5
:102D0C0090E1AA0FBB1F001C111C0E1A1F0A18F40D
:102D1C000E0E1F1E01C0A1609A9599F7FD01D001FE
:102D2C0008952ED0EBDF0EF4A2DF08953F934F935E
:102D3C005F93002411244427552730E2AA0FBB1FB0
:102D4C00881F991F001C111C441F551F0E1A1F0AA7
:102D5C00460B570B28F40E0E1F1E461F571F01C0A3
:102D6C00A1603A9559F7FD01BC01D001CA015F91F0
:102D7C004F913F91089512D0D9DF0EF47CDF089566
:102D8C00E894F7FF02C073DF6894B7FF06C0A09504
:102D9C00B095119600F8039400FA0895E89477FF23
:102DAC0002C069DF689497FF0BC00024A095B09512
:102DBC00809590951196801D901D00F8039400FA53
:102DCC000895ED91FC91119708950590F491E02DE3
:102DDC0008950590159065917491F0010895E8811E
:102DEC00F9816A817B810895A883B9838A839B8347
:102DFC0008957A936A93FA93EA930895BB27EA0F9E
:102E0C00FB1F3197C8950A921197D9F70895182E80
:102E1C00862F612D192E972F712D1B2EBF2FF12D63
:102E2C001A2EAE2FE12D0895A895E091CF01E7FD64
:102E3C00FBCFB05FED91FD916D917C91A350B041B2
:102E4C000895A895E091CF01E7FDFBCFB05FEC9121
:102E5C00B051089523D0B05F8C918E1711F4B051FE
:102E6C0008959E2F1BD07F937FB7F8949C93B051FD
:102E7C00A093C001B093C10180E08093C20185E3AF
:102E8C008093CA0188ED91E084BF9093CB0106D06A
:102E9C0080E08093CA017FBF7F910895A8958091AF
:102EAC00CF0187FDFBCF08959927EF93FF93619195
:102EBC006D930197E1F7FF91EF9108959927EF93A7
:102ECC00FF9305900D920197E1F7FF91EF91089513
:102EDC009927EF93FF93F05FA8956091CF0167FD61
:102EEC00FBCF61916D930197E1F7FF91EF910895FD
:102EFC007727EF93FF930190EF93E02DABDFEF91EA
:102F0C00119661507040B9F7FF91EF910895309789
:102F1C0060407040089500240A160B0608950024A2
:102F2C000A160B06080609060895E894EE2309F024
:102F3C00689408955A934A933A932A931A930A934E
:102F4C0008955D814C813B812A8119810881089506
:00000001FF
