:060000000C94C4020C94F4
:1000060000000C9400000C9400000C9400000C946A
:1000160000000C9400000C9400000C9400000C945A
:1000260000000C9400000C9400000C9400000C944A
:1000360000000C947C030C9400000C9400000C94BB
:1000460000000C9400000C9400000C9400000C942A
:1000560000000C9400000C9400000C9400000C941A
:1000660000000C9400000C9400000C9400000C940A
:1000760000000C9400000C9400000C9400000C94FA
:1000860000000C9400000C9400000C9400000C94EA
:1000960000000C9400000C9400000C9400000C94DA
:1000A60000000C9400000C9400000C9400000C94CA
:1000B60000000C9400000C9400000C9400000C94BA
:1000C60000000C9400000C9400000C9400000C94AA
:1000D60000000C9400000C9400000C9400000C949A
:1000E60000000C9400000C9400000C9400000C948A
:1000F60000000C9400000C9400000C9400000C947A
:1001060000000C9400000C9400000C9400000C9469
:1001160000000C9400000C9400000C9400000C9459
:1001260000000C9400000C9400000C9400000C9449
:1001360000000C9400000C9400000C9400000C9439
:1001460000000C9400000C9400000C9400000C9429
:1001560000000C9400000C9400000C9400000C9419
:1001660000000C9400000C9400000C9400000C9409
:1001760000000C9400000C9400000C9400000C94F9
:1001860000000C9400000C9400000C9400000C94E9
:1001960000000C9400000C9400000C9400000C94D9
:1001A60000000C9400000C9400000C9400000C94C9
:1001B60000000C9400000C9400000C9400000C94B9
:1001C60000000C9400000C9400000C9400000C94A9
:1001D60000000C9400000C9400000C9400000C9499
:1001E60000000C9400000C9400000C9400008602A1
:1001F600870293029E02AB02B602C102D102DB0263
:10020600E402F60209031A0329033A034A032022E9
:100216002A2B2C5B3D5D7C7F000000040002000160
:1002260080004000200010000800040002000000CA
:100236000080004000200010000800400020001050
:10024600000800040002303A2F66696C652E747847
:10025600740049206C696B6520436F646556697349
:10026600696F6E4156522120486572652773207367
:100276006F6D65206D6F726520746578742E2E2EF5
:100286000046525F4449534B5F4552520046525F07
:10029600494E545F4552520046525F4E4F545F528C
:1002A600454144590046525F4E4F5F46494C450012
:1002B60046525F4E4F5F504154480046525F494E8A
:1002C60056414C49445F4E414D450046525F4445B8
:1002D6004E4945440046525F4558495354004652DC
:1002E6005F494E56414C49445F4F424A454354008C
:1002F60046525F57524954455F50524F54454354F6
:1003060045440046525F494E56414C49445F44526B
:100316004956450046525F4E4F545F454E41424C4A
:1003260045440046525F4E4F5F46494C455359532C
:1003360054454D0046525F4D4B46535F41424F5226
:100346005445440046525F54494D454F5554004567
:1003560052524F523A2025700D0A0046696C653A92
:100366002025732C20417474726962757465733A22
:1003760020256325632563256325630D0A4461747F
:10038600653A20253032752F253032752F25752C8C
:100396002054696D653A20253032753A253032751C
:1003A6003A253032750D0A53697A653A20256C75FF
:1003B6002062797465730D0A0046696C65202573A1
:1003C600206F70656E6564204F4B0D0A0025752001
:1003D600627974657320726561640D0A0052656105
:1003E6006420746578743A20222573220D0A00462B
:1003F600696C6520257320636C6F736564204F4BB1
:100406000D0A004C6F676963616C206472697665DA
:1004160020303A206D6F756E746564204F4B0D0A5F
:100426000046696C65202573206372656174656496
:10043600204F4B0D0A0057726974652074657874F5
:100446003120746F207468652066696C650D0A003A
:100456002575206279746573207772697474656E88
:10046600206F662025750D0A005365656B20746F35
:100476002074686520656E64206F66207468652048
:1004860066696C65204F4B0D0A00417070656E649D
:1004960020746578743220746F20746865206669EC
:1004A6006C650D0A0025752062797465732061708C
:1004B60070656E646564206F662025750D0A0052AE
:1004C6006561642D4F6E6C79206174747269627512
:1004D600746520736574204F4B0D0A004E657720B6
:1004E60074696D65207374616D7020253032752FC7
:1004F600253032752F257520253032753A25303254
:10050600753A2530327520736574204F4B0D0A00FD
:10051600526561642D4F6E6C7920617474726962E4
:1005260075746520636C6561726564204F4B0D0AB6
:1005360000000100EBFE904D53444F53352E300022
:100546004E4F204E414D4520202020464154333207
:10055600202020004E4F204E414D45202020204691
:1005660041542020202020000B006C284C0216004D
:100576007828580218008F286E020100A82938052D
:100586000000F894EE27E8BFE9BFEABFF091CC017E
:10059600F860F093CC01F8EDF4BFE093A200E0938D
:1005A6004004A0918000AD7FA160F4BFA0938000BD
:1005B60080E090E2A0E0B0E2ED930197E9F7EEE685
:1005C600F5E085919591009761F0A591B59105901B
:1005D6001590BF01F00105900D920197E1F7FB011F
:1005E600F0CF8BBFE0E0E0B9E1B9E2B9E3B9E4B935
:1005F600E5B9E6B9E7B9E8B9E9B9EAB9EBB9ECB9E9
:10060600EDB9EEB9EFB93E2E4E2E5E2EEFEFEDBFF1
:10061600EFE3EEBFC0E0D4E20C94A9041A93E09194
:100626005000E460E0935000E0915100E470E1F383
:10063600E0915000E260E0935000E0914100E078E4
:10064600E2601E2FE8EDE4BF10934100E0915600F2
:10065600EC7FE0935600E0916000E160E09360007B
:10066600E0915100E270E1F3E0914000E87FE16043
:100676001E2FE8EDE4BF10934000E0915000E67EA7
:10068600E0935000E091B400EC7FE093B400CEC25A
:10069600E0910008E07FE260E0930008E091010845
:1006A600E870E0930108E0910308E071E093030825
:1006B600E0910608E07FE160E0930608E091070814
:1006C600E070E0930708E0919008EE7FE0939008D1
:1006D600E0910C08E0930C08E0E0F0E0E0932008DD
:1006E600F0932108EFE3FCE9E0932608F09327084E
:1006F60008950A921A92FA926A937A938A939A932F
:10070600AA93BA93EA93FA93EFB7EA9344D7E99197
:10071600EFBFF991E991B991A9919991899179914F
:100726006991F990199009901895E8E0E0934006D0
:10073600E0934506E3E0E093A508E091A308E07C9A
:10074600E093A308E5ECE093A608ECEAE093A7089B
:10075600E091A408E07EE860E093A4080895AA93D7
:10076600E091A108E072E1F3E881E093A0089EC45D
:10077600AA93A881A13010F0A03108F012C0E5E5D7
:10078600F3E0FA93EA93EA81A4EFB1E0F0E0EE0F2A
:10079600FF1FEA0FFB1F0E94D2240E94FE1E0E942A
:1007A600031FFFCFBA93AA93E881F981FA93EA93DC
:1007B600A6E5B8E20E940B1C3E2EE03009F07AC096
:1007C600E1E6F3E0FA93EA93EFE5F8E20E94FE1E13
:1007D600E0915E28E07111F0E4E401C0EDE20E94D0
:1007E600081FE17011F0E2E501C0EDE20E94081F6A
:1007F600E27011F0E8E401C0EDE20E94081FE47027
:1008060011F0E3E501C0EDE20E94081FE07211F06D
:10081600E1E401C0EDE2FF27662777270E94EA247C
:10082600E0915A28F0915B28EF71F0700E94FE1E4D
:10083600A0915A28B0915B28E5E00E940B24EF7046
:10084600F0700E94FE1EA0915A28B0915B28E9E044
:100856000E940B24E454F84F0E94FE1EA0915C28CF
:10086600B0915D28EBE00E940B240E94FE1EA09131
:100876005C28B0915D28E5E00E940B24EF73F070D0
:100886000E94FE1EE0915C28F0915D28EF70F070EA
:10089600EE0F0E94FE1EE0915628F09157286091B7
:1008A6005828709159280E94EA2484E30E94C21EA7
:1008B600E69602C0A32D5CDF229608950E94101FC3
:1008C6000E94151FA1E00E941A1F29F40E941F1FF3
:1008D6000E94031F02C0A32D4BDF0E94101FE8EAEF
:1008E600F8E2FA93EA93EFEFF0E0FA93EA93ADB702
:1008F600BEB711975F924F920E94D2164F905F90AB
:100906003E2EE030B1F4E3EDF3E00E94261F0E9494
:10091600031FF201E755F74DA0E0A083E3EEF3E0F5
:10092600FA93EA93E8EAF8E20E94FE1E0E94031F89
:1009360002C0A32D1DDF0E942A1F29F40E94311F29
:100946000E94031F02C0A32D13DF0895E091A200A9
:10095600E873E1601E2FE8EDE4BF1093A200E0E02B
:10096600E093A100E8E1E093710658DE91DEDDDE5A
:10097600E0E0E0930024E0930124E0930224E09376
:100986000324789420D6E03011F4A3E0F1DEE0E011
:10099600EA93A4E0B4E20E9480153E2EE03029F4EA
:1009A600E9E0F4E00E94381F02C0A32DE1DEACE6C8
:1009B600B8E20E943C1C0E94101F0E94151FAAE06C
:1009C6000E941A1F39F4E7E2F4E00E943F1F0E94DA
:1009D600031F02C0A32DCCDEECE3F4E00E94381F17
:1009E6000E94101FE8E7F8E2FA93EA93E6E1F0E0E6
:1009F600FA93EA93ADB7BEB711975F924F920E94F2
:100A060034184F905F903E2EE03059F4E6E5F4E05E
:100A16000E94261FE6E1F0E060E070E00E94441FBD
:100A260002C0A32DA5DE0E942A1F29F40E94311FB1
:100A36000E94031F02C0A32D9BDE40DF0E94101FF1
:100A46000E94151FA2E00E941A1F29F40E941F1F70
:100A56000E94031F02C0A32D8BDE0E94101FA091CF
:100A66004026B091412680914226909143260E94CD
:100A76006A1A3E2EE03039F4EFE6F4E00E943F1F9A
:100A86000E94031F02C0A32D73DEE0E9F4E00E947A
:100A9600381F0E94101FEFE8F8E2FA93EA93E8E1A4
:100AA600F0E0FA93EA93ADB7BEB711975F924F9213
:100AB6000E9434184F905F903E2EE03059F4EBEAD6
:100AC600F4E00E94261FE8E1F0E060E070E00E949A
:100AD600441F02C0A32D4CDE0E942A1F29F40E9447
:100AE600311F0E94031F02C0A32D42DEE7DE0E94D3
:100AF6004B1FE1E00E94501F39F4E5ECF4E00E9440
:100B06003F1F0E94031F02C0A32D32DEE6E6F8E275
:100B1600E0935A28F0935B28E0E0F5E7E0935C2841
:100B2600F0935D280E94151FA6E5B8E20E94021DFB
:100B36003E2EE03059F5E2EEF4E0FA93EA93E6E071
:100B4600F0E060E070E00E94EA24E3E0F0E060E0BC
:100B560070E00E94EA24E0EDF7E060E070E00E94B9
:100B6600EA24EEE0F0E060E070E00E94EA24E8E2C9
:100B7600F0E060E070E00E94EA240E94571F0E94A5
:100B8600EA2488E10E94C21E6A9602C0A32DF0DD07
:100B96000E944B1FE0E00E94501F39F4E6E1F5E0A9
:100BA6000E943F1F0E94031F02C0A32DE1DDACE699
:100BB600B8E2F8DDFFCFFFCFAA930E94172520E009
:100BC6000C81AD81BE813D91AD83BE8318E0220FBD
:100BD600E22FE327E07811F0E9E02E27330F1150DA
:100BE600B1F7015071F7E22FEE0FE1600E941E256A
:100BF6008AC51A93E2E3E093AA29EFEFE093C309CB
:100C0600E091C209E078E1F3EFEFE093C309E091E8
:100C1600C209E078E1F31091C3091F3F21F0E0918A
:100C2600AA29E03009F401C0EFCFE12F1991089508
:100C3600E0E1E0936506EFEFE093C309E091C209B6
:100C4600E078E1F30895BA93AA930E941725EAE0A3
:100C5600E093A929EFEFE093C309E091C209E07898
:100C6600E1F31091C3091F3F21F4E091A929E03077
:100C760009F401C0EFCF1E3F21F0E0E00E941E25DF
:100C860078C52E813F81EFEFE093C309E091C20959
:100C9600E078E1F33F932F932F5F3F4FE091C30935
:100CA600AF91BF91EC93EFEFE093C309E091C209D6
:100CB600E078E1F33F932F932F5F3F4FE091C30915
:100CC600AF91BF91EC93EFEFE093C309E091C209B6
:100CD600E078E1F33F932F932F5F3F4FE091C309F5
:100CE600AF91BF91EC93EFEFE093C309E091C20996
:100CF600E078E1F33F932F932F5F3F4FE091C309D5
:100D0600AF91BF91EC93EC81FD813497EC83FD8329
:100D160009F0B9CFEFEFE093C309E091C209E0789B
:100D2600E1F3EFEFE093C309E091C209E078E1F364
:100D3600E1E00E941E251DC5AA930E94172559DFD2
:100D4600EF3F21F0E0E00E941E25DDC4EC81E09338
:100D5600C309E091C209E078E1F3AC81AD3FC1F18E
:100D660000E02D813E81D9012F5F3F4FEC91E0934A
:100D7600C309E091C209E078E1F3D9012F5F3F4F43
:100D8600EC91E093C309E091C209E078E1F30150E8
:100D960051F7EFEFE093C309E091C209E078E1F380
:100DA600EFEFE093C309E091C209E078E1F3EFEFDA
:100DB600E093C309E091C209E078E1F31091C30919
:100DC600E12FEF71E53021F0E0E00E941E259BC483
:100DD600E1E00E941E2597C40E94EF241A930A930D
:100DE600EE81E07889F0EE81EF77EE83E7E7EA932C
:100DF600A0E0B0E080E090E0EFDF0E2F023020F0C0
:100E0600E02F198108817FC4E0E1E0936506E09355
:100E16006606EFDEEF3F21F0EFEF1981088173C41C
:100E2600EE81E093C309E091C209E078E1F3ED8138
:100E3600E093C309E091C209E078E1F3EC81E09325
:100E4600C309E091C209E078E1F3EB81E093C309BD
:100E5600E091C209E078E1F3EA81E093C309E09109
:100E6600C209E078E1F311E0AE81A03411F415E98E
:100E760004C0AE81A83409F417E81093C309E091C1
:100E8600C209E078E1F3AE81AC3439F4EFEFE093D8
:100E9600C309E091C209E078E1F31FEFEFEFE093B9
:100EA600C309E091C209E078E1F30091C30907FFA5
:100EB60002C0115009F401C0F1CFE02F1981088159
:100EC60022C4BA93AA931A9314E0EFEFE093C309EE
:100ED600E091C209E078E1F3A981BA811196A9836C
:100EE600BA831197E091C309EC93115071F752C57B
:100EF600AA9324970E941725E885E03011F0E1E0D7
:100F0600C9C0EAE0E093A929E091A929E030E1F718
:100F1600E091A829E27009F0BBC0E0E1E093610628
:100F2600E0936506E0EAE0936606E0E4E093620695
:100F3600E8E1E0937606E0EBE0936106E3E5E09313
:100F4600C0093FEF1AE0EFEFE093C309E091C20951
:100F5600E078E1F31150B9F7E0E4EA93A0E0B0E0FD
:100F660080E090E039DF0E2F3150013011F0303043
:100F760009F401C0E7CF30E0013009F068C0E4E6CB
:100F8600E093A929E8E4EA93AAEAB1E080E090E0D8
:100F960023DFE13091F5DE01149693DFAE81A130B7
:100FA60019F4AF81AA3A09F027C0E091A929E030E7
:100FB60049F0E9EEEA93A0E0B0E080E090E40CDFCF
:100FC600E03009F401C0F1CFE091A929E03049F001
:100FD600EAE7EA93A0E0B0E080E090E0FDDEE030F2
:100FE60009F00AC0DE0114966CDFEC81E07411F0A2
:100FF600ECE001C0E4E03E2F2AC0E9EEEA93A0E06F
:10100600B0E080E090E0E8DEE23018F432E009EE8D
:1010160002C031E001E4E091A929E03041F00A93F1
:10102600A0E0B0E080E090E0D7DEE03009F401C057
:10103600F2CFE091A929E03049F0E0E5EA93A0E09B
:10104600B2E080E090E0C8DEE03009F030E03093B6
:10105600AB29EEDD303049F0E091A829EE7FE09330
:10106600A829E0EDE093C00913C0E0E1E09366062D
:10107600C0DDDEDDE0E0E093C009E0EFE09362066C
:10108600E0E1E0936206E091A829E160E093A829F7
:10109600E091A8290E941E2529960895AA93E88121
:1010A600E03011F0E1E002C0E091A8292196089510
:1010B600AA93EF81E03019F4E881E03011F4E4E01E
:1010C60058C3E091A829E17011F0E3E052C3E09122
:1010D600AB29E87071F4E981FA816B817C81A0E02B
:1010E600B2E080E090E00E945724E983FA836B83A4
:1010F6007C83A881A130A9F4E1E5EA93AA81BB81AA
:101106008C819D8169DEE03059F4ED81FE81FA9390
:10111600EA93A0E0B2E097DDE03011F0E0E0E8838A
:1011260023C0E2E5EA93AA81BB818C819D8154DECE
:10113600E030D1F4ED81FE81FA93EA93A0E0B2E0CB
:1011460082DDE03051F0ED81FE81E050FE4FED830F
:10115600FE83E881E150E88369F7ECE4EA93A0E0D6
:10116600B0E080E090E038DE63DDE881E03011F049
:10117600E1E001C0E0E0FDC2AA93EF81E03019F49E
:10118600E881E03011F4E4E0F4C2E091A829E170CE
:1011960011F0E3E0EEC2E091A829E47011F0E2E07C
:1011A600E8C2E091AB29E87071F4E981FA816B81BC
:1011B6007C81A0E0B2E080E090E00E945724E983C1
:1011C600FA836B837C83A881A130A1F4E8E5EA93D6
:1011D600AA81BB818C819D81FFDDE03051F4ED81D8
:1011E600FE81FA93EA93AEEFA7DDE03011F0E0E07E
:1011F600E88330C0E091AB29E67039F0E7EDEA9379
:10120600A981BB2788279927E7DDE9E5EA93AA8123
:10121600BB818C819D81E0DDE030E1F4ED81FE81D2
:10122600FA93EA93ACEF88DDE03051F0ED81FE8170
:10123600E050FE4FED83FE83E881E150E88371F7CD
:10124600E0E0F0E0FA93EA93ADEF76DDE03011F4FA
:10125600E1E0E883EDDCE881E03011F0E1E001C097
:10126600E0E087C2BA93AA9360970E941725EF8998
:10127600E03011F0E4E08BC1E091A829E17011F0B3
:10128600E3E085C111E0EE89E03041F4E0E1E0936E
:101296006606AFDCEF3F09F410E077C1E13009F0F4
:1012A6005BC0E9E4EA93A0E0B0E080E090E094DD82
:1012B600E03049F4FE013496FA93EA93A0E1B0E0F7
:1012C600C2DCE03009F447C0EC81E295EF70E695A8
:1012D600E695E13069F4E0E0FC85AD85B0E0EA0F23
:1012E600FB1F31969F01D90188279927EAE02CC078
:1012F600E985EF70AE2FEE85E078EE1FE0E0EE1F99
:10130600AE0FED85E370EE0FEA0FEE5F0E2FEC8564
:10131600E295EF70E695E695AE2FEB85F0E00E943C
:101326003024B0E0AE0FBF1FEA85E370F0E00E9404
:101336003024FE2FE0E0EA0FFB1F31969F01D90112
:1013460088279927E02FE9500E941424AC89BD898B
:101356000E94C82410E019C1E23041F4AC89BD896D
:10136600E0E0F2E0ED93FC9310E00FC1E33009F00A
:10137600AFC0E091AB29E470A1F1EDECEA93A0E0F7
:10138600B0E080E090E028DDE03051F5EFEFE0934B
:10139600C309E091C209E078E1F3FE013496FA93BD
:1013A600EA93A0E1B0E04FDCE030D1F000E300309A
:1013B60049F0EFEFE093C309E091C209E078E1F369
:1013C6000150F5CFEE85E295EF70A0E1B0E080E048
:1013D60090E00E941424AC89BD890E94C82410E0C4
:1013E60076C0E9E4EA93A0E0B0E080E090E0F4DCC7
:1013F600E03009F06CC0FE013496FA93EA93A0E15E
:10140600B0E021DCE03009F462C0E091AB29E27083
:1014160051F1EE85EF73FF27662777270E943E245A
:101426007F936F93FF93EF93EF85E078FF2766270F
:101436007727DF01CB01E7E00E942024AF91BF911F
:101446008F919F910E94E523EF5FFF4F6F4F7F4F74
:10145600DF01CB01E989E295EF70E695E695E1506B
:101466000E9414242FC0EE85EC77E695E695FF27BB
:1014760066277727EF5FFF4F6F4F7F4F7F936F93FF
:10148600FF93EF93EF85E370FF2766277727DF014A
:10149600CB01E3E00E941424DF01CB01EF85E07E5F
:1014A600E295EF70E695FF27662777270E94E523EA
:1014B600EF5FFF4F6F4F7F4FAF91BF918F919F911E
:1014C6000E945724AC89BD890E94C82410E05DC0E3
:1014D600EA3039F4E091AB29AC89BD89EC9310E090
:1014E60054C0EB3011F409E403C0EC3001F50AE412
:1014F6000A93A0E0B0E080E090E06EDCE030B1F46A
:10150600EC89FD89FA93EA93A0E1B0E09CDBE03038
:1015160069F0EC89FD89FA93EA93AFE04DDBAE2FD3
:10152600EC89FD89E785EA1709F410E02EC0ED3055
:1015360071F4EAE7EA93A0E0B0E080E090E04CDCEA
:10154600E03021F4AC89BD89BCDC10E01EC0EE3071
:10155600D9F4EDECEA93A0E0B0E080E090E03CDC6A
:10156600E03089F4EFEFE093C309E091C209E07837
:10157600E1F3EC89FD89FA93EA93A0E4B0E063DB3A
:10158600E03009F010E001C014E052DBE12F0E94C8
:101596001E2568960895E091A929E03029F0E0918A
:1015A600A929E150E093A929E091AA29E03029F080
:1015B600E091AA29E150E093AA29E091A829EB7FBE
:1015C600E093A82908956097E091A829E17021F099
:1015D600A0E08EDCE37081F4E0E0EA93ECE0EA93CD
:1015E600DE0112963FDEE03039F4E091A829EC7F67
:1015F600E093A829E1E006C0E091A829E360E09322
:10160600A829E0E0609608952797A0910024B0915C
:101616000124109731F0A0910224B0910324109771
:1016260029F4E0E0F0E061E27AE36DC0FE0136966F
:10163600FA93EA93FE013796FA93EA93DE01189637
:10164600E0910024F09101240995FE013396FA9366
:10165600EA93FE013496FA93EA93DE011496E0913A
:101666000224F09103240995E881F981EC5BF740A7
:1016760066277727DF01CB01E9E10E9414247F93D7
:101686006F93FF93EF93EA810E945C1FE5E10E944E
:101696001424AF91BF918F919F910E94FE23DF0189
:1016A600CB01EB81F0E00E944D240E9448240E9469
:1016B600FE237F936F93FF93EF93EE810E945C1F4F
:1016C600EBE00E941424AF91BF918F919F910E94ED
:1016D600FE237F936F93FF93EF93ED810E945C1F30
:1016E600E5E00E941424AF91BF918F919F910E94D3
:1016F600FE23DF01CB01EC81F0E0F595E7950E9432
:101706004D240E94FE23279608950E94621F088595
:1017160019852E813F81EC81FD813197EC83FD8314
:10172600319661F01F930F930F5F1F4FD9012F5F03
:101736003F4FEC91AF91BF91EC93EDCF0E941E25E8
:101746002CC4BA93AA931A930A930E811F81EA8135
:10175600FB813197EA83FB83319649F01F930F9300
:101766000F5F1F4FEC81AF91BF91EC93F0CF1981C2
:10177600088128960895BA93AA930E9415250A858A
:101786001B852885398540E050E0EE81FF81319741
:10179600EE83FF83319681F0D8010F5F1F4F0C90C7
:1017A6001124D9012F5F3F4FAC91BB27F001EA1BF3
:1017B600FB0BAF01309709F001C0E7CFFA010E9499
:1017C6001C252C960895BA93AA93EA81FB81E4918D
:1017D600E03049F0EA81FB81A491E881F981B0E02B
:1017E600EA17FB0709F406C0EA81FB813196EA8312
:1017F600FB83EBCFEA81FB81E491F0E02496089528
:101806000E94EF2424971A93A985BA859E960E9472
:10181600671F0E946E1F0E94731F0E940B2509F40A
:1018260050C0E985FA85E481E03099F10E94781F7D
:10183600E03011F0E1E046C0A985BA851496E0E0F3
:10184600EC93E985FA850E948A1F0D01A985BA8560
:101856005A960E94BD24D0010E94E5230E94731F60
:101866000E941025B0F4E985FA851381123088F0BC
:10187600A985BA855A960E94BD240E94731F0E94AC
:10188600E523E983FA836B837C830E94781F1150DA
:10189600EDCF0E946E1F0E94012599F0E985FA8519
:1018A600A181AA93EA85FB85F2960E948F1F11F00B
:1018B600E1E008C00E946E1FA985BA859E960E9427
:1018C600C824E0E018812B9608950E949C1F0E9470
:1018D600A41F0E94A91F09F05CC0A981BA81AC911E
:1018E600A33029F4E981FA81E581E03009F445C0A5
:1018F600A981BA819E960E94AE1FE981FA810E9453
:10190600B21FE981FA81F296E250FE4FA5E5BAEAE6
:10191600A083B183E981FA81F296A2E5B2E581E678
:1019260091E40E94BD1FEC51FE4FA2E7B2E781E4AD
:1019360091E60E94BD1FE851FE4F0F01A981BA81B1
:101946001E960E94C31FF296E451FE4F0F01A98115
:10195600BA811A960E94C31FA181AA93EA81FB81CC
:10196600F296FA93EA93EC81FD810E94CB1F04DC88
:10197600A981BA811596E0E0EC93E981FA81A1810B
:10198600AA93E0E0EA93A0E0B0E06CDCE03009F076
:1019960011E0E12F1881239608950E94EF242497E1
:1019A6000E9417250E94D31F0E94D81F50F0AC85B5
:1019B600BD855E960E94BD240E94D31F0E941025FD
:1019C60018F00E94E01F60C0AC85BD8592960E940B
:1019D600E51FAC85BD85EC91F0E0E130A0E0FA07AB
:1019E60039F528853985F901F695E7952E0F3F1FBC
:1019F6000E94EC1F09F046C00E9401200C9111279D
:101A06002F5F3F4F0E94EC1FE9F50E940120EC91E9
:101A1600FE2FE0E00E2B1F2BE885E17021F0F80188
:101A26000E94352402C0F801FF70662777272CC074
:101A3600E230A0E0FA0779F40E9409200E94122001
:101A46000E941920F9F4A885B985E2E00E942320B6
:101A56000E942C2019C0E330A0E0FA0799F40E94F6
:101A660009200E9431200E94192061F4A885B985B9
:101A7600E4E00E9423200E94BD24EF7FFF7F6F7F5A
:101A86007F7002C00E9438200E941E252E9608955F
:101A96000E94EF2424970E9415250E943D200E9453
:101AA600D81F50F0AA89BB895E960E94BD240E9469
:101AB6003D200E94102510F052E085C0AA89BB89FE
:101AC60092960E94BD24EE83FF8368877987AA8950
:101AD600BB89EC91F0E0E130A0E0FA0709F043C0E1
:101AE6000E851F85F801F695E7950E0F1F1F0E94BC
:101AF600422009F063C00E94552051F0D901EC91B3
:101B0600EF70AE2FEA85F0E00E942C24EA2B01C08C
:101B1600EA85D901EC930F5F1F4FAA89BB891496FA
:101B2600E1E0EC930E94422009F048C00E94552053
:101B360049F00E946020E4E00E942024FF276627E7
:101B460077270EC0D901EC91E07F1E2E0E946020FF
:101B5600E8E00E942024FF2766277727EF70E12917
:101B6600D901EC932BC0E230A0E0FA0789F40E9479
:101B760065200E9412200E946E2001F5AE85BF8569
:101B8600E2E00E947620AA85BB85A083B18316C0B9
:101B9600E330A0E0FA0789F40E9465200E94312014
:101BA6000E946E2059F4AE85BF85E4E00E9476203F
:101BB6000E9460200E94E52401C052E0AA89BB89E8
:101BC6001496E1E0EC93E52F0E941C256496089597
:101BD6000E94EF2424971A930E947F200E94D81F08
:101BE60018F00E94842010F012E044C010E00E9419
:101BF600842008F03FC0E985FA85FA93EA93AF811D
:101C0600B88589859A85C9DEE983FA836B837C83E7
:101C16000E948D200E94012569F10E94731F0E9477
:101C2600922011F412E026C00E94731F0E949A208F
:101C360011F411E01FC0E985FA85FA93EA93EF8162
:101C4600F88569857A850E94EA240E94A41F20DF10
:101C56001E2F103079F4E985FA850E94A22029F01A
:101C66000E94A7201596E1E0EC930E948D200E9429
:101C7600B520BDCFE12F188181C20E94EF24609765
:101C8600AC89BD895E960E94BD240E94BA200E943E
:101C9600BD200E940125B1F4AC89BD891A960E9427
:101CA600E51F0E94C2200E94052539F00E94C72028
:101CB6000E94C2200E94102520F00E94E01F0E9470
:101CC600CA201CC00E94CF200E94D4200E94D92086
:101CD6000E94E0200E94D81F18F40E94E01F8CC0CA
:101CE6000E94C7200E94E0200E94102518F40E943E
:101CF600E52082C00E94BD200E94CA200E94EA20E0
:101D06000E94EF200E94F420EF5FFF4F6F4F7F4F3E
:101D16000E94EF200E94C7200E94D31F0E94102518
:101D260060F0E2E0F0E060E070E00E94EF200E94E8
:101D3600F92018F40E94571F5FC00E94CF200E940E
:101D460060200E94D9200E94FE20A1F00E94E0207F
:101D56000E949A2029F00E94E0200E94922019F405
:101D66000E94E52049C00E94F92019F40E94571FDD
:101D760043C0C8CF0E94CF20EA85FB856C857D8550
:101D86000E94EA24AFEFBFEF8FEF9FE081DEE030E5
:101D960019F00E94382030C00E94BD200E94012503
:101DA60071F00E94CF200E9402210E94EA240E9424
:101DB6003D206EDEE03019F00E9438201DC00E94E2
:101DC600F420AC89BD891A960E94C824EC89FD8945
:101DD6000E94A22079F0AC89BD891E960E94C32478
:101DE6003197604070400E94CD24AC89BD8915961C
:101DF600E1E0EC930E94F420669608950E94EF2499
:101E06000E94C720E250F040604070400E94BA2015
:101E1600EC81FD81A68DB78D80A191A1E2E0F0E075
:101E260060E070E00E9407210E94DB240E941025DA
:101E360018F00E94571F46C4EC81FD81E281F0E054
:101E46000E94DB240E944D240E9457247F936F93A7
:101E5600FF93EF93AC81BD819A960E94BD24AF910A
:101E6600BF918F919F910E94E5232CC4BA93AA93A8
:101E760024971A930A93EE81FF81A885B985149653
:101E8600ED93FC93A885B98516960E940C210E94B5
:101E960013210E94922029F00E9418210E941D21E0
:101EA60010F0E2E078C00E94252129F40E94182152
:101EB600A081A33009F006C00E941821B696DF0162
:101EC6000E940C210E942521A1F40E942C21389603
:101ED600DF010E94B924AE81BF81AE17BF0710F0A3
:101EE600E2E059C00E941821B696DF010E94BD2487
:101EF60037C00E941821E281A0E1EA9F8001AE81ED
:101F0600BF81A017B10728F10E941821FA93EA931E
:101F16000E94C22042DDEA83FB836C837D830E949C
:101F260013210E949A2011F4E1E035C00E9413218A
:101F36000E94D81F28F00E9418210E941D2110F02F
:101F4600E2E029C0EE81FF81E01BF10BEE83FF8307
:101F5600D6CF0E942C21FA93EA930E94C2204EDF2C
:101F6600DF01CB01EE81FF810E9435240E943621DC
:101F7600A885B9851E960E94C8240E941821F2964B
:101F8600DF01EE81FF810E943B21A885B98552962B
:101F9600ED93FC93E0E0198108812A960895AA93AF
:101FA60024970E941725A985BA8514960E94B924FC
:101FB60031968F01002E012A29F0A985BA850E9443
:101FC600432111F4E4E0D8C0F801EF7009F0C1C074
:101FD6000E94A7201A960E94BD240E94012561F442
:101FE6000E9449213896DF010E94B9240E171F0767
:101FF60010F0E4E0C1C0ADC0F8010E9435240F0125
:102006000E944921E281F0E03197E021F1213097E9
:1020160009F09FC00E9449210E944E21BEDC0E9409
:10202600CA200E94C2200E94D81F10F4E2E0A4C079
:102036000E94C2200E949A2011F4E1E09DC00E94F5
:1020460049217E96DF010E94BD240E94C2200E9483
:10205600102508F46EC0E885E03011F4E4E08CC089
:102066000E9449210E944E2108DE0E9457210E94AB
:10207600012511F4E7E080C00E94C2200E94922050
:1020860011F4E2E079C00E94C2200E949A2011F465
:10209600E1E072C00E9449210E94592111F0E1E05D
:1020A6006BC00E9449210E94B21F0E944921DF0194
:1020B600BE96FF93EF93FD010E946021AF91BF9101
:1020C6000E94C82430E00E944921E2813E17E8F4CC
:1020D6000E9449213496A1E0A0830E9449210E94D2
:1020E600592111F0E1E048C00E944921BE96DF0166
:1020F6000E94C324EF5FFF4F6F4F7F4F0E94CD2496
:102106003197604070403F5FDECF0E944921BE9606
:10211600FF93EF93DF010E94BD24DF01CB01E32F84
:10212600F0E00E944D240E940721AF91BF910E94CA
:10213600C8240E94EA20A985BA851A960E94C82456
:102146000E9449210E946021A985BA851E960E9497
:10215600C824F801A985BA851496ED93FC930E94CC
:102166004921F296DF01F8010E943B21A985BA8533
:102176005296ED93FC93E0E00E941E252B9608955F
:102186000E94621F0E9468210E946E2121F0E12FA9
:102196000E941E2597C20E947421B1F40E948121DB
:1021A60011F414E011C0F901E385E87029F40E94E6
:1021B6008A21E1DA309709F001C006C00E94682141
:1021C600EEDE1E2F103039F3E12F0E941E257AC253
:1021D6000E94621F14E0AC81BD810E944321D9F0A8
:1021E6000E947421C1F40E94812111F414E013C0ED
:1021F600053E49F0E1E0E03011F40E3221F0F9013C
:10220600E385E87009F001C006C00E946821C7DEB8
:102216001E2F103001F3103029F0AC81BD811E96BF
:102226000E94AE1FE12F0E941E254CC20E94621F13
:102236000E9468210E946E21B1F40E94742199F4D3
:10224600EC81FD81A289B3890C91053E11F0003025
:1022560009F409C0EC81FD81FA93EA93A1E09FDEBF
:102266001E2F103051F3103029F50E94742111F5FC
:10227600AC81BD8152962D913C913A932A93E0E030
:10228600F0E0FA93EA93A0E2B0E05BDA0E948A21DA
:102296003CDAAC81BD8154960E94B924E385E8718D
:1022A600D9011C96EC93AC81BD810E94B924349669
:1022B600A1E0A083E12F0E941E2504C20E949C1F5C
:1022C600EB81FC81A481B581D1DD1E2F1030D1F4C4
:1022D600A981BA810E949521EB81FC81A685B785EB
:1022E600808991890E94A91F69F4E981FA81A289EE
:1022F600B389E5EEEC93A981BA810E94B92434969C
:10230600A1E0A083E12F188123960895BA93AA939A
:1023160025970E941525AD85BE8554964D915C91F5
:102326005A934A93E0E2F0E0FA93EA93ABE0B0E026
:1023360008DAE0E0E887E9871E2F2E2FE8E0EA8733
:10234600AB85BC850E949A210E949F21AE0FBF1FBC
:10235600AC91AE3209F50E94A4210E3221F4A88573
:10236600B98513970CF003C00E94B021F4CF0F3249
:1023760021F00C3511F0013208F402C0E6E06EC01F
:102386000E949F210E94B72110F4E4E201C0E0E21E
:10239600DA011B96EC9361C00E94A421013220F061
:1023A6000F3211F00C3509F433C00E3219F0EA85FC
:1023B6002E1768F0AA85A83011F40E3211F0E6E067
:1023C6004DC028E0EBE0EA87110F110F20C000385E
:1023D60018F01360E6E042C0E4E1F2E0FA93EA9313
:1023E600A02FBB27F0D9309711F0E6E037C00134B3
:1023F60010F00B3508F002C0126007C0013610F06D
:102406000B3708F002C0116000520E94B021C4CF01
:102416000E949F210E94B72110F4E4E001C0E0E091
:102426000E2F203011F4E6E019C0DA01AC91A53E7A
:1024360019F4DA01E5E0EC93AA85A83011F4110F3E
:10244600110FE12FE370E13009F40061E12FEC7028
:10245600E43009F40860FA010387E0E00E941C25D5
:102466002F960895BA93AA9322970E941525E88578
:10247600F9853996EE83FF83AA85BB850E944321A1
:1024860009F464C0AA85BB8552964D915C91FA0108
:10249600348510E01830B8F40E94BF21A1F0053051
:1024A60009F405EEE0E0E03041F033FF06C0013408
:1024B60010F00B3508F001C001C001C0005E0E949B
:1024C600C6211F5FE7CFFA01A085A032F9F0AE81E1
:1024D600BF811196AE83BF831197EEE2EC9318E0AD
:1024E6001B30A0F40E94BF2189F0E0E0E03041F00B
:1024F60034FF06C0013410F00B3508F001C001C0EE
:1025060001C0005E0E94C6211F5FEACFFA01E38583
:10251600A885B9851896EC93DA015C960E94BD24CD
:10252600A885B9850E94C824DA0158960E94B92464
:10253600A885B9851496ED93FC93DA0156960E9408
:10254600B924A885B9851696ED93FC93AE81BF8113
:10255600E0E0EC930E941C252C9608950E94621FD1
:10256600E1E0E03029F0AC81BD81AC91A03209F008
:1025760006C0EC81FD813196EC83FD83F1CFAC8101
:10258600BD81AC91AF3229F0AC81BD81AC91AC3547
:1025960059F4EC81FD813196EC83FD83AE81BF81D8
:1025A60016960E94AE1F0AC0AE81BF810E94B92452
:1025B6007696DF010E94BD240E94CE21AC81BD81AA
:1025C600AC91BB27909760F40E94D421A0E0B0E0C4
:1025D6004DDC1E2FAE81BF8152960E94D9213DC08F
:1025E6000E94D421DE01169691DE1E2F1030A9F529
:1025F600AE81BF81C5DD1E2FAE81BF8154960E947C
:10260600B924E385E4700E2F103039F0143011F43C
:10261600003009F001C015E020C00030F1F4AE81B1
:10262600BF8152962D913C91F901E385E07111F439
:1026360015E013C00E94DE210E9448247F936F9309
:10264600FF93EF930E94E121AF91BF918F919F91EC
:102656000E94E6210E94CE21C3CFE12F0E941E25B3
:10266600289608950E94EF24EC81FD81A181AA930A
:10267600ED81FE81F296FA93EA93EB81FC816D81FE
:102686007E810E94EB2111F0E3E01CC0EC81FD810C
:102696000E94F22111F0E2E015C0AC81BD81A8597B
:1026A600BF4F0E94FC2111F4E0E00CC0EC81FD81DB
:1026B600F296EE5AFF4FDF010E94FC2111F4E0E092
:1026C60001C0E1E026960895AA9364970E94152515
:1026D600AD8DBE8D0E94B924E887F987A885B98596
:1026E600EC91E0530E2F0A3020F41196AC91AA33E8
:1026F60009F00AC0E885F9853296E887F987AD8D35
:10270600BE8DED93FC9302C00091B029013010F00C
:10271600EBE0CDC1E02F0E940A220E949A21AB8DE8
:10272600BC8DED93FC93EE81FF81309711F4ECE0C4
:10273600BEC1AE81BF81EC91E03089F0EE81FF81B0
:10274600A1810E9451085E2F50FD09C0EA8DE0303C
:1027560011F052FD01C002C0EAE0A9C1A7C1AE81D5
:10276600BF81E0E0EC93E02FAE81BF811196EC9340
:10277600EE81FF81A1810E947B075E2F50FF02C080
:10278600E3E095C1EA8DE03011F052FD01C002C0D0
:10279600EAE08DC10E94D4210E94571FE88FF98F6D
:1027A6006A8F7B8FDF01CB015DDF1E2F1130D1F4E5
:1027B600EE81FF81F296E254FE4F9F01F901E4811A
:1027C600E03081F0D90118960E94BD24EE8BFF8B74
:1027D600688F798F0E94D421A88DB98D8A8D9B8DA3
:1027E60041DF1E2F133011F4E1E061C1103049F4CE
:1027F600AE81BF81DD960E94B924E030A2E0FA07DF
:1028060011F0EDE054C1AE81BF81A85BBF4F0E94BD
:102816002C200E9412220E9402210E94012541F4CE
:10282600AE81BF81AA5ABF4F0E94BD240E941222C8
:102836000E940221AE81BF815A960E94C824EE8171
:10284600FF81EE5BFF4FE081AE81BF811396EC9373
:10285600EE81FF81E381F0E00E94D4200E944D24A6
:102866000E9457240E9412220E9417220E941E22B2
:10287600AE81BF8192960E94C824EE81FF81E7ADAA
:10288600AE81BF811296EC93AE81BF81AD5BBF4F27
:102896000E94B924AE81BF811896ED93FC93AE8158
:1028A600BF81AB5BBF4F0E942C20EE87FF87688BF2
:1028B600798B0E94012551F4AE81BF81AE5ABF4F7C
:1028C6000E94BD24EE87FF87688B798B0E941722B2
:1028D6000E943D20662777270E9407210E94D42068
:1028E6000E94EF237F936F93FF93EF930E9423221F
:1028F600AF91BF918F919F91662777270E94F4230E
:10290600EE81FF81E281F0E00E944D240E94902436
:10291600EE5FFF4F6F4F7F4FEA87FB876C877D87A0
:10292600AE81BF815E960E94C82411E00E9460209D
:10293600A73FEFE0BE07E0E08E07E0E09E0708F065
:1029460012E00E946020A73FEFEFBE07E0E08E078F
:10295600E0E09E0708F013E0133039F4AE81BF8142
:10296600A25ABF4F0E94BD2402C00E942B22AE81F4
:10297600BF8196960E94C8240E942B227F936F9354
:10298600FF93EF930E942322AF91BF918F919F9166
:102996000E943621AE81BF819A960E94C824AE81DC
:1029A600BF811E960E9438200E94C824AE81BF8136
:1029B6001496E0E0EC93133009F05FC0AE81BF815E
:1029C6001596EC93AE81BF81AE59BF4F0E94B924D4
:1029D6000E941E22AE81BF8152960E94C824EE81BB
:1029E600FF81A181AA93EF81F885F296FA93EA9383
:1029F600E985FA850E94CB1F0E945B08E03011F53D
:102A0600EE81FF810E94F221E9F4AE81BF81D29668
:102A16000E94BD24E235A2E5FA07A1E66A07A1E411
:102A26007A0781F4EE81FF81F296EC51FE4FDF01C9
:102A36000E94BD24E237A2E7FA07A1E46A07A1E6ED
:102A46007A0709F01AC0EE81FF81F296E451FE4F33
:102A5600DF010E94BD24AE81BF811A960E94C82460
:102A6600EE81FF81F296E851FE4FDF010E94BD2400
:102A7600AE81BF811E960E94C824AE81BF811C9381
:102A86009E960E94AE1FAE81BF8156960E94AE1FD3
:102A9600E091AE29F091AF293196E093AE29F093FB
:102AA600AF29AE81BF811696ED93FC93E0E00E94BC
:102AB6001C256F960895BA93AA93EA81FB813097F5
:102AC60071F0AA81BB81EC91E03049F0EA81FB818B
:102AD600A681B781E881F981EA17FB0711F0E9E0E1
:102AE6000AC0EA81FB81A1810E945108E17011F0C0
:102AF600E3E001C0E0E024960895BA93AA931A93FE
:102B06000A93AC81A13010F0EBE020C0EC810E946A
:102B16000A220D911C91002E012A19F0D801E0E03D
:102B2600EC93EA81FB81309721F0AA81BB81E0E03A
:102B3600EC93EC81ACEAB9E2F0E0EE0FFF1FEA0F8E
:102B4600FB1FAA81BB81A083B183E0E019810881C4
:102B560025960895AA93A2970E941725A9A5BAA516
:102B66000E94D921EEA1EF71EEA3FE01B7960E9455
:102B76003222EAA5EE71AE2F0E94392211F0E12F22
:102B86000AC10E943E22A9A5BAA5E8DC1E2FEEA125
:102B9600EC7109F495C02897103089F0143021F4AF
:102BA600DE01589643DB1E2F103019F0E12F2896D0
:102BB600F2C0EEA5E860EEA72AA53BA568C0EEA583
:102BC600E47019F0E8E02896E6C02AA53BA5022E97
:102BD600032A21F0F901E385E17119F0E7E028966F
:102BE600DAC0EEA5E87009F452C00E94DE210E9408
:102BF60048247F936F93FF93EF930E94E121AF9157
:102C0600BF918F919F910E94E6210E94BA20F901FF
:102C16007496A0E0B0E0A083B183F9017A96A08310
:102C2600B183F9017C960E94A41F0E94E524A88D19
:102C3600B98D1496E1E0EC93A88DB98D9E960E940D
:102C4600E51F0E94C7200E940125B9F0E88DF98D85
:102C5600FA93EA930E9413210E94EB0D1E2F103067
:102C660019F0E12F289697C00E94C7200E9447229C
:102C7600A88DB98D1A960E94C824E88DF98D0E94F8
:102C86004C220E94A91F19F0E12F289684C0EEA5B8
:102C9600E870A1F0F9013B96A0E0A0830E94070B23
:102CA6000E945721D9011E960E94C824A88DB98D6D
:102CB6001496E1E0EC93EEA5E062EEA7289617C025
:102CC600103011F0E12F67C00E94532221F0F90164
:102CD600E385E07111F0E4E05EC0EEA1E27021F060
:102CE600F901E385E17009F402C0E7E054C0A88960
:102CF600B9899E960E94BD24A9A5BAA55A960E9496
:102D0600C824EAA1FBA1A9A5BAA55E96ED93FC93FA
:102D1600EEA1A9A5BAA51496EC930E94DE210E9405
:102D260048247F936F93FF93EF930E94E121AF9125
:102D3600BF918F919F910E94E621A9A5BAA51E96E3
:102D46000E94C824D9015C960E94BD24A9A5BAA5F3
:102D56001A960E94C824A9A5BAA516960E94AE1F67
:102D6600A9A5BAA51596EFEFEC93A9A5BAA556960F
:102D76000E94AE1FE889F989A9A5BAA5ED93FC932F
:102D8600A889B98916960E94B924A9A5BAA512964A
:102D9600ED93FC93E0E00E941E25AB960895BA934E
:102DA600AA932E970E941525E88DF98DEE83FF8351
:102DB600AC89BD890E94D9210E945822EC8DFD8DD7
:102DC6000E945B2211F0E12F48C1EA8DFB8DA481A0
:102DD600A07811F0E2E041C1EA8DFB8DA481A170DB
:102DE60011F4E7E03AC1EA8DFB8DA285B3858485AF
:102DF60095859F938F93BF93AF930E946222EF9125
:102E0600FF916F917F910E94EF230E94EF200E9415
:102E1600F420AE89BF89882799270E940B2520F4C4
:102E2600E885F985EE8BFF8BEE89FF89309709F4EB
:102E360013C10E9462220E94692209F0D9C0EA8D5C
:102E4600FB8D05800E946E220E16B8F10E9462224A
:102E56000E94052531F4AA8DBB8D1E960E94BD24C5
:102E660006C00E9458220E9474220E94D00CE88B51
:102E7600F98B6A8B7B8BA889B9898A899B890E9481
:102E8600D81F20F40E947B22E2E0E7C0A889B98916
:102E96008A899B890E949A2021F40E947B22E1E084
:102EA600DCC00E94BD20AA8DBB8D52960E94C8240C
:102EB600AA8DBB8D1596E0E0EC930E9458220E94E5
:102EC60074220E94010F0E9482220E94FE2021F499
:102ED6000E947B22E2E0C1C00E9487220E94E0207D
:102EE6000E948C220E948222AE89BF890E94912272
:102EF60009F447C00E948722E40FF51F0F010E94C4
:102F06006E22D001F0E0EA17FB0748F40E946E2219
:102F1600F0E0DF010E948722AE1BBF0BAD010E94CD
:102F26009922EF81F8850E94A0220E94EA24A42F0C
:102F36000E945B08E03021F00E947B22E1E08DC018
:102F4600EA8DFB8DA481A07429F00E94A7220E941D
:102F5600AE2208F011C00E94A7220E94B622AE81BE
:102F6600BF810E94BF22EC8DFD8DB096FA93EA9345
:102F7600A0E0B2E00E94880BAA8DBB8D0E94C622FB
:102F860057C0EA8DFB8DA481A074A1F00E949922FE
:102F9600EB8DFC8DB096FA93EA93ED8DFE8D0E9433
:102FA600D12221F00E947B22E1E057C0AA8DBB8D81
:102FB6000E94DC220E94A7220E940B2571F00E942B
:102FC6009922EB8DFC8DB0960E94A0220E94EB21E7
:102FD60021F00E947B22E1E040C00E94E520AA8DFC
:102FE600BB8D56960E94C824AA8DBB8D0E94E122F5
:102FF600AA8DBB8D0E94E622A0E0B2E0AE1BBF0BFD
:103006009D01EE89FF89E217F30710F42E893F89A7
:103016000E94D421AC8DBD8D0E94E622AC8DBD8D63
:103026009096EA0FFB1FFA93EA93D9010E94880B48
:103036000E94EB22EA8DFB8D0E94F322D0010E94B2
:10304600C824AC89BD890E94FC22EE89FF89E21B57
:10305600F30BEE8BFF8BE8CEE0E00E941C256C960E
:103066000895BA93AA932A970E941525EC89FD899B
:10307600EE83FF83A889B9890E94D9210E94032380
:10308600E88DF98D0E945B2211F0E12F8AC1EE894D
:10309600FF89A481A07811F0E2E083C1EE89FF895F
:1030A600A481A27011F4E7E07CC1EE89FF89A285B4
:1030B600B38584859585EA89FB890E9436217F93AD
:1030C6006F93FF93EF930E940623AF91BF918F9169
:1030D6009F910E94102518F4E0E0EA8BEB8BEA89B9
:1030E600FB89309709F443C10E940C230E94692290
:1030F60009F001C1EE89FF8905800E941323E28150
:103106000E1608F44AC0AE89BF8916960E94BD24E1
:103116000E940125C1F4AE89BF891E960E94BD2476
:103126000E9482220E94FE2069F40E9403230E94CC
:10313600A41F0E94400E0E948222AE89BF891E965D
:103146000E94C82408C00E9403230E9418230E94DC
:10315600400E0E9482220E94FE2009F408C10E94AD
:10316600E0200E94922021F40E941F23E2E019C170
:103176000E94E0200E949A2021F40E941F23E1E091
:1031860010C10E94E520AE89BF8952960E94C824CC
:10319600AE89BF891596E0E0EC93EE89FF89A4819C
:1031A600A07489F00E9413230E942623E98DFA8DCC
:1031B6000E94D12221F00E941F23E1E0F2C0AE89D5
:1031C600BF890E94DC220E9403230E9418230E94CA
:1031D600010F0E94EF200E94F4200E94012521F495
:1031E6000E941F23E2E0DDC00E942E230E94D31F0F
:1031F6000E948C220E94EF20AA89BB890E949122FC
:1032060009F450C00E942E23E40FF51F0F010E94FF
:103216001323E281D001F0E0EA17FB0750F40E9485
:103226001323E281F0E0DF010E942E23AE1BBF0BC9
:10323600AD010E941323E181EA93EF81F885FA93A9
:10324600EA93EB85FC856D857E850E94EA24A42F92
:103256000E94BF08E03021F00E941F23E1E0A1C0D8
:103266000E9433230E94AE22C0F40E943A23A6890C
:10327600B789808D918DEA85FB856C857D850E9459
:10328600B622A885B9850E94BF22A0E0B2E00E94BE
:10329600880BAE89BF890E94DC22AE89BF890E9455
:1032A600C62251C00E9433230E940B25C9F00E94FA
:1032B6000C230D010E940623D0010E94102558F40C
:1032C6000E9413230E942623EB85FC856D857E854F
:1032D6000E94EB2109F404C00E941F23E1E061C0B3
:1032E6000E94F420AE89BF8956960E94C824AE89F2
:1032F600BF890E94E122AE89BF890E94E622A0E032
:10330600B2E0AE1BBF0B9D01EA89FB89E217F3070A
:1033160010F42A893B89AE89BF890E94E622AE89CC
:10332600BF899096EA0FFB1FFA93EA93E885F98521
:10333600FA93EA93D9010E94880BAE89BF89149645
:10334600EC91E064EC930E94EB22EE89FF890E94E7
:10335600F322D0010E94C824A889B9890E94FC22C0
:10336600EA89FB89E21BF30BEA8BFB8BB8CE0E9442
:103376000C230D010E940623D0010E940B2550F458
:10338600AE89BF8916960E94BD24AE89BF891A965A
:103396000E94C824AE89BF891496EC91E062EC9332
:1033A600E0E00E941C2568960895BA93AA93249794
:1033B6000E9417250E941821FA93EA93EA85FB8555
:1033C6000E945B2209F06EC0E885F985A481A0728F
:1033D60009F468C0A481A074A1F00E941821E181BB
:1033E600EA93E985FA85B096FA93EA93EB85FC852C
:1033F6000E94D12211F0E1E056C0A885B9850E944D
:10340600DC220E941821FA93EA93EA85FB85A28DB5
:10341600B38D848D958D0E94A91F09F043C0A885A0
:10342600B9855E962D913C91D9011B96EC91E0628F
:10343600EC93A885B9851A960E94BD24D9015C969D
:103446000E94C824A885B9851E960E94B924D90170
:103456005A96ED93FC93E885F985A685B78580890C
:103466009189FD01BC010E944324D9015496ED9334
:10347600FC930E94070B0E945721D90156960E9481
:10348600C824A885B9851496EC91EF7DEC930E942B
:1034960018213496A1E0A0830E941821DF010E9422
:1034A600680C1E2FE12F0E941E252A960895BA93B6
:1034B600AA931A93A981BA8178DF1E2F103021F4BE
:1034C600A981BA810E94D921E12F1881DCC20E940C
:1034D600EF2460971A930E944223EF89F88D0E9489
:1034E6005B2209F091C1ED89FE89A481A07811F0D3
:1034F600E2E08BC10E9445230E944B230E940B25CC
:1035060028F4ED89FE89A481A27009F004C00E9406
:1035160045230E945023AD89BE8916960E94671FD7
:103526000E94571F0E94B5200E9455231596EFEF63
:10353600EC930E944B230E94052508F011C10E94BE
:103546005D23E281F0E00E944D24A0E0B2E080E03D
:1035560090E00E945724E987FA876B877C870E9450
:10356600731F0E94052598F40E9462230E94672318
:103576007F936F93FF93EF930E948D200E946723A2
:10358600AF91BF918F919F910E94102508F421C0A1
:103596000E948D200E944722DF01CB010E947123E9
:1035A6000E9447220E9452240E94F9230E9455231A
:1035B60016960E94BD240E944B230E94F423A98BD9
:1035C600BA8B8B8B9C8BAD89BE8952960E947623D3
:1035D6002BC0AD89BE891E960E9476230E947D234C
:1035E6000E940125F9F40E9442230E94A41F0E9412
:1035F60082230E9489230E94922021F40E948E2316
:10360600E2E003C10E9489230E949A2021F40E94CD
:103616008E23E1E0FAC00E947D23AD89BE891E9605
:103626000E94C8240E9495230E947D230E940125A2
:1036360009F496C00E9471230E944B230E940B2519
:1036460008F055C0ED89FE89A481A27089F00E9418
:1036560042230E949C230E9482230E947D230E9473
:10366600012529F40E9471230E94502340C00AC0FC
:103676000E9442230E949C230E94D00CED87FE8765
:103686006F87788B0E9489230E949A2021F40E94DA
:103696008E23E1E0BAC00E9489230E94D81F58F009
:1036A6000E945D237E96DF010E94BD240E9489232D
:1036B6000E94102520F00E948E23E2E0A6C00E9400
:1036C60095230E94A123A985BA858B859C850E9496
:1036D600E523D0010E94C824A985BA858B859C85DF
:1036E6000E9462230E94EF230E945023A3CF0E94D0
:1036F600A1230E944B230E94E523D0010E94C824E7
:103706000E944B23E0E0F2E060E070E00E9490242B
:10371600AD89BE891596EC930E946223F1703097AD
:10372600F9F00E9442230E949C230E94010F0E94EE
:10373600B5200E946E1F0E94012521F40E948E234F
:10374600E2E063C0ED89FE89E581F0E00E947F201A
:103756000E948C220E94B520AD89BE890E94E1227A
:103766000E94A9230E94692251F0AD89BE8956960E
:103776000E94BD240E947F200E940B2509F42BC0C5
:10378600ED89FE89A481A07489F00E945D23E18100
:10379600EA930E943A230E94D12221F00E948E23AE
:1037A600E1E033C0AD89BE890E94DC220E945D2320
:1037B600E181EA93EE89FF89B0960E948F1F21F07E
:1037C6000E948E23E1E021C00E946E1FAD89BE8952
:1037D60056960E94C8240E94A9230D010E944523E3
:1037E600D0010E940B2580F4AD89BE8916960E94F1
:1037F600BD24AD89BE891A960E94C824AD89BE89AA
:103806001496EC91E062EC93E12F18816796089587
:10381600BA93AA93A2971A93FE01B596FA93EA93DE
:10382600FE013F96FA93EA93A0E00E943922E9F45A
:10383600FE013196E9A3FAA3FE013D96FA93EA93B7
:10384600AFA1B8A50E94B1121E2F103071F4EF8DF2
:10385600F8A1309749F0FE013D96FA93EA93ADA19F
:10386600BEA10E94351201C016E0E12F1881A7966D
:103876000895BA93AA93EC970E941725FE01E05C7F
:10388600FF4F0E94B023A1E00E94392209F081C0B7
:10389600FE013896EEAFFFAFFE01BA96FA93EA93B1
:1038A600DE01AE5BBF4F0D90BC91A02D0E94B723E9
:1038B60039F0103029F4EEADFFADE385E07209F47E
:1038C60001C016E0103009F064C02CAD3DAD022EEB
:1038D600032A11F4E6E05EC0F901E385E17011F018
:1038E600E7E058C00E94DE210E9448247F936F9330
:1038F600FF93EF930E94E121AF91BF918F919F912A
:103906000E94E6210E94CA20F901E385E07139F19F
:103916000E94C2200E94D81F10F4E2E03BC0FE01C4
:1039260074960E94B023A6E1B0E00E94880B0E9424
:10393600EA20EA8FFB8F6C8F7D8FFE017496FA93D7
:10394600EA93A2E00E946E2121F5DE0154960E94C0
:10395600EB101E2F103009F417E01430D1F4DE01FD
:103966009A960E9461111E2F103099F40E94EA2047
:103976000E94012539F0EAA5FBA50E944C220E946F
:10398600EB0D1E2F103029F4AAA5BBA50E94680CCA
:103996001E2FE12F0E941E25EF9623960895AA93C7
:1039A6000E94BD23A1E00E94392241F50E943E22D9
:1039B600AAA5BBA50E94B72339F0103029F4ECA1C3
:1039C600FDA1E385E07209F401C016E01030B1F400
:1039D6000E94532211F416E011C0EEA1E772EEA385
:1039E600AFA1EA230E2EF901A385EEA1E095EA2305
:1039F600E029D9011B96EC930E94C32333C0BA93E6
:103A0600AA930E94BD23A1E00E94392259F50E9483
:103A16003E22AAA5BBA50E94B72339F0103029F48F
:103A2600ECA1FDA1E385E07209F401C016E01030B7
:103A3600C9F40E94532211F416E014C0AEA1BFA12E
:103A460016960E94B924D9015696ED93FC93AEA121
:103A5600BFA114960E94B924D9015896ED93FC9300
:103A66000E94C323E12F0E941E25AA960895BA93A9
:103A7600AA93AA810E94B203A881B9810E94B9249F
:103A86003196ED93FC9323960895BA93AA932B97B8
:103A96000E94152510E0A989BA890E94D921EF89CB
:103AA600F88D3196EF8BF88F3197E4912E2FE03019
:103AB60009F45DC1E12FE03039F4253211F411E04B
:103AC60002C00E94CE2352C1E130A9F4253219F476
:103AD6000E94CE234AC112E040E000E02D3211F4EC
:103AE60001E044C12B3211F44BE240C1203211F403
:103AF60040E23CC102C0E23039F450E013E020332A
:103B060011F4006833C102C0E33091F4203310F0A1
:103B16002A3308F007C0AAE05A9F502DE22FE0533F
:103B26005E0F24C12C3619F4026015E01FC103C0D4
:103B3600E53009F01BC1E22FE33649F40E94D52394
:103B4600ED89FE89A481AA930E94DB230EC1E33787
:103B560069F40E94D523AD89BE8914960E949A21E4
:103B6600AE81BF810E94E51E1E2F0FC0E03791F483
:103B76000E94D523AD89BE8914960E949A21AE81F2
:103B8600BF810E94F11E1E2F08600F77E0E0E88BD0
:103B960030E068C0E43611F0E93611F4046002C082
:103BA600E537A1F4EAE0E88B01FF08C0E0E0FAECB3
:103BB6006AE97BE30E94EF201AE022C0E0E1F7E227
:103BC60060E070E00E94EF2015E01AC0E83511F4BD
:103BD600086003C0E83709F0C8C0E0E1E88B01FFE0
:103BE60008C0E0E0F0E060E070E10E94EF2018E03D
:103BF60007C0E0E0F0E160E070E00E94EF2014E032
:103C060001FF08C00E94D523AD89BE8914960E9483
:103C1600BD2413C002FF0AC00E94D523AD89BE8908
:103C260014960E94B9240E944D2407C00E94D523F1
:103C3600AD89BE8914960E942C20EC87FD876E877D
:103C46007F8702FF0FC0AF85AA233AF40E94E520C2
:103C56000E9403240E9482224DE2403011F01F5F31
:103C660001C00B7F00FD11C0151778F407FF08C0CF
:103C760002FF04C00B7F242F115001C020E301C0B6
:103C860020E20E94CE235150EFCF312FE889E03059
:103C9600B9F43030A1F003FF06C0EE81FF81259113
:103CA600EE83FF8305C0AE81BF812D91AE83BF83B6
:103CB6000E94CE23503009F051503150EACF4BC00C
:103CC6000E94F4200E94E0200E9490242E2F2A3089
:103CD60030F003FF02C0295C01C0295A01C0205DF3
:103CE60004FD1BC0213328F40E94D31F0E9492209A
:103CF60009F409C0531710F000FF01C013C020E2F9
:103D060007FF0BC020E3006102FF07C00B7F4A9349
:103D16000E94DB23503009F051500E94CE235030D0
:103D260009F0515031500E94F4200E94E0200E9478
:103D3600B5240E948222E8890E94D31FFF276627A6
:103D460077270E9490240E94EF200E94F4200E9470
:103D5600012509F0B5CF00FF08C0503031F05150B1
:103D6600E0E2EA930E94DB23F8CF10E098CEA9891F
:103D7600BA890E94B9240E941C2569960895FF926B
:103D8600F82E26971A930A93DE0114960E94E123D1
:103D96008D01E0E0EC83ED83EE83EF83DE01189680
:103DA6000E94E1230E9495211A930A93EAE3FDE11A
:103DB600FA93EA93DE01189668DE1981088128963F
:103DC600FF900895BA93AA93A991B991EE27FF2778
:103DD6006D91662311F03196FBCF0895BA93AA939D
:103DE600AA27BB27E991F9910590002011F01196B9
:103DF600FBCFFD010895662777270E94EA240895E0
:103E060084E00E94C21E26960895FF27662777271C
:103E16000E94EA24E0915E280895E6E3F6E2FA932A
:103E2600EA930895ECE6F8E2FA93EA9308950E947D
:103E3600AD153E2EE0300895EFEBF3E0FA93EA93EA
:103E4600ECE6F8E2D8CFFA93EA93F201D4CFA6E3F0
:103E5600B6E20E945A1A3E2EE0300895E5EFF3E0EE
:103E6600FA93EA93ECE6F8E2C6CFFA93EA9380E097
:103E76000E94C21E22960895FA93EA93ECE6F8E2AF
:103E8600BACF0E94EA2488E00E94C21E2A960895AC
:103E9600ACE6B8E20E94D503C5CFEA93A1E00E9442
:103EA600D21C3E2EE0300895E0E0F0E060E070E0E5
:103EB6000895F0E00E944D24DF01CB010895BA93E6
:103EC600AA930E94172508950E94BD24E983FA83C8
:103ED6006B837C830895ED81FE816F8178850895DB
:103EE600A981BA818B819C810895E985FA85A18192
:103EF600AA93EA85FB85F296FA93EA93EC81FD8113
:103F06006E817F810E94EA24A1E00C94BF08A2A1E1
:103F1600B3A184A195A10895FA93EA93E885F9855A
:103F26006A857B850E94EA24A1E00E945B08E03056
:103F36000895BA93AA931A93E981FA81FA93EA93B8
:103F46000895A0E0B0E080E090E008950E94030CA0
:103F56001E2F10300895A8DF0E94C8240895F296F7
:103F6600FA93EA93E0E0F0E0FA93EA93A0E0B2E095
:103F76000C94A40B0E94E524E981FA81F296089537
:103F86000E94BD24D0010E94C824E981FA810895C7
:103F9600A289B389848995890E94EF24A1E00895B6
:103FA600A885B9858A859B850895A230E0E0BE077D
:103FB600E0E08E07E0E09E070895E1E0F0E060E0D3
:103FC60070E008950E94BD24EC83FD836E837F8399
:103FD6000895EC85FD85FA93EA93D901E0E0F2E0D5
:103FE6000E947D24AE81BF818885998566277727C3
:103FF6000E94EA230E94030CE0300895AC85BD853B
:10400600D296F901F170AE0FBF1F0895EC85FD85BC
:10401600FA93EA93AA85BB858C859D850895E0E091
:10402600F1E060E070E00E9490240895AE81BF81C7
:10403600888599850E94EA230E94030CE030089542
:104046000E947724F170AC85BD85D296AE0FBF1F56
:1040560008950E94B924662777270895E0E8F0E0DE
:1040660060E070E00E9490240895EFEFFFEF6FEF9D
:104076007FEF0895AE85BF85888999890895EA8975
:10408600FB89FA93EA93D801E0E0F2E00E947D24EE
:1040960087DF662777270E94EA230E94030C5E2F9C
:1040A60050300895AA89BB89D296F801F170EA0FBB
:1040B600FB1F9F01EE85E1700895AA85BB858C855F
:1040C6009D850895EA89FB89FA93EA93A889B989B7
:1040D6008A899B89089564DF0E94EA230E94030C63
:1040E6005E2F503008950E947724F170AA89BB890B
:1040F600D296EA0FFB1F0895AD81BE818F81988508
:104106000895A985BA855E960E94BD24F5DF0E94B2
:1041160010250895E981FA816B817C810895A1308B
:10412600E0E0BE07E0E08E07E0E09E070895AF3FBF
:10413600EFEFBE07EFEF8E07EFEF9E070895A68518
:10414600B78580899189F3CFA985BA851E960E9485
:10415600C324EF5FFF4F6F4F7F4F0E94CD24A98589
:10416600BA850895ED83FE836F83788708950E944C
:10417600E0240895E889F9896A897B890895AC81E4
:10418600BD818E819F8108950E94D6240895EC8377
:10419600FD836E837F830895EC89FD89FA93EA9304
:1041A6000895AA89BB898C899D8908950E94D00C9F
:1041B600EC87FD876E877F870895AC85BD858E85E4
:1041C6009F850895EC85FD856E857F850895EC8134
:1041D600FD816E817F810895E887F9876A877B87ED
:1041E6000895E885F9856A857B850895F0DFD8DE30
:1041F6000E940B250895E6DF0E9401250895EA89AD
:10420600FB896C897D8908950E94F4240E94EF231E
:1042160008950E94BD24EA83FB836C837D83089501
:10422600AA81BB818C819D810895A885B9850E944C
:10423600B92408957E96DF010E94BD24F1DF0E9415
:1042460010250895EA81FB816C817D810E940125FC
:104256000895EA81FB816C817D81A885B9851A96CE
:104266000E94C824E2CF662777270E94E523089597
:10427600EF70F070EE0F0E942C24EA0FFB1F0895DA
:104286001E960E94BD240E9401250895A985BA851F
:104296000E94B9240895FA93EA93EB85FC85A285DA
:1042A600B38584859585089572DF91CFFA93EA9355
:1042B60048DE0E94030CE0300895FA93EA93AE813B
:1042C600BF81888599850C94010FEC81FD81FA9355
:1042D600EA93A0E00895B0E00E94390F1E2F103037
:1042E6000895AC81BD810E94B924FA93EA93EE81C8
:1042F600FF81A685B7858089918928CEAC81BD814D
:1043060052962D913C91D9010C91003008953A9323
:104316002A93EE81FF81A489B589BA93AA93ABE06B
:10432600B0E008950E94B924FA93EA9308950E9492
:10433600B924EE83FF830895E885F985AE81BF81B0
:104346000895E885F9853196E887F9873197AE8132
:10435600BF81AE0FBF1F0C910895E22F2F5FF0E0D3
:10436600E40FF51F00830895EA0FFB1FAB85BC859C
:10437600ED93FC9301320895DA01EE27A10FBE1FDB
:104386000C9100320895EE81FF813196EE83FF8312
:10439600319700830895AE81BF8116960E94C82486
:1043A6000895EE81FF81FA93EA930895E0E0F0E044
:1043B600ED93FC930895D90154964BCED9015A96A4
:1043C6000E94B9240895662777270E94FE23089540
:1043D6000E94EA24A1E00E945B08E0300895F2966C
:1043E600E250FE4FDF010E94B924E535AAEAFA073A
:1043F60008950E94BD24EF7FFF7F6F7F7070E634C3
:10440600A1E4FA07A4E56A07A0E07A070895ACEAF2
:10441600B9E2F0E0EE0FFF1FAE0FBF1F0895EA8B63
:10442600FB8B6C8B7D8B0895AE81BF81A05CBF4FEB
:104436000E94B9240895AE89BF89888D998D13CFBE
:10444600EE81FF81A085B185FD010E943524089586
:10445600EE81FF815CDDD3DE0E94E5230895FA93A9
:10446600EA93FE017296FA93EA9308950E946713FF
:104476001E2F10300895FE013496ECA3FDA3FE0115
:104486007096FA93EA930895E150F04060407040C8
:104496000895FA93EA93AE81BF8188859985089538
:1044A6002AA13BA1022E032A0895AA8DBB8D3ACFDD
:1044B600A281B3810E945E151E2F10300895EA8DE9
:1044C600FB8DA681B781808591850895FD01BC018C
:1044D600F17030970895AA8DBB8D0E94B924E281B0
:1044E6000895EC8DFD8DA289B389848995890895F7
:1044F600AA8DBB8D1496EC91E068EC930895EC8739
:10450600FD876E877F870895EA8DFB8DE581F0E054
:1045160008950E944D240E94E5230895E0E0F2E00C
:104526000E947D24AF01042E052A0895AA8DBB8D15
:104536000E94B924E181EA930895FA93EA93EF85FC
:10454600F88969897A890895EA8DFB8DA689B789E4
:10455600808D918D37CE0E94F423FA016627772746
:104566000E94102508950E94F423E0E0F2E060E046
:1045760070E00E945724089588279927EA0FFB1FA9
:10458600FA93EA9308951596EC91E40FEC93FA01E9
:10459600EE0FFF1FFE2FE0E09F010895A689B78961
:1045A600808D918D0E94EF24A1E00E94BF08E0302B
:1045B60008951496EC91EF7BEC9308951596EC9183
:1045C600EF5FEC93089516960E94B924F170089552
:1045D600F901AE81BF81EA0FFB1FEE83FF830895C9
:1045E60036960F01DF010E94BD24DF01CB01F901E0
:1045F6003ACE0E94B924E20FF31FED93FC9308957F
:10460600AE89BF898FCEAE89BF891A960E94BD2416
:104616000895EE89FF89A681B781808591850895E1
:10462600AE89BF890E94B9240895E88DF98DA289C3
:10463600B389848995890895AE89BF891496EC91CA
:10464600E068EC930895E181EA93EF89F88DB096DE
:10465600FA93EA930895EE89FF89E581F0E00895DB
:10466600EE89FF89A689B789808D918DBACDEE89AD
:10467600FF89B096FA93EA93E88DF98D0895AD898E
:10468600BE8950CEAD89BE891A960E94BD24089572
:10469600A989BA898B899C890895E98BFA8B6B8BDA
:1046A6007C8B0895AD89BE8916960E94C824AD8973
:1046B600BE890895AD89BE890E94B9240895E98905
:1046C600FA896B897C890895DFDEDF01CB01E985F4
:1046D600FA856B857C850E9490240895E985FA8584
:1046E6006B857C8508950E94BD24ED87FE876F87C4
:1046F600788B0895ED85FE856F85788908950E94EB
:10470600400EED87FE876F87788B0895AD85BE8551
:104716008F8598890895AD89BE891496EC91E068D5
:10472600EC930895E7DFAD89BE8952960E94C824AE
:104736000895AF85B88989899A890895ED89FE8992
:1047460036960F01DF010E94BD240895ED89FE898A
:10475600A681B781808591850895FA93EA93FE0133
:10476600BC96FA93EA9308950E94B1121E2FE1E0D7
:10477600E0300895A2970E941725FE01B8966FCEE5
:10478600A889B9891496E1E0EC93A889B9890E94B1
:10479600680C1E2F08952A93AA89BB89EC89FD8986
:1047A60009950895ED89FE893497ED8BFE8B089562
:1047B600AA89BB89EC89FD89099508950024AF0D66
:1047C600B01D0895EA0FFB1F681F791F0895AE0FED
:1047D600BF1F861F971F0895EA1BFB0B680B790BFB
:1047E6000895AE1BBF0B860B970B0895EA23FB2398
:1047F600682379230895EA2BFB2B682B792B0895E0
:10480600F09560957095E195FF4F6F4F7F4F089536
:10481600EE230E2EFD0121F0F695E7950A94E1F7B9
:104826000895EE230E2EFD01BC0131F0EE0FFF1FA1
:10483600661F771F0A94D1F70895EE230E2EFD0109
:10484600BC0131F076956795F795E7950A94D1F70F
:104856000895EE0FFF1FEE0FFF1FEE0FFF1FEE0F67
:10486600FF1F0895F695E795F695E795F695E79572
:10487600F695E7950895EE0FFF1F661F771F0895BB
:10488600E62FF72F60E070E008956E2F7F2FE0E0AF
:10489600F0E008956F2F660F660B762F0895E0956A
:1048A600F0956095709508957A9F702D6B9F700DA9
:1048B600F89F700DE99F700D6A9F602D710DFB9F2B
:1048C600600D711DE89F600D711D8827FA9FF02D00
:1048D600610D781FEB9FF00D611D781FEA9FE02D9B
:1048E600F10D681F781F08956E2F6A9FF0016B9F68
:1048F600F00D08950024112490E1AA0FBB1F001C9F
:10490600111C0E1A1F0A18F40E0E1F1E01C0A160FC
:104916009A9599F7FD01D00108953F934F935F93C0
:10492600002411244427552730E2AA0FBB1F881FF5
:10493600991F001C111C441F551F0E1A1F0A460BF7
:10494600570B28F40E0E1F1E461F571F01C0A160ED
:104956003A9559F7FD01BC01D001CA015F914F910B
:104966003F910895DADFFD01BC010895ED91FC91B8
:1049760011970895ED91FD916D917C91139708958E
:10498600ED91FD916D917D910895ED93FD936D935C
:104996007C9308957E936E93FE93EE93089505900F
:1049A600F491E02D0895E881F9816A817B8108956B
:1049B600A881B9818A819B810895E883F9836A83F6
:1049C6007B830895A083B1838283938308957A932A
:1049D6006A93FA93EA9308959A938A93BA93AA9359
:1049E6000895182E862F612D192E972F712D1B2EA7
:1049F600BF2FF12D1A2EAE2FE12D0895309760406E
:104A06007040089500240A160B0608060906089544
:104A1600EA17FB07680779070895AE17BF078607E9
:104A2600970708955A934A933A932A931A930A93A7
:104A360008955D814C813B812A8119810881089501
:00000001FF
