:060000000C947C140C942A
:1000060000000C9400000C9400000C9400000C946A
:1000160000000C9400000C9400000C9400000C945A
:1000260000000C9400000C9400000C9400000C944A
:1000360000000C9400000C9400000C9400000C943A
:1000460000000C9400000C9400000C9400000C942A
:1000560000000C9400000C9400000C9400000C941A
:1000660000000C9400000C9400000C9400000C940A
:1000760000000C9400000C9400000C9400000C94FA
:1000860000000C9400000C9400000C9400000C94EA
:1000960000000C9400000C9400000C9400000C94DA
:1000A60000000C9400000C9400000C9400000C94CA
:1000B60000000C9400000C9400000C9400000C94BA
:1000C60000000C9400000C9400000C9400000C94AA
:1000D60000000C9400000C9400000C9400000C949A
:1000E60000000C9400000C9400000C9400000C948A
:1000F60000000C9400000C9400000C9400000C947A
:1001060000000C9400000C9400000C9400000C9469
:1001160000000C9400000C9400000C9400000C9459
:1001260000000C9400000C9400000C9400000C9449
:1001360000000C9400000C9400000C9400000C9439
:1001460000000C9400000C9400000C9400000C9429
:1001560000000C9400000C9400000C9400000C9419
:1001660000000C9400000C9400000C9400000C9409
:1001760000000C9400000C9400000C9400000C94F9
:1001860000000C9400000C9400000C9400000C94E9
:1001960000000C9400000C9400000C9400000C94D9
:1001A60000000C9400000C9400000C9400000C94C9
:1001B60000000C9400000C9400000C9400000C94B9
:1001C60000000C9400000C9400000C9400000C94A9
:1001D60000000C9400000C9400000C9400000C9499
:1001E60000000C9400000C9400000C94000005071D
:1001F6002060000000000000000404040404000461
:100206000A0A0A000000000A0A1F0A1F0A0A041E38
:10021600050E140F04031308040219180609050233
:100226001509160604020000000008040202020472
:100236000802040808080402000A041F040A000051
:1002460004041F040400000000000604020000006D
:100256001F0000000000000006060000100804024F
:1002660001000E11191513110E0406040404040EE0
:100276000E11100804021F1F08040810110E080CA6
:100286000A091F08081F010F1010110E0C02010F9A
:1002960011110E1F1008040202020E11110E111187
:1002A6000E0E11111E1008060006060006060000B6
:1002B6000606000604021008040204081000001FC7
:1002C600001F0000010204080402010E11100804B8
:1002D60000040E11101615150E0E1111111F111115
:1002E6000F11110F11110F0E11010101110E070946
:1002F60011111109071F01010F01011F1F0101073C
:100306000101010E11010119110E1111111F111117
:10031600110E04040404040E1C080808080906113A
:100326000905030509110101010101011F111B1531
:1003360011111111111113151911110E111111119C
:10034600110E0F11110F0101010E111111150916D0
:100356000F11110F0509111E01010E10100F1F04B8
:1003660004040404041111111111110E11111111BB
:10037600110A0411111115151B1111110A040A1184
:100386001111110A040404041F10080402011F1CA1
:1003960004040404041C00010204081000070404F9
:1003A60004040407040A1100000000000000000015
:1003B600001F0204080000000000000E101E111E9F
:1003C60001010D1311110F00000E0101110E101085
:1003D600161911111E00000E111F010E0C12020734
:1003E60002020200001E111E100C01010D13111154
:1003F600110400060404040E08000C08080906028D
:1004060002120A060A120604040404040E00000B73
:100416001515111100000D1311111100000E111107
:10042600110E00000F110F0101000016191E101009
:1004360000000D1301010100000E010E100F020253
:10044600070202120C0000111111191600001111F9
:10045600110A040000111115150A0000110A040AF8
:1004660011000011111E100E00001F0804021F08C3
:100476000404020404080404040404040402040436
:1004860008040402021508000000001F11111111D2
:10049600111F000E206005020406060A0702040466
:1004A60004060304030306060606060606060606F3
:1004B6000303060606060B080707070606080702D3
:1004C600050706080708060807070607080B0708B2
:1004D60007030303050604060606060604060602C7
:1004E600020502080606060604060306060A0606AE
:1004F60006040204060800000000000000000000D8
:1005060000000000000000010101010101000100DE
:1005160000000000000505050000000000000000C6
:1005260000000014141F0A0A1F0505000000000041
:10053600000E15050E1414150E0400000000000030
:1005460000004600290029001600D00028012801D5
:10055600C4000000000000000000000C12120C0A8B
:1005660031112E0000000000000101010000000012
:100576000000000000000004020101010101010267
:100586000400000000010204040404040402010043
:100596000000000207020500000000000000000045
:1005A60000000004041F0404000000000000000016
:1005B600000000000000020202000000000000002F
:1005C600000007000000000000000000000000001E
:1005D6000000020000000000000404020202020102
:1005E600010000000000000E1111111111110E0082
:1005F60000000000000406050404040404000000D2
:100606000000000E1110100804021F000000000078
:10061600000E11100C1010110E0000000000000852
:100626000C0A0A091F08080000000000001E02014B
:100636000F1010110E0000000000000E11010F1126
:1006460011110E0000000000001F08080404020239
:10065600020000000000000E11110E1111110E0013
:1006660000000000000E1111111E10110E000000F6
:100676000000000000010000000001000000000072
:100686000000000100000000010101000000000060
:1006960000100E010E100000000000000000000017
:1006A6001F001F00000000000000000000010E10E7
:1006B6000E01000000000000000E111008040400E6
:1006C60004000000000000000000F8000601B2026D
:1006D600C902450245026501D9000202FC0100007B
:1006E60000000008141414223E41410000000000DE
:1006F600001F21213F2121211F0000000000001CB6
:100706002201010101221C0000000000000F11213E
:10071600212121110F0000000000001F01011F010F
:1007260001011F0000000000001F01010F0101016F
:10073600010000000000001C2241017141221C0042
:1007460000000000002121213F212121210000007D
:10075600000000010101010101010100000000008B
:100766000008080808080909060000000000002122
:1007760011090D0B111121000000000000010101FB
:10078600010101011F00000000000041636355558F
:10079600554949000000000000212325252929315B
:1007A600210000000000001C2241414141221C00A2
:1007B60000000000000F1111110F010101000000DF
:1007C6000000001C2241414159225C00000000004B
:1007D600001F21211F091111210000000000001E29
:1007E6002101061820211E0000000000001F04043D
:1007F600040404040400000000000021212121213A
:1008060021211E000000000000414122221414088C
:1008160008000000000000000000210451045202FC
:1008260052028A028A02040104010000000000004C
:100836000000002112120C0C121221000000000010
:100846000041222214080808080000000000003EAB
:100856001008080404023F00000000000003010124
:100866000101010101010300000000010102020271
:100876000204040000000000000302020202020259
:1008860002020300000000040A0A11000000000032
:1008960000000000000000000000000000003F0013
:1008A600000000010200000000000000000000003F
:1008B6000000000E111E11191600000000000001B4
:1008C600010D131111130D00000000000000000EB1
:1008D600110101110E000000000000101016191180
:1008E60011191600000000000000000E111F011172
:1008F6000E000000000000040207020202020200CD
:1009060000000000000000161911111916100F0042
:1009160000000001010D131111111100000000006B
:1009260000010001010101010100000000000002B8
:100936000002020202020202010000000001010997
:100946000503050509000000000000010101010181
:1009560001010100000000000000003D4B4949492B
:100966004900000000000000000F111111111100D4
:10097600000000000000000E111111110E00000011
:1009860000000000000D131111130D0101000000FD
:1009960000000016191111191610100000000000B1
:1009A6000005030101010100000000000000000E27
:1009B600110608110E0000000000000202070202E4
:1009C60002020600000000000000001111111119BA
:1009D60016000000000000000011110A0A040400BD
:1009E60000000000000000000000000011012901C5
:1009F600AA00AA0044004400000000000000000015
:100A0600000000110A04040A1100000000000000A2
:100A16000011110A0A040404020000000000001F6D
:100A2600080404021F000000000000040202020184
:100A3600020202020400000000010101010101019D
:100A46000101010000000002040404080404040477
:100A56000200000000000000170D0000000000006A
:100A6600000000007E42424242427E000000000E2C
:100A760020600503050606090803040404060304AA
:100A8600030306060606060606060606030306060C
:100A960006070B0807080706060807030607070ADE
:100AA6000708070807070707080B080807040304D1
:100AB6000606040607060707050707030307030BD1
:100AC6000707070705070507070A070706040304BC
:100AD6000608000000000000000000000000000002
:100AE60000000003030303030003030000000000EB
:100AF600001B1B1B0000000000000000000000247B
:100B0600243F12123F09090000000000040E1505DB
:100B16000F1E14150E040000000000000000270040
:100B2600250015001700E800A800A400E400000056
:100B3600000000000000001C36360C5E73337E0099
:100B46000000000000030303000000000000000096
:100B5600000000040603030303030206040000006A
:100B6600000102020606060602030100000000025A
:100B7600070205000000000000000000000000045D
:100B8600041F040400000000000000000000000034
:100B9600000303020100000000000000000007003F
:100BA6000000000000000000000000000003030039
:100BB600000000000004040202020201010000001D
:100BC6000000000E1B1B1B1B1B1B0E000000000061
:100BD600000C0E0F0D0C0C0C0C0000000000000E9B
:100BE6001B18180C06031F0000000000000E1B183F
:100BF6000C18181B0E000000000000181C1A1A1909
:100C06003F18180000000000001E06030F19181BED
:100C16000E0000000000000E1B030F1B1B1B0E0026
:100C260000000000001F180C0C0606060600000057
:100C36000000000E1B1B0E1B1B1B0E0000000000FD
:100C4600000E1B1B1B1E181B0E00000000000000E0
:100C5600000303000003030000000000000000037F
:100C6600030000030302010000000000100C030350
:100C76000C10000000000000000000001F001F0014
:100C86000000000000000000010618180601000020
:100C960000000000001C3630180C000C0C00000090
:100CA600000000000000F8000601FA02C902450231
:100CB60045026501FA000603F8000000000000384E
:100CC600386C6C6CFEC6C60000000000001F333393
:100CD6001F3333331F0000000000003C660303038C
:100CE60003663C0000000000001F33333333333308
:100CF6001F0000000000001F03031F0303031F0063
:100D060000000000001F03031F030303030000008D
:100D16000000003C6603037363663C0000000000AD
:100D2600003333333F333333330000000000000316
:100D36000303030303030300000000000018181850
:100D46001818181B0E000000000000331B1B0F1F95
:100D56001B333300000000000003030303030303F7
:100D66003F000000000000000000C701C701EF01BE
:100D7600EF01AB01BB01BB019301000000000000C5
:100D8600000000333337373B3B33330000000000AD
:100D9600001C3663636363361C0000000000001FFE
:100DA6003333331F0303030000000000001C3663C7
:100DB60063636B363C4000000000001F3333331F73
:100DC6001B33630000000000001E33030F3C30336A
:100DD6001E0000000000003F0C0C0C0C0C0C0C005C
:100DE6000000000000333333333333331E0000007A
:100DF6000000006363363636361C1C000000000017
:100E06000000000023067306760356035603DE032E
:100E16008C018C0100000000000000000066663CAA
:100E260018183C66660000000000006666243C1840
:100E36001818180000000000003F30180C0C0603BC
:100E46003F0000000000000703030303030303033E
:100E56000700000000010102020202040400000073
:100E6600000000070606060606060606070000003E
:100E760000040E0A1B000000000000000000000035
:100E860000000000000000003F0000000003060014
:100E9600000000000000000000000000000E191E07
:100EA6001B1B1E00000000000003031F33333333F7
:100EB6001F00000000000000000E1B03031B0E00B5
:100EC600000000000030303E333333333E00000074
:100ED60000000000001E333F03331E000000000028
:100EE600001C060F060606060600000000000000AD
:100EF600003E333333333E311E0000000003031F30
:100F060033333333330000000000000300030303D0
:100F1600030303000000000000060006060606069E
:100F2600060603000000000303331B0F1F1B3300DC
:100F36000000000000030303030303030300000093
:100F460000000000000000000000FF01330333032F
:100F560033033303330300000000000000000000E9
:100F6600001F333333333300000000000000001E3F
:100F7600333333331E00000000000000001F3333FC
:100F860033331F03030000000000003E33333333C6
:100F96003E30300000000000000F0303030303008F
:100FA600000000000000001E330F3C331E0000004E
:100FB60000000004060F060606060C0000000000EE
:100FC60000000033333333333E00000000000000DE
:100FD60000363636361C1C000000000000000000FB
:100FE600000000009301BB01BB01EE00EE00C6004D
:100FF600000000000000000000000036361C1C3611
:10100600360000000000000000633636361C1C0C5B
:10101600070000000000001F180C06031F00000058
:101026000000000C06060606030606060C00000075
:101036000002020202020202020202000000000393
:10104600060606060C060606030000000000000061
:1010560016090000000000000000007E42424242E5
:1010660042427E000000070E2060000000000000E3
:10107600000000000000000000000000080808084A
:10108600080008000000000000001414140000000E
:10109600000000000000000028143E14143E140A4C
:1010A600000000000000081C020C100E04040000E2
:1010B60000000000040A041E0814080000000000D6
:1010C6000000001804041A123C0000000000000092
:1010D60008080800000000000000000000001010D2
:1010E60008080808101000000000000004040808A2
:1010F60008080404000000000000083E0814000070
:1011060000000000000000000808083E080808006B
:10111600000000000000000000000000180C0400A1
:10112600000000000000003E00000000000000007B
:1011360000000000000000000C000000000000009D
:1011460020101008080404020000000000001C2201
:10115600222222221C000000000000000C080808C1
:1011660008083E000000000000001C2210080402CF
:101176003E000000000000001C22201820221C0057
:10118600000000000000101814123E103800000085
:10119600000000003C04041C20221C00000000008B
:1011A60000003804021E22221C000000000000007D
:1011B6003E222010100808000000000000001C223B
:1011C600221C22221C000000000000001C22223CDF
:1011D60020100E0000000000000000000C000000BF
:1011E6000C000000000000000000180000180C04AD
:1011F6000000000000000020180618200000000073
:101206000000000000003E003E000000000000005C
:10121600000000020C300C0200000000000000007C
:101226000C12100808000C000000000000001C2230
:10123600322A2A32023C0000000000000C08141476
:101246001C2277000000000000001F22221E22221E
:101256001F000000000000003C22020202221C00C7
:101266000000000000000F12222222120F000000D0
:10127600000000003E24141C14243E000000000060
:1012860000003E24141C14040E00000000000000A0
:101296003C22020272221C0000000000000077229D
:1012A600223E222277000000000000003E080808C7
:1012B60008083E000000000000003C10101012124A
:1012C6000C000000000000007722120E12226700B8
:1012D6000000000000000E04040424243E00000068
:1012E600000000007736362A222277000000000030
:1012F60000007726262A2A32370000000000000068
:101306001C22222222221C000000000000001E24B3
:1013160024241C040E000000000000001C222222CF
:1013260022221C380000000000001E2424241C2455
:101336004E000000000000002C32021C20221E007D
:101346000000000000003E2A080808081C000000F3
:10135600000000007722222222221C00000000004A
:1013660000007722221214140C0000000000000076
:1013760077222A2A2A2A140000000000000063228D
:1013860014081422630000000000000077221408ED
:1013960008081C000000000000003E22100804227D
:1013A6003E00000000000000180808080808081899
:1013B60000000000000002040408080810100000E5
:1013C600000000000C0808080808080C00000000CF
:1013D60000000814220000000000000000000000C9
:1013E6000000000000000000007F0000000004086C
:1013F60000000000000000000000000000001C22A9
:101406003C227E0000000000000003021A26222271
:101416001F0000000000000000003C2202023C0009
:1014260000000000000030202C3222227C00000048
:101436000000000000001C223E023C0000000000EC
:10144600000030083C0808083C00000000000000CE
:1014560000006C3222223C201C0000000000030227
:101466001A262222770000000000000008000E085D
:1014760008083E0000000000000008001E101010C2
:1014860010100E000000000003023A120E123B007C
:101496000000000000000C08080808083E000000D4
:1014A600000000000000172A2A2A7F000000000022
:1014B600000000001B26222277000000000000002A
:1014C60000001C2222221C00000000000000000078
:1014D6001B2622221E0207000000000000006C32BC
:1014E60022223C207000000000000000360C04049C
:1014F6001E0000000000000000003C021C201E0030
:1015060000000000000000021F0202221C00000072
:10151600000000000000332222326C0000000000B0
:1015260000000000772212140C00000000000000EA
:10153600000077222A2A14000000000000000000A4
:101546003614081436000000000000000000772260
:10155600141408080E000000000000003E120824C3
:101566003E00000000000000100808080C080808EB
:101576001000000000000808080808080808000015
:101586000000000004080808180808080400000005
:1015960000000000002C1A000000000000000000FF
:1015A6003F21212121213F000000000E2060070776
:1015B60007070707070707070707070707070707B5
:1015C60007070707070707070707070707070707A5
:1015D6000707070707070707070707070707070795
:1015E6000707070707090708070707070708070781
:1015F6000707070707070707070707090707070773
:10160600070707070709070807070707070700006F
:1016160000000000000000000000000000000000C4
:101626000C0C0C0C0C000C00000000000000141444
:1016360014000000000000000000003636367F3639
:101646007F3636360000000000083C26061C303285
:101656001E080800000000000609293E4A4830001E
:101666000000000000001C0606371D193E000000A1
:10167600000000000808080000000000000000004C
:10168600000010180C0C0C0C1810000000000000D4
:10169600040C181818180C04000000000000187E2E
:1016A6001824000000000000000000000008083EAA
:1016B6000808000000000000000000000000000014
:1016C60008040400000000000000003E00000000C6
:1016D6000000000000000000000000000C000000F8
:1016E600000000303018181C0C0C06060000000024
:1016F60000001C36363636361C000000000000009E
:10170600181E181818187E000000000000001C366D
:1017160030180C063E000000000000001C32301C91
:1017260030321C00000000000000181C1A193F1877
:101736003C000000000000003E061E3230321C0055
:10174600000000000000380C061E36361C000000A3
:10175600000000003E32303018181800000000006B
:1017660000001C36361C36361C0000000000000047
:101776001C36363C30180E00000000000000000049
:101786000C0000000C0000000000000000000C002F
:1017960000080404000000000000201804030418D8
:1017A600200000000000000000007F007F00000015
:1017B600000000000000020C1060100C0200000087
:1017C600000000001C36301C0C000C00000000005D
:1017D60000001E2139253901211E000000000000ED
:1017E6001F1C36363E3677000000000000001F360C
:1017F600361E36361F000000000000003E2303039D
:1018060003231E000000000000001F363636363661
:101816001F000000000000003F26161E16263F008F
:101826000000000000003F26161E16061F000000DE
:10183600000000003E2303037B333E00000000004F
:1018460000007736363E363677000000000000008E
:101856003F0C0C0C0C0C3F000000000000007C301C
:10186600303033331F000000000000007726160ECC
:101876001E366F000000000000000F060606262632
:101886003F00000000000000633636362A2A770043
:1018960000000000000073262E2A3A3227000000BE
:1018A600000000001E33333333331E0000000000F7
:1018B60000001F3636361E060F000000000000002E
:1018C6001E33333333331E3C0000000000001F3646
:1018D600361E16366F000000000000003C26061C6F
:1018E60030321E000000000000003F2D2D0C0C0CB5
:1018F6001E000000000000007736363636361C0023
:1019060000000000000077363636141C1C0000006C
:101916000000000000000000EF01C600D600D6005F
:101926005C006C006C00000000000000000000007D
:1019360077361C1C1C367700000000000000F76696
:101946003C1818183C000000000000003E321A182F
:101956002C263E000000000000003C0C0C0C0C0C79
:101966000C3C00000000000307060E0C1C18383063
:101976000000000000001E1818181818181E000095
:101986000000000008142200000000000000000013
:101996000000000000000000000000FF000000043E
:1019A6000800000000000000000000000000000029
:1019B6001E303E337E0000000000000007063E6633
:1019C60066663F0000000000000000003E2303237F
:1019D6001E0000000000000038303E3333337E0026
:1019E60000000000000000001E333F033E00000020
:1019F60000000000380C3E0C0C0C3E0000000000FD
:101A0600000000007E3333333E301E00000000002D
:101A160007061E36363677000000000000000C0070
:101A26000F0C0C0C3F000000000000000C001F18FB
:101A3600181818180F00000000000706361E1E367C
:101A460067000000000000000F0C0C0C0C0C3F009F
:101A560000000000000000000000000000007F0001
:101A6600D600D600D600D701000000000000000016
:101A7600000000001F363636770000000000000028
:101A860000001E3333331E0000000000000000007B
:101A96003F6666663E061F000000000000007E33BB
:101AA60033333E307C00000000000000372E06066F
:101AB6001F0000000000000000003E231E311F0032
:101AC60000000000000006061F0606261C00000097
:101AD600000000000000373636367C0000000000AB
:101AE600000000007736141C1C00000000000000F7
:101AF6000000000000000000EF01D600D6006C00D8
:101B06006C000000000000000000000000007736B6
:101B16001C3677000000000000000000EE6C28185C
:101B2600180C1F000000000000003E1A0C263E00A4
:101B36000000000000001C0C0C0C060C0C1C000025
:101B4600000000000C0C0C0C0C0C0C0C000000002F
:101B560000000E0C0C0C180C0C0E0000000000000F
:101B660000000026190000000000000000003F21D0
:101B7600212121213F000000001120600706050DEC
:101B86000C090A090506060D0D05060508090708CC
:101B9600080808080808080409090A090B0B0B0AB3
:101BA6000A0A0A090B0B070B0A0D0D0B09090A0A8B
:101BB600090A0B0F0F0B0B0806060D0D090708087F
:101BC6000708070708080508080B0C09080808068F
:101BD6000608080A0A08080C0D0C0C0C0000000088
:101BE60000000000000000000000000000000000EF
:101BF600060E0E0C0C0C06000C0E00000000000079
:101C0600001E1F0F0F0000000000000000000080F3
:101C160001E001FC019E01FF07FE06FF07DF03FE50
:101C260001DE037C037E07DE0EFC1B700000000055
:101C3600000000180030007C007E007E001E001CA4
:101C460000780078007B007E003E000C000C00004F
:101C5600000000000000000000CE00DE007B007ED9
:101C6600003C00D800F801BC01EC01E600060000CB
:101C7600000000000000000000000078006E006612
:101C860000CE0038001C00F601C700CE0078000028
:101C96000000000000000000000000000006000731
:101CA6000003000300000000000000000000000028
:101CB600000000000000000000000018180C0C0CCA
:101CC6000E0E0C0C0C181800000000000306060C83
:101CD6000C1C0C0C0C0606030000000000001E1C69
:101CE6001F00000000000000000000008001EC0161
:101CF600FE01FF03F601F601FE03FC03F807B80731
:101D0600F806780E781FEC01600060000000000005
:101D160000000000000000000000000000000000BD
:101D26000000000006000600060006000000000095
:101D36000000000000000000001F0000000000007E
:101D46000000000000000000000000000606000081
:101D56000000000018181C0C0C0C060606030303F2
:101D66000000000000003C6E66E6E6E7E6E66C383A
:101D76000000000000000000000038003E003B00AC
:101D86003800380018001800180018007E000000FF
:101D96000000000000000000001E3B736070303839
:101DA600786C7F000000000000003E7663301C382F
:101DB60063E3731E00000000000060607070787CB2
:101DC60036FF3030F8000000000000007E060606F0
:101DD6003E706066361E00000000000060380C0C85
:101DE6003E6EE6E7E66E3C00000000000000FE6383
:101DF60063633030181C1C0E000000000000003C1D
:101E060066666E3C76E6E7663C0000000000000071
:101E16003C6666E7E67E7C7030180E000000000027
:101E2600000000000606060000060600000000008E
:101E36000000000000060606000006060606000072
:101E4600000000001C007E000E000E00FE00FF00D9
:101E5600CE00CC00C600C600FF0100000000000056
:101E66000000C000F000FC00FC01FC00FC00FC00CF
:101E7600FE00FF007E0070007800FC00FC013000D0
:101E86000000000000000000DC00FE00EE00E6009E
:101E9600E600FF00C600C600C6006600FF0100009F
:101EA6000000000000000000000000001C003600DA
:101EB6003300300038000C000C0000000C001C0041
:101EC60000000000000000008001FC01FC017E0310
:101ED600DE03EF03EE00FE00FF006C007C007807D7
:101EE600F00170006000000000000000000000002B
:101EF6007800700070007000D800D800FC01CC019A
:101F0600C601FF07000000000000000000000000FE
:101F160000007F00EC00CC01EC003C00FC00CC0192
:101F26008C01FC017F0000000000000000000000A2
:101F3600000000007000DC00CE000600070006006E
:101F460006000E00DC00700000000000000000002B
:101F56000000000000003F00EC00CC018C018C0367
:101F66008C038C03CC01FC003F0000000000000045
:101F76000000000000000000FF00DC008C01CC0027
:101F8600FC00CC00CC008C018C01FE01000000009E
:101F960000000000000000000000FF00CC00CC00A4
:101FA600CC007C006C006C000C000C003E000000B5
:101FB600000000000000000000000000F000DC004F
:101FC600CE00060007000600F601CE007C00700079
:101FD6000000000000000000000000000000FE07F6
:101FE6008C018C018C01EC01BC018C018C019C01E3
:101FF600FF030000000000000000000000000000D9
:102006003F001C000C000C000C000C000C000C0027
:102016000C003E0000000000000000000000007EF2
:10202600383838181818181F1C0000000000000067
:10203600000000FF03DC007C003C003C003C006C20
:1020460000EC00CC01FE07000000000000000000CC
:1020560000000000003F001C000C000C000C000CEF
:10206600000C00CC00CC00FE0000000000000000C8
:10207600000000000000007E1F3C063C063C073CBA
:1020860007BC0FEC0FEC0CCE0CCE0E7B1B00000039
:10209600000000000000000000FE07BC01BC01BCFF
:1020A60001FC01EC01EC01CC018C018E019B0100CD
:1020B60000000000000000000000007800EC00C6F0
:1020C60000C601C601C701C600CE006C003800007C
:1020D600000000000000000000000000007E00EC90
:1020E600018C01CC006C003C000C000C000C003F85
:1020F6000000000000000000000000000000007C5E
:1021060000EC00C600C601C601C701DE00DE007C89
:102116000038006000E00130000000000000000010
:10212600007E00EC00CC01CC01EC007C006C00FCD5
:1021360000DC00FF030000000000000000000000BB
:102146000000007C00660066000E001C007800E0BF
:1021560000E30066003E00000000000000000000F2
:102166000000000000FF01BB01BB01380038003849
:10217600003000300018007C000000000000000065
:1021860000000000000000FF038C018C018C018C14
:10219600018C018C018C01DC00F8000000000000BD
:1021A600000000000000000000FF079C019C01DC0D
:1021B60000D800D8007800700070003000000000E1
:1021C6000000000000000000000000FF7F9C339C20
:1021D6001BDC1BD81B780F780F780F3006300630C3
:1021E60006000000000000000000000000FF079C41
:1021F60001F800780070007000D80098018C01DFAB
:10220600070000000000000000000000000000DFE2
:10221600078C01DC00D80078007000700070007038
:1022260000FC0000000000000000000000000000AC
:1022360000FE00630063007000300038001C00DC04
:1022460000CE00FF00000000000000000000003E7D
:102256000E0E0E0E0E0E0E0E0E0E3E0000000000AE
:102266000607060E0C0C0C0C1818181800000000B7
:10227600000F0C0C0C0C0C0C0C0C0C0C0F000000C2
:102286000000E001FE01CF1FFE07DB03FE03FC0199
:10229600F601FC01F801FC01B001F80378006000CA
:1022A6000000000000000000000000000000000028
:1022B6000000000000000000000000000000000018
:1022C600FF01000000000000000006000C001800DE
:1022D60000000000000000000000000000000000F8
:1022E600000000000000000000000000181C363C42
:1022F600363E7F0000000000000E0F0E0E3E7E6E82
:10230600EC6C6C3E00000000000000000000183E6F
:10231600060707363C000000000000707C707078ED
:102326003E363737367C0000000000000000000013
:10233600183E363F67361C0000000000001C7E0E6B
:102346000E0E3F060606063F0000000000000000D5
:1023560000703C363637361C0C3E63673C00000E78
:102366000F0E0E1E3E6E767676FF00000000000011
:10237600000E06000C0F0E0E0C061F0000000000DB
:1023860000000E06000C0F0E0E0E060607070300D1
:1023960000000E0F0E0E6E7E6E3C3636FF000000FD
:1023A6000000000E0F0E0E0E0E0E0606061F000093
:1023B6000000000000000000000000000000BC015A
:1023C600FF036E036E036C036603FF070000000045
:1023D60000000000000000000000000000000000F7
:1023E6003C003F006E006E006C006C00FF000000B9
:1023F60000000000000000000000000000000000D7
:10240600000018003E0076007700770036001C00BA
:1024160000000000000000000000000000001C7F1B
:102426006E6EEE6C3C0C06061E0000000000003CC2
:10243600FE763737363C303030780000000000003A
:102446003C3F3E3E0C061F0000000000000000005E
:10245600001C1E071E383B1E000000000000000086
:102466000C0C0E3F060606061C00000000000000CD
:102476000000006C7F7E3E3E36FC0000000000003F
:1024860000000000FF363E3C1C1C0C000000000053
:102496000000000000000000000000FF03F601FE3F
:1024A60001FC01FC00FC00CC000000000000000064
:1024B600000000000000000000000000007F003E59
:1024C600003C0018003C003E00FF00000000000039
:1024D600000000000000000000FF6E3E3C3C1C189F
:1024E6000C0C0F060000000000003E331B180C3ECB
:1024F6003F000000000000F001FE019E01FF03FC0A
:1025060007FE0EFF0CDC0CD80E78067C03DC017887
:10251600007000000000000000C007FC033F0EBE74
:102526000FBC0DBC077E07FE07FC06F800FC00FC8E
:1025360001780370000000000000008003F003FE35
:1025460007BC07DE07FF01EE01FF00FC0FDC06FCFF
:1025560006F8036000600000000000C000F000FE06
:10256600008F07FF037E03FF01FC01FB00FE007ED8
:10257600037C03EC0338003000000000000000007C
:102586000000007F00630063006300630063006374
:1025960000630063007F00000000000000000000F0
:1025A600AA55AA55AA55AA55FFFFFFFFFFFFFFFF31
:1025B600280000390A00391E00282800171E0017B7
:1025C6000A0028000000482600004E26FFFF542679
:1025D600EF7B592618C66426E0076A26C0876F2651
:1025E6001F00742600F878261C5D7D26E0FF8426F1
:1025F6001FF88C26FF079126EF039B26A0FCA22638
:102606007FF9A7260082AD269991B42610A5BB2690
:1026160008A5C0260F00C5260078CC260F78D3263D
:10262600E07B000103070F1F3F7FFF000000000053
:102636000000202A58041A7E27221215E3252212AA
:102646001503426C61636B005768697465004772D5
:102656006179004C69676874204772617900477236
:1026660065656E004C696D6500426C756500526566
:102676006400417175610059656C6C6F77004D613E
:1026860067656E7461004379616E004461726B2008
:102696004379616E004F72616E67650050696E6BBB
:1026A6000042726F776E0056696F6C6574005369ED
:1026B6006C76657200476F6C64004E617679004DEA
:1026C60061726F6F6E00507572706C65004F6C6949
:1026D600766500536F6C6F6D6F6E205379737465FA
:1026E6006368205353443132383920477261706829
:1026F6006963732044656D6F0A486572652061726F
:102706006520736F6D6520666F6E742073616D70E2
:102716006C65733A005374616E646172642C203583
:10272600783720706978656C7300417269616C2C2A
:1027360020313420706978656C7320686569676834
:10274600740A00417269616C20426F6C642C2031FE
:102756003420706978656C73206865696768740AE7
:1027660000436F75726965722C203778313420709A
:102776006978656C730A00436F75726965722042E9
:102786006F6C642C313420706978656C73206865D1
:10279600696768740A004C612042616D62612C3180
:1027A6003720706978656C73206865696768740A94
:1027B600000A5661726961626C65207465787420DE
:1027C60073706163696E673A0A0053534431323855
:1027D600392054465420436F6E74726F6C6C657268
:1027E6000A00535344313238392054465420436F3B
:1027F6006E74726F6C6C6572004C696E65207374D2
:10280600796C65733A00436F6C6F75726564206C02
:10281600696E65733A0046696C6C00496D6167655F
:102826002077617320736176656420746F2052414E
:102836004D00436972636C65732026206172637371
:102846000052656374616E676C6573202620666945
:102856006C6C65642062617200526F756E646564AB
:102866000072656374616E676C650050696500731C
:102876006C6963653A005075740A696D6167650A2B
:1028860066726F6D0A52414D3A004E6F6E2D74722C
:10289600616E73706172656E74206D6F646500544D
:1028A60072616E73706172656E74206D6F6465001F
:1028B6004D657465722026204261722D67726170C3
:1028C60068206761756765733A005072656465666E
:1028D600696E656420636F6C6F72733A0000010065
:1028E6002D4E414E00494E46000001004330E4287B
:1028F6000000F894EE27E8BFE9BFEABFF091CC01EB
:10290600F860F093CC01F8EDF4BFE093A200E093F9
:102916004004A0918000AD7FA160F4BFA093800029
:1029260080E090E2A0E0B0E2ED930197E9F7E0EFF6
:10293600F8E285919591009761F0A591B591059082
:102946001590BF01F00105900D920197E1F7FB018B
:10295600F0CF8BBFE0E0E0B9E1B9E2B9E3B9E4B9A1
:10296600E5B9E6B9E7B9E8B9E9B9EAB9EBB9ECB955
:10297600EDB9EEB9EFB9EFEFEDBFEFE3EEBFC0E0B3
:10298600D4E20C9405151A930A930FB7F894E091C4
:102996005000E460E0935000E0915100E470E1F3F0
:1029A600E0915000E260E0935000E0914100E07851
:1029B6001E2FE8EDE4BF10934100E0915600EC7F36
:1029C600E0935600E0916000E160E0936000E091E2
:1029D6005100E270E1F3E0914000E87FE1601E2FD4
:1029E600E8EDE4BF10934000E0915000E67EE093EE
:1029F6005000E091B400EC7FE093B4000FBF099162
:102A060019910895EA97BFDFE4EFF1E0ECA3FDA387
:102A1600E0E0EEA3EFA3E8A7E9A7EAA5E160EAA74D
:102A2600ED7FEAA7E460EAA7E77CE062EAA7EBA508
:102A3600E07FEA60EBA7EF78E062EBA7ECA5E87F22
:102A4600ECA7E778E865ECA7EDA5E07EE460EDA7E6
:102A5600EEA5E07EEA61EEA7EFA5E07FEE60EFA7C8
:102A6600E067EFA7E8A9E760E8ABE77CE062E8ABE0
:102A7600E9A9E87FE260E9ABE77CE062E9ABEAA9B5
:102A8600E87FE260EAABE77CE061EAABEBA9E87FCE
:102A9600E560EBABE778E061EBABECA9E07EE360E9
:102AA600ECABE06EECABEDA9E87FE560EDABE77C67
:102AB600E062EDABEEA9E87FE260EEABE77CE062B8
:102AC600EEABEFA9E87FE260EFABE77CE061EFAB4E
:102AD600E8ADE87FE560E8AFE778E061E8AFE9AD4B
:102AE600E07EE360E9AFDE0194960E94241FE09148
:102AF6000D24E160E0930D24A9EDB6E20E94972330
:102B06000E94352DE0E0EA93E4E1F0E0FA93EA93DF
:102B1600ABE1B7E20E948D23E8E9F4E00E943C2D88
:102B26000E94412DE0E0EA93EEE1F0E0FA93EA93A9
:102B3600A0E3B7E20E948D230E94482D0E944B2DF0
:102B4600A9E4B7E20E949723ECE6F0E10E943C2D4F
:102B56000E94522DA7E6B7E20E94592D0E945E2DD3
:102B6600ADE7B7E20E949723EEE7FBE10E943C2D1A
:102B76000E94652DACE9B7E20E9497230E94482D7A
:102B86000E946C2DA7EBB7E20E94592D0E94352DAD
:102B9600A0EDB7E20E949723E2E00E94732DA0ED1C
:102BA600B7E20E949723E3E00E94732DA8EEB7E2F6
:102BB6000E949723E1E00E94732D0E94482D0E94F7
:102BC6006C2DE0E0EA93EEEBF0E0FA93EA93AFEFD8
:102BD600B7E20E948D23E0EAFCEF0E94772DE0E049
:102BE600EA93E2EDF0E00E947C2DA2ED0E94812D99
:102BF6000E94882DE7EDF0E00E947C2DA7ED0E9453
:102C0600812D0E948E2DECEDF0E00E947C2DACED26
:102C16000E94942DEFEFE0930F24E0E0EA93E1EEBB
:102C2600F0E00E947C2DA1EE0E94942D0E94882D3A
:102C3600E6EEF0E00E947C2DA6EE0E94942D0E9406
:102C46008E2DEBEEF0E00E947C2DABEE0E949B2DCC
:102C5600EFEFE0930F24E0E0EA93E0EFF0E00E946C
:102C66007C2DA0EF0E949B2D0E94882DE5EFF0E0C1
:102C76000E947C2DA5EF0E949B2D0E948E2DEAEFCF
:102C8600F0E00E947C2DAAEFB0E00E941B240E9477
:102C96006C2DE0E0EA93E4E0F1E0FA93EA93ACE02D
:102CA600B8E20E94A22D11E020E030E0203FE0E0F3
:102CB6003E0794F40E94AB2D08F011E0E0E0EA93A1
:102CC600E3E1F1E0FA93EA932A93AFE3B1E00E94DD
:102CD6001B242C5F3F4FEACF11E02FEE30E0332369
:102CE60092F00E94AB2D08F011E0EFEEEA93EFE3CD
:102CF600F1E0FA93EA932A93A3E1B1E00E941B2440
:102D060024503040ECCF0E94BA2D0E94352D0E94EF
:102D1600C02DE7E0EA93A6EBB5E20E9416260E94D4
:102D2600C72DEEE1EA93E1E1F0E0FA93EA93ACE134
:102D3600B8E20E948D230E94CA2DE0E3EA93E8E1FF
:102D4600F0E0FA93EA93A0EEBFEF0E94502AE6E184
:102D56000E94D12DE5E2EA93E9E2F0E0FA93EA93E4
:102D6600A7E2B4E20E94CB230E94C72DE0E0EA93DB
:102D7600EFE2F0E0FA93EA93A1E2B8E20E948D2333
:102D86000E94D72DA4E1B0E00E948D280E94412D1B
:102D96000E94D72D0E94DE2DE8E7F0E00E94E32D89
:102DA600E3E0E0930E24EFEFE0930F240E945E2D04
:102DB6000E94E92DA4E1B0E00E948D280E944B2DCF
:102DC6000E94E92D0E94DE2DE2EDF0E00E94E32D47
:102DD6000E94352DE0E0EA93EBE6F0E0FA93EA9301
:102DE600A8E3B8E20E948D230E94412D0E94C02DC7
:102DF600E4E60E94F02D0E94652DE3E0E0930E24A8
:102E0600E3E3E0930F24EEE80E94F02DE6EAF5E214
:102E1600FA93EA93A0EEB7E00E94D729E2E7EA9395
:102E2600E9E5F0E0FA93EA93EAEAEA93A8E6B0E085
:102E36000E943A2A0E94352DE4E6EA93EBE6F0E09A
:102E4600FA93EA93A7E4B8E20E948D230E94412DEB
:102E5600E5E0EA93EDE7F0E0FA93EA93EAE4EA9331
:102E6600E6E2F0E0FA93EA93A8E0B0E00E9491254A
:102E76000E94352DE0E1EA93E8E8F0E0FA93EA9360
:102E8600AFE5B8E20E948D23E0E1EA93E0E9F0E0E5
:102E9600FA93EA93A7E6B8E20E94A22D0E94352D86
:102EA600E4E6EA93E8E7F0E0FA93EA93A1E7B8E20A
:102EB6000E948D23E4E6EA93EFE7F0E0FA93EA93C3
:102EC600A5E7B8E20E948D23EFE1F0E00E94FB2D1A
:102ED600EAEAEA93EFE8F0E0FA93EA93EEE1F0E04B
:102EE600FA93EA93ECE2F1E0FA93EA93A4E1B0E014
:102EF6000E944D29E0E00E94002EACE7B8E20E9455
:102F06008D23EEE20E94002EE7E2F4E2FA93EA93C2
:102F1600A0E00E94A223E0E0EA93E7EDF0E0FA9356
:102F2600EA93A0E9B8E20E948D23E0E0F8EFE0938F
:102F36000424F0930524E6E90E94002EE7E2F4E279
:102F4600FA93EA93A5E00E94A223E2E8EA93E7ED6A
:102F5600F0E0FA93EA93A5EAB8E20E948D230E9474
:102F6600062E0E94482D0E946C2DEEE1EA93E1EEBA
:102F7600F0E0FA93EA93A6EBB8E20E948D23ECE325
:102F8600EF8BE1E3F1E0E88FF98FE2E3F0E0EA8F1F
:102F9600FB8FE0E0EC8FED8FE4E6F0E0EE8FFF8F45
:102FA600EBE0EAA3DE015796F8D1E5E8E883E88D81
:102FB600F98DF297E983FA83EAE5EB83E8E2F0E03C
:102FC600EC83FD83EC8DFD8DEE83FF83EE8DFF8D0F
:102FD600E887F987EAA1EC87DE0191D310E0143087
:102FE600D0F42C8D3D8DEE8DFF8DE217F3072CF07E
:102FF6000E940E2E2B5F3F4FF6CF2E8D3F8DEC8D10
:10300600FD8D2E173F072CF00E940E2E25503040C6
:10301600F6CF1F5FE4CF0E94BA2D0E94482D0E9472
:103026006C2DA0EDB8E20E9497230E94062E0E9406
:10303600C72D0E941F2E10E01731A0F50E94222EE8
:1030460032960E94F6330E94FB2DA12FBB27E2E0A9
:10305600F0E00E94CB33A8E7B0E00E94AB339F01BB
:10306600A12FB0E00E942B2EA4E1B0E00E94AB336A
:103076007496AF012A93FA013696FA93EA930E9460
:10308600222E0E94FA330E948D23E22FEF5BEA93F1
:103096005A934A93EDE2EA93A3E1B0E00E94E9294C
:1030A6001F5FCACFFFCFFFCFBA93AA9327971A9372
:1030B6000A93EF85F889A381B481BF93AF930E94E9
:1030C600D422F0E00E94302EA6E6B6E686EA9FE31A
:1030D6000E948A32AF91BF910E94352E0E943A2EED
:1030E6008F01E985FA85FA93EA93DE0114960E9428
:1030F600AA2CAF85B889EC91F0E0FF93EF93AB85EE
:10310600BC858D859E850E94E22BD8010E943F2EAC
:10311600AF91BF910E94432EEA93E889F989A18174
:10312600B281BF93AF930E94482E0E94582BD801BC
:103136000E943F2EAF91BF910E944D2EFA93EA93C3
:10314600DE0115960E947E231981088161960895F5
:10315600BA93AA9364970E947D340E94552E1796BF
:103166000E94E7330E161F0624F0AC8DBD8D179610
:103176000BC00E94552E15960E94E733E015F10507
:1031860054F0AC8DBD8D15960E94E733AC8DBD8D88
:103196001996ED93FC93EC8DFD8D018412840E94AB
:1031A6005C2E0E94302EA0E0B0E08CED92E40E94EE
:1031B6008A327F936F93FF93EF93EC8DFD8D07809B
:1031C60010840E945C2EAF91BF918F919F910E94B7
:1031D600302E0E94D832A0E0B0E081E193E40E9454
:1031E600642EABEDBFE089E490E40E94692EE0E036
:1031F600F0E064E373E40E94D8320E946E2E0E94CF
:10320600732E0E94E22B0E94782E0E94732E0E943B
:10321600582BEE87FF87688B798BEC8DFD8D0E948E
:103226007D2E0E94842E0E94892EEC8DFD8DA38119
:10323600B481E485F0E0AE1BBF0BE2E0F0E00E9453
:103246008E2E0E94842EEE83FF8368877987AC8D4D
:10325600BD8DEC91F0E0FF93EF930E94932E0E94B8
:10326600982EAF91BF910E94432E3E2FEC8DFD8D7F
:10327600A181B281BF93AF930E949F2E0E94982E88
:10328600AF91BF910E944D2EAF0100910024109185
:103296000124EA8DFB8D0E94772DAC8DBD8DEC91BE
:1032A600F0E0FF93EF930E94932E0E94A42EAF911D
:1032B600BF910E94432EEA93ED8DFE8DA181B281CE
:1032C600BF93AF93EF85F88969897A89AB85BC8509
:1032D6008D859E850E948A32AF91BF910E944D2EA8
:1032E600FA93EA933A93DA010E941B24EC8DFD8D42
:1032F600E485F0E00E94302EA0E0B0E080E090E4AB
:103306000E948A320E94892E0E94732EEBEDFFE006
:1033160069E47FE30E941D3309F008F40CC00E94A3
:10332600732EE4EEFBEC66E170E40E941D3311F0AF
:1033360008F001C001C007C00E94732EEFEDFDEE3C
:103346006FE270EC06C00E94732EE6EDF1E362E6D2
:1033560070E40E9433320E946E2E0E94AB2E0E94B1
:10336600AF2EEE89FF89688D798DABEDBFE089E4DC
:103376009FE30E9433320E946E2E3A93DA010E9436
:103386000F240E94AB2E0E94AF2E009300241093B0
:1033960001240E9484346E960895BA93AA93609786
:1033A6000E947D34EE89FF89E385F0E031970E9423
:1033B600302EABE0BEEB85EF9FE30E94D832EE8362
:1033C600FF83688779870E94352DE2E0E0930E241B
:1033D6000E94C12EE3E2F0E0FA93EA93E1E9F0E01D
:1033E600FA93EA93ED8DFE8DA381B4810E94CA28DB
:1033F600E0E7F7EF61E270E40E94782EEE89FF893C
:10340600A381B481EAE0F0E00E94B033AE89BF89BF
:103416001C96EC93EE89FF89A381B4811197AD01C7
:10342600E485F0E0DF01FA01EA1BFB0B9F01E1E016
:10343600E0930E2410E0EE89FF89E3851E1708F05D
:1034460065C0AA89BB898C899D890E94E22BEE877B
:10345600FF87688B798BAA89BB898C899D890E9495
:10346600582B0E94892EAE89BF89EC91F0E0FF931C
:10347600EF930E949F2ED9010E943F2EAF91BF91DC
:103486000E94432EEA93EF89F88DA181B281BF9302
:10349600AF93EB85FC856D857E85D9010E943F2E15
:1034A600AF91BF910E944D2EFA93EA93A98DBA8DE2
:1034B600EC91F0E0FF93EF93E989FA896B897C89B7
:1034C600DA010E943F2EAF91BF910E94432EEA93EC
:1034D600EA8DFB8DA181B281BF93AF930E949F2E8F
:1034E600DA010E943F2EAF91BF910E944D2EDF015F
:1034F6000E941B24AE81BF81888599850E94932EE8
:103506000E9433320E94782E1F5F95CF0E94C72DEE
:103516000E94522D0E94CC2EE0E7F7EF61E270E4A4
:103526000E94D12EA581B681BFDD0E94CC2E0E94BD
:10353600D62E0E94D12E07801084AC8DBD8D159697
:103546000E94DB2EDF01B0DD0E94CC2EEAEAF1E616
:103556006CE17FE30E94D12EA781B085A5DDE0EE68
:10356600FFEF0E94FB2D0E94C12EE98DFA8D0E946D
:103576007D2EDF010E94EF2AAE89BF8915960E9433
:10358600E733AE89BF891996ED93FC930E94CC2E42
:10359600A0E0B8EFDDDD0E94843468960895BA9302
:1035A600AA93EA81FB81A185B285E881F981EA17B0
:1035B600FB0789F00E94E12E0E94E62EC9DDE88114
:1035C600F981AA81BB811996ED93FC930E94E12EA5
:1035D600A0E0B8EFBDDD0C94C41EBA93AA9327975A
:1035E6000E94EB2EDE0112960E94AA2CAA85BB85AC
:1035F600EC91A985EA0FEF93DE010E94E222F0E04A
:10360600DF010E942B2EAF91AE1BAA93EB85FC85A2
:10361600A181B281BA93AA93DE0113960E947E23FA
:103626002C960895BA93AA932797E0E2E883E98354
:10363600EA83EB83EC83ED83E0E0EE830E947F3444
:1036460020910024309101240E941F2EEB85FC85D9
:1036560006841784AB85BC8550960E94E733E00D3F
:10366600F11D32968F01E0910D24EE7FE0930D243B
:10367600AB85BC85EC91EF93EB85FC85E381F0E0AF
:10368600FF93EF93DE0114960E94E222F0E0AF91E1
:10369600BF91AE1BBF0B0E942B2EAF910E94F02E46
:1036A600E0910D24E160E0930D24EB85FC85A28575
:1036B600B385BA93AA93DE0116960E94AA2CAB850F
:1036C600BC85EC91EF93EB85FC85E381F0E0FF93FD
:1036D600EF93DE0114960E94E222F0E0AF91BF91D3
:1036E600AE1BBF0B0E942B2EAF910E94F02E209393
:1036F6000024309301240E9486342D9608950E945A
:10370600F82E0E94C72D0E94352DEE81FF81A481DF
:10371600B581EAE0F0E00E94B033AE81BF811D962C
:10372600EC93EE81FF81A181B281E585F0E0EA0F9D
:10373600FB1FFF93EF930E94D422F0E0AF91BF915D
:10374600EA0FFB1FAF01AE81BF81EC91EA935A935A
:103756004A93A985BA85AC91E985FA85E381EA0F92
:10376600EA93DA010E941B24AE81BF813C91EE816F
:10377600FF81E381F0E0DF01EE81FF81E485F0E087
:1037860031970E94C3332E2F00E010E0EE81FF81B7
:10379600E485D801F0E0AE17BF079CF43A93DA014E
:1037A6000E940F240E94DE2DE885F985E585F0E06C
:1037B6000E943D33DF010E940125320F0F5F1F4F2C
:1037C600E5CF0E94522D0E94FD2EE0E0EA93E985A6
:1037D600FA85A681B78101DF0E94FD2EE885F9856D
:1037E600E381F0E0DF010E942B2EEA93E985FA855A
:1037F60000841184A985BA8516960E94DB2EDF0106
:10380600ECDE0E94FD2EE885F985A381AA93E98561
:10381600FA85A085B185E1DEEE81FF81A481B581BF
:10382600E585F0E00E948E2EFF93EF930E94D4224E
:10383600A2E0EA9FF001AF91BF91AE1BBF0BE5E09E
:10384600F0E00E948E2EAE81BF815096ED93FC93E0
:10385600FA013396AE81BF811E96ED93FC93EE81FD
:10386600FF81E381FF27662777270E9400327F9337
:103876006F93FF93EF93EE81FF8100841184A681FD
:10388600B781F001EA1BFB0BAF91BF918F919F911E
:103896000E94302E0E94D832AE81BF8153960E947C
:1038A600F133AE81BF8116960E94E733AE81BF81A8
:1038B6001A96ED93FC93AE81BF815296E0E0EC93AD
:1038C6000E94843475C00E9411341A930E94022FFC
:1038D6000E94462B0E94C7311E2FE12FF0E00E9466
:1038E600022F0E94302E0E94642E0E94072F08F09D
:1038F6001F5FE12F18810C940D1F0E94102F0E944C
:10390600152F09F453C0EE81FF813289AE81BF8144
:1039160016960E94E733AC81BD81AE1BBF0B0D012D
:10392600AE81BF8153960E94EB33D0010E94733360
:103936000E9418340E94692EC6DF2E2F009119248A
:1039460010911A240E94152F5CF40E94CA2DAE8194
:10395600BF81EC91E30F0E941F2FE22FE31B0CC0E7
:103966000E94272F0E94FB2DAE81BF81EC91E20FB2
:103976000E941F2FE32FE21BEA93EA85FB85A089AD
:10398600B1890E94E9290093192410931A24EC8125
:10399600FD81AE81BF811A96ED93FC93E22FAE8135
:1039A600BF815296EC93AE81BF813CDE0E94863485
:1039B60028960895FF92AA930E947D34EE81E03006
:1039C60011F0E53069F4A985A33031F4A0912324E0
:1039D600B0912424109709F002C00C94411E1DC01A
:1039E600E13011F0E23009F402C0E33009F402C01C
:1039F600E43011F40C94411EE63079F4E985E130A7
:103A060011F40C94411EE33041F4E0912524F09129
:103A16002624309711F40C94411EAF85A03F68F41C
:103A2600AD85BE85A034E1E0BE0738F4AC85A03094
:103A360021F0AA85BB85109711F40C94411EAF8521
:103A4600BB27EC85F0E0AE0FBF1FA13FE0E0BE074D
:103A560020F0AF85E0EFEA1BEC87EA85FB85AD85B4
:103A6600BE85AE0FBF1FA134E1E0BE0740F0AD85B5
:103A7600BE85E0E4F1E0EA1BFB0BEA87FB87EF85F6
:103A8600EA930E942C2FEF85AA89AE0FA150AA9324
:103A9600EE85FF85A989BA89AE0FBF1F11970E94CF
:103AA600D51EEF85EA93AE85BF850E94312FAE8184
:103AB600A630B1F50E94791EE985E330C1F40E9473
:103AC600372FA1F03C85E32F3150E03071F00E9492
:103AD6006B1E8F010E943E2FA02F0E94472F0E942F
:103AE6003E2FA12F0E94472FEECFE9CF17C00E948D
:103AF600372FA1F03C85E32F3150E03071F00E9462
:103B06006B1E8F010E944D2FA02F0E94192D0E941F
:103B16004D2FA12F0E94192DEECFE9CF0C943D1EFB
:103B2600AE81A73041F40091002410910124E09168
:103B36000D24E0FB08C0AE81A830E9F500911924F8
:103B460010911A24E894F0F8EC850E94582FEC8521
:103B5600E770EC87E03009F04F5F0E94372F49F19C
:103B660020E0241728F50E945D2F3E2F58E02F5F96
:103B7600421721F4EC85E03009F05C85F0FE0BC0BD
:103B860030FF03C00E946B2F02C00E94791E36953B
:103B96005150B1F70CC030FF02C0F80102C00E94BC
:103BA600272FDF010E94521E36955150A1F7D9CF1B
:103BB600D4CF0C943D1EAC85BB2788279927EA8570
:103BC600FB850E94702F9F01462FE2E0E093650679
:103BD600EE81E030F1F4A985A33071F40E94752FCF
:103BE6000E2F0E94752F1E2FD8010E94521E2150A3
:103BF6003040404099F70CC00E945D2F0E2F0E9466
:103C06005D2F1E2FD8014BD0215030404040A1F7E8
:103C160031C0E53029F5A985A33089F40E94752FB6
:103C26000E2F0E94752F0E94812F19F00E946B2F74
:103C360001C05CD021503040404081F710C00E9446
:103C46005D2F0E2F0E945D2F0E94812F19F00E947A
:103C56006B2F01C04BD021503040404081F70AC045
:103C6600E93019F40E94E62E04C0EA3019F40E94E5
:103C7600892F6AD00E948E2F0E94932F0E9484342F
:103C86006096FF900895EFEFE093800603C0E0E0B2
:103C9600E0938006E0934006089500000895BA93E5
:103CA600AA93E1E0E0936606E8E0E0936606E98120
:103CB600E0934406E881E0938406EFDFE8E0E093D2
:103CC600650600000000E1E0E09365060C94D22250
:103CD6001A930A930E94972F10914806009188061E
:103CE6000E949F2FF801099119910895D0DF0E9433
:103CF600972F0E949F2F0895AA93E2E0E09366060D
:103D0600C2DFA881BB27CBDF1DC0BA93AA93E2E02E
:103D1600E0936506B8DFA881B981C1DF0C94D22291
:103D2600BA93AA93AA81E8DFA881B981EEDF87C09A
:103D3600E2E0E0936506ABDFCBDF0895AA93A881A6
:103D4600DBDFF6DF21960895BA93AA931A930A93B6
:103D56000A811B811093440600938406E1E0E093F8
:103D66006606E8E0E093660698DFE8E0E09365061D
:103D7600215030404040A9F7E1E0E0936506198103
:103D8600088124960895BA93AA93EEE4EA93AB8148
:103D9600BB27C6DFEFE4EA93A981BA81C1DFA2E2BD
:103DA600ABDF4DC0BA93AA93E4E4EA93E0E0FB816B
:103DB600DF01EE81F0E00E94A62FE5E4EA93AC81F4
:103DC600BD81AEDFE6E4EA93A981BA81A9DF269632
:103DD60008950E94AA2F0E94312F2F933F934F934D
:103DE60020E03CE241E00E94E62EAEDF4F913F919B
:103DF6002F910E94AA2FC7DF0E94AA2F0DD50895E2
:103E0600BA93AA93EC81EA93AB81BC81BCDFA8810B
:103E1600B9817BDF25960895BA93AA93AA81A03F1C
:103E260018F40E94AF2F18F0E0E0F0E008C0EA8135
:103E3600EA93A981BA810E94312F58DF49DF239680
:103E46000895BA93AA9366971A930A93E1E0E093CA
:103E56006106E0936506E4E0E0936106E09365069B
:103E6600E8E0E0936106E0936506E2E0E093610630
:103E7600E0E1E0936106E0936606A5E0B0E00E940B
:103E86008A31E0E1E0936506A0E058DFE938A9E869
:103E9600FA0711F0E0E080C1E88DF98D309731F036
:103EA600DE01129686E10E945B3407C0E2E3F6E289
:103EB600DE01129686E10E946534E0E0EA93A1E015
:103EC600B0E02EDFAFE0B0E00E948A31E3E0EA9393
:103ED600EA850E94B52FE9850E94BD2FEE0FFE2FC1
:103EE600E0E0AE0FBF1FEA85EF70F070E295E07F6D
:103EF600AE0FBF1FEA85E295E770F070EE0F0E94E5
:103F0600A62FECE0EA93EB85E770F0E0DF0108DF2F
:103F1600EDE0EA93EB85E695E695E695EF70F0E041
:103F2600DF010E94931EEEE0EA93EC850E94C32F08
:103F3600E050F04EDF010E94931EEEE1EA93ED851C
:103F4600EF71F070A0E8B0E00E94A62FAFE0B0E0FD
:103F56000E948A31A1E00E94A11EE070F0718F01DB
:103F6600E885E695E695E170F070EE0FEE0FEE0F40
:103F7600FE2FE0E0BF01E885E1700E947E33F0E0AD
:103F8600DF01EEE00E944933DB01AE0FBF1FE8857B
:103F9600E695E1700E947E33F0E0EE0FFF1FFE2FE4
:103FA600E0E0EA0FFB1FE15CFE4D0E2B1F2BE1E06C
:103FB600EA93D8010E94931EE2E0EA93A0E0B0E102
:103FC6000E94931EE0E10E94C82F0E94CD2FAEE111
:103FD600B0E00E948A31E5E00E94C82FE6E00E9428
:103FE600C82FE7E0EA93A3E3B0E00E94931EEBE05C
:103FF600EA93A8E0B3E50E94931EEFE00E94C82F63
:10400600E5E2EA93EE850E94B52F0E94931E0E9478
:10401600D32FE1E40E94C82FE2E40E94C82FE8E40F
:104026000E94C82FE9E4EA93AFE3B1E00E94931E31
:104036000E948E2F0E94932FE3E20E94C82FE4E293
:104046000E94C82F0E94D32FE0E3EA93EF850E94D7
:10405600D72FDF01EE85E295E770F0700E94A62F5C
:10406600E1E3EA93EF850E94BD2FDF01E8890E9414
:10407600D72F0E94A62FE2E3EA93E8890E94BD2F7C
:10408600DF01E9890E94D72F0E94A62FE3E3EA9376
:10409600E9890E94BD2FDF01EA890E94D72F0E947D
:1040A600A62FEAE3EA93EA890E94DC2FEB890E94B5
:1040B600C32F0E94A62FE4E3EA93EC890E94D72F30
:1040C600DF01EB89E295EF70E695E770F0700E94EC
:1040D600A62FE5E3EA93EC890E94BD2FDF01ED8967
:1040E6000E94D72F0E94A62FE6E3EA93ED890E944D
:1040F600BD2FDF01EE890E94D72F0E94A62FE7E38E
:10410600EA93EE890E94BD2FDF01EF890E94D72F27
:104116000E94A62FEBE3EA93EF890E94DC2FE88D3D
:104126000E94C32F0E94A62F0E941F2EE0E0F0E0FF
:10413600E0930224F0930324E0930424F0930524EF
:10414600EA81FB810E943C2DEC81FD81E0932324D2
:10415600F0932424EE81FF81E0932524F093262416
:10416600E1E0E0930B24E0930C24E0910D24EE7F34
:10417600E0930D240E94C02DEFEFFFEF0E94FB2D70
:104186000E94E32FEFEFEA93A8E0B0E00E94EA2C4A
:104196000E94D32F1EDEE1E0198108816A960895F8
:1041A600FF92AA930E947D34FF24A985BB2722D1C2
:1041B600E987AE81BB271ED1EE83AF81B8852CD1AE
:1041C600EF83F887E0910E24AF81B885F0E0AE0F5B
:1041D600BF1F119721D1AF01EE81EA93A885B9855A
:1041E6001BD3EE81A985EA17A0F46894F0F8AE8196
:1041F600E985EA1B2E2FE1E1EA93A0E2B0E60E94F0
:10420600931EEE810E94E82FEC850E94EE2FDA01C4
:104216000CC0A985EE81EA1B2E2FE9850E94E82FA6
:10422600E9850E94EE2FA885B985ADDD2F5FAF81A8
:10423600B885FA01EA1BFB0B3196AF010E94F52FF8
:1042460071F4A22FBB2788279927FA010E94702FA5
:104256009F01462F0E94892F0E94A71E1FC02497E8
:104266000E94272F0E94FC2F00E0322FA02F0F5F05
:10427600A77011F410910F2410FF03C0E881F98193
:1042860002C0EA81FB81DF010E94521E1695315061
:1042960069F7FA013197AF0139F72496F0FE02C0AB
:1042A6000E94CD2F0E948E2F0E94932F0E9484344D
:1042B6002A96FF900895BA93AA9322970E947D3476
:1042C600AC85BB2797D0EC87AC85BB27E0910E2445
:1042D600F0E0AE0FBF1F11978DD03E2FAA85BB858C
:1042E6009BD0EA87FB87A885B98596D0E887F987AA
:1042F600EC85EA93A985BA858FD2E885F985AA85E2
:10430600BB85EA17FB07B8F4A885B985EA85FB855E
:104316000E940530A8E2B0E60E94931EEC85EA935F
:10432600E985FA85FA93EA933A93AE85BF850E94AA
:10433600D51E3A9315C0AA85BB85E885F9850E94E6
:104346000530A8E3B0E60E94931EEC85EA930E942E
:104356000C303A93AC85BD850E94D51EEC85EA9358
:10436600AB85BC850E94C61EAC85E32FEA1BEF5FBA
:104376003E2FEE81FF813196EE83FF830E94F52F5B
:1043860079F4A32FBB2788279927EE81FF810E9406
:10439600702F9F01462F0E94892F0E94A71E20C0C2
:1043A60024970E94272F0E94FC2F00E04A855B85F8
:1043B600A02F0F5FA77011F410910F2410FF03C0F8
:1043C600E881F98102C0EA81FB81DF010E94521E69
:1043D6001695FA013197AF0159F7315031F7249606
:1043E6000E94CD2F0E948E2F0E94932F0E9484340C
:1043F6002D9608950E9411301CF0E0E0F0E0CFC049
:10440600A881B981A03FE0E0BE071CF0EFEEF0E026
:10441600C6C0E881F981C3C00E9411301CF0E0E0FB
:10442600F0E0BDC00E94AF2F1CF0EFE3F1E0B7C093
:10443600E881F981B4C0BA93AA93EA81EA93E98143
:10444600FA81FA93EA930E94892FDADC0BC4AA93C5
:10445600E981E0930B24E881E0930C24A0C0BA9391
:10446600AA93AA81A03F18F40E94AF2F28F0E0E09B
:10447600F0E060E070E0F6C3AA81BB2788279927A1
:10448600E881F9810E94702FDF01CB01E5E00E94EF
:104496005233E8C3BA93AA9323970E9418308F0128
:1044A600002E012A19F4E0E0F0E060C00E941F30FF
:1044B6000F820E941F300E820E941F300886EB85F5
:1044C600A885EA1718F4E0E0F0E050C0F8010F5FA5
:1044D6001F4F5491E52FA885AE0FEB85EA1718F00C
:1044E600E0E0F0E043C0EF81E030D1F0A985BA8585
:1044F600EC930E94582FEF81E77009F04F5FA88573
:10450600EB85EA1BF0E0DF01EE81F0E00E948333E9
:10451600DF01E42FF0E00E948333E00FF11F26C095
:104526009801E52FF0E00E0F1F1FA885AF5FA88743
:10453600A150EB85AE17A0F4F901E4910E94582F23
:10454600F9012F5F3F4FE491E77009F04F5FAE81AD
:10455600BB27E42FF0E00E9483330E0F1F1FE5CF29
:10456600F901E491A985BA85EC93F8010E94843497
:104576002C960895AA932197E0910924F0910A2494
:10458600309761F0E981EA93DE01119683DF309777
:1045960029F0E0910B24A881EA0F01C0E0E0229601
:1045A60008950E942430309711F4E0E008950E94A7
:1045B60024303196A491E0910C24EA0F0895BA9321
:1045C600AA931A930A9300E0AA81BB81ED91AA836C
:1045D600BB831E2FE03021F0A12FCCDF0E0FF4CFCE
:1045E600E02F1981088118C2E0E0E09306240E94BA
:1045F60029303196E491F0E0AE0FBF1FE0910C2414
:10460600F0E0AE0FBF1F0E942E300895AA932197A7
:104616000E941830309709F469C0AF81AA3009F4B6
:1046260061C0EF81EA93DE01179634DFAF01309760
:1046360019F40E948434D2C0E0910B24AE81EA0FB3
:104646003E2FA0910624BB27E32FF0E0EA0FFB1FC5
:104656008F01013FE0E01E0718F0032F1127C4DF8A
:104666000E943530E985EA930E9424303196E49120
:10467600F0E0FA93EA93E1E0EA935A934A93A7E0CB
:104686000E94DD1CE0910D24E17039F5E0910624CD
:10469600AE810E943F30FA93EA93E0910B24EA93AD
:1046A6000E9424303196E4910E944630A9E00E948F
:1046B600DD1CE0910624EA930E9429303196E491AC
:1046C600F0E0EA0FFB1FFA93EA933A93E0910C2489
:1046D6000E944630A9E00E94DD1CE0EFF0E0E01702
:1046E600F10721F481DF0E94843478C00093062408
:1046F6000E94843473C00E944B30A981BA81ED9127
:10470600A983BA831E2FE03019F0A12F7FDFF5CFE2
:104716001881C8C20E944B300E94543019F0A12F54
:1047260075DFFACF1881BEC2BA93AA931A930E9474
:10473600543019F0A12F6ADFFACF188193C2AA93D9
:104746002497AC81A03011F0A530E9F40E945E30C8
:10475600EA830E945E30EB830E945E30E8830E940B
:104766005E30E983E9850E94E82F0E946430E0E02C
:104776000E946B30AD850E94DD1CEA81EA93A98117
:10478600BA816DDEC9C1E0E0F0E060E070E0C4C16E
:10479600BA93AA93EC81A881B981F0E0ED93FC93DA
:1047A600EA81FB81A881B9811296ED93FC93EF8192
:1047B600EA930E94FD2EEF81EA930E94FD2EE0E02F
:1047C600EA93EF81F8853496FA93EA93A6E00E947D
:1047D600DD1CEC81EA93AB81BC8141DE289608950D
:1047E600AA93EB81EA930E94E12EE0910F24AB811C
:1047F600EA2329F0E0910024F091012402C00E94EE
:10480600272FDF01FDDAE881EE0FE883E03011F4AF
:10481600E1E0E883E88100C1BA93AA93AA81BB27A5
:10482600E9DDE0930624A881B9810E942E301AC2E0
:10483600BA93AA932D970E947D34A88DBB27DADD03
:10484600E88FAD89BB27D6DDED8BAE89BF89E4DD68
:10485600EE8BFF8BAB89BC89DFDDEB8BFC8BED89A7
:10486600E0930624EB89FC89E0930724F09308245F
:10487600E1E0E887EB89FC89AE89BF89EA17FB0787
:10488600A1F4188DAD891A1741F41A93EF89F88DA2
:10489600FA93EA93A1E0A4DFA3C01A93EF89F88DF7
:1048A600FA93EA93A88D7CDC9BC0ED89A88DEA1764
:1048B60051F42E893F89E88DEA933A932A93AE897B
:1048C600BF89F9DC8DC0E0E0EE83AE81AF5FAE83D9
:1048D600A150E0910E24AE1708F082C0188D2E89E3
:1048E6003F89E1E0F0E0AF010E2FAD89BB27E88DEF
:1048F600F0E0AE1BBF0BA98BBA8BAA89AA233AF4A8
:104906000FEFE989FA890E943D33E98BFA8BE98931
:10491600FA89EE0FFF1FEF87F88BAE89BF89EB8907
:10492600FC89EA1BFB0BED87FE87AE85AA2332F4D2
:104936004FEF5FEF0E943D33ED87FE87ED85FE85E5
:10494600EE0FFF1FEB87FC871A933A932A93A1E099
:1049560047DFE887E0E0E987EA87E989FA89AD85F4
:10496600BE85EA17FB07C4F0100FEB85FC850E9495
:104976007130E989FA89A985BA85EA17FB0734F403
:10498600240F351FAF85B8890E9478300E947F308A
:10499600ED89E11749F719C0240F351FEF85F8890E
:1049A6000E947130ED85FE85A985BA85EA17FB0759
:1049B6002CF4100FAB85BC850E9478300E947F30A6
:1049C600EB89FC89E217F30739F7EE89FF893196FF
:1049D600EE8BFF8BEB89FC893196EB8BFC8B75CFCD
:1049E6000E94843469960895BA93AA930E9435303A
:1049F600ED81EA93AC81BD811BDF34C1BA93AA93E2
:104A06000E943530E0910624AD810E943F30AC8192
:104A1600BD81AE0FBF1F0CDF24960895BA93AA93EB
:104A260022970E947D34E885F98515810281A88543
:104A3600B98513962D913C91A885B9854D915C91C8
:104A4600011730F4E02FF0E0EE83FF83012F1E8183
:104A56004217530728F44E835F83A9012E813F81B5
:104A6600E12FA885B9851596EC93F901A885B98536
:104A76001396ED93FC93E02FA885B9851296EC93D7
:104A8600A885B9854D935C930E94843445C0BA933A
:104A9600AA930E946430ED81A885EA0FEA93EC811F
:104AA600FD81AF81B885AE0FBF1F01D0FBC00E944C
:104AB600102FE0910E24E1500E2FDE011496AEDF8A
:104AC600EE81E01B1E2FE02FAC81BD81F0E0AE1B16
:104AD600BF0B9D01E9850E94E82FA12F61DB1A9388
:104AE600E885F985FA93EA93D901E5DBEE81EA9345
:104AF6003A932A93E02FAC85AE0F52DBE985EA9311
:104B0600ED81FE81FA93EA93AA85BB85EE27A00F75
:104B1600BE1FD1DB0E9486342A960895BA93AA93C3
:104B260025970E947D34EF85E03021F0ED85FE85E6
:104B3600309709F46FC0EB85AA89EA0F1E2FEB8523
:104B4600FC85A889B989EA0FFB1FAF01E0910E2405
:104B5600E1502E2FEF85AA89AE0FA1503A2FAB85D3
:104B6600E32FEA1B0E2F321BED85FE85A889B98936
:104B7600AE0FBF1F1197AF83B887AB85BC85EF819A
:104B8600F885EA1BFB0BE987FA87E22FAF81B88528
:104B9600F0E0AE1BBF0BAF83B887E0910F24EE8326
:104BA600EFEFE0930F241A93E989FA89FA93EA93CF
:104BB600A02FA150F5DA0A935A934A930E942C2FFC
:104BC600A1E846D23A935A934A93AC85BD8511978C
:104BD60072DB0A930E948730A8E83AD20A93E885E6
:104BE600F985FA93EA93A12FDBDA1A930E948730AC
:104BF600A4E82ED2EA890E948C30DA015CDB1A9393
:104C06005A934A930E942C2FA2E822D2EE81E09377
:104C16000F2405C0EA89EA93A989BA890CDC0E94A7
:104C2600843463960895BA93AA93EA81E030D1F06A
:104C3600E881F9813097B1F00E94923031960E9456
:104C4600FA33EADDEA81E150EA83EF5F59F00E9428
:104C560092303396E983FA83339731960E94FA337A
:104C6600C3DEF0CF239608950E9411341A930A9357
:104C7600AA81BB818C819D810E94462B0E94C931ED
:104C86008F01F801AA81BB818C819D810E94302E03
:104C96000E94642E0E94072F10F00F5F1F4FF8012D
:104CA6001981088126960895BA93AA932497EA85CE
:104CB600FB850E94842EA5E3BAEF8EE89CE30E9452
:104CC6009930EE85F0E0FF93EF930E949E300E94AC
:104CD600E22BA885B9850E943F2EDF01CB01C4DFF8
:104CE600AF91BF91AE0FBF1F85DBAE81BF81EC9345
:104CF6000E949E300E94582BA885B9850E943F2E9F
:104D0600DF01CB01B1DFAC85BD85AE1BBF0B84DBFC
:104D1600AC81BD81ED93FC93BBC2BA93AA93249751
:104D26000E947D34EE85E987E0910E24E887E091C4
:104D36000024F0910124EE83FF83ED89F0E0A88939
:104D4600B989EA0FFB1F8F01EA89AB89BC89F0E0BC
:104D5600AE1BBF0B9D01EA89AB89BC89F0E00E94BE
:104D6600A13071F0E985E078F1F4AE85BF85EAE51A
:104D7600F0E00E94A8301CF00E94B1300CF413C081
:104D8600332312F00E94B630A885A23020F02230DC
:104D9600E0E03E070CF407C00E94BA3021F40A9303
:104DA600D901119748DBE985E878E83891F0E9857B
:104DB600E078C9F4AE85BF85A25FBE4F0E94C530BC
:104DC6003CF0AE85BF85A25FBE4F0E94CA300CF490
:104DD6000AC00E94CF3038F00E94D63021F40A93E0
:104DE600DA01119628DBAD89BB27E889F989AE1B64
:104DF600BF0B8D0111230AF445C0E985E278E2383C
:104E060091F0E985E07811F5AE85BF85A65ABF4FCA
:104E16000E94C5303CF0AE85BF85A65ABF4F0E94A2
:104E2600CA300CF413C0332312F00E94B630A885A2
:104E3600A23020F02230E0E03E070CF407C00E94CA
:104E4600BA3021F40A93D9011197F5DAE985E478A5
:104E5600E43871F0E985E078A9F4AE85BF85EEE027
:104E6600F1E00E94A8301CF00E94B1300CF40AC098
:104E76000E94CF3038F00E94D63021F40A93DA012E
:104E86001196D9DAAD89BB27EA89F0E0EA0FFB1F54
:104E96008F01A889B989EB89FC89EA1BFB0B9F0165
:104EA600E889F989AB89BC890E94A13081F0E9853E
:104EB600E078F1F4EC85FD85AE85BF85AE17BF07BA
:104EC6002CF0EA85FB85EA17FB070CF411C03323A7
:104ED6007AF00E94B630A885A23050F0E02FEE5F3F
:104EE6000E94E13029F4E02FEF5FEA93D901A3DABB
:104EF600E985E878E83871F0E985E078C1F4AE85AF
:104F0600BF85E8E6F1E00E94A8301CF00E94B130AF
:104F16000CF40DC00E94CF3050F0E02FEE5F0E94DF
:104F2600EB3029F4E02FEF5FEA93DA0184DAAD89FA
:104F3600BB27EA89F0E0AE1BBF0B8D0111230AF4F3
:104F460050C0E985E278E23871F0E985E07809F544
:104F5600AE85BF85E4EBF0E00E94A8301CF00E940D
:104F6600B1300CF416C03323A2F00E94B630A885E7
:104F7600A23020F00230E0E01E070CF40AC0E02F59
:104F8600E2500E94E13029F4E02FE150EA93D90182
:104F960052DAE985E478E43891F0E985E07809F5B4
:104FA600AE85BF85AC54BF4F0E94C5303CF0AE8580
:104FB600BF85AC54BF4F0E94CA300CF412C00E9489
:104FC600CF3020F00230E0E01E070CF40AC0E02FDC
:104FD600E2500E94EB3029F4E02FE150EA93DA0127
:104FE6002ADA0E948434669608950E94F82EAC85CB
:104FF600BB27E885F985AE1BBF0BFCD91E2FEC85B8
:10500600F0E0A885B985AE0FBF1FF4D90E2FAE818B
:10501600BF81EA85FB85EA1BFB0BDF01FDD99F01FA
:10502600EE81FF81AA85BB85AE0FBF1FF5D9AF0103
:105036001A933A932A930A93D901FADB1A935A934D
:105046004A930A93DA01F4DB0E9484342D9608957C
:10505600AA930E947D34AB85A03F30F4A985BA851A
:10506600A034E1E0BE0720F00E9484340C94A82C02
:1050760000910E24E02F0150E03009F447C0EF8183
:10508600F885309721F40E9484340C94A82CEF8183
:10509600F8853197EF83F8870E94F530AE81A0340A
:1050A60091F4EB850E948C30E12FF0E0FA93EA93BD
:1050B600D9019BDFEB850E948C303A932A93A12F6E
:1050C600BB2793DF0FC0EB850E948C301A933A936F
:1050D6002A93EC85F0E0FA93EA930E94DE2DA0E095
:1050E600B0E01BDE1F5F55231AF4E12FF0E002C08B
:1050F6000E940231EE0FFF1F31964E0F5F1FF9011E
:10510600A12FB0E0EA17FB0748F6B4CF0E9484341B
:105116000C94A82CBA93AA930E940931EB81FC81C6
:10512600FA93EA93AFE894DF0C94F82C0E94102FC0
:10513600AA85A03F30F4A885B985A034E1E0BE0772
:1051460010F0E0E020C0AE81BF810D911C91AC81D2
:10515600BD812D913C91D801E8E6F1E00E94C8336B
:105166008F01D901E9E6F1E00E94C8339F01AE81C3
:10517600BF810D931C93AC81BD812D933C93F901A6
:10518600D8010E9478330E9486342B9608950E9497
:10519600F82E0E941031FE013D96FA93EA93DE0145
:1051A6001D96C4DFE03009F471C0EE85E09310244B
:1051B600EC85FD85E0931124F09312240E941031B2
:1051C600ED85FE85FA93EA930E940C30E3E1F4E262
:1051D600FA93EA93A4E1B4E267DD0E9410310E94DB
:1051E6000C300E940C30E6E1F4E2FA93EA93A7E170
:1051F600B4E25ADD00910E24E02F0150E03009F4AC
:1052060045C0EE81FF81309709F440C0EE81FF81F1
:105216003197EE83FF830E94F5300E9410311A9376
:105226003A932A93F9010E94842E0E940C34E12FAE
:10523600FF27662777270E940032DF01CB010E94F5
:10524600562CA1EEBEE285E692E40E948A320E94C6
:10525600C931FA93EA93EA89FB89FA93EA93AA8910
:10526600BB895BDD1F5F55231AF4E12FF0E002C016
:105276000E940231EE0FFF1F31964E0F5F1FF9019C
:10528600A12FB0E0EA17FB0740F6B6CF0E948434A0
:105296002F960895BA93AA9323971A930A93E091A7
:1052A6000E24E1500E2FED850E946B30FE013C96D8
:1052B600FA93EA93DE011C9639DFE03009F470C0F8
:1052C60010910F24EFEFE0930F24ED850E946B30D1
:1052D600EC85FD85FA93EA93EC85FD85FA93EA93CE
:1052E600AC85BD8554DFE0E0EA83EB83A985BA850A
:1052F600A53BE0E0BE0720F0E02FF0E0EA83FB8369
:10530600ED850E946B30E0911324EA93A09114245A
:10531600B0911524EE81FF81AE1BBF0B89DAE0E068
:10532600EA83EB83AF81B885A53BE0E0BE0720F0BA
:10533600E02FF0E0EA83FB83E0911624EA93A09144
:105346001724B0911824EB81FC81AE1BBF0BBA93D6
:10535600AA93E889EA93AF85B8896ADAED850E944F
:105366006B30EA85FB85AC85BD85AE0FBF1FFD01A1
:10537600F695E795FA93EA93EA85FB85F695E79520
:10538600FA93EA93FE013B96FA93EA93DE011B96A3
:105396008BDC0E9409310E94892F7FD010930F2445
:1053A600198108812E960895BA93AA930E94E32F35
:1053B600EC81FD81FA93EA93A8E0B0E00E94D82C34
:1053C600E881F9810E94FB2D0C94332D0E94F82E62
:1053D600AB85A03F30F4A985BA85A034E1E0BE07CD
:1053E60020F00E9484340C94A82CE885E03021F04B
:1053F600EE81FF81309709F436C029853A85F90197
:10540600AE81BF81EA0FFB1FEE83FF83EB85A88584
:10541600EA0FE887EE81FF812E173F0720F5E21B92
:10542600F30BAF014930E0E05E0710F048E050E0D2
:105436001B85E8851E17A0F4E11B0E2F093008F026
:1054460008E01A933A932A930A935A934A93E0E010
:10545600EA930E94E32FA8E00E94DD1C100FE9CF1B
:10546600240F351FD7CF0E9484340C94A82CBA93EE
:10547600AA93DE01D3DA0E946430A885ED81EA1B87
:10548600EF5FEA93AF81B885EC81FD81EA1BFB0BE8
:105496003196DF019BDF0C94E82CFF92BA93AA9316
:1054A600E4970E947D34AEADA03F30F4ACADBDAD07
:1054B600A034E1E0BE0708F08AC0E0911924F0911B
:1054C6001A24EE83FF83FE013A968F01EEAD0E9409
:1054D6001731ECADFDAD0E941C31FE013A96E01786
:1054E600F10708F074C002501040D8010E94E7335B
:1054F600ECAFFDAF01501040D801EC91EEAF3EADE0
:10550600313048F00E94223119F00E94303109F4FE
:1055160002C03150F5CFE894F0F8F1F83F5F303F24
:1055260008F054C00E94223119F00E94303109F46B
:105536004DC03A93EDADFEADFA93EA93A985BA85CF
:105546000E94031FACADBDAD0E947334E0F4ECAD18
:10555600FDAD31970E94373119F00E94303109F4C0
:1055660010C0F0FC0DC0FE01FA960E171F0778F565
:10557600E32F0E941731FA010E941C316894F0F85B
:1055860002C0E894F0F8ACADBDADAF33E1E0BE07C4
:10559600E0F4ECADFDAD31960E94373119F00E9472
:1055A600303109F410C0F1FC0DC0FE01FA960E1759
:1055B6001F0768F4E32F0E941731FA010E941C317D
:1055C6006894F1F802C0E894F1F8A8CF86CF0E945B
:1055D6008434EF96FF9008950E94102F10910024B6
:1055E600E0910E240E2FE0910F243E2FE091192416
:1055F600F0911A240E94772D0E94C02DE885EA9327
:105606000E94EB2E0E94EB2EA0E422DDE12FF0E0BB
:105616000E94772D00930E2430930F240E94863427
:105626000C94E02B0E9411347B816A81F981E88118
:1056360077FB770F67FD7160972F9E5781F078F0A3
:10564600983190F4AA27BB27882708948795B795A1
:10565600A7959A95D1F7EA23FB23682305C0E8941A
:105666007727EE27FF2766276F77769508F4606819
:1056760077F9A991B99189919991EA17FB0768077A
:10568600790797FB08950E9445310E94152B0E94C9
:10569600073421F40E9448310C94332DDEF70E9422
:1056A6004B310E9433320C94332D0E9411342497CF
:1056B6001A9310E00E945131E3E8F9EF62E27EE3CB
:1056C6000E948A320E945631DEDF0E9451310E94CA
:1056D600642E0E945631E0E0F0E060E07FE30E9435
:1056E6001D3309F008F409C00E945B31A0E0B0E068
:1056F60080E09FE30E94603111E00E945131E0E0BA
:10570600F0E060E87EE30E941D3309F008F408C06B
:105716000E945131E0E0F0E060E07FE30E946031FA
:10572600103041F00E945B310E949431ED83FE837C
:105736006F8378870E945B310E9451310E948A32C2
:10574600E983FA836B837C83A1EBB4EC86E292E473
:105756000E94692EEDE1F5EE6DE272E40E94642E80
:105766000E94022F0E948A32ACE4B3E584E091E401
:105776000E943A320E9451310E948A327F936F937F
:10578600FF93EF93E981FA816B817C81A1E1BDEE04
:105796008EED9FE30E943A320E94022F0E948A32C7
:1057A600AEE5BBE788EA9FE30E943A32AF91BF912C
:1057B6008F919F910E94D8321881299608950E9450
:1057C60045310E94D62E0E943332DF01CB016DDFB8
:1057D6000C94332D0E9467310E946F310E949930DC
:1057E6000E944831A5E6B0ED8BEC90E40E9474313E
:1057F6000E946F310E948A327F936F93FF93EF93DB
:105806000E944831A0E0BDE689E291E40E943A3266
:105816000E949E300E947431AF91BF918F919F91EB
:105826000E94D832289608950E944531EDECF3E1A6
:1058360064ED7EE30E941D3328F40E949E30CADF89
:105846000C94332D0E949E30EAE7F2E86AE170E498
:105856000E941D3309F008F40CC00E944B310E94CF
:105866007D31ABEDBFE089EC9FE30E94642E0C9482
:10587600332D0E944B310E9433327F936F93FF93F7
:10588600EF930E944B310E943A32AF91BF918F91B4
:105896009F910E947D31ABEDBFE089E49FE30E94BA
:1058A6003A320C94332D0E9467310E946F34D9F43A
:1058B600E885F9856A857B850E946F3429F4EFEFC8
:1058C600FFEF6FE77FE741C0A885B9858A859B858D
:1058D6000E9477341CF40E94D62E37C0EBEDFFE011
:1058E60069EC7FEB32C0EC81FD816E817F81A885FA
:1058F600B9858A859B850E94D8320E9407340E940A
:105906006F310E94773464F4AB85AA2322F00E949B
:105916009E308ADF1AC00E9483310E94943115C0DE
:10592600AB85AA234AF00E948331ABEDBFE089E440
:1059360090E40E94642E09C00E949E3075DFABED94
:10594600BFE089E490EC0E943A322C960895BA930F
:10595600AA93A991B991E991F99130962AF4E09523
:10596600F09531966DE26D93E89480E197E20DD063
:1059760088EE93E00AD084E6992707D08AE005D01E
:105986006E2F10D066276C9308956627E817F907DF
:1059960020F06395E81BF90BC9F7662311F416F09E
:1059A60008956894605D6D930895BA93AA9399815A
:1059B6008881009641F0BD81AC81FB81EA8105902A
:1059C6000D920197E1F7FD81EC8126960895BA9331
:1059D600AA93B981A881109631F0FC81EB816A8186
:1059E60061931197E9F7EB81FC8125960895BA93A7
:1059F600AA93EA81E13021F4E881F981E49114C0A7
:105A0600E23029F4A881B9810E9428340DC0E33020
:105A160041F4A881B981E0912324F09124240995C9
:105A260003C0A881B981EC9123960895AA93EB81CE
:105A3600E03029F4E881A981BA81EC9311C0E23003
:105A460031F4E881A981BA810E94313409C0E3307A
:105A560039F4E981FA81FA93EA93AA810E94472FE1
:105A660024960895E0EEFFEFE0930024F0930124DE
:105A76000895E0930924F0930A240895E0E0F8EFEE
:105A8600E0930024F09301240895E4E7FAE0F1CFCF
:105A9600EFE1F8EFE0930024F09301240895E0EE9F
:105AA600F7E0E0930024F093012408950E949723E1
:105AB600E0EBF5E1DECFE0ECF7E8E0930024F093CD
:105AC60001240895ECE1FDE5E0930024F093012420
:105AD6000895EFEFF7E0E0930024F0930124089592
