:0E0000000C946C140C9400000C9400000C94F2
:10000E0000000C9400000C9400000C9400000C9462
:10001E0000000C9400000C9400000C9400000C9452
:10002E0000000C9400000C9400000C9400000C9442
:10003E0000000C9400000C9400000C9400000C9432
:10004E0000000C9400000C9400000C9400000C9422
:10005E0000000C9400000C9400000C9400000C9412
:10006E0000000C9400000C9400000C9400000C9402
:10007E0000000C9400000C9400000C9400000C94F2
:10008E0000000C9400000C9400000C9400000C94E2
:10009E0000000C9400000C9400000C9400000C94D2
:1000AE0000000C9400000C9400000C9400000C94C2
:1000BE0000000C9400000C9400000C9400000C94B2
:1000CE0000000C9400000C9400000C9400000C94A2
:1000DE0000000C9400000C9400000C9400000C9492
:1000EE0000000C9400000C9400000C9400000C9482
:1000FE0000000C9400000C9400000C9400000C9472
:10010E0000000C9400000C9400000C9400000C9461
:10011E0000000C9400000C9400000C9400000C9451
:10012E0000000C9400000C9400000C9400000C9441
:10013E0000000C9400000C9400000C9400000C9431
:10014E0000000C9400000C9400000C9400000C9421
:10015E0000000C9400000C9400000C9400000C9411
:10016E0000000C9400000C9400000C9400000C9401
:10017E0000000C9400000C9400000C9400000C94F1
:10018E0000000C9400000C9400000C9400000C94E1
:10019E0000000C9400000C9400000C9400000C94D1
:1001AE0000000C9400000C9400000C9400000C94C1
:1001BE0000000C9400000C9400000C9400000C94B1
:1001CE0000000C9400000C9400000C9400000C94A1
:1001DE0000000C9400000C9400000C9400000C9491
:1001EE0000000C94000005072060000000000000D5
:1001FE0000040404040400040A0A0A000000000AB1
:10020E000A1F0A1F0A0A041E050E140F0403130800
:10021E000402191806090502150916060402000043
:10022E00000008040202020408020408080804027E
:10023E00000A041F040A000004041F040400000046
:10024E0000000604020000001F0000000000000075
:10025E00060600001008040201000E1119151311F4
:10026E000E0406040404040E0E11100804021F1FCF
:10027E0008040810110E080C0A091F08081F010FA8
:10028E001010110E0C02010F11110E1F1008040296
:10029E0002020E11110E11110E0E11111E10080672
:1002AE0000060600060600000606000604021008F8
:1002BE00040204081000001F001F000001020408C1
:1002CE000402010E1110080400040E11101615156B
:1002DE000E0E1111111F11110F11110F11110F0E01
:1002EE0011010101110E070911111109071F010159
:1002FE000F01011F1F0101070101010E110101195B
:10030E00110E1111111F1111110E04040404040E0B
:10031E001C08080808090611090503050911010141
:10032E00010101011F111B151111111111111315CD
:10033E001911110E11111111110E0F11110F0101C1
:10034E00010E1111111509160F11110F0509111EAC
:10035E0001010E10100F1F040404040404111111E6
:10036E001111110E11111111110A0411111115157E
:10037E001B1111110A040A111111110A04040404AB
:10038E001F10080402011F1C04040404041C0001B5
:10039E00020408100007040404040407040A1100F0
:1003AE000000000000000000001F02040800000012
:1003BE000000000E101E111E01010D1311110F0071
:1003CE00000E0101110E1010161911111E00000E53
:1003DE00111F010E0C12020702020200001E111E56
:1003EE00100C01010D131111110400060404040E6A
:1003FE0008000C080809060202120A060A12060470
:10040E00040404040E00000B1515111100000D1349
:10041E0011111100000E1111110E00000F110F011C
:10042E0001000016191E101000000D13010101002D
:10043E00000E010E100F0202070202120C00001134
:10044E001111191600001111110A040000111115D5
:10045E00150A0000110A040A11000011111E100ED7
:10046E0000001F0804021F08040402040408040408
:10047E00040404040402040408040402021508001F
:10048E000000001F11111111111F000E2060050236
:10049E000406060A07020404040603040303060600
:1004AE0006060606060606060303060606060B08DD
:1004BE0007070706060807020507060807080608C5
:1004CE0007070607080B07080703030305060406BC
:1004DE0006060606040606020205020806060606BB
:1004EE0004060306060A06060604020406080000B1
:1004FE0000000000000000000000000000000001ED
:10050E0001010101010001000000000000050505C8
:10051E00000000000000000000000014141F0A0A72
:10052E001F05050000000000000E15050E14141521
:10053E000E04000000000000000046002900290003
:10054E001600D00028012801C400000000000000A1
:10055E000000000C12120C0A31112E0000000000D7
:10056E000001010100000000000000000000000476
:10057E000201010101010102040000000001020458
:10058E000404040404020100000000020702050036
:10059E00000000000000000000000004041F04041E
:1005AE000000000000000000000000000000020239
:1005BE000200000000000000000007000000000024
:1005CE00000000000000000000000200000000001B
:1005DE000004040202020201010000000000000EED
:1005EE001111111111110E0000000000000406057A
:1005FE0004040404040000000000000E1110100892
:10060E0004021F0000000000000E11100C1010114B
:10061E000E000000000000080C0A0A091F0808005E
:10062E0000000000001E02010F1010110E0000004D
:10063E000000000E11010F1111110E00000000003C
:10064E00001F080804040202020000000000000E51
:10065E0011110E1111110E0000000000000E1111EB
:10066E00111E10110E00000000000000000100001D
:10067E00000001000000000000000001000000006A
:10068E00010101000000000000100E010E1000001C
:10069E0000000000000000001F001F00000000000E
:1006AE000000000000010E100E010000000000000E
:1006BE00000E1110080404000400000000000000E9
:1006CE000000F8000601B202C902450245026501AA
:1006DE00D9000202FC0100000000000814141422CC
:1006EE003E41410000000000001F21213F21212139
:1006FE001F0000000000001C2201010101221C004D
:10070E0000000000000F1121212121110F00000017
:10071E000000001F01011F0101011F000000000069
:10072E00001F01010F010101010000000000001C6B
:10073E002241017141221C000000000000212121F4
:10074E003F212121210000000000000101010101D3
:10075E00010101000000000000080808080809094E
:10076E00060000000000002111090D0B11112100DF
:10077E000000000000010101010101011F00000045
:10078E0000000041636355555549490000000000C3
:10079E000021232525292931210000000000001CFD
:1007AE002241414141221C0000000000000F1111A6
:1007BE00110F0101010000000000001C2241414107
:1007CE0059225C0000000000001F21211F09111199
:1007DE00210000000000001E2101061820211E002D
:1007EE0000000000001F04040404040404000000C0
:1007FE00000000212121212121211E0000000000E6
:10080E0000414122221414080800000000000000DC
:10081E00000021045104520252028A028A0204018B
:10082E0004010000000000000000002112120C0C58
:10083E0012122100000000000041222214080808B4
:10084E00080000000000003E1008080404023F00EB
:10085E00000000000003010101010101010103007C
:10086E000000000101020202020404000000000068
:10087E000003020202020202020203000000000450
:10088E000A0A110000000000000000000000000035
:10089E000000000000003F00000000010200000008
:1008AE0000000000000000000000000E111E1119D3
:1008BE001600000000000001010D131111130D00B0
:1008CE00000000000000000E110101110E000000DA
:1008DE00000000101016191111191600000000006A
:1008EE000000000E111F01110E0000000000000498
:1008FE0002070202020202000000000000000016C1
:10090E001911111916100F0000000001010D13111D
:10091E001111110000000000000100010101010190
:10092E0001000000000000020002020202020202A8
:10093E000100000000010109050305050900000082
:10094E000000000101010101010101000000000091
:10095E000000003D4B4949494900000000000000DD
:10096E00000F111111111100000000000000000E07
:10097E00111111110E00000000000000000D1311E6
:10098E0011130D01010000000000001619111119BC
:10099E001610100000000000000503010101010007
:1009AE00000000000000000E110608110E000000ED
:1009BE000000000202070202020206000000000010
:1009CE0000000011111111191600000000000000A6
:1009DE000011110A0A0404000000000000000000CB
:1009EE000000000011012901AA00AA0044004400E1
:1009FE000000000000000000000000110A04040ABC
:100A0E0011000000000000000011110A0A04040485
:100A1E00020000000000001F080404021F00000076
:100A2E0000000004020202010202020204000000A1
:100A3E00000101010101010101010100000000029C
:100A4E000404040804040404020000000000000072
:100A5E00170D000000000000000000007E42424220
:100A6E0042427E000000000E2060050305060609C6
:100A7E00080304040406030403030606060606061A
:100A8E00060606060303060606070B0807080706F2
:100A9E00060807030607070A0708070807070707D8
:100AAE00080B0808070403040606040607060707D2
:100ABE00050707030307030B0707070705070507C6
:100ACE00070A0707060403040608000000000000DA
:100ADE0000000000000000000000000303030303F9
:100AEE000003030000000000001B1B1B00000000A1
:100AFE000000000000000024243F12123F090900EC
:100B0E0000000000040E15050F1E14150E04000043
:100B1E000000000000002700250015001700E80067
:100B2E00A800A400E4000000000000000000001C6B
:100B3E0036360C5E73337E000000000000030303A4
:100B4E000000000000000000000000040603030384
:100B5E000303020604000000000102020606060658
:100B6E000203010000000002070205000000000061
:100B7E000000000000000004041F04040000000038
:100B8E00000000000000000000030302010000004E
:100B9E000000000000000700000000000000000040
:100BAE000000000000030300000000000004040227
:100BBE0002020201010000000000000E1B1B1B1BA5
:100BCE001B1B0E0000000000000C0E0F0D0C0C0C79
:100BDE000C0000000000000E1B18180C06031F006E
:100BEE0000000000000E1B180C18181B0E00000051
:100BFE00000000181C1A1A193F18180000000000F7
:100C0E00001E06030F19181B0E0000000000000E38
:100C1E001B030F1B1B1B0E0000000000001F180CF7
:100C2E000C060606060000000000000E1B1B0E1B25
:100C3E001B1B0E0000000000000E1B1B1B1E181BB2
:100C4E000E0000000000000000030300000303007C
:100C5E000000000000000003030000030302010077
:100C6E0000000000100C03030C1000000000000038
:100C7E00000000001F001F00000000000000000028
:100C8E00010618180601000000000000001C363096
:100C9E00180C000C0C000000000000000000F80012
:100CAE000601FA02C902450245026501FA00060371
:100CBE00F800000000000038386C6C6CFEC6C600F0
:100CCE0000000000001F33331F3333331F000000BA
:100CDE000000003C6603030303663C0000000000B6
:100CEE00001F3333333333331F0000000000001F67
:100CFE0003031F0303031F0000000000001F030374
:100D0E001F030303030000000000003C660303738F
:100D1E0063663C0000000000003333333F3333334F
:100D2E00330000000000000303030303030303006A
:100D3E0000000000001818181818181B0E000000EC
:100D4E00000000331B1B0F1F1B333300000000007D
:100D5E0000030303030303033F0000000000000031
:100D6E000000C701C701EF01EF01AB01BB01BB01E1
:100D7E009301000000000000000000333337373BC2
:100D8E003B33330000000000001C366363636336A0
:100D9E001C0000000000001F3333331F0303030049
:100DAE0000000000001C366363636B363C4000009D
:100DBE000000001F3333331F1B336300000000009D
:100DCE00001E33030F3C30331E0000000000003FB6
:100DDE000C0C0C0C0C0C0C00000000000033333318
:100DEE00333333331E0000000000006363363636A3
:100DFE00361C1C00000000000000000023067306D5
:100E0E00760356035603DE038C018C0100000000AE
:100E1E00000000000066663C18183C666600000084
:100E2E000000006666243C18181818000000000028
:100E3E00003F30180C0C06033F00000000000007B6
:100E4E000303030303030303070000000001010271
:100E5E000202020404000000000000070606060657
:100E6E00060606060700000000040E0A1B0000001E
:100E7E000000000000000000000000000000000064
:100E8E003F0000000003060000000000000000000C
:100E9E0000000000000E191E1B1B1E0000000000AB
:100EAE000003031F333333331F0000000000000024
:100EBE00000E1B03031B0E00000000000030303E2E
:100ECE00333333333E00000000000000001E333F7A
:100EDE0003331E0000000000001C060F0606060667
:100EEE000600000000000000003E333333333E3175
:100EFE001E0000000003031F3333333333000000A2
:100F0E0000000003000303030303030000000000BE
:100F1E00000600060606060606060300000000038D
:100F2E0003331B0F1F1B33000000000000030303DD
:100F3E000303030303000000000000000000000094
:100F4E000000FF0133033303330333033303000085
:100F5E000000000000000000001F33333333330065
:100F6E00000000000000001E333333331E0000006B
:100F7E0000000000001F333333331F030300000053
:100F8E000000003E333333333E30300000000000AB
:100F9E00000F030303030300000000000000001E07
:100FAE00330F3C331E00000000000004060F06063F
:100FBE0006060C000000000000000033333333330C
:100FCE003E0000000000000000363636361C1C00C5
:100FDE000000000000000000000000009301BB01B3
:100FEE00BB01EE00EE00C600000000000000000095
:100FFE0000000036361C1C363600000000000000D3
:10100E0000633636361C1C0C070000000000001F63
:10101E00180C06031F0000000000000C0606060652
:10102E00030606060C000000000202020202020283
:10103E000202020000000003060606060C06060663
:10104E000300000000000000160900000000000070
:10105E000000007E4242424242427E000000070EE5
:10106E0020600000000000000000000000000000F2
:10107E000000000008080808080008000000000032
:10108E000000141414000000000000000000000016
:10109E0028143E14143E140A000000000000081C20
:1010AE00020C100E0404000000000000040A041ECE
:1010BE0008140800000000000000001804041A12B2
:1010CE003C000000000000000808080000000000BE
:1010DE0000000000000010100808080810100000A2
:1010EE0000000000040408080808040400000000C2
:1010FE000000083E08140000000000000000000080
:10110E000808083E08080800000000000000000063
:10111E0000000000180C0400000000000000003E5B
:10112E0000000000000000000000000000000000B1
:10113E000C0000000000000020101008080404023B
:10114E000000000000001C22222222221C000000AF
:10115E00000000000C08080808083E00000000000F
:10116E0000001C22100804023E00000000000000D7
:10117E001C22201820221C00000000000000101865
:10118E0014123E1038000000000000003C04041C45
:10119E0020221C000000000000003804021E222243
:1011AE001C000000000000003E2220101008080065
:1011BE000000000000001C22221C22221C00000045
:1011CE00000000001C22223C20100E000000000037
:1011DE00000000000C0000000C00000000000000E9
:1011EE000000180000180C04000000000000002091
:1011FE0018061820000000000000000000003E004D
:10120E003E00000000000000000000020C300C0246
:10121E0000000000000000000C12100808000C0076
:10122E000000000000001C22322A2A32023C00007C
:10123E00000000000C0814141C22770000000000AF
:10124E0000001F22221E22221F00000000000000AC
:10125E003C22020202221C000000000000000F12BD
:10126E00222222120F000000000000003E24141C57
:10127E0014243E000000000000003E24141C140440
:10128E000E000000000000003C22020272221C0030
:10129E000000000000007722223E2222770000008C
:1012AE00000000003E08080808083E00000000008C
:1012BE0000003C10101012120C0000000000000084
:1012CE007722120E122267000000000000000E04AA
:1012DE00040424243E000000000000007736362A65
:1012EE00222277000000000000007726262A2A32EC
:1012FE0037000000000000001C22222222221C00C7
:10130E000000000000001E2424241C040E00000017
:10131E00000000001C22222222221C3800000000A5
:10132E0000001E2424241C244E0000000000000097
:10133E002C32021C20221E000000000000003E2A5B
:10134E00080808081C000000000000007722222276
:10135E0022221C000000000000007722221214142A
:10136E000C0000000000000077222A2A2A2A14000E
:10137E000000000000006322140814226300000025
:10138E00000000007722140808081C00000000006E
:10139E0000003E22100804223E0000000000000063
:1013AE0018080808080808180000000000000204C9
:1013BE000408080810100000000000000C080808BF
:1013CE000808080C000000000000081422000000AD
:1013DE0000000000000000000000000000000000FF
:1013EE00007F000000000408000000000000000064
:1013FE000000000000001C223C227E0000000000C5
:10140E00000003021A2622221F0000000000000026
:10141E0000003C2202023C000000000000003020D0
:10142E002C3222227C0000000000000000001C2252
:10143E003E023C0000000000000030083C08080896
:10144E003C0000000000000000006C3222223C2014
:10145E001C000000000003021A2622227700000062
:10146E000000000008000E0808083E000000000002
:10147E00000008001E10101010100E0000000000DA
:10148E0003023A120E123B000000000000000C088E
:10149E00080808083E000000000000000000172A9F
:1014AE002A2A7F0000000000000000001B262222D6
:1014BE00770000000000000000001C2222221C0009
:1014CE0000000000000000001B2622221E02070062
:1014DE000000000000006C3222223C207000000050
:1014EE0000000000360C04041E0000000000000086
:1014FE0000003C021C201E00000000000000000244
:10150E001F0202221C000000000000000000332217
:10151E0022326C000000000000000000772212143E
:10152E000C00000000000000000077222A2A1400A0
:10153E000000000000000000361408143600000001
:10154E000000000000007722141408080E000000AE
:10155E00000000003E1208243E00000000000000C3
:10156E00100808080C080808100000000000080801
:10157E000808080808080000000000000408080811
:10158E00180808080400000000000000002C1A00D3
:10159E0000000000000000003F21212121213F001A
:1015AE000000000E20600707070707070707070759
:1015BE0007070707070707070707070707070707AD
:1015CE00070707070707070707070707070707079D
:1015DE00070707070707070707070707070907088A
:1015EE00070707070708070707070707070707077C
:1015FE000707070907070707070707070709070868
:10160E0007070707070700000000000000000000A2
:10161E0000000000000000000C0C0C0C0C000C0074
:10162E000000000000001414140000000000000070
:10163E000000003636367F367F3636360000000024
:10164E0000083C26061C30321E0808000000000070
:10165E000609293E4A4830000000000000001C0622
:10166E0006371D193E0000000000000008080800A3
:10167E000000000000000000000010180C0C0C0C04
:10168E001810000000000000040C181818180C04A4
:10169E00000000000000187E18240000000000006A
:1016AE00000000000008083E0808000000000000CE
:1016BE00000000000000000008040400000000000C
:1016CE000000003E000000000000000000000000CE
:1016DE00000000000C000000000000303018181C44
:1016EE000C0C06060000000000001C36363636369E
:1016FE001C00000000000000181E181818187E00AC
:10170E000000000000001C3630180C063E000000E1
:10171E00000000001C32301C30321C0000000000A3
:10172E000000181C1A193F183C00000000000000B1
:10173E003E061E3230321C00000000000000380C45
:10174E00061E36361C000000000000003E3230300F
:10175E00181818000000000000001C36361C363623
:10176E001C000000000000001C36363C30180E0035
:10177E0000000000000000000C0000000C00000043
:10178E000000000000000C0000080404000000002F
:10179E0000002018040304182000000000000000C0
:1017AE0000007F007F000000000000000000020C1F
:1017BE001060100C02000000000000001C36301CEF
:1017CE000C000C000000000000001E21392539011C
:1017DE00211E0000000000001F1C36363E3677002A
:1017EE000000000000001F36361E36361F000000B7
:1017FE00000000003E23030303231E000000000030
:10180E0000001F36363636361F000000000000007E
:10181E003F26161E16263F000000000000003F2641
:10182E00161E16061F000000000000003E230303D4
:10183E007B333E000000000000007736363E363621
:10184E0077000000000000003F0C0C0C0C0C3F0059
:10185E000000000000007C30303033331F000000E9
:10186E00000000007726160E1E366F0000000000E6
:10187E0000000F06060626263F00000000000000AE
:10188E00633636362A2A77000000000000007326E1
:10189E002E2A3A3227000000000000001E33333398
:1018AE0033331E000000000000001F3636361E06C1
:1018BE000F000000000000001E33333333331E3C94
:1018CE000000000000001F36361E16366F000000A6
:1018DE00000000003C26061C30321E0000000000F6
:1018EE0000003F2D2D0C0C0C1E000000000000000F
:1018FE007736363636361C0000000000000077368C
:10190E003636141C1C000000000000000000000011
:10191E00EF01C600D600D6005C006C006C00000023
:10192E00000000000000000077361C1C1C367700FB
:10193E00000000000000F7663C1818183C0000007C
:10194E00000000003E321A182C263E000000000057
:10195E0000003C0C0C0C0C0C0C3C000000000003B6
:10196E0007060E0C1C1838300000000000001E1870
:10197E0018181818181E0000000000000814220085
:10198E000000000000000000000000000000000049
:10199E00000000FF0000000408000000000000002E
:1019AE0000000000000000001E303E337E000000EC
:1019BE000000000007063E6666663F00000000005D
:1019CE00000000003E2303231E0000000000000064
:1019DE0038303E3333337E0000000000000000003C
:1019EE001E333F033E00000000000000380C3E0C8A
:1019FE000C0C3E0000000000000000007E3333336C
:101A0E003E301E000000000007061E3636367700F8
:101A1E000000000000000C000F0C0C0C3F0000003A
:101A2E00000000000C001F18181818180F000000F6
:101A3E0000000706361E1E3667000000000000007C
:101A4E000F0C0C0C0C0C3F000000000000000000FE
:101A5E000000000000007F00D600D600D600D7019F
:101A6E000000000000000000000000001F363636A7
:101A7E00770000000000000000001E3333331E000C
:101A8E0000000000000000003F6666663E061F0074
:101A9E000000000000007E3333333E307C00000037
:101AAE0000000000372E06061F0000000000000098
:101ABE0000003E231E311F0000000000000006063D
:101ACE001F0606261C00000000000000000037362E
:101ADE0036367C0000000000000000007736141C33
:101AEE001C000000000000000000000000000000CC
:101AFE00EF01D600D6006C006C0000000000000064
:101B0E0000000000000077361C3677000000000051
:101B1E0000000000EE6C2818180C1F0000000000DA
:101B2E0000003E1A0C263E000000000000001C0CB7
:101B3E000C0C060C0C1C0000000000000C0C0C0C15
:101B4E000C0C0C0C0000000000000E0C0C0C180C01
:101B5E000C0E00000000000000000026190000001E
:101B6E000000000000003F21212121213F00000044
:101B7E00001120600706050D0C090A090506060D61
:101B8E000D050605080907080808080808080804CE
:101B9E0009090A090B0B0B0A0A0A0A090B0B070B98
:101BAE000A0D0D0B09090A0A090A0B0F0F0B0B0878
:101BBE0006060D0D09070808070807070808050897
:101BCE00080B0C09080808060608080A0A08080C7B
:101BDE000D0C0C0C000000000000000000000000C6
:101BEE000000000000000000060E0E0C0C0C06009B
:101BFE000C0E000000000000001E1F0F0F00000062
:101C0E00000000000000008001E001FC019E01FFC9
:101C1E0007FE06FF07DF03FE01DE037C037E07DE01
:101C2E000EFC1B7000000000000000180030007C4D
:101C3E00007E007E001E001C00780078007B007E77
:101C4E00003E000C000C0000000000000000000030
:101C5E0000CE00DE007B007E003C00D800F801BC08
:101C6E0001EC01E60006000000000000000000008C
:101C7E0000000078006E006600CE0038001C00F6F2
:101C8E0001C700CE00780000000000000000000038
:101C9E000000000000060007000300030000000023
:101CAE000000000000000000000000000000000026
:101CBE0000000018180C0C0C0E0E0C0C0C18180052
:101CCE00000000000306060C0C1C0C0C0C06060390
:101CDE000000000000001E1C1F000000000000009D
:101CEE00000000008001EC01FE01FF03F601F60189
:101CFE00FE03FC03F807B807F806780E781FEC0110
:101D0E006000600000000000000000000000000005
:101D1E0000000000000000000000000006000600A9
:101D2E000600060000000000000000000000000099
:101D3E00001F000000000000000000000000000076
:101D4E0000000000060600000000000018181C0C21
:101D5E000C0C0606060303030000000000003C6E98
:101D6E0066E6E6E7E6E66C380000000000000000DC
:101D7E00000038003E003B00380038001800180004
:101D8E00180018007E000000000000000000000097
:101D9E00001E3B7360703038786C7F0000000000CE
:101DAE0000003E7663301C3863E3731E00000000B3
:101DBE00000060607070787C36FF3030F8000000F4
:101DCE00000000007E0606063E706066361E0000AD
:101DDE000000000060380C0C3E6EE6E7E66E3C003C
:101DEE00000000000000FE6363633030181C1C0E00
:101DFE00000000000000003C66666E3C76E6E7667A
:101E0E003C000000000000003C6666E7E67E7C7049
:101E1E0030180E000000000000000000060606004C
:101E2E000006060000000000000000000006060686
:101E3E000000060606060000000000001C007E00E2
:101E4E000E000E00FE00FF00CE00CC00C600C60045
:101E5E00FF010000000000000000C000F000FC00C8
:101E6E00FC01FC00FC00FC00FE00FF007E00700088
:101E7E007800FC00FC0130000000000000000000B3
:101E8E00DC00FE00EE00E600E600FF00C600C60025
:101E9E00C6006600FF010000000000000000000008
:101EAE00000000001C0036003300300038000C002B
:101EBE000C0000000C001C000000000000000000E0
:101ECE008001FC01FC017E03DE03EF03EE00FE0049
:101EDE00FF006C007C007807F001700060000000CD
:101EEE00000000000000000078007000700070001C
:101EFE00D800D800FC01CC01C601FF07000000008D
:101F0E00000000000000000000007F00EC00CC018B
:101F1E00EC003C00FC00CC018C01FC017F000000B9
:101F2E000000000000000000000000007000DC0057
:101F3E00CE0006000700060006000E00DC00700052
:101F4E0000000000000000000000000000003F0044
:101F5E00EC00CC018C018C038C038C03CC01FC00B7
:101F6E003F00000000000000000000000000000024
:101F7E00FF00DC008C01CC00FC00CC00CC008C01FE
:101F8E008C01FE01000000000000000000000000B7
:101F9E000000FF00CC00CC00CC007C006C006C007C
:101FAE000C000C003E0000000000000000000000CD
:101FBE0000000000F000DC00CE0006000700060066
:101FCE00F601CE007C007000000000000000000052
:101FDE00000000000000FE078C018C018C01EC015A
:101FEE00BC018C018C019C01FF030000000000006D
:101FFE0000000000000000003F001C000C000C0060
:10200E000C000C000C000C000C003E000000000048
:10201E00000000000000007E383838181818181F0D
:10202E001C00000000000000000000FF03DC007C2C
:10203E00003C003C003C006C00EC00CC01FE0700B4
:10204E00000000000000000000000000003F001C27
:10205E00000C000C000C000C000C00CC00CC00FEA0
:10206E000000000000000000000000000000007EE4
:10207E001F3C063C063C073C07BC0FEC0FEC0CCE9D
:10208E000CCE0E7B1B0000000000000000000000C4
:10209E0000FE07BC01BC01BC01FC01EC01EC01CC53
:1020AE00018C018E019B0100000000000000000069
:1020BE000000007800EC00C600C601C601C701C6CC
:1020CE0000CE006C00380000000000000000000090
:1020DE0000000000007E00EC018C01CC006C003C86
:1020EE00000C000C000C003F00000000000000007F
:1020FE00000000000000007C00EC00C600C601C617
:10210E0001C701DE00DE007C0038006000E0013017
:10211E000000000000000000007E00EC00CC01CCAE
:10212E0001EC007C006C00FC00DC00FF03000000F2
:10213E0000000000000000000000007C0066006649
:10214E00000E001C007800E000E30066003E000078
:10215E0000000000000000000000000000FF01BBB6
:10216E0001BB013800380038003000300018007C08
:10217E00000000000000000000000000000000FF52
:10218E00038C018C018C018C018C018C018C01DC87
:10219E0000F8000000000000000000000000000039
:1021AE0000FF079C019C01DC00D800D8007800706D
:1021BE000070003000000000000000000000000071
:1021CE00000000FF7F9C339C1BDC1BD81B780F7814
:1021DE000F780F30063006300600000000000000B9
:1021EE000000000000FF079C01F8007800700070EE
:1021FE0000D80098018C01DF0700000000000000ED
:10220E0000000000000000DF078C01DC00D8007821
:10221E00007000700070007000FC000000000000F4
:10222E00000000000000000000FE0063006300706C
:10223E0000300038001C00DC00CE00FF0000000063
:10224E00000000000000003E0E0E0E0E0E0E0E0ED2
:10225E000E0E3E00000000000607060E0C0C0C0CC5
:10226E001818181800000000000F0C0C0C0C0C0CA9
:10227E000C0C0C0C0F0000000000E001FE01CF1F43
:10228E00FE07DB03FE03FC01F601FC01F801FC0175
:10229E00B001F803780060000000000000000000AC
:1022AE000000000000000000000000000000000020
:1022BE000000000000000000FF0100000000000010
:1022CE00000006000C0018000000000000000000D6
:1022DE0000000000000000000000000000000000F0
:1022EE0000000000181C363C363E7F000000000047
:1022FE00000E0F0E0E3E7E6EEC6C6C3E000000006B
:10230E00000000000000183E060707363C000000E3
:10231E00000000707C7070783E363737367C0000D7
:10232E000000000000000000183E363F67361C001B
:10233E0000000000001C7E0E0E0E3F060606063F35
:10234E00000000000000000000703C363637361CDE
:10235E000C3E63673C00000E0F0E0E1E3E6E767630
:10236E0076FF000000000000000E06000C0F0E0E9F
:10237E000C061F000000000000000E06000C0F0EE1
:10238E000E0E06060707030000000E0F0E0E6E7EE1
:10239E006E3C3636FF0000000000000E0F0E0E0ED3
:1023AE000E0E0606061F00000000000000000000D2
:1023BE00000000000000BC01FF036E036E036C03FF
:1023CE006603FF0700000000000000000000000090
:1023DE0000000000000000003C003F006E006E0098
:1023EE006C006C00FF000000000000000000000008
:1023FE000000000000000000000018003E00760003
:10240E007700770036001C0000000000000000007E
:10241E000000000000001C7F6E6EEE6C3C0C060689
:10242E001E0000000000003CFE763737363C303090
:10243E0030780000000000003C3F3E3E0C061F00BE
:10244E000000000000000000001C1E071E383B1E8E
:10245E0000000000000000000C0C0E3F06060606F1
:10246E001C000000000000000000006C7F7E3E3E5D
:10247E0036FC00000000000000000000FF363E3C6D
:10248E001C1C0C00000000000000000000000000FA
:10249E00000000FF03F601FE01FC01FC00FC00CC75
:1024AE00000000000000000000000000000000001E
:1024BE0000000000007F003E003C0018003C003E83
:1024CE0000FF0000000000000000000000000000FF
:1024DE0000FF6E3E3C3C1C180C0C0F06000000006A
:1024EE0000003E331B180C3E3F000000000000F0C1
:1024FE0001FE019E01FF03FC07FE0EFF0CDC0CD853
:10250E000E78067C03DC01780070000000000000ED
:10251E0000C007FC033F0EBE0FBC0DBC077E07FEBE
:10252E0007FC06F800FC00FC0178037000000000B8
:10253E000000008003F003FE07BC07DE07FF01EE7C
:10254E0001FF00FC0FDC06FC06F8036000600000D3
:10255E00000000C000F000FE008F07FF037E03FFA7
:10256E0001FC01FB00FE007E037C03EC033800300F
:10257E0000000000000000000000007F0063006308
:10258E00006300630063006300630063007F00006C
:10259E000000000000000000AA55AA55AA55AA5531
:1025AE00FFFFFFFFFFFFFFFF280000390A00391E63
:1025BE0000282800171E00170A00280000003226E7
:1025CE00003826FF3E265B4326F64E26385426B0AC
:1025DE005926075E26C062266F6726F86E26C776D6
:1025EE00263F7B261B8526E08C26CF9126909726AC
:1025FE008E9E26ACA526AAAA2603AF2640B6264353
:10260E00BD265800000103070F1F3F7FFF0000008B
:10261E0000000000102A420C1E7B27221215E32513
:10262E0022121503426C61636B0057686974650072
:10263E0047726179004C696768742047726179004E
:10264E00477265656E004C696D6500426C7565007C
:10265E0052656400417175610059656C6C6F77004D
:10266E004D6167656E7461004379616E00446172FD
:10267E006B204379616E004F72616E676500506921
:10268E006E6B0042726F776E0056696F6C657400E8
:10269E0053696C76657200476F6C64004E61767993
:1026AE00004D61726F6F6E00507572706C65004FE9
:1026BE006C69766500496C6974656B20494C4939C3
:1026CE003332352047726170686963732044656DDB
:1026DE006F0A486572652061726520736F6D6520A3
:1026EE00666F6E742073616D706C65733A0053740F
:1026FE00616E646172642C2035783720706978655C
:10270E006C7300417269616C2C20313420706978D1
:10271E00656C73206865696768740A004172696147
:10272E006C20426F6C642C20313420706978656C9B
:10273E0073206865696768740A00436F757269650E
:10274E00722C203778313420706978656C730A00EA
:10275E00436F757269657220426F6C642C31342040
:10276E00706978656C73206865696768740A004CD7
:10277E00612042616D62612C313720706978656C21
:10278E0073206865696768740A000A566172696128
:10279E00626C6520746578742073706163696E670E
:1027AE003A0A00494C4939333235205446542043B5
:1027BE006F6E74726F6C6C65720A00494C493933D6
:1027CE0032352054465420436F6E74726F6C6C65B4
:1027DE0072004C696E65207374796C65733A0043B0
:1027EE006F6C6F75726564206C696E65733A004626
:1027FE00696C6C00496D6167652077617320736148
:10280E0076656420746F2052414D00436972636C8B
:10281E006573202620617263730052656374616E66
:10282E00676C657320262066696C6C656420626136
:10283E007200526F756E6465640072656374616ECA
:10284E00676C650050696500736C6963653A00508A
:10285E0075740A696D6167650A66726F6D0A524119
:10286E004D3A004E6F6E2D7472616E7370617265AB
:10287E006E74206D6F6465005472616E7370617258
:10288E00656E74206D6F6465004D657465722026EB
:10289E00204261722D67726170682067617567658D
:1028AE00733A00507265646566696E656420636F85
:1028BE006C6F72733A0001002D4E414E00494E4628
:1028CE00000001004430C4280000F894EE27E8BF51
:1028DE00E9BFEABFF091CC01F860F093CC01F8EDBE
:1028EE00F4BFE093A200E0934004A0918000AD7F7E
:1028FE00A160F4BFA093800080E090E2A0E0B0E27F
:10290E00ED930197E9F7E0EDF8E285919591009747
:10291E0061F0A591B59105901590BF01F00105905C
:10292E000D920197E1F7FB01F0CF8BBFE0E0E0B92C
:10293E00E1B9E2B9E3B9E4B9E5B9E6B9E7B9E8B99D
:10294E00E9B9EAB9EBB9ECB9EDB9EEB9EFB9EFEF18
:10295E00EDBFEFE3EEBFC0E0D4E20C94F5141A9392
:10296E000A930FB7F894E0915000E460E0935000A2
:10297E00E0915100E470E1F3E0915000E260E093E9
:10298E005000E0914100E0781E2FE8EDE4BF109377
:10299E004100E0915600EC7FE0935600E09160001C
:1029AE00E160E0936000E0915100E270E1F3E091AC
:1029BE004000E87FE1601E2FE8EDE4BF1093400079
:1029CE00E0915000E67EE0935000E091B400EC7F81
:1029DE00E093B4000FBF099119910895EA97BFDFF4
:1029EE00E4EFF1E0ECA3FDA3E0E0EEA3EFA3E8A794
:1029FE00E9A7EAA5E160EAA7E260EAA7E460EAA730
:102A0E00E77CE061EAA7EBA5E87FE260EBA7E77C55
:102A1E00E862EBA7ECA5E87FE260ECA7E778E0645C
:102A2E00ECA7EDA5E07EEC60EDA7EEA5E07CEE61F7
:102A3E00EEA7EFA5E07FEB60EFA7E067EFA7E8A9B1
:102A4E00E760E8ABE77CE062E8ABE9A9E87FE2602B
:102A5E00E9ABE77CE062E9ABEAA9E87FE260EAABCA
:102A6E00E77CE061EAABEBA9E87FE560EBABE778EA
:102A7E00E061EBABECA9E07EE360ECABE06EECABBF
:102A8E00EDA9E87FE560EDABE77CE062EDABEEA98A
:102A9E00E87FE260EEABE77CE062EEABEFA9E87FA9
:102AAE00E260EFABE77CE061EFABE8ADE87FE560BD
:102ABE00E8AFE778E061E8AFE9ADE07EE360E9AF6B
:102ACE00DE0194960E94551FE0910A24E160E09386
:102ADE000A24A3ECB6E20E94C423E8EF0E94512D13
:102AEE00E4E1F0E0FA93EA93ACEFB6E20E94BA2387
:102AFE00E8E9F4E00E94562DE0EC0E94512DEEE143
:102B0E00F0E0FA93EA93A1E1B7E20E94BA230E94A1
:102B1E005B2DE7ECE0930024AAE2B7E20E94C42307
:102B2E00ECE6F0E10E94562DE8E3E0930024A8E4E1
:102B3E00B7E20E945E2DE0EBE0930024AEE5B7E233
:102B4E000E94C423EEE7FBE10E94562DEFE6E093D0
:102B5E000024ADE7B7E20E94C4230E945B2DEFE391
:102B6E00E0930024A8E9B7E20E945E2DE8EFE0931F
:102B7E000024A1EBB7E20E94C423E2E00E94632D81
:102B8E00A1EBB7E20E94C423E3E00E94632DA9ECFF
:102B9E00B7E20E94C423E1E00E94632D0E945B2DE8
:102BAE00EFE30E94512DEEEBF0E0FA93EA93A0EEE4
:102BBE00B7E20E94BA23E0EE0E94512DE2EDF0E062
:102BCE000E94672DA2ED0E946C2D0E94732DE7EDE1
:102BDE00F0E00E94672DA7ED0E946C2D0E94792DCA
:102BEE00ECEDF0E00E94672DACED0E947F2DEFEF33
:102BFE00E0930C24E0E0EA93E1EEF0E00E94672D12
:102C0E00A1EE0E947F2D0E94732DE6EEF0E00E9451
:102C1E00672DA6EE0E947F2D0E94792DEBEEF0E03F
:102C2E000E94672DABEE0E94862DEFEFE0930C24F1
:102C3E00E0E0EA93E0EFF0E00E94672DA0EF0E9443
:102C4E00862D0E94732DE5EFF0E00E94672DA5EF13
:102C5E000E94862D0E94792DEAEFF0E00E94672DEA
:102C6E00AAEFB0E00E944624EFE30E94512DE4E06B
:102C7E00F1E0FA93EA93ADEEB7E20E948D2D11E0EA
:102C8E0020E030E0203FE0E03E0794F40E94962DD5
:102C9E0008F011E0E0E0EA93E3E1F1E0FA93EA9361
:102CAE002A93AFE3B1E00E9446242C5F3F4FEACF58
:102CBE0011E02FEE30E0332392F00E94962D08F0B3
:102CCE0011E0EFEEEA93EFE3F1E0FA93EA932A9341
:102CDE00A3E1B1E00E94462424503040ECCF0E9484
:102CEE00A32DE8EF0E94A92DE7E0EA93A6EBB5E24B
:102CFE000E943D260E94B22DEEE1EA93E1E1F0E062
:102D0E00FA93EA93ADEFB7E20E94BA23E0ECE093B8
:102D1E001624E0E3EA93E8E1F0E0FA93EA93A8EFF1
:102D2E000E94742AE6E10E94B52DE5E2EA93E9E2FB
:102D3E00F0E0FA93EA93A3E2B4E20E94F8230E9431
:102D4E00B22DE0E0EA93EFE2F0E0FA93EA93A2E02C
:102D5E00B8E20E94BA230E94BB2DA4E1B0E00E940B
:102D6E00B328E0ECE09300240E94BB2D0E94C22DFC
:102D7E00E8E7F0E00E94C72DE3E0E0930B24EFEFCD
:102D8E00E0930C24E0EB0E94CD2DA4E1B0E00E9474
:102D9E00B328E7EC0E94CD2D0E94C22DE2EDF0E0AB
:102DAE000E94C72DE8EF0E94512DEBE6F0E0FA935A
:102DBE00EA93A9E1B8E20E94BA23E0EC0E94A92DA1
:102DCE00E4E60E94D62DEFE6E0930024E3E0E093E4
:102DDE000B24E3E3E0930C24EEE80E94D62DE6EA02
:102DEE00F5E2FA93EA93A8E30E94FD29E2E7EA935B
:102DFE00E9E5F0E0FA93EA93EAEAEA93A8E6B0E0AE
:102E0E000E945E2AE8EFE0930024E4E6EA93EBE604
:102E1E00F0E0FA93EA93A8E2B8E20E94BA23E0EC5B
:102E2E00E0930024E5E0EA93EDE7F0E0FA93EA930D
:102E3E00EAE4EA93E6E2F0E0FA93EA93A8E0B0E07F
:102E4E000E94BC25E8EFE0930024E0E1EA93E8E875
:102E5E00F0E0FA93EA93A0E4B8E20E94BA23E0E12C
:102E6E00EA93E0E9F0E0FA93EA93A8E4B8E20E946C
:102E7E008D2DE8EFE0930024E4E6EA93E8E7F0E036
:102E8E00FA93EA93A2E5B8E20E94BA23E4E6EA9343
:102E9E00EFE7F0E0FA93EA93A6E5B8E20E94BA23D0
:102EAE00E7E0E0931624EAEAEA93EFE8F0E0FA931B
:102EBE00EA93EEE1F0E0FA93EA93ECE2F1E0FA93B2
:102ECE00EA93A4E1B0E00E947329E0E00E94E12DB4
:102EDE00ADE5B8E20E94BA23EEE20E94E12DE3E2F4
:102EEE00F4E2FA93EA93A0E00E94CF23E0E0EA93A3
:102EFE00E7EDF0E0FA93EA93A1E7B8E20E94BA2375
:102F0E00E0ECE0930224E6E90E94E12DE3E2F4E234
:102F1E00FA93EA93A5E00E94CF23E2E8EA93E7ED65
:102F2E00F0E0FA93EA93A6E8B8E20E94BA230E9470
:102F3E00E72D0E945B2DEFE3E0930024EEE1EA9390
:102F4E00E1EEF0E0FA93EA93A7E9B8E20E94BA2321
:102F5E00ECE3EF8BE1E3F1E0E88FF98FE2E3F0E0F1
:102F6E00EA8FFB8FE0E0EC8FED8FE4E6F0E0EE8F82
:102F7E00FF8FEBE0EAA3DE01579605D2E5E8E88382
:102F8E00E88DF98DF297E983FA83EAE5EB83E8E2BF
:102F9E00F0E0EC83FD83EC8DFD8DEE83FF83EE8DF3
:102FAE00FF8DE887F987EAA1EC87DE01A6D310E052
:102FBE001430D0F42C8D3D8DEE8DFF8DE217F3077E
:102FCE002CF00E94EE2D2B5F3F4FF6CF2E8D3F8DB6
:102FDE00EC8DFD8D2E173F072CF00E94EE2D255007
:102FEE003040F6CF1F5FE4CF0E94A32D0E945B2DD1
:102FFE00EFE3E0930024A1EBB8E20E94C4230E9409
:10300E00E72D0E94B22DEFEFE093002410E0173170
:10301E00C8F5A3E01A9FF001E453FA4D32960490DE
:10302E0000921624A12FBB27E2E0F0E00E947B3332
:10303E00A8E7B0E00E945B339F01A12FB0E00E9491
:10304E00FF2DA4E1B0E00E945B337496AF012A938A
:10305E00FA013696FA93EA93A3E01A9FF001E4532D
:10306E00FA4D0E94A6330E94BA23E22FEF5BEA9339
:10307E005A934A93EDE2EA93A3E1B0E00E940D2A3F
:10308E001F5FC5CFFFCFFFCFBA93AA9327971A938F
:10309E000A93EF85F889A381B481BF93AF930E9401
:1030AE000123F0E00E94042EA6E6B6E686EA9FE330
:1030BE000E944B32AF91BF910E94092E0E940E2E9C
:1030CE008F01E985FA85FA93EA93DE0114960E9440
:1030DE00C32CAF85B889EC91F0E0FF93EF93AB85ED
:1030EE00BC858D859E850E94FB2BD8010E94132ED8
:1030FE00AF91BF910E94172EEA93E889F989A181B9
:10310E00B281BF93AF93AC85BD858E859F850E949E
:10311E00712BD8010E94132EAF91BF910E941C2ECD
:10312E00FA93EA93DE0115960E94AB23198108816A
:10313E0061960895AA9364970E942B340E94242EC0
:10314E0017960E9497330E161F0624F0A98DBA8D7E
:10315E0017960BC00E94242E15960E949733E015E9
:10316E00F10554F0A98DBA8D15960E949733A98D4D
:10317E00BA8D1996ED93FC93E98DFA8D0184128424
:10318E000E942B2E0E94042EA0E0B0E08CED92E463
:10319E000E944B327F936F93FF93EF93E98DFA8DDD
:1031AE00078010840E942B2EAF91BF918F919F911B
:1031BE000E94042E0E949932A0E0B0E081E193E4D7
:1031CE000E94332EABEDBFE089E490E40E94382ECE
:1031DE00E0E0F0E064E373E40E9499320E943D2E39
:1031EE000E94422E0E94FB2BE88BF98B6A8B7B8B05
:1031FE000E94422E0E94712BEC87FD876E877F877F
:10320E000E94472EECE0F0E00E9460330E944C2EAC
:10321E00E887F9876A877B870E94472EE98DFA8DAA
:10322E00E485F0E0AE1BBF0BE2E0F0E00E94512E11
:10323E000E944C2EEC83FD836E837F830E94562E5C
:10324E00FF93EF93E889F9896A897B890E945B2E47
:10325E00AF91BF910E94172E0E2FE98DFA8DA1818D
:10326E00B281BF93AF93EC85FD856E857F850E94FD
:10327E005B2EAF91BF910E941C2E9F0110910024D6
:10328E00E88DE09300240E94562EFF93EF93E88979
:10329E00F9896A897B890E94622EAF91BF910E9443
:1032AE00172EEA93EA8DFB8DA181B281BF93AF9366
:1032BE00ED85FE856F857889A985BA858B859C8578
:1032CE000E944B32AF91BF910E941C2EFA93EA934B
:1032DE000A93D9010E944624E98DFA8DE485F0E027
:1032EE000E94042EA0E0B0E080E090E40E944B32F9
:1032FE00E887F9876A877B870E94422EEBEDFFE015
:10330E0069E47FE30E94DE3209F008F40CC00E94EB
:10331E00422EE4EEFBEC66E170E40E94DE3211F028
:10332E0008F001C001C007C00E94422EEFEDFDEE75
:10333E006FE270EC06C00E94422EE6EDF1E362E60B
:10334E0070E40E94F4310E943D2E0E94692E0E946C
:10335E006D2EEC89FD896E897F89ABEDBFE089E426
:10336E009FE30E94F4310E943D2E0A93D9010E94E0
:10337E003A240E94692E0E946D2E109300240E9402
:10338E0032346B960895BA93AA9360970E942934AB
:10339E00EE89FF89E385F0E031970E94042EABE0C1
:1033AE00BEEB85EF9FE30E949932EE83FF83688721
:1033BE007987E8EFE0930024E2E0E0930B240E948B
:1033CE00822EE3E2F0E0FA93EA93E1E9F0E0FA9379
:1033DE00EA93ED8DFE8DA381B4810E94F028E0E783
:1033EE00F7EF61E270E4EA8BFB8B6C8B7D8BEE89E1
:1033FE00FF89A381B481EAE0F0E00E946033AE89D8
:10340E00BF891C96EC93EE89FF89A381B481119735
:10341E00AD01E485F0E0DF01FA01EA1BFB0B9F0131
:10342E00E1E0E0930B2410E0EE89FF89E3851E179F
:10343E0008F06DC0AA89BB898C899D890E94FB2BDF
:10344E00EE87FF87688B798BAA89BB898C899D89CA
:10345E000E94712BEA87FB876C877D87AE89BF89B7
:10346E00EC91F0E0FF93EF93EE85FF856889798903
:10347E00D9010E94132EAF91BF910E94172EEA938D
:10348E00EF89F88DA181B281BF93AF93EB85FC8557
:10349E006D857E85D9010E94132EAF91BF910E943A
:1034AE001C2EFA93EA930E94562EFF93EF93E9890E
:1034BE00FA896B897C89DA010E94132EAF91BF9134
:1034CE000E94172EEA93EA8DFB8DA181B281BF93E4
:1034DE00AF93EE85FF8568897989DA010E94132EF4
:1034EE00AF91BF910E941C2EDF010E944624AE8137
:1034FE00BF8188859985EA89FB896C897D890E94BF
:10350E00F431EA8BFB8B6C8B7D8B1F5F8DCF0E9412
:10351E00B22DE8E3E09300240E948D2EE0E7F7EF52
:10352E0061E270E40E94922EA581B681ADDD0E940B
:10353E008D2E0E94972E0E94922E07801084AC8DA5
:10354E00BD8D15960E949C2EDF019EDD0E948D2E54
:10355E00EAEAF1E66CE17FE30E94922EA781B08544
:10356E0093DDE8EFE09316240E94822E0E94472EF0
:10357E00ECE0F0E00E946033DF010E940E2BAE897A
:10358E00BF8915960E949733AE89BF891996ED9320
:10359E00FC930E948D2EA0ECCDDD0E9430346896F7
:1035AE000895BA93AA93EA81FB81A185B285E88139
:1035BE00F981EA17FB0781F00E94A22EA091012447
:1035CE00B9DDE881F981AA81BB811996ED93FC934F
:1035DE000E94A22EA0ECAEDD0C943C1FBA93AA93CF
:1035EE0027970E94A72EDE0112960E94C32CAA8551
:1035FE00BB85EC91A985EA0FEF93DE010E940F23A4
:10360E00F0E0DF010E94FF2DAF91AE1BAA93EB8578
:10361E00FC85A181B281BA93AA93DE0113960E9412
:10362E00AB232C960895BA93AA932797E0E2E883EA
:10363E00E983EA83EB83EC83ED83E0E0EE830E9483
:10364E002B3430910024EFEFE0930024EB85FC85C2
:10365E0006841784AB85BC8550960E949733E00D87
:10366E00F11D32968F01E0910A24EE7FE0930A2439
:10367E00AB85BC85EC91EF93EB85FC85E381F0E0A7
:10368E00FF93EF93DE0114960E940F23F0E0AF91AB
:10369E00BF91AE1BBF0B0E94FF2DAF910E94AC2EAF
:1036AE00E0910A24E160E0930A24EB85FC85A28573
:1036BE00B385BA93AA93DE0116960E94C32CAB85EE
:1036CE00BC85EC91EF93EB85FC85E381F0E0FF93F5
:1036DE00EF93DE0114960E940F23F0E0AF91BF919D
:1036EE00AE1BBF0B0E94FF2DAF910E94AC2E3093EC
:1036FE0000240E9432342D9608950E94B42E0E940A
:10370E00B22DE8EFE0930024EE81FF81A481B58114
:10371E00EAE0F0E00E946033AE81BF811D96EC932B
:10372E00EE81FF81A181B281E585F0E0EA0FFB1FFA
:10373E00FF93EF930E940123F0E0AF91BF91EA0F48
:10374E00FB1FAF01AE81BF81EC91EA935A934A936E
:10375E00A985BA85AC91E985FA85E381EA0FEA93EA
:10376E00DA010E944624AE81BF813C91EE81FF8139
:10377E00E381F0E0DF01EE81FF81E485F0E0319737
:10378E000E9473332E2F00E010E0EE81FF81E4855E
:10379E00D801F0E0AE17BF079CF43A93DA010E940D
:1037AE003A240E94C22DE885F985E585F0E00E9455
:1037BE00FE32DF010E942C25320F0F5F1F4FE5CF27
:1037CE00E8E3E09300240E94B92EE0E0EA93E98555
:1037DE00FA85A681B78102DF0E94B92EE885F985A8
:1037EE00E381F0E0DF010E94FF2DEA93E985FA857F
:1037FE0000841184A985BA8516960E949C2EDF013D
:10380E00EDDE0E94B92EE885F985A381AA93E9859C
:10381E00FA85A085B185E2DEEE81FF81A481B581B6
:10382E00E585F0E00E94512EFF93EF930E94012355
:10383E00A2E0EA9FF001AF91BF91AE1BBF0BE5E096
:10384E00F0E00E94512EAE81BF815096ED93FC9315
:10385E00FA013396AE81BF811E96ED93FC93EE81F5
:10386E00FF81E381FF27662777270E94C1317F936F
:10387E006F93FF93EF93EE81FF8100841184A681F5
:10388E00B781F001EA1BFB0BAF91BF918F919F9116
:10389E000E94042E0E949932AE81BF8153960E94DF
:1038AE00A133AE81BF8116960E949733AE81BF8140
:1038BE001A96ED93FC93AE81BF815296E0E0EC93A5
:1038CE000E94303472C00E94BD331A930E94BE2EE5
:1038DE000E945F2B0E9488311E2FE12FF0E00E9484
:1038EE00BE2E0E94042E0E94332E0E94C32E08F07C
:1038FE001F5FE12F1881259608950E94CC2E0E94FD
:10390E00D12E09F450C0EE81FF810289AE81BF81B4
:10391E0016960E949733AC81BD81AE1BBF0B0D0175
:10392E00AE81BF8153960E949B33D0010E942833F3
:10393E000E94C4330E94382EC6DF3E2F10911624EB
:10394E000E94D12E64F4E0ECE0931624AE81BF8188
:10395E00EC91E00F0E94DB2EE32FE01B0CC0E091F8
:10396E000124E0931624AE81BF81EC91E30F0E94F7
:10397E00DB2EE02FE31BEA93EA85FB85A089B18954
:10398E000E940D2A10931624EC81FD81AE81BF8119
:10399E001A96ED93FC93E32FAE81BF815296EC9372
:1039AE00AE81BF8140DE0E94323428960895BA93CC
:1039BE00AA93E881E695E695E77069816770660FD0
:1039CE00660F660FE62B6981607CE62B22960895C2
:1039DE00AA93E881E770EE0FEE0FF881F873F69573
:1039EE00F695F6956881607CF62B0C94D21EFF92AC
:1039FE00AA9322970E942934E885E03011F0E53031
:103A0E0069F4AB85A33031F4A0911F24B09120242A
:103A1E00109709F002C00C946E1E1DC0E13011F01B
:103A2E00E23009F402C0E33009F402C0E43011F4CC
:103A3E000C946E1EE63079F4EB85E13011F40C94A3
:103A4E006E1EE33041F4E0912124F0912224309750
:103A5E0011F40C946E1EA989A03F68F4AF85B88945
:103A6E00A034E1E0BE0738F4AE85A03021F0AC857D
:103A7E00BD85109711F40C946E1EA989BB27EE8597
:103A8E00F0E0AE0FBF1FA13FE0E0BE0720F0A98916
:103A9E00E0EFEA1BEE87EC85FD85AF85B889AE0FAA
:103AAE00BF1FA134E1E0BE0740F0AF85B889E0E466
:103ABE00F1E0EA1BFB0BEC87FD87E989EA93E889C5
:103ACE00F989FA93EA93E989AC89AE0FA150AA93CA
:103ADE00E889F989AB89BC89AE0FBF1F11970E9487
:103AEE00011FE989EA93A889B9890E94E32EA88566
:103AFE00A63091F50E94A61EEB85E330C9F40E9414
:103B0E00E92EA9F03E85E32F3150E03079F00E9486
:103B1E00F02EE985FA853196E987FA870E94FA2E0A
:103B2E00E0912124F09122240995EDCFE8CF12C027
:103B3E000E94E92E79F03E85E32F3150E03049F0B6
:103B4E000E94F02E0E94022F0E94FA2E0E94322D09
:103B5E00F3CFEECF0C946A1EA885A73031F40091F6
:103B6E000024E0910A24E0FB07C0A885A83009F0E4
:103B7E004CC000911624E894F0F8A02F29DF8F0195
:103B8E00EE850E940A2FEE85E770EE87E03009F091
:103B9E004F5FF0FE03C00E94A61E04C00E940F2FAE
:103BAE00EE83FF830E94E92E71F120E0241750F579
:103BBE000E94022F0E94132F3E2F58E02F5F4217B4
:103BCE0021F4EE85E03009F05E85F0FE0EC030FF88
:103BDE0004C00E94731ED80102C00E941A2F0E94B8
:103BEE007F1E3695515099F70CC030FF02C0F80178
:103BFE0002C0EE81FF81DF010E947F1E369551507B
:103C0E00A1F7D4CFCFCF0C946A1EAE85BB278827E1
:103C1E009927EC85FD850E94252F9F01462FE8856B
:103C2E00E030B9F4AB85A33049F40E942A2F0E94EC
:103C3E00362F215030404040C1F70AC00E94022F5B
:103C4E000E94132F0E94362F215030404040B1F772
:103C5E003AC0E53061F573D0AB85A33099F40E947C
:103C6E002A2F0E2FAE2FE0910224EA1719F00E9490
:103C7E003C2F02C00E941A2F3BD0215030404040B2
:103C8E0071F714C00E94022F0E94132F0E2FAE2F19
:103C9E00E0910224EA1719F00E943C2F02C00E9404
:103CAE001A2F26D021503040404061F70CC0E93029
:103CBE0019F40091012404C0EA3029F40091002483
:103CCE00A02F0E94432F0E94482F0E944D2F0E942A
:103CDE0030346296FF900895EFEFE093800603C0B4
:103CEE00E0E0E0938006E09340060895000008951A
:103CFE00BA93AA93E1E0E0936606E8E0E0936606E5
:103D0E00E981E0934406E881E0938406EFDFE8E082
:103D1E00E093650600000000E1E0E09365060C9478
:103D2E00FF221A930A930E94512F10914806009178
:103D3E0088060E94592FF801099119910895D0DF34
:103D4E000E94512F0E94592F0895AA93E2E0E0930A
:103D5E006606C2DFA881BB27CBDF1DC0BA93AA932C
:103D6E00E2E0E0936506B8DFA881B981C1DF0C946B
:103D7E00FF22BA93AA93AA81E8DFA881B981EEDF68
:103D8E008BC0E2E0E0936506ABDFCBDF0895AA932C
:103D9E00A881DBDFF6DF21960895BA93AA931A93D2
:103DAE000A930A811B811093440600938406E1E076
:103DBE00E0936606E8E0E093660698DFE8E0E093BD
:103DCE006506215030404040A9F7E1E0E0936506DA
:103DDE00198108814AC0BA93AA93E0E2EA93AB81B3
:103DEE00BB27C7DFE1E2EA93A981BA81C2DFA2E273
:103DFE00ACDF52C0BA93AA93E0E5EA93AE81BB273B
:103E0E00B8DFE1E5EA93AB81BB27B3DFE2E5EA93E6
:103E1E00AC81BD81AEDFE3E5EA93A981BA81A9DF6A
:103E2E00269608950E94602F0E94E32E2F933F93B3
:103E3E004F9320E03CE241E00E940F2FDF01ADDF07
:103E4E004F913F912F910E94602FC5DF0E94602FEE
:103E5E000AD50895AA93EB81EA93AA81BB81BBDFB1
:103E6E00A8810E94EF1CDF0179DF24960895BA9392
:103E7E00AA93AA81A03F18F40E94652F10F0E0E0EB
:103E8E000BC0EA81EA93A981BA810E94E32E57DF23
:103E9E0048DFDF010E94DE1C23960895BA93AA9391
:103EAE006697E1E0E0936106E0936506E4E0E09357
:103EBE006106E0936506E8E0E0936106E09365062F
:103ECE00E2E0E0936106E0E1E0936106E0936606CE
:103EDE00A5E0B0E00E944B31E0E1E0936506A0E082
:103EEE0056DFE532A3E9FA0711F0E0E07EC1EE8974
:103EFE00FF89309729F0DE0186E10E94073406C063
:103F0E00ECE1F6E2DE0186E10E941134E0E0EA9394
:103F1E00A1E0B0E02EDFA8ECB0E00E944B31E1E072
:103F2E00EA93EF81E170FE2FE0E03096DF0121DFB2
:103F3E00E2E0EA93A0E0B7E01CDFEE81E695E695BD
:103F4E00E170F070E295E07FFE2FE0E03096E093B6
:103F5E003F30F09340300E946B2F0E94722FE4E0AE
:103F6E000E94762FE8E0EA93A7E0B2E00E94C01E1E
:103F7E00E9E00E94762FEAE00E94762FECE00E94A4
:103F8E00762FEDE00E94762FEFE00E94762FE0E193
:103F9E000E94762FE1E1EA93A7E0B0E00E94C01EF6
:103FAE00E2E10E94762F0E947B2FAAEFB0E00E94E2
:103FBE004B31EE810E94852FEA0FFB1FE0934130BB
:103FCE00F0934230E0E1EA93E0914130F0914230DB
:103FDE00E068F061DF010E94C01EE1E1EA93E8852E
:103FEE000E94852FAE0FBF1F17960E94932FE88554
:103FFE00E695E695E695EF70E0934330E2E1EA93BD
:10400E00E0914330E069F0E0DF010E94932F0E94BF
:10401E007B2FE9E2EA93EB85EF73F0E0DF010E947C
:10402E00C01EEBE2EA93EC85EF70F0E0DF010E9438
:10403E00932F0E94482F0E944D2FE0E6EA93EF81C6
:10404E00E695E170F070DF01EFE00E940A33E05078
:10405E00F94DDF010E94C01EE1E6EA93A1E0B0E057
:10406E000E94C01EEAE60E94762FE0E80E94762F9C
:10407E00E1E80E94762FE2E80E94762FE3E80E94A4
:10408E00762FE4E80E94762FE5E80E94762FE0E98D
:10409E00EA93A0E1B0E00E94C01EE2E9EA93A0E03C
:1040AE00B6E00E94C01EE5E9EA93A0E1B1E00E94ED
:1040BE00C01EE7E0EA93A3E3B1E00E94C01EE0E376
:1040CE00EA93ED850E94992FDF01EC85E2950E941F
:1040DE009E2FE1E3EA93ED850E94A42FEE850E94C8
:1040EE00992F0E94AB2FE2E3EA93EE850E94A42F54
:1040FE00EF850E94992F0E94AB2FE5E3EA93EF859F
:10410E000E94A42FE8890E94992F0E94AB2FECE306
:10411E00EA93E8890E94AF2FE9890E94B62FE6E361
:10412E00EA93EA890E94992FDF01E989E295EF70FF
:10413E00E6950E949E2FE7E3EA93EA890E94A42F58
:10414E00EB890E94992F0E94AB2FE8E3EA93EB894B
:10415E000E94A42FEC890E94992F0E94AB2FE9E3B5
:10416E00EA93EC890E94A42FED890E94992F0E9458
:10417E00AB2FEDE3EA93ED890E94AF2FEE890E94FB
:10418E00B62FEFEFE0930024E0E0E0930124E093FC
:10419E000224E881F9810E94562DEA81FB81E09389
:1041AE001F24F0932024EC81FD81E0932124F093D1
:1041BE002224E1E0E0930824E0930924E0910A240C
:1041CE00EE7FE0930A24E1E0E0930B24EFEFE0931F
:1041DE000C24E09316240E94BB2FEFEFEA93A8E085
:1041EE00B0E00E94032D1EDEE1E068960895FF9276
:1041FE00AA930E942934FF24A985BB2725D1E987DC
:10420E00AE81BB2721D1EE83AF81B8852FD1EF834D
:10421E00F887E0910B24AF81B885F0E0AE0FBF1F99
:10422E00119724D1AF01EE81EA93A885B9851BD3EE
:10423E00EE81A985EA1798F46894F0F8AE81E985C5
:10424E00EA1B2E2F0E946B2FDF010E94C01EEE81F3
:10425E000E94C02FEC850E94C62FDA010CC0A985E2
:10426E00EE81EA1B2E2FE9850E94C02FE9850E9460
:10427E00C62FA885B985AFDD2F5FAF81B885FA014E
:10428E00EA1BFB0B3196AF010E94CD2F71F4A22FCA
:10429E00BB2788279927FA010E94252F9F01462FB9
:1042AE00A09100240E94432F1FC024970E940F2F1D
:1042BE000E94D42F00E0322FA02F0F5FA77011F4B1
:1042CE0010910C2410FF03C0E881F98102C0EA812D
:1042DE00FB81DF010E947F1E1695315069F7FA01AE
:1042EE003197AF0139F72496F0FE04C00E946B2F70
:1042FE000E94722F0E94482F0E944D2F0E94303430
:10430E002A96FF900895BA93AA9322970E94293471
:10431E00AC85BB2799D0EC87AC85BB27E0910B24ED
:10432E00F0E0AE0FBF1F11978FD03E2FAA85BB8531
:10433E009DD0EA87FB87A885B98598D0E887F9874D
:10434E00EC85EA93A985BA858ED2E885F985AA858A
:10435E00BB85EA17FB07B8F4A885B985EA85FB8506
:10436E000E94DD2FE862DF010E94C01EEC85EA93F9
:10437E00E985FA85FA93EA933A93AE85BF850E9452
:10438E00011F3A9315C0AA85BB85E885F9850E9461
:10439E00DD2FE863DF010E94C01EEC85EA930E94C8
:1043AE00E22F3A93AC85BD850E94011FEC85EA93FE
:1043BE00AB85BC850E94F21EAC85E32FEA1BEF5F36
:1043CE003E2FEE81FF813196EE83FF830E94CD2F2B
:1043DE0079F4A32FBB2788279927EE81FF810E94AE
:1043EE00252F9F01462FA09100240E94432F20C00D
:1043FE0024970E940F2F0E94D42F00E04A855B85E0
:10440E00A02F0F5FA77011F410910C2410FF03C0A2
:10441E00E881F98102C0EA81FB81DF010E947F1EE3
:10442E001695FA013197AF0159F7315031F72496AD
:10443E000E946B2F0E94722F0E94482F0E944D2FB8
:10444E000E9430342D9608950E94E72F1CF0E0E074
:10445E00F0E0CEC0A881B981A03FE0E0BE071CF01D
:10446E00EFEEF0E0C5C0E881F981C2C00E94E72FEF
:10447E001CF0E0E0F0E0BCC00E94652F1CF0EFE302
:10448E00F1E0B6C0E881F981B3C0BA93AA93EA818C
:10449E00EA93E981FA81FA93EA93A0910024DADC97
:1044AE0004C4AA93E981E0930824E881E0930924E7
:1044BE009FC0BA93AA93AA81A03F18F40E94652FB9
:1044CE0028F0E0E0F0E060E070E0EFC3AA81BB27E7
:1044DE0088279927E881F9810E94252FEC5FFF4FED
:1044EE006F4F7F4FE2C3BA93AA9323970E94EE2F8A
:1044FE008F01002E012A19F4E0E0F0E060C00E9466
:10450E00F52F0F820E94F52F0E820E94F52F08863E
:10451E00EB85A885EA1718F4E0E0F0E050C0F8014A
:10452E000F5F1F4F5491E52FA885AE0FEB85EA174D
:10453E0018F0E0E0F0E043C0EF81E030D1F0A98563
:10454E00BA85EC930E940A2FEF81E77009F04F5F56
:10455E00A885EB85EA1BF0E0DF01EE81F0E00E941A
:10456E003333DF01E42FF0E00E943333E00FF11F0D
:10457E0026C09801E52FF0E00E0F1F1FA885AF5F34
:10458E00A887A150EB85AE17A0F4F901E4910E9423
:10459E000A2FF9012F5F3F4FE491E77009F04F5F4B
:1045AE00AE81BB27E42FF0E00E9433330E0F1F1FA6
:1045BE00E5CFF901E491A985BA85EC93F8010E9443
:1045CE0030342C960895AA932197E0910624F09109
:1045DE000724309761F0E981EA93DE01119683DFBB
:1045EE00309729F0E0910824A881EA0F01C0E0E09D
:1045FE00229608950E94FA2F309711F4E0E0089564
:10460E000E94FA2F3196A491E0910924EA0F0895A1
:10461E00BA93AA931A930A9300E0AA81BB81ED91F3
:10462E00AA83BB831E2FE03021F0A12FCCDF0E0F0B
:10463E00F4CFE02F1981088116C2E0E0E093032445
:10464E000E94FF2F3196E491F0E0AE0FBF1FE09174
:10465E000924F0E0AE0FBF1F0E9404300895AA9304
:10466E0021970E94EE2F309709F469C0AF81AA30CE
:10467E0009F461C0EF81EA93DE01179634DFAF01D2
:10468E00309719F40E943034D2C0E0910824AE81E4
:10469E00EA0F3E2FA0910324BB27E32FF0E0EA0F91
:1046AE00FB1F8F01013FE0E01E0718F0032F1127BB
:1046BE00C4DF0E940B30E985EA930E94FA2F3196EF
:1046CE00E491F0E0FA93EA93E1E0EA935A934A9385
:1046DE00A7E00E94FE1CE0910A24E17039F5E091FA
:1046EE000324AE810E941530FA93EA93E0910824D8
:1046FE00EA930E94FA2F3196E4910E941C30A9E0B1
:10470E000E94FE1CE0910324EA930E94FF2F319633
:10471E00E491F0E0EA0FFB1FFA93EA933A93E091EB
:10472E0009240E941C30A9E00E94FE1CE0EFF0E07C
:10473E00E017F10721F481DF0E94303478C0009336
:10474E0003240E94303473C00E942130A981BA81A3
:10475E00ED91A983BA831E2FE03019F0A12F7FDFD0
:10476E00F5CF1881C2C20E9421300E942A3019F062
:10477E00A12F75DFFACF1881B8C2BA93AA931A93F4
:10478E000E942A3019F0A12F6ADFFACF18818DC24C
:10479E00AA932497AC81A03011F0A530E9F40E94C1
:1047AE003430EA830E943430EB830E943430E88345
:1047BE000E943430E983E9850E94C02F0E943A306E
:1047CE00E0E00E944130AD850E94FE1CEA81EA9332
:1047DE00A981BA816EDEC7C1E0E0F0E060E070E072
:1047EE00C2C1BA93AA93EC81A881B981F0E0ED938E
:1047FE00FC93EA81FB81A881B9811296ED93FC931B
:10480E00EF81EA930E94B92EEF81EA930E94B92EAE
:10481E00E0E0EA93EF81F8853496FA93EA93A6E006
:10482E000E94FE1CEC81EA93AB81BC8142DE28968D
:10483E000895AA93EB81EA930E94A22EE0910C2494
:10484E00AB81EA2319F0E091002402C0E09101242B
:10485E00AE2F00DBE881EE0FE883E03011F4E1E0EB
:10486E00E883E88100C1BA93AA93AA81BB27ECDD45
:10487E00E0930324A881B9810E94043016C2BA9332
:10488E00AA932D970E942934A88DBB27DDDDE88FD2
:10489E00AD89BB27D9DDED8BAE89BF89E7DDEE8B08
:1048AE00FF8BAB89BC89E2DDEB8BFC8BED89E09352
:1048BE000324EB89FC89E0930424F0930524E1E0C2
:1048CE00E887EB89FC89AE89BF89EA17FB07A1F45B
:1048DE00188DAD891A1741F41A93EF89F88DFA9352
:1048EE00EA93A1E0A6DFA3C01A93EF89F88DFA939D
:1048FE00EA93A88D7CDC9BC0ED89A88DEA1751F454
:10490E002E893F89E88DEA933A932A93AE89BF891F
:10491E00FADC8DC0E0E0EE83AE81AF5FAE83A150D6
:10492E00E0910B24AE1708F082C0188D2E893F89B6
:10493E00E1E0F0E0AF010E2FAD89BB27E88DF0E08E
:10494E00AE1BBF0BA98BBA8BAA89AA233AF40FEF21
:10495E00E989FA890E94FE32E98BFA8BE989FA8994
:10496E00EE0FFF1FEF87F88BAE89BF89EB89FC89AD
:10497E00EA1BFB0BED87FE87AE85AA2332F44FEFC1
:10498E005FEF0E94FE32ED87FE87ED85FE85EE0F0E
:10499E00FF1FEB87FC871A933A932A93A1E049DF16
:1049AE00E887E0E0E987EA87E989FA89AD85BE857F
:1049BE00EA17FB07C4F0100FEB85FC850E94473009
:1049CE00E989FA89A985BA85EA17FB0734F4240F19
:1049DE00351FAF85B8890E944E300E945530ED8943
:1049EE00E11749F719C0240F351FEF85F8890E948A
:1049FE004730ED85FE85A985BA85EA17FB072CF4AD
:104A0E00100FAB85BC850E944E300E945530EB894D
:104A1E00FC89E217F30739F7EE89FF893196EE8BA1
:104A2E00FF8BEB89FC893196EB8BFC8B75CF0E944B
:104A3E00303469960895BA93AA930E940B30ED8193
:104A4E00EA93AC81BD811BDF30C1BA93AA930E9459
:104A5E000B30E0910324AD810E941530AC81BD81F5
:104A6E00AE0FBF1F0CDF24960895BA93AA93229718
:104A7E000E942934E885F98515810281A885B985BA
:104A8E0013962D913C91A885B9854D915C91011796
:104A9E0030F4E02FF0E0EE83FF83012F1E814217EA
:104AAE00530728F44E835F83A9012E813F81E12FA6
:104ABE00A885B9851596EC93F901A885B985139645
:104ACE00ED93FC93E02FA885B9851296EC93A885FB
:104ADE00B9854D935C930E94303445C0BA93AA9326
:104AEE000E943A30ED81A885EA0FEA93EC81FD81B0
:104AFE00AF81B885AE0FBF1F01D0F7C00E94CC2E7C
:104B0E00E0910B24E1500E2FDE011496AEDFEE8104
:104B1E00E01B1E2FE02FAC81BD81F0E0AE1BBF0B62
:104B2E009D01E9850E94C02FA12F61DB1A93E885B4
:104B3E00F985FA93EA93D901E6DBEE81EA933A938B
:104B4E002A93E02FAC85AE0F52DBE985EA93ED8117
:104B5E00FE81FA93EA93AA85BB85EE27A00FBE1FAE
:104B6E00D2DB0E9432342A960895BA93AA932597DF
:104B7E000E942934EF85E03021F0ED85FE853097D7
:104B8E0009F46BC0EB85AA89EA0F1E2FEB85FC8515
:104B9E00A889B989EA0FFB1FAF01E0910B24E15000
:104BAE002E2FEF85AA89AE0FA1503A2FAB85E32F9A
:104BBE00EA1B0E2F321BED85FE85A889B989AE0F33
:104BCE00BF1F1197AF83B887AB85BC85EF81F88582
:104BDE00EA1BFB0BE987FA87E22FAF81B885F0E07D
:104BEE00AE1BBF0BAF83B887E0910C24EE83EFEFC3
:104BFE00E0930C241A93E989FA89FA93EA93A02F89
:104C0E00A150F5DA0A930E945D30A1E843D23A939F
:104C1E005A934A93AC85BD85119775DB0A930E9412
:104C2E006430A8E837D20A93E885F985FA93EA93B7
:104C3E00A12FDDDA1A930E946430A4E82BD2EA8900
:104C4E000E946D30DA015FDB1A930E945D30A2E89C
:104C5E0021D2EE81E0930C2405C0EA89EA93A9895A
:104C6E00BA8913DC0E94303463960895BA93AA93DE
:104C7E00EA81E030D1F0E881F9813097B1F00E94FD
:104C8E00733031960E94A633EEDDEA81E150EA835D
:104C9E00EF5F59F00E9473303396E983FA833397AE
:104CAE0031960E94A633C7DEF0CF239608950E9458
:104CBE00BD331A930A93AA81BB818C819D810E9478
:104CCE005F2B0E948A318F01F801AA81BB818C81F2
:104CDE009D810E94042E0E94332E0E94C32E10F03E
:104CEE000F5F1F4FF8011981088126960895BA9318
:104CFE00AA932497EA85FB850E944C2EA5E3BAEF72
:104D0E008EE89CE30E944B320E947A30EE85F0E0F2
:104D1E00FF93EF930E947D300E94FB2BA885B985EF
:104D2E000E94132EDF01CB01C2DFAF91BF91AE0FF8
:104D3E00BF1F8ADBAE81BF81EC930E947D300E9443
:104D4E00712BA885B9850E94132EDF01CB01AFDF31
:104D5E00AC85BD85AE1BBF0B89DBAC81BD81ED93F0
:104D6E00FC93B8C2BA93AA9323970E942934ED8577
:104D7E00E887E0910B24EF83E0910024EE83EC8929
:104D8E00F0E0AF85B889EA0FFB1F8F01E989AA8988
:104D9E00BB89F0E0AE1BBF0B9D01E989AA89BB89D7
:104DAE00F0E00E94803071F0E885E078F1F4AD8596
:104DBE00BE85EAE5F0E00E9487301CF00E9490303C
:104DCE000CF413C0332312F00E949530AF81A23041
:104DDE0020F02230E0E03E070CF407C00E9499302C
:104DEE0021F40A93D901119750DBE885E878E83869
:104DFE0091F0E885E078C9F4AD85BE85A25FBE4F1F
:104E0E000E94A2303CF0AD85BE85A25FBE4F0E94CF
:104E1E00A7300CF40AC00E94AC3038F00E94B330B8
:104E2E0021F40A93DA01119630DBAC89BB27EF85AA
:104E3E00F889AE1BBF0B8D0111230AF445C0E8851E
:104E4E00E278E23891F0E885E07811F5AD85BE851F
:104E5E00A65ABF4F0E94A2303CF0AD85BE85A65A21
:104E6E00BF4F0E94A7300CF413C0332312F00E94E0
:104E7E009530AF81A23020F02230E0E03E070CF4F6
:104E8E0007C00E94993021F40A93D9011197FDDAD7
:104E9E00E885E478E43871F0E885E078A9F4AD852A
:104EAE00BE85EEE0F1E00E9487301CF00E9490304B
:104EBE000CF40AC00E94AC3038F00E94B33021F4DA
:104ECE000A93DA011196E1DAAC89BB27E989F0E0A1
:104EDE00EA0FFB1F8F01AF85B889EA89FB89EA1BB0
:104EEE00FB0B9F01EF85F889AA89BB890E94803050
:104EFE0081F0E885E078F1F4EB85FC85AD85BE8523
:104F0E00AE17BF072CF0E985FA85EA17FB070CF4FC
:104F1E0011C033237AF00E949530AF81A23050F049
:104F2E00E02FEE5F0E94BC3029F4E02FEF5FEA9392
:104F3E00D901ABDAE885E878E83871F0E885E078F1
:104F4E00C1F4AD85BE85E8E6F1E00E9487301CF025
:104F5E000E9490300CF40DC00E94AC3050F0E02F47
:104F6E00EE5F0E94C43029F4E02FEF5FEA93DA017E
:104F7E008CDAAC89BB27E989F0E0AE1BBF0B8D0143
:104F8E0011230AF450C0E885E278E23871F0E88522
:104F9E00E07809F5AD85BE85E4EBF0E00E94873040
:104FAE001CF00E9490300CF416C03323A2F00E9425
:104FBE009530AF81A23020F00230E0E01E070CF4F5
:104FCE000AC0E02FE2500E94BC3029F4E02FE150DD
:104FDE00EA93D9015ADAE885E478E43891F0E88565
:104FEE00E07809F5AD85BE85AC54BF4F0E94A23066
:104FFE003CF0AD85BE85AC54BF4F0E94A7300CF47B
:10500E0012C00E94AC3020F00230E0E01E070CF41B
:10501E000AC0E02FE2500E94C43029F4E02FE15084
:10502E00EA93DA0132DA0E943034659608950E94CE
:10503E00B42EAC85BB27E885F985AE1BBF0B04DA11
:10504E001E2FEC85F0E0A885B985AE0FBF1FFCD9E9
:10505E000E2FAE81BF81EA85FB85EA1BFB0BDF01BC
:10506E0005DA9F01EE81FF81AA85BB85AE0FBF1FBA
:10507E00FDD9AF011A933A932A930A93D901FFDB14
:10508E001A935A934A930A93DA01F9DB0E94303449
:10509E002D960895AA930E942934AB85A03F30F433
:1050AE00A985BA85A034E1E0BE0720F00E94303415
:1050BE000C94C12C00910B24E02F0150E03009F428
:1050CE0047C0EF81F885309721F40E9430340C945C
:1050DE00C12CEF81F8853197EF83F8870E94CC3091
:1050EE00AE81A03491F4EB850E946D30E12FF0E09B
:1050FE00FA93EA93D9019BDFEB850E946D303A93C8
:10510E002A93A12FBB2793DF0FC0EB850E946D3032
:10511E001A933A932A93EC85F0E0FA93EA930E945D
:10512E00C22DA0E0B0E01EDE1F5F55231AF4E12F62
:10513E00F0E002C00E94D930EE0FFF1F31964E0FE5
:10514E005F1FF901A12FB0E0EA17FB0748F6B4CFB5
:10515E000E9430340C94C12CBA93AA930E94E03072
:10516E00EB81FC81FA93EA93AFE894DF0C94112D56
:10517E000E94CC2EAA85A03F30F4A885B985A03414
:10518E00E1E0BE0710F0E0E020C0AE81BF810D91DE
:10519E001C91AC81BD812D913C91D801E8E6F1E0E6
:1051AE000E9478338F01D901E9E6F1E00E9478334D
:1051BE009F01AE81BF810D931C93AC81BD812D9358
:1051CE003C93F901D8010E942D330E9432342B9664
:1051DE0008950E94B42E0E94E730FE013D96FA9388
:1051EE00EA93DE011D96C4DFE03009F471C0EE854E
:1051FE00E0930D24EC85FD85E0930E24F0930F24AF
:10520E000E94E730ED85FE85FA93EA930E94E22F25
:10521E00E0E1F4E2FA93EA93A1E1B4E268DD0E94E0
:10522E00E7300E94E22F0E94E22FE3E1F4E2FA93CC
:10523E00EA93A4E1B4E25BDD00910B24E02F015070
:10524E00E03009F445C0EE81FF81309709F440C08B
:10525E00EE81FF813197EE83FF830E94CC300E9456
:10526E00E7301A933A932A93F9010E944C2E0E942A
:10527E00B833E12FFF27662777270E94C131DF0160
:10528E00CB010E946D2CA1EEBEE285E692E40E9457
:10529E004B320E948A31FA93EA93EA89FB89FA9398
:1052AE00EA93AA89BB895EDD1F5F55231AF4E12FAD
:1052BE00F0E002C00E94D930EE0FFF1F31964E0F64
:1052CE005F1FF901A12FB0E0EA17FB0740F6B6CF3A
:1052DE000E9430342F960895BA93AA9323971A9367
:1052EE000A93E0910B24E1500E2FED850E94413080
:1052FE00FE013C96FA93EA93DE011C9639DFE0300C
:10530E0009F470C010910C24EFEFE0930C24ED859E
:10531E000E944130EC85FD85FA93EA93EC85FD857C
:10532E00FA93EA93AC85BD8554DFE0E0EA83EB8324
:10533E00A985BA85A53BE0E0BE0720F0E02FF0E09E
:10534E00EA83FB83ED850E944130E0911024EA93BD
:10535E00A0911124B0911224EE81FF81AE1BBF0BE0
:10536E008EDAE0E0EA83EB83AF81B885A53BE0E01F
:10537E00BE0720F0E02FF0E0EA83FB83E0911324D8
:10538E00EA93A0911424B0911524EB81FC81AE1BFD
:10539E00BF0BBA93AA93E889EA93AF85B8896FDAFF
:1053AE00ED850E944130EA85FB85AC85BD85AE0F4B
:1053BE00BF1FFD01F695E795FA93EA93EA85FB8503
:1053CE00F695E795FA93EA93FE013B96FA93EA93E4
:1053DE00DE011B968CDC0E94E030A09100247DD073
:1053EE0010930C24198108812E960895AA930E9479
:1053FE00BB2FEB81FC81FA93EA93A8E0B0E00E9408
:10540E00F12CE881E09316240C94302D0E94B42EDA
:10541E00AB85A03F30F4A985BA85A034E1E0BE0784
:10542E0020F00E9430340C94C12CE885E03021F03D
:10543E00EE81FF81309709F436C029853A85F9014E
:10544E00AE81BF81EA0FFB1FEE83FF83EB85A8853C
:10545E00EA0FE887EE81FF812E173F0720F5E21B4A
:10546E00F30BAF014930E0E05E0710F048E050E08A
:10547E001B85E8851E17A0F4E11B0E2F093008F0DE
:10548E0008E01A933A932A930A935A934A93E0E0C8
:10549E00EA930E94BB2FA8E00E94FE1C100FE9CFDA
:1054AE00240F351FD7CF0E9430340C94C12CBA93E1
:1054BE00AA93DE01DADA0E943A30A885ED81EA1B62
:1054CE00EF5FEA93AF81B885EC81FD81EA1BFB0BA0
:1054DE003196DF019BDF0C94012DFF92AA93E19789
:1054EE000E942934AAADA03F30F4A8ADB9ADA034C6
:1054FE00E1E0BE0708F086C0E0911624EE83FE01BF
:10550E0037968F01EAAD0E94EE30E8ADF9AD0E94FC
:10551E00F330FE013796E017F10708F073C0025022
:10552E001040D8010E949733E8AFF9AF01501040F8
:10553E00D801EC91EAAF3AAD313048F00E94F93023
:10554E0019F0EE81E21709F402C03150F5CFE8945C
:10555E00F0F8F1F83F5F303F08F053C00E94F93089
:10556E0019F0EE81E21709F44CC03A93E9ADFAADA9
:10557E00FA93EA93A9850E94311FA8ADB9AD0E9496
:10558E001F34E0F4E8ADF9AD31970E94023119F005
:10559E00EE81E21709F410C0F0FC0DC0FE01F79683
:1055AE000E171F0778F5E32F0E94EE30FA010E94C6
:1055BE00F3306894F0F802C0E894F0F8A8ADB9ADF5
:1055CE00AF33E1E0BE07E0F4E8ADF9AD31960E94ED
:1055DE00023119F0EE81E21709F410C0F1FC0DC092
:1055EE00FE01F7960E171F0768F4E32F0E94EE30A8
:1055FE00FA010E94F3306894F1F802C0E894F1F8D1
:10560E00A9CF87CF0E943034EB96FF9008950E9469
:10561E00CC2E10910024E0910B240E2FE0910C243F
:10562E003E2FE09116240E94A92DE885EA930E9450
:10563E00A72E0E94A72EA0E42DDD10930024009328
:10564E000B2430930C240E9432340C94F92B0E94BC
:10565E00BD337B816A81F981E88177FB770F67FD26
:10566E007160972F9E5781F078F0983190F4AA27A9
:10567E00BB27882708948795B795A7959A95D1F754
:10568E00EA23FB23682305C0E8947727EE27FF273C
:10569E0066276F77769508F4606877F9A991B991C6
:1056AE0089919991EA17FB076807790797FB089587
:1056BE000E940B310E942E2B0E947A3021F40E9400
:1056CE000E310C944F2DDEF70E9411310E94F431F1
:1056DE000C944F2D0E94BD3324971A9310E00E9414
:1056EE001731E3E8F9EF62E27EE30E944B320E944B
:1056FE001C31DEDF0E9417310E94332E0E941C31B6
:10570E00E0E0F0E060E07FE30E94DE3209F008F4B2
:10571E0009C00E942131A0E0B0E080E09FE30E942A
:10572E00263111E00E941731E0E0F0E060E87EE300
:10573E000E94DE3209F008F408C00E941731E0E042
:10574E00F0E060E07FE30E942631103041F00E94CD
:10575E0021310E945531ED83FE836F8378870E943D
:10576E0021310E9417310E944B32E983FA836B83F9
:10577E007C83A1EBB4EC86E292E40E94382EEDE13C
:10578E00F5EE6DE272E40E94332E0E94BE2E0E9450
:10579E004B32ACE4B3E584E091E40E94FB310E940D
:1057AE0017310E944B327F936F93FF93EF93E981F2
:1057BE00FA816B817C81A1E1BDEE8EED9FE30E94AB
:1057CE00FB310E94BE2E0E944B32AEE5BBE788EA4B
:1057DE009FE30E94FB31AF91BF918F919F910E94E9
:1057EE0099321881299608950E940B310E94972EA6
:1057FE000E94F431DF01CB016DDF0C944F2D0E941E
:10580E002D310E945B2E0E947A300E940E31A5E649
:10581E00B0ED8BEC90E40E9435310E945B2E7F93AD
:10582E006F93FF93EF930E940E31A0E0BDE689E2E5
:10583E0091E40E94FB310E947D300E943531AF9180
:10584E00BF918F919F910E949932289608950E9440
:10585E000B31EDECF3E164ED7EE30E94DE3228F4D1
:10586E000E947D30CCDF0C944F2D0E947D30EAE7F4
:10587E00F2E86AE170E40E94DE3209F008F40CC02E
:10588E000E9411310E943E31ABEDBFE089EC9FE3E7
:10589E000E94332E0C944F2D0E9411310E94F43130
:1058AE007F936F93FF93EF930E9411310E94FB3110
:1058BE00AF91BF918F919F910E943E31ABEDBFE0B2
:1058CE0089E49FE30E94FB310C944F2D0E942D31F1
:1058DE000E941B34D9F4E885F9856A857B850E9480
:1058EE001B3429F4EFEFFFEF6FE77FE743C0A88586
:1058FE00B9858A859B850E9423341CF40E94972EBD
:10590E0039C0EBEDFFE069EC7FEB34C0EC81FD813B
:10591E006E817F81A885B9858A859B850E94993283
:10592E000E947A30AC81BD818E819F810E9423348A
:10593E0064F4AB85AA2322F00E947D3088DF1AC062
:10594E000E9444310E94553115C0AB85AA234AF0FE
:10595E000E944431ABEDBFE089E490E40E94332E07
:10596E0009C00E947D3073DFABEDBFE089E490EC9F
:10597E000E94FB312C960895BA93AA93A991B991DE
:10598E00E991F99130962AF4E095F09531966DE211
:10599E006D93E89480E197E20DD088EE93E00AD003
:1059AE0084E6992707D08AE005D06E2F10D066279F
:1059BE006C9308956627E817F90720F06395E81BA6
:1059CE00F90BC9F7662311F416F008956894605D1B
:1059DE006D930895BA93AA9399818881009641F0A8
:1059EE00BD81AC81FB81EA8105900D920197E1F7B3
:1059FE00FD81EC8126960895BA93AA93B981A88168
:105A0E00109631F0FC81EB816A8161931197E9F771
:105A1E00EB81FC8125960895BA93AA93EA81E13031
:105A2E0021F4E881F981E49114C0E23029F4A881CF
:105A3E00B9810E94D4330DC0E33041F4A881B981FD
:105A4E00E0911F24F0912024099503C0A881B9810B
:105A5E00EC9123960895AA93EB81E03029F4E88126
:105A6E00A981BA81EC9314C0E23031F4E881A981A6
:105A7E00BA810E94DD330CC0E33051F4E981FA8122
:105A8E00FA93EA93AA81E0912124F09122240995B8
:105A9E0024960895E0930024E0E0EA930895E093BD
:105AAE000624F09307240895E4E7FAE0F8CF0E9465
:105ABE00C423E0EBF5E1F3CFEA93A1E00C94582276
:105ACE00FA93EA93EFEEEA930895B0E00E9446242B
