:060000000C94CD010C94EC
:1000060000000C9400000C9400000C9400000C946A
:1000160000000C9400000C9400000C9400000C945A
:1000260000000C9400000C9400000C9400000C944A
:1000360000000C9400020C9400000C9400000C9438
:1000460000000C9400000C9400000C9400000C942A
:1000560000000C9400000C9400000C9400000C941A
:1000660000000C9400000C9400000C9400000C940A
:1000760000000C9400000C9400000C9400000C94FA
:1000860000000C9400000601070113011E012B015C
:100096003601410151015B016401760189019A0132
:1000A600A901BA01CA0120222A2B2C5B3D5D7C7F67
:1000B6000000000400020001800040002000100043
:1000C600080004000200000000800040002000102C
:1000D6000008004000200010000800040002303A2A
:1000E6002F66696C652E7478740049206C696B659F
:1000F60020436F6465566973696F6E4156522100DD
:100106000046525F4449534B5F4552520046525F88
:10011600494E545F4552520046525F4E4F545F520D
:10012600454144590046525F4E4F5F46494C450093
:1001360046525F4E4F5F504154480046525F494E0B
:1001460056414C49445F4E414D450046525F444539
:100156004E4945440046525F45584953540046525D
:100166005F494E56414C49445F4F424A454354000D
:1001760046525F57524954455F50524F5445435477
:1001860045440046525F494E56414C49445F4452ED
:100196004956450046525F4E4F545F454E41424CCC
:1001A60045440046525F4E4F5F46494C45535953AE
:1001B60054454D0046525F4D4B46535F41424F52A8
:1001C6005445440046525F54494D454F55540045E9
:1001D60052524F523A2025700D0A0046696C653A14
:1001E6002025732C20417474726962757465733AA4
:1001F60020256325632563256325630D0A44617401
:10020600653A20253032752F253032752F25752C0D
:100216002054696D653A20253032753A253032759D
:100226003A253032750D0A53697A653A20256C7580
:100236002062797465730D0A004C6F676963616C9F
:1002460020647269766520303A206D6F756E74652C
:1002560064204F4B0D0A0046696C652025732063A8
:10026600726561746564204F4B0D0A002575206226
:1002760079746573207772697474656E206F662071
:1002860025750D0A0046696C6520257320636C6F21
:10029600736564204F4B0D0A0046696C6520257313
:1002A600206F70656E6564204F4B0D0A0025752022
:1002B600627974657320726561640D0A0052656126
:1002C6006420746578743A20222573220D0A005240
:1002D6006561642D4F6E6C79206174747269627504
:1002E600746520736574204F4B0D0A004E657720A8
:1002F60074696D65207374616D7020253032752FB9
:10030600253032752F257520253032753A25303245
:10031600753A2530327520736574204F4B0D0A00EF
:10032600526561642D4F6E6C7920617474726962D6
:1003360075746520636C6561726564204F4B0D0AA8
:10034600000001000400EBFE904D53444F53352E40
:1003560030004E4F204E414D45202020204641542E
:100366003332202020004E4F204E414D4520202084
:10037600204641542020202020000B006C09E40078
:1003860015007809F00001008E0A48030100920A60
:100396004A030000F894EE27ECBBF1E0F5BFE5BF99
:1003A600E0936C00F8E1F1BDE1BD8DE0A2E0BB2772
:1003B600ED938A95E9F780E090E1A0E0B1E0ED9356
:1003C6000197E9F7E0E8F3E085919591009761F0F0
:1003D600A591B59105901590BF01F00105900D927C
:1003E6000197E1F7FB01F0CF8BBFEFEFEDBFE0E147
:1003F600EEBFC0E0D5E00C94C7020A921A92FA92B8
:100406006A937A938A939A93AA93BA93EA93FA93FE
:10041600EFB7EA93EFEFEDBDE0E7ECBD0E9486088B
:10042600E991EFBFF991E991B991A99199918991D2
:1004360079916991F990199009901895AA93A881D4
:10044600A13010F0A03108F012C0E5EDF1E0FA930A
:10045600EA93EA81ACE8B0E0F0E0EE0FFF1FEA0FA6
:10046600FB1F0E942A210E94CF1B0E94D41BFFCF94
:10047600BA93AA93E881F981FA93EA93A6E5B9E0DB
:100486000E9440185E2EE03009F07AC0E1EEF1E0FD
:10049600FA93EA93EFE5F9E00E94CF1BE0915E093B
:1004A600E07111F0E4E401C0EDE20E94D91BE170B5
:1004B60011F0E2E501C0EDE20E94D91BE27011F0F5
:1004C600E8E401C0EDE20E94D91BE47011F0E3E517
:1004D60001C0EDE20E94D91BE07211F0E1E401C017
:1004E600EDE2FF27662777270E944221E0915A090D
:1004F600F0915B09EF71F0700E94CF1BA0915A0931
:10050600B0915B09E5E00E946820EF70F0700E94F0
:10051600CF1BA0915A09B0915B09E9E00E946820BF
:10052600E454F84F0E94CF1BA0915C09B0915D097D
:10053600EBE00E9468200E94CF1BA0915C09B0915D
:100546005D09E5E00E946820EF73F0700E94CF1B02
:10055600E0915C09F0915D09EF70F070EE0F0E947A
:10056600CF1BE0915609F091570960915809709197
:1005760059090E94422184E30E94FC1AE69602C0B1
:10058600A52D5CDF22960895E0E0EFBDE5E0EEBD27
:10059600EFEFEDBDE0E7ECBDE4E0E7BFE0E0EBB98F
:1005A600E8E0EAB9E6E0E0939500E0E0E093900049
:1005B600EFE2E9B9E0E0EA93EA93A0E00E943F1B8C
:1005C600E9E5FBE1E0930005F0930105EEE7FBE1C9
:1005D600E0930205F09303057894E0E0EA93A4E043
:1005E600B5E00E9443135E2EE03049F4EFE3F2E0FB
:1005F600FA93EA9380E00E94FC1A229602C0A52D87
:100606001DDFACE6B9E00E9471180E94E11B0E9452
:10061600E61BAAE00E9470135E2EE03039F4EDE589
:10062600F2E00E94EB1B0E94D41B02C0A52D06DF40
:100636000E94E11BE8E7F9E0FA93EA93E5E1F0E0CE
:10064600FA93EA93A6E0B0E00E94FF155E2EE03032
:1006560091F4E2E7F2E0FA93EA93F3010E94CF1BEA
:10066600E5E1F0E060E070E00E94422188E00E944F
:10067600FC1A2A9602C0A52DE1DE0E94F01B39F471
:10068600EBE8F2E00E94EB1B0E94D41B02C0A52DF2
:10069600D5DE0E94E11B0E94E61BA1E00E947013BA
:1006A6005E2EE03039F4EFE9F2E00E94EB1B0E9487
:1006B600D41B02C0A52DC2DE0E94E11BEEE8F9E0C4
:1006C600FA93EA93EFEFF0E0FA93EA93A6E0B0E04C
:1006D6000E9497145E2EE030C9F4E3EBF2E0FA9341
:1006E600EA93F3010E94CF1B0E94D41BF301E1574A
:1006F600F64FA0E0A083E3ECF2E0FA93EA93EEE88B
:10070600F9E00E94CF1B0E94D41B02C0A52D96DEE5
:100716000E94F01B39F4EBE8F2E00E94EB1B0E940A
:10072600D41B02C0A52D8ADE0E94F71BE1E00E94C1
:10073600FC1B39F4E5EDF2E00E94EB1B0E94D41B92
:1007460002C0A52D7BDEE6E6F8E2E0935A09F093B7
:100756005B09E0E0F5E7E0935C09F0935D090E9430
:10076600E61BA6E5B9E00E9437195E2EE03059F582
:10077600E2EFF2E0FA93EA93E6E0F0E060E070E0A0
:100786000E944221E3E0F0E060E070E00E94422136
:10079600E0EDF7E060E070E00E944221EEE0F0E07C
:1007A60060E070E00E944221E8E2F0E060E070E084
:1007B6000E9442210E94031C0E94422188E10E945D
:1007C600FC1A6A9602C0A52D39DE0E94F71BE0E0EE
:1007D6000E94FC1B39F4E6E2F3E00E94EB1B0E9448
:1007E600D41B02C0A52D2ADEACE6B9E041DEFFCF60
:1007F600FFCFAA930E946F2120E00C81AD81BE81BC
:100806003D91AD83BE8318E0220FE22FE327E07807
:1008160011F0E9E02E27330F1150B1F7015071F7AF
:10082600E22FEE0FE1600E9476212AC51A93E2E3D9
:10083600E093900AEFEFEFB9779BFECFEFEFEFB9BA
:10084600779BFECF1FB11F3F21F0E091900AE03069
:1008560009F401C0F3CFE12F92C4969AEFEFEFB9F6
:10086600779BFECF0895BA93AA930E946F21EAE080
:10087600E0938F0AEFEFEFB9779BFECF1FB11F3FD3
:1008860021F4E0918F0AE03009F401C0F3CF1E3F56
:1008960021F0E0E00E94762129C52E813F81EFEF0D
:1008A600EFB9779BFECF3F932F932F5F3F4FEFB16B
:1008B600AF91BF91EC93EFEFEFB9779BFECF3F93EC
:1008C6002F932F5F3F4FEFB1AF91BF91EC93EFEFB7
:1008D600EFB9779BFECF3F932F932F5F3F4FEFB13B
:1008E600AF91BF91EC93EFEFEFB9779BFECF3F93BC
:1008F6002F932F5F3F4FEFB1AF91BF91EC93EC81F8
:10090600FD813497EC83FD8351F6EFEFEFB9779BCA
:10091600FECFEFEFEFB9779BFECFE1E00E947621A5
:10092600E5C4AA930E946F2181DFEF3F21F0E0E04A
:100936000E947621A5C4EC81EFB9779BFECFAC81EE
:10094600AD3F41F100E02D813E81D9012F5F3F4F40
:10095600EC91EFB9779BFECFD9012F5F3F4FEC911A
:10096600EFB9779BFECF015081F7EFEFEFB9779B99
:10097600FECFEFEFEFB9779BFECFEFEFEFB9779BA7
:10098600FECF1FB1E12FEF71E53021F0E0E00E94CC
:10099600762176C4E1E00E94762172C40E94472146
:1009A6001A930A93EE81E07889F0EE81EF77EE8371
:1009B600E7E7EA93A0E0B0E080E090E0EFDF0E2FFB
:1009C600023020F0E02F198108815AC4969A969831
:1009D6002DDFEF3F21F0EFEF1981088151C4EE8141
:1009E600EFB9779BFECFED81EFB9779BFECFEC8118
:1009F600EFB9779BFECFEB81EFB9779BFECFEA810C
:100A0600EFB9779BFECF11E0AE81A03411F415E962
:100A160004C0AE81A83409F417E81FB9779BFECF4E
:100A2600AE81AC3421F4EFEFEFB9779BFECF1FEF29
:100A3600EFEFEFB9779BFECF0FB107FF02C0115062
:100A460009F401C0F5CFE02F1981088119C4BA93C2
:100A5600AA931A9314E0EFEFEFB9779BFECFA98123
:100A6600BA811196A983BA831197EFB1EC9311500D
:100A760091F751C5AA9324970E946F21E885E0302B
:100A860011F0E1E0C9C0E0916400EF7EE0936400FC
:100A9600E0916400E77FE0936400EAE0E0938F0A68
:100AA600E0918F0AE030E1F7E0918E0AE27009F0FA
:100AB600B1C08E9A969AE8B3E97FE8BBC39ABB9811
:100AC600E7B3E760E7BBE3E5EDB9E0E0EEB93FEF9A
:100AD6001AE0EFEFEFB9779BFECF1150D1F7E0E4C4
:100AE600EA93A0E0B0E080E090E058DF0E2F3150AE
:100AF600013011F0303009F401C0EACF30E00130A6
:100B060009F068C0E4E6E0938F0AE8E4EA93AAEA0B
:100B1600B1E080E090E042DFE13091F5DE0114962D
:100B260096DFAE81A13019F4AF81AA3A09F027C049
:100B3600E0918F0AE03049F0E9EEEA93A0E0B0E0F8
:100B460080E090E42BDFE03009F401C0F1CFE091C2
:100B56008F0AE03049F0EAE7EA93A0E0B0E080E0EF
:100B660090E01CDFE03009F00AC0DE0114966FDF6A
:100B7600EC81E07411F0ECE001C0E4E03E2F2AC005
:100B8600E9EEEA93A0E0B0E080E090E007DFE23033
:100B960018F432E009EE02C031E001E4E0918F0A78
:100BA600E03041F00A93A0E0B0E080E090E0F6DEAD
:100BB600E03009F401C0F2CFE0918F0AE03049F04D
:100BC600E0E5EA93A0E0B2E080E090E0E7DEE03026
:100BD60009F030E03093910A40DE303051F0E09178
:100BE6008E0AEE7FE0938E0AE0E5EDB9E1E0EEB91C
:100BF60011C096981BDE31DEE0E0EDB9E7B3E07F89
:100C0600E7BBE8B3E07FE8BB8E98E0918E0AE1602F
:100C1600E0938E0AE0918E0A0E9476212996089525
:100C2600AA93E881E03011F0E1E002C0E0918E0A7B
:100C360021960895AA93EF81E03019F4E881E03017
:100C460011F4E4E053C3E0918E0AE17011F0E3E0A1
:100C56004DC3E091910AE87071F4E981FA816B81E4
:100C66007C81A0E0B2E080E090E00E94AF20E983C2
:100C7600FA836B837C83A881A130A9F4E1E5EA932A
:100C8600AA81BB818C819D8189DEE03059F4ED819A
:100C9600FE81FA93EA93A0E0B2E0E5DDE03011F0E0
:100CA600E0E0E88323C0E2E5EA93AA81BB818C8178
:100CB6009D8174DEE030D1F4ED81FE81FA93EA93F2
:100CC600A0E0B2E0D0DDE03051F0ED81FE81E050F1
:100CD600FE4FED83FE83E881E150E88369F7ECE49B
:100CE600EA93A0E0B0E080E090E058DEB6DDE8816F
:100CF600E03011F0E1E001C0E0E0F8C2AA93EF8134
:100D0600E03019F4E881E03011F4E4E0EFC2E0915C
:100D16008E0AE17011F0E3E0E9C2E0918E0AE47018
:100D260011F0E2E0E3C2E091910AE87071F4E98122
:100D3600FA816B817C81A0E0B2E080E090E00E94C5
:100D4600AF20E983FA836B837C83A881A130A1F469
:100D5600E8E5EA93AA81BB818C819D811FDEE030A4
:100D660051F4ED81FE81FA93EA93AEEFDADDE030DD
:100D760011F0E0E0E88330C0E091910AE67039F0C6
:100D8600E7EDEA93A981BB278827992707DEE9E5DE
:100D9600EA93AA81BB818C819D8100DEE030E1F47B
:100DA600ED81FE81FA93EA93ACEFBBDDE03051F0C2
:100DB600ED81FE81E050FE4FED83FE83E881E15038
:100DC600E88371F7E0E0F0E0FA93EA93ADEFA9DD8E
:100DD600E03011F4E1E0E88340DDE881E03011F035
:100DE600E1E001C0E0E082C2BA93AA9360970E9454
:100DF6006F21EF89E03011F0E4E081C1E0918E0AC5
:100E0600E17011F0E3E07BC111E0EE89E03031F4EE
:100E160096980CDDEF3F09F410E06FC1E13009F060
:100E26005BC0E9E4EA93A0E0B0E080E090E0B6DDE4
:100E3600E03049F4FE013496FA93EA93A0E1B0E07B
:100E460012DDE03009F447C0EC81E295EF70E695DB
:100E5600E695E13069F4E0E0FC85AD85B0E0EA0FA7
:100E6600FB1F31969F01D90188279927EAE02CC0FC
:100E7600E985EF70AE2FEE85E078EE1FE0E0EE1F1D
:100E8600AE0FED85E370EE0FEA0FEE5F0E2FEC85E9
:100E9600E295EF70E695E695AE2FEB85F0E00E94C1
:100EA6008D20B0E0AE0FBF1FEA85E370F0E00E9430
:100EB6008D20FE2FE0E0EA0FFB1F31969F01D9013E
:100EC60088279927E02FE9500E947120AC89BD89B7
:100ED6000E94202110E011C1E23041F4AC89BD89A5
:100EE600E0E0F2E0ED93FC9310E007C1E33009F097
:100EF600A9C0E091910AE47071F1EDECEA93A0E0EB
:100F0600B0E080E090E04ADDE03021F5EFEFEFB9A8
:100F1600779BFECFFE013496FA93EA93A0E1B0E008
:100F2600A2DCE030B9F000E3003031F0EFEFEFB9CA
:100F3600779BFECF0150F8CFEE85E295EF70A0E1EA
:100F4600B0E080E090E00E947120AC89BD890E94EB
:100F5600202110E076C0E9E4EA93A0E0B0E080E06A
:100F660090E01CDDE03009F06CC0FE013496FA9387
:100F7600EA93A0E1B0E077DCE03009F462C0E091EA
:100F8600910AE27051F1EE85EF73FF276627772706
:100F96000E949B207F936F93FF93EF93EF85E078FA
:100FA600FF2766277727DF01CB01E7E00E947D2038
:100FB600AF91BF918F919F910E944720EF5FFF4FA6
:100FC6006F4F7F4FDF01CB01E989E295EF70E69520
:100FD600E695E1500E9471202FC0EE85EC77E695EC
:100FE600E695FF2766277727EF5FFF4F6F4F7F4F07
:100FF6007F936F93FF93EF93EF85E370FF27662749
:101006007727DF01CB01E3E00E947120DF01CB01EE
:10101600EF85E07EE295EF70E695FF276627772756
:101026000E944720EF5FFF4F6F4F7F4FAF91BF91F9
:101036008F919F910E94AF20AC89BD890E9420218B
:1010460010E05BC0EA3039F4E091910AAC89BD89C1
:10105600EC9310E052C0EB3011F409E403C0EC301D
:1010660009F50AE40A93A0E0B0E080E090E096DC9F
:10107600E030B9F4EC89FD89FA93EA93A0E1B0E097
:10108600F2DBE03071F0EC89FD89FA93EA93AFE088
:10109600B0DBAE2FEC89FD89E785EF77EA1709F417
:1010A60010E02BC0ED3071F4EAE7EA93A0E0B0E07F
:1010B60080E090E073DCE03021F4AC89BD89C7DCC8
:1010C60010E01BC0EE30C1F4EDECEA93A0E0B0E016
:1010D60080E090E063DCE03071F4EFEFEFB9779BEE
:1010E600FECFEC89FD89FA93EA93A0E4B0E0BBDB7E
:1010F600E03009F010E001C014E0AFDBE12F0E9400
:101106007621689608951A93E0918F0AE03029F0C7
:10111600E0918F0AE150E0938F0AE091900AE03067
:1011260029F0E091900AE150E093900A1091920A1A
:10113600E0E0E093920AE0916300E07119F4E1E0E7
:10114600E093920AE0916300E87029F0E091920A38
:10115600E260E093920AE091920AE11781F410911D
:101166008E0AE17011F01D7F01C01360E091920AB2
:10117600E27011F0146001C01B7F10938E0A199162
:1011860008952797A0910005B0910105109731F0B9
:10119600A0910205B0910305109729F4E0E0F0E074
:1011A60061E27AE36DC0FE013696FA93EA93FE0198
:1011B6003796FA93EA93DE011896E0910005F091CE
:1011C60001050995FE013396FA93EA93FE013496DA
:1011D600FA93EA93DE011496E0910205F091030575
:1011E6000995E881F981EC5BF74066277727DF01EF
:1011F600CB01E9E10E9471207F936F93FF93EF93F8
:10120600EA810E94081CE5E10E947120AF91BF911E
:101216008F919F910E945B20DF01CB01EB81F0E073
:101226000E94AA200E94A5200E945B207F936F93B4
:10123600FF93EF93EE810E94081CEBE00E94712061
:10124600AF91BF918F919F910E945B207F936F9387
:10125600FF93EF93ED810E94081CE5E00E94712048
:10126600AF91BF918F919F910E945B20DF01CB01CF
:10127600EC81F0E0F595E7950E94AA200E945B209C
:10128600279608950E940E1C088519852E813F8198
:10129600EC81FD813197EC83FD83319661F01F93DC
:1012A6000F930F5F1F4FD9012F5F3F4FEC91AF9107
:1012B600BF91EC93EDCF0E94762134C4BA93AA93E2
:1012C6001A930A930E811F81EA81FB813197EA8383
:1012D600FB83319649F01F930F930F5F1F4FEC81ED
:1012E600AF91BF91EC93F0CF1981088128960895AC
:1012F600BA93AA930E946D210A851B852885398594
:1013060040E050E0EE81FF813197EE83FF83319616
:1013160081F0D8010F5F1F4F0C901124D9012F5F68
:101326003F4FAC91BB27F001EA1BFB0BAF01309797
:1013360009F001C0E7CFFA010E9474212C960895A6
:10134600BA93AA93EA81FB81E491E03049F0EA81FD
:10135600FB81A491E881F981B0E0EA17FB0709F463
:1013660006C0EA81FB813196EA83FB83EBCFEA81F3
:10137600FB81E491F0E0249608950E94472124978A
:101386001A93A985BA859E960E9415210E94131C60
:101396000E94181C0E941D1C0E94632109F452C061
:1013A600E985FA85E481E03089F10E94221CE0306B
:1013B60011F0E1E048C0A985BA851496E0E0EC9307
:1013C600E985FA850E94341C0D01A985BA855A96CD
:1013D6000E941521D0010E9447200E941D1C0E94D8
:1013E6006821A0F4E985FA851381123078F0A98581
:1013F600BA855A960E9415210E941D1C0E944720FC
:101406000E94131C0E94221C1150EFCF0E94181C30
:101416000E945921B9F0E985FA85A181AA93EA8546
:10142600FB85F296FA93EA930E94391C0E943E1CB1
:1014360011F0E1E008C00E94181CA985BA859E96A5
:101446000E942021E0E018812B9608950E94451CF9
:101456000E944D1C0E94521C09F05CC0A981BA81F1
:10146600AC91A33029F4E981FA81E581E03009F4F1
:1014760045C0A981BA819E960E94571CE981FA81CE
:101486000E945B1CE981FA81F296E250FE4FA5E5C7
:10149600BAEAA083B183E981FA81F296A2E5B2E5C0
:1014A60081E691E40E94661CEC51FE4FA2E7B2E78A
:1014B60081E491E60E94661CE851FE4F0F01A98166
:1014C600BA811E960E946C1CF296E451FE4F0F01E3
:1014D600A981BA811A960E946C1CA181AA93EA81FD
:1014E600FB81F296FA93EA93EC81FD810E94741CCB
:1014F60005DCA981BA811596E0E0EC93E981FA81D1
:10150600A181AA93E0E0EA93A0E0B0E06DDCE030D0
:1015160009F011E0E12F1881239608950E944721D2
:1015260024970E946F210E947C1C0E94811C50F00F
:10153600AC85BD855E960E9415210E947C1C0E948A
:10154600682118F00E94891C60C0AC85BD85929602
:101556000E948E1CAC85BD85EC91F0E0E130A0E0E8
:10156600FA0739F528853985F901F695E7952E0F9D
:101576003F1F0E94951C09F046C00E94AA1C0C91B0
:1015860011272F5F3F4F0E94951CE9F50E94AA1C68
:10159600EC91FE2FE0E00E2B1F2BE885E17021F089
:1015A600F8010E94922002C0F801FF706627772793
:1015B6002CC0E230A0E0FA0779F40E94B21C0E9427
:1015C600BB1C0E94C21CF9F4A885B985E2E00E9402
:1015D600CC1C0E94D51C19C0E330A0E0FA0799F490
:1015E6000E94B21C0E94DA1C0E94C21C61F4A885EB
:1015F600B985E4E00E94CC1C0E941521EF7FFF7F95
:101606006F7F7F7002C00E94E11C0E9476212E9699
:1016160008950E94472124970E946D210E94E61C8E
:101626000E94811C50F0AA89BB895E960E941521F2
:101636000E94E61C0E94682110F052E085C0AA892B
:10164600BB8992960E941521EE83FF83688779876E
:10165600AA89BB89EC91F0E0E130A0E0FA0709F035
:1016660043C00E851F85F801F695E7950E0F1F1FDF
:101676000E94EB1C09F063C00E94FE1C51F0D901C8
:10168600EC91EF70AE2FEA85F0E00E948920EA2BFC
:1016960001C0EA85D901EC930F5F1F4FAA89BB8968
:1016A6001496E1E0EC930E94EB1C09F048C00E94FE
:1016B600FE1C49F00E94091DE4E00E947D20FF27E0
:1016C600662777270EC0D901EC91E07F1E2E0E9477
:1016D600091DE8E00E947D20FF2766277727EF7027
:1016E600E129D901EC932BC0E230A0E0FA0789F496
:1016F6000E940E1D0E94BB1C0E94171D01F5AE859F
:10170600BF85E2E00E941F1DAA85BB85A083B18329
:1017160016C0E330A0E0FA0789F40E940E1D0E946D
:10172600DA1C0E94171D59F4AE85BF85E4E00E94BD
:101736001F1D0E94091D0E943D2101C052E0AA8979
:10174600BB891496E1E0EC93E52F0E947421649620
:1017560008950E94472124971A930E94281D0E94EB
:10176600811C18F00E942D1D10F012E048C010E0F8
:101776000E942D1D08F043C0E985FA85FA93EA9385
:10178600AF81B88589859A85C9DE0E94131CE981D7
:10179600FA816B817C810E94592189F10E941D1C6E
:1017A6000E94361D11F412E02AC00E941D1C0E94E0
:1017B6003E1D11F411E023C0E985FA85FA93EA93F8
:1017C600EF81F88569857A850E9442210E944D1C29
:1017D60020DF1E2F103099F4E985FA850E94461DF8
:1017E60029F00E944B1D1596E1E0EC93E981FA8100
:1017F6006B817C81ED83FE836F837887B9CFE12F80
:10180600188181C20E9447216097AC89BD895E9686
:101816000E9415210E94591D0E945C1D0E9459219B
:10182600B1F4AC89BD891A960E948E1C0E94611D76
:101836000E945D2139F00E94661D0E94611D0E9472
:10184600682120F00E94891C0E94691D1CC00E940C
:101856006E1D0E94731D0E94781D0E947F1D0E94AE
:10186600811C18F40E94891C8CC00E94661D0E946F
:101876007F1D0E94682118F40E94841D82C00E9468
:101886005C1D0E94691D0E94891D0E948E1D0E947A
:10189600391CEF5FFF4F6F4F7F4F0E948E1D0E94D6
:1018A600661D0E947C1C0E94682160F0E2E0F0E068
:1018B60060E070E00E948E1D0E94931D18F40E9445
:1018C600031C5FC00E946E1D0E94091D0E94781DA8
:1018D6000E94981DA1F00E947F1D0E943E1D29F0C6
:1018E6000E947F1D0E94361D19F40E94841D49C066
:1018F6000E94931D19F40E94031C43C0C8CF0E9486
:101906006E1DEA85FB856C857D850E944221AFEFC1
:10191600BFEF8FEF9FE07DDEE03019F00E94E11C03
:1019260030C00E945C1D0E94592171F00E946E1DFC
:101936000E949C1D0E9442210E94E61C6ADEE03045
:1019460019F00E94E11C1DC00E94391CAC89BD899A
:101956001A960E942021EC89FD890E94461D79F085
:10196600AC89BD891E960E941B213197604070404C
:101976000E942521AC89BD891596E1E0EC930E9471
:10198600391C669608950E9447210E94661DE25002
:10199600F040604070400E94591DEC81FD81A68D8B
:1019A600B78D80A191A1E2E0F0E060E070E00E94D6
:1019B600A11D0E9433210E94682118F00E94031C79
:1019C60046C4EC81FD81E281F0E00E9433210E9451
:1019D600AA200E94AF207F936F93FF93EF93AC8171
:1019E600BD819A960E941521AF91BF918F919F91CB
:1019F6000E9447202CC4BA93AA9324971A930A9359
:101A0600EE81FF81A885B9851496ED93FC93A88590
:101A1600B98516960E94A61D0E94AD1D0E94361D10
:101A260029F00E94B21D0E94B71D10F0E2E078C0B6
:101A36000E94BF1D29F40E94B21DA081A33009F0A7
:101A460006C00E94B21DB696DF010E94A61D0E9426
:101A5600BF1DA1F40E94C61D3896DF010E94112108
:101A6600AE81BF81AE17BF0710F0E2E059C00E94F9
:101A7600B21DB696DF010E94152137C00E94B21D25
:101A8600E281A0E1EA9F8001AE81BF81A017B10784
:101A960028F10E94B21DFA93EA930E94611D3EDD71
:101AA600EA83FB836C837D830E94AD1D0E943E1DED
:101AB60011F4E1E035C00E94AD1D0E94811C28F0A2
:101AC6000E94B21D0E94B71D10F0E2E029C0EE810F
:101AD600FF81E01BF10BEE83FF83D6CF0E94C61D6C
:101AE600FA93EA930E94611D4EDFDF01CB01EE817E
:101AF600FF810E9492200E94D01DA885B9851E965E
:101B06000E9420210E94B21DF296DF01EE81FF8124
:101B16000E94D51DA885B9855296ED93FC93E0E009
:101B2600198108812A960895AA9324970E946F2105
:101B3600A985BA8514960E94112131968F01002E2F
:101B4600012A29F0A985BA850E94DD1D11F4E4E079
:101B5600D8C0F801EF7009F0C1C00E944B1D1A965B
:101B66000E9415210E94592161F40E94E31D3896B6
:101B7600DF010E9411210E171F0710F0E4E0C1C01B
:101B8600ADC0F8010E9492200F010E94E31DE28180
:101B9600F0E03197E021F121309709F09FC00E94D3
:101BA600E31D0E94E81DBADC0E94691D0E94611DAA
:101BB6000E94811C10F4E2E0A4C00E94611D0E94F4
:101BC6003E1D11F4E1E09DC00E94E31D7E96DF01FB
:101BD6000E9415210E94611D0E94682108F46EC0B2
:101BE600E885E03011F4E4E08CC00E94E31D0E9419
:101BF600E81D08DE0E94F11D0E94592111F4E7E05C
:101C060080C00E94611D0E94361D11F4E2E079C079
:101C16000E94611D0E943E1D11F4E1E072C00E9407
:101C2600E31D0E94F31D11F0E1E06BC00E94E31D6D
:101C36000E945B1C0E94E31DDF01BE96FF93EF939B
:101C4600FD010E94FA1DAF91BF910E94202130E054
:101C56000E94E31DE2813E17E8F40E94E31D3496DC
:101C6600A1E0A0830E94E31D0E94F31D11F0E1E0B4
:101C760048C00E94E31DBE96DF010E941B21EF5F54
:101C8600FF4F6F4F7F4F0E94252131976040704074
:101C96003F5FDECF0E94E31DBE96FF93EF93DF0109
:101CA6000E941521DF01CB01E32FF0E00E94AA205C
:101CB6000E94A11DAF91BF910E9420210E94891D03
:101CC600A985BA851A960E9420210E94E31D0E94CA
:101CD600FA1DA985BA851E960E942021F801A985BC
:101CE600BA851496ED93FC930E94E31DF296DF01EC
:101CF600F8010E94D51DA985BA855296ED93FC93ED
:101D0600E0E00E9476212B9608950E940E1C0E9408
:101D1600021E0E94081E21F0E12F0E94762197C222
:101D26000E940E1EB1F40E941B1E11F414E011C095
:101D3600F901E385E87029F40E94241ED9DA309768
:101D460009F001C006C00E94021EEEDE1E2F1030F2
:101D560039F3E12F0E9476217AC20E940E1C14E00C
:101D6600AC81BD810E94DD1DD9F00E940E1EC1F41A
:101D76000E941B1E11F414E013C0053E49F0E1E079
:101D8600E03011F40E3221F0F901E385E87009F034
:101D960001C006C00E94021EC7DE1E2F103001F3CE
:101DA600103029F0AC81BD811E960E94571CE12F90
:101DB6000E9476214CC20E940E1C0E94021E0E94A6
:101DC600081EB1F40E940E1E99F4EC81FD81A289D1
:101DD600B3890C91053E11F0003009F409C0EC817D
:101DE600FD81FA93EA93A1E09FDE1E2F103051F396
:101DF600103029F50E940E1E11F5AC81BD81529658
:101E06002D913C913A932A93E0E0F0E0FA93EA931D
:101E1600A0E2B0E053DA0E94241E34DAAC81BD8120
:101E260054960E941121E385E871D9011C96EC9322
:101E3600AC81BD810E9411213496A1E0A083E12FDF
:101E46000E94762104C20E94451CEB81FC81A4817C
:101E5600B581D1DD1E2F1030D1F4A981BA810E943F
:101E66002F1EEB81FC81A685B785808991890E940A
:101E7600521C69F4E981FA81A289B389E5EEEC93F3
:101E8600A981BA810E9411213496A1E0A083E12F95
:101E9600188123960895BA93AA9325970E946D21D7
:101EA600AD85BE8554964D915C915A934A93E0E276
:101EB600F0E0FA93EA93ABE0B0E000DAE0E0E8871E
:101EC600E9871E2F2E2FE8E0EA87AB85BC850E94A6
:101ED600341E0E94391EAE0FBF1FAC91AE3209F5FB
:101EE6000E943E1E0E3221F4A885B98513970CF088
:101EF60003C00E944A1EF4CF0F3221F00C3511F0B8
:101F0600013208F402C0E6E06EC00E94391E0E944B
:101F1600511E10F4E4E201C0E0E2DA011B96EC93F4
:101F260061C00E943E1E013220F00F3211F00C35C6
:101F360009F433C00E3219F0EA852E1768F0AA8527
:101F4600A83011F40E3211F0E6E04DC028E0EBE0C7
:101F5600EA87110F110F20C0003818F01360E6E071
:101F660042C0ECEAF0E0FA93EA93A02FBB27E8D947
:101F7600309711F0E6E037C0013410F00B3508F069
:101F860002C0126007C0013610F00B3708F002C01D
:101F9600116000520E944A1EC4CF0E94391E0E9440
:101FA600511E10F4E4E001C0E0E00E2F203011F4E1
:101FB600E6E019C0DA01AC91A53E19F4DA01E5E0D4
:101FC600EC93AA85A83011F4110F110FE12FE370DD
:101FD600E13009F40061E12FEC70E43009F40860A7
:101FE600FA010387E0E00E9474212F960895BA93C0
:101FF600AA9322970E946D21E885F9853996EE838A
:10200600FF83AA85BB850E94DD1D09F464C0AA85ED
:10201600BB8552964D915C91FA01348510E01830DB
:10202600B8F40E94591EA1F0053009F405EEE0E06F
:10203600E03041F033FF06C0013410F00B3508F0F4
:1020460001C001C001C0005E0E94601E1F5FE7CF95
:10205600FA01A085A032F9F0AE81BF811196AE8358
:10206600BF831197EEE2EC9318E01B30A0F40E94B8
:10207600591E89F0E0E0E03041F034FF06C001343B
:1020860010F00B3508F001C001C001C0005E0E94CF
:10209600601E1F5FEACFFA01E385A885B985189609
:1020A600EC93DA015C960E941521A885B9850E94F9
:1020B6002021DA0158960E941121A885B985149627
:1020C600ED93FC93DA0156960E941121A885B985F5
:1020D6001696ED93FC93AE81BF81E0E0EC930E94EF
:1020E60074212C9608950E940E1CE1E0E03029F040
:1020F600AC81BD81AC91A03209F006C0EC81FD81B6
:102106003196EC83FD83F1CFAC81BD81AC91AF32CA
:1021160029F0AC81BD81AC91AC3559F4EC81FD81DF
:102126003196EC83FD83AE81BF8116960E94571CC3
:102136000AC0AE81BF810E9411217696DF010E94FE
:1021460015210E94681EAC81BD81AC91BB2790977A
:1021560060F40E946E1EA0E0B0E04DDC1E2FAE8142
:10216600BF8152960E94731E3DC00E946E1EDE0104
:10217600169691DE1E2F1030A9F5AE81BF81C5DD02
:102186001E2FAE81BF8154960E941121E385E47013
:102196000E2F103039F0143011F4003009F001C060
:1021A60015E020C00030F1F4AE81BF8152962D912A
:1021B6003C91F901E385E07111F415E013C00E942A
:1021C600781E0E94A5207F936F93FF93EF930E9442
:1021D6007B1EAF91BF918F919F910E94801E0E949E
:1021E600681EC3CFE12F0E947621289608950E948B
:1021F6004721EC81FD81A181AA93ED81FE81F296B2
:10220600FA93EA93EB81FC816D817E810E943E1CEC
:1022160011F0E3E01CC0EC81FD810E94851E11F0E7
:10222600E2E015C0AC81BD81A859BF4F0E948F1E48
:1022360011F4E0E00CC0EC81FD81F296EE5AFF4FFE
:10224600DF010E948F1E11F4E0E001C0E1E0269656
:102256000895AA9364970E946D21AD8DBE8D0E944C
:102266001121E887F987A885B985EC91E0530E2FEF
:102276000A3020F41196AC91AA3309F00AC0E88519
:10228600F9853296E887F987AD8DBE8DED93FC937F
:1022960002C00091970A013010F0EBE0CBC1E02FAD
:1022A6000E949D1E0E94341EAB8DBC8DED93FC9347
:1022B600EE81FF81309711F4ECE0BCC1AE81BF81A5
:1022C600EC91E03089F0EE81FF81A1810E94130636
:1022D6005E2F50FD09C0EA8DE03011F052FD01C0BD
:1022E60002C0EAE0A7C1A5C1AE81BF81E0E0EC93E0
:1022F600E02FAE81BF811196EC93EE81FF81A18123
:102306000E943D055E2F50FF02C0E3E093C1EA8DB7
:10231600E03011F052FD01C002C0EAE08BC10E941C
:102326006E1E0E94031CE88FF98F6A8F7B8FDF0178
:10233600CB015DDF1E2F1130D1F4EE81FF81F296C5
:10234600E254FE4F9F01F901E481E03081F0D901AA
:1023560018960E941521EE8BFF8B688F798F0E944D
:102366006E1EA88DB98D8A8D9B8D41DF1E2F133071
:1023760011F4E1E05FC1103049F4AE81BF81DD9612
:102386000E941121E030A2E0FA0711F0EDE052C1FF
:10239600AE81BF81A85BBF4F0E94D51C0E94A51EBF
:1023A6000E949C1D0E94592141F4AE81BF81AA5A08
:1023B600BF4F0E9415210E94A51E0E949C1DAE8142
:1023C600BF815A960E942021EE81FF81EE5BFF4F6E
:1023D600E081AE81BF811396EC93EE81FF81E381AC
:1023E600F0E00E94731D0E94AA200E94AF200E9466
:1023F600A51E0E94AA1E0E94B11EAE81BF819296A2
:102406000E942021EE81FF81E7ADAE81BF81129649
:10241600EC93AE81BF81AD5BBF4F0E941121AE81AF
:10242600BF811896ED93FC93AE81BF81AB5BBF4F26
:102436000E94D51CEE87FF87688B798B0E945921F5
:1024460051F4AE81BF81AE5ABF4F0E941521EE876F
:10245600FF87688B798B0E94AA1E0E94E61C66275E
:1024660077270E94A11D0E94731D0E9451207F9311
:102476006F93FF93EF930E94B61EAF91BF918F911A
:102486009F91662777270E945620EE81FF81E28181
:10249600F0E00E94AA200E94E820EE5FFF4F6F4FF7
:1024A6007F4FEA87FB876C877D87AE81BF815E960B
:1024B6000E94202111E00E94091DA73FEFE0BE0700
:1024C600E0E08E07E0E09E0708F012E00E94091D9A
:1024D600A73FEFEFBE07E0E08E07E0E09E0708F0BB
:1024E60013E0133039F4AE81BF81A25ABF4F0E9468
:1024F600152102C00E94BE1EAE81BF8196960E9423
:1025060020210E94BE1E7F936F93FF93EF930E943C
:10251600B61EAF91BF918F919F910E94D01DAE8143
:10252600BF819A960E942021AE81BF811E960E948D
:10253600E11C0E942021AE81BF811496E0E0EC935D
:10254600133009F05FC0AE81BF811596EC93AE8162
:10255600BF81AE59BF4F0E9411210E94B11EAE81AC
:10256600BF8152960E942021EE81FF81A181AA930C
:10257600EF81F885F296FA93EA93E985FA850E9447
:10258600741C0E941D06E03011F5EE81FF810E9449
:10259600851EE9F4AE81BF81D2960E941521E235EF
:1025A600A2E5FA07A1E66A07A1E47A0781F4EE81BB
:1025B600FF81F296EC51FE4FDF010E941521E237B2
:1025C600A2E7FA07A1E46A07A1E67A0709F01AC0AA
:1025D600EE81FF81F296E451FE4FDF010E94152144
:1025E600AE81BF811A960E942021EE81FF81F2966C
:1025F600E851FE4FDF010E941521AE81BF811E9674
:102606000E942021AE81BF811C939E960E94571C7A
:10261600AE81BF8156960E94571CA5E9BAE0ED919E
:10262600FD913196FE93EE93AE81BF811696ED93A2
:10263600FC93E0E00E9474216F960895BA93AA93E2
:10264600EA81FB81309771F0AA81BB81EC91E03081
:1026560049F0EA81FB81A681B781E881F981EA1711
:10266600FB0711F0E9E00AC0EA81FB81A1810E9423
:102676001306E17011F0E3E001C0E0E0249608954E
:10268600BA93AA931A930A93AC81A13010F0EBE0A7
:1026960020C0EC810E949D1E0D911C91002E012AE6
:1026A60019F0D801E0E0EC93EA81FB81309721F044
:1026B600AA81BB81E0E0EC93EC81A3E9BAE0F0E00B
:1026C600EE0FFF1FEA0FFB1FAA81BB81A083B18318
:1026D600E0E01981088125960895AA93A2970E94A1
:1026E6006F21A9A5BAA50E94731EEEA1EF71EEA3F4
:1026F600FE01B7960E94C51EEAA5EE71AE2F0E9496
:10270600CC1E11F0E12F0CC10E94D11EA9A5BAA5BD
:10271600EADC1E2FEEA1EC7109F497C02897103061
:1027260089F0143021F4DE01589645DB1E2F103057
:1027360019F0E12F2896F4C0EEA5E860EEA72AA5C9
:102746003BA56AC0EEA5E47019F0E8E02896E8C05B
:102756002AA53BA5022E032A21F0F901E385E171A2
:1027660019F0E7E02896DCC0EEA5E87009F454C03D
:102776000E94781E0E94A5207F936F93FF93EF938C
:102786000E947B1EAF91BF918F919F910E94801EE8
:102796000E94591DF9017496A0E0B0E0A083B183B0
:1027A600F9017A96A083B183F9017C960E944D1CAB
:1027B6000E943D21A88DB98D1496E1E0EC93A88D79
:1027C600B98D9E960E948E1C0E94661D0E945921FC
:1027D600C9F0E88DF98DFA93EA930E94AD1D0E9427
:1027E600AC0B1E2F103019F0E12F289699C00E94CD
:1027F600661DE150F04060407040A88DB98D1A9674
:102806000E942021E88DF98D0E94DA1E0E94521C3A
:1028160019F0E12F289684C0EEA5E870A1F0F90121
:102826003B96A0E0A0830E94C4080E94F11DD90136
:102836001E960E942021A88DB98D1496E1E0EC9396
:10284600EEA5E062EEA7289617C0103011F0E12F32
:1028560067C00E94E11E21F0F901E385E07111F0E5
:10286600E4E05EC0EEA1E27021F0F901E385E170DB
:1028760009F402C0E7E054C0A889B9899E960E946F
:102886001521A9A5BAA55A960E942021EAA1FBA165
:10289600A9A5BAA55E96ED93FC93EEA1A9A5BAA546
:1028A6001496EC930E94781E0E94A5207F936F9346
:1028B600FF93EF930E947B1EAF91BF918F919F91E3
:1028C6000E94801EA9A5BAA51E960E942021D901A4
:1028D6005C960E941521A9A5BAA51A960E942021E8
:1028E600A9A5BAA516960E94571CA9A5BAA515961C
:1028F600EFEFEC93A9A5BAA556960E94571CE88956
:10290600F989A9A5BAA5ED93FC93A889B989169664
:102916000E941121A9A5BAA51296ED93FC93E0E0B9
:102926000E947621AB960895BA93AA932E970E9499
:102936006D21E88DF98DEE83FF83AC89BD890E94F8
:10294600731E0E94E61EEC8DFD8D0E94E91E11F09D
:10295600E12F4EC1EA8DFB8DA481A07811F0E2E053
:1029660047C1EA8DFB8DA481A17011F4E7E040C157
:10297600EA8DFB8DA285B385848595859F938F937C
:10298600BF93AF930E94F01EEF91FF916F917F91DD
:102996000E9451200E948E1D0E94391CAE89BF895B
:1029A600882799270E94632120F4E885F985EE8B14
:1029B600FF8BEE89FF89309709F419C10E94F01E3A
:1029C600FD01BC01F170309709F0DDC0EA8DFB8D89
:1029D60005800E94F71E0E16B8F10E94F01E0E9496
:1029E6005D2131F4AA8DBB8D1E960E94152106C06D
:1029F6000E94E61E0E94FD1E0E94910AE88BF98B3A
:102A06006A8B7B8BA889B9898A899B890E94811CDC
:102A160020F40E94041FE2E0EBC0A889B9898A89E4
:102A26009B890E943E1D21F40E94041FE1E0E0C044
:102A36000E945C1DAA8DBB8D52960E942021AA8DF4
:102A4600BB8D1596E0E0EC930E94E61E0E94FD1EEB
:102A56000E94C60C0E940B1F0E94981D21F40E9422
:102A6600041FE2E0C5C00E94101F0E947F1D0E9445
:102A7600AA200E9447200E940B1FAE89BF890E9490
:102A8600151F09F447C00E94101FE40FF51F0F0120
:102A96000E94F71ED001F0E0EA17FB0748F40E94F7
:102AA600F71EF0E0DF010E94101FAE1BBF0BAD0149
:102AB6000E941D1FEF81F8850E94241F0E9442215B
:102AC600A42F0E941D06E03021F00E94041FE1E0C1
:102AD6008FC0EA8DFB8DA481A07429F00E942B1F64
:102AE6000E94321F08F011C00E942B1F0E943A1F3D
:102AF600AE81BF810E94431FEC8DFD8DB096FA9387
:102B0600EA93A0E0B2E00E944509AA8DBB8D0E941F
:102B16004A1F59C0EA8DFB8DA481A074A1F00E94C2
:102B26001D1FEB8DFC8DB096FA93EA93ED8DFE8D0D
:102B36000E94551F21F00E94041FE1E059C0AA8D92
:102B4600BB8D0E94601F0E942B1F0E94632171F0A3
:102B56000E941D1FEB8DFC8DB0960E94241F0E94C3
:102B66003E1C21F00E94041FE1E042C00E94841D29
:102B7600AA8DBB8D56960E942021AA8DBB8D1596D7
:102B8600EC91EF5FEC93AA8DBB8D0E94651FA0E0D0
:102B9600B2E0AE1BBF0B9D01EE89FF89E217F3077A
:102BA60010F42E893F890E946E1EAC8DBD8D0E9449
:102BB600651FAC8DBD8D9096EA0FFB1FFA93EA93C5
:102BC600D9010E9445090E946A1FEA8DFB8D0E9469
:102BD600721FD0010E942021AC89BD890E947B1FF3
:102BE600EE89FF89E21BF30BEE8BFF8BE2CEE0E072
:102BF6000E9474216C960895BA93AA932A970E940C
:102C06006D21EC89FD89EE83FF83A889B9890E942D
:102C1600731E0E94821FE88DF98D0E94E91E11F035
:102C2600E12F95C1EE89FF89A481A07811F0E2E039
:102C36008EC1EE89FF89A481A27011F4E7E087C1F5
:102C4600EE89FF89A285B38584859585EA89FB8906
:102C56000E94D01D7F936F93FF93EF930E94851F71
:102C6600AF91BF918F919F910E94682118F4E0E087
:102C7600EA8BEB8BEA89FB89309709F44EC10E94F7
:102C86008B1FFD01BC01F170309709F00AC1EE8976
:102C9600FF8905800E94921FE2810E1608F44AC041
:102CA600AE89BF8916960E9415210E945921C1F44A
:102CB600AE89BF891E960E9415210E940B1F0E9495
:102CC600981D69F40E94821F0E944D1C0E94050CEB
:102CD6000E940B1FAE89BF891E960E94202108C044
:102CE6000E94821F0E94971F0E94050C0E940B1FC4
:102CF6000E94981D09F411C10E947F1D0E94361D75
:102D060021F40E949E1FE2E022C10E947F1D0E94C4
:102D16003E1D21F40E949E1FE1E019C10E94841D00
:102D2600AE89BF8952960E942021AE89BF89159629
:102D3600E0E0EC93EE89FF89A481A07489F00E94FB
:102D4600921F0E94A51FE98DFA8D0E94551F21F042
:102D56000E949E1FE1E0FBC0AE89BF890E94601FF2
:102D66000E94821F0E94971F0E94C60C0E948E1D01
:102D76000E94391C0E94592121F40E949E1FE2E004
:102D8600E6C00E94AD1F0E947C1C0E94AA200E94E1
:102D960047200E948E1DAA89BB890E94151F09F42F
:102DA60055C00E94AD1FE40FF51F0F010E94921F30
:102DB600E281D001F0E0EA17FB0750F40E94921F6F
:102DC600E281F0E0DF010E94AD1FAE1BBF0BAD013B
:102DD6000E94921FE181EA93EF81F885FA93EA93C4
:102DE600EB85FC856D857E850E944221A42F0E947D
:102DF6008106E03021F00E949E1FE1E0A8C00E94FB
:102E0600B21F0E94321FE8F4EE89FF89B096FA934A
:102E1600EA93E88DF98DA689B789808D918DEA852B
:102E2600FB856C857D850E943A1FA885B9850E9421
:102E3600431FA0E0B2E00E944509AE89BF890E9407
:102E4600601FAE89BF890E944A1F53C00E94B21FED
:102E56000E946321C9F00E948B1F0D010E94851FED
:102E6600D0010E94682158F40E94921F0E94A51F5B
:102E7600EB85FC856D857E850E943E1C09F404C0A9
:102E86000E949E1FE1E063C00E94391CAE89BF8983
:102E960056960E942021AE89BF891596EC91EF5F68
:102EA600EC93AE89BF890E94651FA0E0B2E0AE1B1D
:102EB600BF0B9D01EA89FB89E217F30710F42A8903
:102EC6003B89AE89BF890E94651FAE89BF899096EE
:102ED600EA0FFB1FFA93EA93E885F985FA93EA93DA
:102EE600D9010E944509AE89BF891496EC91E06428
:102EF600EC930E946A1FEE89FF890E94721FD0011F
:102F06000E942021A889B9890E947B1FEA89FB8932
:102F1600E21BF30BEA8BFB8BADCE0E948B1F0D01E0
:102F26000E94851FD0010E94632150F4AE89BF899B
:102F360016960E941521AE89BF891A960E942021F5
:102F4600AE89BF891496EC91E062EC93E0E00E94B2
:102F5600742168960895BA93AA9324970E946F21C4
:102F66000E94B21DFA93EA93EA85FB850E94E91E48
:102F760009F06FC0E885F985A481A07209F469C0DB
:102F8600A481A074A9F00E94B21DE181EA93E985AB
:102F9600FA85B096FA93EA93EB85FC850E94551F55
:102FA60019F0E1E00C94A51BA885B9850E94601F65
:102FB6000E94B21DFA93EA93EA85FB85A28DB38D32
:102FC600848D958D0E94521C09F043C0A885B98551
:102FD6005E962D913C91D9011B96EC91E062EC93A3
:102FE600A885B9851A960E941521D9015C960E947A
:102FF6002021A885B9851E960E941121D9015A96CD
:10300600ED93FC93E885F985A685B7858089918936
:10301600FD01BC010E94A020D9015496ED93FC93BA
:103026000E94C4080E94F11DD90156960E942021D3
:10303600A885B9851496EC91EF7DEC930E94B21D9C
:103046003496A1E0A0830E94B21DDF010E94290AE6
:103056001E2FE12F0C94A51BBA93AA931A93A9814C
:10306600BA8179DF1E2F103021F4A981BA810E941E
:10307600731EE12F18810C944D1BBA93AA93A29745
:103086001A93FE01B596FA93EA93FE013F96FA93D8
:10309600EA93A0E00E94CC1EE9F4FE013196E9A372
:1030A600FAA3FE013D96FA93EA93AFA1B8A50E9452
:1030B60076101E2F103071F4EF8DF8A1309749F07D
:1030C600FE013D96FA93EA93ADA1BEA10E94FA0FC6
:1030D60001C016E0E12F1881A7960895BA93AA9326
:1030E600EC970E946F21FE01E05CFF4F0E94B91F22
:1030F600A1E00E94CC1E09F081C0FE013896EEAF19
:10310600FFAFFE01BA96FA93EA93DE01AE5BBF4FBC
:103116000D90BC91A02D0E94C01F39F0103029F4EB
:10312600EEADFFADE385E07209F401C016E01030A4
:1031360009F064C02CAD3DAD022E032A11F4E6E081
:103146005EC0F901E385E17011F0E7E058C00E9426
:10315600781E0E94A5207F936F93FF93EF930E94A2
:103166007B1EAF91BF918F919F910E94801E0E94FE
:10317600691DF901E385E07139F10E94611D0E9424
:10318600811C10F4E2E03BC0FE0174960E94B91F58
:10319600A6E1B0E00E9445090E94891DEA8FFB8FD7
:1031A6006C8F7D8FFE017496FA93EA93A2E00E94DB
:1031B600081E21F5DE0154960E94B00E1E2F103017
:1031C60009F417E01430D1F4DE019A960E94260F16
:1031D6001E2F103099F40E94891D0E94592139F042
:1031E600EAA5FBA50E94DA1E0E94AC0B1E2F10302A
:1031F60029F4AAA5BBA50E94290A1E2FE12F0E9429
:103206007621EF9623960895AA930E94C61FA1E001
:103216000E94CC1E41F50E94D11EAAA5BBA50E9404
:10322600C01F39F0103029F4ECA1FDA1E385E0724E
:1032360009F401C016E01030B1F40E94E11E11F449
:1032460016E011C0EEA1E772EEA3AFA1EA230E2E9F
:10325600F901A385EEA1E095EA23E029D9011B96A1
:10326600EC930E94CC1F33C0BA93AA930E94C61F48
:10327600A1E00E94CC1E59F50E94D11EAAA5BBA5AD
:103286000E94C01F39F0103029F4ECA1FDA1E3859E
:10329600E07209F401C016E01030C9F40E94E11E84
:1032A60011F416E014C0AEA1BFA116960E9411211A
:1032B600D9015696ED93FC93AEA1BFA114960E9438
:1032C6001121D9015896ED93FC930E94CC1FE12F52
:1032D6000E947621AA960895AA935D9BFECFE88167
:1032E600ECB921960895BA93AA93AA81F5DFA8812D
:1032F600B981ED91FD913196FE93EE93CBC1BA93D0
:10330600AA932B970E946D2110E0A989BA890E9481
:10331600731EEF89F88D3196EF8BF88F3197E49114
:103326002E2FE03009F45DC1E12FE03039F425326B
:1033360011F411E002C00E94D71F52C1E130A9F476
:10334600253219F40E94D71F4AC112E040E000E07E
:103356002D3211F401E044C12B3211F44BE240C18D
:10336600203211F440E23CC102C0E23039F450E0B0
:1033760013E0203311F4006833C102C0E33091F446
:10338600203310F02A3308F007C0AAE05A9F502DC8
:10339600E22FE0535E0F24C12C3619F4026015E0CB
:1033A6001FC103C0E53009F01BC1E22FE33649F423
:1033B6000E94DE1FED89FE89A481AA930E94E41F64
:1033C6000EC1E33769F40E94DE1FAD89BE891496EB
:1033D6000E94341EAE81BF810E94A91B1E2F0FC002
:1033E600E03791F40E94DE1FAD89BE8914960E94D3
:1033F600341EAE81BF810E94B51B1E2F08600F7759
:10340600E0E0E88B30E068C0E43611F0E93611F40C
:10341600046002C0E537A1F4EAE0E88B01FF08C0CA
:10342600E0E0FAEC6AE97BE30E948E1D1AE022C016
:10343600E0E1F7E260E070E00E948E1D15E01AC040
:10344600E83511F4086003C0E83709F0C8C0E0E1C8
:10345600E88B01FF08C0E0E0F0E060E070E10E9468
:103466008E1D18E007C0E0E0F0E160E070E00E9429
:103476008E1D14E001FF08C00E94DE1FAD89BE89C3
:1034860014960E94152113C002FF0AC00E94DE1F77
:10349600AD89BE8914960E9411210E94AA2007C0F8
:1034A6000E94DE1FAD89BE8914960E94D51CEC874A
:1034B600FD876E877F8702FF0FC0AF85AA233AF488
:1034C6000E94841D0E9460200E940B1F4DE2403026
:1034D60011F01F5F01C00B7F00FD11C0151778F4B6
:1034E60007FF08C002FF04C00B7F242F115001C044
:1034F60020E301C020E20E94D71F5150EFCF312FA9
:10350600E889E030B9F43030A1F003FF06C0EE815F
:10351600FF812591EE83FF8305C0AE81BF812D918A
:10352600AE83BF830E94D71F503009F051503150EF
:10353600EACF4BC00E94391C0E947F1D0E94E820E2
:103546002E2F2A3030F003FF02C0295C01C0295A11
:1035560001C0205D04FD1BC0213328F40E947C1CA1
:103566000E94361D09F409C0531710F000FF01C070
:1035760013C020E207FF0BC020E3006102FF07C073
:103586000B7F4A930E94E41F503009F051500E946D
:10359600D71F503009F0515031500E94391C0E94FB
:1035A6007F1D0E940D210E940B1FE8890E947C1C32
:1035B600FF27662777270E94E8200E948E1D0E941B
:1035C600391C0E94592109F0B5CF00FF08C05030C0
:1035D60031F05150E0E2EA930E94E41FF8CF10E088
:1035E60098CEA989BA890E9411210E9474216996F0
:1035F6000895FF92F82E26971A930A93DE011496E1
:103606000E9443208D01E0E0EC83ED83EE83EF839F
:10361600DE0118960E9443200E942F1E1A930A93D9
:10362600E6E7F9E1FA93EA93DE01189668DE198176
:1036360008812896FF900895AA931A930E94EA1F7C
:103646000E94F71FA3EA0E942B20A0E00E941020F0
:103656001E2F0E940620E12F188126C0AA930E94E1
:10366600EA1FA8810E942B200E9406201DC0E0E0D0
:10367600EA93A0E0F3DF0895AA93E1E0EA93AB8131
:10368600EDDFEDE0EA93AA81E9DFEEE0EA93A981B6
:10369600E5DFEDDF23960895AA93A981CDDFA88102
:1036A600EA23AE2F0E94C21B22960895BA93AA93CC
:1036B6001A93A2E0C1DF1E2FE12FEF77AE2F0E94F3
:1036C600C21BA981BA81EC9317FF02C010E001C0AA
:1036D60011E0E3E0EA93AFE7DFDFAB81BC81EC9377
:1036E600E4E0EA93AFE3D8DFAD81BE81EC93E12F4E
:1036F6001881279608950E940E1C2CE637E0E5E017
:10370600EA93AFE3C9DFA885B985EC93A7E094DF18
:103716001E2FE12FEF71AE2F0E94C21BAE81BF811B
:10372600EC9317FF02C020ED37E0E8E0EA93AFEF35
:10373600B3DFAE2FF901B0E0EA0FFB1FAC81BD810C
:10374600ED93FC930E9476212A960895BA93AA9344
:10375600A991B991EE27FF276D91662311F0319655
:10376600FBCF0895BA93AA93AA27BB27E991F991AB
:103776000590002011F01196FBCFFD010895AA9344
:10378600E881E295EF70AE2FAA0FAA0FEA0FEE0FAF
:10379600A991AF70EA0F0895662777270E94422104
:1037A600089584E00E94FC1A26960895FF2766274E
:1037B60077270E944221E0915E090895E6E3F7E04B
:1037C600FA93EA930895ECE6F9E0FA93EA930895FA
:1037D600FA93EA93ECE6F9E0DFCFA6E3B7E00E94BE
:1037E6002F185E2EE0300895ACE6B9E00E943B0249
:1037F600EACFEA93A1E00E9407195E2EE030089511
:10380600E0E0F0E060E070E00895F0E00E94AA20B9
:10381600DF01CB010895BA93AA930E946F21089500
:10382600E983FA836B837C830895ED81FE816F8142
:1038360078850895A981BA818B819C810895E9854F
:10384600FA85A181AA93EA85FB85F296FA93EA9313
:10385600EC81FD816E817F810E944221A1E00C9462
:103866008106A2A1B3A184A195A10895E885F98551
:103876006A857B8508950E944221A1E00E941D066B
:10388600E0300895BA93AA931A93E981FA81FA93DC
:10389600EA930895A0E0B0E080E090E008950E94E9
:1038A600C0091E2F10300895ABDF0E942021089515
:1038B600F296FA93EA93E0E0F0E0FA93EA93A0E056
:1038C600B2E00C9461090E943D21E981FA81F296E9
:1038D60008950E941521D0010E942021E981FA81D4
:1038E6000895A289B389848995890E944721A1E018
:1038F6000895A885B9858A859B850895A230E0E05C
:10390600BE07E0E08E07E0E09E070895E1E0F0E004
:1039160060E070E008950E941521EC83FD836E83BC
:103926007F830895EC85FD85FA93EA93D901E0E05B
:10393600F2E00E94D520AE81BF81888599856627F1
:1039460077270E944C200E94C009E0300895AC857C
:10395600BD85D296F901F170AE0FBF1F0895EC85B3
:10396600FD85FA93EA93AA85BB858C859D85089586
:10397600E0E0F1E060E070E00E94E8200895AE81AA
:10398600BF81888599850E944C200E94C009E0303D
:1039960008950E94CF20F170AC85BD85D296AE0FFA
:1039A600BF1F08950E941121662777270895E0E832
:1039B600F0E060E070E00E94E8200895EFEFFFEF8E
:1039C6006FEF7FEF0895AE85BF8588899989089541
:1039D600EA89FB89FA93EA93D801E0E0F2E00E94D3
:1039E600D52087DF662777270E944C200E94C009D2
:1039F6005E2F50300895AA89BB89D296F801F170DE
:103A0600EA0FFB1F9F01EE85E1700895AA85BB852D
:103A16008C859D850895EA89FB89FA93EA93A8899E
:103A2600B9898A899B89089564DF0E944C200E9487
:103A3600C0095E2F503008950E94CF20F170AA89E8
:103A4600BB89D296EA0FFB1F0895AD81BE818F8197
:103A560098850895A985BA855E960E941521F5DF99
:103A66000E9468210895A130E0E0BE07E0E08E07DD
:103A7600E0E09E070895AF3FEFEFBE07EFEF8E073A
:103A8600EFEF9E070895A685B78580899189F3CFC4
:103A9600A985BA851E960E941B21EF5FFF4F6F4FC7
:103AA6007F4F0E942521A985BA8508950E94382155
:103AB6000895E889F9896A897B890895AC81BD8171
:103AC6008E819F8108950E942E210895EC83FD83A7
:103AD6006E837F830895EC89FD89FA93EA930895AE
:103AE600AA89BB898C899D8908950E94910AEC87D1
:103AF600FD876E877F870895AC85BD858E859F85FA
:103B06000895EC85FD856E857F850895EC81FD81A0
:103B16006E817F810895E887F9876A877B87089594
:103B2600F5DFE7DE0E9463210895EBDF0E9459214D
:103B36000895EA89FB896C897D8908950E944C2144
:103B46000E94512008950E941521EA83FB836C830D
:103B56007D830895AA81BB818C819D810895A88566
:103B6600B9850E94112108957E96DF010E941521D4
:103B7600F1DF0E9468210895EA81FB816C817D81D5
:103B86000E9459210895EA81FB816C817D81A88577
:103B9600B9851A960E942021E2CF662777270E94D0
:103BA60047200895EF70F070EE0F0E948920EA0F0B
:103BB600FB1F08951E960E9415210E945921089503
:103BC600A985BA850E9411210895FA93EA93EB8597
:103BD600FC85A285B38584859585089577DF96CF84
:103BE600FA93EA9357DE0E94C009E0300895FA93EB
:103BF600EA93AE81BF81888599850C94C60CEC81C9
:103C0600FD81FA93EA93A0E00895B0E00E94FE0CCD
:103C16001E2F10300895AC81BD810E941121FA93A8
:103C2600EA93EE81FF81A685B7858089918937CE93
:103C3600AC81BD8152962D913C91D9010C910030F9
:103C460008953A932A93EE81FF81A489B589BA93A0
:103C5600AA93ABE0B0E008950E941121FA93EA938B
:103C660008950E941121EE83FF830895E885F98562
:103C7600AE81BF810895E885F9853196E887F98791
:103C86003197AE81BF81AE0FBF1F0C910895E22F11
:103C96002F5FF0E0E40FF51F00830895EA0FFB1F86
:103CA600AB85BC85ED93FC9301320895DA01EE27CE
:103CB600A10FBE1F0C9100320895EE81FF8131964F
:103CC600EE83FF83319700830895AE81BF811696F8
:103CD6000E9420210895EE81FF81FA93EA930895C8
:103CE600E0E0F0E0ED93FC930895D90154965ACEA6
:103CF600D9015A960E9411210895662777270E94B6
:103D06005B200895F296E250FE4FDF010E941121DA
:103D1600E535AAEAFA0708950E941521EF7FFF7F8D
:103D26006F7F7070E634A1E4FA07A4E56A07A0E0A5
:103D36007A070895A3E9BAE0F0E0EE0FFF1FAE0F91
:103D4600BF1F0895EA8BFB8B6C8B7D8B0895AE812C
:103D5600BF81A05CBF4F0E9411210895AE89BF8923
:103D6600888D998D1ACFEE81FF81A085B185FD01E1
:103D76000E9492200895EE81FF8173DDDADE0E94B3
:103D860047200895FA93EA93FE017296FA93EA930E
:103D960008950E942C111E2F10300895FE013496AE
:103DA600ECA3FDA3FE017096FA93EA930895FA93A5
:103DB600EA93AE81BF818885998508952AA13BA1A2
:103DC600022E032A0895AA8DBB8D46CFA281B38108
:103DD6000E9421131E2F10300895EA8DFB8DA681B7
:103DE600B781808591850895AA8DBB8D0E9411218A
:103DF600E2810895EC8DFD8DA289B3898489958928
:103E06000895AA8DBB8D1496EC91E068EC93089505
:103E1600EC87FD876E877F870895EA8DFB8DE581A8
:103E2600F0E00895E0E0F2E00E94D520AF01042E14
:103E3600052A0895AA8DBB8D0E941121E181EA937E
:103E46000895FA93EA93EF85F88969897A8908953E
:103E5600EA8DFB8DA689B789808D918D52CE0E9401
:103E66005620FA01662777270E94682108950E9446
:103E76005620E0E0F2E060E070E00E94AF20089596
:103E860088279927EA0FFB1FFA93EA930895159658
:103E9600EC91E40FEC93FA01EE0FFF1FFE2FE0E02A
:103EA6009F010895A689B789808D918D0E9447212B
:103EB600A1E00E948106E03008951496EC91EF7B14
:103EC600EC93089516960E941121F1700895F90158
:103ED600AE81BF81EA0FFB1FEE83FF8308953696FE
:103EE6000F01DF010E941521DF01CB01F90155CE3B
:103EF600ED91FD91E20FF31FFE93EE930895AE89C7
:103F0600BF89AACEAE89BF891A960E941521089547
:103F1600EE89FF89A681B781808591850895AE894E
:103F2600BF890E9411210895E88DF98DA289B38970
:103F3600848995890895AE89BF891496EC91E068C5
:103F4600EC930895E181EA93EF89F88DB096FA93A0
:103F5600EA930895EE89FF89E581F0E00895EE89F8
:103F6600FF89A689B789808D918D80CCFA93EA93D3
:103F7600FE01BC96FA93EA9308950E9476101E2FCE
:103F8600E1E0E0300895A2970E946F21FE01B89605
:103F9600F9CEA889B9891496E1E0EC93A889B98984
:103FA6000E94290A1E2F08952A93AA89BB89EC89A3
:103FB600FD8909950895ED89FE893497ED8BFE8B71
:103FC6000895AA89BB89EC89FD89099508950E94FF
:103FD600F71FA2EA0E942B20A9810C942B2090980F
:103FE6009198889A899815C089988898EE27000034
:103FF600819B0895809B089504D0899A02D0889A5F
:10400600E1E069E107C0899A889A03D08898F9DFC8
:10401600899861E36A95F1F7089578E08898F1DF69
:10402600809BFECFEEDF889481990894889AF1DF11
:10403600EE1F7A9599F77A2F772311F4899801C0A4
:10404600899ADFDF8898E5DF889ADBDF8998D9CF00
:1040560078E0AA0F10F4899801C0899ADADF889867
:10406600D0DF809BFECFCDDF889A7A9591F789982D
:10407600C8DF8898CEDFE1E08199EE27889AC1CF24
:104086000024AF0DB01D0895EA0FFB1F681F791FAE
:104096000895AE0FBF1F861F971F0895EA1BFB0BDF
:1040A600680B790B0895AE1BBF0B860B970B089513
:1040B600EA2BFB2B682B792B0895F095609570956C
:1040C600E195FF4F6F4F7F4F0895EE230E2EFD01B2
:1040D60021F0F695E7950A94E1F70895EE230E2E62
:1040E600FD01BC0131F0EE0FFF1F661F771F0A941A
:1040F600D1F70895EE230E2EFD01BC0131F0769521
:104106006795F795E7950A94D1F70895EE0FFF1F87
:10411600EE0FFF1FEE0FFF1FEE0FFF1F0895F69520
:10412600E795F695E795F695E795F695E79508955B
:10413600EE0FFF1F661F771F0895E62FF72F60E02B
:1041460070E008956E2F7F2FE0E0F0E008956F2F66
:10415600660F660B762F08957A9F702D6B9F700DF4
:10416600F89F700DE99F700D6A9F602D710DFB9F82
:10417600600D711DE89F600D711D8827FA9FF02D57
:10418600610D781FEB9FF00D611D781FEA9FE02DF2
:10419600F10D681F781F08956E2F6A9FF0016B9FBF
:1041A600F00D08950024112490E1AA0FBB1F001CF6
:1041B600111C0E1A1F0A18F40E0E1F1E01C0A16054
:1041C6009A9599F7FD01D00108953F934F935F9318
:1041D600002411244427552730E2AA0FBB1F881F4D
:1041E600991F001C111C441F551F0E1A1F0A460B4F
:1041F600570B28F40E0E1F1E461F571F01C0A16045
:104206003A9559F7FD01BC01D001CA015F914F9162
:104216003F910895DADFFD01BC010895ED91FC910F
:1042260011970895ED91FD916D917C9113970895E5
:10423600ED91FD916D917D910895ED93FD936D93B3
:104246007C9308957E936E93FE93EE930895059066
:10425600F491E02D0895E881F9816A817B810895C2
:10426600A881B9818A819B810895E883F9836A834D
:104276007B830895A083B1838283938308957A9381
:104286006A93FA93EA9308959A938A93BA93AA93B0
:104296000895182E862F612D192E972F712D1B2EFE
:1042A600BF2FF12D1A2EAE2FE12D089530976040C5
:1042B6007040089500240A160B060806090608959C
:1042C600EA17FB07680779070895AE17BF07860741
:1042D600970708955A934A933A932A931A930A93FF
:1042E60008955D814C813B812A8119810881089559
:00000001FF
