:0A0000000C9420020C9400000C94F4
:10000A0000000C9400000C9400000C9400000C9466
:10001A0000000C94C9020C9400000C9400000C948B
:10002A0000000C9400000C9400000C9400000C9446
:10003A0000000C9400000C9400000C9400000C9436
:10004A0000000C9400000C9400000C9400000C9426
:10005A0000000C9400000C9400000C9400000C9416
:10006A0000000C9400000C9400000C9400000C9406
:10007A0000000C9400000C9400000C9400000C94F6
:10008A0000000C9400000C9400000C9400000C94E6
:10009A0000000C9400000C9400000C9400000C94D6
:1000AA0000003E013F014B01560163016E017901D7
:1000BA00890193019C01AE01C101D201E101F20162
:1000CA00020220222A2B2C5B3D5D7C7F000000046B
:1000DA000002000180004000200010000800040017
:1000EA0002000000008000400020001000080040CC
:1000FA0000200010000800040002303A2F66696CE4
:10010A00652E7478740049206C696B6520436F64AE
:10011A0065566973696F6E4156522120486572654A
:10012A00277320736F6D65206D6F72652074657813
:10013A00742E2E2E0046525F4449534B5F4552524D
:10014A000046525F494E545F4552520046525F4E36
:10015A004F545F52454144590046525F4E4F5F46E5
:10016A00494C450046525F4E4F5F50415448004645
:10017A00525F494E56414C49445F4E414D450046F7
:10018A00525F44454E4945440046525F45584953DB
:10019A00540046525F494E56414C49445F4F424AC9
:1001AA004543540046525F57524954455F50524F97
:1001BA005445435445440046525F494E56414C49C2
:1001CA00445F44524956450046525F4E4F545F457C
:1001DA004E41424C45440046525F4E4F5F46494CA1
:1001EA004553595354454D0046525F4D4B46535F54
:1001FA0041424F525445440046525F54494D454F7F
:10020A005554004552524F523A2025700D0A004665
:10021A00696C653A2025732C204174747269627581
:10022A007465733A20256325632563256325630D69
:10023A000A446174653A20253032752F25303275AB
:10024A002F25752C2054696D653A20253032753A70
:10025A00253032753A253032750D0A53697A653A76
:10026A0020256C752062797465730D0A0046696CE5
:10027A0065202573206F70656E6564204F4B0D0AEB
:10028A0000257520627974657320726561640D0AB0
:10029A00005265616420746578743A2022257322BD
:1002AA000D0A0046696C6520257320636C6F7365BF
:1002BA0064204F4B0D0A004C6F676963616C2064C0
:1002CA007269766520303A206D6F756E74656420A8
:1002DA004F4B0D0A0046696C6520257320637265D1
:1002EA0061746564204F4B0D0A005772697465206A
:1002FA00746578743120746F207468652066696C3F
:10030A00650D0A0025752062797465732077726914
:10031A007474656E206F662025750D0A0053656535
:10032A006B20746F2074686520656E64206F662088
:10033A007468652066696C65204F4B0D0A00417030
:10034A0070656E6420746578743220746F207468E6
:10035A00652066696C650D0A0025752062797465E9
:10036A007320617070656E646564206F6620257500
:10037A000D0A00526561642D4F6E6C7920617474A8
:10038A0072696275746520736574204F4B0D0A009B
:10039A004E65772074696D65207374616D702025D0
:1003AA003032752F253032752F257520253032755C
:1003BA003A253032753A2530327520736574204FEC
:1003CA004B0D0A00526561642D4F6E6C7920617481
:1003DA007472696275746520636C65617265642004
:1003EA004F4B0D0A00000100EBFE904D53444F5352
:1003FA00352E30004E4F204E414D452020202046BC
:10040A0041543332202020004E4F204E414D45208A
:10041A002020204641542020202020000B006C2858
:10042A00040116007828100118008F2826010100FF
:10043A00A829F0030000F894EE27F091CC01F860A7
:10044A00F093CC01F8EDF4BFE093A20080E090E1D4
:10045A00A0E0B0E2ED930197E9F7E6E2F4E08591D6
:10046A009591009761F0A591B59105901590BF01FE
:10047A00F00105900D920197E1F7FB01F0CFE0E062
:10048A00E0B9E1B9E2B9E3B93E2E4E2E5E2EEFEFA6
:10049A00EDBFEFE2EEBFC0E0D4E20C94F6031A938C
:1004AA000A930FB7F894E0915000E460E09350008B
:1004BA00E0915100E470E1F3E0915000E260E093D2
:1004CA005000E0914100E0781E2FE8EDE4BF109360
:1004DA004100E0915600E97FE0935600E091600008
:1004EA00E160E0936000E0915100E270E1F3E09195
:1004FA004000E87FE1601E2FE8EDE4BF1093400062
:10050A00E0915000E67EE0935000E091B400E07F75
:10051A00E093B4000FBF0991199108951A93E091DD
:10052A004300E17FED60E0934300E0910004E87F3F
:10053A00E09300041FB7F894E0910104E170E1F739
:10054A00E8E4F1E0E0930A04F0930B04E0E0F0E061
:10055A00E0930804F0930904E0930C04F0930D046B
:10056A001FBFE0910004E87FE160E0930004E0919E
:10057A00B400EF79E093B400E0910204E07FE16017
:10058A00E0930204199108950A921A92FA926A93D0
:10059A007A938A939A93AA93BA93EA93FA93EFB7C0
:1005AA00EA93C7D6E991EFBFF991E991B991A99177
:1005BA009991899179916991F99019900990189571
:1005CA00E8E0E0936106E0936506E3E0E093C4099E
:1005DA00E091C209E07CE093C209E5EFE093C60925
:1005EA00ECECE093C709E091C309E07EE860E09390
:1005FA00C3090895AA93E091C109E072E1F3E88181
:10060A00E093C0092FC4AA93A881A13010F0A031A9
:10061A0008F012C0EDE0F2E0FA93EA93EA81ACEA5C
:10062A00B0E0F0E0EE0FFF1FEA0FFB1F0E947423F9
:10063A000E94A21D0E94A71DFFCFBA93AA93E88128
:10064A00F981FA93EA93A6E5B8E20E94741A3E2E5B
:10065A00E03009F07AC0E9E1F2E0FA93EA93EFE5D3
:10066A00F8E20E94A21DE0915E28E07111F0E4E434
:10067A0001C0EDE20E94AC1DE17011F0E2E501C09B
:10068A00EDE20E94AC1DE27011F0E8E401C0EDE277
:10069A000E94AC1DE47011F0E3E501C0EDE20E9496
:1006AA00AC1DE07211F0E1E401C0EDE2FF2766271C
:1006BA0077270E948C23E0915A28F0915B28EF71EA
:1006CA00F0700E94A21DA0915A28B0915B28E5E023
:1006DA000E94AD22EF70F0700E94A21DA0915A28CC
:1006EA00B0915B28E9E00E94AD22E454F84F0E94E1
:1006FA00A21DA0915C28B0915D28EBE00E94AD227A
:10070A000E94A21DA0915C28B0915D28E5E00E949C
:10071A00AD22EF73F0700E94A21DE0915C28F09167
:10072A005D28EF70F070EE0F0E94A21DE09156282E
:10073A00F091572860915828709159280E948C236B
:10074A0084E30E942B1DE69602C0A32D5CDF22964D
:10075A0008950E94B41D0E94B91DA1E00E94BE1D09
:10076A0029F40E94C31D0E94A71D02C0A32D4BDFBE
:10077A000E94B41DE8EAF8E2FA93EA93EFEFF0E098
:10078A00FA93EA93ADB7BEB711975F924F920E9460
:10079A003B154F905F903E2EE030B1F4EBE8F2E06B
:1007AA000E94CA1D0E94A71DF201E755F74DA0E05D
:1007BA00A083EBE9F2E0FA93EA93E8EAF8E20E940E
:1007CA00A21D0E94A71D02C0A32D1DDF0E94CE1DDF
:1007DA0029F40E94D51D0E94A71D02C0A32D13DF74
:1007EA000895E091A200E873E1601E2FE8EDE4BFEE
:1007FA001093A200E0E0E093A10051DE8FDEE0DE7C
:10080A00E0E0E0930024E0930124E0930224E093E3
:10081A0003247894A4D5E03011F4A3E0F4DEE0E0F8
:10082A00EA93A4E0B4E20E94E9133E2EE03029F4F0
:10083A00E1ECF2E00E94DC1D02C0A32DE4DEACE68E
:10084A00B8E20E94A51A0E94B41D0E94B91DAAE02E
:10085A000E94BE1D39F4EFEDF2E00E94E31D0E94F2
:10086A00A71D02C0A32DCFDEE4EFF2E00E94DC1D3B
:10087A000E94B41DE8E7F8E2FA93EA93E6E1F0E0B1
:10088A00FA93EA93ADB7BEB711975F924F920E945F
:10089A009D164F905F903E2EE03059F4EEE0F3E063
:1008AA000E94CA1DE6E1F0E060E070E00E94E81DE7
:1008BA0002C0A32DA8DE0E94CE1D29F40E94D51DD8
:1008CA000E94A71D02C0A32D9EDE43DF0E94B41D15
:1008DA000E94B91DA2E00E94BE1D29F40E94C31DF8
:1008EA000E94A71D02C0A32D8EDE0E94B41DA091F6
:1008FA004026B091412680914226909143260E943B
:10090A00D3183E2EE03039F4E7E2F3E00E94E31D0B
:10091A000E94A71D02C0A32D76DEE8E4F3E00E9440
:10092A00DC1D0E94B41DEFE8F8E2FA93EA93E8E1CD
:10093A00F0E0FA93EA93ADB7BEB711975F924F9280
:10094A000E949D164F905F903E2EE03059F4E3E6E8
:10095A00F3E00E94CA1DE8E1F0E060E070E00E9466
:10096A00E81D02C0A32D4FDE0E94CE1D29F40E946D
:10097A00D51D0E94A71D02C0A32D45DEEADE0E94F6
:10098A00EF1DE1E00E94F41D39F4EDE7F3E00E9467
:10099A00E31D0E94A71D02C0A32D35DEE6E6F8E29C
:1009AA00E0935A28F0935B28E0E0F5E7E0935C28AF
:1009BA00F0935D280E94B91DA6E5B8E20E946B1B60
:1009CA003E2EE03059F5EAE9F3E0FA93EA93E6E0DD
:1009DA00F0E060E070E00E948C23E3E0F0E060E089
:1009EA0070E00E948C23E0EDF7E060E070E00E9486
:1009FA008C23EEE0F0E060E070E00E948C23E8E2F5
:100A0A00F0E060E070E00E948C230E94FB1D0E94CF
:100A1A008C2388E10E942B1D6A9602C0A32DF3DD68
:100A2A000E94EF1DE0E00E94F41D39F4EEECF3E0C1
:100A3A000E94E31D0E94A71D02C0A32DE4DDACE6BF
:100A4A00B8E2FBDDFFCFFFCFAA93E091E208E072A4
:100A5A00E1F3E881E093E308E091E208E07CE03C1E
:100A6A00D9F7E091E308E883E091E208E064E093D3
:100A7A00E208E881F7C1AA930E94B92320E00C8119
:100A8A00AD81BE813D91AD83BE8318E0220FE22F76
:100A9A00E327E07811F0E9E02E27330F1150B1F780
:100AAA00015071F7E22FEE0FE1600E94C023F7C4F4
:100ABA001A93E2E3E093AA29AFEFC6DFAFEFC4DFF0
:100ACA001E2F1F3F21F0E091AA29E03009F401C04E
:100ADA00F5CFE12F42C4E0E1E0934506AFEFB4DF82
:100AEA000895BA93AA930E94B923E4E1E093A9294D
:100AFA00AFEFAADF1E2F1F3F21F4E091A929E030B2
:100B0A0009F401C0F5CF1E3F21F0E0E00E94C023A6
:100B1A0084C22E813F813F932F932F5F3F4FAFEFC8
:100B2A0093DFAF91BF91EC933F932F932F5F3F4F8A
:100B3A00AFEF8ADFAF91BF91EC933F932F932F5F73
:100B4A003F4FAFEF81DFAF91BF91EC933F932F936C
:100B5A002F5F3F4FAFEF78DFAF91BF91EC93EC81FE
:100B6A00FD813497EC83FD83B1F6AFEF6DDFAFEF14
:100B7A006BDFE1E00E94C02350C2AA930E94B9230E
:100B8A0097DFEF3F21F0E0E00E94C02388C4AC81E8
:100B9A005BDFAC81AD3FF1F000E02D813E81D901F0
:100BAA002F5F3F4FAC9150DFD9012F5F3F4FAC9180
:100BBA004BDF0150A1F7AFEF47DFAFEF45DFAFEFF4
:100BCA0043DF1E2FE12FEF71E53021F0E0E00E94B4
:100BDA00C02365C4E1E00E94C02361C40E9491233E
:100BEA001A930A93EE81E07889F0EE81EF77EE832B
:100BFA00E7E7EA93A0E0B0E080E090E0EFDF0E2FB5
:100C0A00023020F0E02F1981088149C4AE81AC344A
:100C1A0059F061DFE0E1E09346064ADFEF3F21F059
:100C2A00EFEF198108813BC4AE810EDFAD810CDF85
:100C3A00AC810ADFAB8108DFAA8106DF11E0AE8151
:100C4A00A03411F415E904C0AE81A83409F417E8F8
:100C5A00A12FFADEAE81AC3411F4AFEFF5DE1FEF4F
:100C6A00AFEFF2DE0E2F07FF02C0115009F401C0E8
:100C7A00F7CFE02F1981088112C4BA93AA931A9365
:100C8A0014E0E981FA813196E983FA833197FF9377
:100C9A00EF93AFEFD9DEAF91BF91EC93115089F783
:100CAA00E1C4AA9324970E94B923E885E03011F0A1
:100CBA00E1E0CCC0EAE0E093A929E091A929E0307B
:100CCA00E1F7E091A829E27009F0BEC0E0E1E09303
:100CDA004106E0934506E0EAE0934606E0E4E09345
:100CEA004206E8E1E0935606E0E0E0934E06E4ECC3
:100CFA00E093E408E0EAE0934106E3E5E093E008E4
:100D0A003FEF1AE0AFEFA0DE1150E1F7E0E4EA931B
:100D1A00A0E0B0E080E090E061DF0E2F31500130BA
:100D2A0011F0303009F401C0ECCF30E0013009F0A5
:100D3A0068C0E4E6E093A929E8E4EA93AAEAB1E004
:100D4A0080E090E04BDFE13091F5DE01149695DF0B
:100D5A00AE81A13019F4AF81AA3A09F027C0E09117
:100D6A00A929E03049F0E9EEEA93A0E0B0E080E09A
:100D7A0090E434DFE03009F401C0F1CFE091A92911
:100D8A00E03049F0EAE7EA93A0E0B0E080E090E0E2
:100D9A0025DFE03009F00AC0DE0114966EDFEC812F
:100DAA00E07411F0ECE001C0E4E03E2F2AC0E9EE65
:100DBA00EA93A0E0B0E080E090E010DFE23018F4BF
:100DCA0032E009EE02C031E001E4E091A929E03005
:100DDA0041F00A93A0E0B0E080E090E0FFDEE0306E
:100DEA0009F401C0F2CFE091A929E03049F0E0E529
:100DFA00EA93A0E0B2E080E090E0F0DEE03009F0B3
:100E0A0030E03093AB2967DE303049F0E091A82911
:100E1A00EE7FE093A829E0EDE093E00815C0E0E159
:100E2A00E093460645DE57DEE0E0E093E008E09313
:100E3A00E408E0EEE0934206E0E1E0934206E09146
:100E4A00A829E160E093A829E091A8290E94C0237B
:100E5A0029960895AA93E881E03011F0E1E002C0F2
:100E6A00E091A82921960895AA93EF81E03019F418
:100E7A00E881E03011F4E4E0D0C0E091A829E17003
:100E8A0011F0E3E0CAC0E091AB29E87071F4E9819E
:100E9A00FA816B817C81A0E0B2E080E090E00E9460
:100EAA00F922E983FA836B837C83A881A130A9F4B0
:100EBA00E1E5EA93AA81BB818C819D818FDEE030D6
:100ECA0059F4ED81FE81FA93EA93A0E0B2E009DEDB
:100EDA00E03011F0E0E0E88323C0E2E5EA93AA817A
:100EEA00BB818C819D817ADEE030D1F4ED81FE8177
:100EFA00FA93EA93A0E0B2E0F4DDE03051F0ED813C
:100F0A00FE81E050FE4FED83FE83E881E150E883E5
:100F1A0069F7ECE4EA93A0E0B0E080E090E05EDEFE
:100F2A00DADDE881E03011F0E1E001C0E0E075C00F
:100F3A00AA93EF81E03019F4E881E03011F4E4E09B
:100F4A006CC0E091A829E17011F0E3E066C0E0917D
:100F5A00A829E47011F0E2E060C0E091AB29E870E2
:100F6A0071F4E981FA816B817C81A0E0B2E080E0D2
:100F7A0090E00E94F922E983FA836B837C83A8813B
:100F8A00A130A1F4E8E5EA93AA81BB818C819D8115
:100F9A0025DEE03051F4ED81FE81FA93EA93AEEF5B
:100FAA00ECDDE03011F0E0E0E88330C0E091AB29FD
:100FBA00E67039F0E7EDEA93A981BB2788279927DC
:100FCA000DDEE9E5EA93AA81BB818C819D8106DE6B
:100FDA00E030E1F4ED81FE81FA93EA93ACEFCDDDE6
:100FEA00E03051F0ED81FE81E050FE4FED83FE834B
:100FFA00E881E150E88371F7E0E0F0E0FA93EA93E0
:10100A00ADEFBBDDE03011F4E1E0E88364DDE881B7
:10101A00E03011F0E1E001C0E0E028960895BA93CB
:10102A00AA9360970E94B923EF89E03011F0E4E0B7
:10103A007CC1E091A829E17011F0E3E076C111E0EA
:10104A00EE89E03041F4E0E1E093460631DDEF3F1E
:10105A0009F410E068C1E13009F05BC0E9E4EA9301
:10106A00A0E0B0E080E090E0B9DDE03049F4FE01B4
:10107A003496FA93EA93A0E1B0E033DDE03009F464
:10108A0047C0EC81E295EF70E695E695E13069F4A8
:10109A00E0E0FC85AD85B0E0EA0FFB1F31969F01C9
:1010AA00D90188279927EAE02CC0E985EF70AE2F8D
:1010BA00EE85E078EE1FE0E0EE1FAE0FED85E370FF
:1010CA00EE0FEA0FEE5F0E2FEC85E295EF70E695D4
:1010DA00E695AE2FEB85F0E00E94D222B0E0AE0F8B
:1010EA00BF1FEA85E370F0E00E94D222FE2FE0E003
:1010FA00EA0FFB1F31969F01D90188279927E02F14
:10110A00E9500E94B622AC89BD890E946A2310E088
:10111A000AC1E23041F4AC89BD89E0E0F2E0ED9326
:10112A00FC9310E000C1E33009F0A5C0E091AB29BF
:10113A00E47051F1EDECEA93A0E0B0E080E090E0D9
:10114A004DDDE03001F5AFEF7FDCFE013496FA9316
:10115A00EA93A0E1B0E0C5DCE030A9F000E300309A
:10116A0021F0AFEF71DC0150FACFEE85E295EF7016
:10117A00A0E1B0E080E090E00E94B622AC89BD898F
:10118A000E946A2310E076C0E9E4EA93A0E0B0E0A6
:10119A0080E090E023DDE03009F06CC0FE01349677
:1011AA00FA93EA93A0E1B0E09CDCE03009F462C073
:1011BA00E091AB29E27051F1EE85EF73FF276627C4
:1011CA0077270E94E0227F936F93FF93EF93EF8537
:1011DA00E078FF2766277727DF01CB01E7E00E9447
:1011EA00C222AF91BF918F919F910E948722EF5F98
:1011FA00FF4F6F4F7F4FDF01CB01E989E295EF7017
:10120A00E695E695E1500E94B6222FC0EE85EC776E
:10121A00E695E695FF2766277727EF5FFF4F6F4F23
:10122A007F4F7F936F93FF93EF93EF85E370FF27D1
:10123A0066277727DF01CB01E3E00E94B622DF01B0
:10124A00CB01EF85E07EE295EF70E695FF276627F2
:10125A0077270E948722EF5FFF4F6F4F7F4FAF9133
:10126A00BF918F919F910E94F922AC89BD890E94FA
:10127A006A2310E058C0EA3039F4E091AB29AC890E
:10128A00BD89EC9310E04FC0EB3011F409E403C0C0
:10129A00EC3001F50AE40A93A0E0B0E080E090E0C7
:1012AA009DDCE030B1F4EC89FD89FA93EA93A0E180
:1012BA00B0E017DCE03069F0EC89FD89FA93EA9333
:1012CA00AFE0D9DBAE2FEC89FD89E785EA1709F48F
:1012DA0010E029C0ED3071F4EAE7EA93A0E0B0E04B
:1012EA0080E090E07BDCE03021F4AC89BD89C5DC8C
:1012FA0010E019C0EE30B1F4EDECEA93A0E0B0E0F2
:10130A0080E090E06BDCE03061F4AFEF9DDBEC89CC
:10131A00FD89FA93EA93A0E4B0E0E3DBE03009F058
:10132A0010E001C014E0D7DBE12F0E94C0236896C9
:10133A0008951A931091A929103019F01150109399
:10134A00A9291091AA29103019F011501093AA292D
:10135A00E091A829EB7FE093A82919910895609755
:10136A00E091A829E17021F0A0E09BDCE37081F410
:10137A00E0E0EA93ECE0EA93DE01129650DEE03018
:10138A0039F4E091A829EC7FE093A829E1E006C0AE
:10139A00E091A829E360E093A829E0E06096089527
:1013AA002797A0910024B0910124109731F0A091C1
:1013BA000224B0910324109729F4E0E0F0E061E2FE
:1013CA007AE36DC0FE013696FA93EA93FE013796E8
:1013DA00FA93EA93DE011896E0910024F091012431
:1013EA000995FE013396FA93EA93FE013496FA932D
:1013FA00EA93DE011496E0910224F0910324099500
:10140A00E881F981EC5BF74066277727DF01CB019A
:10141A00E9E10E94B6227F936F93FF93EF93EA81EB
:10142A000E94001EE5E10E94B622AF91BF918F9102
:10143A009F910E94A022DF01CB01EB81F0E00E9484
:10144A00EF220E94EA220E94A0227F936F93FF93C9
:10145A00EF93EE810E94001EEBE00E94B622AF914C
:10146A00BF918F919F910E94A0227F936F93FF93C8
:10147A00EF93ED810E94001EE5E00E94B622AF9133
:10148A00BF918F919F910E94A022DF01CB01EC8135
:10149A00F0E0F595E7950E94EF220E94A022279698
:1014AA000895AA931A93EA81FB81E4911E2FE030F2
:1014BA0019F0E981E11709F406C0EA81FB81319646
:1014CA00EA83FB83F0CFE12FF0E018812496089598
:1014DA000E94912324971A93A985BA859E960E9401
:1014EA00061E0E940D1E0E94121E0E94AD2309F4C0
:1014FA0050C0E985FA85E481E03099F10E94171E0F
:10150A00E03011F0E1E046C0A985BA851496E0E022
:10151A00EC93E985FA850E94291E0D01A985BA85F1
:10152A005A960E945F23D0010E9487220E94121EAF
:10153A000E94B223B0F4E985FA851381123088F04B
:10154A00A985BA855A960E945F230E94121E0E949C
:10155A008722E983FA836B837C830E94171E1150CA
:10156A00EDCF0E940D1E0E94A32399F0E985FA850A
:10157A00A181AA93EA85FB85F2960E942E1E11F09C
:10158A00E1E008C00E940D1EA985BA859E960E94B8
:10159A006A23E0E018812B9608950E943B1E0E9460
:1015AA00431E0E94481E09F05CC0A981BA81AC9111
:1015BA00A33029F4E981FA81E581E03009F445C0D4
:1015CA00A981BA819E960E944D1EE981FA810E94E4
:1015DA00511EE981FA81F296E250FE4FA5E5BAEA78
:1015EA00A083B183E981FA81F296A2E5B2E581E6A8
:1015FA0091E40E945A1EEC51FE4FA2E7B2E781E441
:10160A0091E60E945A1EE851FE4F0F01A981BA8144
:10161A001E960E94601EF296E451FE4F0F01A981A8
:10162A00BA811A960E94601EA181AA93EA81FB815F
:10163A00F296FA93EA93EC81FD810E94681E78DCA7
:10164A00A981BA811596E0E0EC93E981FA81A1813A
:10165A00AA93E0E0EA93A0E0B0E0E1DCE03009F030
:10166A0011E0E12F1881239608950E94912324976F
:10167A000E94B9230E94701E0E94751E50F0AC850C
:10168A00BD855E960E945F230E94701E0E94B2234F
:10169A0018F00E947D1E60C0AC85BD8592960E949E
:1016AA00821EAC85BD85EC91F0E0E130A0E0FA073E
:1016BA0039F528853985F901F695E7952E0F3F1FEB
:1016CA000E94891E09F046C00E949E1E0C91112795
:1016DA002F5F3F4F0E94891EE9F50E949E1EEC91E2
:1016EA00FE2FE0E00E2B1F2BE885E17021F0F801B8
:1016FA000E94D72202C0F801FF70662777272CC004
:10170A00E230A0E0FA0779F40E94A61E0E94AF1EFA
:10171A000E94B61EF9F4A885B985E2E00E94C01EAF
:10172A000E94C91E19C0E330A0E0FA0799F40E948A
:10173A00A61E0E94CE1E0E94B61E61F4A885B98517
:10174A00E4E00E94C01E0E945F23EF7FFF7F6F7F4D
:10175A007F7002C00E94D51E0E94C0232E96089553
:10176A000E94912324970E94B7230E94DA1E0E94A6
:10177A00751E50F0AA89BB895E960E945F230E945B
:10178A00DA1E0E94B22310F052E085C0AA89BB89F2
:10179A0092960E945F23EE83FF8368877987AA89DE
:1017AA00BB89EC91F0E0E130A0E0FA0709F043C010
:1017BA000E851F85F801F695E7950E0F1F1F0E94EB
:1017CA00DF1E09F063C00E94F21E51F0D901EC91AC
:1017DA00EF70AE2FEA85F0E00E94CE22EA2B01C01C
:1017EA00EA85D901EC930F5F1F4FAA89BB8914962A
:1017FA00E1E0EC930E94DF1E09F048C00E94F21E4D
:10180A0049F00E94FD1EE4E00E94C222FF276627DB
:10181A0077270EC0D901EC91E07F1E2E0E94FD1E93
:10182A00E8E00E94C222FF2766277727EF70E129A6
:10183A00D901EC932BC0E230A0E0FA0789F40E94A8
:10184A00021F0E94AF1E0E940B1F01F5AE85BF85C5
:10185A00E2E00E94131FAA85BB85A083B18316C04C
:10186A00E330A0E0FA0789F40E94021F0E94CE1E0C
:10187A000E940B1F59F4AE85BF85E4E00E94131F36
:10188A000E94FD1E0E94872301C052E0AA89BB89DB
:10189A001496E1E0EC93E52F0E94BE236496089526
:1018AA000E94912324971A930E941C1F0E94751E5E
:1018BA0018F00E94211F10F012E044C010E00E94AC
:1018CA00211F08F03FC0E985FA85FA93EA93AF81B0
:1018DA00B88589859A85C9DEE983FA836B837C8317
:1018EA000E942A1F0E94A32369F10E94121E0E94CD
:1018FA002F1F11F412E026C00E94121E0E94371FE9
:10190A0011F411E01FC0E985FA85FA93EA93EF8191
:10191A00F88569857A850E948C230E94431E20DF00
:10192A001E2F103079F4E985FA850E943F1F29F0AD
:10193A000E94441F1596E1E0EC930E942A1F0E9420
:10194A00521FBDCFE12F188181C20E949123609757
:10195A00AC89BD895E960E945F230E94571F0E9430
:10196A005A1F0E94A323B1F4AC89BD891A960E941A
:10197A00821E0E945F1F0E94A72339F00E94641FE3
:10198A000E945F1F0E94B22320F00E947D1E0E94C7
:10199A00671F1CC00E946C1F0E94711F0E94761F45
:1019AA000E947D1F0E94751E18F40E947D1E8CC025
:1019BA000E94641F0E947D1F0E94B22318F40E9495
:1019CA00821F82C00E945A1F0E94671F0E94871F9F
:1019DA000E948C1F0E94911FEF5FFF4F6F4F7F4F36
:1019EA000E948C1F0E94641F0E94701E0E94B223D4
:1019FA0060F0E2E0F0E060E070E00E948C1F0E947C
:101A0A00961F18F40E94FB1D5FC00E946C1F0E9463
:101A1A00FD1E0E94761F0E949B1FA1F00E947D1F3F
:101A2A000E94371F29F00E947D1F0E942F1F19F460
:101A3A000E94821F49C00E94961F19F40E94FB1D32
:101A4A0043C0C8CF0E946C1FEA85FB856C857D85E3
:101A5A000E948C23AFEFBFEF8FEF9FE081DEE03073
:101A6A0019F00E94D51E30C00E945A1F0E94A3235B
:101A7A0071F00E946C1F0E949F1F0E948C230E947B
:101A8A00DA1E6EDEE03019F00E94D51E1DC00E94DB
:101A9A00911FAC89BD891A960E946A23EC89FD8937
:101AAA000E943F1F79F0AC89BD891E960E9465236A
:101ABA003197604070400E946F23AC89BD891596AA
:101ACA00E1E0EC930E94911F669608950E9491238B
:101ADA000E94641FE250F040604070400E94571F0D
:101AEA00EC81FD81A68DB78D80A191A1E2E0F0E0A5
:101AFA0060E070E00E94A41F0E947D230E94B2232E
:101B0A0018F00E94FB1D45C4EC81FD81E281F0E0E2
:101B1A000E947D230E94EF220E94F9227F936F93F5
:101B2A00FF93EF93AC81BD819A960E945F23AF9198
:101B3A00BF918F919F910E9487222BC4BA93AA9337
:101B4A0024971A930A93EE81FF81A885B985149682
:101B5A00ED93FC93A885B98516960E94A91F0E9449
:101B6A00B01F0E942F1F29F00E94B51F0E94BA1FA2
:101B7A0010F0E2E078C00E94C21F29F40E94B51F4B
:101B8A00A081A33009F006C00E94B51FB696DF01F6
:101B9A000E94A91F0E94C21FA1F40E94C91F389661
:101BAA00DF010E945B23AE81BF81AE17BF0710F031
:101BBA00E2E059C00E94B51FB696DF010E945F237A
:101BCA0037C00E94B51FE281A0E1EA9F8001AE8181
:101BDA00BF81A017B10728F10E94B51FFA93EA93B3
:101BEA000E945F1F42DDEA83FB836C837D830E9430
:101BFA00B01F0E94371F11F4E1E035C00E94B01FE8
:101C0A000E94751E28F00E94B51F0E94BA1F10F08C
:101C1A00E2E029C0EE81FF81E01BF10BEE83FF8336
:101C2A00D6CF0E94C91FFA93EA930E945F1F4EDF24
:101C3A00DF01CB01EE81FF810E94D7220E94D31FD0
:101C4A00A885B9851E960E946A230E94B51FF2963E
:101C5A00DF01EE81FF810E94D81FA885B9855296BF
:101C6A00ED93FC93E0E0198108812A960895AA93DE
:101C7A0024970E94B923A985BA8514960E945B23EA
:101C8A0031968F01002E012A29F0A985BA850E9472
:101C9A00E01F11F4E4E0D8C0F801EF7009F0C1C008
:101CAA000E94441F1A960E945F230E94A32361F494
:101CBA000E94E61F3896DF010E945B230E171F075A
:101CCA0010F0E4E0C1C0ADC0F8010E94D7220F01B4
:101CDA000E94E61FE281F0E03197E021F12130977E
:101CEA0009F09FC00E94E61F0E94EB1FBEDC0E9403
:101CFA00671F0E945F1F0E94751E10F4E2E0A4C0D5
:101D0A000E945F1F0E94371F11F4E1E09DC00E94EC
:101D1A00E61F7E96DF010E945F230E945F1F0E94DA
:101D2A00B22308F46EC0E885E03011F4E4E08CC018
:101D3A000E94E61F0E94EB1F08DE0E94F41F0E9409
:101D4A00A32311F4E7E080C00E945F1F0E942F1FA7
:101D5A0011F4E2E079C00E945F1F0E94371F11F45C
:101D6A00E1E072C00E94E61F0E94F61F11F0E1E056
:101D7A006BC00E94E61F0E94511E0E94E61FDF01EF
:101D8A00BE96FF93EF93FD010E94FD1FAF91BF9195
:101D9A000E946A2330E00E94E61FE2813E17E8F4BF
:101DAA000E94E61F3496A1E0A0830E94E61F0E94CB
:101DBA00F61F11F0E1E048C00E94E61FBE96DF015F
:101DCA000E946523EF5FFF4F6F4F7F4F0E946F2383
:101DDA003197604070403F5FDECF0E94E61FBE969B
:101DEA00FF93EF93DF010E945F23DF01CB01E32F13
:101DFA00F0E00E94EF220E94A41FAF91BF910E94BF
:101E0A006A230E94871FA985BA851A960E946A23A7
:101E1A000E94E61F0E94FD1FA985BA851E960E9490
:101E2A006A23F801A985BA851496ED93FC930E945A
:101E3A00E61FF296DF01F8010E94D81FA985BA852C
:101E4A005296ED93FC93E0E00E94C0232B960895EE
:101E5A000E9405200E940A200E94102021F0E12FF2
:101E6A000E94C02396C20E941620B9F40E94232021
:101E7A0011F414E012C0F901E385E87031F40E940C
:101E8A002C200E944E1DE03009F001C006C00E94BD
:101E9A000A20EDDE1E2F103031F3E12F0E94C023FD
:101EAA0078C20E94052014E0AC81BD810E94E01F27
:101EBA00D9F00E941620C1F40E94232011F414E0E4
:101ECA0013C0053E49F0E1E0E03011F40E3221F092
:101EDA00F901E385E87009F001C006C00E940A20F2
:101EEA00C6DE1E2F103001F3103029F0AC81BD81FF
:101EFA001E960E944D1EE12F0E94C0234AC20E94D4
:101F0A0005200E940A200E941020B1F40E94162087
:101F1A0099F4EC81FD81A289B3890C91053E11F0F7
:101F2A00003009F409C0EC81FD81FA93EA93A1E03B
:101F3A009EDE1E2F103051F3103029F50E94162014
:101F4A0011F5AC81BD8152962D913C913A932A9319
:101F5A00E0E0EA93A0E2B0E00E94791D0E942C2002
:101F6A000E94671DAC81BD8154960E945B23E38564
:101F7A00E871D9011C96EC93AC81BD810E945B2368
:101F8A003496A1E0A083E12F0E94C02302C20E94DE
:101F9A003B1EEB81FC81A481B581D0DD1E2F103060
:101FAA00D1F4A981BA810E943720EB81FC81A685F0
:101FBA00B785808991890E94481E69F4E981FA816E
:101FCA00A289B389E5EEEC93A981BA810E945B23C9
:101FDA003496A1E0A083E12F188123960895BA933D
:101FEA00AA9325970E94B723AD85BE8554964D9135
:101FFA005C915A934A93E0E2EA93ABE0B0E00E9424
:10200A00791DE0E0E887E9871E2F2E2FE8E0EA87AE
:10201A00AB85BC850E943C200E944120AE0FBF1FA9
:10202A00AC91AE3209F50E9446200E3221F4A88501
:10203A00B98513970CF003C00E945220F4CF0F32D7
:10204A0021F00C3511F0013208F402C0E6E06DC04F
:10205A000E9441200E94592010F4E4E201C0E0E20B
:10206A00DA011B96EC9360C00E944620013220F0F0
:10207A000F3211F00C3509F432C00E3219F0EA852C
:10208A002E1768F0AA85A83011F40E3211F0E6E096
:10209A004CC028E0EBE0EA87110F110F1FC000388F
:1020AA0018F01360E6E041C0ECECF0E0FA93EA9332
:1020BA00A02FF7D9309711F0E6E037C0013410F0BD
:1020CA000B3508F002C0126007C0013610F00B375A
:1020DA0008F002C0116000520E945220C5CF0E942F
:1020EA0041200E94592010F4E4E001C0E0E00E2FE4
:1020FA00203011F4E6E019C0DA01AC91A53E19F4DA
:10210A00DA01E5E0EC93AA85A83011F4110F110F5A
:10211A00E12FE370E13009F40061E12FEC70E43063
:10212A0009F40860FA010387E0E00E94BE232F96B3
:10213A000895BA93AA9322970E94B723E885F9854E
:10214A003996EE83FF83AA85BB850E94E01F09F4B6
:10215A0064C0AA85BB8552964D915C91FA0134857B
:10216A0010E01830B8F40E946120A1F0053009F49B
:10217A0005EEE0E0E03041F033FF06C0013410F034
:10218A000B3508F001C001C001C0005E0E94682042
:10219A001F5FE7CFFA01A085A032F9F0AE81BF81B7
:1021AA001196AE83BF831197EEE2EC9318E01B30D1
:1021BA00A0F40E94612089F0E0E0E03041F034FFB1
:1021CA0006C0013410F00B3508F001C001C001C08F
:1021DA00005E0E9468201F5FEACFFA01E385A885A6
:1021EA00B9851896EC93DA015C960E945F23A8855C
:1021FA00B9850E946A23DA0158960E945B23A88552
:10220A00B9851496ED93FC93DA0156960E945B23E6
:10221A00A885B9851696ED93FC93AE81BF81E0E05F
:10222A00EC930E94BE232C9608950E940520E1E0BB
:10223A00E03029F0AC81BD81AC91A03209F006C032
:10224A00EC81FD813196EC83FD83F1CFAC81BD81B8
:10225A00AC91AF3229F0AC81BD81AC91AC3559F467
:10226A00EC81FD813196EC83FD83AE81BF811696A8
:10227A000E944D1E0AC0AE81BF810E945B237696E2
:10228A00DF010E945F230E947020AC81BD81AC9166
:10229A00BB27909760F40E947620A0E0B0E04EDC65
:1022AA001E2FAE81BF8152960E947B203DC00E94A4
:1022BA007620DE01169693DE1E2F1030A9F5AE8128
:1022CA00BF81C6DD1E2FAE81BF8154960E945B235B
:1022DA00E385E4700E2F103039F0143011F4003019
:1022EA0009F001C015E020C00030F1F4AE81BF81D1
:1022FA0052962D913C91F901E385E07111F415E0B4
:10230A0013C00E9480200E94EA227F936F93FF935A
:10231A00EF930E948320AF91BF918F919F910E946A
:10232A0088200E947020C3CFE12F0E94C0232896E4
:10233A0008950E949123EC81FD81A181AA93ED81E8
:10234A00FE81F296FA93EA93EB81FC816D817E819C
:10235A000E948D2011F0E3E01CC0EC81FD810E94F7
:10236A00942011F0E2E015C0AC81BD81A859BF4F9D
:10237A000E949E2011F4E0E00CC0EC81FD81F296EF
:10238A00EE5AFF4FDF010E949E2011F4E0E001C0E7
:10239A00E1E026960895AA9364970E94B723AD8D2B
:1023AA00BE8D0E945B23E887F987A885B985EC91E1
:1023BA00E0530E2F0A3020F41196AC91AA3309F09B
:1023CA000AC0E885F9853296E887F987AD8DBE8D12
:1023DA00ED93FC9302C00091B029013010F0EBE0BC
:1023EA00CDC1E02F0E94AC200E943C20AB8DBC8D59
:1023FA00ED93FC93EE81FF81309711F4ECE0BEC1BE
:10240A00AE81BF81EC91E03089F0EE81FF81A1813C
:10241A000E942F075E2F50FD09C0EA8DE03011F0AF
:10242A0052FD01C002C0EAE0A9C1A7C1AE81BF81C5
:10243A00E0E0EC93E02FAE81BF811196EC93EE8140
:10244A00FF81A1810E9456065E2F50FF02C0E3E081
:10245A0095C1EA8DE03011F052FD01C002C0EAE0F8
:10246A008DC10E9476200E94FB1DE88FF98F6A8F2A
:10247A007B8FDF01CB015DDF1E2F1130D1F4EE819E
:10248A00FF81F296E254FE4F9F01F901E481E030A8
:10249A0081F0D90118960E945F23EE8BFF8B688F1B
:1024AA00798F0E947620A88DB98D8A8D9B8D41DF08
:1024BA001E2F133011F4E1E061C1103049F4AE81EE
:1024CA00BF81DD960E945B23E030A2E0FA0711F09B
:1024DA00EDE054C1AE81BF81A85BBF4F0E94C91E07
:1024EA000E94B4200E949F1F0E94A32341F4AE8140
:1024FA00BF81AA5ABF4F0E945F230E94B4200E9444
:10250A009F1FAE81BF815A960E946A23EE81FF8186
:10251A00EE5BFF4FE081AE81BF811396EC93EE81B3
:10252A00FF81E381F0E00E94711F0E94EF220E9466
:10253A00F9220E94B4200E94B9200E94C020AE81D4
:10254A00BF8192960E946A23EE81FF81E7ADAE8138
:10255A00BF811296EC93AE81BF81AD5BBF4F0E94E3
:10256A005B23AE81BF811896ED93FC93AE81BF8148
:10257A00AB5BBF4F0E94C91EEE87FF87688B798BC2
:10258A000E94A32351F4AE81BF81AE5ABF4F0E946D
:10259A005F23EE87FF87688B798B0E94B9200E94A0
:1025AA00DA1E662777270E94A41F0E94711F0E94C5
:1025BA0091227F936F93FF93EF930E94C520AF916F
:1025CA00BF918F919F91662777270E949622EE816D
:1025DA00FF81E281F0E00E94EF220E943223EE5F47
:1025EA00FF4F6F4F7F4FEA87FB876C877D87AE81EE
:1025FA00BF815E960E946A2311E00E94FD1EA73FDA
:10260A00EFE0BE07E0E08E07E0E09E0708F012E088
:10261A000E94FD1EA73FEFEFBE07E0E08E07E0E055
:10262A009E0708F013E0133039F4AE81BF81A25A35
:10263A00BF4F0E945F2302C00E94CD20AE81BF819E
:10264A0096960E946A230E94CD207F936F93FF93F0
:10265A00EF930E94C520AF91BF918F919F910E94E5
:10266A00D31FAE81BF819A960E946A23AE81BF8131
:10267A001E960E94D51E0E946A23AE81BF811496BF
:10268A00E0E0EC93133009F05FC0AE81BF8115968C
:10269A00EC93AE81BF81AE59BF4F0E945B230E946B
:1026AA00C020AE81BF8152960E946A23EE81FF81CB
:1026BA00A181AA93EF81F885F296FA93EA93E985C4
:1026CA00FA850E94681E0E943907E03011F5EE81F2
:1026DA00FF810E949420E9F4AE81BF81D2960E94C4
:1026EA005F23E235A2E5FA07A1E66A07A1E47A07C1
:1026FA0081F4EE81FF81F296EC51FE4FDF010E94D8
:10270A005F23E237A2E7FA07A1E46A07A1E67A079C
:10271A0009F01AC0EE81FF81F296E451FE4FDF0103
:10272A000E945F23AE81BF811A960E946A23EE81BE
:10273A00FF81F296E851FE4FDF010E945F23AE81CE
:10274A00BF811E960E946A23AE81BF811C939E960A
:10275A000E944D1EAE81BF8156960E944D1EE09189
:10276A00AE29F091AF293196E093AE29F093AF29C3
:10277A00AE81BF811696ED93FC93E0E00E94BE23E2
:10278A006F960895BA93AA93EA81FB81309771F004
:10279A00AA81BB81EC91E03049F0EA81FB81A681F4
:1027AA00B781E881F981EA17FB0711F0E9E00AC06D
:1027BA00EA81FB81A1810E942F07E17011F0E3E019
:1027CA0001C0E0E024960895BA93AA931A930A9353
:1027DA00AC81A13010F0EBE020C0EC810E94AC206B
:1027EA000D911C91002E012A19F0D801E0E0EC931A
:1027FA00EA81FB81309721F0AA81BB81E0E0EC936A
:10280A00EC81ACEAB9E2F0E0EE0FFF1FEA0FFB1F22
:10281A00AA81BB81A083B183E0E019810881259652
:10282A000895AA93A2970E94B923A9A5BAA50E94BE
:10283A007B20EEA1EF71EEA3FE01B7960E94D42091
:10284A00EAA5EE71AE2F0E94DB2011F0E12F0AC13A
:10285A000E94E020A9A5BAA5E8DC1E2FEEA1EC7122
:10286A0009F495C02897103089F0143021F4DE015C
:10287A00589645DB1E2F103019F0E12F2896F2C02A
:10288A00EEA5E860EEA72AA53BA568C0EEA5E47010
:10289A0019F0E8E02896E6C02AA53BA5022E032AED
:1028AA0021F0F901E385E17119F0E7E02896DAC031
:1028BA00EEA5E87009F452C00E9480200E94EA2224
:1028CA007F936F93FF93EF930E948320AF91BF9101
:1028DA008F919F910E9488200E94571FF901749638
:1028EA00A0E0B0E0A083B183F9017A96A083B18316
:1028FA00F9017C960E94431E0E948723A88DB98DF8
:10290A001496E1E0EC93A88DB98D9E960E94821EE2
:10291A000E94641F0E94A323B9F0E88DF98DFA93EF
:10292A00EA930E94B01F0E94550C1E2F103019F016
:10293A00E12F289697C00E94641F0E94E920A88D63
:10294A00B98D1A960E946A23E88DF98D0E94EE20AD
:10295A000E94481E19F0E12F289684C0EEA5E8705F
:10296A00A1F0F9013B96A0E0A0830E94D5090E943C
:10297A00F41FD9011E960E946A23A88DB98D149658
:10298A00E1E0EC93EEA5E062EEA7289617C01030BE
:10299A0011F0E12F67C00E94F52021F0F901E385CB
:1029AA00E07111F0E4E05EC0EEA1E27021F0F901FD
:1029BA00E385E17009F402C0E7E054C0A889B98947
:1029CA009E960E945F23A9A5BAA55A960E946A23D9
:1029DA00EAA1FBA1A9A5BAA55E96ED93FC93EEA187
:1029EA00A9A5BAA51496EC930E9480200E94EA2217
:1029FA007F936F93FF93EF930E948320AF91BF91D0
:102A0A008F919F910E948820A9A5BAA51E960E941F
:102A1A006A23D9015C960E945F23A9A5BAA51A96D2
:102A2A000E946A23A9A5BAA516960E944D1EA9A5B9
:102A3A00BAA51596EFEFEC93A9A5BAA556960E94EA
:102A4A004D1EE889F989A9A5BAA5ED93FC93A88931
:102A5A00B98916960E945B23A9A5BAA51296ED9389
:102A6A00FC93E0E00E94C023AB960895BA93AA9320
:102A7A002E970E94B723E88DF98DEE83FF83AC89E8
:102A8A00BD890E947B200E94FA20EC8DFD8D0E9458
:102A9A00FD2011F0E12F48C1EA8DFB8DA481A078B9
:102AAA0011F0E2E041C1EA8DFB8DA481A17011F41D
:102ABA00E7E03AC1EA8DFB8DA285B38584859585C9
:102ACA009F938F93BF93AF930E940421EF91FF913D
:102ADA006F917F910E9491220E948C1F0E94911FE8
:102AEA00AE89BF89882799270E94AD2320F4E885FB
:102AFA00F985EE8BFF8BEE89FF89309709F413C1B4
:102B0A000E9404210E940B2109F0D9C0EA8DFB8D95
:102B1A0005800E9410210E16B8F10E9404210E941D
:102B2A00A72331F4AA8DBB8D1E960E945F2306C08F
:102B3A000E94FA200E9416210E943A0BE88BF98B18
:102B4A006A8B7B8BA889B9898A899B890E94751EA1
:102B5A0020F40E941D21E2E0E7C0A889B9898A8988
:102B6A009B890E94371F21F40E941D21E1E0DCC0ED
:102B7A000E945A1FAA8DBB8D52960E946A23AA8D63
:102B8A00BB8D1596E0E0EC930E94FA200E94162174
:102B9A000E946B0D0E9424210E949B1F21F40E9417
:102BAA001D21E2E0C1C00E9429210E947D1F0E94CE
:102BBA002E210E942421AE89BF890E94332109F463
:102BCA0047C00E942921E40FF51F0F010E9410211E
:102BDA00D001F0E0EA17FB0748F40E941021F0E068
:102BEA00DF010E942921AE1BBF0BAD010E943B21D0
:102BFA00EF81F8850E9442210E948C23A42F0E9413
:102C0A003907E03021F00E941D21E1E08DC0EA8DF4
:102C1A00FB8DA481A07429F00E9449210E945021B1
:102C2A0008F011C00E9449210E945821AE81BF813B
:102C3A000E946121EC8DFD8DB096FA93EA93A0E093
:102C4A00B2E00E94671DAA8DBB8D0E94682157C001
:102C5A00EA8DFB8DA481A074A1F00E943B21EB8D2B
:102C6A00FC8DB096FA93EA93ED8DFE8D0E94732146
:102C7A0021F00E941D21E1E057C0AA8DBB8D0E9460
:102C8A007E210E9449210E94AD2371F00E943B21BE
:102C9A00EB8DFC8DB0960E9442210E948D2021F07E
:102CAA000E941D21E1E040C00E94821FAA8DBB8DB7
:102CBA0056960E946A23AA8DBB8D0E948321AA8DF3
:102CCA00BB8D0E948821A0E0B2E0AE1BBF0B9D0124
:102CDA00EE89FF89E217F30710F42E893F890E94D3
:102CEA007620AC8DBD8D0E948821AC8DBD8D9096CD
:102CFA00EA0FFB1FFA93EA93D9010E94671D0E940B
:102D0A008D21EA8DFB8D0E949521D0010E946A23B4
:102D1A00AC89BD890E949E21EE89FF89E21BF30BD3
:102D2A00EE8BFF8BE8CEE0E00E94BE236C960895FE
:102D3A00BA93AA932A970E94B723EC89FD89EE8356
:102D4A00FF83A889B9890E947B200E94A521E88D6A
:102D5A00F98D0E94FD2011F0E12F8AC1EE89FF89C9
:102D6A00A481A07811F0E2E083C1EE89FF89A481F1
:102D7A00A27011F4E7E07CC1EE89FF89A285B385D0
:102D8A0084859585EA89FB890E94D31F7F936F9377
:102D9A00FF93EF930E94A821AF91BF918F919F91CA
:102DAA000E94B22318F4E0E0EA8BEB8BEA89FB89F4
:102DBA00309709F443C10E94AE210E940B2109F009
:102DCA0001C1EE89FF8905800E94B521E2810E16B4
:102DDA0008F44AC0AE89BF8916960E945F230E94F2
:102DEA00A323C1F4AE89BF891E960E945F230E9465
:102DFA0024210E949B1F69F40E94A5210E94431E60
:102E0A000E94AA0C0E942421AE89BF891E960E94A4
:102E1A006A2308C00E94A5210E94BA210E94AA0C16
:102E2A000E9424210E949B1F09F408C10E947D1F51
:102E3A000E942F1F21F40E94C121E2E019C10E94C1
:102E4A007D1F0E94371F21F40E94C121E1E010C1B9
:102E5A000E94821FAE89BF8952960E946A23AE8958
:102E6A00BF891596E0E0EC93EE89FF89A481A074EE
:102E7A0089F00E94B5210E94C821E98DFA8D0E942D
:102E8A00732121F00E94C121E1E0F2C0AE89BF891D
:102E9A000E947E210E94A5210E94BA210E946B0DE8
:102EAA000E948C1F0E94911F0E94A32321F40E945A
:102EBA00C121E2E0DDC00E94D0210E94701E0E9462
:102ECA002E210E948C1FAA89BB890E94332109F4F2
:102EDA0050C00E94D021E40FF51F0F010E94B521B6
:102EEA00E281D001F0E0EA17FB0750F40E94B52115
:102EFA00E281F0E0DF010E94D021AE1BBF0BAD01E1
:102F0A000E94B521E181EA93EF81F885FA93EA9369
:102F1A00EB85FC856D857E850E948C23A42F0E94FB
:102F2A009D07E03021F00E94C121E1E0A1C00E948A
:102F3A00D5210E945021C0F40E94DC21A689B789BC
:102F4A00808D918DEA85FB856C857D850E9458214F
:102F5A00A885B9850E946121A0E0B2E00E94671DA0
:102F6A00AE89BF890E947E21AE89BF890E946821ED
:102F7A0051C00E94D5210E94AD23C9F00E94AE2102
:102F8A000D010E94A821D0010E94B22358F40E9488
:102F9A00B5210E94C821EB85FC856D857E850E943E
:102FAA008D2009F404C00E94C121E1E061C00E94A1
:102FBA00911FAE89BF8956960E946A23AE89BF893E
:102FCA000E948321AE89BF890E948821A0E0B2E0D5
:102FDA00AE1BBF0B9D01EA89FB89E217F30710F4C8
:102FEA002A893B89AE89BF890E948821AE89BF8917
:102FFA009096EA0FFB1FFA93EA93E885F985FA930C
:10300A00EA93D9010E94671DAE89BF891496EC9193
:10301A00E064EC930E948D21EE89FF890E9495213C
:10302A00D0010E946A23A889B9890E949E21EA894F
:10303A00FB89E21BF30BEA8BFB8BB8CE0E94AE2115
:10304A000D010E94A821D0010E94AD2350F4AE893F
:10305A00BF8916960E945F23AE89BF891A960E947D
:10306A006A23AE89BF891496EC91E062EC93E0E0A2
:10307A000E94BE2368960895BA93AA9324970E9441
:10308A00B9230E94B51FFA93EA93EA85FB850E9449
:10309A00FD2009F06EC0E885F985A481A07209F4C3
:1030AA0068C0A481A074A1F00E94B51FE181EA93CF
:1030BA00E985FA85B096FA93EA93EB85FC850E9436
:1030CA00732111F0E1E056C0A885B9850E947E21DE
:1030DA000E94B51FFA93EA93EA85FB85A28DB38D08
:1030EA00848D958D0E94481E09F043C0A885B98534
:1030FA005E962D913C91D9011B96EC91E062EC937E
:10310A00A885B9851A960E945F23D9015C960E9408
:10311A006A23A885B9851E960E945B23D9015A960F
:10312A00ED93FC93E885F985A685B7858089918911
:10313A00FD01BC010E94E522D9015496ED93FC934E
:10314A000E94D5090E94F41FD90156960E946A234B
:10315A00A885B9851496EC91EF7DEC930E94B51F72
:10316A003496A1E0A0830E94B51FDF010E94D20A13
:10317A001E2FE12F0E94C0232A960895BA93AA937C
:10318A001A93A981BA8178DF1E2F103021F4A98100
:10319A00BA810E947B20E12F1881DCC20E94912310
:1031AA0060971A930E94E421EF89F88D0E94FD200E
:1031BA0009F091C1ED89FE89A481A07811F0E2E0BD
:1031CA008BC10E94E7210E94ED210E94AD2328F4C1
:1031DA00ED89FE89A481A27009F004C00E94E7214A
:1031EA000E94F221AD89BE8916960E94061E0E948F
:1031FA00FB1D0E94521F0E94F7211596EFEFEC93D8
:10320A000E94ED210E94A72308F011C10E94FF210C
:10321A00E281F0E00E94EF22A0E0B2E080E090E0DC
:10322A000E94F922E987FA876B877C870E94121E1F
:10323A000E94A72398F40E9404220E9409227F93E5
:10324A006F93FF93EF930E942A1F0E940922AF9166
:10325A00BF918F919F910E94B22308F421C00E94CE
:10326A002A1F0E94E920DF01CB010E9413220E943B
:10327A00E9200E94F4220E949B220E94F7211696BE
:10328A000E945F230E94ED210E949622A98BBA8B8D
:10329A008B8B9C8BAD89BE8952960E9418222BC0BB
:1032AA00AD89BE891E960E9418220E941F220E9482
:1032BA00A323F9F40E94E4210E94431E0E942422BF
:1032CA000E942B220E942F1F21F40E943022E2E04A
:1032DA0003C10E942B220E94371F21F40E94302230
:1032EA00E1E0FAC00E941F22AD89BE891E960E94A3
:1032FA006A230E9437220E941F220E94A32309F4F4
:10330A0096C00E9413220E94ED210E94AD2308F06C
:10331A0055C0ED89FE89A481A27089F00E94E4213A
:10332A000E943E220E9424220E941F220E94A3235E
:10333A0029F40E9413220E94F22140C00AC00E946E
:10334A00E4210E943E220E943A0BED87FE876F8796
:10335A00788B0E942B220E94371F21F40E94302270
:10336A00E1E0BAC00E942B220E94751E58F00E940A
:10337A00FF217E96DF010E945F230E942B220E947A
:10338A00B22320F00E943022E2E0A6C00E94372237
:10339A000E944322A985BA858B859C850E94872233
:1033AA00D0010E946A23A985BA858B859C850E94D3
:1033BA0004220E9491220E94F221A3CF0E9443225A
:1033CA000E94ED210E948722D0010E946A230E9456
:1033DA00ED21E0E0F2E060E070E00E943223AD8986
:1033EA00BE891596EC930E940422F1703097F9F089
:1033FA000E94E4210E943E220E946B0D0E94521FED
:10340A000E940D1E0E94A32321F40E943022E2E0B2
:10341A0063C0ED89FE89E581F0E00E941C1F0E94CD
:10342A002E210E94521FAD89BE890E9483210E94CB
:10343A004B220E940B2151F0AD89BE8956960E94FB
:10344A005F230E941C1F0E94AD2309F42BC0ED8943
:10345A00FE89A481A07489F00E94FF21E181EA9388
:10346A000E94DC210E94732121F00E943022E1E0B7
:10347A0033C0AD89BE890E947E210E94FF21E1816D
:10348A00EA93EE89FF89B0960E942E1E21F00E94CF
:10349A003022E1E021C00E940D1EAD89BE895696F8
:1034AA000E946A230E944B220D010E94E721D0014B
:1034BA000E94AD2380F4AD89BE8916960E945F23CF
:1034CA00AD89BE891A960E946A23AD89BE8914966F
:1034DA00EC91E062EC93E12F188167960895BA9314
:1034EA00AA93A2971A93FE01B596FA93EA93FE015C
:1034FA003F96FA93EA93A0E00E94DB20E9F4FE01EA
:10350A003196E9A3FAA3FE013D96FA93EA93AFA195
:10351A00B8A50E941A111E2F103071F4EF8DF8A170
:10352A00309749F0FE013D96FA93EA93ADA1BEA108
:10353A000E949E1001C016E0E12F1881A7960895F7
:10354A00BA93AA93EC970E94B923FE01E05CFF4F5D
:10355A000E945222A1E00E94DB2009F081C0FE01F4
:10356A003896EEAFFFAFFE01BA96FA93EA93DE0100
:10357A00AE5BBF4F0D90BC91A02D0E94592239F02D
:10358A00103029F4EEADFFADE385E07209F401C015
:10359A0016E0103009F064C02CAD3DAD022E032AAE
:1035AA0011F4E6E05EC0F901E385E17011F0E7E0AD
:1035BA0058C00E9480200E94EA227F936F93FF9353
:1035CA00EF930E948320AF91BF918F919F910E94A8
:1035DA0088200E94671FF901E385E07139F10E9492
:1035EA005F1F0E94751E10F4E2E03BC0FE01749654
:1035FA000E945222A6E1B0E00E94671D0E94871F26
:10360A00EA8FFB8F6C8F7D8FFE017496FA93EA9393
:10361A00A2E00E94102021F5DE0154960E94560F66
:10362A001E2F103009F417E01430D1F4DE019A96F7
:10363A000E94CC0F1E2F103099F40E94871F0E94FF
:10364A00A32339F0EAA5FBA50E94EE200E94550C9F
:10365A001E2F103029F4AAA5BBA50E94D20A1E2F3C
:10366A00E12F0E94C023EF9623960895AA930E9401
:10367A005F22A1E00E94DB2041F50E94E020AAA57A
:10368A00BBA50E94592239F0103029F4ECA1FDA102
:10369A00E385E07209F401C016E01030B1F40E942B
:1036AA00F52011F416E011C0EEA1E772EEA3AFA166
:1036BA00EA230E2EF901A385EEA1E095EA23E0297B
:1036CA00D9011B96EC930E94652233C0BA93AA9340
:1036DA000E945F22A1E00E94DB2059F50E94E020AF
:1036EA00AAA5BBA50E94592239F0103029F4ECA1F1
:1036FA00FDA1E385E07209F401C016E01030C9F4B7
:10370A000E94F52011F416E014C0AEA1BFA11696CE
:10371A000E945B23D9015696ED93FC93AEA1BFA1FB
:10372A0014960E945B23D9015896ED93FC930E944C
:10373A006522E12F0E94C023AA960895BA93AA93FC
:10374A00AA810E94FF02A881B9810E945B23319657
:10375A00ED93FC9323960895BA93AA932B970E940C
:10376A00B72310E0A989BA890E947B20EF89F88DD6
:10377A003196EF8BF88F3197E4912E2FE03009F4D0
:10378A005DC1E12FE03039F4253211F411E002C0B5
:10379A000E94702252C1E130A9F4253219F40E9424
:1037AA0070224AC112E040E000E02D3211F401E03B
:1037BA0044C12B3211F44BE240C1203211F440E2F1
:1037CA003CC102C0E23039F450E013E0203311F476
:1037DA00006833C102C0E33091F4203310F02A3379
:1037EA0008F007C0AAE05A9F502DE22FE0535E0F5F
:1037FA0024C12C3619F4026015E01FC103C0E5305C
:10380A0009F01BC1E22FE33649F40E947722ED89C1
:10381A00FE89A481AA930E947D220EC1E33769F42E
:10382A000E947722AD89BE8914960E943C20AE81FF
:10383A00BF810E94891D1E2F0FC0E03791F40E949C
:10384A007722AD89BE8914960E943C20AE81BF8141
:10385A000E94951D1E2F08600F77E0E0E88B30E08C
:10386A0068C0E43611F0E93611F4046002C0E537A5
:10387A00A1F4EAE0E88B01FF08C0E0E0FAEC6AE9AB
:10388A007BE30E948C1F1AE022C0E0E1F7E260E0CD
:10389A0070E00E948C1F15E01AC0E83511F4086028
:1038AA0003C0E83709F0C8C0E0E1E88B01FF08C0AF
:1038BA00E0E0F0E060E070E10E948C1F18E007C0D1
:1038CA00E0E0F0E160E070E00E948C1F14E001FF8C
:1038DA0008C00E947722AD89BE8914960E945F2390
:1038EA0013C002FF0AC00E947722AD89BE891496CE
:1038FA000E945B230E94EF2207C00E947722AD89B3
:10390A00BE8914960E94C91EEC87FD876E877F8741
:10391A0002FF0FC0AF85AA233AF40E94821F0E94B9
:10392A00A5220E9424214DE2403011F01F5F01C000
:10393A000B7F00FD11C0151778F407FF08C002FFBE
:10394A0004C00B7F242F115001C020E301C020E2E4
:10395A000E9470225150EFCF312FE889E030B9F43C
:10396A003030A1F003FF06C0EE81FF812591EE837E
:10397A00FF8305C0AE81BF812D91AE83BF830E94B4
:10398A007022503009F051503150EACF4BC00E949A
:10399A00911F0E947D1F0E9432232E2F2A3030F061
:1039AA0003FF02C0295C01C0295A01C0205D04FD41
:1039BA001BC0213328F40E94701E0E942F1F09F495
:1039CA0009C0531710F000FF01C013C020E207FF1F
:1039DA000BC020E3006102FF07C00B7F4A930E94DD
:1039EA007D22503009F051500E947022503009F067
:1039FA00515031500E94911F0E947D1F0E945723EF
:103A0A000E942421E8890E94701EFF2766277727D3
:103A1A000E9432230E948C1F0E94911F0E94A3239E
:103A2A0009F0B5CF00FF08C0503031F05150E0E244
:103A3A00EA930E947D22F8CF10E098CEA989BA892C
:103A4A000E945B230E94BE2369960895FF92F82E76
:103A5A0026971A930A93DE0114960E9483228D01F7
:103A6A00E0E0EC83ED83EE83EF83DE0118960E949B
:103A7A0083220E9437201A930A93E3EAFBE1FA931E
:103A8A00EA93DE01189668DE198108812896FF906C
:103A9A000895BA93AA936627772789919991E9910C
:103AAA00F991A991B991009629F001976D917191B7
:103ABA006717C9F3671B10F4EFEF0895E0E009F008
:103ACA00E3950895BA93AA9399818881009641F063
:103ADA00BD81AC81FB81EA8161916D930197E1F728
:103AEA00FD81EC8126960895BA93AA93B981A8819B
:103AFA00109631F0FC81EB816A8161931197E9F7A5
:103B0A00EB81FC8125960895BA93AA93A991B9915C
:103B1A00EE27FF276D91662311F03196FBCF0895AA
:103B2A00BA93AA93AA27BB27E991F9910590002095
:103B3A0011F01196FBCFFD010895662777270E94A1
:103B4A008C23089584E00E942B1D26960895FF2752
:103B5A00662777270E948C23E0915E280895E6E382
:103B6A00F6E2FA93EA930895ECE6F8E2FA93EA9316
:103B7A0008950E9416143E2EE0300895E7E7F2E019
:103B8A00FA93EA93ECE6F8E2D8CFFA93EA93F201D1
:103B9A00D4CFA6E3B6E20E94C3183E2EE0300895C1
:103BAA00EDEAF2E0FA93EA93ECE6F8E2C6CFFA938A
:103BBA00EA9380E00E942B1D22960895FA93EA93D5
:103BCA00ECE6F8E2BACF0E948C2388E00E942B1D13
:103BDA002A960895ACE6B8E20E942203C5CFEA937A
:103BEA00A1E00E943B1B3E2EE0300895E0E0F0E0A9
:103BFA0060E070E00895F0E00E94EF22DF01CB015F
:103C0A0008950E945F23E983FA836B837C83089576
:103C1A00ED81FE816F8178850895A981BA818B81B2
:103C2A009C810895E985FA85A181AA93EA85FB8595
:103C3A00F296FA93EA93EC81FD816E817F810E946C
:103C4A008C23A1E00C949D07A2A1B3A184A195A104
:103C5A000895FA93EA93E885F9856A857B850E9437
:103C6A008C23A1E00E943907E0300895BA93AA9301
:103C7A001A93E981FA81FA93EA930895A0E0B0E0F1
:103C8A0080E090E008950E946D0A1E2F103008957A
:103C9A00ADDF0E946A230895F296FA93EA93E0E070
:103CAA00EA93A0E0B2E00C94791D0E948723E9818F
:103CBA00FA81F29608950E945F23D0010E946A2336
:103CCA00E981FA810895A289B389848995890E9434
:103CDA009123A1E00895A885B9858A859B850895D1
:103CEA00A230E0E0BE07E0E08E07E0E09E0708951C
:103CFA00E1E0F0E060E070E008950E945F23EC8369
:103D0A00FD836E837F830895EC85FD85FA93EA939C
:103D1A00D901E0E0F2E00E941F23AE81BF818885CD
:103D2A009985662777270E948C220E946D0AE030C7
:103D3A000895AC85BD85D296F901F170AE0FBF1F0B
:103D4A000895EC85FD85FA93EA93AA85BB858C854F
:103D5A009D850895E0E0F1E060E070E00E94322382
:103D6A000895AE81BF81888599850E948C220E9420
:103D7A006D0AE03008950E941923F170AC85BD8563
:103D8A00D296AE0FBF1F08950E945B23662777273E
:103D9A000895E0E8F0E060E070E00E9432230895C0
:103DAA00EFEFFFEF6FEF7FEF0895AE85BF8588894C
:103DBA0099890895EA89FB89FA93EA93D801E0E0A0
:103DCA00F2E00E941F2387DF662777270E948C2252
:103DDA000E946D0A5E2F50300895AA89BB89D29637
:103DEA00F801F170EA0FFB1F9F01EE85E17008955B
:103DFA00AA85BB858C859D850895EA89FB89FA93F6
:103E0A00EA93A889B9898A899B89089564DF0E94FF
:103E1A008C220E946D0A5E2F503008950E94192349
:103E2A00F170AA89BB89D296EA0FFB1F0895AD816A
:103E3A00BE818F8198850895A985BA855E960E946C
:103E4A005F23F5DF0E94B2230895E981FA816B812D
:103E5A007C810895A130E0E0BE07E0E08E07E0E053
:103E6A009E070895AF3FEFEFBE07EFEF8E07EFEF24
:103E7A009E070895A685B78580899189F3CFA9857C
:103E8A00BA851E960E946523EF5FFF4F6F4F7F4FE3
:103E9A000E946F23A985BA850895ED83FE836F83F7
:103EAA00788708950E9482230895E889F9896A89A2
:103EBA007B890895AC81BD818E819F8108950E947E
:103ECA0078230895EC83FD836E837F830895EC89BC
:103EDA00FD89FA93EA930895AA89BB898C899D89F9
:103EEA0008950E943A0BEC87FD876E877F870895B5
:103EFA00AC85BD858E859F850895EC85FD856E858B
:103F0A007F850895EC81FD816E817F810895E88720
:103F1A00F9876A877B870895E885F9856A857B85AD
:103F2A000895F0DFD8DE0E94AD230895E6DF0E94EF
:103F3A00A3230895EA89FB896C897D8908950E94E3
:103F4A0096230E94912208950E945F23EA83FB83AD
:103F5A006C837D830895AA81BB818C819D8108959C
:103F6A00A885B9850E945B2308957E96DF010E9489
:103F7A005F23F1DF0E94B2230895EA81FB816C81FD
:103F8A007D810E94A3230895EA81FB816C817D8152
:103F9A00A885B9851A960E946A23E2CF66277727F1
:103FAA000E9487220895EF70F070EE0F0E94CE22D1
:103FBA00EA0FFB1F08951E960E945F230E94A32307
:103FCA000895A985BA850E945B230895FA93EA9316
:103FDA00EB85FC85A285B38584859585089572DF76
:103FEA0091CFFA93EA934ADE0E946D0AE03008956F
:103FFA00FA93EA93AE81BF81888599850C946B0DFB
:10400A00BA93AA930E94B9230895EC81FD81FA9389
:10401A00EA93A0E00895B0E00E94A30D1E2F10308D
:10402A000895AC81BD810E945B23FA93EA93EE81E5
:10403A00FF81A685B7858089918925CEAC81BD810E
:10404A0052962D913C91D9010C91003008953A93E2
:10405A002A93EE81FF81A489B589BA93AA93ABE02A
:10406A00B0E008950E945B23FA93EA9308950E94B0
:10407A005B23EE83FF830895E885F985AE81BF81CE
:10408A000895E885F9853196E887F9873197AE81F1
:10409A00BF81AE0FBF1F0C910895E22F2F5FF0E092
:1040AA00E40FF51F00830895EA0FFB1FAB85BC855B
:1040BA00ED93FC9301320895DA01EE27A10FBE1F9A
:1040CA000C9100320895EE81FF813196EE83FF83D1
:1040DA00319700830895AE81BF8116960E946A23A4
:1040EA000895EE81FF81FA93EA930895E0E0F0E003
:1040FA00ED93FC930895D901549646CED9015A9668
:10410A000E945B230895662777270E94A0220895BC
:10411A000E948C23A1E00E943907E0300895F296AC
:10412A00E250FE4FDF010E945B23E535AAEAFA0757
:10413A0008950E945F23EF7FFF7F6F7F7070E634E0
:10414A00A1E4FA07A4E56A07A0E07A070895ACEAB1
:10415A00B9E2F0E0EE0FFF1FAE0FBF1F0895EA8B22
:10416A00FB8B6C8B7D8B0895AE81BF81A05CBF4FAA
:10417A000E945B230895AE89BF89888D998D0ECFE1
:10418A00EE81FF81A085B185FD010E94D7220895A5
:10419A00EE81FF8159DDCEDE0E9487220895FA93CF
:1041AA00EA93FE017296FA93EA9308950E94D01157
:1041BA001E2F10300895FE013496ECA3FDA3FE01D4
:1041CA007096FA93EA930895E150F0406040704087
:1041DA000895FA93EA93AE81BF81888599850895F7
:1041EA002AA13BA1022E032A0895AA8DBB8D3ACF9C
:1041FA00A281B3810E94C7131E2F10300895EA8D41
:10420A00FB8DA681B781808591850895FD01BC014A
:10421A00F17030970895AA8DBB8D0E945B23E281CD
:10422A000895EC8DFD8DA289B389848995890895B5
:10423A00AA8DBB8D1496EC91E068EC930895EC87F7
:10424A00FD876E877F870895EA8DFB8DE581F0E013
:10425A0008950E94EF220E9487220895E0E0F2E08A
:10426A000E941F23AF01042E052A0895AA8DBB8D33
:10427A000E945B23E181EA930895FA93EA93EF851A
:10428A00F88969897A890895EA8DFB8DA689B789A3
:10429A00808D918D32CE0E949622FA016627772769
:1042AA000E94B22308950E949622E0E0F2E060E0C4
:1042BA0070E00E94F922089588279927EA0FFB1FC8
:1042CA00FA93EA9308951596EC91E40FEC93FA01A8
:1042DA00EE0FFF1FFE2FE0E09F010895A689B78920
:1042EA00808D918D0E949123A1E00E949D07E0306C
:1042FA0008951496EC91EF7BEC9308951596EC9142
:10430A00EF5FEC93089516960E945B23F17008956F
:10431A00F901AE81BF81EA0FFB1FEE83FF83089587
:10432A0036960F01DF010E945F23DF01CB01F901FD
:10433A0035CE0E945B23E20FF31FED93FC930895A1
:10434A00AE89BF898FCEAE89BF891A960E945F2334
:10435A000895EE89FF89A681B781808591850895A0
:10436A00AE89BF890E945B230895E88DF98DA289E1
:10437A00B389848995890895AE89BF891496EC9189
:10438A00E068EC930895E181EA93EF89F88DB0969D
:10439A00FA93EA930895EE89FF89E581F0E008959A
:1043AA00EE89FF89A689B789808D918DB5CDEE8971
:1043BA00FF89B096FA93EA93E88DF98D0895AD894D
:1043CA00BE8950CEAD89BE891A960E945F23089590
:1043DA00A989BA898B899C890895E98BFA8B6B8B99
:1043EA007C8B0895AD89BE8916960E946A23AD8991
:1043FA00BE890895AD89BE890E945B230895E98923
:10440A00FA896B897C890895DFDEDF01CB01E985B2
:10441A00FA856B857C850E9432230895E985FA85A1
:10442A006B857C8508950E945F23ED87FE876F87E1
:10443A00788B0895ED85FE856F85788908950E94A9
:10444A00AA0CED87FE876F87788B0895AD85BE85A8
:10445A008F8598890895AD89BE891496EC91E06894
:10446A00EC930895E7DFAD89BE8952960E946A23CC
:10447A000895AF85B88989899A890895ED89FE8951
:10448A0036960F01DF010E945F230895ED89FE89A8
:10449A00A681B781808591850895FA93EA93FE01F2
:1044AA00BC96FA93EA9308950E941A111E2FE1E02E
:1044BA00E0300895A2970E94B923FE01B8966FCE04
:1044CA00A889B9891496E1E0EC93A889B9890E9470
:1044DA00D20A1E2F08952A93AA89BB89EC89FD89DD
:1044EA0009950895ED89FE893497ED8BFE8B089521
:1044FA00AA89BB89EC89FD89099508950024AF0D25
:10450A00B01D0895EA0FFB1F681F791F0895AE0FAB
:10451A00BF1F861F971F0895EA1BFB0B680B790BB9
:10452A000895AE1BBF0B860B970B0895EA23FB2356
:10453A00682379230895EA2BFB2B682B792B08959E
:10454A00F09560957095E195FF4F6F4F7F4F0895F5
:10455A00EE230E2EFD0121F0F695E7950A94E1F778
:10456A000895EE230E2EFD01BC0131F0EE0FFF1F60
:10457A00661F771F0A94D1F70895EE230E2EFD01C8
:10458A00BC0131F076956795F795E7950A94D1F7CE
:10459A000895EE0FFF1FEE0FFF1FEE0FFF1FEE0F26
:1045AA00FF1F0895F695E795F695E795F695E79531
:1045BA00F695E7950895EE0FFF1F661F771F08957A
:1045CA00E62FF72F60E070E008956E2F7F2FE0E06E
:1045DA00F0E008956F2F660F660B762F0895E09529
:1045EA00F0956095709508957A9F702D6B9F700D68
:1045FA00F89F700DE99F700D6A9F602D710DFB9FEA
:10460A00600D711DE89F600D711D8827FA9FF02DBE
:10461A00610D781FEB9FF00D611D781FEA9FE02D59
:10462A00F10D681F781F08956E2F6A9FF0016B9F26
:10463A00F00D08950024112490E1AA0FBB1F001C5D
:10464A00111C0E1A1F0A18F40E0E1F1E01C0A160BB
:10465A009A9599F7FD01D00108953F934F935F937F
:10466A00002411244427552730E2AA0FBB1F881FB4
:10467A00991F001C111C441F551F0E1A1F0A460BB6
:10468A00570B28F40E0E1F1E461F571F01C0A160AC
:10469A003A9559F7FD01BC01D001CA015F914F91CA
:1046AA003F910895DADFFD01BC010895ED91FC9177
:1046BA0011970895ED91FD916D917C91139708954D
:1046CA00ED91FD916D917D910895ED93FD936D931B
:1046DA007C9308957E936E93FE93EE9308950590CE
:1046EA00F491E02D0895E881F9816A817B8108952A
:1046FA00A881B9818A819B810895E883F9836A83B5
:10470A007B830895A083B1838283938308957A93E8
:10471A006A93FA93EA9308959A938A93BA93AA9317
:10472A000895182E862F612D192E972F712D1B2E65
:10473A00BF2FF12D1A2EAE2FE12D0895309760402C
:10474A007040089500240A160B0608060906089503
:10475A00EA17FB07680779070895AE17BF078607A8
:10476A00970708955A934A933A932A931A930A9366
:10477A0008955D814C813B812A81198108810895C0
:00000001FF
