:0C0000000C940E030C9400000C94000003
:10000C000C9400000C9400000C9400000C94000064
:10001C000C9400000C9400000C9400000C94000054
:10002C000C9400000C9400000C9400000C945803E9
:10003C000C9400000C9400000C9400000C94000034
:10004C000C9400000C9400000C9400000C94000024
:10005C000C9400000C9400000C9400000C94000014
:10006C000C9400000C9400000C9400000C94000004
:10007C000C9400000C9400000C9400000C940000F4
:10008C000C9400000C9400000C9400000C940000E4
:10009C000C9400000C9400000C9400000C940000D4
:1000AC000C9400000C9400000C9400000C940000C4
:1000BC000C9400000C9400000C9400000C940000B4
:1000CC000C9400000C9400000C9400000C940000A4
:1000DC000C9400000C9400000C9400000C94000094
:1000EC000C9400000C9400000C9400000C94000084
:1000FC000C9400000C9400000C9400000C94000074
:10010C000C9400000C9400000C9400000C94000063
:10011C000C9400000C9400000C9400000C94000053
:10012C000C9400000C9400000C9400000C94000043
:10013C000C9400000C9400000C9400000C94000033
:10014C000C9400000C9400000C9400000C94000023
:10015C000C9400000C9400000C9400000C94000013
:10016C000C9400000C9400000C9400000C94000003
:10017C000C9400000C9400000C9400000C940000F3
:10018C000C9400000C9400000C9400000C940000E3
:10019C000C9400000C9400000C9400000C940000D3
:1001AC000C9400000C9400000C9400000C940000C3
:1001BC000C9400000C9400000C9400000C940000B3
:1001CC000C9400000C9400000C9400000C940000A3
:1001DC000C9400000C9400000C9400000C94000093
:1001EC000C9400000C940000050720600000000037
:1001FC00000000040404040400040A0A0A000000BD
:10020C00000A0A1F0A1F0A0A041E050E140F040313
:10021C00130804021918060905021509160604022A
:10022C000000000008040202020408020408080886
:10023C000402000A041F040A000004041F04040042
:10024C00000000000604020000001F000000000077
:10025C000000060600001008040201000E1119151A
:10026C0013110E0406040404040E0E1110080402EB
:10027C001F1F08040810110E080C0A091F08081F7C
:10028C00010F1010110E0C02010F11110E1F10088E
:10029C00040202020E11110E11110E0E11111E107C
:1002AC000806000606000606000006060006040204
:1002BC001008040204081000001F001F00000102B7
:1002CC0004080402010E1110080400040E1110168B
:1002DC0015150E0E1111111F11110F11110F1111F6
:1002EC000F0E11010101110E070911111109071F40
:1002FC0001010F01011F1F0101070101010E110175
:10030C000119110E1111111F1111110E0404040405
:10031C00040E1C0808080809061109050305091133
:10032C000101010101011F111B15111111111111F5
:10033C0013151911110E11111111110E0F11110F9D
:10034C000101010E1111111509160F11110F0509DB
:10035C00111E01010E10100F1F04040404040411DB
:10036C0011111111110E11111111110A0411111188
:10037C0015151B1111110A040A111111110A04048B
:10038C0004041F10080402011F1C04040404041CB0
:10039C000001020408100007040404040407040A02
:1003AC0011000000000000000000001F0204080003
:1003BC0000000000000E101E111E01010D13111182
:1003CC000F00000E0101110E1010161911111E0054
:1003DC00000E111F010E0C12020702020200001E79
:1003EC00111E100C01010D1311111104000604044F
:1003FC00040E08000C080809060202120A060A126A
:10040C000604040404040E00000B15151111000061
:10041C000D1311111100000E1111110E00000F110E
:10042C000F0101000016191E101000000D13010120
:10043C000100000E010E100F0202070202120C0046
:10044C0000111111191600001111110A04000011EC
:10045C001115150A0000110A040A11000011111ED1
:10046C00100E00001F0804021F08040402040408F4
:10047C000404040404040402040408040402021521
:10048C0008000000001F11111111111F14001E0093
:10049C0064006400C800C8000A001E00DC009F0055
:1004AC0077003601000103070F1F3F7FFF0000009C
:1004BC0000000000202A58041A7E27221215E3257A
:1004CC00221215031027E80364000A000100001033
:1004DC000001100001004144533738343620526576
:1004EC007369737469766520546F75636820436F04
:1004FC006E74726F6C6C65722044656D6F00546F16
:10050C0075636820636F6E74726F6C6C65722063B8
:10051C00616C6962726174696F6E206661696C6589
:10052C006400546F75636820636F6E74726F6C6CCB
:10053C0065722063616C69627261746564204F4BF3
:10054C0000546F7563682063726F73732063656EFC
:10055C0074657220746F207265616420636F6F72B2
:10056C0064696E6174657300436F6F7264696E6168
:10057C0074657320726561642062792074686520EB
:10058C00746F75636873637265656E3A0A583D25BE
:10059C00642C20593D2564004572726F722072657F
:1005AC006164696E6720636F6F7264696E617465F4
:1005BC007300546F7563682074686520736372658B
:1005CC00656E20746F20647261772E2E2E002825A4
:1005DC00642C25642900546F7563682063726F73F3
:1005EC00732063656E74657220746F2063616C692F
:1005FC0062726174650001002D4E414E00494E46F9
:10060C0000001A000024A4050100B3240206000017
:10061C00F894EE27E8BFE9BFEABFF091CC01F8608F
:10062C00F093CC01F8EDF4BFE093A200E09340040A
:10063C00A0918000AD7FA160F4BFA093800080E00A
:10064C0090E2A0E0B0E2ED930197E9F7EEE0F6E07E
:10065C0085919591009761F0A591B59105901590B4
:10066C00BF01F00105900D920197E1F7FB01F0CF6E
:10067C008BBFE0E0E0B9E1B9E2B9E3B9E4B9E5B9BF
:10068C00E6B9E7B9E8B9E9B9EAB9EBB9ECB9EDB94A
:10069C00EEB9EFB9EFEFEDBFEFE3EEBFC0E0D4E2A0
:1006AC000C947C030A921A92FA926A937A938A9324
:1006BC009A93AA93BA93EA93FA93EFB7EA930E94A8
:1006CC00EF0FE991EFBFF991E991B991A991999146
:1006DC00899179916991F9901990099018950E94D6
:1006EC003A13A2EEB4E00E94C30C0895669709D1A8
:1006FC0046D1E4EFF1E0E883F983E0E0EA83EB83B1
:10070C00EC83ED83EE81E160EE83ED7FEE83E460BC
:10071C00EE83E77CE062EE83EF81E07FEA60EF83BB
:10072C00EF78E062EF83E885E87FE887E778E865B3
:10073C00E887E985E07EE460E987EA85E07EEA61A6
:10074C00EA87EB85E07FEE60EB87E067EB87EC8573
:10075C00E760EC87E77CE062EC87ED85E87FE260A0
:10076C00ED87E77CE062ED87EE85E87FE260EE875F
:10077C00E77CE061EE87EF85E87FE560EF87E7785F
:10078C00E061EF87E889E07EE360E88BE06EE88B60
:10079C00E989E87FE560E98BE77CE062E98BEA892F
:1007AC00E87FE260EA8BE77CE062EA8BEB89E87F2A
:1007BC00E260EB8BE77CE061EB8BEC89E87FE5603A
:1007CC00EC8BE778E061EC8BED89E07EE360ED8B00
:1007DC00DE010E94680883DFE091A200E873E1600B
:1007EC001E2FE8EDE4BF1093A200E0E0E093A1001F
:1007FC00A0E00E94DF10E030B1F47894C2D1E03078
:10080C0039F40E944113AAE0B5E00E94C30CFFCF5B
:10081C000E944113AEE2B5E00E94C30CA8EBBBE012
:10082C000E9448135CDF78940E944C13ADE4B5E051
:10083C000E94C30C10E01330F0F50E94531384D1C6
:10084C00EDB7FEB73197FA93EA933F932F93ADB779
:10085C00BEB711975F934F930E943D104F915F91DC
:10086C002F913F910E942B17F0F80E94531376D1D1
:10087C00F0FE17C0EDE3F4E2FA93EA93E4E7F5E057
:10088C00FA93EA93F9010E945F13FA010E945F1335
:10089C0088E00E94FE0E2C960E944C13ADE3B4E24D
:1008AC0004C00E944C13A0E0B4E20E94B50C0E945C
:1008BC0064131F5FC0CFA0EDB7E00E944813AEEBEE
:1008CC00B5E00E94CE0CEDB7FEB73197FA93EA93E0
:1008DC003F932F93ADB7BEB711975F934F930E9481
:1008EC003D104F915F912F913F91E03041F02A9351
:1008FC00DA010E946F0BAAE0B0E00E94A615E3CFCC
:10090C00FFCF1A930A930FB7F894E0915000E4606C
:10091C00E0935000E0915100E470E1F3E09150005D
:10092C00E260E0935000E0914100E0781E2FE8ED8A
:10093C00E4BF10934100E0915600EC7FE093560029
:10094C00E0916000E160E0936000E0915100E270A2
:10095C00E1F3E0914000E87FE1601E2FE8EDE4BF99
:10096C0010934000E0915000E67EE0935000E0913F
:10097C00B400EC7FE093B4000FBF0C94CC07E09173
:10098C000008E07FE160E0930008E0910108E87066
:10099C00E0930108E0910308E071E0930308E09113
:1009AC000608E07FE160E0930608E0910708E0703C
:1009BC00E0930708E0910C08E0930C08E0E0F0E00D
:1009CC00E0932008F0932108EFE3FCE9E09326087C
:1009DC00F0932708E0E0F0E0E0932808F093290872
:1009EC00E0932A08F0932B08E0932C08F0932D0841
:1009FC00E0932E08F0932F08089524970E94301747
:100A0C00EA85E550EA93ED85FE85FA93EA93ED8548
:100A1C00EB5FEA93A889B9890E94030DEA85EA93F2
:100A2C00ED85FE853597FA93EA93ED85EA93A889CF
:100A3C00B98915960E94030DEDE3F4E2FA93EA935B
:100A4C00EAEDF5E0FA93EA93EE85FF850E945F13D9
:100A5C00EC89FD890E945F1388E00E94FE0E2C96A3
:100A6C00ADE3B4E20E94140C0E2F11270E94060C69
:100A7C004E2F5527EC85FD853596E40FF51FEE833B
:100A8C00FF83E034A1E0FA074CF0EC85FD85359747
:100A9C00E41BF50BEE83FF83FF2302F1EE81FF8154
:100AAC00E887F987D801E2E0F0E00E942716AA85D2
:100ABC00BB85AE1BBF0B9D0133231AF420E030E045
:100ACC000CC0D801A20FB31FA03FE0E0BE072CF072
:100ADC00EFEEF0E0E01BF10B9F0129C0DA01E2E040
:100AEC00F0E00E942716AC85BD85AE1BBF0BA88716
:100AFC00B987EA85FB853596E00FF11FEE83FF83FE
:100B0C00E03FA0E0FA071CF42E813F8110C0EA857B
:100B1C00FB853597E01BF10BEE83FF83FF231AF067
:100B2C002E813F8104C0EA85FB8535979F012A936E
:100B3C00E985FA85FA93EA93ADE3B4E20E94B50C29
:100B4C000E9437172E960895EFEFE0931A240E9417
:100B5C0068130E948F1651DF249608951A931091F2
:100B6C001A24E0911B24E0931A24E981FA816B8109
:100B7C007C810E948F1641DF10931A2418812596D0
:100B8C0008952C970E944C13A2EEB5E00E94C30C62
:100B9C000E946B13D9DFFE01FA93EA93DE011496DF
:100BAC000E9420100E946B13D9DF0E946413E8EAA4
:100BBC00F4E0A4E00E949416C7DFFE013496FA9389
:100BCC00EA93DE0118960E942010E8EAF4E0A4E013
:100BDC000E949416C3DF0E946413ECEAF4E0A4E0D4
:100BEC000E949416B1DFFE013896FA93EA93DE0167
:100BFC001C960E942010ECEAF4E0A4E00E949416EB
:100C0C00ADDFFE01FA93EA93A4EAB4E00E944D1121
:100C1C000C94ED0BBA93AA93E881E695E695E770F0
:100C2C0069816770660F660F660FE62B6981607CC1
:100C3C00E62B22960895AA93E881E770EE0FEE0F4B
:100C4C00F881F873F695F695F6956881607CF62B2D
:100C5C000C94FC07FF92AA9322970E943017E88508
:100C6C00E03011F0E53069F4AB85A33031F4A0919C
:100C7C003924B0913A24109709F002C00C949707CC
:100C8C001DC0E13011F0E23009F402C0E33009F488
:100C9C0002C0E43011F40C949707E63079F4EB853C
:100CAC00E13011F40C949707E33041F4E0913B24CC
:100CBC00F0913C24309711F40C949707A989A03F2C
:100CCC0068F4AF85B889A034E1E0BE0738F4AE858E
:100CDC00A03021F0AC85BD85109711F40C949707CA
:100CEC00A989BB27EE85F0E0AE0FBF1FA13FE0E066
:100CFC00BE0720F0A989E0EFEA1BEE87EC85FD85A5
:100D0C00AF85B889AE0FBF1FA134E1E0BE0740F03C
:100D1C00AF85B889E0E4F1E0EA1BFB0BEC87FD87BB
:100D2C00E989EA93E889F989FA93EA93E989AC8924
:100D3C00AE0FA150AA93E889F989AB89BC89AE0F93
:100D4C00BF1F11970E942B08E989EA93A889B989DA
:100D5C000E941B08E2E0E0936506A885A63071F5B9
:100D6C000E94CF07EB85E330B9F40E94721399F01F
:100D7C003E85E32F3150E03069F0E985FA853196F4
:100D8C00E987FA870E947913E0913B24F0913C2487
:100D9C000995EFCFEACF10C00E94721369F03E851F
:100DAC00E32F3150E03039F00E9483130E94791305
:100DBC000E941B13F5CFF0CF0C949307A885A73096
:100DCC0031F400911A24E0912424E0FB07C0A8859B
:100DDC00A83009F049C000913024E894F0F8A02F15
:100DEC002ADF8F01F0FC04C00E948B13EE83FF837B
:100DFC00EE850E948F13EE85E770EE87E03009F0E8
:100E0C004F5F0E94721371F120E0241750F50E947D
:100E1C0083130E9494133E2F58E02F5F421721F446
:100E2C00EE85E03009F05E85F0FE0EC030FF06C0A6
:100E3C000E949C07D8010E94A80702C00E94CF07FD
:100E4C003695515099F70CC030FF02C0F80102C022
:100E5C00EE81FF81DF010E94A80736955150A1F762
:100E6C00D4CFCFCF0C949307AE85BB278827992777
:100E7C00EC85FD850E949B139F01462FE885E03091
:100E8C00B9F4AB85A33049F40E94A0130E94AC13B3
:100E9C00215030404040C1F70AC00E9483130E9489
:100EAC0094130E94AC13215030404040B1F735C030
:100EBC00E53039F5AB85A33089F40E94A0130E2FD1
:100ECC00AE2FE0911C24EA1719F00E94B21301C056
:100EDC0060D021503040404081F712C00E948313F3
:100EEC000E9494130E2FAE2FE0911C24EA1719F0D8
:100EFC000E94B21301C04DD021503040404071F7D8
:100F0C000CC0E93019F400911B2404C0EA3029F418
:100F1C0000911A24A02F0E94BA130E943A130E9427
:100F2C00BF130E9437176296FF900895EFEFE0937E
:100F3C00800603C0E0E0E0938006E093400608954D
:100F4C0000000895BA93AA93E1E0E0936606E8E006
:100F5C00E0936606E981E0934406E881E093840619
:100F6C00EFDFE8E0E093650600000000E1E0E093CD
:100F7C0065060C94040C1A930A930E94C5131091E5
:100F8C004806009188060E94CD13F8010991199129
:100F9C000895D0DF0E94C5130E94CD130895AA9323
:100FAC00E2E0E0936606C2DFA881BB27CBDF1EC060
:100FBC00BA93AA93E2E0E0936506B8DFA881B98101
:100FCC00C1DF0C94040CBA93AA93AA81E8DFA88120
:100FDC00B981EEDF0C94010DE2E0E0936506AADF27
:100FEC00CADF0895AA93A881DADFF6DF2196089567
:100FFC000E94D4130A811B8110934406009384062B
:10100C00E1E0E0936606E8E0E093660699DFE8E04D
:10101C00E0936506215030404040A9F7E1E0E093B1
:10102C006506198108810C94F40CBA93AA93EEE42A
:10103C00EA93AB81BB27C7DFEFE4EA93A981BA81BE
:10104C00C2DFA2E2ACDF0C94010DBA93AA93E4E4E4
:10105C00EA93E0E0FB81DF01EE81F0E00E94D9131E
:10106C00E5E4EA93AC81BD81AEDFE6E4EA93A981C5
:10107C00BA81A9DF0C94CC0C0E94DD13E2E0E09362
:10108C0065062F933F934F9320E03CE241E00E9492
:10109C008B13DF01ADDF4F913F912F910E94DD1338
:1010AC00E0E0EA93A0E0B0E09BD40895AA93EB8132
:1010BC00EA93AA81BB81B9DFA8810E942106DF01D6
:1010CC0077DF8CC4BA93AA9366971A930A93E1E0DC
:1010DC00E0936106E0936506E4E0E0936106E0933B
:1010EC006506E8E0E0936106E0936506E2E0E093D4
:1010FC006106E0E1E0936106E0936606A5E0B0E0EE
:10110C000E94A615E0E1E0936506A0E06BDFE938EC
:10111C00A9E8FA0711F0E0E084C1E88DF98D309769
:10112C0031F0DE01129686E10E94EA1607C0EAEB66
:10113C00F4E0DE01129686E10E94F416E0E0EA93F8
:10114C00A1E0B0E040DFAFE0B0E00E94A615E3E024
:10115C00EA93EA850E94E313E9850E94EB13EE0FF4
:10116C00FE2FE0E0AE0FBF1FEA85EF70F070E29546
:10117C00E07FAE0FBF1FEA85E295E770F070EE0FCF
:10118C000E94D913ECE0EA93EB85E770F0E0DF0105
:10119C001ADFEDE0EA93EB85E695E695E695EF70C0
:1011AC00F0E0DF0110DFEEE0EA93EC850E94F11332
:1011BC00E050F04EDF0107DFEEE1EA93ED85EF71D1
:1011CC00F070A0E8B0E00E94D913AFE0B0E00E944C
:1011DC00A615A1E007DFE070F0718F01E885E695B8
:1011EC00E695E170F070EE0FEE0FEE0FFE2FE0E0E3
:1011FC00BF01E885E1700E94E215F0E0DF01EEE04E
:10120C000E94D415DB01AE0FBF1FE885E695E17097
:10121C000E94E215F0E0EE0FFF1FFE2FE0E0EA0F58
:10122C00FB1FE15CFE4D0E2B1F2BE1E0EA93D80176
:10123C000E94E907E2E0EA93A0E0B0E10E94E9072E
:10124C00E0E10E94F6130E94FB13AEE1B0E00E94B5
:10125C00A615E5E00E94F613E6E00E94F613E7E01F
:10126C00EA93A3E3B0E00E94E907EBE0EA93A8E07D
:10127C00B3E50E94E907EFE00E94F613E5E2EA937A
:10128C00EE850E94E3130E94E907A4E1B0E00E94FE
:10129C00A615E1E40E94F613E2E40E94F613E8E4DA
:1012AC000E94F613E9E4EA93AFE3B1E00E94E90788
:1012BC000E943A130E94BF13E3E20E94F613E4E289
:1012CC000E94F613A4E1B0E00E94A615E0E3EA93B5
:1012DC00EF850E940114DF01EE85E295E770F07056
:1012EC000E94D913E1E3EA93EF850E94EB13DF012F
:1012FC00E8890E9401140E94D913E2E3EA93E88979
:10130C000E94EB13DF01E9890E9401140E94D9139A
:10131C00E3E3EA93E9890E94EB13DF01EA890E9477
:10132C0001140E94D913EAE3EA93EA890E94061495
:10133C00EB890E94F1130E94D913E4E3EA93EC8940
:10134C000E940114DF01EB89E295EF70E695E770DE
:10135C00F0700E94D913E5E3EA93EC890E94EB1339
:10136C00DF01ED890E9401140E94D913E6E3EA9390
:10137C00ED890E94EB13DF01EE890E9401140E949B
:10138C00D913E7E3EA93EE890E94EB13DF01EF89AF
:10139C000E9401140E94D913EBE3EA93EF890E9497
:1013AC000614E88D0E94F1130E94D913EFEFE0931D
:1013BC001A24E0E0E0931B24E0931C24EA81FB81D7
:1013CC00E0932024F0932124EC81FD81E0933924D7
:1013DC00F0933A24EE81FF81E0933B24F0933C247C
:1013EC00E1E0E0932224E0932324E0912424EE7F97
:1013FC00E0932424E1E0E0932524EFEFE09326240E
:10140C00E0933024E1E3F4E2FA93EA93EFEFEA930A
:10141C00A8E0B0E00E94EC12A4E1B0E00E944813F6
:10142C00E1E0198108816A960895FF92AA930E94BF
:10143C003017FF24A985BB2728D1E987AE81BB27AC
:10144C0024D1EE83AF81B88532D1EF83F887E09158
:10145C002524AF81B885F0E0AE0FBF1F119727D1BF
:10146C00AF01EE81EA93A885B985BAD2EE81A98540
:10147C00EA17B8F46894F0F8AE81E985EA1B2E2FD0
:10148C00E1E1EA93A0E2B0E60E94E907EE81EA937B
:10149C00E885F985FA93EA93EC850E940D14DA013C
:1014AC000FC0A985EE81EA1B2E2FE985EA93E8850A
:1014BC00F985FA93EA93E9850E940D14A885B985FC
:1014CC00B4DD2F5FAF81B885FA01EA1BFB0B3196B7
:1014DC00AF010E94141471F4A22FBB2788279927FF
:1014EC00FA010E949B139F01462FA0911A240E947F
:1014FC00BA131FC024970E948B130E941B1400E088
:10150C00322FA02F0F5FA77011F41091262410FF1B
:10151C0003C0E881F98102C0EA81FB81DF010E94EE
:10152C00A8071695315069F7FA013197AF0139F7D1
:10153C002496F0FE02C00E94FB130E943A130E94F4
:10154C00BF130E94371785C4BA93AA9322970E949F
:10155C003017AC85BB2799D0EC87AC85BB27E091C5
:10156C002524F0E0AE0FBF1F11978FD03E2FAA8518
:10157C00BB859DD0EA87FB87A885B98598D0E8877D
:10158C00F987EC85EA93A985BA852AD2E885F9858D
:10159C00AA85BB85EA17FB07B8F4A885B985EA8547
:1015AC00FB850E942414A8E2B0E60E94E907EC85B2
:1015BC00EA93E985FA85FA93EA933A93AE85BF8567
:1015CC000E942B083A9317C0AA85BB85E885F9853C
:1015DC000E942414A8E3B0E60E94E907EC85EA9384
:1015EC00EB85FC85FA93EA933A93AC85BD850E9412
:1015FC002B08EC85EA93AB85BC850E941B08AC8557
:10160C00E32FEA1BEF5F3E2FEE81FF813196EE83D5
:10161C00FF830E94141479F4A32FBB2788279927E2
:10162C00EE81FF810E949B139F01462FA0911A24EB
:10163C000E94BA1320C024970E948B130E941B1483
:10164C0000E04A855B85A02F0F5FA77011F4109105
:10165C00262410FF03C0E881F98102C0EA81FB81D6
:10166C00DF010E94A8071695FA013197AF0159F7CF
:10167C00315031F724960E94FB130E943A130E94BA
:10168C00BF130E9437172D9608950E942B141CF03F
:10169C00E0E0F0E0B3C0A881B981A03FE0E0BE0774
:1016AC001CF0EFEEF0E0AAC0E881F981A7C00E941F
:1016BC002B141CF0E0E0F0E0A1C0A881B981A034AB
:1016CC00E1E0BE071CF0EFE3F1E098C0E881F9819E
:1016DC0095C0BA93AA93EA81EA93E981FA81FA93C5
:1016EC00EA93A0911A24E2DC86C1BA93AA932397B9
:1016FC000E9432148F01002E012A19F4E0E0F0E070
:10170C0064C00E9439140F820E9439140E820E9408
:10171C0039140886EB85A885EA1718F4E0E0F0E0A8
:10172C0054C0F8010F5F1F4F5491A885BB27EE27BB
:10173C00A50FBE1FEB85F0E0EA17FB0718F0E0E001
:10174C00F0E043C0EF81E030D1F0A985BA85EC938D
:10175C000E948F13EF81E77009F04F5FA885EB852E
:10176C00EA1BF0E0DF01EE81F0E00E94E715DF01FB
:10177C00E42FF0E00E94E715E00FF11F26C098015E
:10178C00E52FF0E00E0F1F1FA885AF5FA887A150B3
:10179C00EB85AE17A0F4F901E4910E948F13F901C7
:1017AC002F5F3F4FE491E77009F04F5FAE81BB278D
:1017BC00E42FF0E00E94E7150E0F1F1FE5CFF90193
:1017CC00E491A985BA85EC93F8010E9437172C9601
:1017DC000895AA932197E0912024F0912124309729
:1017EC0061F0E981EA93DE0111967FDF309729F0F1
:1017FC00E0912224A881EA0F01C0E0E0229608952E
:10180C000E943E14309711F4E0E008950E943E14BB
:10181C003196A491E0912324EA0F08950E94D413E9
:10182C0000E0AA81BB81ED91AA83BB831E2FE0301F
:10183C0021F0A12FCEDF0E0FF4CFE02F19810881FC
:10184C00CDC0E0E0E0931D240E9443143196E49156
:10185C00F0E0AE0FBF1FE0912324F0E0AE0FBF1FEE
:10186C000E9448140895AA9321970E94321430972D
:10187C0009F470C0AF81AA3009F468C0EF81EA9313
:10188C00DE01179632DFAF01309719F40E9437173B
:10189C0061C4E0912224AE81EA0F3E2FA0911D2459
:1018AC00BB27E32FF0E0EA0FFB1F8F01013FE0E0C5
:1018BC001E0718F0032F1127C4DFE0911D240E948E
:1018CC004F14E985EA930E943E143196E491F0E0BE
:1018DC00FA93EA93E1E0EA935A934A93A7E00E94C1
:1018EC003006E0912424E17061F5E0911D24AE8175
:1018FC00EA0F0E944F14E0912224EA930E943E14B6
:10190C003196E491F0E0FA93EA930E943A13A9E03D
:10191C000E943006E0911D24EA930E9443143196F4
:10192C00E491F0E0EA0FFB1FFA93EA933A93E0910B
:10193C002324F0E0FA93EA930E943A13A9E00E9460
:10194C003006E0EFF0E0E017F10721F47ADF0E94B7
:10195C00371700C400931D240E943717FBC30E9445
:10196C005714A981BA81ED91A983BA831E2FE03057
:10197C0019F0A12F78DFF5CF08C00E9457140E94F0
:10198C00601419F0A12F6FDFFACF188126960895F5
:10199C00BA93AA931A930E94601419F0A12F63DFD3
:1019AC00FACF188128C0AA93EB81EA93EA81FB81D4
:1019BC00FA93EA93E0912624AB81EA2319F0E091A3
:1019CC001A2402C0E0911B24AE2F70DBE881EE0FCD
:1019DC00E883E03011F4E1E0E883E881249608958F
:1019EC00BA93AA93AA81BB2750DEE0931D24A88149
:1019FC00B9810E94481423960895BA93AA932C9700
:101A0C000E943017AF89BB2740DEEF8BAC89BB2718
:101A1C003CDEEC8BAD89BE894ADEED8BFE8BAA8950
:101A2C00BB8945DEEA8BFB8BEC89E0931D24EA89AC
:101A3C00FB89E0931E24F0931F24E1E0EF83EA89F5
:101A4C00FB89AD89BE89EA17FB07A1F41F89AC8914
:101A5C001A1741F41A93EE89FF89FA93EA93A1E0DD
:101A6C00A2DFA3C01A93EE89FF89FA93EA93AF8998
:101A7C00DCDC9BC0EC89AF89EA1751F42D893E89D7
:101A8C00EF89EA933A932A93AD89BE895DDD8DC0C7
:101A9C00E0E0EE83AE81AF5FAE83A150E0912524F0
:101AAC00AE1708F082C01F892D893E89E1E0F0E075
:101ABC00AF010E2FAC89BB27EF89F0E0AE1BBF0B3B
:101ACC00A88BB98BA989AA233AF40FEFE889F98975
:101ADC000E94C815E88BF98BE889F989EE0FFF1F76
:101AEC00EE87FF87AD89BE89EA89FB89EA1BFB0B70
:101AFC00EC87FD87AD85AA2332F44FEF5FEF0E9490
:101B0C00C815EC87FD87EC85FD85EE0FFF1FEA8776
:101B1C00FB871A933A932A93A1E045DFEF83E0E029
:101B2C00E887E987E889F989AC85BD85EA17FB0761
:101B3C00C4F0100FEA85FB850E946A14E889F989C4
:101B4C00A885B985EA17FB0734F4240F351FAE8539
:101B5C00BF850E9471140E947814EC89E11749F733
:101B6C0019C0240F351FEE85FF850E946A14EC8581
:101B7C00FD85A885B985EA17FB072CF4100FAA85FB
:101B8C00BB850E9471140E947814EA89FB89E217C4
:101B9C00F30739F7ED89FE893196ED8BFE8BEA89D7
:101BAC00FB893196EA8BFB8B75CF0E9437176896B1
:101BBC0008950E94D413AA81BB8112960E947716B5
:101BCC00309759F1AA81BB8114960E9477168F0128
:101BDC00309761F00230E0E01E0798F0F801319781
:101BEC008F01AA81BB811496ED93FC93AA81BB81D2
:101BFC0012960E9477163196ED93FC933197AC8137
:101C0C00A083AA81BB810E947716FF232AF00E9431
:101C1C0077163196ED93FC9306C0AA81BB81EFEF4A
:101C2C00FFEFED93FC93198108810C94FA12BA938F
:101C3C00AA9324970E94301710E0AA85BB85E0E098
:101C4C00F0E0ED93FC93E889F9893196E88BF98BF8
:101C5C003197E4913E2FE03009F4C2C0E12FE0301F
:101C6C0039F4353211F411E002C00E948014B7C06F
:101C7C00E13089F4353219F40E948014AFC012E0BF
:101C8C0020E000E03B3211F42BE2A9C0303211F419
:101C9C0020E2A5C002C0E23031F4303319F4006107
:101CAC0015E09DC003C0E53009F099C0E32FE33681
:101CBC0061F40E948714EE85FF85A481AA93AB85FD
:101CCC00BC85ED85FE85099589C0E33781F40E94BA
:101CDC0087140E948D14AE81BF81ED91AE83BF83BA
:101CEC003E2FE03019F00E948014F5CF77C0E0371A
:101CFC0091F40E9487140E948D14EE81FF8131961D
:101D0C00EE83FF833197E4913E2FE03019F00E946F
:101D1C008014F3CF63C0E43611F0E93611F401609E
:101D2C0002C0E53719F4E0EDF4E009C0E83511F430
:101D3C00026003C0E83709F051C0EAEDF4E0EE832D
:101D4C00FF8300FF17C00E948714AE85BF851496D1
:101D5C004D915C9155232AF4FA010E94C815AF01EC
:101D6C002DE2203031F02A93AB85BC85ED85FE85C4
:101D7C00099507C00E948714AE85BF8514964D91B6
:101D8C005C9130E3EE81FF810E947B16E887F98736
:101D9C00EE81FF813296EE83FF83E885F9854E173D
:101DAC005F0730F03F5FA885B9854A1B5B0BF5CF09
:101DBC0004FD06C0313320F4A885B985119751F480
:101DCC0000613A3328F001FF02C0395F01C0395D70
:101DDC000E948014A885B985129798F610E033CF2D
:101DEC00AA85BB850E9477160E94371762960895C4
:101DFC00FF92F82E26970E9432170E949514309766
:101E0C0019F4EFEFFFEF23C0DE0116960E94B01518
:101E1C008D010E949514EE83FF83E0E0E887E9874B
:101E2C00DE011A960E94B0150E947716FA93EA9377
:101E3C001A930A93EFEDFDE0FA93EA93DE011A96FA
:101E4C00F6DE9F01AE81BF81E0E0EC93F9010E94C8
:101E5C0039172A96FF90089500000895AA930E94BE
:101E6C0032170C8135E0E1E0E093A60607FF04C0D1
:101E7C00E4E0E093A50603C0E4E0E093A606ECDF03
:101E8C000E949C14000F315089F733E007FF04C007
:101E9C00E4E0E093A50603C0E4E0E093A606DCDFF3
:101EAC00E2E0E093A50685ED8A95F1F7E093A606AE
:101EBC0085ED8A95F1F7000F315041F7E4E0E0939E
:101ECC00A60600E010E03CE00E949C14E2E0E093E7
:101EDC00A506000F111FE091A806E87009F001603B
:101EEC00E2E0E093A606B8DF315081F7E1E0E09341
:101EFC00A506F8010E9439170C94FA12AA9362975E
:101F0C000E943017388DA32FA9DF10E0193078F418
:101F1C00E12F0E94A614EA0FFB1FFF93EF93A32F50
:101F2C009DDFAF91BF91ED93FC931F5FEFCF18E056
:101F3C0000E0011790F5302F0395E32F0E94A614B3
:101F4C00AE0FBF1F0D901C90E02F0E94A614AE0F79
:101F5C00BF1F0E947716E015F105F0F4E32F0E94E5
:101F6C00A614AE0FBF1F4D915C91E32F0E94A614D7
:101F7C00EA0FFB1F0F01E02F0E94A614AE0FBF1F2C
:101F8C000E947716D001ED93FC93E02F0E94A614CB
:101F9C00EA0FFB1F40835183CCCF115049F6EC85DF
:101FAC00FD85AA85BB85EA0FFB1FAE85BF85EA0FB1
:101FBC00FB1FA889B989EA0FFB1FAA89BB89AE0F41
:101FCC00BF1FE5E0F0E00E9414160E9437176996D7
:101FDC000895E091A806E07119F00E94AC1429C094
:101FEC00E091AE24E03029F1E150E093AE24E030F2
:101FFC0019F4E0E1E093A106E0E1E093A606E0919C
:10200C00AD24E069AE2F7ADFF695E795E093AF2427
:10201C00F093B024E091AD24E06DAE2F6FDFF69518
:10202C00E795E093B124F093B224009AE0E1E093B9
:10203C00A2060895BA93AA931A93009BFECF1FB7DA
:10204C00F894E091AF24F091B024AB81BC81ED9376
:10205C00FC93E091B124F091B224A981BA81ED9363
:10206C00FC930E94AC141FBF18810C94FA12BA9303
:10207C00AA932497FE013296FA93EA93DE01129604
:10208C00D9DF0E94B11419F40E94C11411F4E0E0DC
:10209C0061C0A0919124B09192248091932490914D
:1020AC0094240E94CC147F936F93FF93EF93A09191
:1020BC009524B091962480919724909198240E9415
:1020CC00D314AF91BF918F919F910E94B915E0915C
:1020DC009924F0919A2460919B2470919C240E94E5
:1020EC00DA14AE81BF81ED93FC93F07811F0E0E04F
:1020FC0031C0A0919D24B0919E2480919F249091F9
:10210C00A0240E94CC147F936F93FF93EF93A09124
:10211C00A124B091A2248091A3249091A4240E9484
:10212C00D314AF91BF918F919F910E94B915E091FB
:10213C00A524F091A6246091A7247091A8240E9454
:10214C00DA14AC81BD81ED93FC93F07811F0E0E0F2
:10215C0001C0E1E028960895BA93AA931A93AB8133
:10216C00BC810E94E71429F4A981BA810E94E7146A
:10217C0021F0E0E018810C94FA1210E2AB81BC81E2
:10218C001196AB83BC8311970E94B7160E2EA981B2
:10219C00BA811196A983BA8311970E94B716E015DC
:1021AC0019F0E0E0188120C2115041F7E1E01881EC
:1021BC001BC2AA930E943217E1E0E093A106E093C0
:1021CC00A506E2E0E093A106E093A606E4E0E09326
:1021DC00A106E093A606E8E0E093A206E0E1E09316
:1021EC00A206EC81E03011F0E4E001C0E0E0E09305
:1021FC00AD240E94AC14E091AD24E069AE2F2EDE2C
:10220C00E1E0F0E0FA93EA93A1E2B0E0A5DF1E2F43
:10221C00E1E2F0E00E94F1140E2FE1E0F0E00E9408
:10222C00F1143E2FE1E0F0E0ADE8B4E280E20E9470
:10223C00FE16103021F0003011F0303009F401C0DE
:10224C001AC0103019F00E94F71415C0003051F06C
:10225C00E1E2F0E0ADE8B4E280E20E94FE160E94FA
:10226C00FF1409C0303019F00E94071504C0E0E0DB
:10227C000E943917B9C10E94B11429F40E94C114EB
:10228C0011F0E1E001C0E0E00E943917ADC1BA9352
:10229C00AA93E897E8ADF9ADDE0190968CE00E9428
:1022AC00F416EAADFBADDE019C968CE00E94EA16BA
:1022BC00AAA9BBA90E940F15AC8FBD8F8E8F9F8FC3
:1022CC00AEA5BFA50E940F15A88FB98F8A8F9B8FC3
:1022DC000E9418150E941D15AC8BBD8B8E8B9F8B8D
:1022EC000E9424150E941D15A88BB98B8A8B9B8B81
:1022FC00A8A1B9A10E942915AC87BD878E879F879D
:10230C00ACA1BDA10E942915A887B9878A879B8794
:10231C00AAA1BBA10E943215AC83BD838E839F837F
:10232C00AEA1BFA10E9432150E948A16EC89FD89CC
:10233C006E897F890E943B157F936F93FF93EF9378
:10234C00E889F9896A897B890E944215AF91BF910E
:10235C008F919F910E944915E093A924F093AA2490
:10236C006093AB247093AC240E941D1711F4E0E031
:10237C002BC1EC85FD856E857F850E943B157F9377
:10238C006F93FF93EF93E885F9856A857B850E94AF
:10239C004215AF91BF918F919F910E944915E09387
:1023AC009124F09392246093932470939424E88561
:1023BC00F9856A857B850E944E157F936F93FF93F9
:1023CC00EF93EC85FD856E857F850E945515AF9149
:1023DC00BF918F919F910E944915E0939524F093A2
:1023EC0096246093972470939824EC81FD816E81E0
:1023FC007F810E943B157F936F93FF93EF930E9415
:10240C0068130E944215AF91BF918F919F910E94CA
:10241C004915E0939D24F0939E2460939F24709320
:10242C00A0240E9468130E944E157F936F93FF9314
:10243C00EF93EC81FD816E817F810E945515AF91E8
:10244C00BF918F919F910E944915E093A124F09325
:10245C00A2246093A3247093A4240E945C150E9470
:10246C0061157F936F93FF93EF930E9424150E9445
:10247C006815AF91BF918F919F910E946F157F93BB
:10248C006F93FF93EF930E9418150E9468157F932A
:10249C006F93FF93EF930E945C150E947815AF9198
:1024AC00BF918F919F910E947F15AF91BF918F919A
:1024BC009F910E94B4157F936F93FF93EF930E94AB
:1024CC0024150E9478157F936F93FF93EF930E94CE
:1024DC0018150E946115AF91BF918F919F910E9429
:1024EC008815AF91BF918F919F910E94B415E09385
:1024FC009924F0939A2460939B2470939C240E94BB
:10250C005C150E9491157F936F93FF93EF930E943C
:10251C0024150E949815AF91BF918F919F910E94A5
:10252C006F157F936F93FF93EF930E9418150E9482
:10253C0098157F936F93FF93EF930E945C150E9405
:10254C009F15AF91BF918F919F910E947F15AF9175
:10255C00BF918F919F910E94B4157F936F93FF93BE
:10256C00EF930E9424150E949F157F936F93FF9306
:10257C00EF930E9418150E949115AF91BF918F9106
:10258C009F910E948815AF91BF918F919F910E944E
:10259C00B415E093A524F093A6246093A72470931C
:1025AC00A824E5E0F3E062E679E1E0938D24F09372
:1025BC008E2460938F24709390240E94FF140E94A9
:1025CC0007150E94F714E1E0EC960895BA93AA93CC
:1025DC00B981A881109631F0FC81EB816A816193FD
:1025EC001197E9F7EB81FC8125960895BA93AA938C
:1025FC00EA81E13021F4E881F981E49114C0E23000
:10260C0029F4A881B9810E94B7160DC0E33041F4BA
:10261C00A881B981E0913924F0913A24099503C03D
:10262C00A881B981EC9123960895AA93EB81E030AF
:10263C0029F4E881A981BA81EC9314C0E23031F419
:10264C00E881A981BA810E94C0160CC0E33051F414
:10265C00E981FA81FA93EA93AA81E0913B24F09103
:10266C003C24099524960895E0E0EA93E0E0F0E03C
:10267C00FA93EA930895E0E0EA93E4E1F0E0FA9348
:10268C00EA9308950E94A6150C944208E0E0EA93A0
:10269C00EAE0F0E0FA93EA930895E12FA8E9B4E0B8
:1026AC00F0E00E94DD15EA0FFB1FA4E00E949416D7
:1026BC000895662777270E948F160895A8EEB3E039
:1026CC000C94A6150E9485160895E4EAF4E00E9485
:1026DC007F160E948F160895EC85FD853197EC8747
:1026EC00FD87319608953197FA93EA930E94C107BA
:1026FC00DF010E941006AE2F0895EB85EA93EA8560
:10270C00FB853196EA87FB870895A0911B240C94D6
:10271C002106E695E695E6954E2F089531976627A6
:10272C007727DF01CB010C94FC12662777270E94D8
:10273C00EF150895A985BA851196A987BA871197BF
:10274C00E0913924F0913A2409950895AE2F0E9416
:10275C002106DF010C94A8070E949C07A02F0E9461
:10276C002106DF010C94A8070E942106DF010C94BE
:10277C00FE07EFEEEA93AFE3B1E00C942B08E1E037
:10278C00E0936606E4E0E09366060C94A607E4E0AA
:10279C00E0936506E1E0E09365060895BA93AA9389
:1027AC001A930A930895AE0FBF1F0C94E907E0E04B
:1027BC00EA93A0E0B0E00C941B08EF70F070E29587
:1027CC00E07FFE2FE0E0DF010895E695E695E695C3
:1027DC00E770F0700895EF71F070FE2FE0E008954F
:1027EC00EA93A0E0B0E00C94E907E1E1EA93A0E3FE
:1027FC00B0E60C94E907E770F070FE2FE0E0089566
:10280C00E695E695E695EF70F070DF010895EA9392
:10281C00DA010E942B08E985EA930895E2E0E0933F
:10282C006506A0912624AF3F0895EA83FB83A0910F
:10283C001A240E942106E883F9830895EA1BFB0BF6
:10284C00EE83FF83E1E1EA930895BA93AA93A881FA
:10285C00B9810E94211708950E943017E09120241D
:10286C00F09121240895F8010F5F1F4F04900895F3
:10287C00E0912024F09121240895A0911E24B09180
:10288C001F24F6CF0E945D0BE0931E24F0931F24AF
:10289C000895EA93E0911E24F0911F24FA93EA9391
:1028AC000895BA93AA931A93ED81EA93AC81BD81F2
:1028BC000C94F60CE981FA813196E983FA8331970D
:1028CC00E4911E2FE0300895A885B985EA0FFB1F0F
:1028DC00E887F9870895E885F985EA1BFB0BE887FB
:1028EC00F98708951A933A932A93AA850E94D90CD2
:1028FC00EF8308953A93AB85BC85ED85FE850995EC
:10290C000895EE85FF853497EE87FF870895AE8591
:10291C00BF8514960E947716EE83FF830895DE011F
:10292C001C960E94B0150E9477160895E2E0E09381
:10293C00A5060E94320FE2E0E093A6060C94320F3B
:10294C00F0E0DE011696EE0FFF1F0895E5E0E09330
:10295C00AE2400980895A0918D24B0918E2480917E
:10296C008F2490919024A530E3E0BE07E2E68E0719
:10297C00E9E19E070895A091A924B091AA24809121
:10298C00AB249091AC240E9425170895EA81FB8119
:10299C00662777270E940F160895E881F98166272C
:1029AC0077270E940F1608950E94B915E091A9246B
:1029BC00F091AA246091AB247091AC240E94511622
:1029CC0008950E94AA16E530A3E0FA07A2E66A076A
:1029DC00A9E17A070895FA93EA93A1E4B0E00C9484
:1029EC00B210A1E4B0E0EDE8F4E260E20E940E1750
:1029FC000895EDE8F4E2A1E0B0E060E20E940E1769
:102A0C000895A1E2B0E0EDE8F4E260E20E940E1756
:102A1C00089588279927EEA9FFA9662777270E9492
:102A2C00C3150895ACA5BDA5882799270895ECA9D1
:102A3C00FDA9662777270E94C3150895A8A9B9A9EF
:102A4C0088279927089588279927E8A5F9A5662747
:102A5C0077270E94C315089588279927EAA5FBA517
:102A6C00662777270E94C3150895AC8DBD8D8E8D7A
:102A7C009F8D0E940F160895A88DB98D8A8D9B8D00
:102A8C000E940F1608950E949D160E94BE1508956F
:102A9C00AC89BD898E899F890E940F160895A889DB
:102AAC00B9898A899B890E940F160895ACA9BDA982
:102ABC00882799270895ECA1FDA1662777270E9406
:102ACC000F160895E8A5F9A5662777270E940F161B
:102ADC0008950E94C315EEA5FFA5662777270E94CF
:102AEC000F160895E8A1F9A1662777270E940F1603
:102AFC0008950E94C315EAA9FBA9662777270E94AF
:102B0C000F1608950E94C315EEA9FFA96627772713
:102B1C000E940F160895EEA1FFA1662777270E9449
:102B2C000F160895EAA5FBA5662777270E940F16B6
:102B3C000895EAA1FBA1662777270E940F16089536
:102B4C00109639F080E49FE10197F1F7A895119761
:102B5C00C9F708950024AF0DB01D0895EA0FFB1FAF
:102B6C00681F791F0895AE0FBF1F861F971F08950A
:102B7C00EA1BFB0B680B790B0895AE1BBF0B860B86
:102B8C00970B0895F195E195F0400895F0956095B7
:102B9C007095E195FF4F6F4F7F4F0895EE230E2EEA
:102BAC00FD0121F0EE0FFF1F0A94E1F70895EE0FDF
:102BBC00FF1FEE0FFF1F0895EE23E1E009F0EE2753
:102BCC000895FA9FF02DEB9FF00DEA9FE02DF10D8B
:102BDC0008957A9F702D6B9F700DF89F700DE99F73
:102BEC00700D6A9F602D710DFB9F600D711DE89F2C
:102BFC00600D711D8827FA9FF02D610D781FEB9FDA
:102C0C00F00D611D781FEA9FE02DF10D681F781FF4
:102C1C00089554D0DEDF0EF4B9DF0895002411249A
:102C2C0090E1AA0FBB1F001C111C0E1A1F0A18F4EE
:102C3C000E0E1F1E01C0A1609A9599F7FD01D001DF
:102C4C0008952ED0EBDF0EF49DDF08953F934F9344
:102C5C005F93002411244427552730E2AA0FBB1F91
:102C6C00881F991F001C111C441F551F0E1A1F0A88
:102C7C00460B570B28F40E0E1F1E461F571F01C084
:102C8C00A1603A9559F7FD01BC01D001CA015F91D1
:102C9C004F913F91089512D0D9DF0EF477DF08954C
:102CAC00E894F7FF02C06EDF6894B7FF06C0A095EA
:102CBC00B095119600F8039400FA0895E89477FF04
:102CCC0002C064DF689497FF0BC00024A095B095F8
:102CDC00809590951196801D901D00F8039400FA34
:102CEC000895ED91FC91119708950590F491E02DC4
:102CFC0008950590159065917491F0010895E881FF
:102D0C00F9816A817B810895A883B9838A839B8327
:102D1C0008957A936A93FA93EA930895BB27EA0F7E
:102D2C00FB1F3197C8950A921197D9F70895182E61
:102D3C00862F612D192E972F712D1B2EBF2FF12D44
:102D4C001A2EAE2FE12D0895A895E091CF01E7FD45
:102D5C00FBCFB05FED91FD916D917C91A350B04193
:102D6C000895A895E091CF01E7FDFBCFB05FEC9102
:102D7C00B051089523D0B05F8C918E1711F4B051DF
:102D8C0008959E2F1BD07F937FB7F8949C93B051DE
:102D9C00A093C001B093C10180E08093C20185E390
:102DAC008093CA0188ED91E084BF9093CB0106D04B
:102DBC0080E08093CA017FBF7F910895A895809190
:102DCC00CF0187FDFBCF08959927EF93FF93619176
:102DDC006D930197E1F7FF91EF9108959927EF9388
:102DEC00FF9305900D920197E1F7FF91EF910895F4
:102DFC009927EF93FF93F05FA8956091CF0167FD42
:102E0C00FBCF61916D930197E1F7FF91EF910895DD
:102E1C007727EF93FF930190EF93E02DABDFEF91CA
:102E2C00119661507040B9F7FF91EF91089530976A
:102E3C0060407040089500240A160B060895002483
:102E4C000A160B06080609060895E894EE2309F005
:102E5C00689408955A934A933A932A931A930A932F
:102E6C0008955D814C813B812A81198108810895E7
:00000001FF
